:020000040800F2
:10000000B007002089010008592300088B1C000854
:10001000392300088F040008052A000800000000AA
:10002000000000000000000000000000892300081C
:1000300093040008000000005D2300088B230008E3
:10004000A3010008A3010008A3010008A301000800
:10005000A3010008A3010008A3010008A3010008F0
:10006000A3010008A3010008A3010008A3010008E0
:10007000A3010008A3010008A3010008A3010008D0
:10008000A3010008A3010008A3010008A3010008C0
:10009000A3010008A3010008A3010008A3010008B0
:1000A000A3010008A3010008A3010008A3010008A0
:1000B000A3010008A3010008A3010008A301000890
:1000C000A3010008A3010008A3010008A301000880
:1000D000A3010008A3010008A3010008D929000812
:1000E000A3010008A3010008A301000800F002F822
:1000F00000F03AF80AA090E8000C82448344AAF188
:100100000107DA4501D100F02FF8AFF2090EBAE885
:100110000F0013F0010F18BFFB1A43F0010318473B
:100120006878000088780000103A24BF78C878C149
:10013000FAD8520724BF30C830C144BF04680C60ED
:10014000704700000023002400250026103A28BF35
:1001500078C1FBD8520728BF30C148BF0B60704739
:100160001FB51FBD10B510BD00F05CF91146FFF7BB
:10017000F7FF04F0EBF900F07AF903B4FFF7F2FFB0
:1001800003BC00F07DF9000009488047094800479A
:10019000FEE7FEE7FEE7FEE7FEE7FEE7FEE7FEE737
:1001A000FEE7FEE704480549054A064B7047000094
:1001B000F9230008ED000008B0010020B00700207E
:1001C000B0030020B003002010B54C1084EA5304A3
:1001D00004D54042C1F1000138BF491E1B4204D57D
:1001E0005242C3F1000338BF5B1E00F06FF814F0F9
:1001F000804F04D04042C1F1000138BF491E14F0C5
:10020000004F04D05242C3F1000338BF5B1E10BD43
:1002100040EA010310B59B070FD1042A0DD310C883
:1002200008C9121F9C42F8D020BA19BA884201D9D5
:10023000012010BD4FF0FF3010BD1AB1D30703D01D
:10024000521C07E0002010BD10F8013B11F8014BD3
:100250001B1B07D110F8013B11F8014B1B1B01D1EF
:10026000921EF1D1184610BD02F0FF0343EA0322AB
:1002700042EA024200F0AEB84FF0000200B5134669
:1002800094469646203922BFA0E80C50A0E80C50B6
:10029000B1F12001BFF4F7AF090728BFA0E80C5067
:1002A00048BF0CC05DF804EB890028BF40F8042B60
:1002B00008BF704748BF20F8022B11F0804F18BFCD
:1002C00000F8012B704770477047704753EA020CE3
:1002D00000F069802DE9F04B4FF00006002B1FBFA6
:1002E000B3FA83F503FA05F424FA05F65E4012BF6B
:1002F0001643B2FA82F502FA05F4C5F120051EBFD5
:1003000022FA05FC44EA0C04203556EA044C4FEA74
:10031000144418BF641C4FF000084FF000099042CD
:1003200071EB030C39D3002919BFB1FA81F701FA37
:1003300007F6B0FA80F700FA07F6C7F120071EBFEC
:1003400020FA07FC46EA0C062037B6FBF4FCA7EBC4
:100350000507103F07F01F0BCBF120060CFA0BFB33
:100360002CFA06F644BFB3460026202FA4BF5E46F3
:100370004FF0000B5BEA060C08BF4FF0010B19EBC6
:100380000B09ABFB027C48EB0608C01B06FB02CC4A
:100390000BFB03CC71EB0C01C1E70B460246414657
:1003A0004846BDE8F08B13B54FF000004FF0000158
:1003B000AFF30080BDE81C40704710B500F02AF88C
:1003C000006810BD10B5044600F024F8046010BDAC
:1003D0004FF000020429C0F0128010F0030C3FF42B
:1003E0004DAFCCF1040CBCF1020F18BF00F8012B8B
:1003F000A8BF20F8022BA1EB0C01FFF73FBF5FEA7B
:10040000C17C24BF00F8012B00F8012B48BF00F885
:10041000012B70470048704750010020004870478A
:10042000500100207546FFF7F9FFAE46050069460A
:10043000534620F00700854618B020B5FFF7B2FEFE
:10044000BDE820404FF000064FF000074FF00008D5
:100450004FF0000B21F00701AC46ACE8C009ACE856
:10046000C009ACE8C009ACE8C0098D46704710B5BA
:100470000446AFF300802046BDE81040FFF77DBE84
:1004800001491820ABBEFEE726000200704700BFFE
:10049000FEE7704772B600BFFEE70146002291F802
:1004A0002100022808D00420886300BF002081F8C2
:1004B000200000BF012070470868006820F00E008F
:1004C0000B6818600868006820F001000B6818606D
:1004D00091F8403001209840CB6B5860012081F8A2
:1004E000210000BF002081F8200000BF1046E2E795
:1004F00070B50446002594F82100022803D004209A
:10050000A063012548E02068006820F00E00216803
:1005100008602068006820F00100216808601F4919
:100520002068884201D1012026E01C49143120684E
:10053000884201D110201FE01849283120688842E4
:1005400001D1801518E015493C312068884201D15D
:10055000801411E0114950312068884202D14FF4D3
:10056000803009E00D4964312068884202D14FF49F
:10057000801001E04FF08070084908394860012080
:1005800084F8210000BF002084F8200000BF606BC9
:1005900010B12046616B8847284670BD08000240B4
:1005A00070B5044600F0AEF906462546681C10B149
:1005B00004480078054400BF00F0A4F9801BA8425D
:1005C000FAD370BD1C0000202DE9F8470346002235
:1005D00094466EE14FF0010808FA02F4D1F8008069
:1005E00008EA0400A0427DD1DFF8DCA2D1F8048043
:1005F000A8EB0A09D0453AD014DCB8F1030F50D06B
:1006000009DCB8F1000F31D0B8F1010F1CD0B8F1FE
:10061000020F49D120E0B8F1110F18D0B8F1120F34
:1006200042D11EE0B9F5881F25D006DCB9F5803F20
:1006300020D0B9F5801F37D11AE0B9F5001F18D0C6
:10064000B9F5041F30D117E0D1F80CC02DE0D1F876
:100650000C8008F1040C28E0D1F80C8008F1080C9B
:1006600023E0D1F80C8008F10C0C1EE000BF00BFA5
:1006700000BF00BF00BF00BFD1F80880B8F1000F75
:1006800002D14FF0040C0BE0D1F80880B8F1010F53
:1006900003D14FF0080C1C6102E04FF0080C5C61C4
:1006A00003E04FF0000C00E000BF00BFFF2801D8BE
:1006B000984601E003F104084646FF2802D84FEAB5
:1006C000820803E0A2F108084FEA88084746D6F8F6
:1006D00000804FF00F0909FA07F928EA09080CFA17
:1006E00007F900E088E048EA0908C6F80080D1F878
:1006F000048008F08058B8F1805F7DD100BFDFF83A
:10070000CC81D8F8188048F00108DFF8C091C9F80A
:100710001880C846D8F8188008F00108CDF8008085
:1007200000BF00BF4FEAB9384FEA920958F8295084
:100730004FEA82784FEA18794FF00F0808FA09F863
:1007400025EA0805DFF88881434502D14FF000080B
:1007500016E0DFF88081434502D14FF001080FE039
:10076000DFF87481434502D14FF0020808E0DFF85A
:100770006C81434502D14FF0030801E04FF00408BB
:100780004FEA82794FEA197908FA09F848EA05052B
:10079000DFF84C814FEA920948F82950D1F80480DB
:1007A00008F48018B8F5801F0AD1DFF83881D8F82E
:1007B000008048EA0008DFF82C91C9F8008009E0C1
:1007C000DFF82081D8F8008028EA0008DFF81491CB
:1007D000C9F80080D1F8048008F40018B8F5001FAB
:1007E00010D1DFF8008108F10408D8F8008048EA49
:1007F0000008DFF8F09000E05AE009F10409C9F8B8
:1008000000800DE0DFF8DC8008F10408D8F80080F3
:1008100028EA0008DFF8CC9009F10409C9F8008043
:10082000D1F8048008F40038B8F5003F0ED1DFF8A5
:10083000B480A8F10408D8F8008048EA0008DFF87E
:10084000A490A9F10409C9F800800DE0DFF89480B4
:10085000A8F10408D8F8008028EA0008DFF884909E
:10086000A9F10409C9F80080D1F8048008F480389F
:10087000B8F5803F0ED1DFF86C80A8F10808D8F8F1
:10088000008048EA0008DFF85C90A9F10809C9F87F
:1008900000800DE0DFF84C80A8F10808D8F800804F
:1008A00028EA0008DFF83C90A9F10809C9F800809F
:1008B000521CD1F8008028FA02F8B8F1000F7FF43A
:1008C00089AEBDE8F887000000001110001002405A
:1008D00000080140000C01400010014000140140DC
:1008E0000800014008040140024693680B400BB128
:1008F000012000E0002070470AB1016101E00B0413
:100900000361704701480068704700001400002030
:1009100070B504460CB9012070BD94F83D0028B9AB
:10092000002084F83C00204600F0DAF8242084F807
:100930003D002068006820F0010021680860206800
:10094000006840F40040216808602068006820F4D6
:1009500000402168086000F0A7FA05465C4960681D
:10096000884206D85B48854201D2012007E000207A
:1009700005E05948854201D2012000E0002001280D
:1009800000D1C9E75548B5FBF0F62068406820F073
:100990003F003043216848604D496068884201D873
:1009A000701C07E04FF4967070434FF47A71B0FBFF
:1009B000F1F0401C2168096A21F03F0108432168D9
:1009C000086243496068884214D8681E616849001B
:1009D000B0FBF1F0401CC0F30B00042801D204204E
:1009E0003DE0681E61684900B0FBF1F0401CC0F3B7
:1009F0000B0034E0A06838B9681E616801EB410162
:100A0000B0FBF1F0401C0AE0681E616801EBC10216
:100A100002EB0111B0FBF1F0401C40F48040C0F348
:100A20000B0008B901201AE0A06848B9681E616887
:100A300001EB4101B0FBF1F0401CC0F30B000CE0F6
:100A4000681E616801EBC10202EB0111B0FBF1F01D
:100A5000401CC0F30B0040F4804040F4004021688B
:100A6000C9694CF6FF72914308432168C861D4E913
:100A7000070108432168096821F0C0010843216883
:100A80000860D4E9031008432168896848F2FF32FE
:100A90009143084321688860D4E90501084321682F
:100AA000C96821F0FF0108432168C8602068006818
:100AB00040F001002168086000202064202084F8B4
:100AC0003D000020206384F83E0000BF24E70000C2
:100AD000A086010080841E0000093D0040420F00F6
:100AE00010B586B004460020029003900490059053
:100AF0001A49206888422FD100BF1948806940F008
:100B00000800174988610846806900F008000190D4
:100B100000BF00BF4FF440700290122003900320EA
:100B2000059002A90F48FFF74FFD00BF0E49486826
:100B300040F0E06040F00200486000BF00BF08489D
:100B4000C06940F400100649C8610846C06900F455
:100B50000010019000BF00BF06B010BD005400405F
:100B600000100240000C01400000014003480068F2
:100B700003490978084401490860704714000020BF
:100B80001C00002010B50848006840F0100006491D
:100B90000860032000F0A8F80F2000F007F800F02C
:100BA0002BF8002010BD00000020024070B5044664
:100BB0000E4800784FF47A71B1FBF0F00C490968E7
:100BC000B1FBF0F5284600F0F9FB08B1012070BD3B
:100BD000102C07D200222146501E00F047F805488D
:100BE000046001E00120F2E70020F0E71C00002093
:100BF000200000201800002008B500BF11488069BF
:100C000040F001000F4988610846806900F001004A
:100C1000009000BF00BF00BF0846C06940F0805090
:100C2000C8610846C06900F08050009000BF00BF56
:100C300000BF0549486820F0E06040F0007048605F
:100C400000BF08BD001002400000014001460846F8
:100C5000002809DB00F01F0301229A4043099B0092
:100C600003F1E023C3F8002100BF70472DE9F05FD6
:100C700080460D461646002701F0DAFE0746394643
:100C80002A46334601F00700C0F1070ABAF1040F03
:100C900002D94FF0040A01E0C0F1070AD14600F181
:100CA000040ABAF1070F02D24FF0000A01E0A0F1E6
:100CB000030AD4464FF0010A0AFA09FAAAF1010A16
:100CC0000AEA020A0AFA0CFA4FF0010B0BFA0CFBC3
:100CD000ABF1010B0BEA030B4AEA0B042146404639
:100CE00001F0AEFEBDE8F09F00BF00F00702064B2A
:100CF00019684FF6FF031940044B0B4343EA0221E6
:100D0000014B196000BF70470CED00E00000FA05D0
:100D100070B504460D460CB9012070BD5A480068F4
:100D200000F00700A8420ED25748006820F00700E4
:100D30002843554908600846006800F00700A842AB
:100D400001D00120E9E7207800F0020002281DD13F
:100D5000207800F00400042805D14C48406840F495
:100D6000E0604A494860207800F00800082805D172
:100D70004648406840F460504449486043484068F1
:100D800020F0F000A168084340494860207800F056
:100D9000010078B36068012806D13C48006800F47F
:100DA000003090B90120B8E76068022806D13748C2
:100DB000006800F0007040B90120AEE733480068D9
:100DC00000F0020008B90120A7E73048406820F091
:100DD0000300616808432D494860FFF793FD06460C
:100DE00009E0FFF78FFD801B41F28831884202D96C
:100DF000032092E707E02548406800F00C00616896
:100E0000B0EB810FEDD12048006800F00700A84248
:100E10000ED91D48006820F0070028431A490860D1
:100E20000846006800F00700A84201D0012074E7DE
:100E3000207800F00400042807D11448406820F40A
:100E4000E060E168084311494860207800F008003C
:100E5000082808D10D48406820F46050216940EA14
:100E6000C1000A49486000F03FF808494968C1F3E9
:100E70000311074A515CC8400649086006480068EB
:100E8000FFF794FE002048E70020024000100240D7
:100E9000386C00082000002018000020014800687D
:100EA000704700002000002000B5FFF7F7FF04495D
:100EB0004968C1F30221034A515CC84000BD0000EB
:100EC00000100240486C000800B5FFF7E7FF044936
:100ED0004968C1F3C221034A515CC84000BD00000B
:100EE00000100240486C000870B500210022002468
:100EF00000230020134D696801F00C05F5B1042DA5
:100F000002D0082D19D101E00F4819E00F4DC1F3AF
:100F10008346AB5D01F4803555B10A4D6D68C5F36C
:100F200040450B4E725D084D5D43B5FBF2F402E0A7
:100F3000084D03FB05F4204602E000BF024800BF55
:100F400000BF70BD0010024000127A00266C00083D
:100F5000366C000800093D00F8B504460CB90120C4
:100F6000F8BD207800F00100002878D0F8484068EB
:100F700000F00C0004280CD0F548406800F00C008C
:100F8000082811D1F248406800F48030B0F5803F65
:100F90000AD1EF48006800F4003000285FD0606894
:100FA00000285CD10120DBE700BF6068B0F5803F1E
:100FB00006D1E748006840F48030E549086028E041
:100FC000606858B9E248006820F48030E049086061
:100FD0000846006820F4802008601AE06068B0F5D8
:100FE000A02F0BD1DA48006840F48020D84908606F
:100FF0000846006840F4803008600AE0D448006881
:1010000020F48030D24908600846006820F480202F
:10101000086000BF606888B1FFF774FC054606E011
:10102000FFF770FC401B642801D9032098E7C848EB
:10103000006800F400300028F2D010E0FFF762FCF6
:10104000054606E0FFF75EFC401B642801D903203B
:1010500086E7BF48006800F400300028F2D120780D
:1010600000F00200022857D1B948406800F00C0097
:1010700050B1B748406800F00C00082818D1B448B7
:10108000406800F4803098B9B148006800F0020070
:1010900020B12069012801D0012061E7AC48006837
:1010A00020F0F800616940EAC100A949086033E016
:1010B0002069E8B10120A7490860FFF723FC054635
:1010C00006E0FFF71FFC401B022801D9032047E779
:1010D0009F48006800F002000028F2D09C48006899
:1010E00020F0F800616940EAC1009949086013E006
:1010F000002098490860FFF705FC054606E0FFF769
:1011000001FC401B022801D9032029E79048006810
:1011100000F002000028F2D1207800F00800082832
:101120002DD1A069B8B101208B490860FFF7EAFB17
:10113000054606E0FFF7E6FB401B022801D9032025
:101140000EE78348406A00F002000028F2D0012038
:1011500001F006F913E000207F490860FFF7D2FB99
:10116000054606E0FFF7CEFB401B022801D903200D
:10117000F6E67748406A00F002000028F2D12078B5
:1011800000F00400042873D100277148C06900F002
:10119000805070B900BF6E48C06940F080506C4903
:1011A000C8610846C06900F08050009000BF00BFD1
:1011B00001276A48006800F48070B0B96748006889
:1011C00040F4807065490860FFF79CFB054606E027
:1011D000FFF798FB401B642801D90320C0E65F4855
:1011E000006800F480700028F2D000BFE068012899
:1011F00006D15748006A40F001005549086227E0CF
:10120000E06858B95248006A20F00100504908626D
:101210000846006A20F00400086219E0E06805282A
:101220000BD14B48006A40F0040049490862084667
:10123000006A40F0010008620AE04548006A20F0B8
:101240000100434908620846006A20F00400086271
:1012500000BFE068A0B1FFF755FB054609E0FFF7C6
:1012600051FB401B41F28831884202D9032077E6C6
:1012700022E03748006A00F002000028EFD012E0B8
:10128000FFF740FB054608E0FFF73CFB401B41F23F
:101290008831884201D9032062E62D48006A00F0B7
:1012A00002000028F0D1012F05D12948C06920F0A3
:1012B00080502749C86100BFE069C8B3244840682E
:1012C00000F00C00082860D0E069022848D1002016
:1012D00020490866FFF716FB054606E0FFF712FBFC
:1012E000401B022801D903203AE61948006800F0A3
:1012F00000700028F2D1206AB0F5803F07D1144871
:10130000406820F40030A168084311494860D4E9DE
:10131000080108430E49496821F4741108430C4937
:10132000486001200B490866FFF7ECFA054607E024
:101330003DE0FFF7E7FA401B022801D903200FE642
:101340000348006800F000700028F2D02FE0000091
:1013500000100240000042428004424200700040FF
:10136000002014490866FFF7CDFA054606E0FFF7AE
:10137000C9FA401B022801D90320F1E50E48006894
:1013800000F000700028F2D111E0E069012800D1DE
:10139000E6E50948466806F48031206A814204D1B6
:1013A00006F47011606A814201D00120D8E5002066
:1013B000D6E50000000042420010024070B504462D
:1013C0002546681EB0F1807F01D301200FE0681E22
:1013D0004FF0E02148610F214FF0FF3001F030FB6A
:1013E00000204FF0E021886107200861002070BDD7
:1013F00010B50346002200BF93F83C00012801D13C
:10140000022010BD012083F83C0000BF22F0FF0045
:10141000CC6840EA040222F440708C6840EA04027E
:1014200022F480604C6840EA040222F400600C68F8
:1014300040EA040222F480500C6940EA040222F4DB
:1014400000504C6940EA040222F48040CC6940EA32
:1014500004021868426400BF002083F83C0000BF0B
:1014600000BFCEE730B502460B4600BF92F83C0005
:10147000012801D1022030BD012082F83C0000BFCC
:10148000022082F83D00106844681068816824F0EA
:1014900070041868044310684460104D1068A84236
:1014A0000BD01068B0F1804F07D00D4D1068A842E6
:1014B00003D00C4D1068A84205D121F08001586876
:1014C000014310688160012082F83D0000BF0020C8
:1014D00082F83C0000BF00BFCDE70000002C0140B7
:1014E000000400400008004010B586B0044600200B
:1014F00002900390049005900E492068884217D10D
:1015000000BF0D48806940F004000B49886108461F
:10151000806900F00400019000BF00BF4FF410602C
:10152000029002200390059002A90448FFF74CF8AE
:1015300006B010BD002C0140001002400008014020
:101540002DE9F04104460D461646002700BF94F8E9
:101550003C00012802D10220BDE8F081012084F87E
:101560003C0000BF36B1042E1BD0082E31D00C2E0B
:101570005ED145E02946206800F08CFF2068806934
:1015800040F00800216888612068806920F004002C
:101590002168886120688069296908432168886119
:1015A00048E02946206800F0A5FF2068806940F4E3
:1015B0000060216888612068806920F4806021686B
:1015C000886120688069296940EA01202168886172
:1015D00030E02946206800F0C1FF2068C06940F073
:1015E00008002168C8612068C06920F004002168F3
:1015F000C8612068C069296908432168C86119E089
:101600002946206800F0DEFF2068C06940F40060D1
:101610002168C8612068C06920F480602168C861C1
:101620002068C069296940EA01202168C86101E099
:10163000012700BF00BF00BF002084F83C0000BFAE
:10164000384689E710B504460CB9012010BD94F85E
:101650003D0028B9002084F83C00204600F026F820
:10166000022084F83D00211D206800F0C7FE012003
:1016700084F8460000BF84F83E0001213F20015558
:10168000402001554120015500BF00BF012084F8D2
:10169000420043200155442001554520015500BF1B
:1016A000012084F83D000020D0E7000008B5094A79
:1016B000016891420DD100BF0749896941F4006179
:1016C000054A91611146896901F40061009100BFEA
:1016D00000BF08BD002C01400010024070B5044658
:1016E0000D4615B994F83E000BE0042D02D13F20C1
:1016F000005D06E0082D02D14020005D01E04120A0
:10170000005D012801D0012070BD1DB9022084F8C0
:101710003E000EE0042D03D102213F20015508E0D8
:10172000082D03D102214020015502E00221412071
:10173000015501222946206800F09AFE19492068C7
:10174000884201D1012000E0002028B12068406CCF
:1017500040F40040216848641249206888420BD058
:101760002068B0F1804F07D00F492068884203D02D
:101770000E49206888420CD12068806800F0070676
:10178000062E0CD02068006840F001002168086037
:1017900005E02068006840F0010021680860002032
:1017A000B2E70000002C01400004004000080040A7
:1017B000704770472DE9F84F044620680568206897
:1017C000C668206847694FF00009CA4605F00F094E
:1017D000B9F1000F0AD105F0200038B106F0200061
:1017E00020B1204600F062FFBDE8F88FB9F1000F8C
:1017F0007BD007F0010018B906F49070002874D06F
:1018000005F0010030B106F4807018B1606C40F052
:101810000100606405F0040030B107F0010018B168
:10182000606C40F00200606405F0020030B107F027
:10183000010018B1606C40F00400606405F008001D
:1018400048B106F0200010B907F0010018B1606C33
:1018500040F008006064606C002845D005F020006E
:1018600028B106F0200010B1204600F01FFF2068CC
:101870004069C0F3801A606C00F0080010B9BAF13A
:10188000000F2CD0204600F0CBFE2068406900F00D
:10189000400000B300BF00BF2168143151E8001FB1
:1018A00021F040002168143141E80002002AF3D100
:1018B00000BFE06B50B17748E16B4863E06BFEF727
:1018C00017FE88B1E06B416B88470DE02046FFF7BB
:1018D00070FF09E009E02046FFF76BFF04E02046B7
:1018E000FFF767FF002060647EE7206B012877D157
:1018F00005F01000002873D006F010000028FAD080
:1019000000BF0020009020680068009020684068B8
:10191000009000BF00BF2068406900F04000002830
:101920005FD0E06B006840681FFA80F8B8F1000FE4
:1019300055D0A08D404552DDA4F82E80E06B806923
:10194000202843D000BF00BF21680C3151E8001FA0
:1019500021F4807021680C3141E80002002AF3D1A3
:1019600000BF00BF00BF2168143151E8001F21F003
:1019700001002168143141E80002002AF3D100BFC0
:1019800000BF00BF2168143151E8001F21F0400062
:101990002168143141E80002002AF3D100BF202061
:1019A00084F842000020206300BF00BF21680C3192
:1019B00051E8001F21F0100021680C3141E80002BD
:1019C000002AF3D100BFE06BFEF767FD02206063E1
:1019D000A08DE28D801A81B22046FFF7E9FE03E771
:1019E00042E0A08DE18D401A1FFA80F8E08DD0B35F
:1019F000B8F1000F37D000BF00BF21680C3151E8AB
:101A0000001F21F4907021680C3141E80002002A87
:101A1000F3D100BF00BF00BF2168143151E8001F9F
:101A200021F001002168143141E80002002AF3D1BD
:101A300000BF202084F842000020206300BF00BFC8
:101A400021680C3151E8001F21F0100021680C3191
:101A500041E80002002AF3D100BF02206063414642
:101A60002046FFF7A5FEBFE605F0800030B106F086
:101A7000800018B1204600F035FFB5E605F04000C3
:101A800030B106F0400018B1204600F0FFFDABE693
:101A900000BFA9E60D26000810B504460CB90120C8
:101AA00010BDA06900B100E000BF94F8410028B962
:101AB000002084F84000204600F02AF8242084F812
:101AC00041002068C06820F400502168C8602046AA
:101AD00000F06AFE2068006920F4904021680861E7
:101AE0002068406920F02A00216848612068C068A9
:101AF00040F400502168C86000206064202084F811
:101B0000410084F842000020606300BFC8E7000085
:101B100010B586B004460020029003900490059012
:101B20001E492068884236D100BF1D48C06940F474
:101B300080201B49C8610846C06900F480200190DC
:101B400000BF00BF00BF0846806940F00800886100
:101B50000846806900F00800019000BF00BF08152A
:101B60000290022003900320059002A90D48FEF781
:101B70002BFD4FF40060029000200390049002A916
:101B80000848FEF721FD002211462720FFF76EF8D6
:101B90002720FFF75BF806B010BD000000480040AA
:101BA00000100240000C014070B504460D46164678
:101BB00094F8420020280BD105B10EB9012070BD68
:101BC0000020206332462946204600F06BFEF6E7EF
:101BD0000220F4E770472DE9F84F04460E461746F9
:101BE00099464FF0000A94F8410020284AD106B1E6
:101BF00017B90120BDE8F88F00206064212084F827
:101C00004100FEF77FFE8246A784E784A068B0F516
:101C1000805F04D1206910B90025B04602E0354646
:101C20004FF000081BE05346002280212046CDF8EB
:101C3000009000F087FE08B10320DBE745B9B8F853
:101C40000000C0F308002168486008F1020803E0C2
:101C50002878216848606D1CE08C401EE084E08C90
:101C60000028E0D15346002240212046CDF80090C4
:101C700000F068FE08B10320BCE7202084F8410092
:101C80000020B7E70220B5E7704700BFFEE700007D
:101C900010B5002208210C48FEF72EFE00F016F8C1
:101CA000012210210848FEF727FE00F00FF800225D
:101CB00010210548FEF720FE00F008F80122082157
:101CC0000148FEF719FE10BD000C0140002001E0A4
:101CD000411CC8B20A28FBDB7047000000B585B084
:101CE00000BF0D48806940F008000B498861084634
:101CF000806900F00800009000BF00BF182001902C
:101D0000032004901120029001A90448FEF75CFC16
:101D100000F09AF805B000BD00100240000C014030
:101D200010B5012208210A48FEF7E6FDFFF7CEFFB5
:101D3000012210210648FEF7DFFDFFF7C7FF002252
:101D400010210348FEF7D8FDFFF7C0FF10BD0000CB
:101D5000000C014070B505460024002618E060061E
:101D6000040E012210210F48FEF7C6FDFFF7AEFF5B
:101D700008210C48FEF7B8FD08B1601CC4B200226F
:101D800010210848FEF7B8FDFFF7A0FF701CC6B28F
:101D9000082EE4DB15B9FFF7C3FF01E0FFF778FF7A
:101DA000204670BD000C014070B50446002528E0B7
:101DB00004F0800028B1012208211348FEF79CFDA1
:101DC00004E0002208211048FEF796FDFFF77EFF91
:101DD000012210210C48FEF78FFDFFF777FF00224C
:101DE00010210948FEF788FD072D04D101220821A2
:101DF0000548FEF781FD6006040EFFF767FF681CCB
:101E0000C5B2082DD4DB70BD000C014010B5012215
:101E100008210C48FEF770FD012210210948FEF749
:101E20006BFDFFF753FF002208210648FEF764FD13
:101E3000FFF74CFF002210210248FEF75DFDFFF77F
:101E400045FF10BD000C014010B5002208210848D4
:101E5000FEF752FD012210210548FEF74DFDFFF768
:101E600035FF012208210248FEF746FD10BD0000A3
:101E7000000C014010B5012208210E48FEF73CFD80
:101E8000FFF724FF012210210A48FEF735FDFFF776
:101E90001DFF08210748FEF727FD08B1012400E0D7
:101EA0000024002210210348FEF726FDFFF70EFF55
:101EB000204610BD000C014070B504460D46164684
:101EC000324629462046FFF76FFE70BD10B5104818
:101ED000007807281AD2DFE800F004070A0D101373
:101EE000160003F063FD11E002F026FA0EE002F0A6
:101EF0001DFA0BE003F04EFD08E003F051FD05E094
:101F000002F020FA02E002F023FA00BF00BF10BD89
:101F10001300002010B5FFF7E1FE80216B2000F0D8
:101F2000D7F86420FEF73CFB00216B2000F0D0F8CE
:101F3000032000F08BF8002000F080F8322000F041
:101F4000AAF80021382000F0C3F800216A2000F030
:101F5000BFF80021232000F0BBF88021372000F0DB
:101F6000B7F8752000F013F80446682C0BD1012156
:101F70006B2000F0ADF800216C2000F0A9F83220B1
:101F800000F089F801E0012010BD0020FCE770B5E9
:101F90000446FFF73BFFD020FFF706FFFFF76AFF7D
:101FA0002046FFF701FFFFF765FFFFF72FFFD12066
:101FB000FFF7FAFEFFF75EFF0020FFF7CBFE0546B6
:101FC000FFF742FF284670BD2DE9F04106460F4657
:101FD00014461D46FFF71AFF002141EA4601C8B228
:101FE000FFF7E2FEFFF746FF20B1FFF72DFF0120CC
:101FF000BDE8F0813846FFF7D7FEFFF73BFFFFF75C
:1020000005FF012101EB4601C8B2FFF7CDFEFFF746
:1020100031FF0DE0012C04D10020FFF79BFE28705A
:1020200003E00120FFF796FE2870601EC4B26D1C0D
:10203000002CEFD1FFF708FF0020D9E710B50446C8
:10204000E006010E1C2000F043F810BD10B5044658
:10205000E006010E1B2000F03BF810BD70B50446F1
:102060000025BC2C01DB012510E0622C01DB0225E0
:102070000CE02A2C01DB032508E0142C01DB0425ED
:1020800004E00A2C01DB052500E0062529461A207C
:1020900000F01EF870BD70B50446B4F57A7F01DD1E
:1020A0004FF47A74042C00DA04244FF47A7090FB15
:1020B000F4F0401EC5B22946192000F009F8054683
:1020C000264604EBD671C1F34F00FFF7C7FF70BD82
:1020D00070B505460C46FFF799FED020FFF764FE69
:1020E000FFF7C8FE18B1FFF7AFFE012070BD28460C
:1020F000FFF75AFEFFF7BEFE2046FFF755FEFFF73B
:10210000B9FE18B1FFF7A0FE0120EFE7FFF79CFE34
:102110000020EBE72DE9F04105460E4617469846AC
:10212000FFF774FE002141EA4501C8B2FFF73CFE0B
:10213000FFF7A0FE20B1FFF787FE0120BDE8F08188
:102140003046FFF731FEFFF795FE00240CE018F84B
:102150000400FFF729FEFFF78DFE18B1FFF774FEAC
:102160000120EBE7601CC4B2BC42F0DBFFF76CFE61
:102170000020E3E700B585B00020019002900390B5
:10218000049000BF1D48806940F020001B49886111
:102190000846806900F02000009000BF00BF00BF2B
:1021A0000846806940F0080088610846806900F0B0
:1021B0000800009000BF00BF00BF0846806940F0E3
:1021C000040088610846806900F00400009000BFA8
:1021D00000BF00224FF218010948FEF78DFB4FF2B5
:1021E000180001900120029000200390022004902A
:1021F00001A90348FEF7E8F905B000BD0010024050
:10220000000C014010B50B480B4908600B484860B2
:10221000002109488160C1604FF4804101610021C3
:1022200041618161C1610162FEF772FB08B1FEF795
:1022300031F910BD005400405C000020A086010070
:1022400000B591B000200F9010901C2108A8FEF757
:1022500013F820216846FEF70FF827482749086041
:102260000020486000212548816041F61F41C1607F
:102270000021016141618161FFF7E4F908B1FEF7D6
:1022800009F900200F9010900FA91C48FFF7EAF8F9
:1022900008B1FEF7FFF860200890002009900A902E
:1022A0000B900C900D900E90002208A91348FFF798
:1022B00047F908B1FEF7EEF80C2208A90F48FFF71E
:1022C0003FF908B1FEF7E6F8002000900190029077
:1022D000039004904FF40050059000200790694649
:1022E0000648FFF785F808B1FEF7D4F80348FFF772
:1022F000FBF811B000BD0000002C0140B000002030
:1023000010B50B480B4908604FF416504860002187
:1023100008488160C16001610C2141610021816137
:10232000C161FFF7B9FB08B1FEF7B4F810BD0000BA
:1023300000480040F800002000BFFEE710B50C2167
:102340000448FFF7CBF900210248FFF7C7F903F073
:102350002DFB10BDB000002000BFFEE7704700005D
:1023600008B508490968C9084FF47A72B1FBF2F15F
:102370004143009100BF00BF00994A1E009200290E
:10238000F9D108BD20000020704710B5FEF7EEFB24
:1023900010BD00B58FB0282105A8FDF76DFF1421F1
:1023A0006846FDF769FF01200590000406900020B3
:1023B00007900120099002200C90C1030D914FF469
:1023C000E0110E9105A8FEF7C7FD08B1FEF762F80F
:1023D0000F20009002200190002002904FF48060B6
:1023E00003900020049002216846FEF791FC08B19A
:1023F000FEF750F80FB000BD7047000010B502683E
:10240000184B984208D0B0F1804F05D0164B984237
:1024100002D0164B984203D122F070024B681A4347
:10242000104B984208D0B0F1804F05D00E4B984227
:1024300002D00E4B984203D122F44072CB681A436B
:1024400022F080034C6943EA040202608B68C36295
:102450000B688362034B984201D10B69036301232C
:10246000436110BD002C0140000400400008004002
:1024700030B501F01F05012404FA05F3046A9C43FA
:102480000462046A01F01F0502FA05F52C43046298
:1024900030BD000030B5026A056A25F0010505620D
:1024A0004368846924F0700424F003040D682C430D
:1024B00022F002028D682A430D4DA84206D100BFCA
:1024C00022F00802CD682A4322F00402084DA842F7
:1024D00007D123F4807323F400734D692B438D6976
:1024E0002B43436084614D684563026230BD000048
:1024F000002C014030B5026A056A25F0100505621E
:102500004368846924F4E04424F440740D6844EA88
:10251000052422F020028D6842EA05120E4DA842E1
:1025200007D100BF22F08002CD6842EA051222F0F6
:102530004002094DA84209D123F4806323F40063CB
:102540004D6943EA85038D6943EA850343608461ED
:102550004D688563026230BD002C014030B5026ACF
:10256000056A25F4807505624368C46924F0700427
:1025700024F003040D682C4322F400728D6842EAB3
:1025800005220F4DA84207D100BF22F40062CD689A
:1025900042EA052222F48062094DA84209D123F4BF
:1025A000805323F400534D6943EA05138D6943EAD0
:1025B00005134360C4614D68C563026230BD00000D
:1025C000002C014030B5036A056A25F48055056288
:1025D0004468C26922F4E04222F440720D6842EA83
:1025E000052223F400538D6843EA0533064DA842C3
:1025F00004D124F480444D6944EA85144460C261E6
:102600004D680564036230BD002C014070B505467D
:102610006C6A0020E085E0842046FFF7CAF870BDB0
:1026200000BF00BF02680C3252E8002F22F4907104
:1026300002680C3242E80013002BF3D100BF00BF48
:1026400000BF0268143252E8002F22F00101026834
:10265000143242E80013002BF3D100BF016B0129B3
:102660000ED100BF00BF02680C3252E8002F22F0EA
:10267000100102680C3242E80013002BF3D100BFB6
:10268000202180F8421000210163704710B50446F4
:102690002068C06820F040002168C860202084F8CD
:1026A00041002046FFF7F0FA002010BDF8B50446BF
:1026B00094F84200222875D1A068B0F5805F0CD153
:1026C000206950B90025A66A20684068C0F3080058
:1026D0003080A06A801CA06215E0A56A0026A06870
:1026E000B0F5805F03D0A06828B9206918B92068C8
:1026F0004068287004E02068406800F07F0028707F
:10270000A06A401CA062E08D401E80B2E0850028D7
:1027100046D12068C06820F020002168C860206889
:10272000C06820F480702168C8602068406920F08B
:10273000010021684861202084F842000020606385
:10274000206B012826D10020206300BF00BF216834
:102750000C3151E8001F21F0100021680C3141E8D4
:102760000002002AF3D100BF2068006800F01000CA
:1027700010280AD100BF0020009020680068009057
:1027800020684068009000BF00BFA18D2046FFF781
:102790000FF802E02046FFF71DFA0020F8BD01E027
:1027A0000020FBE70220F9E770B5044621680969BB
:1027B00021F44051E2681143226811612269A16845
:1027C0001143626941EA02052168C96841F20C625D
:1027D000914329432268D1602168496921F44071FD
:1027E000A2691143226851612D4A2168914202D1A8
:1027F000FEF76AFB01E0FEF757FB00EBC00101EBBF
:10280000001162689200B1FBF2F100EBC00202EB32
:10281000001263689B00B2FBF3F26423B2FBF3F295
:1028200002EBC20303EB0212A1EB8201322202EBA4
:1028300001116422B1FBF2F101F0F00100EBC002E2
:1028400002EB001263689B00B2FBF3F26423B2FB5D
:10285000F3F201EB021200EBC00101EB001163681F
:102860009B00B1FBF3F100EBC00303EB00136668C0
:10287000B600B3FBF6F36426B3FBF6F303EBC30633
:1028800006EB0313A1EB8301322303EB0111642355
:10289000B1FBF3F101F00F0111442268916070BDAA
:1028A0000038014010B5034699629A85DA85002008
:1028B0005864222083F84200186928B11868C0685B
:1028C00040F480701C68E0601868406940F00100C6
:1028D0001C6860611868C06840F020001C68E060F7
:1028E000002010BD014691F84100212828D18868B8
:1028F000B0F5805F0BD1086948B90A6A1088C0F347
:1029000008000B685860086A801C086205E00B6AC2
:10291000581C086218780B685860C88C401E80B23A
:10292000C88458B90868C06820F080000B68D86077
:102930000868C06840F040000B68D860002070470D
:102940000220FCE72DE9F04104460D461746984663
:10295000069E34E0701C88B32EB1FDF7D3FFA0EBC8
:102960000800B0422BD900BF00BF21680C3151E8EC
:10297000001F21F4D07021680C3141E80002002AC8
:10298000F3D100BF00BF00BF2168143151E8001F20
:1029900021F001002168143141E80002002AF3D13E
:1029A00000BF202084F8410084F8420000BF0020CE
:1029B00084F8400000BF0320BDE8F081FFE72068F5
:1029C00000682840A84201D1012000E00020B84260
:1029D000C0D00020F0E7000010B50748FEF7EAFE7F
:1029E0000648007806490870FFF770FA012203498B
:1029F0000148FFF761FA10BDF80000201100002027
:102A00001300002000BFFEE7490050EAC12018BFB4
:102A100004204A0D18BF40F0010040F2FF72B2EBF3
:102A2000515F08BF40F00200012808BF0520704731
:102A300002480068C0F30220704700000CED00E07F
:102A400010B5002804DB0A07130E054A135406E0EC
:102A50000A07140E034A00F00F031B1FD45410BDC5
:102A600000E400E018ED00E02DE9F0414F1E00EB1E
:102A7000C7010446D1E9000115461E4637F006029B
:102A80000DD02A46334603F0DDF97F1E04EBC70361
:102A9000D3E9002302F0CEFF37F00602F1D1022F76
:102AA00025D0042F13D0062F18BFBDE8F0812A4689
:102AB000334603F0C7F9D4E90A2302F0BBFF2A46E4
:102AC000334603F0BFF9D4E9082302F0B3FF2A46E6
:102AD000334603F0B7F9D4E9062302F0ABFF2A46E8
:102AE000334603F0AFF9D4E9042302F0A3FF2A46EA
:102AF000334603F0A7F9D4E9022302F09BFF2A46EC
:102B0000334603F09FF9D4E90023BDE8F04102F019
:102B100091BF012204F041B802F08CBF002213469D
:102B20001046114603F036B8024A0020110704F09F
:102B300034B8000001FDFFFF2DE9FE4F06460F46A9
:102B40000025684601F060F9002442E056F82400B0
:102B500057F82410A0EB010ABAF1000F01DB51462F
:102B600001E0CAF10001084603F012FE83464FF06F
:102B70008F4103F0DBFC80465DF82400002103F068
:102B800097FD16D05DF82410404603F0CFFC824636
:102B90004FF07E5103F05AFF814629F0004A0F485A
:102BA000416A504603F020FF12D20120A0400543A5
:102BB0000EE00A48C169404603F016FE05D30748F7
:102BC000016A404603F010FF02D20120A0400543F5
:102BD000641C032CBADB2846BDE8FE8F786C000825
:102BE0002DE9F04D8D4F21F0004A86B005460C4688
:102BF000BA452ADBAAEB070028430AD08848824559
:102C000001DC1AD1CDB106B02846BDE8F04DFFF782
:102C100080BF844A844B284603F014F907460E46C9
:102C2000824A834B2846214603F00CF906B03A4607
:102C30003346BDE8F04D02F0FDBE0120FDF7C2FBBA
:102C400006B0BDE8F04DFFF769BF7A48824542DA29
:102C5000BAF1795F0BDA2846FFF7D6FE042808BFE1
:102C6000FFF762FF284606B02146BDE8F08D2A46F0
:102C70000B46104603F0E6F8834602466E480E46C1
:102C80000B4606217844FFF7EFFE5A46334603F021
:102C9000D9F8804669488A465A4633460421784422
:102CA000FFF7E2FE5A46334603F0CCF800223B46DB
:102CB00002F0C0FE02460B464046514602F06AFF53
:102CC0002A46234603F0BEF806B02A462346BDE84E
:102CD000F04D02F0AFBE284624F0004100223D46F0
:102CE0003B4603F0ADF94FF0FF3203F056FF0646C6
:102CF000024653480F460B4606217844FFF7B4FEC0
:102D000032463B4603F09EF8CDE900014D4832467D
:102D10003B4604217844FFF7A7FE32463B4603F0CA
:102D200091F800222B4602F085FE83460291304640
:102D3000394602F009FE804643480D46504517DCEF
:102D4000DDE900015A46029B02F024FF42462B4671
:102D500003F078F842462B4602F06CFE012203F0A5
:102D60001CFF304A304B03F05DFA304A304B4CE0E8
:102D70004FF0000A52460B46404602F05BFECDE99A
:102D8000031052462B461046194603F05BF83246B4
:102D90003B4603F055F9DDE9033202F0FBFE06463F
:102DA0000F46DDE900015A46029B02F0F3FE83461E
:102DB000009101223046394603F0EFFE194A1A4BC2
:102DC00003F03EF906460F4601224046294603F02D
:102DD000E4FE5A46009B03F035F832463B4603F0CA
:102DE00021FA06460F4601225046294603F0D5FE39
:102DF0000E4DDFF858802A46434603F021F932464B
:102E00003B4603F01DF92A46434603F019F9002C0E
:102E1000D8BF81F0004106B0BDE8F08D0000F03F62
:102E20000000F07F075C143326A6913C182D445413
:102E3000FB21F93F0000E03F104C0000264C000051
:102E40009A4B0000B04B00003333EF3FFB21E93FCA
:102E50002DE9F84F04460D4621F0004000917349DA
:102E6000814211DC7249884201DC06D12CB1204636
:102E70002946BDE8F84FFFF74CBE6E48002DCCBF89
:102E80006D496E49BDE8F88F6D49814211DD6D498C
:102E90008142D8BF4FF0FF366DDD20462946FFF74F
:102EA000B3FD042808BFFFF73FFE20462946BDE8D2
:102EB000F88F6549654F25F00045814233DD64494F
:102EC000814219DD002632464FF0804320462946D4
:102ED00002F0B0FD80468A4601222046294603F0D2
:102EE0005CFE00223B4603F09DF94246534602F049
:102EF00051FE04460D463EE001260022BA463B46FE
:102F00002046294602F096FD80460F460022534691
:102F10002046294603F086F942463B4602F03AFE37
:102F200004460D4627E04B4981421BDDDFF828A10E
:102F30000226002253462046294602F083FF002243
:102F40003B4602F077FD80460F460022534620465E
:102F5000294603F067F942463B4602F01BFE044651
:102F60000D4608E0032622462B4600203B4902F08E
:102F700011FE04460D4622462B461046194602F025
:102F800061FF8B46824602460B4602F05BFF074616
:102F90000246334888460B4606217844FFF764FD15
:102FA00052465B4602F04EFF82462E488B463A461A
:102FB000434605217844FFF757FD3A46434602F061
:102FC00041FF02460B46002E504659460CDA02F0ED
:102FD00031FD22462B4602F035FF01B022462B463A
:102FE000BDE8F04F03F02CB802F024FD22462B463A
:102FF00002F028FF1C4A7A4402EBC603D3E90023FF
:1030000003F010F922462B4603F00CF9174A7A44D4
:1030100002EBC603D3E9002303F012F8009A002A5A
:10302000B8BF81F00041BDE8F88F000000001044F7
:103030000000F07F182D4454FB21F93FFB21F9BF1C
:103040000000DC3F0000203E0000F33F0000F03FA6
:103050000000E63F008003400000F83F0000F0BFA2
:10306000B2490000704900000E490000D648000037
:103070002DE9F04D9446CCF1000423F000464CEAD3
:103080000404524F46EAD4749A46884621F000421E
:10309000BC4206D8454240EA050442EAD474BC4228
:1030A00004D9BDE8F04D6246FFF736BDAAF14055A0
:1030B000A5F17F6555EA0C040BD0022404EAAA743A
:1030C000434DDFF810E144EAD87452EA000B04D013
:1030D0000CE0BDE8F04DFFF7BBBE002C14BF012C87
:1030E000BDE8F08D022C30D0032C32D056EA0C0B08
:1030F0000AD0BE4220D1BA4209D126F0804622F041
:1031000080423346114617E000291ADB25E0DFF83C
:10311000C8B0FB44002C04BFDBE90001BDE8F08D22
:10312000012C02BFDBE9000181F00041BDE8F08D18
:10313000022C0AD0032C0CD0BA4212D1B8F1000FE5
:103140000BDA23482549BDE8F08D28462449BDE81F
:10315000F08D28467146BDE8F08D1D482149BDE837
:10316000F08D921B12153C2AC4BF19481D490EDC74
:10317000BAF1000FBEBF12F13C0F0020014606DB82
:10318000624602F007FD21F00041FFF761FE002CCE
:1031900008BFBDE8F08D012C04BF81F00041BDE8FF
:1031A000F08D114A114B022C07D003F03BF82A4650
:1031B000BDE8F04D0A4B03F035B803F033F82A466A
:1031C000BDE8F04D064B02F03BBF00000000F07F71
:1031D000182D4454FB2109C06A480000FB21F9BFA7
:1031E000FB210940FB21F93F075C143326A6A13CD3
:1031F0002DE9F0410446E07800F0C006E07800F0E8
:103200003F05607800F0010098B1EF102846E917FB
:1032100005EB5171C910A5EBC101491C01F0FF0874
:103220000B48006820B10A4841460268384690477A
:1032300000BF607800F0080030B10548406818B160
:10324000B011034A516888470020BDE8F0810000B2
:103250004001002038B5044664B120208DF80000FC
:1032600028208DF8010030208DF8020038208DF8DC
:10327000030004E0A32204216846FCF7F5FF6A4638
:10328000042140F69E2002F059FA01F043FE38BDB9
:103290003EB5044602208DF80000CA208DF80100DA
:1032A000E3208DF8020009208DF803006A4604210E
:1032B000682002F043FAA3208DF8000004F04000DB
:1032C00048B1C0208DF80100C8208DF80200C2204E
:1032D0008DF8030006E0A3208DF801008DF80200B0
:1032E0008DF8030004F4C07048B1C4208DF80400C8
:1032F000CC208DF80500C6208DF8060006E0A3203E
:103300008DF804008DF805008DF80600A3208DF8D7
:1033100007008DF808008DF809006A460A2140F67A
:10332000A72002F00BFA04F0030018B120208DF85A
:10333000000002E0D8208DF800006A46012140F626
:10334000B62002F0FBF904F0200018B1012000F0D3
:10335000ADF802E0002000F0A9F804F4C07008B352
:1033600004F4807060B1B2208DF800008B208DF8DD
:103370000100B6208DF802009B208DF803000BE0C1
:10338000B0208DF8000080208DF80100B4208DF869
:10339000020090208DF803006A46042140F6A22026
:1033A00002F0CCF904F0010020B3F8208DF8000001
:1033B0006A4601214FF40B6002F0C0F9FA210720A0
:1033C00000F02CFC072000F0F3FB012000F013FCC0
:1033D000642000F0F3FC4FF4FA7000F002FDC82105
:1033E000304800F0A3FB282000F0BCFB0A2000F0CE
:1033F000CCFB08E0D8208DF800006A4601214FF48C
:103400000B6002F09BF904F0020018B1D9208DF88E
:10341000000002E0D8208DF800006A46012140F249
:103420003D7002F08BF904F0040018B1012000F0A7
:1034300069F802E0002000F065F804F0100018B10F
:103440000120FFF707FF02E00020FFF703FF44F031
:1034500008001549488101F05DFD0020124988737C
:1034600004F0400018B10846807B801D887304F486
:10347000C07020B10C48807B801D0B49887304F01C
:10348000140020B10848807B10300749887304F08D
:10349000030020B10448807B001D0349887300208D
:1034A0003EBD000009E3CA02400100203EB50446CB
:1034B0006CB10EA1D1E900208968CDE9002002910C
:1034C0006A4609214FF4976002F038F93EBD0AA21E
:1034D000D2E900109268CDE9010200916A46092103
:1034E0004FF4976002F02AF9F0E70000B8AAB38D14
:1034F000B4980D355D000000B8AAAAAAB088C3C56B
:10350000C700000038B5044664B1C0208DF8000043
:10351000C2208DF80100C4208DF80200C6208DF86D
:10352000030004E08B2204216846FCF79DFE6A46F6
:10353000042140F6982002F001F901F0EBFC38BDBF
:1035400010B5C8234FF48062024940F6F63001F00E
:1035500075FB10BDA06C00082DE9F04F8DB007463B
:10356000884615469946DDE9166B00240020308018
:103570006B49887B5A4605A901F02CFC18B1601EE6
:103580000DB0BDE8F08F6648807A00F01400002886
:1035900067D09DF8140000069DF8151040EA014020
:1035A0009DF8161040EA01209DF817100843286086
:1035B0009DF8180000069DF8191040EA01409DF89A
:1035C0001A1040EA01209DF81B10084368609DF81E
:1035D0001C0000069DF81D1040EA01409DF81E10D9
:1035E00040EA01209DF81F100843A8609DF82000C4
:1035F00000069DF8211040EA01409DF8221040EAA3
:1036000001209DF823100843E86004F11000C4B2C3
:10361000286800140190686800140290A8680014DB
:103620000390E8680014049001984043029901FB5C
:103630000100039901FB0100049901FB010ABAF1A1
:10364000706F02DBBAF1885F05DD01F063FC0020DA
:103650003080401E94E7B6F9000040F4807030805E
:1036600000BF2F48807A00F0400020B305A9601CFD
:10367000085C095D40EA012000B2A8F8000005A935
:10368000E01C095C05AAA01C105C41EA002000B205
:10369000A8F8020005A9601D095C201D105C41EA24
:1036A000002000B2A8F80400A01DC4B2B6F90000C2
:1036B00040F0080030801A48408900F4C07008B318
:1036C00005A9601C085C095D40EA012000B2388051
:1036D00005A9E01C095C05AAA01C105C41EA0020B9
:1036E00000B2788005A9601D095C201D105C41EACC
:1036F000002000B2B880A01DC4B2B6F9000040F0AE
:10370000700030800648807A00F0030018B105A9E7
:103710000819FFF76DFD484600F052FF00202FE723
:103720004001002070B588B0064601A801F00AF9F2
:10373000BDF804000021C90341EA5045C4034448D0
:10374000007A00F0030056F8200005904048007A07
:1037500000F0040010B10598404205903C48007A02
:10376000C0F3C10056F8200006903948007A00F0F6
:10377000200010B10698404206903548007AC0F308
:10378000811056F8200007903148008900F48070BD
:1037900010B10798404207900598C117A0FB042379
:1037A00001FB043100FB0510810041EA9270059095
:1037B0000698C117A0FB042301FB043100FB051090
:1037C000810041EA927006900798C117A0FB04237C
:1037D00001FB043100FB0510810041EA9270079063
:1037E0000598000E8DF808000598000C8DF809006A
:1037F0000598000A8DF80A000598C0B28DF80B00F4
:103800000698000E8DF80C000698000C8DF80D003F
:103810000698000A8DF80E000698C0B28DF80F00C9
:103820000798000E8DF810000798000C8DF8110015
:103830000798000A8DF812000798C0B28DF813009F
:1038400002AA0C214FF4257001F078FF08B070BD7A
:103850004001002030B585B0044616A207CA02AB6D
:1038600007C3C82C03DD4FF0FF3005B030BDC820C2
:1038700090FBF4F0401E85B2280A8DF80000E8B2F3
:103880008DF801006A46022140F2162001F056FF31
:1038900010B14FF0FF30E8E702AA0C2140F6C1203A
:1038A00001F04CFF10B14FF0FF30DEE70448848197
:1038B0000020DAE7FEF2ABC4AAF1DFDFBBAFDFDF47
:1038C000400100201FB504464848007A00F003007C
:1038D00054F8200001904548007A00F0040010B12F
:1038E0000198404201904148007AC0F3C10054F869
:1038F000200002903D48007A00F0200010B10298AC
:10390000404202903948007AC0F3811054F82000F8
:1039100003903648008900F4807010B1039840424B
:1039200003903349019880FB0101800F40EA810038
:1039300001902F49029880FB0110820042EA9170A9
:1039400002902B49039880FB0110820042EA91709B
:1039500003900198000E8DF800000198000C8DF87E
:1039600001000198000A8DF802000198C0B28DF89C
:1039700003006A4604214FF4747001F0DFFE18B1B1
:103980004FF0FF3004B010BD0298000E8DF800001B
:103990000298000C8DF801000298000A8DF80200D0
:1039A0000298C0B28DF803006A4604214FF4757086
:1039B00001F0C4FE10B14FF0FF30E3E70398000EB2
:1039C0008DF800000398000C8DF801000398000AA0
:1039D0008DF802000398C0B28DF803006A460421F6
:1039E0004FF4767001F0AAFECCE700004001002001
:1039F00009E3CA0210B586B0044647A000680390E8
:103A000046A00068029046A00068019045A00068AA
:103A1000009004F0030003A9085C8DF8140003A8CB
:103A2000C4F3C101405C8DF8150003A8C4F38111F3
:103A3000405C8DF8160004F0030002A9085C8DF8C4
:103A4000100002A8C4F3C101405C8DF8110002A867
:103A5000C4F38111405C8DF8120005AA032140F2E5
:103A6000264001F06BFE18B14FF0FF3006B010BDDC
:103A700004AA032140F22A4001F060FE10B14FF089
:103A8000FF30F3E7019805900098049004F00400DB
:103A900058B19DF8140040F001008DF814009DF815
:103AA000100040F001008DF8100004F0200058B123
:103AB0009DF8150040F001008DF815009DF81100EB
:103AC00040F001008DF8110004F4807058B19DF8A9
:103AD000160040F001008DF816009DF8120040F02D
:103AE00001008DF8120005AA03214FF4886001F04F
:103AF00025FE10B14FF0FF30B8E704AA032140F2D1
:103B0000314001F01BFE10B14FF0FF30AEE7064828
:103B100004810020AAE700004CCD6C000CC92C00E9
:103B2000365676002646660040010020F8B5054668
:103B30000E464FF47A7095FBF0F000FB06F4200E71
:103B40008DF80000200C8DF80100200A8DF802008D
:103B5000E0B28DF803006A4604214FF4AE7001F024
:103B6000EDFDF8BD38B50446052094FBF0F084B2B5
:103B700020128DF80000E0B28DF801006A460221A3
:103B80004FF4AD7001F0DAFD38BD38B504460520BC
:103B900094FBF0F084B220128DF80000E0B28DF8B2
:103BA00001006A4602214FF4AC7001F0C7FD38BD38
:103BB00038B504460020009004F0010020B19DF8C3
:103BC000000040F03000009004F0020020B19DF8A9
:103BD000000040F00C00009004F0040020B19DF8BB
:103BE000000040F0030000906A4601214FF4A470E9
:103BF00001F0A4FD38BD38B50446012C01DA0124DA
:103C000002E0042C00DD0424601EC0B200906A466D
:103C1000012140F24F1001F091FD38BD2DE9FC4724
:103C200006460F4606F0070010B1B7F5C86F03DD72
:103C30004FF0FF30BDE8FC87384602F0C1FD8146F9
:103C4000594902F073FC8046684600F055FE9DF825
:103C50000000022806D0042816D0082826D01028F4
:103C600048D135E04FF08D41404602F0F1FD8146EC
:103C700002F06EFD84B24D49404602F0E9FD8146F6
:103C800002F066FD85B238E04FF08C41404602F00C
:103C9000DFFD814602F05CFD84B24549404602F0FA
:103CA000D7FD814602F054FD85B226E04FF08B41EE
:103CB000404602F0CDFD814602F04AFD84B23D4906
:103CC000404602F0C5FD814602F042FD85B214E097
:103CD0004FF08A41404602F0BBFD814602F038FDBC
:103CE00084B23549404602F0B3FD814602F030FD12
:103CF00085B202E04FF0FF309CE700BF20128DF844
:103D00000400E0B28DF8050028128DF80600E8B234
:103D10008DF8070006F00100A0B101AA02214FF4BE
:103D2000EA7001F00BFD10B14FF0FF3082E70DF1AA
:103D3000060202214FF4927001F000FD10B14FF025
:103D4000FF3077E706F00200A0B101AA02214FF48C
:103D5000EC7001F0F3FC10B14FF0FF306AE70DF1A9
:103D6000060202214FF4947001F0E8FC10B14FF00C
:103D7000FF305FE706F00400A0B101AA02214FF472
:103D8000EE7001F0DBFC10B14FF0FF3052E70DF1A7
:103D9000060202214FF4967001F0D0FC10B14FF0F2
:103DA000FF3047E7002045E7000048430000404659
:103DB0000000C045000040450000C04438B504463E
:103DC000052094FBF0F085B228128DF80000E8B2CF
:103DD0008DF801006A4602214FF4EF7001F0AEFC4D
:103DE00038BD38B50446052094FBF0F085B22812A2
:103DF0008DF80000E8B28DF801006A4602214FF408
:103E0000ED7001F09BFC38BD7CB50546284949683A
:103E1000087801AB04220D21FEF7D6F808B107207F
:103E20007CBD9DF80700C0F301109DF8041001F05F
:103E3000E00140EAE1008DF800009DF80700C0F3C2
:103E400081009DF8051001F0E00140EAE1008DF8E5
:103E500001009DF8070000F003009DF8061001F036
:103E6000E00140EAE1008DF8020000241CE01DF8AA
:103E7000040018B9002045F8240013E00D4845F867
:103E8000240006E055F824000B4902F0E1FC45F857
:103E900024001DF80400401EC0B20DF804000028E4
:103EA000F0D100BF601CC4B2032CE0DB0020B7E7F8
:103EB000240000207B14AE3E1D5A843F2DE9F04FB4
:103EC00087B005460C46914601208DF81000002071
:103ED0008DF81100FE4A1268917CFD4A52681078F4
:103EE00004AB0222FEF716F920B14FF0FF3007B005
:103EF000BDE8F08FC820FCF753FB00208DF81000C0
:103F0000F34A1268D17BF24A5268107804AB01225E
:103F1000FEF700F910B14FF0FF30E8E7EC4A126805
:103F20005179EB4A5268107804AB0122FEF7F2F89F
:103F300010B14FF0FF30DAE7E54A1268917CE44AAD
:103F40005268107804AB0122FEF7E4F810B14FF08C
:103F5000FF30CCE7DE4A1268D17DDD4A5268107826
:103F600004AB0122FEF7D6F810B14FF0FF30BEE7E8
:103F7000D74A12681179D64A5268107804AB0122E8
:103F8000FEF7C8F810B14FF0FF30B0E70C208DF805
:103F90001000CF4A12681179CD4A5268107804ABEC
:103FA0000122FEF7B7F810B14FF0FF309FE70F2066
:103FB000FCF7F6FAC648806A407A8DF81000C44AC9
:103FC00012689178C24A5268107804AB0122FEF759
:103FD000A1F810B14FF0FF3089E7BD48806A007A40
:103FE0008DF81000BA4A12685178B94A52681078B0
:103FF00004AB0122FEF78EF810B14FF0FF3076E7E8
:10400000B9F1000F07D0B248806A807A40F0E00032
:104010008DF8100004E0AE48806A807A8DF81000B8
:10402000AB4A12689179AA4A5268107804AB01220F
:10403000FEF770F810B14FF0FF3058E7B9F1000FFC
:1040400007D0A348806AC07A40F0E0008DF81000E5
:1040500003E0A048C07A8DF810009D4A1268D1791B
:104060009B4A5268107804AB0122FEF753F810B156
:104070004FF0FF303BE7B9F1000F02D0C820FCF74A
:104080008FFA40208DF81000914A12681179904AF9
:104090005268107804AB0122FEF73CF810B14FF0E3
:1040A000FF3024E778208DF81000894A1268517992
:1040B000874A5268107804AB0122FEF72BF810B142
:1040C0004FF0FF3013E783498889FCF769FA002035
:1040D0008DF810007E4A126851797D4A5268107836
:1040E00004AB0122FEF716F810B14FF0FF30FEE6E8
:1040F000774A1268917A764A5268107804AB0222A5
:10410000FDF762FF10B14FF0FF30F0E69DF81100AF
:104110009DF8101040EA012B0C209BFBF0F0C6B27A
:104120000020A86068602860A0606060206082460F
:1041300065E0674A1268D17A654A5268107804AB24
:104140000C22FDF741FF10B14FF0FF30CFE69DF894
:1041500011009DF8101040EA012000B2ADF80800EF
:104160009DF813009DF8121040EA012000B2ADF84E
:104170000A009DF815009DF8141040EA012000B2D5
:10418000ADF80C00BDF90810206808442060BDF9A6
:104190000A10606808446060BDF90C10A06808440B
:1041A000A0609DF817009DF8161040EA012000B2AB
:1041B000ADF800009DF819009DF8181040EA0120A4
:1041C00000B2ADF802009DF81B009DF81A1040EAFD
:1041D000012000B2ADF80400BDF9001028680844C1
:1041E0002860BDF90210686808446860BDF90410D1
:1041F000A8680844A8600AF1010000F0FF0AB2456F
:1042000097DB3448D0F800C02868C117090441EA98
:1042100010410704624600233846FBF7D5FF3246BB
:104220000023CDE90201FBF7CFFF28602948D0F831
:1042300000C06868C117090441EA104107046246DA
:1042400000233846FBF7C0FF32460023CDE90201C8
:10425000FBF7BAFF68601F48D0F800C0A868C11714
:10426000090441EA10410704624600233846FBF77F
:10427000ABFF32460023CDE90201FBF7A5FFA860A2
:104280001448D0F804C02168C817000440EA114857
:104290000F046246002338464146FBF795FF32463D
:1042A0000023CDE90201FBF78FFF20600948D0F819
:1042B00004C06068C117090441EA1041070462465E
:1042C00000233846FBF780FF3246002304E000005D
:1042D00024000020786C0008CDE90201FBF774FF90
:1042E00060601148D0F804C0A068C117090441EA11
:1042F00010410704624600233846FBF765FF32464B
:104300000023CDE90201FBF75FFFA060A068002851
:1043100004DDA068A0F58030A06003E0A06800F58F
:104320008030A0600020E2E5786C000800B500F065
:10433000D9F801F043FA00BD00B500F0E7F801F04C
:1043400051FA00BD00B500F0F5F801F04BFA00BDE0
:1043500000B500F0DBF801F059FA00BD2DE9FC5F73
:1043600006460F4600253D494968087801AB0322FF
:104370000D21FDF729FE10B10720BDE8FC9F9DF837
:10438000040000F01F008DF804009DF8050000F007
:104390001F008DF805009DF8060000F01F008DF845
:1043A0000600002456E056F8240057F82410A0EB2D
:1043B000010BBBF1000F01DB594601E0CBF100011D
:1043C000084602F0E5F94FF08F41009002F0AEF898
:1043D000814601A8005D68B32149086802F0F0F940
:1043E000834659461F4802F0A1F8804604E01E4962
:1043F000404602F02DFA804601A8005D401EC0B282
:1044000001A908550028F2D14146484602F08EF82D
:1044100083464FF07E5102F019FB82462AF0004B92
:104420000F488169584602F0DFFA12D20120A040FD
:1044300005430EE00A480169484602F0D5F905D364
:1044400007484169484602F0CFFA02D20120A04055
:104450000543641C032CA6DB28468EE724000020BD
:10446000786C000800B04C4554E3853F10B5044615
:10447000204600F00FF80346E01C00F00BF843EA7A
:10448000C00083B2A01D00F005F843EA801083B29B
:10449000184610BD014691F90020002A01DD0020D8
:1044A0001EE091F90020002A01DA042018E091F9B9
:1044B0000120002A01DD012012E091F90120002AEB
:1044C00001DA05200CE091F90220002A01DD02202A
:1044D00006E091F90220002A01DA062000E0072018
:1044E0007047000000200649086001200549C1F816
:1044F000B40141F66410044909680864704700007B
:10450000B081214200802142B000002001200649F4
:10451000086000200549C1F8B40141F6641004495F
:104520000968086470470000B08121420080214280
:10453000B00000200120034908600349C1F8B4011C
:1045400070470000B081214200802142FCF71AFB35
:10455000FDF71FFFFDF70EFEFDF772FEFDF7D0FE23
:10456000FDF750FE00F078F9FDF7D4FCFDF7E6FE0C
:1045700001220D490D48FDF79FFC13E04FF47A70BE
:10458000FCF70EF80A4A0B490B4800F053F80A48AA
:10459000006802F0DDF8094908700A230222034886
:1045A000FDF719FBEAE7000011000020F8000020E9
:1045B0000C00002008000020040000200000002063
:1045C0007047000070B50446002624F00104184826
:1045D00090F8240008B1002070BD1548807A10B909
:1045E0004FF0FF30F8E71248057C807A20401049F0
:1045F00008740846007CA04202D04FF0FF3600E06D
:10460000002614B90A48007D18B1012001F054F9C0
:1046100002E0002001F050F93CB100F07BFC20B139
:10462000034805744FF0FF30D6E73046D4E700006A
:10463000240000202DE9F04F99B004460D4616469F
:104640004FF07E574FF000084FF000094FF0000A7E
:1046500012A813A918AB0EAACDE9001014A916A828
:10466000FEF77AFF18B1012019B0BDE8F08FBDF850
:104670004C0000F4807000287ED00E9802F088F87C
:1046800083464FF09D4101F051FF07460F9802F01D
:104690007FF883464FF09D4101F048FF8046109817
:1046A00002F076F883464FF09D4101F03FFF8146CE
:1046B000119802F06DF883464FF09D4101F036FFEE
:1046C000824639464FF0804002F0C2F849460590D4
:1046D00002F0BEF8414607904FF0404002F0B8F8B3
:1046E0005146059002F0B4F80690079901F0B0FE2B
:1046F000834601F081FECDE90801FEF771FA4FF023
:104700006632544BCDE90A0101F09CFBCDE90C0166
:1047100001F05EF9206049464FF0804002F098F8C1
:104720004946029002F094F8414604904FF0404010
:1047300002F08EF84146029002F08AF80390049944
:1047400002F084F983464FF07E5101F081FE05901E
:1047500001F052FECDE9080139464FF0804002F0E9
:1047600077F84146039002F073F8494604904FF001
:10477000804002F06DF800E068E05146039002F0DE
:1047800067F88346049901F063FE059001F034FE5A
:10479000CDE90601DDE90823FEF76AFC4FF0663239
:1047A0002C4BCDE90A0101F04DFBCDE90C0101F0E4
:1047B0000FF928605146504602F04AF849460490E5
:1047C000484602F045F841460390404602F040F862
:1047D00039460190384602F03BF80090019901F00B
:1047E00037FE0290039902F031F98346049902F0F2
:1047F0002DF9059001F000FECDE90801514638463B
:1048000002F026F849460490404602F021F8039051
:10481000049901F01DFE4FF08041059002F018F858
:10482000834601F0E9FDCDE90601DDE90823FEF745
:104830001FFC4FF06632074BCDE90A0101F002FB85
:10484000CDE90C0101F0C4F8306001E002200BE773
:10485000002009E766A64C4070B50024FDF73EFA3B
:1048600000F024F9002840D1782000F0FFFEC4B207
:104870000CB1012070BD7820FFF7A4FEC4B20CB1CA
:104880000220F7E7642000F0A3FEC4B20CB10320BD
:10489000F0E7FEF755FEC4B20CB10420EAE7154874
:1048A000FFF7E4FD0546FFF7A5F8C4B20CB10520FB
:1048B000E0E740F27310FEF7EBFCC4B20CB1062047
:1048C000D8E76420FEF7C6FFC4B20CB10720D1E7D9
:1048D00000F0A8FF04460CB10820CBE7012000F04F
:1048E00073FDC4B21CB10920C4E70A20C2E700204E
:1048F000C0E700005000002001461148407A30B166
:10490000012807D0022808D003280CD108E0022093
:1049100008700BE00420087008E00820087005E02B
:104920001020087002E04FF0FF30704700BF0448CD
:10493000C07C18B108784006000E08700020F4E72B
:104940002400002001461348407A30B1012808D0E5
:1049500002280AD0032810D10BE04FF480400880D1
:104960000EE041F69C7008800AE04FF48050088009
:1049700006E04FF40060088002E04FF0FF3070471F
:1049800000BF0448C07C10B1088840100880002097
:10499000F5E700002400002001460248007C087072
:1049A000002070472400002001460F48007A30B1F3
:1049B000012807D0022809D003280FD10AE0FA20E5
:1049C00008800EE04FF4FA7008800AE04FF47A7025
:1049D000088006E04FF4FA60088002E000200880BA
:1049E00000BF00BF002070472400002001460E4891
:1049F000007A30B1012807D0022808D003280CD152
:104A000008E00A4808600BE00948086008E0094827
:104A1000086005E00848086002E04FF0FF3070478A
:104A200000BF0020FBE7000024000020000003433B
:104A3000000083423333034233338341014612483B
:104A4000C07A082817D2DFE800F01704070A0D1013
:104A50001318BC20088013E06220088010E02A2090
:104A600008800DE0142008800AE00A20088007E092
:104A70000520088004E000BF00BF0020088000BFC0
:104A800000BF0020704700002400002001460648B7
:104A900090F8240010B14FF0FF3070470248C089F1
:104AA00008800020F9E70000240000201CB58020C9
:104AB0008DF80000604A1268917C5F4A5268107855
:104AC0006B460122FDF726FB10B14FF0FF301CBDF5
:104AD0006420FBF765FD00208DF80000564A12683F
:104AE000917C554A526810786B460122FDF712FB03
:104AF00010B14FF0FF30EAE74F4A1268917D4E4AFD
:104B0000526810786B460622FDF75EFA10B14FF03E
:104B1000FF30DCE79DF80500C007400F9DF803104B
:104B200001F0010140EA41009DF8011001F001018E
:104B300040EA010474B1012C03D101213E48C17443
:104B400027E0022C03D100213B48C17421E04FF043
:104B5000FF30BCE7384A1268D178374A526810787B
:104B60006B460122FDF730FA10B14FF0FF30AEE78F
:104B70009DF8000000F00F0414B94FF0FF30A6E7D5
:104B8000042C03D101212C48C17402E000212A48E1
:104B9000C174FF2128488172FF2027490872FF2134
:104BA00025484172C1724FF6FF71C181FF21017426
:104BB00081740121017380F82210002180F82310F4
:104BC000417501751630016041608160163880F8CA
:104BD000241080F82510C1844FF4FA6000F03CFCEA
:104BE00010B14FF0FF3072E7022000F005FB10B16A
:104BF0004FF0FF306BE72A2000F0A8FC10B14FF017
:104C0000FF3064E7322000F0E3FC10B14FF0FF30DA
:104C10005DE70020FFF7D6FC10B14FF0FF3056E7FC
:104C2000002000F02BFB10B14FF0FF304FE70020C9
:104C300000F01CFD00204AE7240000202DE9F0438D
:104C400085B005460E4690469946294890F82500BD
:104C500020B14FF0FF3005B0BDE8F08316B94FF03A
:104C6000FF30F8E7002423E0281B102801DD102086
:104C700000E0281B87B232193946204600F05EFD5D
:104C800010B14FF0FF30E6E701AA3946204600F0A8
:104C900001F910B14FF0FF30DDE730193A4601A9B4
:104CA000FBF7B6FA10B16FF00100D4E7E01984B257
:104CB000AC42D9DB4FEA28208DF8000008F0FF0055
:104CC0008DF801000A4A1268917E094A52681078EC
:104CD0006B460222FDF71EFA10B14FF0FF30BAE723
:104CE0000121034880F82510A0F826900020B2E7A3
:104CF0002400002038B50446282C02DD4FF0FF3098
:104D000038BDDCB9002000F0EBFB00208DF800007E
:104D100007208DF801002E4A1268917C2C4A5268B7
:104D200010786B460222FDF7F5F910B14FF0FF3015
:104D3000E6E70021264801750020E1E7012000F0A8
:104D4000CFFB20208DF80000012C06D100208DF82B
:104D50000100052000F0FAFB17E0052C06DC01201D
:104D60008DF80100052000F0F1FB0EE0142C06DCAC
:104D700002208DF801000A2000F0E8FB05E0032086
:104D80008DF80100142000F0E1FB9DF801000721DF
:104D900001EB8010C0B28DF801000D4A1268917CC1
:104DA0000B4A526810786B460222FDF7B3F910B136
:104DB0004FF0FF30A4E708210548817200210173FC
:104DC000012101750020FFF7FDFB002098E700009E
:104DD00024000020F8B504460F4616462C4890F8EB
:104DE000240010B94FF0FF30F8BD2948807A10B97F
:104DF0004FF0FF30F8E7264A1268917A244A526849
:104E000010786B460222FDF7DFF810B14FF0FF304B
:104E1000EAE79DF801009DF8001040EA0125A5424F
:104E200003DA00203070401EDEE7194840684088F1
:104E3000B5EB600F17DD164A1268517C144A5268B0
:104E400010786B460122FDF7BFF810B14FF0FF302C
:104E5000CAE79DF8000000F0100020B100F05AF8F9
:104E60006FF00100C0E7E2B2094B1B68D97A084B2A
:104E70005B6818783B46FDF7A7F810B14FF0FF309C
:104E8000B2E795FBF4F0401E30700020ACE7000064
:104E900024000020F8B504460D46164616B94FF01A
:104EA000FF30F8BD1A48807A10B94FF0FF30F8E7AC
:104EB00020128DF80000E0B28DF801009DF801008D
:104EC0002844134949684989884202DD4FF0FF3080
:104ED000E7E70F4A1268117E0D4A526810786B4658
:104EE0000222FDF717F910B14FF0FF30D9E7EAB20F
:104EF000074B1B68597D064B5B6818783346FDF7F6
:104F000063F810B14FF0FF30CBE70020C9E7000095
:104F10002400002008B57048807A10B94FF0FF30A7
:104F200008BD002000906C4A1268D17B6A4A526822
:104F300010786B460122FDF7EDF810B14FF0FF300D
:104F4000EEE7654A12685179634A526810786B46F9
:104F50000122FDF7DFF810B14FF0FF30E0E75E4AC5
:104F6000126811795C4A526810786B460122FDF78D
:104F7000D1F810B14FF0FF30D2E7574890F8240035
:104F8000002853D00C200090534A12681179524ADD
:104F9000526810786B460122FDF7BCF810B14FF053
:104FA000FF30BDE73220FBF7FBFAC02000904A48F3
:104FB000807A00F0010020B19DF8000040F0200050
:104FC0000090454A12681179434A526810786B463E
:104FD0000122FDF79FF810B14FF0FF30A0E73E48E7
:104FE000407C10B10220009001E0002000903A4A7D
:104FF0001268D17B384A526810786B460122FDF75F
:1050000089F810B14FF0FF308AE700200090324A53
:1050100012685179304A526810786B460122FDF7C8
:1050200079F8002855D04FF0FF3079E70420009040
:10503000294A12681179284A526810786B46012271
:10504000FDF768F810B14FF0FF3069E72248807C27
:1050500020B92148807A00F0010010B9402000906A
:1050600001E0602000901C4A126811791A4A5268C7
:1050700010786B460122FDF74DF810B14FF0FF306C
:105080004EE73220FBF78CFA1348407C10B1012028
:10509000009001E0002000900F4A1268D17B0E4A78
:1050A000526810786B460122FDF734F810B14FF0CA
:1050B000FF3035E7084A12685179074A526810787C
:1050C000054B10330122FDF725F810B14FF0FF30EA
:1050D00026E7002024E70000240000202DE9F04FFF
:1050E0008DB083460F4602200C90424890F8240071
:1050F00020B1002000F068F9012600E0002603A896
:10510000FFF752FC05A8FFF7F7FB01A8FFF796FC95
:1051100002A8FFF7BBFC374890F80AA004A8FFF7E5
:105120003BFC002407E0002239465846FEF7C6FE45
:1051300000B902E0641C022CF5DB00BF022C01D197
:10514000002528E0002407E0012206A909A8FEF7AF
:10515000B5FE00B902E0641C022CF5DB00BF022C96
:1051600001D1002517E006A93846FDF7E5FC00F05F
:10517000FF0809A95846FFF7F1F800F0FF090025DC
:10518000B9F1000F01D145F00105B8F1000F01D1CF
:1051900045F0020500BFFF2016490872FF2115489F
:1051A0004172C1724FF6FF71C181FF21817201749A
:1051B00001210173BDF80C0000F04EF99DF81400B8
:1051C00000F01AF8BDF8040000F0C0F9BDF80800BE
:1051D00000F0FEF9504600F049FA9DF81000FFF784
:1051E000F1F916B1012000F0EFF828460DB0BDE846
:1051F000F08F00002400002038B504461E48807A55
:1052000010B94FF0FF3038BD022C06D0042C07D067
:10521000082C08D0102C0CD108E0002000900BE0E6
:105220000820009008E01020009005E01820009071
:1052300002E04FF0FF30E6E700BF0F48407A9DF8EC
:105240000010B0EBE10F01D10020DCE70A4A126840
:10525000D179094A526810786B460122FCF75AFF4F
:1052600010B14FF0FF30CEE79DF80000C1100248AA
:1052700041720020C7E700002400002038B5044632
:105280005048807CA04201D1002038BD002C46D07F
:105290004C4A126811794B4A526810786B460122C9
:1052A000FCF792FE10B14FF0FF30EEE79DF80000E2
:1052B00020F020000090434A12681179414A526858
:1052C00010786B460122FCF725FF10B14FF0FF303C
:1052D000DBE70320FBF764F902200090394890F8DF
:1052E000220020B19DF8000040F080000090354879
:1052F00090F8230020B19DF8000040F030000090AD
:10530000304A1268117D2F4A526810786B4601228C
:10531000FCF700FF002851D04FF0FF30B5E7294AD5
:1053200012681179274A526810786B460122FCF7FF
:105330004BFE10B14FF0FF30A7E72248807A00F013
:10534000010028B19DF8000040F02000009004E02A
:105350009DF8000020F0200000901A4A1268117990
:10536000184A526810786B460122FCF7D3FE10B140
:105370004FF0FF3089E70320FBF712F9114890F84E
:10538000220010B18020009001E0002000900D4824
:1053900090F8230020B19DF8000040F0300000900C
:1053A000084A1268117D074A526810786B4601223C
:1053B000FCF7B0FE10B14FF0FF3066E7014884748F
:1053C000002062E72400002038B50446214890F808
:1053D0002400A04201D1002038BD24B31D4890F81C
:1053E000250010B94FF0FF30F6E7002000F064FA16
:1053F0000020FFF743FF1749C88C00F0E9F80020B0
:1054000000901449496808786B4601222321FCF773
:1054100081FE01210F4880F82410012000F04CFA91
:10542000FFF778FD13E0002000F046FA0948007C01
:1054300000900849496808786B4601222321FCF74F
:1054400069FE0021034880F82410FFF763FD002067
:10545000C2E700002400002038B504461F48807AC7
:1054600010B94FF0FF3038BDFA2C09D0B4F5FA7FEF
:1054700009D0B4F57A7F09D0B4F5FA6F0CD108E001
:10548000002000900BE00820009008E01020009021
:1054900005E01820009002E04FF0FF30E3E700BF86
:1054A0000E48007A9DF80010B0EBE10F01D100200A
:1054B000D9E70A4A12689179084A526810786B460F
:1054C0000122FCF727FE10B14FF0FF30CBE79DF82B
:1054D0000000C010014908720020C4E72400002029
:1054E00038B50446184890F82300A04201D10020A6
:1054F00038BD14B13020009001E000200090124827
:10550000807C20B19DF8000040F0020000900E4821
:1055100090F8220020B19DF8000040F0800000903B
:10552000094A1268117D084A526810786B460122B8
:10553000FCF7F0FD10B14FF0FF30D9E7024880F8DA
:1055400023400020D4E700002400002038B50446A2
:105550001E48807A10B94FF0FF3038BDBC2C02DBFA
:105560000120009015E0622C02DB0220009010E088
:105570002A2C02DB032000900BE0142C02DB042019
:10558000009006E00A2C02DB0520009001E00620D6
:1055900000900E48C07A9DF80010884201D100208A
:1055A000DBE70A4A12689178084A526810786B461D
:1055B0000122FCF7AFFD10B14FF0FF30CDE79DF8B1
:1055C00000100248C1720020C7E70000240000203C
:1055D00038B504462448807A10B94FF0FF3038BD02
:1055E000214890F8240010B14FF0FF30F7E71E4833
:1055F000007D50B134B1282C04DCE0B2FFF77AFB17
:105600000020ECE70020FFF775FB042C01DA0424EE
:1056100004E0B4F57A7F01DD4FF47A744FF47A70C8
:1056200090FBF4F0401EC0B200900F4A126851780F
:105630000D4A526810786B460122FCF76BFD10B1E1
:105640004FF0FF30CBE79DF80000401C4FF47A711B
:1056500091FBF0F081B20448C1810146C98948102C
:10566000FFF774FF0020BAE72400002038B5044695
:1056700004F0700010B10120009005E014B100208A
:10568000009001E0402000902B4A1268917C2A4A49
:10569000526810786B460122FCF73CFD20B10021D6
:1056A00025488172481E38BD9DF8000020F0400159
:1056B000214801730020009004F0400020B99DF8BB
:1056C000000040F00400009004F0200020B99DF894
:1056D000000040F00200009004F0100020B99DF896
:1056E000000040F00100009004F0080020B99DF88F
:1056F000000040F0380000900F4A1268D17C0E4A3A
:10570000526810786B460122FCF704FD20B100219D
:1057100009488172481EC6E724B1082C02D0002037
:10572000FFF7DEFE04488472002101753220FAF78B
:1057300037FF0020B7E7000024000020F8B504463A
:105740000D46164616B94FF0FF30F8BD1A48807A5C
:1057500010B94FF0FF30F8E720128DF80000E0B2EA
:105760008DF801009DF801002844134949684989D2
:10577000884202DD4FF0FF30E7E70F4A1268117EE2
:105780000D4A526810786B460222FCF7C3FC10B138
:105790004FF0FF30D9E7EAB2074B1B68597D064B43
:1057A0005B6818783346FCF7B5FC10B14FF0FF305A
:1057B000CBE70020C9E700002400002000200649B4
:1057C000086001200549C1F8B80141F66410044998
:1057D0000968486370470000BC8121420080214273
:1057E000B000002001200649086000200549C1F8EA
:1057F000B80141F664100449096848637047000025
:10580000BC81214200802142B000002001200349D8
:1058100008600349C1F8B80170470000BC8121420B
:105820000080214270B588B002A905A8FFF756FC98
:105830000446032C3ED101A8FFF7D8F8059800F0E4
:10584000A7FF0646019901F003F8054600F064FF42
:105850000590069800F09CFF0646019900F0F8FFBD
:10586000054600F059FF0690079800F091FF0646A4
:10587000019900F0EDFF054600F04EFF079005A8E6
:10588000FEF720F86846FFF75DF8BDF800100298B3
:1058900048430290BDF80010039848430390BDF8B8
:1058A000001004984843049002A8FDF73BFF002035
:1058B00008B070BD0120FBE738B50446214890F8D8
:1058C0002400C0B114B10220009001E0002000903B
:1058D0001C4A1268D17B1B4A526810786B46012221
:1058E000FCF718FC10B14FF0FF3038BD9DF80010E8
:1058F0001448417423E01348807A10B94FF0FF3008
:10590000F3E724B10F48407C08B10020EDE714B163
:105910000120009001E0002000900A4A1268D17B2B
:10592000084A526810786B460122FCF7F3FB10B16D
:105930004FF0FF30D9E79DF8001002484174002075
:10594000D3E70000240000202DE9F04106460F4671
:1059500000F082FB041E0D4618BF0120284320F0F2
:105960000040C0F17F6000F1E040C00F0ED0301C5D
:1059700018BF0120384320F00040C0F17F6000F1E3
:10598000E040C00F04BF0120FAF71CFD2046294665
:10599000BDE8F08100B5FEF7A5FDFFF723FF00BDD0
:1059A00000B5FEF7B3FDFFF709FF00BD0120064972
:1059B00008600649C1F8B40103490C310860034985
:1059C000C1F8B80170470000B08121420080214237
:1059D00021F00042A2F16052B2F5801F01F00043B5
:1059E00028BFD2F17F6C0BD95FEA001C43EAC202E8
:1059F00042EB507018BF704728BF20F0010070477D
:105A0000B2F5801FBCBF184670474FEA410C1CF529
:105A1000001F02D2084600F0E2BF70B500F0BCFAE9
:105A200000000089FFF7F6BF4FF00040A0F58000AE
:105A30007047000010B591EA030F48BF83F00043A0
:105A400000F1F883841A71EB030C05D2121943EBB1
:105A50000C03001B61EB0C01DFF824E14FEA115449
:105A6000A4EB135C1EEA430F18BF9EEA445F73D099
:105A700023EA0E03DCF1200E21EA045143F48013E3
:105A800032D322FA0CFE10EB0E0023FA0CFE41EB8F
:105A90000E01CCF1200E03FA0EFE10EB0E0051F1B8
:105AA0000001B1F5801FCCF1200E32D201EB045180
:105AB00012FA0EF2BDE8104058BF7047401C38BFC4
:105AC0005FEA420218BF7047002814BF20F00100AF
:105AD00041F100014FEA410313F5001F38BF704741
