:020000040800F2
:10000000F8200020CD010008CD140008FF120008E0
:10001000C91400088D0300086927000800000000CB
:10002000000000000000000000000000F1240008B3
:10003000910300080000000057020008492500084D
:10004000E7010008E7010008E7010008E7010008F0
:10005000E7010008E7010008E7010008E7010008E0
:10006000E7010008E7010008E7010008E7010008D0
:10007000E7010008E7010008E7010008E7010008C0
:10008000E7010008E7010008E7010008E7010008B0
:10009000E7010008E7010008E7010008E7010008A0
:1000A000E7010008E7010008E7010008E701000890
:1000B000E7010008E7010008E7010008E701000880
:1000C000E7010008E7010008E7010008E701000870
:1000D000E701000821270008E7010008E701000800
:1000E000E7010008E7010008E7010008E701000850
:1000F000E7010008E7010008E7010008E701000840
:10010000E7010008E7010008E7010008E70100082F
:10011000E7010008E7010008E7010008E70100081F
:10012000E7010008E7010008E7010008E70100080F
:1001300000F002F800F03AF80AA090E8000C8244BF
:100140008344AAF10107DA4501D100F02FF8AFF29C
:10015000090EBAE80F0013F0010F18BFFB1A43F0A5
:10016000010318473C2A00005C2A0000103A24BF13
:1001700078C878C1FAD8520724BF30C830C144BF0C
:1001800004680C607047000000230024002500264E
:10019000103A28BF78C1FBD8520728BF30C148BFEA
:1001A0000B6070471FB51FBD10B510BD00F08BF878
:1001B0001146FFF7F7FF02F0E9FB00F0A9F803B4DE
:1001C000FFF7F2FF03BC02F0EDFA00000948804798
:1001D00009480047FEE7FEE7FEE7FEE7FEE7FEE729
:1001E000FEE7FEE7FEE7FEE704480549054A064B41
:1001F000704700006525000831010008F81A00204A
:10020000F8200020F81C0020F81C0020EFF31080DC
:1002100072B6704780F3108870471F484FF6FF7121
:100220000170002080F309881C48016881F3088868
:100230001B48012101701B484FF08051016062B6DC
:10024000FEE718484FF080510160704715484FF0A5
:1002500080510160704772B6EFF3098028B12038F1
:1002600080E8F00F10490968086000B50F48804722
:100270005DF804EB0E480F490A7802700A480E49EF
:100280000A680260106890E8F00F203080F3098857
:100290004EF0F40E62B6704722ED00E06C000020D4
:1002A0004600002004ED00E04C000020D11C0008B6
:1002B0003B0000203C0000205400002070477047A5
:1002C000704770477047754600F02CF8AE46050041
:1002D0006946534620F00700854618B020B5FFF761
:1002E00083FFBDE820404FF000064FF000074FF0BD
:1002F00000084FF0000B21F00701AC46ACE8C00944
:10030000ACE8C009ACE8C009ACE8C0098D4670474C
:1003100010B50446AFF300802046BDE81040FFF75B
:100320004EBF000000487047981A00207047704781
:1003300070477047704770477047704700B585B089
:1003400000BF1048806940F008000E4988610846E7
:10035000806900F00800009000BF00BF8815019080
:100360000120029003900320049001A9064800F0A8
:10037000E5F800224FF48071034800F087FA05B0D9
:1003800000BD000000100240000C014000BFFEE76D
:100390007047000070B50446002594F8210002283B
:1003A00003D00420A0630125C1E02068006820F08C
:1003B0000E00216808602068006820F001002168B4
:1003C00008605C492068884252D95A4978392068C7
:1003D000884201D1012047E05649643920688842AB
:1003E00001D1102040E0534950392068884201D1A2
:1003F000801539E04F493C392068884201D180148A
:1004000032E04C4928392068884202D14FF48030CC
:100410002AE0484914392068884202D14FF48010FC
:1004200022E044492068884201D140041CE042494E
:100430002068884201D1012016E03F49143120682C
:10044000884201D110200FE03B49283120688842C2
:1004500001D1801508E038493C312068884201D13B
:10046000801401E04FF480303349091F086051E0E7
:10047000304978392068884201D1012047E02D4970
:1004800064392068884201D1102040E02949503960
:100490002068884201D1801539E026493C3920681E
:1004A000884201D1801432E02249283920688842EC
:1004B00002D14FF480302AE01E4914392068884266
:1004C00002D14FF4801022E01A492068884201D1FD
:1004D00040041CE018492068884201D1012016E040
:1004E000154914312068884201D110200FE01249CB
:1004F00028312068884201D1801508E00E493C313E
:100500002068884201D1801401E04FF4803009490D
:1005100080394860012084F8210000BF002084F861
:10052000200000BF606B10B12046616B88472846F1
:1005300070BD000080000240080402402DE9F84729
:10054000024600239C467BE14FF0010808FA03F4C1
:10055000D1F8008008EA0400A0427DD1DFF8F4A2BF
:10056000D1F80480A8EB0A09D0453AD014DCB8F1E0
:10057000030F50D009DCB8F1000F31D0B8F1010FF2
:100580001CD0B8F1020F49D120E0B8F1110F18D0FA
:10059000B8F1120F42D11EE0B9F5881F25D006DC54
:1005A000B9F5803F20D0B9F5801F37D11AE0B9F5F1
:1005B000001F18D0B9F5041F30D117E0D1F80CC0D6
:1005C0002DE0D1F80C8008F1040C28E0D1F80C8063
:1005D00008F1080C23E0D1F80C8008F10C0C1EE0A7
:1005E00000BF00BF00BF00BF00BF00BFD1F8088040
:1005F000B8F1000F02D14FF0040C0BE0D1F80880E5
:10060000B8F1010F03D14FF0080C146102E04FF074
:10061000080C546103E04FF0000C00E000BF00BF85
:10062000FF2801D8904601E002F104084646FF2861
:1006300002D84FEA830803E0A3F108084FEA8808CC
:100640004746D6F800804FF00F0909FA07F928EA63
:1006500009080CFA07F900E07AE048EA0908C6F848
:100660000080D1F8048008F08058B8F1805F6FD125
:1006700000BFDFF8E481D8F8188048F00108DFF8FF
:10068000D891C9F81880C846D8F8188008F0010831
:10069000CDF8008000BF00BF4FEAB9384FEA930998
:1006A00058F829504FEA83784FEA18794FF00F082D
:1006B00008FA09F825EA0805DFF8A081424502D1C9
:1006C0004FF0000824E0DFF89881424502D14FF056
:1006D00001081DE0DFF88C81424502D14FF002088D
:1006E00016E0DFF88481424502D14FF003080FE0A5
:1006F000DFF87881424502D14FF0040808E0DFF8C6
:100700007081424502D14FF0050801E04FF0060824
:100710004FEA83794FEA197908FA09F848EA05059A
:10072000DFF850814FEA930948F82950D1F8048046
:1007300008F48038B8F5803F0BD1DFF83C81D8F859
:10074000008048EA0008DFF83091C9F800800AE02C
:1007500075E0DFF82481D8F8008028EA0008DFF887
:100760001891C9F80080D1F8048008F40038B8F571
:10077000003F0ED1DFF8008108F10408D8F80080AE
:1007800048EA0008DFF8F09009F10409C9F8008090
:100790000DE0DFF8E48008F10408D8F8008028EACA
:1007A0000008DFF8D49009F10409C9F80080D1F8F5
:1007B000048008F48018B8F5801F0ED1DFF8B880E7
:1007C00008F10808D8F8008048EA0008DFF8A89087
:1007D00009F10809C9F800800DE0DFF89C8008F1F4
:1007E0000808D8F8008028EA0008DFF88C9009F1A2
:1007F0000809C9F80080D1F8048008F40018B8F599
:10080000001F0ED1DFF8708008F10C08D8F80080C6
:1008100048EA0008DFF8609009F10C09C9F8008087
:100820000DE0DFF8548008F10C08D8F8008028EAC1
:100830000008DFF8449009F10C09C9F800805B1C3E
:10084000D1F8008028FA03F8B8F1000F7FF47CAEED
:10085000BDE8F887000011100010024000080140B8
:10086000000C01400010014000140140001801403C
:10087000001C01400800014000040140024693684A
:100880000B400BB1012000E0002070470AB101616C
:1008900001E00B04036170470148006870470000E5
:1008A0000400002010B50848006840F01000064918
:1008B0000860052000F070F80F2000F007F800F045
:1008C0002BF8002010BD00000020024070B5044647
:1008D0000E4800784FF47A71B1FBF0F00C490968CA
:1008E000B1FBF0F5284600F0C1FB08B1012070BD56
:1008F000102C07D200222146501E00F00EF80548A9
:10090000046001E00120F2E70020F0E70C00002085
:10091000000000200800002070472DE9F05F8046AD
:100920000D461646002701F021FF074639462A46A4
:10093000334601F00700C0F1070ABAF1040F02D9EB
:100940004FF0040A01E0C0F1070AD14600F1040AA1
:10095000BAF1070F02D24FF0000A01E0A0F1030A3A
:10096000D4464FF0010A0AFA09FAAAF1010A0AEA82
:10097000020A0AFA0CFA4FF0010B0BFA0CFBABF16E
:10098000010B0BEA030B4AEA0B042146404601F037
:10099000F5FEBDE8F09F000000BF00F00702064B27
:1009A00019684FF6FF031940044B0B4343EA022139
:1009B000014B196000BF70470CED00E00000FA0524
:1009C00070B504460D460CB9012070BD5A48006848
:1009D00000F00700A8420ED25748006820F0070038
:1009E0002843554908600846006800F00700A842FF
:1009F00001D00120E9E7207800F0020002281DD193
:100A0000207800F00400042805D14C48406840F4E8
:100A1000E0604A494860207800F00800082805D1C5
:100A20004648406840F46050444948604348406844
:100A300020F0F000A168084340494860207800F0A9
:100A4000010078B36068012806D13C48006800F4D2
:100A5000003090B90120B8E76068022806D1374815
:100A6000006800F0007040B90120AEE7334800682C
:100A700000F0020008B90120A7E73048406820F0E4
:100A80000300616808432D494860FFF705FF0646EB
:100A900009E0FFF701FF801B41F28831884202D94B
:100AA000032092E707E02548406800F00C006168E9
:100AB000B0EB810FEDD12048006800F00700A8429C
:100AC0000ED91D48006820F0070028431A49086025
:100AD0000846006800F00700A84201D0012074E732
:100AE000207800F00400042807D11448406820F45E
:100AF000E060E168084311494860207800F0080090
:100B0000082808D10D48406820F46050216940EA67
:100B1000C1000A49486000F019F808494968C1F362
:100B20000311074A515CC84006490860064800683E
:100B3000FFF7CCFE002048E70020024000100240F2
:100B4000882A00080000002008000020F0B585B0C9
:100B50000FF26C0C9CE8E01001A8A0E8E0101CA5C6
:100B60002D68009500210022002300240020194D4B
:100B7000696801F00C05F5B1042D02D0082D19D1DA
:100B800001E0154819E001ADC1F38346AC5D01F405
:100B9000803555B10F4D6D68C5F340451DF80520F2
:100BA0000D4D6543B5FBF2F302E00C4D04FB05F37C
:100BB000184602E000BF084800BF00BF05B0F0BD06
:100BC00002030405060708090A0B0C0D0E0F10108E
:100BD000010200000010024000127A0000093D00EE
:100BE000F8B504460CB90120F8BD207800F00100EA
:100BF000002878D0F848406800F00C0004280CD099
:100C0000F548406800F00C00082811D1F24840680F
:100C100000F48030B0F5803F0AD1EF48006800F45E
:100C2000003000285FD0606800285CD10120DBE73D
:100C300000BF6068B0F5803F06D1E748006840F427
:100C40008030E549086028E0606858B9E2480068EB
:100C500020F48030E04908600846006820F48020D5
:100C600008601AE06068B0F5A02F0BD1DA48006880
:100C700040F48020D84908600846006840F480307D
:100C800008600AE0D448006820F48030D249086047
:100C90000846006820F48020086000BF606888B1C2
:100CA000FFF7FAFD054606E0FFF7F6FD401B642856
:100CB00001D9032098E7C848006800F400300028F4
:100CC000F2D010E0FFF7E8FD054606E0FFF7E4FD8F
:100CD000401B642801D9032086E7BF48006800F460
:100CE00000300028F2D1207800F00200022857D10D
:100CF000B948406800F00C0050B1B748406800F0B7
:100D00000C00082818D1B448406800F4803098B925
:100D1000B148006800F0020020B12069012801D02C
:100D2000012061E7AC48006820F0F800616940EA02
:100D3000C100A949086033E02069E8B10120A74952
:100D40000860FFF7A9FD054606E0FFF7A5FD401B7B
:100D5000022801D9032047E79F48006800F00200FD
:100D60000028F2D09C48006820F0F800616940EA51
:100D7000C1009949086013E0002098490860FFF716
:100D80008BFD054606E0FFF787FD401B022801D9D1
:100D9000032029E79048006800F002000028F2D103
:100DA000207800F0080008282DD1A069B8B10120F2
:100DB0008B490860FFF770FD054606E0FFF76CFD04
:100DC000401B022801D903200EE78348406A00F047
:100DD00002000028F2D0012001F076FB13E0002091
:100DE0007F490860FFF758FD054606E0FFF754FD10
:100DF000401B022801D90320F6E67748406A00F03C
:100E000002000028F2D1207800F00400042873D1F9
:100E100000277148C06900F0805070B900BF6E486B
:100E2000C06940F080506C49C8610846C06900F054
:100E30008050009000BF00BF01276A48006800F49E
:100E40008070B0B96748006840F4807065490860F8
:100E5000FFF722FD054606E0FFF71EFD401B642854
:100E600001D90320C0E65F48006800F480700028C4
:100E7000F2D000BFE068012806D15748006A40F070
:100E800001005549086227E0E06858B95248006AF5
:100E900020F00100504908620846006A20F0040072
:100EA000086219E0E06805280BD14B48006A40F061
:100EB0000400494908620846006A40F001000862DF
:100EC0000AE04548006A20F00100434908620846EC
:100ED000006A20F00400086200BFE068A0B1FFF7DC
:100EE000DBFC054609E0FFF7D7FC401B41F28831E7
:100EF000884202D9032077E622E03748006A00F0F2
:100F000002000028EFD012E0FFF7C6FC054608E01B
:100F1000FFF7C2FC401B41F28831884201D903200F
:100F200062E62D48006A00F002000028F0D1012F8F
:100F300005D12948C06920F080502749C86100BF09
:100F4000E069C8B32448406800F00C00082860D06D
:100F5000E069022848D1002020490866FFF79CFC80
:100F6000054606E0FFF798FC401B022801D9032044
:100F70003AE61948006800F000700028F2D1206AB3
:100F8000B0F5803F07D11448406820F40030A168D4
:100F9000084311494860D4E9080108430E494968EB
:100FA00021F4741108430C49486001200B4908667C
:100FB000FFF772FC054607E03DE0FFF76DFC401BC4
:100FC000022801D903200FE60348006800F00070F2
:100FD0000028F2D02FE00000001002400000424242
:100FE0008004424200700040002014490866FFF768
:100FF00053FC054606E0FFF74FFC401B022801D9D1
:101000000320F1E50E48006800F000700028F2D1DE
:1010100011E0E069012800D1E6E50948466806F4D8
:101020008031206A814204D106F47011606A8142E5
:1010300001D00120D8E50020D6E5000000004242A2
:1010400000100240042808D14FF0E021096941F066
:1010500004014FF0E022116107E04FF0E02109693F
:1010600021F004014FF0E0221161704770B5044691
:101070002546681EB0F1807F01D301200FE0681E75
:101080004FF0E02148610F214FF0FF3001F076FB77
:1010900000204FF0E021886107200861002070BD2A
:1010A000704701460022002391F8392091F83A3028
:1010B00042EA0300704700002DE9F047044620682B
:1010C00005682068C668206847694FF00008C14677
:1010D00005F00F08B8F1000F0AD105F0200038B173
:1010E00006F0200020B1204601F092FABDE8F0871A
:1010F000B8F1000F6DD007F0010018B906F4907038
:10110000002866D005F0010030B106F4807018B1F7
:10111000E06B40F00100E06305F0040030B107F03F
:10112000010018B1E06B40F00200E06305F002003E
:1011300030B107F0010018B1E06B40F00400E0634B
:1011400005F0080030B107F0010018B1E06B40F085
:101150000800E063E06B68B305F0200028B106F0FA
:10116000200010B1204601F053FA20684069C0F316
:101170008019E06B00F0080010B9B9F1000F22D01F
:10118000204601F025FA2068406900F04000B0B127
:101190002068406920F0400021684861606B50B1D0
:1011A0001748616B4863606BFFF7F4F810B1606B30
:1011B000416B88470CE02046FFF772FF08E02046AD
:1011C000FFF76EFF04E02046FFF76AFF0020E063B0
:1011D0008CE705F0800030B106F0800018B12046A1
:1011E00001F069FA82E705F0400030B106F04000F6
:1011F00018B1204601F0FCF978E700BF76E700005F
:10120000BD25000810B5034693F83A0020282FD1D9
:1012100001B10AB9012010BD00BF93F838000128C0
:1012200001D10220F7E7012083F8380000BF99625E
:101230009A85DA850020D863222083F83A0000BF1F
:10124000002083F8380000BF1868C06840F4807040
:101250001C68E0601868406940F001001C6860612B
:101260001868C06840F020001C68E0600020D2E7E9
:101270000220D0E71D4A0168914236D11C490988F5
:1012800001F4004189BB1A49098801F4804171B118
:10129000184909780A2903D00021154A118024E051
:1012A0001349098841F40041114A11801DE0114998
:1012B00009780D2906D10E49098841F480410C4A6C
:1012C000118012E00B490978094A1288C2F30D0215
:1012D000094B995406490988491C054A1180114651
:1012E0000988C72901DD00211180704700380140BD
:1012F0001C0000201E00002070080020704700BF66
:10130000FEE7000000B585B000BF1A48806940F0D4
:101310000400184988610846806900F004000090C4
:1013200000BF00BF00BF0846806940F040008861F0
:101330000846806900F04000009000BF00BF012017
:10134000019000200290022003900320049001A944
:101350000948FFF7F3F81C200190002002900120BB
:1013600003900320049001A90448FFF7E7F805B0B3
:1013700000BD0000001002400008014000180140BC
:1013800010B50446012C01D12C4908702B48007877
:10139000002837D010212A48FFF770FA78B10821C9
:1013A0002748FFF76BFA50B104212548FFF766FA8A
:1013B00028B101212348FFF761FA012822D10A2030
:1013C00001F030FA00201D49087010211C48FFF779
:1013D00055FA08B9012010BD08211948FFF74EFA47
:1013E00008B90220F7E704211548FFF747FA08B9C2
:1013F0000320F0E701211348FFF740FA01281BD131
:101400000420E8E710210E48FFF738FA012813D12D
:1014100008210B48FFF732FA01280DD104210848B2
:10142000FFF72CFA012807D101210648FFF726FA19
:1014300010B90120014908700020CCE71F000020EE
:10144000001801400008014000B585B000BF1B48EE
:10145000806940F00800194988610846806900F0F9
:101460000800009000BF00BF00BF0846806940F040
:10147000400088610846806900F04000009000BF8D
:1014800000BF2020019001200290039003200490CF
:1014900001A90B48FFF752F82020019001A9094843
:1014A000FFF74CF8012220210548FFF7EFF9012250
:1014B00020210448FFF7EAF905B000BD0010024002
:1014C000000C01400018014000BFFEE7704710B556
:1014D00000F014F800F05AFD00F086FD00F0A6FDC3
:1014E00000F024FD00F0E4FC00F03AFE00F0DEFD28
:1014F00000F004FE00F01AF810BD0000084880213A
:1015000002E0491E002204C00029FAD1054A064B18
:101510001A601A46126822F007021A60704700002B
:1015200098180020981A00206C00002070470000D6
:1015300006480078012808D105480078FF2804D221
:1015400003480078401C024908707047460000209C
:101550003900002010B500241A480078012830D145
:10156000FEF754FE04461848007820B1164800786B
:10157000401E1549087014480078F8B913480078DF
:10158000E0B900F04FFE12481249097850F82100E6
:10159000114908600F4800781049097888420DD039
:1015A0000D480068C06B401C0B490968C8630C48B3
:1015B0000068401C0A490860FEF748FE2046FEF716
:1015C00029FE10BD46000020390000203A0000200E
:1015D000A80F00203C000020540000203B00002009
:1015E0002000002010B500240B480078012811D1FC
:1015F000FEF70CFE04460948007840B90848007818
:10160000FF2804D206480078401C0549087020468F
:10161000FEF700FE10BD000046000020390000204B
:101620003A00002010B5002413480078012821D189
:10163000FEF7ECFD044611480078C0B91048007868
:1016400088B10F480078401E0D49087008460078A0
:1016500028B92046FEF7DEFD00F0AAFD0AE020468C
:10166000FEF7D8FD06E02046FEF7D4FD02E0204656
:10167000FEF7D0FD10BD000046000020390000201C
:101680003A00002010B50B48007890B900F0CAFD70
:10169000094800780949087009480749097850F84D
:1016A0002100084908600846006807490860FEF7FD
:1016B000B4FD10BD460000203C0000203B0000208F
:1016C000A80F0020540000204C00002010B500247A
:1016D000022000F001FBFEF799FD044600200B49B3
:1016E00008602046FEF796FD642000F0F5FAFEF74C
:1016F0008DFD04460548006805490860012005493C
:1017000008702046FEF786FD10BD0000480000204E
:10171000300000203800002010B504462046FEF7B7
:1017200005FE10BD2DE9F04F85B081468A469346EF
:101730001C46DDE90F78129D00200390FEF766FD40
:1017400003902348007830B10398FEF763FD3C20F6
:1017500005B0BDE8F08F1F4850F8240088BB012079
:101760001C4941F824000398FEF754FD2A464146DF
:10177000384600F09BFE2B465A465146484600F03C
:1017800001FA04901198CDE9008002953A4620466E
:101790000E9B049900F05CFD064636B90E480078B1
:1017A00001280CD100F004FD09E0FEF72FFD0390A5
:1017B0000020084941F824000398FEF72BFD30462D
:1017C000C6E7FFE70398FEF725FD2820C0E70000E5
:1017D00039000020A80F00204600002010B5044664
:1017E0002046FEF7A4FD10BD2DE9F0410546002777
:1017F0004A48007810B14020BDE8F0813F2D01D16A
:101800003E20F9E7FEF702FD0746FF2D03D14448CD
:10181000006890F83650434850F8254024B93846BF
:10182000FEF7F8FC4320E7E7012C04D13846FEF729
:10183000F1FC3D20E0E714F8380F3B49085C617883
:1018400088432178384A505414F838091146085C06
:1018500030B994F83A103548007888433349087015
:10186000E06918B12046E16900F0EDFA206A18B18C
:101870002046216A00F0FEFAA66A16B1304600F052
:1018800043FB0020206384F8340084F835002848A6
:101890000078FF2804D226480078401C24490870AC
:1018A0003846FEF7B7FC00F0CDFAFEF7AFFC07466E
:1018B0001F48007820B11E480078401E1C4908705F
:1018C000204600F041F81B480078401E1949087076
:1018D0000020144941F82500A06930B90020616951
:1018E000886115496069086005E0D4E9050148612F
:1018F000D4E9051088611148006860610F480460F0
:101900000FA020653846FEF785FC0E4800780128B8
:1019100001D100F04DFC00206EE7000039000020EE
:101920004C000020A80F00203E0000203D000020B9
:101930003A000020470000205800002050000020FE
:101940003F0000004600002010B504462046FEF788
:10195000EFFC10BD2DE9F041044600273F2C02D1D9
:101960003E20BDE8F081FF2C0BD1FEF74FFC07466F
:101970001148006890F83B603846FEF74BFC304653
:10198000EFE7FEF743FC07460C4850F8245025B912
:101990003846FEF73FFC4320E3E7012D04D13846EB
:1019A000FEF738FC3D20DCE73F2085F83B00384659
:1019B000FEF730FC0020D4E74C000020A80F0020E8
:1019C00010B5FEF7B6FC10BD2DE9F04106460F46F6
:1019D00014464FF000081548007818B11220207006
:1019E000BDE8F081FEF712FC8046FF2E03D11048BF
:1019F000006890F836600F4850F826502DB94046E0
:101A0000FEF708FC43202070EAE7012D05D140468F
:101A1000FEF700FC43202070E2E72F654046FEF70A
:101A2000F9FB0020207000BFDAE700003900002039
:101A30004C000020A80F002070B505460026FEF7D8
:101A4000E5FB0646244850F8254024B93046FEF709
:101A5000E1FB462070BD012C04D13046FEF7DAFBD5
:101A60004320F7E794F8340000F0080070B314F84E
:101A7000340F00F0F700207014F8340900F037003C
:101A8000F8B9206BC8B93834A078144909780843EC
:101A90001249087020781249085C6178084314F8EC
:101AA00038190F4A50543046FEF7B4FB0D48007801
:101AB000012809D100F07CFB06E03046FEF7AAFBC6
:101AC00002E03046FEF7A6FB0020C3E73046FEF7F3
:101AD000A1FB4420BEE70000A80F00203D0000202D
:101AE0003E0000204600002010B504462046FEF7C8
:101AF00021FC10BD10B5FEF71EFC10BD2DE9F0470E
:101B000007460D464FF0000A002028606860FEF787
:101B10007DFB8246FF2F03D11848006890F836708D
:101B2000174850F827402CB95046FEF773FB432066
:101B3000BDE8F087012C04D15046FEF76BFB432033
:101B4000F6E7207C00F0010020B95046FEF762FB6A
:101B50004520EDE70026D4F80C90D4F808805046D4
:101B6000FEF758FB00E0761C58F8041B0029FAD059
:101B70002E60A9EB060068600020D9E74C00002029
:101B8000A80F002070B50446101D20F007004FF08C
:101B90008076051F28462E60051F28462C60214EA2
:101BA000051F28462E604FF01236051F28462E606E
:101BB0004FF00336051F28462E604FF00236051FF2
:101BC00028462E607610051F28462E60051F2846E1
:101BD00029604FF01136051F28462E604FF0103651
:101BE000051F28462E604FF00936051F28462E6037
:101BF0004FF00836051F28462E604FF00736051FA8
:101C000028462E604FF00636051F28462E604FF0FE
:101C10000536051F28462E604FF00436051F28465E
:101C20002E6070BDB92300082DE9F04105464FF044
:101C30000008FEF7EBFA8046FF2D05D1204800682A
:101C400090F83650012608E01D48006890F83600EC
:101C5000A84201D1012600E000261A4850F825408C
:101C60002CB94046FEF7D6FA4820BDE8F081012C99
:101C700004D14046FEF7CEFA4320F6E794F83870D8
:101C80001148C05D94F8391088430F49C85508467B
:101C9000C05D30B994F83A100C48007888430B497D
:101CA000087094F8340040F0080084F8340040468E
:101CB000FEF7B0FA012E01D100F07AFA0020D4E745
:101CC0004C000020A80F00203E0000203D00002016
:101CD00010B5FEF731FB10BD70B50546002617485C
:101CE000007800B170BD1648007800B1FAE71DB366
:101CF000FEF78CFA06461348006890F83840124800
:101D0000005D1049096891F8391088430E4908555B
:101D10000846005D40B90B48006890F83A100B483F
:101D20000078884309490870064800680563304612
:101D3000FEF770FA00F03CFA00BFD3E7390000204C
:101D40003A0000204C0000203E0000203D00002012
:101D500070B5002600F072F8FEF758FA06463148D2
:101D60000068401C2F4908603046FEF753FA2E48A1
:101D70000078012853D12D48007820B1012804D0E3
:101D8000022809D103E001250BE0002509E0012527
:101D900001202649087004E001250020234908702D
:101DA00000BF00BF05B970BD2148046833E0FEF7ED
:101DB0002DFA0646206B50B3206B401E2063206B2B
:101DC00028BB94F8340000F0370040B114F8340F09
:101DD00000F0C800207001206070343C02E0002058
:101DE00084F8350094F8340000F0080078B93834ED
:101DF000A0781049097808430E49087020780E49E8
:101E0000085C6178084314F838190B4A5054646927
:101E10003046FEF7FFF994F836003F28C7D100BFDF
:101E2000C1E7000068000020460000205C000020A0
:101E3000580000203D0000203E00002010B5FEF7B5
:101E40007CFA10BD704710B590F8382001F10B03F3
:101E50009B5C90F83940A34301F10B04A354234643
:101E60009B5C23B98B7A90F83A40A3438B72002392
:101E7000C36110BDF0B5024612F8384F9578567818
:101E8000383A0B4618680FE000F10B073F5DB74387
:101E900000F10B0C0CF8047067463F5D17B9877AA8
:101EA000AF4387721B1D18680028EDD1F0BD0000FC
:101EB0002DE9F0415021114800F048F900250DE0CE
:101EC000681C86B20D4800EB051400EB06170020D5
:101ED000207067600AA0E060681C85B2042DEFD313
:101EE000064800EB051400202070606004A0E0604C
:101EF000024804490860BDE8F0810000580B00204A
:101F00003F0000002800002030B501464A680868FC
:101F10002AB9CC68606028B10025456002E01060F5
:101F200000B142608B6800259D6230BD70B54FF4F2
:101F3000F071134800F00AF9002411E0601C85B22A
:101F400004EB44000E4901EBC00305EB450001EB37
:101F5000C006002018705E600AA05861601C84B240
:101F6000132CEBD304EB4400054901EBC003002024
:101F70001870586003A0586108460349086070BD96
:101F8000780900203F0000002400002000200B49B9
:101F900008600B4908700B4908700B4908700B4921
:101FA00008700B4908600B4908600B4908600B4931
:101FB00008600B4908700B490870704768000020E2
:101FC000390000203A000020470000204600002091
:101FD00020000020480000203400002030000020B5
:101FE000380000206400002000210A4A11700020FF
:101FF00004E00021084A1154411CC8B20828F8D353
:102000000021064A1170064A1170064A1160064AFC
:10201000116070473D0000203E0000203B00002082
:102020003C000020540000204C00002070B54FF40C
:10203000F261194800F08AF84FF48071174800F0F7
:1020400085F8002413E0601CC5B204EB440000EBEB
:10205000C400114901EBC00305EB450000EBC500CE
:1020600001EBC0065E610EA01865601CC4B2152CA1
:10207000E9D304EB440000EBC400074901EBC003C3
:102080000020586106A01865002006490860024833
:102090000549086070BD0000A8100020A80F0020AE
:1020A0003F000000580000205000002000B587B01D
:1020B0000320002180220A4BCDE90132CDE9031033
:1020C0004FF6FF703F23074A00900748FFF72AFBAF
:1020D00006AA06A13F20FFF777FC07B000BD00006D
:1020E000A80D0020A40F00209123000875432F4F56
:1020F000532D49492049646C6500000000B587B044
:102100000320002180220A4BCDE90132CDE90310E2
:102110004FF6FE703E23074A00900748FFF702FB88
:1021200006AA06A13E20FFF74FFC07B000BD000045
:10213000A80B0020A40D0020D123000875432F4FC9
:10214000532D4949205374617400000004E00022BB
:1021500000F8012B4A1E91B20029F8D17047000007
:102160002DE9F04160211048FFF7F0FF00240DE059
:10217000601C86B204EB44000B4901EBC00506EB82
:10218000460001EBC0072F60601C84B2032CEFD324
:1021900004EB4400044901EBC00500202860084618
:1021A00002490860BDE8F081381800206000002076
:1021B00010B50024FEF72AF8044613480078F8B951
:1021C00012480078E0B900F02DF81148114909785B
:1021D00050F82100104908600E4800780F4909782E
:1021E00088420DD00C480068C06B401C0A49096841
:1021F000C8630B480068401C09490860FEF721F8D5
:102200002046FEF707F810BD390000203A000020F4
:10221000A80F00203C000020540000203B000020BC
:10222000200000200649074A1278885C0649095CAC
:10223000034A515C01EBC001044A11707047000071
:10224000A02A00083D0000203E0000203C000020A5
:102250002DE9F84F05460F4690469946DDE90AAB51
:1022600000200090FDF7D2FF009042480468002C47
:102270007BD01C3454F8080C3E4908600098FDF7E8
:10228000C9FF44F81C7CA57600202076607660614A
:1022900044F818BC44F810AC44F8148C0C9824F89A
:1022A0000C0C24F80A9C0020E077E810207705F059
:1022B0000700E076217F01208840A077E17E0120A1
:1022C00088406077002020606060E060A06020624D
:1022D000A0626062E062206327A060631C3C00266D
:1022E00006E0002104F1540040F82610701CC6B22C
:1022F000002EF6D02046FFF70FFAFDF787FF00907B
:102300001E4840F825400098FDF784FF2046FFF75F
:1023100065FAFDF77BFF00901948006860610020B6
:10232000A0611748006810B115480068846114481E
:1023300004603834A07813490978084311490870BB
:1023400020781149085C6178084314F838190E4A5E
:1023500050540E480078401C0C4908700098FDF756
:1023600059FF0020BDE8F88FFFE70098FDF752FF06
:102370004220F7E7500000203F000000A80F002097
:10238000580000203D0000203E00002047000020B3
:10239000002400BF00BFFDF739FF04460548006870
:1023A000401C044908602046FDF734FFFFF708FB96
:1023B000F1E700004800002010B504480068FFF76E
:1023C00093FBFF20FFF710FA10BD00004C00002027
:1023D00000BF00BF02E0C820FFF77EFC1F48007866
:1023E0000028F8D01E4800686421B0FBF1F01C49B9
:1023F00008600846006828B900201A490870FF20C4
:10240000FFF712FCFDF702FF04461548006864213F
:102410004843154908602046FDF7FCFE00BFFDF764
:10242000F5FE0446104800681049086000200E4977
:1024300008602046FDF7EEFE0C4800680849096870
:10244000B0FBF1F0C0F1640006490870FFF752FBE1
:1024500000F00EF86420FFF73FFCE0E738000020B2
:10246000300000202C000020480000203400002014
:102470007CB5002514E069462846FFF73FFB064679
:1024800066B9094850F8254044B1012C06D0D4E97A
:10249000020100EB8100A0640198E064681CC5B2F1
:1024A0003F2DE8D97CBD0000A80F002002F00103F9
:1024B00043B102F002032BB102E0491E002308C021
:1024C0000029FAD17047000008B508490968C90811
:1024D0004FF47A72B1FBF2F14143009100BF00BFAB
:1024E00000994A1E00920029F9D108BD0000002081
:1024F000704730B58FB005460024012005900004D8
:1025000006900020079002200C90C1030D910E95BB
:1025100005A8FEF765FB04460CB100BFFEE70F20DF
:10252000009002200190002002904FF48060039000
:102530000020049002216846FEF742FA04460CB1DE
:1025400000BFFEE70FB030BD10B505480078012888
:1025500005D1FEF7EDFFFFF7FBFBFEF7FBFF10BD1C
:10256000460000201148006840F001000F49086053
:10257000084640680E4908400C4948600846006813
:102580000C490840094908600846006820F480208A
:1025900008600846406820F4FE0048604FF41F00C1
:1025A0008860C803044908607047000000100240BA
:1025B0000000FFF8FFFFF6FE08ED00E070B50546ED
:1025C0006C6A0020E085E0842046FEF769FD70BD5E
:1025D0000168C96821F490710268D1600168496995
:1025E00021F0010102685161202180F83A10704702
:1025F00010B504462068C06820F040002168C8601B
:10260000202084F839002046FEF778FE002010BD17
:1026100070B5044694F83A0022284AD1A068B0F573
:10262000805F13D1A56A206940B920684068C0F373
:1026300008002880A06A801CA06219E02068406819
:10264000C0B22880A06A401CA06211E0206938B99D
:1026500020684068C1B2A26A501CA062117007E0F5
:102660002068406800F07F01A26A501CA0621170CF
:10267000E08D401E80B2E085C8B92068C06820F0B7
:1026800020002168C8602068C06820F4807021683C
:10269000C8602068406920F001002168486120205E
:1026A00084F83A002046FEF7E5FD002070BD0020CA
:1026B000FCE70220FAE7014691F8390021282CD1E5
:1026C0008868B0F5805F0FD10A6A1088C0F30800EF
:1026D0000B685860086918B9086A801C086209E02C
:1026E000086A401C086205E00B6A581C08621878EA
:1026F0000B685860C88C401E80B2C88458B90868FE
:10270000C06820F080000B68D8600868C06840F09E
:1027100040000B68D860002070470220FCE70000F2
:1027200010B50024FEF704FF0D48FEF7C5FC00BFFE
:1027300001E0641C00BF0A48FEF7B3FC2028F8D172
:1027400000BF002401E0641C00BF012205490448C9
:10275000FEF758FD0028F6D100BFFEF7FBFE10BDC6
:10276000380900201E00002000BFFEE70248006874
:10277000C0F30220704700000CED00E010B5002807
:1027800004DB0A07130E054A135406E00A07140E69
:10279000034A00F00F031B1FD45410BD00E400E0F7
:1027A00018ED00E000BF704715E0FF20FFF7D2F8FA
:1027B0003F2802D1FF20FFF717F8012006490860E3
:1027C0003C2000F02FF800200449C1F8A0014FF48C
:1027D0006B7000F027F8E8E7A081214200802142D9
:1027E00070B504460420FEF72DFC0C480460254615
:1027F0004FF47A7045430120094908804FF0E020EA
:10280000006940F002004FF0E02108610846456190
:10281000006940F00100086170BD00001000002058
:102820001400002070B504460F480078A0B10F488E
:10283000007888B90E480088844206DB0C4800887E
:1028400094FBF0F5284600F01DF80948008894FB39
:10285000F0F100FB114084B24FF47A7104FB01F0F7
:1028600000F016F870BD000046000020390000207E
:102870001400002010B5FEF7B5FE10BD10B5FEF730
:10288000D1FE10BD10B504462046FFF725FA10BD55
:102890002DE9F047074600264FF0E020D0F81490CD
:1028A0001048006807FB00F8FFF7E4FF4FF0E02056
:1028B000856911E04FF0E0208469AC420CD0AC4255
:1028C00002D2281B064403E0A9EB04002844064476
:1028D0002546464500D300E0ECE700BFFFF7CEFFFA
:1028E000BDE8F0871000002086B029E00020FEF748
:1028F00047FD0446012C03D10720FFF795F91CE0A2
:10290000032C03D10720FFF797F816E0042C03D11E
:102910000520FFF71FF810E0022C0ED10720002140
:102920008022084BCDE90132CDE903100520034692
:10293000054A00900548FEF7F5FE0A20FFF772FFF2
:10294000D4E70000700400206C060020A9270008CE
:1029500014E00B48006808B9012000E00020084995
:1029600008600848D0F8940108B9012000E0002070
:10297000054908604FF4FA70FFF754FFE9E70000DB
:1029800094812142000023429401234200B585B086
:10299000FDF788FF4FF4E010FFF7ABFD4820FFF78D
:1029A0001FFFFEF751FDFEF7ADFCFDF7C7FCFEF77C
:1029B0008EFD072000218022084BCDE90132CDE9B0
:1029C00003100A200346064A00900648FEF7AAFEB6
:1029D000FEF758FE002005B000BD0000700000208A
:1029E0006C020020E929000830B585B004460025B6
:1029F00000BFFEF76BFEFDF709FC0546072000212E
:102A00008022184BCDE90310CDE901320090034636
:102A1000154A1648FEF786FE072000218022144B37
:102A2000CDE90132CDE9031005200346114A00909B
:102A30001148FEF777FE0720002180220F4BCDE9D9
:102A40000132CDE90310032003460D4A00900D48E2
:102A5000FEF768FE2846FDF7DDFB0A20FFF7E4F8E5
:102A600005B030BD700200206C0400205129000820
:102A7000700400206C060020A927000870060020C2
:102A80006C080020E9280008000000000000000099
:102A90000102030406070809000000000102030404
:102AA000000001000200010003000100020001001B
:102AB0000400010002000100030001000200010007
:102AC00005000100020001000300010002000100F6
:102AD00004000100020001000300010002000100E7
:102AE00006000100020001000300010002000100D5
:102AF00004000100020001000300010002000100C7
:102B000005000100020001000300010002000100B5
:102B100004000100020001000300010002000100A6
:102B20000700010002000100030001000200010093
:102B30000400010002000100030001000200010086
:102B40000500010002000100030001000200010075
:102B50000400010002000100030001000200010066
:102B60000600010002000100030001000200010054
:102B70000400010002000100030001000200010046
:102B80000500010002000100030001000200010035
:102B90000400010002000100030001000200010026
:102BA000C02B000800000020700000006C0100082D
:102BB000302C0008700000208820000088010008E8
:102BC0000024F400000000001000000001000000DC
:102BD00000000000000000000000000000000001F4
:102BE00000000000000000000000000000000000E5
:102BF00000000000000000000000000000000000D5
:102C000000000000000000000000000000000000C4
:102C100000000000000000000000000000000000B4
:102C200000000000000000000000000000000000A4
:0400000508000131BD
:00000001FF
