:020000040800F2
:1000000000D90020E1010008A95D0008D3280008FC
:10001000A55D00086509000871990008000000004E
:1000200000000000000000000000000071810008D6
:100030006D0C0008000000006B020008C981000878
:10004000FB010008FB010008FB010008FB010008A0
:10005000FB010008FB010008FB010008FB01000890
:10006000FB010008FB010008FB010008FB01000880
:10007000FB010008FB010008FB010008FB01000870
:10008000FB010008FB010008FB010008FB01000860
:10009000FB010008FB010008FB010008FB01000850
:1000A000FB010008FB010008FB010008FB01000840
:1000B000FB010008FB010008FB010008FB01000830
:1000C000FB010008FB010008FB010008FB01000820
:1000D000FB01000829990008FB010008FB0100084A
:1000E000FB010008FB010008FB010008FB01000800
:1000F000FB010008FB010008FB010008FB010008F0
:10010000FB010008FB010008FB010008FB010008DF
:10011000FB010008FB010008FB010008FB010008CF
:10012000FB010008FB010008FB010008FB010008BF
:1001300000F002F800F045F80AA090E8000C8244B4
:100140008344AAF10107DA4501D100F03AF8AFF291
:10015000090EBAE80F0013F0010F18BFFB1A43F0A5
:1001600001031847D8000100F8000100103A24BF2D
:1001700078C878C1FAD8520724BF30C830C144BF0C
:1001800004680C607047000000230024002500264E
:10019000103A28BF78C1FBD8520728BF30C148BFEA
:1001A0000B607047642900F00581782900F03E81DA
:1001B000732900F0DA82002070471FB51FBD10B50B
:1001C00010BD00F0F5FA1146FFF7F7FF09F00EFE3B
:1001D00000F013FB03B4FFF7F2FF03BC09F0EDFBE3
:1001E0000948804709480047FEE7FEE7FEE7FEE7CB
:1001F000FEE7FEE7FEE7FEE7FEE7FEE70448054907
:10020000054A064B70470000E581000831010008EF
:1002100000D3002000D9002000D5002000D5002008
:10022000EFF3108072B6704780F3108870471F4854
:100230004FF6FF710170002080F309881C480168A7
:1002400081F308881B48012101701B484FF0805141
:10025000016062B6FEE718484FF0805101607047B8
:1002600015484FF080510160704772B6EFF3098076
:1002700028B1203880E8F00F10490968086000B5FF
:100280000F4880475DF804EB0E480F490A7802706A
:100290000A480E490A680260106890E8F00F2030A2
:1002A00080F309884EF0F40E62B6704722ED00E04C
:1002B000E8000020AE00002004ED00E0B4000020C3
:1002C0001D6F0008A3000020A4000020BC00002037
:1002D000704700000FB4044910B503AA029800F05B
:1002E00049FA10BC5DF814FB380000200FB41CB5AF
:1002F000074B06AA7B4469460090059800F00BFA6C
:100300000020694600F01AFA1CBC5DF814FB0000DE
:100310004504000070B5044685690068C10601D532
:10032000302600E02026C00707D070BDD4E90121A7
:1003300030469047206A401C20626D1EF6D570BD85
:1003400070B5044685690078C00707D170BDD4E94F
:10035000012120209047206A401C20626D1EF6D5A6
:1003600070BD70B50C460546012A05D02878800678
:1003700000D5EA69002302E0012305E05B1C9342FB
:1003800002D2E05C0028F9D1A869E618C01AA86179
:10039000286A184428622846FFF7BCFF04E0D5E924
:1003A000012114F8010B9047B442F8D32846FFF717
:1003B000C7FF70BD2DE9F04106460024106875297D
:1003C000314616A510D0AFF30080002802DA404273
:1003D00013A507E031688A0701D512A502E0490795
:1003E00004D511A5012401E0AFF3008000210A2209
:1003F00006F1240709E0B0FBF2FCB0FBF2F302FBCC
:100400001C00303078541846491C0028F3D123468C
:100410002A463046BDE8F04100F01FB90000000058
:100420002D0000002B0000002000000070B50446E5
:100430000D4621461068AFF300802188090502D5DA
:100440000F4A7A4402E00E4A7A440E32002104F147
:10045000240305E000F00F060009965D5E54491C78
:100460000028F7D120780023000704D5702D02D092
:1004700009B1022311322046BDE8704000F0EDB80A
:100480003EFD00002DE9F05F894604464FF0000A6A
:10049000DFF824B1FB44C0F820A02046E16888477B
:1004A00000287DD0252806D0D4E901219047206A74
:1004B000401C2062F1E700255F462046E16888473E
:1004C0002028064607DB312E05D2B81910F8200C7B
:1004D00008B10543F1E7A80701D525F00405C4F8E4
:1004E0001CA00027C4F818A02A2E09D0304609F015
:1004F0005DFA38B304EB8708303EC8F8186019E09D
:1005000059F8041B204604EB87029161E168884793
:10051000012F064618D1E069002820DA25F02005D1
:100520001DE0D8F8180000EB800006EB40003038E2
:10053000C8F818002046E1688847064609F036FAF0
:100540000028EED1012F0AD02E2E08D12046E168D6
:1005500088477F1C0646022F45F02005C4DBA069B2
:10056000002803DA404245F00105A061E80701D008
:1005700025F01005A6B1A6F14100192802D82036B1
:1005800045F400654A463146204625604D46FFF752
:1005900009FE60B1012807D0ED1D25F0070000E03D
:1005A00007E000F1080978E705F1040975E730462E
:1005B0007AE7206ABDE8F09F14FD00004FF0013C8F
:1005C00050F8042B51F8043B9A4221D1A2EB0C03C2
:1005D000934313EACC1317D150F8042B51F8043B82
:1005E0009A4215D1A2EB0C03934313EACC130BD11F
:1005F00050F8042B51F8043B9A4209D1A2EB0C03AA
:10060000934313EACC13DBD04FF00000704700BFD8
:10061000D01A01BAB1FA81F101F0180122FA01F001
:10062000CB40C1F12001DBB2C0B2C01A2CFA01F3F9
:10063000D11A914311EAC311E6D170477047704750
:100640007047704710B500F0A7F8006810BD10B5EE
:10065000044600F0A1F8046010BD2DE9F0470D46F6
:1006600099469246044600F124080168880604D59C
:10067000E06921F01001216000E00120A84201DDC5
:10068000471B00E00027A1697A1902EB0900081A4C
:10069000A0612078C00602D42046FFF73BFE00266A
:1006A00008E0D4E901211AF806009047206A401CAE
:1006B000761C20624E45F4DB2078C0060AD5204621
:1006C000FFF728FE06E0D4E9012130209047206A98
:1006D000401C2062381EA7F10107F4DC07E0D4E9D2
:1006E000012118F805009047206A401C2062281E4E
:1006F000A5F10105F3DC2046FFF722FE2078000675
:1007000002D50220BDE8F0870120FBE701694A1C01
:1007100002610878704700B58FB0CDE90131002142
:10072000059105497944CDE9031011466846FFF764
:10073000A9FE0FB000BD0000E5FFFFFF0A6802F848
:10074000010B0A60704710B5436913B1AFF3008025
:1007500001E0FFF706FE012010BD127800F1240130
:100760000A7000224A700122EDE711684FF0FF3253
:10077000E9E70000074B70B50D467B44FFF7CBFF60
:100780000446284600F00CF810B14FF0FF3070BD61
:10079000204670BD5394000000487047A0D200204E
:1007A000007B00F08000704700487047A0D2002016
:1007B0007546FFF7F9FFAE4605006946534620F03F
:1007C0000700854618B020B5FFF718FDBDE82040AA
:1007D0004FF000064FF000074FF000084FF0000BFD
:1007E00021F00701AC46ACE8C009ACE8C009ACE8B0
:1007F000C009ACE8C0098D46704710B50446AFF398
:1008000000802046BDE81040FFF7E4BC10B502F0C0
:100810008BF810BD70B506460C46154608E030460C
:10082000721C96B200F007F804F8010B681E85B23E
:10083000002DF4D170BD70B50446002602F034F9E5
:100840002546E11704EB11610912A02202EB4101D8
:10085000C8B202F0F5F802F073F9E11704EB116188
:100860000912A4EB0121C8B202F0EAF802F068F91B
:1008700002F01AF9A12002F0E3F802F061F9002079
:1008800002F0A6F8064602F035F9304670BD70B5A4
:1008900005460C46164606E02178284600F009F881
:1008A000681C85B2641C301EA6F101018EB2F3D122
:1008B00070BD70B504460E4602F0F6F82546E11705
:1008C00004EB11610912A02202EB4101C8B202F04F
:1008D000B7F802F035F9E11704EB11610912A4EB46
:1008E0000121C8B202F0ACF802F02AF9304602F059
:1008F000A7F802F025F902F0FDF80A2009F082F8C5
:1009000070BD7047704770477047704770477047B9
:100910007047000000B585B000BF1048806940F006
:1009200008000E4988610846806900F008000090C0
:1009300000BF00BF881501900120029003900320A2
:10094000049001A9064800F0A9FE00224FF480712E
:10095000034801F04BF805B000BD00000010024054
:10096000000C014000BFFEE710B5052009F080F83B
:1009700010BD000010B500200F4908600F48006846
:1009800020F0F0000D4908600846006840F0300093
:100990000860FFF7E9FF00200949C1F8A401FFF74B
:1009A000E3FF012004490860FFF7DEFF002005494E
:1009B000C1F8840110BD000084812142041C014063
:1009C000008023420080214200B585B000BF1A4854
:1009D000806940F00800184988610846806900F085
:1009E0000800009000BF00BF00BF0846806940F0CB
:1009F000800088610846806900F08000009000BF98
:100A000000BF022001900120029003900320049077
:100A100001A90A4800F042FE4FF40070019001A9BC
:100A2000074800F03BFE0120064908600649C1F86E
:100A3000A40105B000BD000000100240000C014000
:100A4000001C0140848121420080234210B5002017
:100A50000F4908600F48006820F0F0000D49086059
:100A60000846006840F030000860FFF77DFF012075
:100A70000949C1F8A401FFF777FF01200449086084
:100A8000FFF772FF00200549C1F8840110BD000086
:100A900084812142041C01400080234200802142C5
:100AA00070B5054600241648006820F0F00014498F
:100AB00008600846006840F0800008601E2008F0CA
:100AC000D7FF002611E000200E490860FFF74CFF19
:100AD00001200D49C1F884016006040E0B4800682E
:100AE00008B1601CC4B2701CC6B2082EEBDB15B98D
:100AF000FFF7ACFF01E0FFF73DFF204670BD0000AF
:100B0000041C01408481214200802142248123422F
:100B100070B504461348006820F0F00011490860E1
:100B20000846006840F03000086000200E49086068
:100B3000FFF71AFF002511E0E0090C490860600684
:100B4000040E01200A49C1F88401FFF70DFF0020BF
:100B500005490860FFF708FF681CC5B2082DEBDBEC
:100B600070BD0000041C014084812142A481234205
:100B70000080214210B50F48006820F0F0000D49B8
:100B800008600846006840F03000086001200A490B
:100B900008600A49C1F884011E2008F069FF00209E
:100BA00005490860FFF7E0FE00200449C1F8840110
:100BB00010BD0000041C0140A4812342008021429A
:100BC00010B50D48006820F0F0000B490860084699
:100BD000006840F0300008600120084908601E20CD
:100BE00008F046FF00200649C1F8A401FFF7BCFE4B
:100BF00001200449086010BD041C01408481214289
:100C000000802342A481234210B5002413480068C9
:100C100020F0F000114908600846006840F08000AC
:100C2000086001200E4908600E49C1F88401FFF7F1
:100C30009BFE09E0601CC4B2FA2C03DDFFF7C0FF85
:100C4000012010BDFFF790FE05488038006800289D
:100C5000F0D10549086000BFF3E70000041C014023
:100C6000A4812342008021428481214270470000F8
:100C700070B50446B3F5804F13D1D1E9000540EAC1
:100C800005108D6840EA05208D6928438D8940EA6A
:100C9000054054F82250064E3540284344F82200BF
:100CA00003E06FF0704044F82200002070BD0000A7
:100CB0000000F0CF30B50246086852F8200020F05E
:100CC00001000C6842F824008868082801D14023FC
:100CD00000E00023486818438C682043CC68204318
:100CE0000C6920434C6920438C692043CC69204324
:100CF0000C6A20434C6A20438C6A2043CC6A204310
:100D00000C6B20434C6B20430C6852F82440044D7C
:100D10002C4020430C6842F82400002030BD000025
:100D20008000F0FF10B50346D1E9000440EA04104A
:100D30008C6840EA04208C8940EA0444088A401EFA
:100D400044EA0054087D801E44EA00608C69204318
:100D5000541C53F8244004F040442043541C43F8EE
:100D60002400002010BD000000B587B000BF33484C
:100D7000806940F08000314988610846806900F050
:100D80008000019000BF00BFC814029001200390B2
:100D900004900320059002A9294800F07FFC4FF43D
:100DA000806002900020039002A9254800F076FCA4
:100DB000FFF70AFE002023490860142008F022FEF5
:100DC00001202149C1F8AC01322008F01BFE0020AF
:100DD0008DF81800012206A900F038F9012206A9B1
:100DE000A42000F033F916208DF81800012206A97E
:100DF000802000F02BF90C208DF81800012206A9A4
:100E0000882000F023F9022206A9A12000F024F88E
:100E10009DF8180030280FD19DF8190003280BD138
:100E20009DF819009DF8182000EB022107A0FFF79C
:100E300051FA002007B000BD0120FBE7001002407E
:100E4000001C0140AC8123420080234243545020C7
:100E500049443A25780D0A002DE9F04106460F462F
:100E60001546FFF787FE7020FFF752FEFFF7CCFE16
:100E7000F0B2FFF74DFEFFF7C7FEFFF77BFE7120D4
:100E8000FFF746FEFFF7C0FE00240BE0691EA142FB
:100E900001D0012100E000210846FFF701FE38558E
:100EA000601CC4B2AC42F1DBFFF78AFEBDE8F08102
:100EB00071B581B00024002661480078401C60496B
:100EC0000870084600780A2190FBF1F201FB12003D
:100ED00018B15B4800780A2867DA012201A90220CC
:100EE000FFF7BAFF9DF8040000F00F0000287ED045
:100EF0009DF8040000F00F00062878DA9DF8040041
:100F000000F00F01FF208840C5B2E843C0B240F0B6
:100F1000C0004C4981F8200000245AE0494890F86C
:100F200020000121A1400840F0B3474931F81400E6
:100F300004226946FFF790FF424890F8300000F025
:100F40000100C0B19DF801009DF8001001F00F01F3
:100F500000EB01203B49163121F814009DF80300F5
:100F60009DF8021001F00F0100EB012135480C3013
:100F700020F814101DE09DF801009DF8001001F00C
:100F80000F0100EB0120C0F5F07081B22D480C304C
:100F900020F814109DF803009DF8021001F00F01D5
:100FA00000EB0121274801E011E020E0163020F895
:100FB00014109DF8000000F0F000802807D00021F8
:100FC0002048163020F814100A3820F81410601C3D
:100FD000C4B2052CA2DB01261A48808920B9194821
:100FE000C08A08B9002001900020154908709DF8BA
:100FF000040000F01F00D0B9124890F8200000F063
:10100000800040B10F4890F8200020F080000D498A
:1010100081F820000BE04FF6FF700A498881C882F2
:10102000084690F8200000F0E00081F82000044815
:101030000078F02802DD0A200149087030467CBDA6
:10104000480000204C00002092FF00082DE9F041EC
:1010500005460E4617464FF00008FFF78BFD70203F
:10106000FFF756FDFFF7D0FDE8B2FFF751FDFFF7A0
:10107000CBFD00240BE0305DFFF74AFDFFF7C4FD18
:101080008046B8F1000F00D003E0601CC4B2BC423F
:10109000F1DB00BFFFF794FD4046BDE8F0810000A2
:1010A00000B587B000BF3E48806940F080003C49F1
:1010B00088610846806900F08000009000BF00BF92
:1010C000C81401900120029003900320049001A90C
:1010D000344800F0E3FA4FF4806001900020029061
:1010E00001A9304800F0DAFAFFF76EFC00202E4923
:1010F00008600A2008F086FC01202C49C1F8AC01E8
:101100000A2008F07FFC4FF48060019002200390D9
:101110000020029001A9234800F0C0FA642008F0E2
:1011200071FC042205A948F2401000F055F8002097
:101130008DF8180005A91EA0FFF7CCF81FA105A87F
:10114000FFF73CFA48BB02208DF81400012205A9E4
:1011500048F2400000F0A0F9012205A948F247003A
:1011600000F03AF89DF81400602807DA9DF8141092
:1011700014A0FFF7AFF8012000F060F90A2008F092
:1011800041FC00208DF81400012205A948F240001E
:1011900000F082F9002007B000BD0020FBE700004E
:1011A00000100240001C0140AC8123420080234219
:1011B0004354502049443A25730D0A0039313437DD
:1011C0000000000044656661756C74205665723AD3
:1011D00025640D0A000000002DE9F04105460F4688
:1011E0001646FFF7C7FC2820FFF792FCFFF70CFD1F
:1011F0002812FFF78DFCFFF707FDE8B2FFF788FC28
:10120000FFF702FDFFF7B6FC2920FFF781FCFFF78F
:10121000FBFC00240BE0711EA14201D0012100E083
:1012200000210846FFF73CFC3855601CC4B2B442AC
:10123000F1DBFFF7C5FCBDE8F081000071B583B0BC
:101240000024002679480078401C78490870084638
:1012500000780A2190FBF1F201FB120018B17348EB
:1012600000780A287EDA012203A948F24E10FFF71F
:10127000B3FF9DF80C0000F0800068B19DF80C00F1
:1012800000F00F00062807DA00200190012201A9D2
:1012900048F24E1000F000F99DF80C0000F00F002D
:1012A00000285FD09DF80C0000F00F000628D9DA66
:1012B0009DF80C0000F00F01FF208840C0B20190A3
:1012C0005B4890F820509DF80400C043C0B240F045
:1012D000C000574981F82000084681898182C18A6F
:1012E000C183002446E0524890F820000121A1402B
:1012F000084020B34F4931F81400042202A9FFF737
:101300006BFF4B4890F8300000F00100C0B19DF831
:1013100008009DF8091000EB012081B24448163006
:1013200020F814109DF80A009DF80B1000EB012026
:10133000C0F5487081B23E480C3020F8141017E018
:101340009DF808009DF8091000EB012081B2384893
:101350000C3020F814109DF80A009DF80B1000EBDB
:10136000012000E036E081B23148163020F8141038
:10137000601CC4B2052CB6DB01262D4880892E499D
:101380000988884205DC2A48C08A2B494988884256
:101390001DDD9DF80C0000F00F0001280ADD244837
:1013A000C089234988810846008BC88200201F49D4
:1013B00008700FE01E48808A1D4988810846C08B4E
:1013C000C88280200390084680F8205002E0002068
:1013D000164908709DF80C0000F08F0080281AD183
:1013E000134890F8200000F0800040B1104890F8B9
:1013F000200020F080000E4981F820000BE04FF61D
:10140000FF700B498881C882084690F8200000F0E0
:10141000E00081F8200005480078F02802DD0A206D
:1014200002490870304604B070BD00004900002039
:101430004C000020540001085C12002038B505461D
:10144000002400208DF800008DF8015000BF09E055
:101450009DF800000F49095D0844C0B28DF80000F6
:10146000601CC4B2B82CF3D39DF80000C043401CEC
:10147000C0B28DF80000B822064948F2470000F0DB
:101480000BF80222694648F2FF0000F005F8002040
:1014900038BD00009CFF00082DE9F04104460E46CF
:1014A00017464FF00008FFF765FB2820FFF730FBD9
:1014B000FFF7AAFB2012FFF72BFBFFF7A5FBE0B21B
:1014C000FFF726FBFFF7A0FB00250BE0705DFFF7A1
:1014D0001FFBFFF799FB8046B8F1000F00D003E037
:1014E000681CC5B2BD42F1DB00BFFFF769FB404697
:1014F000BDE8F08170B50446002594F8210002286B
:1015000003D00420A0630125C1E02068006820F01A
:101510000E00216808602068006820F00100216842
:1015200008605C492068884252D95A497839206855
:10153000884201D1012047E0564964392068884239
:1015400001D1102040E0534950392068884201D130
:10155000801539E04F493C392068884201D1801418
:1015600032E04C4928392068884202D14FF480305B
:101570002AE0484914392068884202D14FF480108B
:1015800022E044492068884201D140041CE04249DD
:101590002068884201D1012016E03F4914312068BB
:1015A000884201D110200FE03B4928312068884251
:1015B00001D1801508E038493C312068884201D1CA
:1015C000801401E04FF480303349091F086051E076
:1015D000304978392068884201D1012047E02D49FF
:1015E00064392068884201D1102040E029495039EF
:1015F0002068884201D1801539E026493C392068AD
:10160000884201D1801432E022492839206888427A
:1016100002D14FF480302AE01E49143920688842F4
:1016200002D14FF4801022E01A492068884201D18B
:1016300040041CE018492068884201D1012016E0CE
:10164000154914312068884201D110200FE0124959
:1016500028312068884201D1801508E00E493C31CC
:101660002068884201D1801401E04FF4803009499C
:1016700080394860012084F8210000BF002084F8F0
:10168000200000BF606B10B12046616B8847284680
:1016900070BD000080000240080402402DE9F847B8
:1016A000024600239C467BE14FF0010808FA03F450
:1016B000D1F8008008EA0400A0427DD1DFF8F4A24E
:1016C000D1F80480A8EB0A09D0453AD014DCB8F16F
:1016D000030F50D009DCB8F1000F31D0B8F1010F81
:1016E0001CD0B8F1020F49D120E0B8F1110F18D089
:1016F000B8F1120F42D11EE0B9F5881F25D006DCE3
:10170000B9F5803F20D0B9F5801F37D11AE0B9F57F
:10171000001F18D0B9F5041F30D117E0D1F80CC064
:101720002DE0D1F80C8008F1040C28E0D1F80C80F1
:1017300008F1080C23E0D1F80C8008F10C0C1EE035
:1017400000BF00BF00BF00BF00BF00BFD1F80880CE
:10175000B8F1000F02D14FF0040C0BE0D1F8088073
:10176000B8F1010F03D14FF0080C146102E04FF003
:10177000080C546103E04FF0000C00E000BF00BF14
:10178000FF2801D8904601E002F104084646FF28F0
:1017900002D84FEA830803E0A3F108084FEA88085B
:1017A0004746D6F800804FF00F0909FA07F928EAF2
:1017B00009080CFA07F900E07AE048EA0908C6F8D7
:1017C0000080D1F8048008F08058B8F1805F6FD1B4
:1017D00000BFDFF8E481D8F8188048F00108DFF88E
:1017E000D891C9F81880C846D8F8188008F00108C0
:1017F000CDF8008000BF00BF4FEAB9384FEA930927
:1018000058F829504FEA83784FEA18794FF00F08BB
:1018100008FA09F825EA0805DFF8A081424502D157
:101820004FF0000824E0DFF89881424502D14FF0E4
:1018300001081DE0DFF88C81424502D14FF002081B
:1018400016E0DFF88481424502D14FF003080FE033
:10185000DFF87881424502D14FF0040808E0DFF854
:101860007081424502D14FF0050801E04FF00608B3
:101870004FEA83794FEA197908FA09F848EA050529
:10188000DFF850814FEA930948F82950D1F80480D5
:1018900008F48038B8F5803F0BD1DFF83C81D8F8E8
:1018A000008048EA0008DFF83091C9F800800AE0BB
:1018B00075E0DFF82481D8F8008028EA0008DFF816
:1018C0001891C9F80080D1F8048008F40038B8F500
:1018D000003F0ED1DFF8008108F10408D8F800803D
:1018E00048EA0008DFF8F09009F10409C9F800801F
:1018F0000DE0DFF8E48008F10408D8F8008028EA59
:101900000008DFF8D49009F10409C9F80080D1F883
:10191000048008F48018B8F5801F0ED1DFF8B88075
:1019200008F10808D8F8008048EA0008DFF8A89015
:1019300009F10809C9F800800DE0DFF89C8008F182
:101940000808D8F8008028EA0008DFF88C9009F130
:101950000809C9F80080D1F8048008F40018B8F527
:10196000001F0ED1DFF8708008F10C08D8F8008055
:1019700048EA0008DFF8609009F10C09C9F8008016
:101980000DE0DFF8548008F10C08D8F8008028EA50
:101990000008DFF8449009F10C09C9F800805B1CCD
:1019A000D1F8008028FA03F8B8F1000F7FF47CAE7C
:1019B000BDE8F88700001110001002400008014047
:1019C000000C0140001001400014014000180140CB
:1019D000001C0140080001400004014002469368D9
:1019E0000B400BB1012000E0002070470AB10161FB
:1019F00001E00B0403617047014800687047000074
:101A00002400002010B50848006840F01000064986
:101A10000860052000F080F80F2000F007F800F0C3
:101A20002BF8002010BD00000020024070B50446D5
:101A30000E4800784FF47A71B1FBF0F00C49096858
:101A4000B1FBF0F5284600F085FC08B1012070BD1F
:101A5000102C07D200222146501E00F01EF8054827
:101A6000046001E00120F2E70020F0E72C000020F4
:101A7000200000202800002070470146084600286A
:101A800009DB00F01F0301229A4043099B0003F188
:101A9000E023C3F8002100BF70472DE9F05F8046C6
:101AA0000D461646002707F065FF074639462A46C9
:101AB000334601F00700C0F1070ABAF1040F02D95A
:101AC0004FF0040A01E0C0F1070AD14600F1040A10
:101AD000BAF1070F02D24FF0000A01E0A0F1030AA9
:101AE000D4464FF0010A0AFA09FAAAF1010A0AEAF1
:101AF000020A0AFA0CFA4FF0010B0BFA0CFBABF1DD
:101B0000010B0BEA030B4AEA0B042146404607F09F
:101B100039FFBDE8F09F000000BF00F00702064B50
:101B200019684FF6FF031940044B0B4343EA0221A7
:101B3000014B196000BF70470CED00E00000FA0592
:101B400070B504460D460CB9012070BD5A480068B6
:101B500000F00700A8420ED25748006820F00700A6
:101B60002843554908600846006800F00700A8426D
:101B700001D00120E9E7207800F0020002281DD101
:101B8000207800F00400042805D14C48406840F457
:101B9000E0604A494860207800F00800082805D134
:101BA0004648406840F460504449486043484068B3
:101BB00020F0F000A168084340494860207800F018
:101BC000010078B36068012806D13C48006800F441
:101BD000003090B90120B8E76068022806D1374884
:101BE000006800F0007040B90120AEE7334800689B
:101BF00000F0020008B90120A7E73048406820F053
:101C00000300616808432D494860FFF7F5FE06466A
:101C100009E0FFF7F1FE801B41F28831884202D9CA
:101C2000032092E707E02548406800F00C00616857
:101C3000B0EB810FEDD12048006800F00700A8420A
:101C40000ED91D48006820F0070028431A49086093
:101C50000846006800F00700A84201D0012074E7A0
:101C6000207800F00400042807D11448406820F4CC
:101C7000E060E168084311494860207800F00800FE
:101C8000082808D10D48406820F46050216940EAD6
:101C9000C1000A49486000F03FF808494968C1F3AB
:101CA0000311074A515CC8400649086006480068AD
:101CB000FFF7BCFE002048E7002002400010024071
:101CC0003AB80008200000202800002001480068E1
:101CD000704700002000002000B5FFF7F7FF04491F
:101CE0004968C1F30221034A515CC84000BD0000AD
:101CF000001002404AB8000800B5FFF7E7FF0449AA
:101D00004968C1F3C221034A515CC84000BD0000CC
:101D1000001002404AB80008F0B585B00FF26C0C14
:101D20009CE8E01001A8A0E8E0101CA52D68009533
:101D300000210022002300240020194D696801F0D1
:101D40000C05F5B1042D02D0082D19D101E015487C
:101D500019E001ADC1F38346AC5D01F4803555B1A6
:101D60000F4D6D68C5F340451DF805200D4D6543C9
:101D7000B5FBF2F302E00C4D04FB05F3184602E05C
:101D800000BF084800BF00BF05B0F0BD0203040556
:101D9000060708090A0B0C0D0E0F101001020000B7
:101DA0000010024000127A0000093D00F8B5044618
:101DB0000CB90120F8BD207800F00100002878D08F
:101DC000F848406800F00C0004280CD0F548406842
:101DD00000F00C00082811D1F248406800F480306F
:101DE000B0F5803F0AD1EF48006800F400300028C9
:101DF0005FD0606800285CD10120DBE700BF60682D
:101E0000B0F5803F06D1E748006840F48030E549EE
:101E1000086028E0606858B9E248006820F4803023
:101E2000E04908600846006820F4802008601AE055
:101E30006068B0F5A02F0BD1DA48006840F480202C
:101E4000D84908600846006840F4803008600AE01D
:101E5000D448006820F48030D24908600846006801
:101E600020F48020086000BF606888B1FFF7C4FDDF
:101E7000054606E0FFF7C0FD401B642801D903209A
:101E800098E7C848006800F400300028F2D010E05D
:101E9000FFF7B2FD054606E0FFF7AEFD401B6428E4
:101EA00001D9032086E7BF48006800F4003000280D
:101EB000F2D1207800F00200022857D1B9484068DA
:101EC00000F00C0050B1B748406800F00C00082842
:101ED00018D1B448406800F4803098B9B14800681F
:101EE00000F0020020B12069012801D0012061E743
:101EF000AC48006820F0F800616940EAC100A949D7
:101F0000086033E02069E8B10120A7490860FFF7C5
:101F100073FD054606E0FFF76FFD401B022801D95F
:101F2000032047E79F48006800F002000028F2D035
:101F30009C48006820F0F800616940EAC1009949B6
:101F4000086013E0002098490860FFF755FD05463A
:101F500006E0FFF751FD401B022801D9032029E7C5
:101F60009048006800F002000028F2D1207800F0CC
:101F7000080008282DD1A069B8B101208B4908605C
:101F8000FFF73AFD054606E0FFF736FD401B022845
:101F900001D903200EE78348406A00F002000028C0
:101FA000F2D0012006F0D0F813E000207F4908604D
:101FB000FFF722FD054606E0FFF71EFD401B022845
:101FC00001D90320F6E67748406A00F002000028B5
:101FD000F2D1207800F00400042873D10027714862
:101FE000C06900F0805070B900BF6E48C06940F011
:101FF00080506C49C8610846C06900F0805000906C
:1020000000BF00BF01276A48006800F48070B0B9C3
:102010006748006840F4807065490860FFF7ECFC91
:10202000054606E0FFF7E8FC401B642801D90320C1
:10203000C0E65F48006800F480700028F2D000BF5E
:10204000E068012806D15748006A40F00100554970
:10205000086227E0E06858B95248006A20F00100A1
:10206000504908620846006A20F00400086219E03E
:10207000E06805280BD14B48006A40F0040049494C
:1020800008620846006A40F0010008620AE045481C
:10209000006A20F00100434908620846006A20F007
:1020A0000400086200BFE068A0B1FFF7A5FC054688
:1020B00009E0FFF7A1FC401B41F28831884202D9B8
:1020C000032077E622E03748006A00F0020000288B
:1020D000EFD012E0FFF790FC054608E0FFF78CFC1C
:1020E000401B41F28831884201D9032062E62D4825
:1020F000006A00F002000028F0D1012F05D1294824
:10210000C06920F080502749C86100BFE069C8B3AA
:102110002448406800F00C00082860D0E0690228DC
:1021200048D1002020490866FFF766FC054606E016
:10213000FFF762FC401B022801D903203AE6194848
:10214000006800F000700028F2D1206AB0F5803FEE
:1021500007D11448406820F40030A16808431149B1
:102160004860D4E9080108430E49496821F4741114
:1021700008430C49486001200B490866FFF73CFC06
:10218000054607E03DE0FFF737FC401B022801D978
:1021900003200FE60348006800F000700028F2D02A
:1021A0002FE0000000100240000042428004424242
:1021B00000700040002014490866FFF71DFC05462A
:1021C00006E0FFF719FC401B022801D90320F1E5C6
:1021D0000E48006800F000700028F2D111E0E069BC
:1021E000012800D1E6E50948466806F48031206AF6
:1021F000814204D106F47011606A814201D001204D
:10220000D8E50020D6E50000000042420010024060
:1022100070B504460E4615460CB9012070BD94F801
:10222000410028B9002084F84000204600F020F842
:1022300004F108012068FEF73DFD3146A2682068E0
:10224000FEF770FD2946236BD4E90102FEF710FD6D
:10225000A168206850F8210040F00100A2682168C0
:1022600041F82200012084F841000020D6E7000058
:1022700010B586B0044600BF2848406940F480701D
:10228000264948610846406900F48070019000BF0B
:1022900000BF00BF0846806940F020008861084602
:1022A000806900F02000019000BF00BF00BF084619
:1022B000806940F0400088610846806900F0400075
:1022C000019000BF00BF00BF0846806940F48070E5
:1022D00088610846806900F48070019000BF00BFEB
:1022E0004CF23370029002200390012004900320EE
:1022F000059002A90A48FFF7D1F94FF680700290C5
:1023000002A90848FFF7CAF941F20100029002A9A8
:102310000548FFF7C3F906B010BD000000100240E9
:10232000001401400018014000200140042808D199
:102330004FF0E021096941F004014FF0E022116102
:1023400007E04FF0E021096921F004014FF0E0229D
:102350001161704770B504462546681EB0F1807F54
:1023600001D301200FE0681E4FF0E02148610F21EA
:102370004FF0FF3007F006FB00204FF0E0218861AE
:1023800007200861002070BD2DE9F04104460D468C
:10239000164600BF94F83C00012802D10220BDE897
:1023A000F081012084F83C0000BF022084F83D0049
:1023B00096B9EB68D5E90012206805F0C3FF2068E4
:1023C000806920F00C002168886120688069A96814
:1023D0000843216888613DE0042E13D1EB68D5E9FC
:1023E0000012206805F0ECFF2068806920F440604E
:1023F0002168886120688069A96840EA0120216815
:10240000886127E0082E12D1EB68D5E90012206818
:1024100005F0F3FF2068C06920F00C002168C86156
:102420002068C069A96808432168C86112E0EB68A8
:10243000D5E90012206805F0FCFF2068C06920F48F
:1024400040602168C8612068C069A96840EA01202D
:102450002168C861012084F83D0000BF002084F895
:102460003C0000BF00BF9AE710B504460CB901203C
:1024700010BD94F83D0028B9002084F83C002046A7
:1024800000F00CF8022084F83D00211D206805F0C2
:10249000F9FE012084F83D000020E9E710B586B080
:1024A000044600BF1348C06940F008001149C861E4
:1024B0000846C06900F00800019000BF00BF00BFDF
:1024C0000846806940F0040088610846806900F091
:1024D0000400019000BF00BF022002900020039082
:1024E00004900320059002A90348FFF7D7F806B02F
:1024F00010BD0000001002400008014070B5044605
:102500000D4601222946206805F00AFF20688068F0
:1025100000F00706062E05D02068006840F0010094
:1025200021680860002070BD0246002031B10429F6
:1025300007D0082908D00C290CD108E01368586B83
:1025400009E01368986B06E01368D86B03E0136822
:10255000186C00E000BF00BF7047704701460022C2
:10256000002391F8392091F83A3042EA030070478D
:102570002DE9F0470446206805682068C668206891
:1025800047694FF00008C14605F00F08B8F1000F89
:102590000AD105F0200038B106F0200020B1204615
:1025A00007F06AF8BDE8F087B8F1000F6DD007F0CA
:1025B000010018B906F49070002866D005F00100FB
:1025C00030B106F4807018B1E06B40F00100E063B8
:1025D00005F0040030B107F0010018B1E06B40F0E5
:1025E0000200E06305F0020030B107F0010018B10D
:1025F000E06B40F00400E06305F0080030B107F044
:10260000010018B1E06B40F00800E063E06B68B3D4
:1026100005F0200028B106F0200010B1204607F098
:102620002BF820684069C0F38019E06B00F00800C7
:1026300010B9B9F1000F22D0204606F0FDFF206846
:10264000406900F04000B0B12068406920F04000CF
:1026500021684861606B50B11748616B4863606BDB
:10266000FEF748FF10B1606B416B88470CE02046D5
:10267000FFF773FF08E02046FFF76FFF04E02046F6
:10268000FFF76BFF0020E0638CE705F0800030B1BE
:1026900006F0800018B1204607F012F982E705F035
:1026A000400030B106F0400018B1204606F0D4FFDB
:1026B00078E700BF76E700002596000810B50446CD
:1026C0000CB9012010BDA06900B100E000BF94F872
:1026D000390028B9002084F83800204600F028F896
:1026E000242084F839002068C06820F40050216854
:1026F000C860204607F014F82068006920F4904074
:10270000216808612068406920F02A00216848613A
:102710002068C06840F400502168C8600020E06371
:10272000202084F8390084F83A000020CAE700002D
:1027300010B586B0044625492068884244D100BFC0
:102740002348806940F00400214988610846806977
:1027500000F00400019000BF00BF00BF0846806980
:1027600040F4804088610846806900F48040019010
:1027700000BF00BF00BF0846806940F001008861CB
:102780000846806900F00100019000BF00BF4815B5
:10279000029002200390012004900320059002A9DA
:1027A0000C48FEF77BFF4FF48060029000200390FE
:1027B00002A90848FEF772FF2520FFF75EF9032201
:1027C00011462520FFF769F906B010BD0038014019
:1027D000001002400008014010B5034693F83A008B
:1027E00020282FD101B10AB9012010BD00BF93F8F4
:1027F0003800012801D10220F7E7012083F83800D2
:1028000000BF99629A85DA850020D863222083F878
:102810003A0000BF002083F8380000BF1868C06885
:1028200040F480701C68E0601868406940F0010066
:102830001C6860611868C06840F020001C68E06097
:102840000020D2E70220D0E71D4A0168914236D12C
:102850001C49098801F4004189BB1A49098801F41F
:10286000804171B1184909780A2903D00021154A1D
:10287000118024E01349098841F40041114A118074
:102880001DE0114909780D2906D10E49098841F446
:1028900080410C4A118012E00B490978094A1288DC
:1028A000C2F30D02094B995406490988491C054A8F
:1028B000118011460988C72901DD00211180704768
:1028C000003801403C0000203E0000200C11002098
:1028D000704700BFFEE7000010B500200F490860F8
:1028E0000F48006820F070400D49086008460068F5
:1028F00040F04050086000200A49C1F89C010220C5
:1029000007F0B6F8012005490860022007F0B0F88A
:1029100000200449C1F8980110BD000098812142AF
:10292000000C01400080214200B585B000BF104876
:10293000806940F008000E4988610846806900F00F
:102940000800009000BF00BFC0200190012002904D
:1029500003900320049001A90648FEF79FFE012082
:10296000054908600549C1F8980105B000BD00009F
:1029700000100240000C01409C8121420080214255
:1029800010B500200F4908600F48006820F0704023
:102990000D4908600846006840F04050086001207A
:1029A0000A49C1F89C01022007F062F8012005499C
:1029B0000860022007F05CF800200449C1F8980183
:1029C00010BD000098812142000C0140008021428E
:1029D00070B5054600241748006820F0704015497E
:1029E00008600846006840F000400860002616E0D5
:1029F000002011490860022007F03AF801200F4931
:102A0000C1F898016006040E0B487C38006808B1D4
:102A1000601CC4B2012007F02BF8701CC6B2082E4F
:102A2000E6DB15B9FFF7ACFF01E0FFF755FF2046E5
:102A300070BD0000000C01409881214200802142BD
:102A400070B504461548006820F0704013490860CE
:102A50000846006840F040500860002010490860B7
:102A6000002517E0E0090E49091D08606006040E04
:102A7000022006F0FDFF01200A49C1F8980102205A
:102A800006F0F6FF002006490860022006F0F0FF7D
:102A9000681CC5B2082DE5DB70BD0000000C0140CC
:102AA000988121420080214210B50F48006820F033
:102AB00070400D4908600846006840F040500860CA
:102AC00001200A4908600A49C1F89801042006F06B
:102AD000CFFF002005490860042006F0C9FF002050
:102AE0000349C1F8980110BD000C01409C812142AE
:102AF0000080214210B50F48006820F070400D4959
:102B000008600846006840F04050086000200A490C
:102B100008600A49C1F89C01042006F0A9FF0120C1
:102B2000054908600549C1F89C01042006F0A0FF92
:102B300010BD0000000C014098812142008021421C
:102B400010B500241448006820F070401249086055
:102B50000846006840F00040086001200F49086006
:102B600006F086FF01200E49C1F8980106F080FFAB
:102B700007E0601CC4B2FA2C03DDFFF7BBFF0120A5
:102B800010BD0648803800680028F2D10349091FAB
:102B9000086000BFF4E70000000C01409C81214266
:102BA0000080214200B585B000BF1A48806940F01E
:102BB0000400184988610846806900F0040000900C
:102BC00000BF00BF00BF0846806940F04000886138
:102BD0000846806900F04000009000BF00BF01205F
:102BE000019000200290022003900320049001A98C
:102BF0000948FEF753FD1C2001900020029001209F
:102C000003900320049001A90448FEF747FD05B096
:102C100000BD000000100240000801400018014003
:102C200010B50446012C01D12C4908702B480078BE
:102C3000002837D010212A48FEF7D0FE78B10821AD
:102C40002748FEF7CBFE50B104212548FEF7C6FE0B
:102C500028B101212348FEF7C1FE012822D10A2014
:102C600006F0D0FE00201D49087010211C48FEF718
:102C7000B5FE08B9012010BD08211948FEF7AEFEC7
:102C800008B90220F7E704211548FEF7A7FE08B9A6
:102C90000320F0E701211348FEF7A0FE01281BD115
:102CA0000420E8E710210E48FEF798FE012813D112
:102CB00008210B48FEF792FE01280DD10421084897
:102CC000FEF78CFE012807D101210648FEF786FE9B
:102CD00010B90120014908700020CCE73F00002016
:102CE000001801400008014070B50446002609485C
:102CF0000588408845430021084602F0D3FD02F0D4
:102D0000FFFF00BF02E004490C80761CAE42FAD3FC
:102D100070BD00005C1200200008006C10B5044675
:102D200055488471002C51D1F020534908804FF44C
:102D3000A07048800846808849F24131884205D019
:102D40004D48808845F21031884214D12C204A49E0
:102D500008812A2048812B2088810846808845F2F6
:102D60001031884206D14FF4A070434908804FF4D7
:102D7000F07048807BE04048808845F210518842DE
:102D800010D14FF430503C4908814FF4285048810D
:102D90004FF42C5088814FF4F07008804FF4487045
:102DA000488064E03448808841F6631188425ED1EF
:102DB0002C20314908812B2048812A2088814FF41A
:102DC000F07008804FF44870488050E04FF4A070D5
:102DD00029490880F02048800846808849F241311E
:102DE000884205D02448808845F21031884207D1B6
:102DF0002C20214908812A2048812B20888129E024
:102E00001D48808845F21051884210D14FF430504F
:102E1000194908814FF4285048814FF42C5088817B
:102E20004FF4487008804FF4F070488012E0124868
:102E3000808841F6631188420CD12C200E4908810C
:102E40002A2048812B2088814FF4487008804FF455
:102E5000F07048800848808845F21031884206D1D9
:102E60004FF4F070044908804FF4A07048800020AF
:102E700002F0DEFB10BD00005C1200202DE9FF4FC8
:102E800084B081468A460020039002900698A0EB09
:102E900009050798A0EB0A06CDF80490CDF800A02C
:102EA000002D01DD012705E00DB9002702E04FF0FC
:102EB000FF376D42002E02DD4FF0010806E016B923
:102EC0004FF0000802E04FF0FF387642B54201DDD6
:102ED0002C4600E034464FF0000B21E0009A91B2FE
:102EE000019A90B200F022F80398284403900298C7
:102EF000304402900398A04205DD0398001B039024
:102F00000198384401900298A04205DD0298001B08
:102F100002900098404400900BF101001FFA80FBE2
:102F2000601C8345DADD08B0BDE8F08F30B504469B
:102F30000D462946204602F0B5FC02F0E1FE0248AB
:102F400000880249088030BD400000200008006C65
:102F50002DE9F04306460F469046002445460320DF
:102F6000A0EB48093CE07A1B91B2321990B2FFF70E
:102F7000DDFF3A1B91B2721990B2FFF7D7FF3A19F1
:102F800091B2721990B2FFF7D1FF7A1991B232194A
:102F900090B2FFF7CBFF7A1991B2321B90B2FFF7D4
:102FA000C5FF3A1991B2721B90B2FFF7BFFF7A1BAF
:102FB00091B2321B90B2FFF7B9FF3A1B91B2721B6C
:102FC00090B2FFF7B3FF641CB9F1000F03DAA00061
:102FD000801D814404E0601B80000A3081446D1E26
:102FE000AC42C0DDBDE8F08330B504460D463E4836
:102FF000808849F24131884205D03B48808845F2BB
:103000001031884214D13849488902F06DFE2012EF
:1030100002F05EFEE0B202F05BFE3349888902F006
:1030200063FE281202F054FEE8B202F051FE54E0B2
:103030002D48808845F21051884220D12A4948897C
:1030400002F052FE201202F043FE27494989491C32
:1030500088B202F049FEE0B202F03AFE22498889C5
:1030600002F042FE281202F033FE1F498989491CF2
:1030700088B202F039FEE8B202F02AFE2DE01A48CA
:10308000808841F66311884227D11748807920B99A
:1030900015480088401E001B84B21349488902F07D
:1030A00023FE201202F014FEE0B202F011FE201204
:1030B00002F00EFEE0B202F00BFE0B49888902F02E
:1030C00013FE281202F004FEE8B202F001FE2812FC
:1030D00002F0FEFDE8B202F0FBFD0348008903495F
:1030E0000880891C0A8030BD5C120020FE07006C3D
:1030F0002DE9F04F05460E4617469846DDF824A008
:103100004FF0000B781B401C1FFA80FB344613E085
:103110002146284602F0C6FB02F0F2FD4FF00009FE
:1031200006E00749A1F800A009F101001FFA80F9A3
:10313000D945F6DB601C84B24445E9DDBDE8F08F7B
:103140000008006C00B593B000BFFE48806940F0F5
:103150000800FC4988610846806900F0080000907A
:1031600000BF00BF01200F9010901190032012901B
:103170000FA9F548FEF792FA4FF02040F349086096
:10318000F3484860062088600021F048C160016172
:103190001021416100218161C16141624FF4805180
:1031A00081620021C1624FF48041016300214163CB
:1031B000816306200890002009901A200A900020C0
:1031C0000E900490032001900020029006200390AE
:1031D0000020079001AA08A9DC48FFF719F832205F
:1031E00006F010FCD32002F07FFD02F0EDF9D94982
:1031F000888002F0E9F9D749888002F0E5F9D549DD
:103200008880084680884FF6FF7101EA0020D14986
:10321000888002F0D9F9CF4989880843CD49888050
:103220000846808849F24131884278D0D42002F0A3
:103230005BFD02F0C9F9C749888002F0C5F9C549AC
:10324000888002F0C1F9C3498880084680884FF61B
:10325000FF7101EA0020BF49888002F0B5F9BD493D
:1032600089880843BB4988800846808845F2103128
:10327000884254D04FF45A4002F036FD02F0A4F9CF
:10328000B44988804FF45B4002F02EFD02F09CF9B7
:10329000B0498880084680884FF6FF7101EA002017
:1032A000AC4988804FF45C4002F01EFD02F08CF9BE
:1032B000A84989880843A749888008468088B0F5CE
:1032C000004F02D145F210508880A248808845F214
:1032D0001051884223D0A12002F006FD02F074F9BB
:1032E0009C49888002F070F99A4988800846808855
:1032F0004FF6FF7101EA00209649888002F064F9D8
:10330000944989880843934988800846808845F213
:103310006171884203D141F663108E4988808D48DF
:1033200081888DA0FCF7D6FF8A48808849F2413118
:1033300088427CD1CF2002F0D7FC002002F0C8FCEC
:10334000C12002F0C5FC302002F0C2FCED2002F0EA
:10335000CBFC642002F0BCFC032002F0B9FC12207C
:1033600002F0B6FC812002F0B3FCE82002F0BCFCC5
:10337000852002F0ADFC102002F0AAFC7A2002F0B9
:10338000A7FCCB2002F0B0FC392002F0A1FC2C20DD
:1033900002F09EFC002002F09BFC342002F098FC1E
:1033A000022002F095FCF72002F09EFC202002F0A3
:1033B0008FFCEA2002F098FC002002F089FC00203B
:1033C00002F086FCC02002F08FFC1B2002F080FC83
:1033D000C12002F089FC012002F07AFCC52002F035
:1033E00083FC302002F074FC302002F071FCC72016
:1033F00002F07AFCB72002F06BFC362002F074FC7D
:10340000482002F065FC3A2002F06EFC552002F0E4
:103410005FFCB12002F068FC002002F059FC1A2089
:1034200002F056FCB62002F05FFC0A2000E0ACE09F
:1034300002F04EFCA22002F04BFCF22002F054FC01
:10344000002002F045FC262002F04EFC012002F094
:103450003FFCE02002F048FC0F2002F039FC2A205B
:1034600002F036FC282002F033FC082002F030FC89
:103470000E2002F02DFC082002F02AFC542002F05D
:1034800027FCA92002F024FC432002F021FC0A20A2
:1034900002F01EFC0F2002F01BFC002002F018FCC2
:1034A000002002F015FC002002F012FC002002F0C7
:1034B0000FFCE12002F018FC002002F009FC1520AE
:1034C00002F006FC172002F003FC072002F000FCCB
:1034D000112002F0FDFB062002F0FAFB2B2002F087
:1034E000F7FB562002F0F4FB3C2002F0F1FB052034
:1034F00002F0EEFB102002F0EBFB0F2002F0E8FBE5
:103500003F2002F0E5FB3F2002F0E2FB0F2002F03B
:10351000DFFB2B2002F0E8FB002002F0D9FB0020AB
:1035200002F0D6FB012002F0D3FB3F2002F0D0FBDB
:103530002A2002F0D9FB002002F0CAFB002002F092
:10354000C7FB11E000100240000C014014120020E3
:10355000040100A05C120020204C43442049443A5E
:1035600025780D0A00000000002002F0B1FBEF20DA
:1035700002F0AEFB112002F0B7FB782006F042FA11
:10358000292002F0B1FB01F0CBBFFE48808845F254
:103590001031884240F07C87ED2002F0A5FB01202D
:1035A00002F096FBFE2002F093FBEE2002F09CFB63
:1035B000DE2002F08DFB212002F08AFBF12002F0D8
:1035C00093FB012002F084FBDF2002F08DFB102032
:1035D00002F07EFBC42002F087FB8F2002F078FB14
:1035E000C62002F081FB002002F072FBE22002F014
:1035F0006FFBE22002F06CFBE22002F069FBBF20CF
:1036000002F072FBAA2002F063FBB02002F06CFB18
:103610000D2002F05DFB002002F05AFB0D2002F0AD
:1036200057FB002002F054FB112002F051FB002058
:1036300002F04EFB192002F04BFB002002F048FB89
:10364000212002F045FB002002F042FB2D2002F079
:103650003FFB002002F03CFB3D2002F039FB002044
:1036600002F036FB5D2002F033FB002002F030FB5D
:103670005D2002F02DFB002002F02AFBB12002F0B9
:1036800033FB802002F024FB002002F021FB8B2082
:1036900002F01EFB002002F01BFB962002F018FB3C
:1036A000002002F015FBB22002F01EFB002002F009
:1036B0000FFB002002F00CFB022002F009FB0020AF
:1036C00002F006FB032002F003FB002002F000FBE7
:1036D000B32002F009FB002002F0FAFA002002F009
:1036E000F7FA002002F0F4FA002002F0F1FA0020CC
:1036F00002F0EEFA002002F0EBFA002002F0E8FA05
:10370000002002F0E5FA002002F0E2FA002002F0C8
:10371000DFFA002002F0DCFA002002F0D9FA0020E3
:1037200002F0D6FA002002F0D3FA002002F0D0FA1C
:10373000002002F0CDFA002002F0CAFA002002F0C8
:10374000C7FA002002F0C4FA002002F0C1FA0020FB
:1037500002F0BEFA002002F0BBFA002002F0B8FA34
:10376000002002F0B5FAB42002F0BEFA8B2002F07D
:10377000AFFA002002F0ACFA962002F0A9FA00207D
:1037800002F0A6FAA12002F0A3FA002002F0A0FAAB
:10379000B52002F0A9FA022002F09AFA002002F005
:1037A00097FA032002F094FA002002F091FA042024
:1037B00002F08EFA002002F08BFAB62002F094FAA2
:1037C000002002F085FA002002F082FAB72002F011
:1037D0008BFA002002F07CFA002002F079FA3F20F8
:1037E00002F076FA002002F073FA5E2002F070FA1E
:1037F000002002F06DFA642002F06AFA002002F064
:1038000067FA8C2002F064FA002002F061FAAC2022
:1038100002F05EFA002002F05BFADC2002F058FAB7
:10382000002002F055FA702002F052FA002002F057
:103830004FFA902002F04CFA002002F049FAEB20F7
:1038400002F046FA002002F043FADC2002F040FACF
:10385000002002F03DFAB82002F046FA002002F003
:1038600037FA002002F034FA002002F031FA00208A
:1038700002F02EFA002002F02BFA002002F028FAC3
:10388000002002F025FA002002F022FABA2002F00D
:103890002BFA242002F01CFA002002F019FA002072
:1038A00002F016FA002002F013FAC12002F01CFA0E
:1038B000202002F00DFA002002F00AFA542002F053
:1038C00007FA002002F004FAFF2002F001FA0020BB
:1038D00002F0FEF9C22002F007FA0A2002F0F8F91D
:1038E000002002F0F5F9042002F0F2F9002002F0C5
:1038F000EFF9C32002F0F8F93C2002F0E9F90020CA
:1039000002F0E6F93A2002F0E3F9002002F0E0F9D3
:10391000392002F0DDF9002002F0DAF9372002F058
:10392000D7F9002002F0D4F93C2002F0D1F90020B0
:1039300002F0CEF9362002F0CBF9002002F0C8F9EF
:10394000322002F0C5F9002002F0C2F92F2002F067
:10395000BFF9002002F0BCF92C2002F0B9F90020D8
:1039600002F0B6F9292002F0B3F9002002F0B0F914
:10397000262002F0ADF9002002F0AAF9242002F07E
:10398000A7F901E05C120020002002F0A1F9242038
:1039900002F09EF9002002F09BF9232002F098F932
:1039A000002002F095F93C2002F092F9002002F08C
:1039B0008FF9362002F08CF9002002F089F93220CC
:1039C00002F086F9002002F083F92F2002F080F93E
:1039D000002002F07DF92C2002F07AF9002002F09C
:1039E00077F9292002F074F9002002F071F92620FD
:1039F00002F06EF9002002F06BF9242002F068F961
:103A0000002002F065F9242002F062F9002002F0A3
:103A10005FF9232002F05CF9002002F059F9C4207C
:103A200002F062F9622002F053F9002002F050F92E
:103A3000052002F04DF9002002F04AF9842002F03E
:103A400047F9002002F044F9F02002F041F900208B
:103A500002F03EF9182002F03BF9002002F038F99C
:103A6000A42002F035F9002002F032F9182002F00B
:103A70002FF9002002F02CF9502002F029F9002043
:103A800002F026F90C2002F023F9002002F020F9C0
:103A9000172002F01DF9002002F01AF9952002F01B
:103AA00017F9002002F014F9F32002F011F90020B8
:103AB00002F00EF9E62002F00BF9002002F008F9FE
:103AC000C52002F011F9322002F002F9002002F0C4
:103AD000FFF8442002F0FCF8002002F0F9F865201D
:103AE00002F0F6F8002002F0F3F8762002F0F0F889
:103AF000002002F0EDF8882002F0EAF8002002F041
:103B0000E7F8C62002F0F0F8202002F0E1F80020EB
:103B100002F0DEF8172002F0DBF8002002F0D8F8FF
:103B2000012002F0D5F8002002F0D2F8C72002F000
:103B3000DBF8002002F0CCF8002002F0C9F80020E9
:103B400002F0C6F8002002F0C3F8C82002F0CCF85A
:103B5000002002F0BDF8002002F0BAF8002002F0C8
:103B6000B7F8002002F0B4F8C92002F0BDF8002038
:103B700002F0AEF8002002F0ABF8002002F0A8F846
:103B8000002002F0A5F8002002F0A2F8002002F0C8
:103B90009FF8002002F09CF8002002F099F8002025
:103BA00002F096F8002002F093F8002002F090F85E
:103BB000002002F08DF8002002F08AF8002002F0C8
:103BC00087F8002002F084F8002002F081F8E0205D
:103BD00002F08AF8162002F07BF8002002F078F854
:103BE0001C2002F075F8002002F072F8212002F08B
:103BF0006FF8002002F06CF8362002F069F800201F
:103C000002F066F8462002F063F8002002F060F847
:103C1000522002F05DF8002002F05AF8642002F011
:103C200057F8002002F054F87A2002F051F80020F2
:103C300002F04EF88B2002F04BF8002002F048F81A
:103C4000992002F045F8002002F042F8A82002F086
:103C50003FF8002002F03CF8B92002F039F80020CB
:103C600002F036F8C42002F033F8002002F030F8F9
:103C7000CA2002F02DF8002002F02AF8D22002F02B
:103C800027F8002002F024F8D92002F021F80020C3
:103C900002F01EF8E02002F01BF8002002F018F8F5
:103CA000F32002F015F8002002F012F8E12002F0F3
:103CB0001BF8162002F00CF8002002F009F81C2076
:103CC00002F006F8002002F003F8222002F000F8CB
:103CD000002001F0FDFF362001F0FAFF002001F086
:103CE000F7FF452001F0F4FF002001F0F1FF522022
:103CF00001F0EEFF002001F0EBFF642001F0E8FF8F
:103D0000002001F0E5FF7A2001F0E2FF002001F041
:103D1000DFFF8B2001F0DCFF002001F0D9FF9920AC
:103D200001F0D6FF002001F0D3FFA82001F0D0FF62
:103D3000002001F0CDFFB92001F0CAFF002001F002
:103D4000C7FFC42001F0C4FF002001F0C1FFCA205A
:103D500001F0BEFF002001F0BBFFD22001F0B8FF50
:103D6000002001F0B5FFD82001F0B2FF002001F0E3
:103D7000AFFFE02001F0ACFF002001F0A9FFF3202D
:103D800001F0A6FF002001F0A3FFE22001F0ACFF4C
:103D9000052001F09DFF002001F09AFF0B2001F0AB
:103DA00097FF002001F094FF1B2001F091FF0020FD
:103DB00001F08EFF342001F08BFF002001F088FF1E
:103DC000442001F085FF002001F082FF4F2001F028
:103DD0007FFF002001F07CFF612001F079FF0020CF
:103DE00001F076FF792001F073FF002001F070FFF1
:103DF000882001F06DFF002001F06AFF972001F09C
:103E000067FF002001F064FFA62001F061FF0020A1
:103E100001F05EFFB72001F05BFF002001F058FFCA
:103E2000C22001F055FF002001F052FFC72001F031
:103E30004FFF002001F04CFFD12001F049FF00208E
:103E400001F046FFD62001F043FF002001F040FFC3
:103E5000DD2001F03DFF002001F03AFFF32001F0EA
:103E600037FF002001F034FFE32001F03DFF052083
:103E700001F02EFF002001F02BFF0A2001F028FFA7
:103E8000002001F025FF1C2001F022FF002001F09E
:103E90001FFF332001F01CFF002001F019FF442018
:103EA00001F016FF002001F013FF502001F010FF79
:103EB000002001F00DFF622001F00AFF002001F058
:103EC00007FF782001F004FF002001F001FF8820A7
:103ED00001F0FEFE002001F0FBFE972001F0F8FE4D
:103EE000002001F0F5FEA62001F0F2FE002001F016
:103EF000EFFEB72001F0ECFE002001F0E9FEC22049
:103F000001F0E6FE002001F0E3FEC72001F0E0FE34
:103F1000002001F0DDFED12001F0DAFE002001F0EA
:103F2000D7FED52001F0D4FE002001F0D1FEDD2027
:103F300001F0CEFE002001F0CBFEF32001F0C8FE20
:103F4000002001F0C5FEE42001F0CEFE012001F0CA
:103F5000BFFE002001F0BCFE012001F0B9FE0020F0
:103F600001F0B6FE022001F0B3FE002001F0B0FE29
:103F70002A2001F0ADFE002001F0AAFE3C2001F055
:103F8000A7FE002001F0A4FE4B2001F0A1FE0020BE
:103F900001F09EFE5D2001F09BFE002001F098FEE6
:103FA000742001F095FE002001F092FE842001F0C3
:103FB0008FFE002001F08CFE932001F089FE00208E
:103FC00001F086FEA22001F083FE002001F080FEB9
:103FD000B32001F07DFE002001F07AFEBE2001F04A
:103FE00077FE002001F074FEC42001F071FE002075
:103FF00001F06EFECD2001F06BFE002001F068FEA6
:10400000D32001F065FE002001F062FEDD2001F00A
:104010005FFE002001F05CFEF32001F059FE00205D
:1040200001F056FEE52001F05FFE002001F050FE99
:10403000002001F04DFE002001F04AFE002001F0BA
:1040400047FE022001F044FE002001F041FE29203D
:1040500001F03EFE002001F03BFE3C2001F038FE66
:10406000002001F035FE4B2001F032FE002001F06F
:104070002FFE5D2001F02CFE002001F029FE7420AF
:1040800001F026FE002001F023FE842001F020FE36
:10409000002001F01DFE932001F01AFE002001F027
:1040A00017FEA22001F014FE002001F011FEB32043
:1040B00001F00EFE002001F00BFEBE2001F008FE14
:1040C000002001F005FEC42001F002FE002001F0F6
:1040D000FFFDCD2001F0FCFD002001F0F9FDD32013
:1040E00001F0F6FD002001F0F3FDDC2001F0F0FD11
:1040F000002001F0EDFDF32001F0EAFD002001F0C9
:10410000E7FDE62001F0F0FD112001F0E1FD0020C7
:1041100001F0DEFD342001F0DBFD002001F0D8FDD0
:10412000562001F0D5FD002001F0D2FD762001F0EF
:10413000CFFD002001F0CCFD772001F0C9FD00206B
:1041400001F0C6FD662001F0C3FD002001F0C0FDB6
:10415000882001F0BDFD002001F0BAFD992001F09A
:10416000B7FD002001F0B4FDBB2001F0B1FD00203F
:1041700001F0AEFD992001F0ABFD002001F0A8FD9B
:10418000662001F0A5FD002001F0A2FD552001F000
:104190009FFD002001F09CFD552001F099FD0020BD
:1041A00001F096FD452001F093FD002001F090FD07
:1041B000432001F08DFD002001F08AFD442001F034
:1041C00087FD002001F084FDE72001F08DFD322005
:1041D00001F07EFD002001F07BFD552001F078FD0F
:1041E000002001F075FD762001F072FD002001F045
:1041F0006FFD662001F06CFD002001F069FD672075
:1042000001F066FD002001F063FD672001F060FD14
:10421000002001F05DFD872001F05AFD002001F033
:1042200057FD992001F054FD002001F051FDBB2005
:1042300001F04EFD002001F04BFD992001F048FDFA
:10424000002001F045FD772001F042FD002001F043
:104250003FFD442001F03CFD002001F039FD5620D7
:1042600001F036FD002001F033FD232001F030FD88
:10427000002001F02DFD332001F02AFD002001F087
:1042800027FD452001F024FD002001F021FDE8205C
:1042900001F02AFD002001F01BFD002001F018FDB7
:1042A000992001F015FD002001F012FD872001F09A
:1042B0000FFD002001F00CFD882001F009FD002019
:1042C00001F006FD772001F003FD002001F000FD64
:1042D000662001F0FDFC002001F0FAFC882001F0CE
:1042E000F7FC002001F0F4FCAA2001F0F1FC002012
:1042F00001F0EEFCBB2001F0EBFC002001F0E8FC3B
:10430000992001F0E5FC002001F0E2FC662001F0BC
:10431000DFFC002001F0DCFC552001F0D9FC00207E
:1043200001F0D6FC552001F0D3FC002001F0D0FCB8
:10433000442001F0CDFC002001F0CAFC442001F033
:10434000C7FC002001F0C4FC552001F0C1FC002096
:1043500001F0BEFCE92001F0C7FCAA2001F0B8FC86
:10436000002001F0B5FC002001F0B2FC002001F0BB
:10437000AFFC002001F0B8FCAA2001F0A9FCCF207E
:1043800001F0B2FC002001F0A3FC002001F0A0FC31
:10439000002001F09DFC002001F09AFC002001F0BB
:1043A00097FC002001F094FC002001F091FC00201B
:1043B00001F08EFC002001F08BFC002001F088FC55
:1043C000002001F085FC002001F082FC002001F0BB
:1043D0007FFC002001F07CFC002001F079FC002033
:1043E00001F076FC002001F073FCF02001F07CFC71
:1043F000002001F06DFC502001F06AFC002001F06B
:1044000067FC002001F064FC002001F061FCF32057
:1044100001F06AFC002001F05BFCF92001F064FC73
:10442000062001F055FC102001F052FC292001F07B
:104430004FFC002001F04CFC3A2001F055FC5520C7
:1044400001F046FC112001F04FFC642005F0DAFA7F
:10445000292001F049FC352001F046FC002001F044
:1044600037FC512001F040FCFF2001F031FC5320CB
:1044700001F03AFC2C2001F02BFC552001F034FC1B
:10448000822001F025FC2C2001F02EFC01F048B820
:10449000FE48808845F2105188427DD155214FF465
:1044A000704001F037FCAA214FF2010001F032FC0C
:1044B00052214FF2020001F02DFC08214FF20300BF
:1044C00001F028FC01214FF2040001F023FC0D2132
:1044D0004FF4304001F01EFC0D214BF2010001F0C1
:1044E00019FC0D214BF2020001F014FC34214FF4B1
:1044F000364001F00FFC34214BF2016001F00AFC60
:1045000034214BF2026001F005FC0D214FF43140E3
:1045100001F000FC0D214BF2011001F0FBFB0D211D
:104520004BF2021001F0F6FB34214FF4374001F05A
:10453000F1FB34214BF2017001F0ECFB34214BF222
:10454000027001F0E7FB00214FF4324001F0E2FB82
:1045500000214BF2012001F0DDFB00214BF2022093
:1045600001F0D8FB24214FF4384001F0D3FB242183
:104570004BF6010001F0CEFB24214BF6020001F0C6
:10458000C9FB01214FF43F4001F0C4FB0F214FF460
:10459000334001F0BFFB00E0FDE30F214BF201309F
:1045A00001F0B8FB0F214BF2023001F0B3FB3421D4
:1045B0004FF4394001F0AEFB34214BF6011001F00D
:1045C000A9FB34214BF6021001F0A4FB08214FF4A3
:1045D000354001F09FFB08214BF2015001F09AFB9E
:1045E00008214BF2025001F095FB03214FF44240A9
:1045F00001F090FB24214FF43A4001F08BFB242181
:104600004BF6012001F086FB24214BF6022001F03D
:1046100081FB00214FF43C4001F07CFB78214BF6FC
:10462000014001F077FB00214BF6024001F072FBE4
:1046300000214FF43D4001F06DFB78214BF6015015
:1046400001F068FB00214BF6025001F063FB0021F2
:104650004FF43E4001F05EFB64214BF6016001F037
:1046600059FB00214FF4514001F054FB33214DF22E
:10467000011001F04FFB00214DF2021001F04AFB46
:1046800034214DF2031001F045FB00214DF20410DE
:1046900001F040FB3A214DF2051001F03BFB0021F7
:1046A0004DF2061001F036FB4A214DF2071001F0E1
:1046B00031FB00214DF2081001F02CFB5C214DF282
:1046C000091001F027FB00214DF20A1001F022FB36
:1046D00081214DF20B1001F01DFB00214DF20C1059
:1046E00001F018FBA6214DF20D1001F013FB002183
:1046F0004DF20E1001F00EFBE5214DF20F1001F00E
:1047000009FB01214DF2101001F004FB13214DF2C1
:10471000111001F0FFFA01214DF2121001F0FAFA26
:1047200054214DF2131001F0F5FA01214DF214104D
:1047300001F0F0FA82214DF2151001F0EBFA01219F
:104740004DF2161001F0E6FACA214DF2171001F0F1
:10475000E1FA02214DF2181001F0DCFA00214DF2CD
:10476000191001F0D7FA02214DF21A1001F0D2FA15
:1047700001214DF21B1001F0CDFA02214DF21C1067
:1047800001F0C8FA34214DF21D1001F0C3FA0221E4
:104790004DF21E1001F0BEFA67214DF21F1001F01C
:1047A000B9FA02214DF2201001F0B4FA84214DF241
:1047B000211001F0AFFA02214DF2221001F0AAFA05
:1047C000A4214DF2231001F0A5FA02214DF224108C
:1047D00001F0A0FAB7214DF2251001F09BFA022159
:1047E0004DF2261001F096FACF214DF2271001F07C
:1047F00091FA02214DF2281001F08CFADE214DF2DF
:10480000291001F087FA02214DF22A1001F082FAF4
:10481000F2214DF22B1001F07DFA02214DF22C1005
:1048200001F078FAFE214DF22D1001F073FA032108
:104830004DF22E1001F06EFA10214DF22F1001F002
:1048400069FA03214DF2301001F064FA33214DF280
:10485000311001F05FFA03214DF2321001F05AFAE3
:104860006D214DF2331001F055FA00214FF4524002
:1048700001F050FA33214DF2012001F04BFA0021F2
:104880004DF2022001F046FA342101E05C120020D2
:104890004DF2032001F03EFA00214DF2042001F018
:1048A00039FA3A214DF2052001F034FA00214DF297
:1048B000062001F02FFA4A214DF2072001F02AFAD2
:1048C00000214DF2082001F025FA5C214DF209206B
:1048D00001F020FA00214DF20A2001F01BFA81219B
:1048E0004DF20B2001F016FA00214DF20C2001F0E0
:1048F00011FAA6214DF20D2001F00CFA00214DF223
:104900000E2001F007FAE5214DF20F2001F002FA26
:1049100001214DF2102001F0FDF913214DF211207B
:1049200001F0F8F901214DF2122001F0F3F95421C0
:104930004DF2132001F0EEF901214DF2142001F0A7
:10494000E9F982214DF2152001F0E4F901214DF23F
:10495000162001F0DFF9CA214DF2172001F0DAF933
:1049600002214DF2182001F0D5F900214DF2192055
:1049700001F0D0F902214DF21A2001F0CBF901210A
:104980004DF21B2001F0C6F902214DF21C2001F06E
:10499000C1F934214DF21D2001F0BCF902214DF284
:1049A0001E2001F0B7F967214DF21F2001F0B2F986
:1049B00002214DF2202001F0ADF984214DF2212099
:1049C00001F0A8F902214DF2222001F0A3F9A4215F
:1049D0004DF2232001F09EF902214DF2242001F036
:1049E00099F9B7214DF2252001F094F902214DF2F9
:1049F000262001F08FF9CF214DF2272001F08AF90E
:104A000002214DF2282001F085F9DE214DF2292006
:104A100001F080F902214DF22A2001F07BF9F22108
:104A20004DF22B2001F076F902214DF22C2001F0FD
:104A300071F9FE214DF22D2001F06CF903214DF2A8
:104A40002E2001F067F910214DF22F2001F062F9BC
:104A500003214DF2302001F05DF933214DF2312078
:104A600001F058F903214DF2322001F053F96D2184
:104A70004DF2332001F04EF900214FF4534001F084
:104A800049F933214DF2013001F044F900214DF292
:104A9000023001F03FF934214DF2033001F03AF9D0
:104AA00000214DF2043001F035F93A214DF2053084
:104AB00001F030F900214DF2063001F02BF94A21C6
:104AC0004DF2073001F026F900214DF2083001F0D7
:104AD00021F95C214DF2093001F01CF900214DF261
:104AE0000A3001F017F981214DF20B3001F012F973
:104AF00000214DF20C3001F00DF9A6214DF20D30E0
:104B000001F008F900214DF20E3001F003F9E52122
:104B10004DF20F3001F0FEF801214DF2103001F09E
:104B2000F9F813214DF2113001F0F4F801214DF2A2
:104B3000123001F0EFF854214DF2133001F0EAF891
:104B400001214DF2143001F0E5F882214DF21530CB
:104B500001F0E0F801214DF2163001F0DBF8CA2136
:104B60004DF2173001F0D6F802214DF2183001F065
:104B7000D1F800214DF2193001F0CCF802214DF2AC
:104B80001A3001F0C7F801214DF21B3001F0C2F8D4
:104B900002214DF21C3001F0BDF834214DF21D30E0
:104BA00001F0B8F802214DF21E3001F0B3F8672190
:104BB0004DF21F3001F0AEF802214DF2203001F02D
:104BC000A9F884214DF2213001F0A4F802214DF220
:104BD000223001F09FF8A4214DF2233001F09AF821
:104BE00002214DF2243001F095F8B7214DF2253025
:104BF00001F090F802214DF2263001F08BF8CF2120
:104C00004DF2273001F086F802214DF2283001F0F4
:104C100081F8DE214DF2293001F07CF802214DF2BD
:104C20002A3001F077F8F2214DF22B3001F072F8C2
:104C300002214DF22C3001F06DF8FE214DF22D30A5
:104C400001F068F803214DF22E3001F063F81021D5
:104C50004DF22F3001F05EF803214DF2303001F0BB
:104C600059F833214DF2313001F054F803214DF25F
:104C7000323001F04FF86D214DF2333001F04AF837
:104C800000214FF4544001F045F833214DF201402A
:104C900001F040F800214DF2024001F03BF83421D0
:104CA0004DF2034001F036F800214DF2044001F0CE
:104CB00031F83A214DF2054001F02CF800214DF277
:104CC000064001F027F84A214DF2074001F022F892
:104CD00000214DF2084001F01DF85C214DF2094021
:104CE00001F018F800214DF20A4001F013F881217B
:104CF0004DF20B4001F00EF800214DF20C4001F096
:104D000009F8A6214DF20D4001F004F800214DF202
:104D10000E4000F0FFFFE5214DF20F4000F0FAFFDA
:104D200001214DF2104000F0F5FF13214DF211402A
:104D300000F0F0FF01214DF2124000F0EBFF542192
:104D40004DF2134000F0E6FF01214DF2144000F057
:104D5000E1FF82214DF2154000F0DCFF01214DF210
:104D6000164000F0D7FFCA214DF2174000F0D2FFE5
:104D700002214DF2184000F0CDFF00214DF2194004
:104D800000F0C8FF02214DF21A4000F0C3FF0121DC
:104D90004DF21B4000E005E300F0BCFF02214DF2A4
:104DA0001C4000F0B7FF34214DF21D4000F0B2FF6F
:104DB00002214DF21E4000F0ADFF67214DF21F4071
:104DC00000F0A8FF02214DF2204000F0A3FF842153
:104DD0004DF2214000F09EFF02214DF2224000F0F2
:104DE00099FFA4214DF2234000F094FF02214DF2DF
:104DF000244000F08FFFB7214DF2254000F08AFFDC
:104E000002214DF2264000F085FFCF214DF22740D0
:104E100000F080FF02214DF2284000F07BFFDE21F0
:104E20004DF2294000F076FF02214DF22A4000F0B9
:104E300071FFF2214DF22B4000F06CFF02214DF288
:104E40002C4000F067FFFE214DF22D4000F062FF84
:104E500003214DF22E4000F05DFF10214DF22F4056
:104E600000F058FF03214DF2304000F053FF332192
:104E70004DF2314000F04EFF03214DF2324000F080
:104E800049FF6D214DF2334000F044FF00214FF403
:104E9000554000F03FFF33214DF2015000F03AFF42
:104EA00000214DF2025000F035FF34214DF2035045
:104EB00000F030FF00214DF2045000F02BFF3A21AA
:104EC0004DF2055000F026FF00214DF2065000F093
:104ED00021FF4A214DF2075000F01CFF00214DF246
:104EE000085000F017FF5C214DF2095000F012FF4E
:104EF00000214DF20A5000F00DFF81214DF20B50C0
:104F000000F008FF00214DF20C5000F003FFA62135
:104F10004DF20D5000F0FEFE00214DF20E5000F05B
:104F2000F9FEE5214DF20F5000F0F4FE01214DF2A3
:104F3000105000F0EFFE13214DF2115000F0EAFE88
:104F400001214DF2125000F0E5FE54214DF21350B4
:104F500000F0E0FE01214DF2145000F0DBFE822152
:104F60004DF2155000F0D6FE01214DF2165000F022
:104F7000D1FECA214DF2175000F0CCFE02214DF2B5
:104F8000185000F0C7FE00214DF2195000F0C2FE8B
:104F900002214DF21A5000F0BDFE01214DF21B50CE
:104FA00000F0B8FE02214DF21C5000F0B3FE342197
:104FB0004DF21D5000F0AEFE02214DF21E5000F0E9
:104FC000A9FE67214DF21F5000F0A4FE02214DF210
:104FD000205000F09FFE84214DF2215000F09AFEF7
:104FE00002214DF2225000F095FEA4214DF22350F3
:104FF00000F090FE02214DF2245000F08BFEB7210C
:105000004DF2255000F086FE02214DF2265000F0B0
:1050100081FECF214DF2275000F07CFE02214DF29F
:10502000285000F077FEDE214DF2295000F072FE8C
:1050300002214DF22A5000F06DFEF2214DF22B506C
:1050400000F068FE02214DF22C5000F063FEFE21BC
:105050004DF22D5000F05EFE03214DF22E5000F077
:1050600059FE10214DF22F5000F054FE03214DF255
:10507000305000F04FFE33214DF2315000F04AFE27
:1050800003214DF2325000F045FE6D214DF23350B8
:1050900000F040FE00214FF4564000F03BFE33216B
:1050A0004DF2016000F036FE00214DF2026000F08A
:1050B00031FE34214DF2036000F02CFE00214DF250
:1050C000046000F027FE3A214DF2056000F022FE58
:1050D00000214DF2066000F01DFE4A214DF20760EE
:1050E00000F018FE00214DF2086000F013FE5C2174
:1050F0004DF2096000F00EFE00214DF20A6000F052
:1051000009FE81214DF20B6000F004FE00214DF2FA
:105110000C6000F0FFFDA6214DF20D6000F0FAFDDD
:1051200000214DF20E6000F0F5FDE5214DF20F601B
:1051300000F0F0FD01214DF2106000F0EBFD1321B5
:105140004DF2116000F0E6FD01214DF2126000F019
:10515000E1FD54214DF2136000F0DCFD01214DF220
:10516000146000F0D7FD82214DF2156000F0D2FDF1
:1051700001214DF2166000F0CDFDCA214DF21760FD
:1051800000F0C8FD02214DF2186000F0C3FD0021BF
:105190004DF2196000F0BEFD02214DF21A6000F0E0
:1051A000B9FD01214DF21B6000F0B4FD02214DF26A
:1051B0001C6000F0AFFD34214DF21D6000F0AAFD2F
:1051C00002214DF21E6000F0A5FD67214DF21F6027
:1051D00000F0A0FD02214DF2206000F09BFD842133
:1051E0004DF2216000F096FD02214DF2226000F0A8
:1051F00091FDA4214DF2236000F08CFD02214DF2BF
:10520000246000F087FDB7214DF2256000F082FD9B
:1052100002214DF2266000F07DFDCF214DF2276086
:1052200000F078FD02214DF2286000F073FDDE21D0
:105230004DF2296000F06EFD02214DF22A6000F06F
:1052400069FDF2214DF22B6000F064FD02214DF268
:105250002C6000F05FFDFE214DF22D6000F05AFD44
:1052600003214DF22E6000F055FD10214DF22F600C
:1052700000F050FD03214DF2306000F04BFD332172
:105280004DF2316000F046FD03214DF2326000F036
:1052900041FD6D214DF2336000F03CFD55214FF48E
:1052A000704000F037FDAA214FF2010000F032FDFE
:1052B00052214FF2020000F02DFD08214FF20300B1
:1052C00000F028FD00214FF2040000F023FDCC2166
:1052D0004FF4314000F01EFD00214BF2011000F0B0
:1052E00019FD05214FF4364000F014FD70214FF4F4
:1052F000374000F00FFD70214BF2017000F00AFD05
:1053000001214FF4384000F005FD03214BF6010068
:1053100000F000FD03214BF6020000F0FBFC03212E
:105320004BF6030000F0F6FC02214FF43C4000F085
:10533000F1FC00214BF6014000F0ECFC00214BF6A3
:10534000024000F0E7FCD0214FF4494000F0E2FCBD
:1053500002214CF6011000F0DDFC50214CF6021049
:1053600000F0D8FC50214CF6031000F0D3FC502183
:105370004CF6041000F0CEFC00214FF4545000F025
:10538000C9FC55214FF4685000F0C4FC4FF488501C
:1053900000F0AAFC782004F06BFB4FF4245000F0DE
:1053A000A3FCBDE07F48808841F663118842F8D1B4
:1053B000E22000F099FC1D2000F08AFC022000F0A1
:1053C00087FC042000F084FC642004F051FBE02002
:1053D00000F08AFC012000F07BFC0A2004F012FBA4
:1053E000E02000F081FC032000F072FC0C2004F0AF
:1053F00009FB012000F078FC0A2004F003FBE62002
:1054000000F072FC2F2000F063FCFF2000F060FC35
:10541000FF2000F05DFCB02000F066FC202000F0D2
:1054200057FC002000F054FC032000F051FC40F237
:105430001F3000F04DFC012000F04AFC40F2DF106C
:1054400000F046FC002000F043FCB42000F04CFCCF
:10545000042000F03DFC40F21F4000F039FC002029
:1054600000F036FC2E2000F033FC002000F030FC71
:10547000002000F02DFC002000F02AFC002000F0AD
:1054800027FCB62000F030FC022000F021FC4FF495
:10549000037000F01DFC002000F01AFC172000F043
:1054A00017FC152000F014FC002000F011FC002077
:1054B00000F00EFCF02000F017FC032000F008FCC8
:1054C000292000F011FCD02000F00EFC002000F09C
:1054D000FFFBBE2000F008FC052000F0F9FBFE20D9
:1054E00000F0F6FB012000F0F3FB002000F0F0FBE1
:1054F000002000F0EDFB002000F0EAFBB82000F0F7
:10550000F3FB032000F0E4FB012000F0E1FBBA20F4
:1055100000F0EAFB012000F0DBFB642000F05EF805
:105520002048808849F24131884211D01D48808846
:1055300045F2103188420BD01A48808845F210514C
:10554000884205D01748808841F6631188421CD1F3
:105550001548006820F00F004FF02041C1F81C01F1
:105560000846D0F81C0120F47060C1F81C01084600
:10557000D0F81C0140F00100C1F81C010846D0F829
:105580001C0140F48070C1F81C010020FDF7C6FB2F
:105590000120064908604FF6FF70FDF7A5FB13B028
:1055A00000BD00005C1200201C0100A0808121428F
:1055B00010B50246012000E050430B1EA1F101048A
:1055C000E1B2F9D110BD000008B503480088009091
:1055D000BDF8000008BD00000008006C2DE9F04790
:1055E0000446BE2000F080FB052000F071FB204641
:1055F00005F0CAFA07464FF066320C4B05F014FB73
:10560000054605F07DFA1FFA80F9484600F060FB78
:10561000012000F05DFBFF2000F05AFB002000F0AD
:1056200057FB002000F054FBBDE8F087666604409D
:10563000F0B505460024002799488079012805D156
:105640009748808841F66311884208D19448807950
:10565000F0B99348808841F66311884218D1082D2B
:1056600015D2DFE805F00406080A0C0E1012062514
:105670000DE007250BE0042509E0052507E00125DD
:1056800005E0002503E0032501E0022500BF00BF7F
:105690008348808849F24131884211D0804880880F
:1056A00045F2103188420BD07D48808845F2105178
:1056B000884205D07A48808841F6631188427DD1BE
:1056C000082D1CD2DFE805F00406090C0F1215188E
:1056D00000BF14E044F0800411E044F040040EE008
:1056E00044F0C0040BE044F0200408E044F06004FF
:1056F00005E044F0A00402E044F0E00400BF00BF75
:105700006748808845F21051884202D14FF45857BB
:1057100000E036276248808845F2103188420DD07B
:105720005F48808845F21051884207D05C488088E5
:1057300041F66311884201D044F0080421463846FE
:1057400000F0E8FA5648808841F6631188421DD07F
:1057500004F0200068B152480088514949888842C5
:1057600014DA4F48068840884D490880084646802C
:105770000CE04B4800884A494988884206DD484881
:105780000688408846490880084646804448808804
:1057900045F21051884254D14149488900F0A4FA99
:1057A000002000F095FA3E494989491C88B200F072
:1057B0009BFA002000F08CFA394900E06FE049893B
:1057C000891C88B200F090FA35490988491EC1F356
:1057D0000F2000F07DFA32494989C91C88B200F0D7
:1057E00083FA2F490978491EC8B200F071FA2C4992
:1057F000888900F079FA002000F06AFA284989893E
:10580000491C88B200F070FA002000F061FA2449C7
:105810008989891C88B200F067FA21494988491EA4
:10582000C1F30F2000F054FA1D498989C91C88B2C0
:1058300000F05AFA1A498978491EC8B200F048FAAD
:105840002DE01749488900F04FFA002000F040FA97
:10585000002000F03DFA12490988491EC1F30F20CB
:1058600000F036FA0E490978491EC8B200F030FA45
:105870000B49888900F038FA002000F029FA00204E
:1058800000F026FA06494988491EC1F30F2000F0AE
:105890001FFA03498978491EC8B200F019FAF0BD11
:1058A0005C12002010B502460C464B48808849F235
:1058B0004131884205D04848808845F210318842FD
:1058C00014D14549488900F00FFA101200F000FA8F
:1058D000D0B200F0FDF94049888900F005FA2012A5
:1058E00000F0F6F9E0B200F0F3F973E03A4880888E
:1058F00041F66311884247D137488079A8B93648C4
:105900000088401E801A82B23349488900F0ECF9C1
:10591000002000F0DDF9002000F0DAF9101200F0AC
:10592000D7F9D0B200F0D4F916E02B49488900F03D
:10593000DBF9101200F0CCF9D0B200F0C9F9264919
:105940000988491EC1F30F2000F0C2F922490978E5
:10595000491EC8B200F0BCF91F49888900F0C4F99B
:10596000201200F0B5F9E0B200F0B2F91A49498806
:10597000491EC1F30F2000F0ABF917498978491E81
:10598000C8B200F0A5F925E01348808845F210510F
:1059900088421FD11049488900F0A6F9101200F082
:1059A00097F90D494989491C88B200F09DF9D0B298
:1059B00000F08EF90849888900F096F9201200F06D
:1059C00087F905498989491C88B200F08DF9E0B250
:1059D00000F07EF910BD00005C1200202DE9F84FA8
:1059E00080460F4616461C46BB462046E31704EB8E
:1059F0005373DB1021464FEAE47C04EB5C7C4FEAF6
:105A0000EC0CA4EBCC0CBCF1000F02D04FF0010C5D
:105A100001E04FF0000C6344224604EBD27C4FEAD5
:105A20006C0C03FB0CF3DBB20093A6F12000C6B2B2
:105A300000255EE00C2C07D106EB46002F4901EB58
:105A4000800010F805901BE0102C05D12C4800EBCD
:105A5000061010F8059013E0182C07D106EBC600CD
:105A6000284901EB800010F8059009E0202C05D1B1
:105A7000254800EBC61010F8059001E0BDE8F88F4E
:105A80004FF0000A2FE009F0800030B11F4839467E
:105A900002684046FDF7A8FA07E00A9828B91C48B2
:105AA000394602684046FDF79FFA4FEA49604FEADF
:105AB0001069781C87B217484088B84200DCDDE7DF
:105AC000A7EB0B00A0420AD15F4608F101001FFAC4
:105AD00080F810480088404500DCCFE706E00AF176
