:020000040800F2
:10000000C8C60020DD010008415A00082F2A000858
:100010003D5A00087D0700082D750008000000000B
:100020000000000000000000000000005D6B000800
:100030008107000800000000435A0008416D0008D5
:10004000F7010008F7010008F7010008F7010008B0
:10005000F7010008F7010008F7010008F7010008A0
:10006000F7010008F7010008F7010008F701000890
:10007000F7010008F7010008F7010008F701000880
:10008000F7010008F7010008F7010008F701000870
:10009000F7010008F7010008F7010008F701000860
:1000A000F7010008F7010008F7010008F701000850
:1000B000F7010008F7010008F7010008F701000840
:1000C000F7010008F7010008F7010008F701000830
:1000D000F7010008ED740008F7010008F7010008B7
:1000E000F7010008F7010008F7010008F701000810
:1000F000F7010008F7010008F7010008F701000800
:10010000F7010008F7010008F7010008F7010008EF
:10011000F7010008F7010008F7010008F7010008DF
:10012000F7010008F7010008F7010008F7010008CF
:1001300000F002F800F042F80AA090E8000C8244B7
:100140008344AAF10107DA4501D100F037F8AFF294
:10015000090EBAE80F0013F0010F18BFFB1A43F0A5
:1001600001031847940A0100B40A0100103A24BFA1
:1001700078C878C1FAD8520724BF30C830C144BF0C
:1001800004680C607047000000230024002500264E
:10019000103A28BF78C1FBD8520728BF30C148BFEA
:1001A0000B607047642900F0F980782900F03281F3
:1001B000002070471FB51FBD10B510BD00F0ACFA90
:1001C0001146FFF7F7FF0AF0D5FC00F0CAFA03B4B6
:1001D000FFF7F2FF03BC07F0A0FE000009488047CC
:1001E00009480047FEE7FEE7FEE7FEE7FEE7FEE719
:1001F000FEE7FEE7FEE7FEE704480549054A064B31
:1002000070470000496D000831010008C8C0002097
:10021000C8C60020C8C20020C8C20020704753EAE8
:10022000020C00F069802DE9F04B4FF00006002B26
:100230001FBFB3FA83F503FA05F424FA05F65E400E
:1002400012BF1643B2FA82F502FA05F4C5F1200591
:100250001EBF22FA05FC44EA0C04203556EA044C81
:100260004FEA144418BF641C4FF000084FF0000917
:10027000904271EB030C39D3002919BFB1FA81F711
:1002800001FA07F6B0FA80F700FA07F6C7F120077F
:100290001EBF20FA07FC46EA0C062037B6FBF4FC2A
:1002A000A7EB0507103F07F01F0BCBF120060CFA58
:1002B0000BFB2CFA06F644BFB3460026202FA4BF42
:1002C0005E464FF0000B5BEA060C08BF4FF0010BD7
:1002D00019EB0B09ABFB027C48EB0608C01B06FBC5
:1002E00002CC0BFB03CC71EB0C01C1E70B460246C1
:1002F00041464846BDE8F08B13B54FF000004FF083
:100300000001AFF30080BDE81C4070470FB4044902
:1003100010B503AA029800F0E9F910BC5DF814FBCF
:10032000140000200FB41CB5074B06AA7B44694695
:100330000090059800F0C1F90020694600F0D0F95E
:100340001CBC5DF814FB0000B103000070B504464E
:1003500085690068C10601D5302600E02026C00767
:1003600007D070BDD4E9012130469047206A401C77
:1003700020626D1EF6D570BD70B5044685690078A3
:10038000C00707D170BDD4E9012120209047206A21
:10039000401C20626D1EF6D570BD00002DE9F041B5
:1003A0000646002410687529314616A510D0AFF313
:1003B0000080002802DA404213A507E031688A076E
:1003C00001D512A502E0490704D511A5012401E0D9
:1003D000AFF3008000210A2206F1240709E0B0FBF8
:1003E000F2FCB0FBF2F302FB1C00303078541846EC
:1003F000491C0028F3D123462A463046BDE8F04187
:1004000000F0FCB8000000002D0000002B000000F0
:100410002000000070B504460D4621461068AFF379
:1004200000802188090502D50F4A7A4402E00E4A6D
:100430007A440E32002104F1240305E000F00F0697
:100440000009965D5E54491C0028F7D120780023EE
:10045000000704D5702D02D009B1022311322046C5
:10046000BDE8704000F0CAB8900701002DE9F05FC8
:10047000894604464FF0000ADFF874B1FB44C0F827
:1004800020A02046E1688847002874D0252806D09F
:10049000D4E901219047206A401C2062F1E7002640
:1004A0005F462046E16888472028054607DB312D56
:1004B00005D2781910F8200C08B10643F1E7B0070F
:1004C00001D526F00406C4F81CA00027C4F818A023
:1004D0002A2D09D0284607F019FD38B304EB870808
:1004E000303DC8F8185019E059F8041B204604EBB9
:1004F00087029161E1688847012F054618D1E069BC
:10050000002820DA26F020061DE0D8F8180000EBBD
:10051000800005EB40003038C8F818002046E1683C
:100520008847054607F0F2FC0028EED1012F0AD0DB
:100530002E2D08D12046E16888477F1C0546022FF2
:1005400046F02006C4DBA069002803DA404246F0EA
:100550000106A061F00701D026F010066C2D0BD02B
:10056000682D09D04C2D39D06A2D35D0742D35D059
:100570007A2D33D016E038E0E1682F4620468847D0
:10058000B842054609D16C2F26D04FF48060E1684F
:10059000064320468847054604E06C2F1AD04FF4E6
:1005A000807006430DB3A5F14100192802D820350B
:1005B00046F400664A462946204626604E46FFF726
:1005C000F1FD80B101280BD0F61D26F0070000F1E7
:1005D000080956E74020E4E78020D8E70020D6E766
:1005E00006F104094DE7284652E7206ABDE8F09F6E
:1005F0006607010070477047704770472DE9F04764
:100600000D4699469246044600F124080168880682
:1006100004D5E06921F01001216000E00120A8422A
:1006200001DD471B00E00027A1697A1902EB0900F0
:10063000081AA0612078C00602D42046FFF786FE83
:10064000002608E0D4E901211AF806009047206A44
:10065000401C761C20624E45F4DB2078C0060AD58B
:100660002046FFF773FE06E0D4E9012130209047D1
:10067000206A401C2062381EA7F10107F4DC07E065
:10068000D4E9012118F805009047206A401C206237
:10069000281EA5F10105F3DC2046FFF76DFE20784A
:1006A000000602D50220BDE8F0870120FBE700002C
:1006B00001694A1C02610878704700B58FB0CDE926
:1006C00001310021059105497944CDE90310114616
:1006D0006846FFF7CBFE0FB000BD0000E5FFFFFF4F
:1006E0000A6802F8010B0A6070470000074B70B5FA
:1006F0000D467B44FFF7E1FF0446284600F008F86A
:1007000010B14FF0FF3070BD204670BD0BA000004F
:10071000007B00F080007047754600F02BF8AE4675
:1007200005006946534620F00700854618B020B5FD
:10073000FFF762FDBDE820404FF000064FF00007D4
:100740004FF000084FF0000B21F00701AC46ACE879
:10075000C009ACE8C009ACE8C009ACE8C0098D46E6
:10076000704710B50446AFF300802046BDE8104046
:10077000FFF72DBD0048704764C0002000BFFEE7B2
:100780007047000070B50446B3F5804F13D1D1E92E
:10079000000540EA05108D6840EA05208D69284370
:1007A0008D8940EA054054F82250064E35402843D2
:1007B00044F8220003E06FF0704044F8220000206B
:1007C00070BD00000000F0CF30B50246086852F856
:1007D000200020F001000C6842F8240088680828F6
:1007E00001D1402300E00023486818438C6820436F
:1007F000CC6820430C6920434C6920438C6920431A
:10080000CC6920430C6A20434C6A20438C6A204305
:10081000CC6A20430C6B20434C6B20430C6852F88D
:100820002440044D2C4020430C6842F82400002052
:1008300030BD00008000F0FF10B50346D1E9000490
:1008400040EA04108C6840EA04208C8940EA0444A1
:10085000088A401E44EA0054087D801E44EA006075
:100860008C692043541C53F8244004F04044204336
:10087000541C43F82400002010BD00002DE9F05F57
:1008800082460F4614462046E21704EB5272D210FD
:100890002146E31704EB5373DB10A4EBC3030BB146
:1008A000012300E000231A44624302F0FF099AF892
:1008B00000600AF1010082460578812E05DB402D9B
:1008C00003DBFF2D01D0FF2E0DD14FF0000B06E012
:1008D000002007F8010B0BF1010000F0FF0BCB45E6
:1008E000F6DBBDE8F09F7F2D03DAA5F14000C5B22D
:1008F00002E0A5F14100C5B2A6F18100C6B2BE205A
:1009000000FB065000FB09F80C2C04D0102C0CD076
:10091000182C1ED113E01048D0F8090000EB080194
:100920004A46384607F088F913E00B48D0F8110022
:1009300000EB08014A46384607F07EF909E0064810
:10094000D0F8190000EB08014A46384607F074F960
:1009500000BF00BF00BFC4E740C0002070B5044620
:10096000002594F82100022803D00420A06301256B
:10097000C1E02068006820F00E002168086020684F
:10098000006820F00100216808605C492068884206
:1009900052D95A4978392068884201D1012047E06C
:1009A000564964392068884201D1102040E05349FB
:1009B00050392068884201D1801539E04F493C39CF
:1009C0002068884201D1801432E04C4928392068DF
:1009D000884202D14FF480302AE048491439206817
:1009E000884202D14FF4801022E0444920688842B6
:1009F00001D140041CE042492068884201D1012015
:100A000016E03F4914312068884201D110200FE0E0
:100A10003B4928312068884201D1801508E03849D7
:100A20003C312068884201D1801401E04FF48030CD
:100A30003349091F086051E03049783920688842FD
:100A400001D1012047E02D4964392068884201D155
:100A5000102040E0294950392068884201D1801592
:100A600039E026493C392068884201D1801432E0BF
:100A7000224928392068884202D14FF480302AE088
:100A80001E4914392068884202D14FF4801022E0B8
:100A90001A492068884201D140041CE018492068A6
:100AA000884201D1012016E015491431206888429E
:100AB00001D110200FE0124928312068884201D16D
:100AC000801508E00E493C312068884201D180142D
:100AD00001E04FF48030094980394860012084F8F2
:100AE000210000BF002084F8200000BF606B10B11F
:100AF0002046616B8847284670BD00008000024098
:100B00000804024070B5044600F0BEF906462546CA
:100B1000681C10B104480078054400BF00F0B4F927
:100B2000801BA842FAD370BD0C0000202DE9F847C5
:100B3000024600239C467BE14FF0010808FA03F4CB
:100B4000D1F8008008EA0400A0427DD1DFF8F4A2C9
:100B5000D1F80480A8EB0A09D0453AD014DCB8F1EA
:100B6000030F50D009DCB8F1000F31D0B8F1010FFC
:100B70001CD0B8F1020F49D120E0B8F1110F18D004
:100B8000B8F1120F42D11EE0B9F5881F25D006DC5E
:100B9000B9F5803F20D0B9F5801F37D11AE0B9F5FB
:100BA000001F18D0B9F5041F30D117E0D1F80CC0E0
:100BB0002DE0D1F80C8008F1040C28E0D1F80C806D
:100BC00008F1080C23E0D1F80C8008F10C0C1EE0B1
:100BD00000BF00BF00BF00BF00BF00BFD1F808804A
:100BE000B8F1000F02D14FF0040C0BE0D1F80880EF
:100BF000B8F1010F03D14FF0080C146102E04FF07F
:100C0000080C546103E04FF0000C00E000BF00BF8F
:100C1000FF2801D8904601E002F104084646FF286B
:100C200002D84FEA830803E0A3F108084FEA8808D6
:100C30004746D6F800804FF00F0909FA07F928EA6D
:100C400009080CFA07F900E07AE048EA0908C6F852
:100C50000080D1F8048008F08058B8F1805F6FD12F
:100C600000BFDFF8E481D8F8188048F00108DFF809
:100C7000D891C9F81880C846D8F8188008F001083B
:100C8000CDF8008000BF00BF4FEAB9384FEA9309A2
:100C900058F829504FEA83784FEA18794FF00F0837
:100CA00008FA09F825EA0805DFF8A081424502D1D3
:100CB0004FF0000824E0DFF89881424502D14FF060
:100CC00001081DE0DFF88C81424502D14FF0020897
:100CD00016E0DFF88481424502D14FF003080FE0AF
:100CE000DFF87881424502D14FF0040808E0DFF8D0
:100CF0007081424502D14FF0050801E04FF006082F
:100D00004FEA83794FEA197908FA09F848EA0505A4
:100D1000DFF850814FEA930948F82950D1F8048050
:100D200008F48038B8F5803F0BD1DFF83C81D8F863
:100D3000008048EA0008DFF83091C9F800800AE036
:100D400075E0DFF82481D8F8008028EA0008DFF891
:100D50001891C9F80080D1F8048008F40038B8F57B
:100D6000003F0ED1DFF8008108F10408D8F80080B8
:100D700048EA0008DFF8F09009F10409C9F800809A
:100D80000DE0DFF8E48008F10408D8F8008028EAD4
:100D90000008DFF8D49009F10409C9F80080D1F8FF
:100DA000048008F48018B8F5801F0ED1DFF8B880F1
:100DB00008F10808D8F8008048EA0008DFF8A89091
:100DC00009F10809C9F800800DE0DFF89C8008F1FE
:100DD0000808D8F8008028EA0008DFF88C9009F1AC
:100DE0000809C9F80080D1F8048008F40018B8F5A3
:100DF000001F0ED1DFF8708008F10C08D8F80080D1
:100E000048EA0008DFF8609009F10C09C9F8008091
:100E10000DE0DFF8548008F10C08D8F8008028EACB
:100E20000008DFF8449009F10C09C9F800805B1C48
:100E3000D1F8008028FA03F8B8F1000F7FF47CAEF7
:100E4000BDE8F887000011100010024000080140C2
:100E5000000C014000100140001401400018014046
:100E6000001C014008000140000401400246936854
:100E70000B400BB1012000E0002070470AB1016176
:100E800001E00B04036170470148006870470000EF
:100E90000400002003480068034909780844014918
:100EA00008607047040000200C00002010B50848BE
:100EB000006840F0100006490860052000F080F846
:100EC0000F2000F007F800F02BF8002010BD000004
:100ED0000020024070B504460E4800784FF47A7145
:100EE000B1FBF0F00C490968B1FBF0F5284601F0C0
:100EF000DFFA08B1012070BD102C07D20022214674
:100F0000501E00F01EF80548046001E00120F2E7E1
:100F10000020F0E70C000020000000200800002066
:100F2000704701460846002809DB00F01F03012234
:100F30009A4043099B0003F1E023C3F8002100BF5E
:100F400070472DE9F05F80460D461646002706F0F3
:100F5000C1FF074639462A46334601F00700C0F173
:100F6000070ABAF1040F02D94FF0040A01E0C0F1F8
:100F7000070AD14600F1040ABAF1070F02D24FF076
:100F8000000A01E0A0F1030AD4464FF0010A0AFA70
:100F900009FAAAF1010A0AEA020A0AFA0CFA4FF05F
:100FA000010B0BFA0CFBABF1010B0BEA030B4AEA4A
:100FB0000B042146404606F095FFBDE8F09F000077
:100FC00000BF00F00702064B19684FF6FF031940F7
:100FD000044B0B4343EA0221014B196000BF7047E9
:100FE0000CED00E00000FA0570B504460D460CB9A2
:100FF000012070BD5A48006800F00700A8420ED2D8
:101000005748006820F00700284355490860084603
:10101000006800F00700A84201D00120E9E720782D
:1010200000F0020002281DD1207800F004000428FE
:1010300005D14C48406840F4E0604A494860207857
:1010400000F00800082805D14648406840F4605088
:10105000444948604348406820F0F000A1680843D4
:1010600040494860207800F0010078B360680128AA
:1010700006D13C48006800F4003090B90120B8E780
:101080006068022806D13748006800F0007040B957
:101090000120AEE73348006800F0020008B90120E3
:1010A000A7E73048406820F00300616808432D49F5
:1010B0004860FFF7E9FE064609E0FFF7E5FE801B02
:1010C00041F28831884202D9032092E707E025489F
:1010D000406800F00C006168B0EB810FEDD1204852
:1010E000006800F00700A8420ED91D48006820F0F3
:1010F000070028431A4908600846006800F0070006
:10110000A84201D0012074E7207800F004000428F0
:1011100007D11448406820F4E060E16808431149B1
:101120004860207800F00800082808D10D48406881
:1011300020F46050216940EAC1000A49486000F08B
:101140003FF808494968C1F30311074A515CC84098
:101150000649086006480068FFF7BCFE002048E723
:101160000020024000100240F4BF000800000020F0
:1011700008000020014800687047000000000020BF
:1011800000B5FFF7F7FF04494968C1F30221034A9C
:10119000515CC84000BD00000010024004C00008BF
:1011A00000B5FFF7E7FF04494968C1F3C221034ACC
:1011B000515CC84000BD00000010024004C000089F
:1011C000F0B585B00FF26C0C9CE8E01001A8A0E827
:1011D000E0101CA52D6800950021002200230024AA
:1011E0000020194D696801F00C05F5B1042D02D0FD
:1011F000082D19D101E0154819E001ADC1F383466E
:10120000AC5D01F4803555B10F4D6D68C5F34045B7
:101210001DF805200D4D6543B5FBF2F302E00C4DC2
:1012200004FB05F3184602E000BF084800BF00BFFA
:1012300005B0F0BD02030405060708090A0B0C0DF2
:101240000E0F1010010200000010024000127A0080
:1012500000093D00F8B504460CB90120F8BD20781E
:1012600000F00100002878D0F848406800F00C0039
:1012700004280CD0F548406800F00C00082811D173
:10128000F248406800F48030B0F5803F0AD1EF4862
:10129000006800F4003000285FD0606800285CD14E
:1012A0000120DBE700BF6068B0F5803F06D1E7486A
:1012B000006840F48030E549086028E0606858B96B
:1012C000E248006820F48030E04908600846006881
:1012D00020F4802008601AE06068B0F5A02F0BD1E0
:1012E000DA48006840F48020D84908600846006861
:1012F00040F4803008600AE0D448006820F4803070
:10130000D24908600846006820F48020086000BFC9
:10131000606888B1FFF7B8FD054606E0FFF7B4FD49
:10132000401B642801D9032098E7C848006800F4EE
:1013300000300028F2D010E0FFF7A6FD054606E0D9
:10134000FFF7A2FD401B642801D9032086E7BF48B0
:10135000006800F400300028F2D1207800F002008C
:10136000022857D1B948406800F00C0050B1B74886
:10137000406800F00C00082818D1B448406800F418
:10138000803098B9B148006800F0020020B12069AF
:10139000012801D0012061E7AC48006820F0F80086
:1013A000616940EAC100A949086033E02069E8B1F9
:1013B0000120A7490860FFF767FD054606E0FFF733
:1013C00063FD401B022801D9032047E79F480068BE
:1013D00000F002000028F2D09C48006820F0F800DD
:1013E000616940EAC1009949086013E0002098490A
:1013F0000860FFF749FD054606E0FFF745FD401B85
:10140000022801D9032029E79048006800F0020073
:101410000028F2D1207800F0080008282DD1A0691A
:10142000B8B101208B490860FFF72EFD054606E0A4
:10143000FFF72AFD401B022801D903200EE783484D
:10144000406A00F002000028F2D0012004F0FAFA0D
:1014500013E000207F490860FFF716FD054606E00F
:10146000FFF712FD401B022801D90320F6E677485A
:10147000406A00F002000028F2D1207800F0040059
:10148000042873D100277148C06900F0805070B9FA
:1014900000BF6E48C06940F080506C49C861084682
:1014A000C06900F08050009000BF00BF01276A486B
:1014B000006800F48070B0B96748006840F480703C
:1014C00065490860FFF7E0FC054606E0FFF7DCFC35
:1014D000401B642801D90320C0E65F48006800F47F
:1014E00080700028F2D000BFE068012806D157487C
:1014F000006A40F001005549086227E0E06858B9E9
:101500005248006A20F00100504908620846006A0B
:1015100020F00400086219E0E06805280BD14B4870
:10152000006A40F00400494908620846006A40F039
:10153000010008620AE04548006A20F001004349C2
:1015400008620846006A20F00400086200BFE068F4
:10155000A0B1FFF799FC054609E0FFF795FC401B99
:1015600041F28831884202D9032077E622E03748E9
:10157000006A00F002000028EFD012E0FFF784FCC0
:10158000054608E0FFF780FC401B41F288318842A5
:1015900001D9032062E62D48006A00F0020000280D
:1015A000F0D1012F05D12948C06920F0805027498A
:1015B000C86100BFE069C8B32448406800F00C006F
:1015C000082860D0E069022848D100202049086638
:1015D000FFF75AFC054606E0FFF756FC401B0228C1
:1015E00001D903203AE61948006800F0007000288D
:1015F000F2D1206AB0F5803F07D11448406820F44A
:101600000030A168084311494860D4E90801084343
:101610000E49496821F4741108430C4948600120BF
:101620000B490866FFF730FC054607E03DE0FFF791
:101630002BFC401B022801D903200FE60348006859
:1016400000F000700028F2D02FE0000000100240EF
:1016500000004242800442420070004000201449D1
:101660000866FFF711FC054606E0FFF70DFC401B7E
:10167000022801D90320F1E50E48006800F000704F
:101680000028F2D111E0E069012800D1E6E509481F
:10169000466806F48031206A814204D106F4701154
:1016A000606A814201D00120D8E50020D6E5000023
:1016B000000042420010024070B58AB004460D4658
:1016C000032084F83400606C032820D0B5F5805FD7
:1016D00004D1A06B40F08050A0631CE0B5F5006F12
:1016E00007D1204605F012F80646A06B3043A063F0
:1016F00011E03DB9204604F0D5FF0646A06B30430B
:10170000A06308E0A06B40F00060A06303E0A06B62
:1017100040F08050A063A06B38B110482168886306
:10172000012084F834000AB070BD60680490A0689D
:101730000590E0680690079560690890A069099097
:1017400007A807C88DE80700206804A90EC904F09F
:10175000B2F9012084F834000020E4E7FF054000DE
:1017600010B50246506E800F0870506EC0F3836053
:101770004870506EC0F301608870506E000CC870E5
:10178000B2F86400000A087192F864004871906E23
:10179000000DC880906EC0F3034008726820805A24
:1017A000C0F3C03048726820805AC0F3803088721D
:1017B0006820805AC0F34030C8726820805AC0F355
:1017C0000030087300204873506C002836D1682020
:1017D000805A8005030DD06E43EA90700861D06E88
:1017E000C0F3C2600875D06EC0F302604875D06E59
:1017F000C0F342508875D06EC0F38240C875D06E79
:10180000C0F3C23008760869401C50650B7E506DED
:1018100003F007039B1C01249C4060435065087A39
:1018200000F00F03012098409065D2E915035B0A90
:101830005843D0654FF40073136621E0506C0128C3
:1018400013D16820805C8006830AD06E43EA104082
:1018500008610869401C83025365536DD3654FF4DA
:1018600000739365936D13660AE02E4813689863BE
:10187000906B40F080509063012082F8340010BDDE
:101880006C20805AC0F3803001F8190F6C20805A08
:10189000C0F3C61048706C20805C00F07F00887038
:1018A000106FC00FC870106FC0F341700871106FD7
:1018B000C0F382604871106FC0F383508871106F5D
:1018C000C0F34050C87100200872106FC0F3004090
:1018D00048727020805AC0F3C03088727020805ADD
:1018E000C0F38030C8727020805AC0F34030087353
:1018F0007020805AC0F3003048737020805AC0F3C3
:10190000812088737020805AC0F30120C873702032
:10191000805CC0F346000874012048741939002027
:10192000ADE70000FF0540000246506C0860906C77
:101930004860D06C8860106DC860506D0861906D13
:101940004861D06D8861106EC86100207047F8B59D
:101950000446002000906946204604F08BFE0546B0
:1019600015B1A06B2843A0630098C0F3432630460E
:10197000F8BD10B504460CB9012010BD94F8340030
:1019800020B900202077204600F054F8032084F886
:101990003400204600F00CF808B10120EDE70020EB
:1019A000A0632063012084F834000020E5E70000F4
:1019B00070B58AB004460020049005900690079008
:1019C00008907620099007A807C88DE807002068CE
:1019D00004A90EC904F06FF8064616B101200AB03A
:1019E00070BD002012490860206804F07EF80120D4
:1019F0000F49A039C1F8A000204604F0ABFD054610
:101A00003DB1012084F83400A06B2843A06301207D
:101A1000E5E7204604F01CFD05463DB1012084F8B1
:101A20003400A06B2843A0630120D8E70020D6E74C
:101A3000A000304210B586B0044600BF244840697B
:101A400040F48060224948610846406900F48060A3
:101A5000019000BF00BF00BF0846406940F002008F
:101A600048610846406900F00200019000BF00BFD5
:101A700000BF0846806940F0100088610846806910
:101A800000F01000019000BF00BF00BF0846806951
:101A900040F0200088610846806900F02000019035
:101AA00000BF00BF4FF4F8500290022003900120C5
:101AB00004900320059002A90648FFF737F8042098
:101AC000029002A90448FFF731F806B010BD0000EB
:101AD0000010024000100140001401402DE9F04FB9
:101AE00087B004468A4690461E46DDF840900025A1
:101AF000FFF7CAF90090AB465746BAF1000F07D17D
:101B0000A06B40F00060A063012007B0BDE8F08F3B
:101B100094F8340001287DD10020A06308EB060171
:101B2000E06D814205D9A06B40F00070A0630120F8
:101B3000EBE7032084F8340000202168C862606C61
:101B4000012801D04FEA48284FF40071206804F0C2
:101B50002DF805464DB1704821688863A06B284375
:101B6000A063012084F83400CFE74FF0FF300190EC
:101B700070020290902003900220049000200590B3
:101B80000120069001A9206803F070FF012E07D9FB
:101B9000022020634146206804F070F8054606E004
:101BA000012020634146206804F084F805464DB1C9
:101BB000594821688863A06B2843A063012084F8FA
:101BC0003400A2E729E02068406B00F4004068B1CF
:101BD0004FF0000B06E0206803F090FF47F82B0061
:101BE0000BF1010BBBF1080FF5D32037B9F1000F52
:101BF00005D0FFF749F90099401A48450DD34648EA
:101C000021688863A06B40F00040A063012084F845
:101C1000340000E079E0032077E72068406B40F271
:101C20002A3108400028CED02068406B00F4807034
:101C300098B1012E11D9606C03280ED0206804F0F1
:101C4000F9F805464DB1344821688863A06B2843F4
:101C5000A063012084F8340057E72068406B00F04F
:101C6000080050B12C4821688863A06B40F0080040
:101C7000A063012084F8340047E72068406B00F03F
:101C8000020050B1244821688863A06B40F0020034
:101C9000A063012084F8340037E72068406B00F02F
:101CA000200050B11C4821688863A06B40F02000E0
:101CB000A063012084F8340027E718E0206803F0CF
:101CC0001DFF38603F1DB9F1000F05D0FFF7DCF8AC
:101CD0000099401A48450AD30F4821688863A06BD1
:101CE00040F00040A063012084F834000DE7206834
:101CF000406B00F400100028E0D107482168886399
:101D0000012084F834000020FFE6A06B40F0005072
:101D1000A0630120F9E60000FF0540002DE9F04F27
:101D200087B00446884617461E46DDF840B00025B9
:101D3000FFF7AAF80090A946C246B8F1000F07D1F4
:101D4000A06B40F00060A063012007B0BDE8F08FF9
:101D500094F8340001287BD10020A063B919E06D0C
:101D6000814205D9A06B40F00070A0630120ECE730
:101D7000032084F8340000202168C862606C0128C8
:101D800000D07F024FF40071206803F00FFF05467A
:101D90004DB15F4821688863A06B2843A063012090
:101DA00084F83400D1E7012E07D92020206339467A
:101DB000206804F05DF8054606E0102020633946EF
:101DC000206804F071F805464DB1514821688863D8
:101DD000A06B2843A063012084F83400B5E74FF0DE
:101DE000FF30019070020290902003900020049038
:101DF00005900120069001A9206803F037FE28E035
:101E00002068406B00F4804070B14FF0000906E09C
:101E10000AEB8901206803F089FE09F10109B9F193
:101E2000080FF5D30AF1200ABBF1000F05D0FFF728
:101E30002BF80099401A58450BD335482168886320
:101E4000A06B2843A063012084F8340003207CE7C2
:101E500057E02068406B40F21A3108400028CFD08C
:101E60002068406B00F4807098B1012E11D9606C2D
:101E700003280ED0206803F0DDFF05464DB124484D
:101E800021688863A06B2843A063012084F8340094
:101E90005BE72068406B00F0080050B11C482168E7
:101EA0008863A06B40F00800A063012084F8340030
:101EB0004BE72068406B00F0020050B114482168E5
:101EC0008863A06B40F00200A063012084F8340016
:101ED0003BE72068406B00F0100050B10C482168CF
:101EE0008863A06B40F01000A063012084F83400E8
:101EF0002BE7074821688863012084F8340000201C
:101F000023E7A06B40F00050A06301201DE7000014
:101F1000FF05400010B504460CB9012010BD606AF1
:101F200000B900BFA06AB0F5005F00D100BF94F80F
:101F3000510028B9002084F85000204600F038F8FD
:101F4000022084F851002068006820F040002168D9
:101F50000860D4E901010843E168084321690843A6
:101F600061690843218B01F400710843E16908436A
:101F7000216A0843A16A0843216808600421A06916
:101F800001EA104021684860A06AB0F5005F02D104
:101F90002168E06A08612068C06920F40060216857
:101FA000C86100206065012084F851000020B5E779
:101FB00010B586B004462D492068884228D100BF5C
:101FC0002B48806940F008002949886108468069EB
:101FD00000F00800019000BF00BF00BF0846C069C4
:101FE00040F48040C8610846C06900F48040019018
:101FF00000BF00BF4FF46040029002200390012018
:1020000004900320059002A91A48FEF78FFD2AE0EC
:1020100019492068884226D100BF1548806940F0E0
:102020000400134988610846806900F004000190AB
:1020300000BF00BF00BF0846806940F4805088613F
:102040000846806900F48050019000BF00BFE02086
:10205000029002200390012004900320059002A921
:102060000648FEF763FD06B010BD000000380040D2
:1020700000100240000C0140003001400008014007
:102080002DE9FF5F0446884691461D460E9E0120BD
:1020900002900020019000BF94F85000012803D165
:1020A000022004B0BDE8F09F012084F8500000BF7A
:1020B000FEF7EAFE074694F851B060680390AA461E
:1020C000BBF1010F0BD00398B0F5827F04D1A0685B
:1020D00010B9BBF1040F02D0022001903DE1B8F12C
:1020E000000F03D0B9F1000F00D015B90120019005
:1020F00033E194F85100042802D0052084F85100FF
:1021000000206065C4F83890E587A587C4F8308062
:10211000E586A58620646064A06AB0F5005F0DD1F5
:1021200000BF2068006820F4005021680860206823
:10213000006840F400502168086000BF2068006813
:1021400000F04000402805D02068006840F04000C2
:1021500021680860E068B0F5006F56D1606810B182
:10216000BAF1010F09D1206B00882168C860206B8B
:10217000801C2063E08E401EE0863FE0206880687F
:1021800000F0020002281CD1E08ED0B10298012894
:1021900017D1206B00882168C860206B801C2063E9
:1021A000E08E401EE08600200290E08E48B9A06AD2
:1021B000B0F5005F05D12068006840F480502168C8
:1021C00008602068806800F0010068B1E08F58B1B5
:1021D0002068C068A16B0880A06B801CA063E08FA2
:1021E000401EE08701200290FEF74EFEC01BB04269
:1021F00004D3701C10B103200190AEE0E08E0028E3
:10220000BCD1E08F0028B9D156E0606810B1BAF1B6
:10221000010F09D1206B007821680873206B401CE6
:102220002063E08E401EE08640E02068806800F079
:10223000020002281CD1E08ED0B10298012817D1EB
:10224000206B007821680873206B401C2063E08EAF
:10225000401EE08600200290E08E48B9A06AB0F5EA
:10226000005F05D12068006840F480502168086054
:102270002068806800F0010068B1E08F58B12068E4
:10228000C068A16B0870A06B401CA063E08F401E6B
:10229000E08701200290FEF7F7FDC01BB04201D39A
:1022A000701C00B916B90320019056E0E08E00289A
:1022B000BBD1E08F0028B8D1A06AB0F5005F10D183
:1022C0003346012211462046009704F054FB30B1FA
:1022D000606D40F002006065032001903DE02068E1
:1022E000C06820688068C0F30010E8B1204604F0A0
:1022F0003FFB012814D1606D40F00200606500BF13
:102300002068006820F40050216808602068006898
:1023100040F400502168086000BF0120019003E0F4
:102320004FF6EF70216888603A463146204604F047
:102330000BFB20B101200190202060650DE0A0681A
:1023400050B900BF002000902068C068009020684D
:102350008068009000BF00BF00BF012084F85100DA
:1023600000BF002084F8500000BF019899E670B5C6
:1023700004460E4615460CB9012070BD94F8410084
:1023800028B9002084F84000204600F01FF804F12E
:1023900008012068FEF718FA3146A2682068FEF7A7
:1023A0004BFA2946236BD4E90102FEF7EBF9A16849
:1023B000206850F8210040F00100A268216841F82F
:1023C0002200012084F841000020D6E710B586B035
:1023D000044600BF2848406940F48070264948619F
:1023E0000846406900F48070019000BF00BF00BF44
:1023F0000846806940F0200088610846806900F046
:102400002000019000BF00BF00BF0846806940F077
:10241000400088610846806900F04000019000BFDC
:1024200000BF00BF0846806940F48070886108469C
:10243000806900F48070019000BF00BF4CF23370DF
:10244000029002200390012004900320059002A92D
:102450000A48FEF76BFB4FF68070029002A908480D
:10246000FEF764FB41F20100029002A90548FEF765
:102470005DFB06B010BD00000010024000140140DA
:102480000018014000200140042808D14FF0E0214D
:10249000096941F004014FF0E022116107E04FF0BB
:1024A000E021096921F004014FF0E0221161704739
:1024B00070B504462546681EB0F1807F01D3012027
:1024C0000FE0681E4FF0E02148610F214FF0FF3010
:1024D00005F008FD00204FF0E02188610720086129
:1024E000002070BD2DE9F04104460D46164600BFA0
:1024F00094F83C00012802D10220BDE8F0810120BF
:1025000084F83C0000BF022084F83D0096B9EB68D7
:10251000D5E90012206804F0C7FC2068806920F02B
:102520000C002168886120688069A96808432168D7
:1025300088613DE0042E13D1EB68D5E900122068D4
:1025400004F0F0FC2068806920F440602168886114
:1025500020688069A96840EA01202168886127E035
:10256000082E12D1EB68D5E90012206804F0F7FCC0
:102570002068C06920F00C002168C8612068C0692B
:10258000A96808432168C86112E0EB68D5E9001228
:10259000206804F000FD2068C06920F440602168D4
:1025A000C8612068C069A96840EA01202168C86143
:1025B000012084F83D0000BF002084F83C0000BFEB
:1025C00000BF9AE710B504460CB9012010BD94F87D
:1025D0003D0028B9002084F83C00204600F00CF8AB
:1025E000022084F83D00211D206804F0FDFB01203D
:1025F00084F83D000020E9E710B586B0044600BF2E
:102600001348C06940F008001149C8610846C06914
:1026100000F00800019000BF00BF00BF08468069BD
:1026200040F0040088610846806900F004000190D1
:1026300000BF00BF022002900020039004900320FE
:10264000059002A90348FEF771FA06B010BD00001C
:10265000001002400008014070B504460D460122FA
:102660002946206804F00EFC2068806800F0070608
:10267000062E05D02068006840F00100216808603F
:10268000002070BD0246002031B1042907D008297E
:1026900008D00C290CD108E01368586B09E01368C6
:1026A000986B06E01368D86B03E01368186C00E0C1
:1026B00000BF00BF7047704701460022002391F819
:1026C000392091F83A3042EA030070472DE9F0478B
:1026D0000446206805682068C668206847694FF08E
:1026E0000008C14605F00F08B8F1000F0AD105F047
:1026F000200038B106F0200020B1204604F09EFDF5
:10270000BDE8F087B8F1000F6DD007F0010018B9EF
:1027100006F49070002866D005F0010030B106F490
:10272000807018B1E06B40F00100E06305F0040038
:1027300030B107F0010018B1E06B40F00200E06337
:1027400005F0020030B107F0010018B1E06B40F075
:102750000400E06305F0080030B107F0010018B193
:10276000E06B40F00800E063E06B68B305F0200028
:1027700028B106F0200010B1204604F05FFD20686B
:102780004069C0F38019E06B00F0080010B9B9F19E
:10279000000F22D0204604F031FD2068406900F08F
:1027A0004000B0B12068406920F0400021684861D5
:1027B000606B50B11748616B4863606BFEF7CEF8F1
:1027C00010B1606B416B88470CE02046FFF773FF48
:1027D00008E02046FFF76FFF04E02046FFF76BFF9D
:1027E0000020E0638CE705F0800030B106F0800047
:1027F00018B1204604F046FE82E705F0400030B1F3
:1028000006F0400018B1204604F008FD78E700BF4C
:1028100076E70000E971000810B504460CB9012004
:1028200010BDA06900B100E000BF94F8390028B9DC
:10283000002084F83800204600F028F8242084F88E
:1028400039002068C06820F400502168C860204624
:1028500004F048FD2068006920F490402168086178
:102860002068406920F02A00216848612068C0681B
:1028700040F400502168C8600020E063202084F804
:10288000390084F83A000020CAE7000010B586B08D
:10289000044625492068884244D100BF2348806906
:1028A00040F00400214988610846806900F0040076
:1028B000019000BF00BF00BF0846806940F480401F
:1028C00088610846806900F48040019000BF00BF25
:1028D00000BF0846806940F00100886108468069B1
:1028E00000F00100019000BF00BF481502900220D7
:1028F0000390012004900320059002A90C48FEF7E4
:1029000015F94FF4806002900020039002A9084856
:10291000FEF70CF92520FEF704FB032211462520C3
:10292000FEF70FFB06B010BD00380140001002405A
:102930000008014010B5034693F83A0020282FD133
:1029400001B10AB9012010BD00BF93F83800012879
:1029500001D10220F7E7012083F8380000BF996217
:102960009A85DA850020D863222083F83A0000BFD8
:10297000002083F8380000BF1868C06840F48070F9
:102980001C68E0601868406940F001001C686061E4
:102990001868C06840F020001C68E0600020D2E7A2
:1029A0000220D0E71D4A0168914236D11C490988AE
:1029B00001F4004189BB1A49098801F4804171B1D1
:1029C000184909780A2903D00021154A118024E00A
:1029D0001349098841F40041114A11801DE0114951
:1029E00009780D2906D10E49098841F480410C4A25
:1029F000118012E00B490978094A1288C2F30D02CE
:102A0000094B995406490988491C054A1180114609
:102A10000988C72901DD0021118070470038014075
:102A2000180000201A00002078000020704700BF26
:102A3000FEE772B6704762B67047000000B585B019
:102A400000BF1A48806940F00400184988610846B0
:102A5000806900F00400009000BF00BF00BF08467E
:102A6000806940F0400088610846806900F04000BD
:102A7000009000BF00BF01200190002002900220C2
:102A800003900320049001A90948FEF74FF81C2089
:102A9000019000200290012003900320049001A9DE
:102AA0000448FEF743F805B000BD000000100240E6
:102AB000000801400018014010B50446012C01D166
:102AC0002C4908702B480078002837D010212A485C
:102AD000FEF7CCF978B108212748FEF7C7F950B1C5
:102AE00004212548FEF7C2F928B101212348FEF749
:102AF000BDF9012822D10A2005F066FD00201D49FC
:102B0000087010211C48FEF7B1F908B9012010BD6A
:102B100008211948FEF7AAF908B90220F7E70421AD
:102B20001548FEF7A3F908B90320F0E7012113487F
:102B3000FEF79CF901281BD10420E8E710210E487C
:102B4000FEF794F9012813D108210B48FEF78EF9FE
:102B500001280DD104210848FEF788F9012807D182
:102B600001210648FEF782F910B9012001490870D9
:102B70000020CCE72400002000180140000801409C
:102B800070B5044600260948058840884543002161
:102B9000084602F01DFD02F0FFFE00BF02E00449FE
:102BA0000C80761CAE42FAD370BD0000C801002034
:102BB0000008006C10B5044655488471002C51D1B2
:102BC000F020534908804FF4A07048800846808860
:102BD00049F24131884205D04D48808845F2103194
:102BE000884214D12C204A4908812A2048812B2070
:102BF00088810846808845F21031884206D14FF41A
:102C0000A070434908804FF4F07048807BE0404852
:102C1000808845F21051884210D14FF430503C4921
:102C200008814FF4285048814FF42C5088814FF48C
:102C3000F07008804FF44870488064E03448808821
:102C400041F6631188425ED12C20314908812B2046
:102C500048812A2088814FF4F07008804FF4487032
:102C6000488050E04FF4A07029490880F020488047
:102C70000846808849F24131884205D0244880883E
:102C800045F21031884207D12C20214908812A20A1
:102C900048812B20888129E01D48808845F2105109
:102CA000884210D14FF43050194908814FF4285010
:102CB00048814FF42C5088814FF4487008804FF4BD
:102CC000F070488012E01248808841F66311884213
:102CD0000CD12C200E4908812A2048812B20888184
:102CE0004FF4487008804FF4F0704880084880889E
:102CF00045F21031884206D14FF4F0700449088043
:102D00004FF4A0704880002002F028FB10BD0000A6
:102D1000C801002030B504460D463E48808849F27F
:102D20004131884205D03B48808845F210318842C5
:102D300014D13849488902F023FE201202F014FE13
:102D4000E0B202F011FE3349888902F019FE281220
:102D500002F00AFEE8B202F007FE54E02D48808837
:102D600045F21051884220D12A49488902F008FED4
:102D7000201202F0F9FD27494989491C88B202F066
:102D8000FFFDE0B202F0F0FD2249888902F0F8FD73
:102D9000281202F0E9FD1F498989491C88B202F016
:102DA000EFFDE8B202F0E0FD2DE01A48808841F620
:102DB0006311884227D11748807920B915480088C7
:102DC000401E001B84B21349488902F0D9FD20122D
:102DD00002F0CAFDE0B202F0C7FD201202F0C4FD0D
:102DE000E0B202F0C1FD0B49888902F0C9FD28124A
:102DF00002F0BAFDE8B202F0B7FD281202F0B4FD0D
:102E0000E8B202F0B1FD0348008903490880891C3B
:102E10000A8030BDC8010020FE07006C2DE9F04F8C
:102E200005460E4617469846DDF824A04FF0000BE5
:102E3000781B401C1FFA80FB344613E021462846CD
:102E400002F0C6FB02F0A8FD4FF0000906E00749BA
:102E5000A1F800A009F101001FFA80F9D945F6DBBD
:102E6000601C84B24445E9DDBDE8F08F0008006CC9
:102E700000B593B000BFFE48806940F00800FC49EF
:102E800088610846806900F00800009000BF00BF1C
:102E900001200F9010901190032012900FA9F54877
:102EA000FDF744FE4FF02040F3490860F3484860C6
:102EB000062088600021F048C16001611021416155
:102EC00000218161C16141624FF480518162002122
:102ED000C1624FF480410163002141638163062098
:102EE0000890002009901A200A9000200E9004906B
:102EF00003200190002002900620039000200790FC
:102F000001AA08A9DC48FFF732FA322005F05CFB81
:102F1000D32002F035FD02F0EDF9D949888002F0A6
:102F2000E9F9D749888002F0E5F9D5498880084653
:102F300080884FF6FF7101EA0020D149888002F0B5
:102F4000D9F9CF4989880843CD49888008468088C7
:102F500049F24131884278D0D42002F011FD02F0CC
:102F6000C9F9C749888002F0C5F9C549888002F0CF
:102F7000C1F9C3498880084680884FF6FF7101EA8D
:102F80000020BF49888002F0B5F9BD49898808430F
:102F9000BB4988800846808845F21031884254D069
:102FA0004FF45A4002F0ECFC02F0A4F9B4498880D6
:102FB0004FF45B4002F0E4FC02F09CF9B0498880D9
:102FC000084680884FF6FF7101EA0020AC498880EE
:102FD0004FF45C4002F0D4FC02F08CF9A8498988D7
:102FE0000843A749888008468088B0F5004F02D181
:102FF00045F210508880A248808845F210518842DE
:1030000023D0A12002F0BCFC02F074F99C49888016
:1030100002F070F99A498880084680884FF6FF715F
:1030200001EA00209649888002F064F99449898871
:103030000843934988800846808845F26171884238
:1030400003D141F663108E4988808D4881888DA018
:10305000FDF75CF98A48808849F2413188427CD189
:10306000CF2002F08DFC002002F07EFCC12002F097
:103070007BFC302002F078FCED2002F081FC642023
:1030800002F072FC032002F06FFC122002F06CFCD4
:10309000812002F069FCE82002F072FC852002F039
:1030A00063FC102002F060FC7A2002F05DFCCB2073
:1030B00002F066FC392002F057FC2C2002F054FC90
:1030C000002002F051FC342002F04EFC022002F0FD
:1030D0004BFCF72002F054FC202002F045FCEA20D3
:1030E00002F04EFC002002F03FFC002002F03CFC0D
:1030F000C02002F045FC1B2002F036FCC12002F08B
:103100003FFC012002F030FCC52002F039FC3020E9
:1031100002F02AFC302002F027FCC72002F030FC2D
:10312000B72002F021FC362002F02AFC482002F0F1
:103130001BFC3A2002F024FC552002F015FCB120C3
:1031400002F01EFC002002F00FFC1A2002F00CFC22
:10315000B62002F015FC0A2000E0ACE002F004FC0E
:10316000A22002F001FCF22002F00AFC002002F092
:10317000FBFB262002F004FC012002F0F5FBE0201E
:1031800002F0FEFB0F2002F0EFFB2A2002F0ECFB26
:10319000282002F0E9FB082002F0E6FB0E2002F0F6
:1031A000E3FB082002F0E0FB542002F0DDFBA92045
:1031B00002F0DAFB432002F0D7FB0A2002F0D4FB36
:1031C0000F2002F0D1FB002002F0CEFB002002F025
:1031D000CBFB002002F0C8FB002002F0C5FBE12081
:1031E00002F0CEFB002002F0BFFB152002F0BCFB7A
:1031F000172002F0B9FB072002F0B6FB112002F005
:10320000B3FB062002F0B0FB2B2002F0ADFB5620F2
:1032100002F0AAFB3C2002F0A7FB052002F0A4FB71
:10322000102002F0A1FB0F2002F09EFB3F2002F0D5
:103230009BFB3F2002F098FB0F2002F095FB2B2018
:1032400002F09EFB002002F08FFB002002F08CFBBE
:10325000012002F089FB3F2002F086FB2A2002F0C9
:103260008FFB002002F080FB002002F07DFB11E0CC
:1032700000100240000C014080010020040100A069
:10328000C8010020204C43442049443A25780D0AC7
:1032900000000000002002F067FBEF2002F064FB5A
:1032A000112002F06DFB782005F08EF9292002F044
:1032B00067FB01F0CBBFFE48808845F210318842A1
:1032C00040F07C87ED2002F05BFB012002F04CFB1C
:1032D000FE2002F049FBEE2002F052FBDE2002F05D
:1032E00043FB212002F040FBF12002F049FB0120CA
:1032F00002F03AFBDF2002F043FB102002F034FB27
:10330000C42002F03DFB8F2002F02EFBC62002F00D
:1033100037FB002002F028FBE22002F025FBE22030
:1033200002F022FBE22002F01FFBBF2002F028FB8C
:10333000AA2002F019FBB02002F022FB0D2002F0BF
:1033400013FB002002F010FB0D2002F00DFB00200B
:1033500002F00AFB112002F007FB002002F004FB40
:10336000192002F001FB002002F0FEFA212002F0F9
:10337000FBFA002002F0F8FA2D2002F0F5FA002006
:1033800002F0F2FA3D2002F0EFFA002002F0ECFA2F
:103390005D2002F0E9FA002002F0E6FA5D2002F07A
:1033A000E3FA002002F0E0FAB12002F0E9FA80200E
:1033B00002F0DAFA002002F0D7FA8B2002F0D4FAF9
:1033C000002002F0D1FA962002F0CEFA002002F09E
:1033D000CBFAB22002F0D4FA002002F0C5FA0020A5
:1033E00002F0C2FA022002F0BFFA002002F0BCFA9A
:1033F000032002F0B9FA002002F0B6FAB32002F07E
:10340000BFFA002002F0B0FA002002F0ADFA00206E
:1034100002F0AAFA002002F0A7FA002002F0A4FAB3
:10342000002002F0A1FA002002F09EFA002002F033
:103430009BFA002002F098FA002002F095FA002092
:1034400002F092FA002002F08FFA002002F08CFACB
:10345000002002F089FA002002F086FA002002F033
:1034600083FA002002F080FA002002F07DFA0020AA
:1034700002F07AFA002002F077FA002002F074FAE3
:10348000002002F071FA002002F06EFA002002F033
:103490006BFAB42002F074FA8B2002F065FA002077
:1034A00002F062FA962002F05FFA002002F05CFA65
:1034B000A12002F059FA002002F056FAB52002F0DD
:1034C0005FFA022002F050FA002002F04DFA0320C9
:1034D00002F04AFA002002F047FA042002F044FA0F
:1034E000002002F041FAB62002F04AFA002002F071
:1034F0003BFA002002F038FAB72002F041FA00202F
:1035000002F032FA002002F02FFA3F2002F02CFAEB
:10351000002002F029FA5E2002F026FA002002F0D4
:1035200023FA642002F020FA002002F01DFA8C2019
:1035300002F01AFA002002F017FAAC2002F014FA96
:10354000002002F011FADC2002F00EFA002002F056
:103550000BFA702002F008FA002002F005FA902021
:1035600002F002FA002002F0FFF9EB2002F0FCF971
:10357000002002F0F9F9DC2002F0F6F9002002F058
:10358000F3F9B82002F0FCF9002002F0EDF9002078
:1035900002F0EAF9002002F0E7F9002002F0E4F975
:1035A000002002F0E1F9002002F0DEF9002002F034
:1035B000DBF9002002F0D8F9BA2002F0E1F924206A
:1035C00002F0D2F9002002F0CFF9002002F0CCF98D
:1035D000002002F0C9F9C12002F0D2F9202002F047
:1035E000C3F9002002F0C0F9542002F0BDF9002018
:1035F00002F0BAF9FF2002F0B7F9002002F0B4F9A6
:10360000C22002F0BDF90A2002F0AEF9002002F05B
:10361000ABF9042002F0A8F9002002F0A5F9C320BC
:1036200002F0AEF93C2002F09FF9002002F09CF974
:103630003A2002F099F9002002F096F9392002F0C0
:1036400093F9002002F090F9372002F08DF9002064
:1036500002F08AF93C2002F087F9002002F084F998
:10366000362002F081F9002002F07EF9322002F0CB
:103670007BF9002002F078F92F2002F075F9002084
:1036800002F072F92C2002F06FF9002002F06CF9C0
:10369000292002F069F9002002F066F9262002F0E4
:1036A00063F9002002F060F9242002F05DF901E0E6
:1036B000C8010020002002F057F9242002F054F93C
:1036C000002002F051F9232002F04EF9002002F010
:1036D0004BF93C2002F048F9002002F045F9362071
:1036E00002F042F9002002F03FF9322002F03CF9EA
:1036F000002002F039F92F2002F036F9002002F004
:1037000033F92C2002F030F9002002F02DF92920A5
:1037100002F02AF9002002F027F9262002F024F90D
:10372000002002F021F9242002F01EF9002002F00E
:103730001BF9242002F018F9002002F015F92320CB
:1037400002F012F9002002F00FF9C42002F018F97B
:10375000622002F009F9002002F006F9052002F0CB
:1037600003F9002002F000F9842002F0FDF80020A7
:1037700002F0FAF8F02002F0F7F8002002F0F4F876
:10378000182002F0F1F8002002F0EEF8A42002F078
:10379000EBF8002002F0E8F8182002F0E5F800202D
:1037A00002F0E2F8502002F0DFF8002002F0DCF82E
:1037B0000C2002F0D9F8002002F0D6F8172002F011
:1037C000D3F8002002F0D0F8952002F0CDF80020C8
:1037D00002F0CAF8F32002F0C7F8002002F0C4F8A3
:1037E000E62002F0C1F8002002F0BEF8C52002F089
:1037F000C7F8322002F0B8F8002002F0B5F84420F3
:1038000002F0B2F8002002F0AFF8652002F0ACF848
:10381000002002F0A9F8762002F0A6F8002002F0BD
:10382000A3F8882002F0A0F8002002F09DF8C6203E
:1038300002F0A6F8202002F097F8002002F094F899
:10384000172002F091F8002002F08EF8012002F01B
:103850008BF8002002F088F8C72002F091F80020D1
:1038600002F082F8002002F07FF8002002F07CF8DD
:10387000002002F079F8C82002F082F8002002F05F
:1038800073F8002002F070F8002002F06DF80020BC
:1038900002F06AF8C92002F073F8002002F064F820
:1038A000002002F061F8002002F05EF8002002F033
:1038B0005BF8002002F058F8002002F055F80020D4
:1038C00002F052F8002002F04FF8002002F04CF80D
:1038D000002002F049F8002002F046F8002002F033
:1038E00043F8002002F040F8002002F03DF80020EC
:1038F00002F03AF8002002F037F8E02002F040F839
:10390000162002F031F8002002F02EF81C2002F000
:103910002BF8002002F028F8212002F025F80020E2
:1039200002F022F8362002F01FF8002002F01CF806
:10393000462002F019F8002002F016F8522002F09A
:1039400013F8002002F010F8642002F00DF80020B7
:1039500002F00AF87A2002F007F8002002F004F8DA
:103960008B2002F001F8002001F0FEFF992001F009
:10397000FBFF002001F0F8FFA82001F0F5FF002078
:1039800001F0F2FFB92001F0EFFF002001F0ECFFA1
:10399000C42001F0E9FF002001F0E6FFCA2001F099
:1039A000E3FF002001F0E0FFD22001F0DDFF002066
:1039B00001F0DAFFD92001F0D7FF002001F0D4FF99
:1039C000E02001F0D1FF002001F0CEFFF32001F054
:1039D000CBFF002001F0C8FFE12001F0D1FF16204D
:1039E00001F0C2FF002001F0BFFF1C2001F0BCFF6E
:1039F000002001F0B9FF222001F0B6FF002001F005
:103A0000B3FF362001F0B0FF002001F0ADFF4520EC
:103A100001F0AAFF002001F0A7FF522001F0A4FF4F
:103A2000002001F0A1FF642001F09EFF002001F0C2
:103A30009BFF7A2001F098FF002001F095FF8B207A
:103A400001F092FF002001F08FFF992001F08CFF20
:103A5000002001F089FFA82001F086FF002001F07E
:103A600083FFB92001F080FF002001F07DFFC4201A
:103A700001F07AFF002001F077FFCA2001F074FF07
:103A8000002001F071FFD22001F06EFF002001F054
:103A90006BFFD82001F068FF002001F065FFE020F7
:103AA00001F062FF002001F05FFFF32001F05CFFF6
:103AB000002001F059FFE22001F062FF052001F033
:103AC00053FF002001F050FF0B2001F04DFF0020BC
:103AD00001F04AFF1B2001F047FF002001F044FFE6
:103AE000342001F041FF002001F03EFF442001F0AE
:103AF0003BFF002001F038FF4F2001F035FF002090
:103B000001F032FF612001F02FFF002001F02CFFB7
:103B1000792001F029FF002001F026FF882001F024
:103B200023FF002001F020FF972001F01DFF00205F
:103B300001F01AFFA62001F017FF002001F014FF8A
:103B4000B72001F011FF002001F00EFFC22001F0AC
:103B50000BFF002001F008FFC72001F005FF002047
:103B600001F002FFD12001F0FFFE002001F0FCFE79
:103B7000D62001F0F9FE002001F0F6FEDD2001F074
:103B8000F3FE002001F0F0FEF32001F0EDFE002036
:103B900001F0EAFEE32001F0F3FE052001F0E4FE6F
:103BA000002001F0E1FE0A2001F0DEFE002001F01D
:103BB000DBFE1C2001F0D8FE002001F0D5FE3320F2
:103BC00001F0D2FE002001F0CFFE442001F0CCFE37
:103BD000002001F0C9FE502001F0C6FE002001F0D7
:103BE000C3FE622001F0C0FE002001F0BDFE78207F
:103BF00001F0BAFE002001F0B7FE882001F0B4FE0B
:103C0000002001F0B1FE972001F0AEFE002001F08F
:103C1000ABFEA62001F0A8FE002001F0A5FEB72013
:103C200001F0A2FE002001F09FFEC22001F09CFEE8
:103C3000002001F099FEC72001F096FE002001F05F
:103C400093FED12001F090FE002001F08DFED520E2
:103C500001F08AFE002001F087FEDD2001F084FEE5
:103C6000002001F081FEF32001F07EFE002001F033
:103C70007BFEE42001F084FE012001F075FE0020AF
:103C800001F072FE012001F06FFE002001F06CFED9
:103C9000022001F069FE002001F066FE2A2001F0FA
:103CA00063FE002001F060FE3C2001F05DFE00207C
:103CB00001F05AFE4B2001F057FE002001F054FEA7
:103CC0005D2001F051FE002001F04EFE742001F055
:103CD0004BFE002001F048FE842001F045FE00204C
:103CE00001F042FE932001F03FFE002001F03CFE77
:103CF000A22001F039FE002001F036FEB32001F0D1
:103D000033FE002001F030FEBE2001F02DFE002029
:103D100001F02AFEC42001F027FE002001F024FE5D
:103D2000CD2001F021FE002001F01EFED32001F085
:103D30001BFE002001F018FEDD2001F015FE002022
:103D400001F012FEF32001F00FFE002001F00CFE46
:103D5000E52001F015FE002001F006FE002001F034
:103D600003FE002001F000FE002001F0FDFD022016
:103D700001F0FAFD002001F0F7FD292001F0F4FD2B
:103D8000002001F0F1FD3C2001F0EEFD002001F0EB
:103D9000EBFD4B2001F0E8FD002001F0E5FD5D208A
:103DA00001F0E2FD002001F0DFFD742001F0DCFDF8
:103DB000002001F0D9FD842001F0D6FD002001F0A3
:103DC000D3FD932001F0D0FD002001F0CDFDA22015
:103DD00001F0CAFD002001F0C7FDB32001F0C4FDD1
:103DE000002001F0C1FDBE2001F0BEFD002001F069
:103DF000BBFDC42001F0B8FD002001F0B5FDCD20D1
:103E000001F0B2FD002001F0AFFDD32001F0ACFDC8
:103E1000002001F0A9FDDC2001F0A6FD002001F04A
:103E2000A3FDF32001F0A0FD002001F09DFDE620A0
:103E300001F0A6FD112001F097FD002001F094FD96
:103E4000342001F091FD002001F08EFD562001F09C
:103E50008BFD002001F088FD762001F085FD00201B
:103E600001F082FD772001F07FFD002001F07CFD54
:103E7000662001F079FD002001F076FD882001F038
:103E800073FD002001F070FD992001F06DFD002010
:103E900001F06AFDBB2001F067FD002001F064FD28
:103EA000992001F061FD002001F05EFD662001F027
:103EB0005BFD002001F058FD552001F055FD00206C
:103EC00001F052FD552001F04FFD002001F04CFDA6
:103ED000452001F049FD002001F046FD432001F09E
:103EE00043FD002001F040FD442001F03DFD002095
:103EF00001F03AFDE72001F043FD322001F034FDEE
:103F0000002001F031FD552001F02EFD002001F0D0
:103F10002BFD762001F028FD002001F025FD662014
:103F200001F022FD002001F01FFD672001F01CFDC3
:103F3000002001F019FD672001F016FD002001F0BE
:103F400013FD872001F010FD002001F00DFD9920E8
:103F500001F00AFD002001F007FDBB2001F004FD87
:103F6000002001F001FD992001F0FEFC002001F08D
:103F7000FBFC772001F0F8FC002001F0F5FC442068
:103F800001F0F2FC002001F0EFFC562001F0ECFC07
:103F9000002001F0E9FC232001F0E6FC002001F004
:103FA000E3FC332001F0E0FC002001F0DDFC4520C3
:103FB00001F0DAFC002001F0D7FCE82001F0E0FC81
:103FC000002001F0D1FC002001F0CEFC992001F08E
:103FD000CBFC002001F0C8FC872001F0C5FC0020CC
:103FE00001F0C2FC882001F0BFFC002001F0BCFC05
:103FF000772001F0B9FC002001F0B6FC662001F04A
:10400000B3FC002001F0B0FC882001F0ADFC0020E2
:1040100001F0AAFCAA2001F0A7FC002001F0A4FCFA
:10402000BB2001F0A1FC002001F09EFC992001F0D2
:104030009BFC002001F098FC662001F095FC00201C
:1040400001F092FC552001F08FFC002001F08CFC67
:10405000552001F089FC002001F086FC442001F08D
:1040600083FC002001F080FC442001F07DFC002056
:1040700001F07AFC552001F077FC002001F074FC7F
:10408000E92001F07DFCAA2001F06EFC002001F087
:104090006BFC002001F068FC002001F065FC0020B2
:1040A00001F06EFCAA2001F05FFCCF2001F068FC5B
:1040B000002001F059FC002001F056FC002001F026
:1040C00053FC002001F050FC002001F04DFC0020CA
:1040D00001F04AFC002001F047FC002001F044FC04
:1040E000002001F041FC002001F03EFC002001F026
:1040F0003BFC002001F038FC002001F035FC0020E2
:1041000001F032FC002001F02FFC002001F02CFC1B
:10411000002001F029FCF02001F032FC002001F029
:1041200023FC502001F020FC002001F01DFC0020A9
:1041300001F01AFC002001F017FCF32001F020FC34
:10414000002001F011FCF92001F01AFC062001F01A
:104150000BFC102001F008FC292001F005FC0020D8
:1041600001F002FC3A2001F00BFC552001F0FCFBB1
:10417000112001F005FC642004F026FA292001F04A
:10418000FFFB352001F0FCFB002001F0EDFB51208E
:1041900001F0F6FBFF2001F0E7FB532001F0F0FBFC
:1041A0002C2001F0E1FB552001F0EAFB822001F018
:1041B000DBFB2C2001F0E4FB01F048B8FE488088CE
:1041C00045F2105188427DD155214FF4704001F0E5
:1041D000EDFBAA214FF2010001F0E8FB52214FF262
:1041E000020001F0E3FB08214FF2030001F0DEFBC7
:1041F00001214FF2040001F0D9FB0D214FF43040B2
:1042000001F0D4FB0D214BF2010001F0CFFB0D2199
:104210004BF2020001F0CAFB34214FF4364001F0AA
:10422000C5FB34214BF2016001F0C0FB34214BF29D
:10423000026001F0BBFB0D214FF4314001F0B6FBF1
:104240000D214BF2011001F0B1FB0D214BF20210D8
:1042500001F0ACFB34214FF4374001F0A7FB3421CF
:104260004BF2017001F0A2FB34214BF2027001F01D
:104270009DFB00214FF4324001F098FB00214BF2EE
:10428000012001F093FB00214BF2022001F08EFB94
:1042900024214FF4384001F089FB24214BF6010022
:1042A00001F084FB24214BF6020001F07FFB012189
:1042B0004FF43F4001F07AFB0F214FF4334001F0FF
:1042C00075FB00E0FDE30F214BF2013001F06EFBC6
:1042D0000F214BF2023001F069FB34214FF43940D9
:1042E00001F064FB34214BF6011001F05FFB342137
:1042F0004BF6021001F05AFB08214FF4354001F053
:1043000055FB08214BF2015001F050FB08214BF204
:10431000025001F04BFB03214FF4424001F046FBF9
:1043200024214FF43A4001F041FB24214BF60120B7
:1043300001F03CFB24214BF6022001F037FB002169
:104340004FF43C4001F032FB78214BF6014001F084
:104350002DFB00214BF6024001F028FB00214FF419
:104360003D4001F023FB78214BF6015001F01EFB8C
:1043700000214BF6025001F019FB00214FF43E40A2
:1043800001F014FB64214BF6016001F00FFB0021EA
:104390004FF4514001F00AFB33214DF2011001F0BE
:1043A00005FB00214DF2021001F000FB34214DF21B
:1043B000031001F0FBFA00214DF2041001F0F6FAAF
:1043C0003A214DF2051001F0F1FA00214DF20610EC
:1043D00001F0ECFA4A214DF2071001F0E7FA002152
:1043E0004DF2081001F0E2FA5C214DF2091001F0E3
:1043F000DDFA00214DF20A1001F0D8FA81214DF2C8
:104400000B1001F0D3FA00214DF20C1001F0CEFA9E
:10441000A6214DF20D1001F0C9FA00214DF20E1047
:1044200001F0C4FAE5214DF20F1001F0BFFA0121AD
:104430004DF2101001F0BAFA13214DF2111001F0F3
:10444000B5FA01214DF2121001F0B0FA54214DF2EB
:10445000131001F0ABFA01214DF2141001F0A6FA8D
:1044600082214DF2151001F0A1FA01214DF2161032
:1044700001F09CFACA214DF2171001F097FA0221BF
:104480004DF2181001F092FA00214DF2191001F0CE
:104490008DFA02214DF21A1001F088FA01214DF235
:1044A0001B1001F083FA02214DF21C1001F07EFA7C
:1044B00034214DF21D1001F079FA02214DF21E1047
:1044C00001F074FA67214DF21F1001F06FFA02211A
:1044D0004DF2201001F06AFA84214DF2211001F012
:1044E00065FA02214DF2221001F060FAA4214DF28A
:1044F000231001F05BFA02214DF2241001F056FA6C
:10450000B7214DF2251001F051FA02214DF226108B
:1045100001F04CFACF214DF2271001F047FA0221A9
:104520004DF2281001F042FADE214DF2291001F07F
:104530003DFA02214DF22A1001F038FAF2214DF233
:104540002B1001F033FA02214DF22C1001F02EFA5B
:10455000FE214DF22D1001F029FA03214DF22E100B
:1045600001F024FA10214DF22F1001F01FFA03215F
:104570004DF2301001F01AFA33214DF2311001F0F2
:1045800015FA03214DF2321001F010FA6D214DF2AF
:10459000331001F00BFA00214FF4524001F006FAFB
:1045A00033214DF2012001F001FA00214DF20220E9
:1045B00001F0FCF9342101E0C80100204DF2032094
:1045C00001F0F4F900214DF2042001F0EFF93A2155
:1045D0004DF2052001F0EAF900214DF2062001F02C
:1045E000E5F94A214DF2072001F0E0F900214DF2F2
:1045F000082001F0DBF95C214DF2092001F0D6F929
:1046000000214DF20A2001F0D1F981214DF20B2059
:1046100001F0CCF900214DF20C2001F0C7F9A621E0
:104620004DF20D2001F0C2F900214DF20E2001F0F3
:10463000BDF9E5214DF20F2001F0B8F901214DF24D
:10464000102001F0B3F913214DF2112001F0AEF961
:1046500001214DF2122001F0A9F954214DF213204D
:1046600001F0A4F901214DF2142001F09FF98221FB
:104670004DF2152001F09AF901214DF2162001F0BA
:1046800095F9CA214DF2172001F090F902214DF25F
:10469000182001F08BF900214DF2192001F086F964
:1046A00002214DF21A2001F081F901214DF21B2067
:1046B00001F07CF902214DF21C2001F077F9342140
:1046C0004DF21D2001F072F902214DF21E2001F081
:1046D0006DF967214DF21F2001F068F902214DF2BA
:1046E000202001F063F984214DF2212001F05EF9D0
:1046F00002214DF2222001F059F9A4214DF223208C
:1047000001F054F902214DF2242001F04FF9B721B4
:104710004DF2252001F04AF902214DF2262001F048
:1047200045F9CF214DF2272001F040F902214DF249
:10473000282001F03BF9DE214DF2292001F036F965
:1047400002214DF22A2001F031F9F2214DF22B2005
:1047500001F02CF902214DF22C2001F027F9FE2165
:104760004DF22D2001F022F903214DF22E2001F00F
:104770001DF910214DF22F2001F018F903214DF2FF
:10478000302001F013F933214DF2312001F00EF900
:1047900003214DF2322001F009F96D214DF2332051
:1047A00001F004F900214FF4534001F0FFF83321E8
:1047B0004DF2013001F0FAF800214DF2023001F023
:1047C000F5F834214DF2033001F0F0F800214DF2FC
:1047D000043001F0EBF83A214DF2053001F0E6F833
:1047E00000214DF2063001F0E1F84A214DF2073088
:1047F00001F0DCF800214DF2083001F0D7F85C211F
:104800004DF2093001F0D2F800214DF20A3001F0EA
:10481000CDF881214DF20B3001F0C8F800214DF2A6
:104820000C3001F0C3F8A6214DF20D3001F0BEF8B6
:1048300000214DF20E3001F0B9F8E5214DF20F30B4
:1048400001F0B4F801214DF2103001F0AFF813215E
:104850004DF2113001F0AAF801214DF2123001F0B1
:10486000A5F854214DF2133001F0A0F801214DF2CA
:10487000143001F09BF882214DF2153001F096F8CA
:1048800001214DF2163001F091F8CA214DF2173096
:1048900001F08CF802214DF2183001F087F8002168
:1048A0004DF2193001F082F802214DF21A3001F078
:1048B0007DF801214DF21B3001F078F802214DF214
:1048C0001C3001F073F834214DF21D3001F06EF808
:1048D00002214DF21E3001F069F867214DF21F30C0
:1048E00001F064F802214DF2203001F05FF88421DC
:1048F0004DF2213001F05AF802214DF2223001F040
:1049000055F8A4214DF2233001F050F802214DF268
:10491000243001F04BF8B7214DF2253001F046F874
:1049200002214DF2263001F041F8CF214DF227301F
:1049300001F03CF802214DF2283001F037F8DE2179
:104940004DF2293001F032F802214DF22A3001F007
:104950002DF8F2214DF22B3001F028F802214DF212
:104960002C3001F023F8FE214DF22D3001F01EF81D
:1049700003214DF22E3001F019F810214DF22F30A5
:1049800001F014F803214DF2303001F00FF833211B
:104990004DF2313001F00AF803214DF2323001F0CE
:1049A00005F86D214DF2333001F000F800214FF48D
:1049B000544000F0FBFF33214DF2014000F0F6FFC0
:1049C00000214DF2024000F0F1FF34214DF203408E
:1049D00000F0ECFF00214DF2044000F0E7FF3A2127
:1049E0004DF2054000F0E2FF00214DF2064000F0DC
:1049F000DDFF4A214DF2074000F0D8FF00214DF2C3
:104A0000084000F0D3FF5C214DF2094000F0CEFFDA
:104A100000214DF20A4000F0C9FF81214DF20B4008
:104A200000F0C4FF00214DF20C4000F0BFFFA621B2
:104A30004DF20D4000F0BAFF00214DF20E4000F0A3
:104A4000B5FFE5214DF20F4000F0B0FF01214DF21E
:104A5000104000F0ABFF13214DF2114000F0A6FF13
:104A600001214DF2124000F0A1FF54214DF21340FC
:104A700000F09CFF01214DF2144000F097FF8221CD
:104A80004DF2154000F092FF01214DF2164000F06A
:104A90008DFFCA214DF2174000F088FF02214DF230
:104AA000184000F083FF00214DF2194000F07EFF16
:104AB00002214DF21A4000F079FF01214DF21B4016
:104AC00000E005E300F072FF02214DF21C4000F00F
:104AD0006DFF34214DF21D4000F068FF02214DF2C0
:104AE0001E4000F063FF67214DF21F4000F05EFFA3
:104AF00002214DF2204000F059FF84214DF2214067
:104B000000F054FF02214DF2224000F04FFFA4219B
:104B10004DF2234000F04AFF02214DF2244000F004
:104B200045FFB7214DF2254000F040FF02214DF234
:104B3000264000F03BFFCF214DF2274000F036FF2A
:104B400002214DF2284000F031FFDE214DF22940D4
:104B500000F02CFF02214DF22A4000F027FFF22145
:104B60004DF22B4000F022FF02214DF22C4000F0CC
:104B70001DFFFE214DF22D4000F018FF03214DF2E4
:104B80002E4000F013FF10214DF22F4000F00EFFD9
:104B900003214DF2304000F009FF33214DF2314046
:104BA00000F004FF03214DF2324000F0FFFE6D21C2
:104BB0004DF2334000F0FAFE00214FF4554000F072
:104BC000F5FE33214DF2015000F0F0FE00214DF2D0
:104BD000025000F0EBFE34214DF2035000F0E6FEEF
:104BE00000214DF2045000F0E1FE3A214DF2055053
:104BF00000F0DCFE00214DF2065000F0D7FE4A2105
:104C00004DF2075000F0D2FE00214DF2085000F0A6
:104C1000CDFE5C214DF2095000F0C8FE00214DF29E
:104C20000A5000F0C3FE81214DF20B5000F0BEFE91
:104C300000214DF20C5000F0B9FEA6214DF20D50AE
:104C400000F0B4FE00214DF20E5000F0AFFEE52161
:104C50004DF20F5000F0AAFE01214DF2105000F06D
:104C6000A5FE13214DF2115000F0A0FE01214DF2DE
:104C7000125000F09BFE54214DF2135000F096FEAE
:104C800001214DF2145000F091FE82214DF2155099
:104C900000F08CFE01214DF2165000F087FECA2173
:104CA0004DF2175000F082FE02214DF2185000F034
:104CB0007DFE00214DF2195000F078FE02214DF2E8
:104CC0001A5000F073FE01214DF21B5000F06EFEF1
:104CD00002214DF21C5000F069FE34214DF21D50AE
:104CE00000F064FE02214DF21E5000F05FFE6721CD
:104CF0004DF21F5000F05AFE02214DF2205000F0FC
:104D000055FE84214DF2215000F050FE02214DF25B
:104D1000225000F04BFEA4214DF2235000F046FE3D
:104D200002214DF2245000F041FEB7214DF22550F2
:104D300000F03CFE02214DF2265000F037FECF215C
:104D40004DF2275000F032FE02214DF2285000F0C3
:104D50002DFEDE214DF2295000F028FE02214DF2F9
:104D60002A5000F023FEF2214DF22B5000F01EFEDF
:104D700002214DF22C5000F019FEFE214DF22D5073
:104D800000F014FE03214DF22E5000F00FFE102112
:104D90004DF22F5000F00AFE03214DF2305000F08A
:104DA00005FE33214DF2315000F000FE03214DF29B
:104DB000325000F0FBFD6D214DF2335000F0F6FD56
:104DC00000214FF4564000F0F1FD33214DF2016017
:104DD00000F0ECFD00214DF2026000F0E7FD34210F
:104DE0004DF2036000F0E2FD00214DF2046000F09E
:104DF000DDFD3A214DF2056000F0D8FD00214DF2B5
:104E0000066000F0D3FD4A214DF2076000F0CEFDB0
:104E100000214DF2086000F0C9FD5C214DF20960EF
:104E200000F0C4FD00214DF20A6000F0BFFD8121B9
:104E30004DF20B6000F0BAFD00214DF20C6000F065
:104E4000B5FDA6214DF20D6000F0B0FD00214DF240
:104E50000E6000F0ABFDE5214DF20F6000F0A6FD05
:104E600001214DF2106000F0A1FD13214DF21160FF
:104E700000F09CFD01214DF2126000F097FD5421DD
:104E80004DF2136000F092FD01214DF2146000F02C
:104E90008DFD82214DF2156000F088FD01214DF25B
:104EA000166000F083FDCA214DF2176000F07EFD10
:104EB00002214DF2186000F079FD00214DF21960D9
:104EC00000F074FD02214DF21A6000F06FFD012127
:104ED0004DF21B6000F06AFD02214DF21C6000F0F3
:104EE00065FD34214DF21D6000F060FD02214DF2A0
:104EF0001E6000F05BFD67214DF21F6000F056FD63
:104F000002214DF2206000F051FD84214DF221601C
:104F100000F04CFD02214DF2226000F047FDA4217B
:104F20004DF2236000F042FD02214DF2246000F0BA
:104F30003DFDB7214DF2256000F038FD02214DF214
:104F4000266000F033FDCF214DF2276000F02EFDEA
:104F500002214DF2286000F029FDDE214DF229608A
:104F600000F024FD02214DF22A6000F01FFDF22125
:104F70004DF22B6000F01AFD02214DF22C6000F082
:104F800015FDFE214DF22D6000F010FD03214DF2C4
:104F90002E6000F00BFD10214DF22F6000F006FD99
:104FA00003214DF2306000F001FD33214DF23160FC
:104FB00000F0FCFC03214DF2326000F0F7FC6D21A3
:104FC0004DF2336000F0F2FC55214FF4704000F0D8
:104FD000EDFCAA214FF2010000F0E8FC52214FF253
:104FE000020000F0E3FC08214FF2030000F0DEFCB9
:104FF00000214FF2040000F0D9FCCC214FF43140E5
:1050000000F0D4FC00214BF2011000F0CFFC052190
:105010004FF4364000F0CAFC70214FF4374000F0E6
:10502000C5FC70214BF2017000F0C0FC01214FF46F
:10503000384000F0BBFC03214BF6010000F0B6FC49
:1050400003214BF6020000F0B1FC03214BF60300F4
:1050500000F0ACFC02214FF43C4000F0A7FC002122
:105060004BF6014000F0A2FC00214BF6024000F09C
:105070009DFCD0214FF4494000F098FC02214CF6F1
:10508000011000F093FC50214CF6021000F08EFC51
:1050900050214CF6031000F089FC50214CF604100E
:1050A00000F084FC00214FF4545000F07FFC5521A7
:1050B0004FF4685000F07AFC4FF4885000F060FC28
:1050C000782003F08DFA4FF4245000F059FCBDE035
:1050D0007F48808841F663118842F8D1E22000F0D1
:1050E0004FFC1D2000F040FC022000F03DFC04209D
:1050F00000F03AFC642003F073FAE02000F040FC7A
:10510000012000F031FC0A2003F05EFAE02000F0FC
:1051100037FC032000F028FC0C2003F055FA012096
:1051200000F02EFC0A2003F04FFAE62000F028FCE5
:105130002F2000F019FCFF2000F016FCFF2000F0EB
:1051400013FCB02000F01CFC202000F00DFC00201F
:1051500000F00AFC032000F007FC40F21F3000F0D2
:1051600003FC012000F000FC40F2DF1000F0FCFB2B
:10517000002000F0F9FBB42000F002FC042000F055
:10518000F3FB40F21F4000F0EFFB002000F0ECFBCF
:105190002E2000F0E9FB002000F0E6FB002000F0EC
:1051A000E3FB002000F0E0FB002000F0DDFBB62078
:1051B00000F0E6FB022000F0D7FB4FF4037000F094
:1051C000D3FB002000F0D0FB172000F0CDFB152012
:1051D00000F0CAFB002000F0C7FB002000F0C4FB79
:1051E000F02000F0CDFB032000F0BEFB292000F0F2
:1051F000C7FBD02000F0C4FB002000F0B5FBBE20B0
:1052000000F0BEFB052000F0AFFBFE2000F0ACFB81
:10521000012000F0A9FB002000F0A6FB002000F018
:10522000A3FB002000F0A0FBB82000F0A9FB0320A6
:1052300000F09AFB012000F097FBBA2000F0A0FBE1
:10524000012000F091FB642000F05EF82048808887
:1052500049F24131884211D01D48808845F2103111
:1052600088420BD01A48808845F21051884205D0F8
:105270001748808841F6631188421CD115480068A0
:1052800020F00F004FF02041C1F81C010846D0F873
:105290001C0120F47060C1F81C010846D0F81C0104
:1052A00040F00100C1F81C010846D0F81C0140F490
:1052B0008070C1F81C010020FDF77CFC012006492C
:1052C00008604FF6FF70FDF75BFC13B000BD0000F7
:1052D000C80100201C0100A08081214210B50246B7
:1052E000012000E050430B1EA1F10104E1B2F9D10D
:1052F00010BD000008B5034800880090BDF800000C
:1053000008BD00000008006C2DE9F0470446BE20EF
:1053100000F036FB052000F027FB204606F059FD83
:1053200007464FF066320C4B06F066FD054606F068
:1053300023FD1FFA80F9484600F016FB012000F01B
:1053400013FBFF2000F010FB002000F00DFB0020FD
:1053500000F00AFBBDE8F08766660440F0B505463C
:105360000024002799488079012805D19748808832
:1053700041F66311884208D194488079F0B9934886
:10538000808841F66311884218D1082D15D2DFE8D4
:1053900005F00406080A0C0E101206250DE007257C
:1053A0000BE0042509E0052507E0012505E00025BF
:1053B00003E0032501E0022500BF00BF8348808889
:1053C00049F24131884211D08048808845F210313D
:1053D00088420BD07D48808845F21051884205D024
:1053E0007A48808841F6631188427DD1082D1CD20D
:1053F000DFE805F00406090C0F12151800BF14E0D1
:1054000044F0800411E044F040040EE044F0C00495
:105410000BE044F0200408E044F0600405E044F0B0
:10542000A00402E044F0E00400BF00BF67488088A9
:1054300045F21051884202D14FF4585700E0362708
:105440006248808845F2103188420DD05F488088DC
:1054500045F21051884207D05C48808841F66311BC
:10546000884201D044F008042146384600F09EFAF4
:105470005648808841F6631188421DD004F0200010
:1054800068B15248008851494988884214DA4F4827
:10549000068840884D490880084646800CE04B4805
:1054A00000884A494988884206DD4848068840887D
:1054B00046490880084646804448808845F2105195
:1054C000884254D14149488900F05AFA002000F03E
:1054D0004BFA3E494989491C88B200F051FA002034
:1054E00000F042FA394900E06FE04989891C88B22E
:1054F00000F046FA35490988491EC1F30F2000F033
:1055000033FA32494989C91C88B200F039FA2F4967
:105510000978491EC8B200F027FA2C49888900F0A2
:105520002FFA002000F020FA28498989491C88B206
:1055300000F026FA002000F017FA24498989891C16
:1055400088B200F01DFA21494988491EC1F30F2095
:1055500000F00AFA1D498989C91C88B200F010FAC6
:105560001A498978491EC8B200F0FEF92DE01749A2
:10557000488900F005FA002000F0F6F9002000F05C
:10558000F3F912490988491EC1F30F2000F0ECF924
:105590000E490978491EC8B200F0E6F90B4988891E
:1055A00000F0EEF9002000F0DFF9002000F0DCF957
:1055B00006494988491EC1F30F2000F0D5F9034977
:1055C0008978491EC8B200F0CFF9F0BDC8010020AB
:1055D00010B502460C464B48808849F2413188425A
:1055E00005D04848808845F21031884214D1454999
:1055F000488900F0C5F9101200F0B6F9D0B200F0F9
:10560000B3F94049888900F0BBF9201200F0ACF9E9
:10561000E0B200F0A9F973E03A48808841F66311DE
:10562000884247D137488079A8B936480088401E5B
:10563000801A82B23349488900F0A2F9002000F0B4
:1056400093F9002000F090F9101200F08DF9D0B21B
:1056500000F08AF916E02B49488900F091F9101200
:1056600000F082F9D0B200F07FF926490988491E7E
:10567000C1F30F2000F078F922490978491EC8B219
:1056800000F072F91F49888900F07AF9201200F0C1
:105690006BF9E0B200F068F91A494988491EC1F374
:1056A0000F2000F061F917498978491EC8B200F04F
:1056B0005BF925E01348808845F2105188421FD1DC
:1056C0001049488900F05CF9101200F04DF90D49BD
:1056D0004989491C88B200F053F9D0B200F044F96E
:1056E0000849888900F04CF9201200F03DF905497D
:1056F0008989491C88B200F043F9E0B200F034F91E
:1057000010BD0000C80100202DE9F84F80460F466B
:1057100016461C46BB462046E31704EB5373DB10CA
:1057200021464FEAE47C04EB5C7C4FEAEC0CA4EBF2
:10573000CC0CBCF1000F02D04FF0010C01E04FF097
:10574000000C6344224604EBD27C4FEA6C0C03FB52
:105750000CF3DBB20093A6F12000C6B200255EE098
:105760000C2C07D106EB46002F4901EB800010F806
:1057700005901BE0102C05D12C4800EB061010F80A
:10578000059013E0182C07D106EBC600284901EB61
:10579000800010F8059009E0202C05D1254800EB89
:1057A000C61010F8059001E0BDE8F88F4FF0000A30
:1057B0002FE009F0800030B11F48394602684046AA
:1057C000FDF7A8FA07E00A9828B91C48394602688C
:1057D0004046FDF79FFA4FEA49604FEA1069781C8E
:1057E00087B217484088B84200DCDDE7A7EB0B0022
:1057F000A0420AD15F4608F101001FFA80F8104864
:105800000088404500DCCFE706E00AF1010000F027
:10581000FF0ABAF1080FCCDB00BF681CC5B20098C4
:1058200085429DDB00BFBFE70CC0000880C40008B4
:1058300070CA0008CCD700081C00002020000020FF
:10584000C80100202DE9F84704460D4690469946C8
:10585000DDE9096704F0FF0A08EB04001FFA80F88D
:1058600009EB05001FFA80F916E0444502DB5446B7
:10587000A81985B24D4500DB14E0002000903A786D
:10588000334629462046FFF73FFF304606EBD071EE
:1058900004EB61018CB27F1C38787E2802DC3878FA
:1058A0002028E2DA00BFBDE8F8872DE9FF4F82B07B
:1058B000064692461F46DDE90F480020019000256C
:1058C0004DE0781B401EC1B20A20FFF707FDBAFB6E
:1058D000F0F00A21B0FBF1F201FB1209019850BB74
:1058E000781EA84227DDB9F1000F22D108F0800010
:1058F00078B108F00100A34604EBDB71491001FB0D
:105900000561009088B2234630220399FFF7FCFE20
:105910000EE008F00100A34604EBDB71491001FB27
:105920000561009088B2234620220399FFF7ECFE20
:1059300013E00120019008F00100A34604EBDB71A5
:10594000491001FB0561009088B209F13001CAB22B
:1059500023460399FFF7D8FE00BF681CC5B2BD42BD
:10596000AFDB06B0BDE8F08F01B5BDF800000090D8
:10597000BDF800000149088008BD00000008006C67
:1059800001B5BDF800000090BDF800000149088095
:1059900008BD0000FE07006C02480089024908802B
:1059A00070470000C8010020FE07006C024A10800A
:1059B000921C118070470000FE07006C00B585B096
:1059C00000BF1B48806940F00800194988610846FB
:1059D000806900F00800009000BF00BF00BF0846CB
:1059E000806940F0400088610846806900F040000E
:1059F000009000BF00BF2020019001200290039082
:105A00000320049001A90B48FBF790F82020019097
:105A100001A90948FBF78AF8012220210548FBF774
:105A20002DFA012220210448FBF728FA05B000BD19
:105A300000100240000C01400018014000BFFEE7CA
:105A40007047704708B508490968C9084FF47A7269
:105A5000B1FBF2F14143009100BF00BF00994A1E23
:105A600000920029F9D108BD0000002010B50246BF
:105A700000230868506248689062D1E9020420431C
:105A80000C6920434C6920430343D06A20F0F7009F
:105A90001843D062002010BD01460869C0B27047AB
:105AA0000146086800F003007047024602F1140046
:105AB0004318186870470FB410B504460021DDE99B
:105AC00003021043059A1043069A1043079A1043A5
:105AD000089A10430143606847F6FF629043084309
