:020000040800F2
:10000000B01900202D020008D14D00089B1E0008E9
:10001000CD4D000829070008CD540008000000005D
:10002000000000000000000000000000934F0008E6
:100030002D07000800000000D34D0008EB4F00081A
:10004000470200084702000847020008470200086C
:10005000470200084702000847020008470200085C
:10006000470200084702000847020008470200084C
:10007000470200084702000847020008470200083C
:10008000470200084702000847020008470200082C
:10009000470200084702000847020008470200081C
:1000A000470200084702000847020008470200080C
:1000B00047020008470200084D50000847020008A8
:1000C00047020008470200084702000847020008EC
:1000D000470200088D540008470200084702000844
:1000E00047020008470200084702000847020008CC
:1000F00047020008470200084702000847020008BC
:1001000047020008470200084702000847020008AB
:10011000470200084702000847020008470200089B
:10012000470200084702000847020008470200088B
:1001300000F002F800F06BF80AA090E8000C82448E
:100140008344AAF10107DA4501D100F060F8AFF26B
:10015000090EBAE80F0013F0010F18BFFB1A43F0A5
:100160000103184708B7000028B700000A444FF001
:10017000000C10F8013B13F0070408BF10F8014B06
:100180001D1108BF10F8015B641E05D010F8016B4B
:10019000641E01F8016BF9D113F0080F1EBF10F8AF
:1001A000014BAD1C0C1B09D16D1E58BF01F801CBD2
:1001B000FAD505E014F8016B01F8016B6D1EF9D555
:1001C0009142D6D37047000000230024002500266A
:1001D000103A28BF78C1FBD8520728BF30C148BFAA
:1001E0000B607047642900F09F80752900F09C80A7
:1001F000782900F0D580632900F02982732900F066
:100200002E82002070471FB51FBD10B510BD00F035
:1002100059FA1146FFF7F7FF05F08CFB00F077FA6B
:1002200003B4FFF7F2FF03BC05F039FB0948804730
:1002300009480047FEE7FEE7FEE7FEE7FEE7FEE7C8
:10024000FEE7FEE7FEE7FEE704480549054A064BE0
:1002500070470000F54F000831010008B01300207E
:10026000B0190020B0150020B01500207047000024
:100270000FB4044910B503AA029800F0F5F910BCB8
:100280005DF814FB1400002070B504468569006811
:10029000C10601D5302600E02026C00707D070BD7A
:1002A000D4E9012130469047206A401C20626D1E2F
:1002B000F6D570BD70B5044685690078C00707D1D2
:1002C00070BDD4E9012120209047206A401C2062A3
:1002D0006D1EF6D570BD70B50C460546012A05D0D9
:1002E0002878800600D5EA69002302E0012305E0B2
:1002F0005B1C934202D2E05C0028F9D1A869E618A1
:10030000C01AA861286A184428622846FFF7BCFF73
:1003100004E0D5E9012114F8010B9047B442F8D369
:100320002846FFF7C7FF70BD2DE9F04106460024BF
:1003300010687529314616A510D0AFF3008000284B
:1003400002DA404213A507E031688A0701D512A5F9
:1003500002E0490704D511A5012401E0AFF30080B4
:1003600000210A2206F1240709E0B0FBF2FCB0FBF1
:10037000F2F302FB1C00303078541846491C002868
:10038000F3D123462A463046BDE8F04100F0FCB8E0
:10039000000000002D0000002B00000020000000E5
:1003A00070B504460D4621461068AFF300802188E1
:1003B000090502D50F4A7A4402E00E4A7A440E3209
:1003C000002104F1240305E000F00F060009965D0A
:1003D0005E54491C0028F7D120780023000704D57B
:1003E000702D02D009B1022311322046BDE87040C1
:1003F00000F0CAB8E4B300002DE9F05F8946044676
:100400004FF0000ADFF874B1FB44C0F820A020468A
:10041000E1688847002874D0252806D0D4E9012156
:100420009047206A401C2062F1E700265F46204684
:10043000E16888472028054607DB312D05D2781969
:1004400010F8200C08B10643F1E7B00701D526F0FB
:100450000406C4F81CA00027C4F818A02A2D09D04F
:10046000284605F015FA38B304EB8708303DC8F884
:10047000185019E059F8041B204604EB87029161DB
:10048000E1688847012F054618D1E069002820DA85
:1004900026F020061DE0D8F8180000EB800005EBE0
:1004A00040003038C8F818002046E1688847054603
:1004B00005F0EEF90028EED1012F0AD02E2D08D13B
:1004C0002046E16888477F1C0546022F46F020063B
:1004D000C4DBA069002803DA404246F00106A061AF
:1004E000F00701D026F010066C2D0BD0682D09D036
:1004F0004C2D39D06A2D35D0742D35D07A2D33D08E
:1005000016E038E0E1682F4620468847B8420546A5
:1005100009D16C2F26D04FF48060E1680643204655
:100520008847054604E06C2F1AD04FF480700643CC
:100530000DB3A5F14100192802D8203546F4006614
:100540004A462946204626604E46FFF74BFE80B1BC
:1005500001280BD0F61D26F0070000F1080956E728
:100560004020E4E78020D8E70020D6E706F1040920
:100570004DE7284652E7206ABDE8F09FBAB3000075
:1005800070477047704770472DE9F0470D46994610
:100590009246044600F124080168880604D5E06903
:1005A00021F01001216000E00120A84201DD471B7D
:1005B00000E00027A1697A1902EB0900081AA0617E
:1005C0002078C00602D42046FFF75EFE002608E031
:1005D000D4E901211AF806009047206A401C761CD5
:1005E00020624E45F4DB2078C0060AD52046FFF78E
:1005F0004BFE06E0D4E9012130209047206A401CE0
:100600002062381EA7F10107F4DC07E0D4E90121DC
:1006100018F805009047206A401C2062281EA5F1AA
:100620000105F3DC2046FFF745FE2078000602D5E1
:100630000220BDE8F0870120FBE710B5436913B144
:10064000AFF3008001E0FFF746FE012010BD1278F5
:1006500000F124010A7000224A700122EDE71168BE
:100660004FF0FF32E9E70000074B70B50D467B44C1
:1006700000F011F80446284600F020F810B14FF0C1
:10068000FF3070BD204670BDA752000001694A1CB2
:1006900002610878704700B58FB0CDE901310021C3
:1006A000059105497944CDE9031011466846FFF7E5
:1006B000A3FE0FB000BD0000E5FFFFFF007B00F0D0
:1006C00080007047754600F02BF8AE46050069467D
:1006D000534620F00700854618B020B5FFF7B4FD5B
:1006E000BDE820404FF000064FF000074FF0000833
:1006F0004FF0000B21F00701AC46ACE8C009ACE8B4
:10070000C009ACE8C009ACE8C0098D46704710B517
:100710000446AFF300802046BDE81040FFF780BDDF
:10072000004870475013002000BFFEE770470000EC
:1007300070B50446B3F5804F13D1D1E9000540EA06
:1007400005108D6840EA05208D6928438D8940EAAF
:10075000054054F82250064E3540284344F8220004
:1007600003E06FF0704044F82200002070BD0000EC
:100770000000F0CF30B50246086852F8200020F0A3
:1007800001000C6842F824008868082801D1402341
:1007900000E00023486818438C682043CC6820435D
:1007A0000C6920434C6920438C692043CC69204369
:1007B0000C6A20434C6A20438C6A2043CC6A204355
:1007C0000C6B20434C6B20430C6852F82440044DC2
:1007D0002C4020430C6842F82400002030BD00006B
:1007E0008000F0FF10B50346D1E9000440EA041090
:1007F0008C6840EA04208C8940EA0444088A401E40
:1008000044EA0054087D801E44EA00608C6920435D
:10081000541C53F8244004F040442043541C43F833
:100820002400002010BD000070B50446002594F897
:100830002100022803D00420A0630125C1E0206824
:10084000006820F00E00216808602068006820F031
:100850000100216808605C492068884252D95A49E1
:1008600078392068884201D1012047E0564964392F
:100870002068884201D1102040E053495039206857
:10088000884201D1801539E04F493C3920688842BF
:1008900001D1801432E04C4928392068884202D1C5
:1008A0004FF480302AE0484914392068884202D148
:1008B0004FF4801022E044492068884201D140046E
:1008C0001CE042492068884201D1012016E03F49DE
:1008D00014312068884201D110200FE03B492831B3
:1008E0002068884201D1801508E038493C312068F1
:1008F000884201D1801401E04FF480303349091F50
:10090000086051E0304978392068884201D10120DF
:1009100047E02D4964392068884201D1102040E029
:10092000294950392068884201D1801539E026498B
:100930003C392068884201D1801432E022492839AC
:100940002068884202D14FF480302AE01E491439D1
:100950002068884202D14FF4801022E01A492068B2
:10096000884201D140041CE018492068884201D126
:10097000012016E0154914312068884201D1102069
:100980000FE0124928312068884201D1801508E023
:100990000E493C312068884201D1801401E04FF4B7
:1009A0008030094980394860012084F8210000BF67
:1009B000002084F8200000BF606B10B12046616BFE
:1009C0008847284670BD00008000024008040240AD
:1009D0002DE9F847024600239C467BE14FF00108D1
:1009E00008FA03F4D1F8008008EA0400A0427DD19F
:1009F000DFF8F4A2D1F80480A8EB0A09D0453AD078
:100A000014DCB8F1030F50D009DCB8F1000F31D07D
:100A1000B8F1010F1CD0B8F1020F49D120E0B8F1B4
:100A2000110F18D0B8F1120F42D11EE0B9F5881F8E
:100A300025D006DCB9F5803F20D0B9F5801F37D12D
:100A40001AE0B9F5001F18D0B9F5041F30D117E02E
:100A5000D1F80CC02DE0D1F80C8008F1040C28E08E
:100A6000D1F80C8008F1080C23E0D1F80C8008F1D3
:100A70000C0C1EE000BF00BF00BF00BF00BF00BFE6
:100A8000D1F80880B8F1000F02D14FF0040C0BE050
:100A9000D1F80880B8F1010F03D14FF0080C1461B0
:100AA00002E04FF0080C546103E04FF0000C00E04E
:100AB00000BF00BFFF2801D8904601E002F1040802
:100AC0004646FF2802D84FEA830803E0A3F108084E
:100AD0004FEA88084746D6F800804FF00F0909FA18
:100AE00007F928EA09080CFA07F900E07AE048EA71
:100AF0000908C6F80080D1F8048008F08058B8F1E1
:100B0000805F6FD100BFDFF8E481D8F8188048F02B
:100B10000108DFF8D891C9F81880C846D8F81880BD
:100B200008F00108CDF8008000BF00BF4FEAB938D7
:100B30004FEA930958F829504FEA83784FEA187919
:100B40004FF00F0808FA09F825EA0805DFF8A08138
:100B5000424502D14FF0000824E0DFF89881424579
:100B600002D14FF001081DE0DFF88C81424502D12F
:100B70004FF0020816E0DFF88481424502D14FF0C1
:100B800003080FE0DFF87881424502D14FF00408F6
:100B900008E0DFF87081424502D14FF0050801E01E
:100BA0004FF006084FEA83794FEA197908FA09F8F5
:100BB00048EA0505DFF850814FEA930948F82950C3
:100BC000D1F8048008F48038B8F5803F0BD1DFF805
:100BD0003C81D8F8008048EA0008DFF83091C9F875
:100BE00000800AE075E0DFF82481D8F8008028EA68
:100BF0000008DFF81891C9F80080D1F8048008F4E3
:100C00000038B8F5003F0ED1DFF8008108F1040884
:100C1000D8F8008048EA0008DFF8F09009F10409EC
:100C2000C9F800800DE0DFF8E48008F10408D8F886
:100C3000008028EA0008DFF8D49009F10409C9F817
:100C40000080D1F8048008F48018B8F5801F0ED118
:100C5000DFF8B88008F10808D8F8008048EA0008F2
:100C6000DFF8A89009F10809C9F800800DE0DFF865
:100C70009C8008F10808D8F8008028EA0008DFF80E
:100C80008C9009F10809C9F80080D1F8048008F4B3
:100C90000018B8F5001F0ED1DFF8708008F10C08BD
:100CA000D8F8008048EA0008DFF8609009F10C09E4
:100CB000C9F800800DE0DFF8548008F10C08D8F87E
:100CC000008028EA0008DFF8449009F10C09C9F80F
:100CD00000805B1CD1F8008028FA03F8B8F1000FFF
:100CE0007FF47CAEBDE8F8870000111000100240D0
:100CF00000080140000C01400010014000140140B8
:100D000000180140001C014008000140000401409F
:100D1000024693680B400BB1012000E000207047B1
:100D20000AB1016101E00B040361704701480068EA
:100D30007047000004000020034800680349097858
:100D40000844014908607047040000200C0000209E
:100D500010B50848006840F01000064908600520FA
:100D600000F080F80F2000F007F800F02BF80020CA
:100D700010BD00000020024070B504460E48007807
:100D80004FF47A71B1FBF0F00C490968B1FBF0F552
:100D9000284600F07BFE08B1012070BD102C07D260
:100DA00000222146501E00F01EF80548046001E0B4
:100DB0000120F2E70020F0E70C00002000000020F6
:100DC00008000020704701460846002809DB00F0B3
:100DD0001F0301229A4043099B0003F1E023C3F85B
:100DE000002100BF70472DE9F05F80460D46164692
:100DF000002704F031FD074639462A46334601F004
:100E00000700C0F1070ABAF1040F02D94FF0040A33
:100E100001E0C0F1070AD14600F1040ABAF1070F58
:100E200002D24FF0000A01E0A0F1030AD4464FF0CD
:100E3000010A0AFA09FAAAF1010A0AEA020A0AFAF6
:100E40000CFA4FF0010B0BFA0CFBABF1010B0BEAA8
:100E5000030B4AEA0B042146404604F005FDBDE8B9
:100E6000F09F000000BF00F00702064B19684FF624
:100E7000FF031940044B0B4343EA0221014B196065
:100E800000BF70470CED00E00000FA0570B50446A5
:100E90000D460CB9012070BD5A48006800F00700EB
:100EA000A8420ED25748006820F007002843554951
:100EB00008600846006800F00700A84201D0012041
:100EC000E9E7207800F0020002281DD1207800F028
:100ED0000400042805D14C48406840F4E0604A49C9
:100EE0004860207800F00800082805D1464840688E
:100EF00040F46050444948604348406820F0F000A6
:100F0000A168084340494860207800F0010078B3A8
:100F10006068012806D13C48006800F4003090B9B0
:100F20000120B8E76068022806D13748006800F061
:100F3000007040B90120AEE73348006800F00200BD
:100F400008B90120A7E73048406820F00300616835
:100F500008432D494860FFF7E9FE064609E0FFF720
:100F6000E5FE801B41F28831884202D9032092E7D6
:100F700007E02548406800F00C006168B0EB810F85
:100F8000EDD12048006800F00700A8420ED91D48A6
:100F9000006820F0070028431A49086008460068E6
:100FA00000F00700A84201D0012074E7207800F08B
:100FB0000400042807D11448406820F4E060E16888
:100FC000084311494860207800F00800082808D13B
:100FD0000D48406820F46050216940EAC1000A4988
:100FE000486000F03FF808494968C1F30311074A17
:100FF000515CC8400649086006480068FFF7BCFE1F
:10100000002048E70020024000100240467000081F
:101010000000002008000020014800687047000020
:101020000000002000B5FFF7F7FF04494968C1F34D
:101030000221034A515CC84000BD0000001002407C
:101040005670000800B5FFF7E7FF04494968C1F38F
:10105000C221034A515CC84000BD0000001002409C
:1010600056700008F0B585B00FF26C0C9CE8E010EB
:1010700001A8A0E8E0101CA52D6800950021002221
:10108000002300240020194D696801F00C05F5B11A
:10109000042D02D0082D19D101E0154819E001AD49
:1010A000C1F38346AC5D01F4803555B10F4D6D68D9
:1010B000C5F340451DF805200D4D6543B5FBF2F322
:1010C00002E00C4D04FB05F3184602E000BF08489F
:1010D00000BF00BF05B0F0BD020304050607080904
:1010E0000A0B0C0D0E0F1010010200000010024040
:1010F00000127A0000093D00F8B504460CB9012041
:10110000F8BD207800F00100002878D0F848406849
:1011100000F00C0004280CD0F548406800F00C00EA
:10112000082811D1F248406800F48030B0F5803FC3
:101130000AD1EF48006800F4003000285FD06068F2
:1011400000285CD10120DBE700BF6068B0F5803F7C
:1011500006D1E748006840F48030E549086028E09F
:10116000606858B9E248006820F48030E0490860BF
:101170000846006820F4802008601AE06068B0F536
:10118000A02F0BD1DA48006840F48020D8490860CD
:101190000846006840F4803008600AE0D4480068DF
:1011A00020F48030D24908600846006820F480208E
:1011B000086000BF606888B1FFF7B8FD054606E02B
:1011C000FFF7B4FD401B642801D9032098E7C84805
:1011D000006800F400300028F2D010E0FFF7A6FD10
:1011E000054606E0FFF7A2FD401B642801D9032055
:1011F00086E7BF48006800F400300028F2D120786C
:1012000000F00200022857D1B948406800F00C00F5
:1012100050B1B748406800F00C00082818D1B44815
:10122000406800F4803098B9B148006800F00200CE
:1012300020B12069012801D0012061E7AC48006895
:1012400020F0F800616940EAC100A949086033E074
:101250002069E8B10120A7490860FFF767FD05464E
:1012600006E0FFF763FD401B022801D9032047E792
:101270009F48006800F002000028F2D09C480068F7
:1012800020F0F800616940EAC1009949086013E064
:10129000002098490860FFF749FD054606E0FFF782
:1012A00045FD401B022801D9032029E7904800682A
:1012B00000F002000028F2D1207800F00800082891
:1012C0002DD1A069B8B101208B490860FFF72EFD30
:1012D000054606E0FFF72AFD401B022801D903203E
:1012E0000EE78348406A00F002000028F2D0012097
:1012F00003F070FD13E000207F490860FFF716FD42
:10130000054606E0FFF712FD401B022801D9032025
:10131000F6E67748406A00F002000028F2D1207813
:1013200000F00400042873D100277148C06900F060
:10133000805070B900BF6E48C06940F080506C4961
:10134000C8610846C06900F08050009000BF00BF2F
:1013500001276A48006800F48070B0B967480068E7
:1013600040F4807065490860FFF7E0FC054606E040
:10137000FFF7DCFC401B642801D90320C0E65F486E
:10138000006800F480700028F2D000BFE0680128F7
:1013900006D15748006A40F001005549086227E02D
:1013A000E06858B95248006A20F0010050490862CC
:1013B0000846006A20F00400086219E0E068052889
:1013C0000BD14B48006A40F00400494908620846C6
:1013D000006A40F0010008620AE04548006A20F017
:1013E0000100434908620846006A20F004000862D0
:1013F00000BFE068A0B1FFF799FC054609E0FFF7E0
:1014000095FC401B41F28831884202D9032077E6DF
:1014100022E03748006A00F002000028EFD012E016
:10142000FFF784FC054608E0FFF780FC401B41F213
:101430008831884201D9032062E62D48006A00F015
:1014400002000028F0D1012F05D12948C06920F001
:1014500080502749C86100BFE069C8B3244840688C
:1014600000F00C00082860D0E069022848D1002074
:1014700020490866FFF75AFC054606E0FFF756FCD0
:10148000401B022801D903203AE61948006800F001
:1014900000700028F2D1206AB0F5803F07D11448CF
:1014A000406820F40030A168084311494860D4E93D
:1014B000080108430E49496821F4741108430C4996
:1014C000486001200B490866FFF730FC054607E03D
:1014D0003DE0FFF72BFC401B022801D903200FE65B
:1014E0000348006800F000700028F2D02FE00000F0
:1014F000001002400000424280044242007000405E
:10150000002014490866FFF711FC054606E0FFF7C6
:101510000DFC401B022801D90320F1E50E480068AC
:1015200000F000700028F2D111E0E069012800D13C
:10153000E6E50948466806F48031206A814204D114
:1015400006F47011606A814201D00120D8E50020C4
:10155000D6E50000000042420010024010B50446EB
:101560000CB9012010BD606A00B900BFA06AB0F5D7
:10157000005F00D100BF94F8510028B9002084F822
:101580005000204600F038F8022084F8510020680E
:10159000006820F0400021680860D4E90101084398
:1015A000E16808432169084361690843218B01F41C
:1015B00000710843E1690843216A0843A16A0843AE
:1015C000216808600421A06901EA10402168486090
:1015D000A06AB0F5005F02D12168E06A0861206866
:1015E000C06920F400602168C861002060650120A6
:1015F00084F851000020B5E710B586B0044600BF5E
:101600001448806940F008001249886108468069E2
:1016100000F00800019000BF00BF00BF0846C0698D
:1016200040F48040C8610846C06900F480400190E1
:1016300000BF00BF4FF460400290022003900120E1
:1016400004900320059002A90348FFF7C1F906B0F2
:1016500010BD000000100240000C01402DE9FF5FAA
:101660000446884691461D460E9E012002900020A9
:10167000019000BF94F85000012803D1022004B06B
:10168000BDE8F09F012084F8500000BFFFF74EFB3B
:10169000074694F851B060680390AA46BBF1010F69
:1016A0000BD00398B0F5827F04D1A06810B9BBF1CC
:1016B000040F02D0022001903DE1B8F1000F03D0E9
:1016C000B9F1000F00D015B90120019033E194F871
:1016D0005100042802D0052084F8510000206065E4
:1016E000C4F83890E587A587C4F83080E586A586DC
:1016F00020646064A06AB0F5005F0DD100BF20686F
:10170000006820F40050216808602068006840F4F8
:1017100000502168086000BF2068006800F04000A9
:10172000402805D02068006840F04000216808602B
:10173000E068B0F5006F56D1606810B1BAF1010FE2
:1017400009D1206B00882168C860206B801C206351
:10175000E08E401EE0863FE02068806800F00200D6
:1017600002281CD1E08ED0B10298012817D1206B3D
:1017700000882168C860206B801C2063E08E401EBA
:10178000E08600200290E08E48B9A06AB0F5005FC4
:1017900005D12068006840F4805021680860206806
:1017A000806800F0010068B1E08F58B12068C0681F
:1017B000A16B0880A06B801CA063E08F401EE087B7
:1017C00001200290FFF7B2FAC01BB04204D3701C94
:1017D00010B103200190AEE0E08E0028BCD1E08F74
:1017E0000028B9D156E0606810B1BAF1010F09D1F3
:1017F000206B007821680873206B401C2063E08E0A
:10180000401EE08640E02068806800F00200022868
:101810001CD1E08ED0B10298012817D1206B00783E
:1018200021680873206B401C2063E08E401EE08618
:1018300000200290E08E48B9A06AB0F5005F05D1A3
:101840002068006840F48050216808602068806843
:1018500000F0010068B1E08F58B12068C068A16B4A
:101860000870A06B401CA063E08F401EE087012041
:101870000290FFF75BFAC01BB04201D3701C00B9A5
:1018800016B90320019056E0E08E0028BBD1E08F0E
:101890000028B8D1A06AB0F5005F10D1334601220C
:1018A00011462046009703F020FB30B1606D40F0F8
:1018B00002006065032001903DE02068C068206858
:1018C0008068C0F30010E8B1204603F00BFB01284C
:1018D00014D1606D40F00200606500BF20680068B0
:1018E00020F40050216808602068006840F400502F
:1018F0002168086000BF0120019003E04FF6EF70FF
:10190000216888603A463146204603F0D7FA20B174
:1019100001200190202060650DE0A06850B900BF53
:10192000002000902068C0680090206880680090C7
:1019300000BF00BF00BF012084F8510000BF00209D
:1019400084F8500000BF019899E670B504460E4631
:1019500015460CB9012070BD94F8410028B900204B
:1019600084F84000204600F01FF804F108012068C8
:10197000FEF700FF3146A2682068FEF733FF2946D4
:10198000236BD4E90102FEF7D3FEA168206850F86A
:10199000210040F00100A268216841F822000120E6
:1019A00084F841000020D6E710B586B0044600BF99
:1019B0002848406940F480702649486108464069DB
:1019C00000F48070019000BF00BF00BF084680692E
:1019D00040F0200088610846806900F020000190F6
:1019E00000BF00BF00BF0846806940F0400088612A
:1019F0000846806900F04000019000BF00BF00BFB2
:101A00000846806940F4807088610846806900F467
:101A10008070019000BF00BF4CF233700290022032
:101A20000390012004900320059002A90A48FEF7C4
:101A3000CFFF4FF68070029002A90848FEF7C8FF5A
:101A400041F20100029002A90548FEF7C1FF06B06D
:101A500010BD0000001002400014014000180140B9
:101A600000200140042808D14FF0E021096941F02D
:101A700004014FF0E022116107E04FF0E021096915
:101A800021F004014FF0E0221161704770B5044667
:101A90002546681EB0F1807F01D301200FE0681E4B
:101AA0004FF0E02148610F214FF0FF3003F0DCFEE2
:101AB00000204FF0E021886107200861002070BD00
:101AC00010B504460CB9012010BD94F83D0028B9AA
:101AD000002084F83C00204600F00CF8022084F836
:101AE0003D00211D206803F0D3FA012084F83D0059
:101AF0000020E9E7704701460868C06840F001002F
:101B00000B68D8600868806800F00702062A05D0D4
:101B10000868006840F001000B68186000207047FA
:101B2000704701460022002391F8392091F83A309D
:101B300042EA0300704700002DE9F04704462068A0
:101B400005682068C668206847694FF00008C146EC
:101B500005F00F08B8F1000F0AD105F0200038B1E8
:101B600006F0200020B1204603F038FBBDE8F087E6
:101B7000B8F1000F6DD007F0010018B906F49070AD
:101B8000002866D005F0010030B106F4807018B16D
:101B9000E06B40F00100E06305F0040030B107F0B5
:101BA000010018B1E06B40F00200E06305F00200B4
:101BB00030B107F0010018B1E06B40F00400E063C1
:101BC00005F0080030B107F0010018B1E06B40F0FB
:101BD0000800E063E06B68B305F0200028B106F070
:101BE000200010B1204603F0F9FA20684069C0F3E4
:101BF0008019E06B00F0080010B9B9F1000F22D095
:101C0000204603F0CBFA2068406900F04000B0B1F4
:101C10002068406920F0400021684861606B50B145
:101C20001748616B4863606BFEF7FEFD10B1606B97
:101C3000416B88470CE02046FFF772FF08E0204622
:101C4000FFF76EFF04E02046FFF76AFF0020E06325
:101C50008CE705F0800030B106F0800018B1204616
:101C600003F0E0FB82E705F0400030B106F04000F1
:101C700018B1204603F0A2FA78E700BF76E700002B
:101C80008951000810B504460CB9012010BDA069A7
:101C900000B100E000BF94F8390028B9002084F8B2
:101CA0003800204600F028F8242084F83900206805
:101CB000C06820F400502168C860204603F0E2FAB2
:101CC0002068006920F4904021680861206840691C
:101CD00020F02A00216848612068C06840F4005064
:101CE0002168C8600020E063202084F8390084F86F
:101CF0003A000020CAE7000010B586B00446254926
:101D00002068884244D100BF2348806940F0040025
:101D1000214988610846806900F00400019000BFF5
:101D200000BF00BF0846806940F4804088610846D3
:101D3000806900F48040019000BF00BF00BF0846EA
:101D4000806940F0010088610846806900F0010068
:101D5000019000BF00BF48150290022003900120AF
:101D600004900320059002A90C48FEF731FE4FF4C1
:101D7000806002900020039002A90848FEF728FE28
:101D80002520FFF720F8032211462520FFF72BF826
:101D900006B010BD003801400010024000080140AC
:101DA00010B5034693F83A0020282FD101B10AB9A3
:101DB000012010BD00BF93F83800012801D1022096
:101DC000F7E7012083F8380000BF99629A85DA8529
:101DD0000020D863222083F83A0000BF002083F857
:101DE000380000BF1868C06840F480701C68E0606C
:101DF0001868406940F001001C6860611868C0689C
:101E000040F020001C68E0600020D2E70220D0E70C
:101E10001D4A0168914236D11C49098801F40041EC
:101E200089BB1A49098801F4804171B118490978C0
:101E30000A2903D00021154A118024E0134909889A
:101E400041F40041114A11801DE0114909780D2922
:101E500006D10E49098841F480410C4A118012E0F4
:101E60000B490978094A1288C2F30D02094B9954AB
:101E700006490988491C054A118011460988C72965
:101E800001DD00211180704700380140180000205A
:101E90001A00002058010020704700BFFEE7000034
:101EA00000B585B000BF1A48806940F004001849A9
:101EB00088610846806900F00400009000BF00BF00
:101EC00000BF0846806940F040008861084680698C
:101ED00000F04000009000BF00BF012001900020F2
:101EE0000290022003900320049001A90948FEF704
:101EF0006FFD1C2001900020029001200390032020
:101F0000049001A90448FEF763FD05B000BD000080
:101F100000100240000801400018014010B50446BE
:101F2000012C01D12C4908702B480078002837D0AB
:101F300010212A48FEF7ECFE78B108212748FEF769
:101F4000E7FE50B104212548FEF7E2FE28B1012149
:101F50002348FEF7DDFE012822D10A2003F0ACFC65
:101F600000201D49087010211C48FEF7D1FE08B959
:101F7000012010BD08211948FEF7CAFE08B9022049
:101F8000F7E704211548FEF7C3FE08B90320F0E780
:101F900001211348FEF7BCFE01281BD10420E8E70D
:101FA00010210E48FEF7B4FE012813D108210B487A
:101FB000FEF7AEFE01280DD104210848FEF7A8FE69
:101FC000012807D101210648FEF7A2FE10B9012021
:101FD000014908700020CCE72400002000180140CF
:101FE0000008014070B5044600260948058840886D
:101FF00045430021084602F011FD02F095FE00BFA6
:1020000002E004490C80761CAE42FAD370BD000099
:10201000A80200200008006C10B5044655488471E1
:10202000002C51D1F020534908804FF4A070488013
:102030000846808849F24131884205D04D48808861
:1020400045F21031884214D12C204A4908812A20B7
:1020500048812B2088810846808845F210318842CB
:1020600006D14FF4A070434908804FF4F0704880C7
:102070007BE04048808845F21051884210D14FF4EF
:1020800030503C4908814FF4285048814FF42C507F
:1020900088814FF4F07008804FF44870488064E005
:1020A0003448808841F6631188425ED12C20314942
:1020B00008812B2048812A2088814FF4F070088005
:1020C0004FF44870488050E04FF4A07029490880D0
:1020D000F02048800846808849F24131884205D086
:1020E0002448808845F21031884207D12C202149AC
:1020F00008812A2048812B20888129E01D4880887A
:1021000045F21051884210D14FF4305019490881DE
:102110004FF4285048814FF42C5088814FF4487078
:1021200008804FF4F070488012E01248808841F631
:10213000631188420CD12C200E4908812A20488145
:102140002B2088814FF4487008804FF4F07048804D
:102150000848808845F21031884206D14FF4F0706B
:10216000044908804FF4A0704880002002F01CFB56
:1021700010BD0000A802002030B504460D463E48C0
:10218000808849F24131884205D03B48808845F239
:102190001031884214D13849488902F0B9FD201223
:1021A00002F0AAFDE0B202F0A7FD3349888902F0EF
:1021B000AFFD281202F0A0FDE8B202F09DFD54E050
:1021C0002D48808845F21051884220D12A494889FB
:1021D00002F09EFD201202F08FFD27494989491C1B
:1021E00088B202F095FDE0B202F086FD22498889AE
:1021F00002F08EFD281202F07FFD1F498989491CDB
:1022000088B202F085FDE8B202F076FD2DE01A48B2
:10221000808841F66311884227D11748807920B918
:1022200015480088401E001B84B21349488902F0FB
:102230006FFD201202F060FDE0B202F05DFD2012A1
:1022400002F05AFDE0B202F057FD0B49888902F016
:102250005FFD281202F050FDE8B202F04DFD281299
:1022600002F04AFDE8B202F047FD03480089034945
:102270000880891C0A8030BDA8020020FE07006C7F
:102280002DE9F04F05460E4617469846DDF824A086
:102290004FF0000B781B401C1FFA80FB344613E004
:1022A0002146284602F0BAFB02F03EFD4FF000093D
:1022B00006E00749A1F800A009F101001FFA80F922
:1022C000D945F6DB601C84B24445E9DDBDE8F08FFA
:1022D0000008006C00B593B000BFFE48806940F074
:1022E0000800FC4988610846806900F008000090F9
:1022F00000BF00BF01200F9010901190032012909A
:102300000FA9F548FEF764FB4FF02040F349086041
:10231000F3484860062088600021F048C1600161F0
:102320001021416100218161C16141624FF48051FE
:1023300081620021C1624FF4804101630021416349
:10234000816306200890002009901A200A9000203E
:102350000E9004900320019000200290062003902C
:102360000020079001AA08A9DC48FFF7EEFA322006
:1023700003F0A2FAD32002F0CBFC02F0E1F9D94934
:10238000888002F0DDF9D749888002F0D9F9D54973
:102390008880084680884FF6FF7101EA0020D14905
:1023A000888002F0CDF9CF4989880843CD498880DB
:1023B0000846808849F24131884278D0D42002F022
:1023C000A7FC02F0BDF9C749888002F0B9F9C549F8
:1023D000888002F0B5F9C3498880084680884FF6A6
:1023E000FF7101EA0020BF49888002F0A9F9BD49C8
:1023F00089880843BB4988800846808845F21031A7
:10240000884254D04FF45A4002F082FC02F098F90E
:10241000B44988804FF45B4002F07AFC02F090F9F6
:10242000B0498880084680884FF6FF7101EA002095
:10243000AC4988804FF45C4002F06AFC02F080F9FD
:10244000A84989880843A749888008468088B0F54C
:10245000004F02D145F210508880A248808845F292
:102460001051884223D0A12002F052FC02F068F9FA
:102470009C49888002F064F99A49888008468088DF
:102480004FF6FF7101EA00209649888002F058F962
:10249000944989880843934988800846808845F292
:1024A0006171884203D141F663108E4988808D485E
:1024B00081888DA0FDF7DCFE8A48808849F2413191
:1024C00088427CD1CF2002F023FC002002F014FCD3
:1024D000C12002F011FC302002F00EFCED2002F0D1
:1024E00017FC642002F008FC032002F005FC122017
:1024F00002F002FC812002F0FFFBE82002F008FC61
:10250000852002F0F9FB102002F0F6FB7A2002F0A1
:10251000F3FBCB2002F0FCFB392002F0EDFB2C207A
:1025200002F0EAFB002002F0E7FB342002F0E4FBBB
:10253000022002F0E1FBF72002F0EAFB202002F08B
:10254000DBFBEA2002F0E4FB002002F0D5FB0020D8
:1025500002F0D2FBC02002F0DBFB1B2002F0CCFB20
:10256000C12002F0D5FB012002F0C6FBC52002F01D
:10257000CFFB302002F0C0FB302002F0BDFBC720B3
:1025800002F0C6FBB72002F0B7FB362002F0C0FB1A
:10259000482002F0B1FB3A2002F0BAFB552002F0CD
:1025A000ABFBB12002F0B4FB002002F0A5FB1A2027
:1025B00002F0A2FBB62002F0ABFB0A2000E0ACE088
:1025C00002F09AFBA22002F097FBF22002F0A0FB9F
:1025D000002002F091FB262002F09AFB012002F07D
:1025E0008BFBE02002F094FB0F2002F085FB2A20F9
:1025F00002F082FB282002F07FFB082002F07CFB27
:102600000E2002F079FB082002F076FB542002F045
:1026100073FBA92002F070FB432002F06DFB0A203F
:1026200002F06AFB0F2002F067FB002002F064FB5F
:10263000002002F061FB002002F05EFB002002F0AF
:102640005BFBE12002F064FB002002F055FB15204B
:1026500002F052FB172002F04FFB072002F04CFB68
:10266000112002F049FB062002F046FB2B2002F06D
:1026700043FB562002F040FB3C2002F03DFB0520CE
:1026800002F03AFB102002F037FB0F2002F034FB7F
:102690003F2002F031FB3F2002F02EFB0F2002F022
:1026A0002BFB2B2002F034FB002002F025FB002046
:1026B00002F022FB012002F01FFB3F2002F01CFB76
:1026C0002A2002F025FB002002F016FB002002F079
:1026D00013FB11E000100240000C014060020020DA
:1026E000040100A0A8020020204C43442049443AA1
:1026F00025780D0A00000000002002F0FDFAEF200E
:1027000002F0FAFA112002F003FB782003F0D4F86B
:10271000292002F0FDFA01F0CBBFFE48808845F287
:102720001031884240F07C87ED2002F0F1FA012060
:1027300002F0E2FAFE2002F0DFFAEE2002F0E8FA00
:10274000DE2002F0D9FA212002F0D6FAF12002F0C0
:10275000DFFA012002F0D0FADF2002F0D9FA1020CF
:1027600002F0CAFAC42002F0D3FA8F2002F0C4FAB1
:10277000C62002F0CDFA002002F0BEFAE22002F0FC
:10278000BBFAE22002F0B8FAE22002F0B5FABF206C
:1027900002F0BEFAAA2002F0AFFAB02002F0B8FAB6
:1027A0000D2002F0A9FA002002F0A6FA0D2002F096
:1027B000A3FA002002F0A0FA112002F09DFA0020F6
:1027C00002F09AFA192002F097FA002002F094FA27
:1027D000212002F091FA002002F08EFA2D2002F062
:1027E0008BFA002002F088FA3D2002F085FA0020E2
:1027F00002F082FA5D2002F07FFA002002F07CFAFB
:102800005D2002F079FA002002F076FAB12002F0A1
:102810007FFA802002F070FA002002F06DFA8B201F
:1028200002F06AFA002002F067FA962002F064FAD9
:10283000002002F061FAB22002F06AFA002002F0F1
:102840005BFA002002F058FA022002F055FA00204C
:1028500002F052FA032002F04FFA002002F04CFA84
:10286000B32002F055FA002002F046FA002002F0F0
:1028700043FA002002F040FA002002F03DFA002066
:1028800002F03AFA002002F037FA002002F034FA9F
:10289000002002F031FA002002F02EFA002002F0AF
:1028A0002BFA002002F028FA002002F025FA00207E
:1028B00002F022FA002002F01FFA002002F01CFAB7
:1028C000002002F019FA002002F016FA002002F0AF
:1028D00013FA002002F010FA002002F00DFA002096
:1028E00002F00AFA002002F007FA002002F004FACF
:1028F000002002F001FAB42002F00AFA8B2002F064
:10290000FBF9002002F0F8F9962002F0F5F900201A
:1029100002F0F2F9A12002F0EFF9002002F0ECF948
:10292000B52002F0F5F9022002F0E6F9002002F0ED
:10293000E3F9032002F0E0F9002002F0DDF90420C1
:1029400002F0DAF9002002F0D7F9B62002F0E0F93F
:10295000002002F0D1F9002002F0CEF9B72002F0F9
:10296000D7F9002002F0C8F9002002F0C5F93F2095
:1029700002F0C2F9002002F0BFF95E2002F0BCF9BB
:10298000002002F0B9F9642002F0B6F9002002F04C
:10299000B3F98C2002F0B0F9002002F0ADF9AC20C0
:1029A00002F0AAF9002002F0A7F9DC2002F0A4F955
:1029B000002002F0A1F9702002F09EF9002002F040
:1029C0009BF9902002F098F9002002F095F9EB2095
:1029D00002F092F9002002F08FF9DC2002F08CF96D
:1029E000002002F089F9B82002F092F9002002F0EC
:1029F00083F9002002F080F9002002F07DF9002028
:102A000002F07AF9002002F077F9002002F074F960
:102A1000002002F071F9002002F06EF9BA2002F0F5
:102A200077F9242002F068F9002002F065F900200F
:102A300002F062F9002002F05FF9C12002F068F9AB
:102A4000202002F059F9002002F056F9542002F03B
:102A500053F9002002F050F9FF2002F04DF9002058
:102A600002F04AF9C22002F053F90A2002F044F9B8
:102A7000002002F041F9042002F03EF9002002F0AB
:102A80003BF9C32002F044F93C2002F035F9002064
:102A900002F032F93A2002F02FF9002002F02CF96E
:102AA000392002F029F9002002F026F9372002F03F
:102AB00023F9002002F020F93C2002F01DF900204B
:102AC00002F01AF9362002F017F9002002F014F98A
:102AD000322002F011F9002002F00EF92F2002F04E
:102AE0000BF9002002F008F92C2002F005F9002073
:102AF00002F002F9292002F0FFF8002002F0FCF8B1
:102B0000262002F0F9F8002002F0F6F8242002F066
:102B1000F3F801E0A8020020002002F0EDF82420E4
:102B200002F0EAF8002002F0E7F8232002F0E4F8CF
:102B3000002002F0E1F83C2002F0DEF8002002F074
:102B4000DBF8362002F0D8F8002002F0D5F8322069
:102B500002F0D2F8002002F0CFF82F2002F0CCF8DB
:102B6000002002F0C9F82C2002F0C6F8002002F084
:102B7000C3F8292002F0C0F8002002F0BDF826209A
:102B800002F0BAF8002002F0B7F8242002F0B4F8FE
:102B9000002002F0B1F8242002F0AEF8002002F08C
:102BA000ABF8232002F0A8F8002002F0A5F8C4201A
:102BB00002F0AEF8622002F09FF8002002F09CF8CC
:102BC000052002F099F8002002F096F8842002F027
:102BD00093F8002002F090F8F02002F08DF8002029
:102BE00002F08AF8182002F087F8002002F084F83A
:102BF000A42002F081F8002002F07EF8182002F0F4
:102C00007BF8002002F078F8502002F075F80020E0
:102C100002F072F80C2002F06FF8002002F06CF85D
:102C2000172002F069F8002002F066F8952002F003
:102C300063F8002002F060F8F32002F05DF8002055
:102C400002F05AF8E62002F057F8002002F054F89B
:102C5000C52002F05DF8322002F04EF8002002F0AC
:102C60004BF8442002F048F8002002F045F86520B7
:102C700002F042F8002002F03FF8762002F03CF823
:102C8000002002F039F8882002F036F8002002F027
:102C900033F8C62002F03CF8202002F02DF8002086
:102CA00002F02AF8172002F027F8002002F024F89A
:102CB000012002F021F8002002F01EF8C72002F0E7
:102CC00027F8002002F018F8002002F015F8002084
:102CD00002F012F8002002F00FF8C82002F018F8F5
:102CE000002002F009F8002002F006F8002002F0AF
:102CF00003F8002002F000F8C92002F009F80020D3
:102D000001F0FAFF002001F0F7FF002001F0F4FFCE
:102D1000002001F0F1FF002001F0EEFF002001F0A3
:102D2000EBFF002001F0E8FF002001F0E5FF0020AC
:102D300001F0E2FF002001F0DFFF002001F0DCFFE6
:102D4000002001F0D9FF002001F0D6FF002001F0A3
:102D5000D3FF002001F0D0FF002001F0CDFFE020E4
:102D600001F0D6FF162001F0C7FF002001F0C4FFDC
:102D70001C2001F0C1FF002001F0BEFF212001F066
:102D8000BBFF002001F0B8FF362001F0B5FF0020A6
:102D900001F0B2FF462001F0AFFF002001F0ACFFD0
:102DA000522001F0A9FF002001F0A6FF642001F0ED
:102DB000A3FF002001F0A0FF7A2001F09DFF00207A
:102DC00001F09AFF8B2001F097FF002001F094FFA3
:102DD000992001F091FF002001F08EFFA82001F062
:102DE0008BFF002001F088FFB92001F085FF002053
:102DF00001F082FFC42001F07FFF002001F07CFF82
:102E0000CA2001F079FF002001F076FFD22001F006
:102E100073FF002001F070FFD92001F06DFF00204A
:102E200001F06AFFE02001F067FF002001F064FF7D
:102E3000F32001F061FF002001F05EFFE12001F0CE
:102E400067FF162001F058FF002001F055FF1C20FD
:102E500001F052FF002001F04FFF222001F04CFF53
:102E6000002001F049FF362001F046FF002001F06C
:102E700043FF452001F040FF002001F03DFF5220BC
:102E800001F03AFF002001F037FF642001F034FF29
:102E9000002001F031FF7A2001F02EFF002001F028
:102EA0002BFF8B2001F028FF002001F025FF992047
:102EB00001F022FF002001F01FFFA82001F01CFFFD
:102EC000002001F019FFB92001F016FF002001F0E9
:102ED00013FFC42001F010FF002001F00DFFCA20F5
:102EE00001F00AFF002001F007FFD22001F004FFEB
:102EF000002001F001FFD82001F0FEFE002001F0CB
:102F0000FBFEE02001F0F8FE002001F0F5FEF320CA
:102F100001F0F2FE002001F0EFFEE22001F0F8FEE9
:102F2000052001F0E9FE002001F0E6FE0B2001F093
:102F3000E3FE002001F0E0FE1B2001F0DDFE00209A
:102F400001F0DAFE342001F0D7FE002001F0D4FEBB
:102F5000442001F0D1FE002001F0CEFE4F2001F010
:102F6000CBFE002001F0C8FE612001F0C5FE00206C
:102F700001F0C2FE792001F0BFFE002001F0BCFE8E
:102F8000882001F0B9FE002001F0B6FE972001F084
:102F9000B3FE002001F0B0FEA62001F0ADFE00203F
:102FA00001F0AAFEB72001F0A7FE002001F0A4FE68
:102FB000C22001F0A1FE002001F09EFEC72001F01A
:102FC0009BFE002001F098FED12001F095FE00202C
:102FD00001F092FED62001F08FFE002001F08CFE61
:102FE000DD2001F089FE002001F086FEF32001F0D3
:102FF00083FE002001F080FEE32001F089FE052021
:1030000001F07AFE002001F077FE0A2001F074FE44
:10301000002001F071FE1C2001F06EFE002001F086
:103020006BFE332001F068FE002001F065FE4420B5
:1030300001F062FE002001F05FFE502001F05CFE16
:10304000002001F059FE622001F056FE002001F040
:1030500053FE782001F050FE002001F04DFE882044
:1030600001F04AFE002001F047FE972001F044FEE7
:10307000002001F041FEA62001F03EFE002001F0FC
:103080003BFEB72001F038FE002001F035FEC220E3
:1030900001F032FE002001F02FFEC72001F02CFECF
:1030A000002001F029FED12001F026FE002001F0D1
:1030B00023FED52001F020FE002001F01DFEDD20C2
:1030C00001F01AFE002001F017FEF32001F014FEBB
:1030D000002001F011FEE42001F01AFE012001F0B1
:1030E0000BFE002001F008FE012001F005FE00208B
:1030F00001F002FE022001F0FFFD002001F0FCFDC6
:103100002A2001F0F9FD002001F0F6FD3C2001F03D
:10311000F3FD002001F0F0FD4B2001F0EDFD00205B
:1031200001F0EAFD5D2001F0E7FD002001F0E4FD83
:10313000742001F0E1FD002001F0DEFD842001F0AB
:10314000DBFD002001F0D8FD932001F0D5FD00202B
:1031500001F0D2FDA22001F0CFFD002001F0CCFD56
:10316000B32001F0C9FD002001F0C6FDBE2001F032
:10317000C3FD002001F0C0FDC42001F0BDFD002012
:1031800001F0BAFDCD2001F0B7FD002001F0B4FD43
:10319000D32001F0B1FD002001F0AEFDDD2001F0F3
:1031A000ABFD002001F0A8FDF32001F0A5FD0020FB
:1031B00001F0A2FDE52001F0ABFD002001F09CFD37
:1031C000002001F099FD002001F096FD002001F0A3
:1031D00093FD022001F090FD002001F08DFD2920DB
:1031E00001F08AFD002001F087FD3C2001F084FD04
:1031F000002001F081FD4B2001F07EFD002001F058
:103200007BFD5D2001F078FD002001F075FD74204C
:1032100001F072FD002001F06FFD842001F06CFDD3
:10322000002001F069FD932001F066FD002001F00F
:1032300063FDA22001F060FD002001F05DFDB320E0
:1032400001F05AFD002001F057FDBE2001F054FDB1
:10325000002001F051FDC42001F04EFD002001F0DE
:103260004BFDCD2001F048FD002001F045FDD320AD
:1032700001F042FD002001F03FFDDC2001F03CFDAB
:10328000002001F039FDF32001F036FD002001F0AF
:1032900033FDE62001F03CFD112001F02DFD002062
:1032A00001F02AFD342001F027FD002001F024FD6B
:1032B000562001F021FD002001F01EFD762001F0D6
:1032C0001BFD002001F018FD772001F015FD002006
:1032D00001F012FD662001F00FFD002001F00CFD51
:1032E000882001F009FD002001F006FD992001F081
:1032F00003FD002001F000FDBB2001F0FDFC0020DB
:1033000001F0FAFC992001F0F7FC002001F0F4FC38
:10331000662001F0F1FC002001F0EEFC552001F0E8
:10332000EBFC002001F0E8FC552001F0E5FC00205A
:1033300001F0E2FC452001F0DFFC002001F0DCFCA4
:10334000432001F0D9FC002001F0D6FC442001F01C
:10335000D3FC002001F0D0FCE72001F0D9FC3220A2
:1033600001F0CAFC002001F0C7FC552001F0C4FCAC
:10337000002001F0C1FC762001F0BEFC002001F02D
:10338000BBFC662001F0B8FC002001F0B5FC672012
:1033900001F0B2FC002001F0AFFC672001F0ACFCB2
:1033A000002001F0A9FC872001F0A6FC002001F01C
:1033B000A3FC992001F0A0FC002001F09DFCBB20A3
:1033C00001F09AFC002001F097FC992001F094FC98
:1033D000002001F091FC772001F08EFC002001F02C
:1033E0008BFC442001F088FC002001F085FC562075
:1033F00001F082FC002001F07FFC232001F07CFC26
:10340000002001F079FC332001F076FC002001F06F
:1034100073FC452001F070FC002001F06DFCE820F9
:1034200001F076FC002001F067FC002001F064FC54
:10343000992001F061FC002001F05EFC872001F082
:103440005BFC002001F058FC882001F055FC0020B6
:1034500001F052FC772001F04FFC002001F04CFC01
:10346000662001F049FC002001F046FC882001F0B4
:1034700043FC002001F040FCAA2001F03DFC0020AC
:1034800001F03AFCBB2001F037FC002001F034FCD5
:10349000992001F031FC002001F02EFC662001F0A3
:1034A0002BFC002001F028FC552001F025FC002019
:1034B00001F022FC552001F01FFC002001F01CFC53
:1034C000442001F019FC002001F016FC442001F01A
:1034D00013FC002001F010FC552001F00DFC002031
:1034E00001F00AFCE92001F013FCAA2001F004FC21
:1034F000002001F001FC002001F0FEFB002001F0A3
:10350000FBFB002001F004FCAA2001F0F5FBCF201A
:1035100001F0FEFB002001F0EFFB002001F0ECFBCE
:10352000002001F0E9FB002001F0E6FB002001F0A3
:10353000E3FB002001F0E0FB002001F0DDFB0020B8
:1035400001F0DAFB002001F0D7FB002001F0D4FBF2
:10355000002001F0D1FB002001F0CEFB002001F0A3
:10356000CBFB002001F0C8FB002001F0C5FB0020D0
:1035700001F0C2FB002001F0BFFBF02001F0C8FB0E
:10358000002001F0B9FB502001F0B6FB002001F053
:10359000B3FB002001F0B0FB002001F0ADFBF320F5
:1035A00001F0B6FB002001F0A7FBF92001F0B0FB11
:1035B000062001F0A1FB102001F09EFB292001F064
:1035C0009BFB002001F098FB3A2001F0A1FB552065
:1035D00001F092FB112001F09BFB642002F06CF9DA
:1035E000292001F095FB352001F092FB002001F02D
:1035F00083FB512001F08CFBFF2001F07DFB532069
:1036000001F086FB2C2001F077FB552001F080FBB8
:10361000822001F071FB2C2001F07AFB01F048B808
:10362000FE48808845F2105188427DD155214FF4E3
:10363000704001F083FBAA214FF2010001F07EFBF4
:1036400052214FF2020001F079FB08214FF20300F2
:1036500001F074FB01214FF2040001F06FFB0D211A
:103660004FF4304001F06AFB0D214BF2010001F0F4
:1036700065FB0D214BF2020001F060FB34214FF499
:10368000364001F05BFB34214BF2016001F056FB48
:1036900034214BF2026001F051FB0D214FF4314017
:1036A00001F04CFB0D214BF2011001F047FB0D2105
:1036B0004BF2021001F042FB34214FF4374001F08D
:1036C0003DFB34214BF2017001F038FB34214BF209
:1036D000027001F033FB00214FF4324001F02EFB69
:1036E00000214BF2012001F029FB00214BF20220C6
:1036F00001F024FB24214FF4384001F01FFB24216A
:103700004BF6010001F01AFB24214BF6020001F0F8
:1037100015FB01214FF43F4001F010FB0F214FF446
:10372000334001F00BFB00E0FDE30F214BF20130D1
:1037300001F004FB0F214BF2023001F0FFFA3421BB
:103740004FF4394001F0FAFA34214BF6011001F040
:10375000F5FA34214BF6021001F0F0FA08214FF48B
:10376000354001F0EBFA08214BF2015001F0E6FA86
:1037700008214BF2025001F0E1FA03214FF44240DC
:1037800001F0DCFA24214FF43A4001F0D7FA242169
:103790004BF6012001F0D2FA24214BF6022001F071
:1037A000CDFA00214FF43C4001F0C8FA78214BF6E5
:1037B000014001F0C3FA00214BF6024001F0BEFACD
:1037C00000214FF43D4001F0B9FA78214BF6015049
:1037D00001F0B4FA00214BF6025001F0AFFA0021DB
:1037E0004FF43E4001F0AAFA64214BF6016001F06B
:1037F000A5FA00214FF4514001F0A0FA33214DF217
:10380000011001F09BFA00214DF2021001F096FA2E
:1038100034214DF2031001F091FA00214DF2041011
:1038200001F08CFA3A214DF2051001F087FA0021DF
:103830004DF2061001F082FA4A214DF2071001F014
:103840007DFA00214DF2081001F078FA5C214DF26A
:10385000091001F073FA00214DF20A1001F06EFA1E
:1038600081214DF20B1001F069FA00214DF20C108C
:1038700001F064FAA6214DF20D1001F05FFA00216B
:103880004DF20E1001F05AFAE5214DF20F1001F041
:1038900055FA01214DF2101001F050FA13214DF2AA
:1038A000111001F04BFA01214DF2121001F046FA0D
:1038B00054214DF2131001F041FA01214DF2141080
:1038C00001F03CFA82214DF2151001F037FA012186
:1038D0004DF2161001F032FACA214DF2171001F024
:1038E0002DFA02214DF2181001F028FA00214DF2B4
:1038F000191001F023FA02214DF21A1001F01EFAFC
:1039000001214DF21B1001F019FA02214DF21C1099
:1039100001F014FA34214DF21D1001F00FFA0221CA
:103920004DF21E1001F00AFA67214DF21F1001F04E
:1039300005FA02214DF2201001F000FA84214DF227
:10394000211001F0FBF902214DF2221001F0F6F9ED
:10395000A4214DF2231001F0F1F902214DF22410BF
:1039600001F0ECF9B7214DF2251001F0E7F9022141
:103970004DF2261001F0E2F9CF214DF2271001F0AF
:10398000DDF902214DF2281001F0D8F9DE214DF2C7
:10399000291001F0D3F902214DF22A1001F0CEF9DD
:1039A000F2214DF22B1001F0C9F902214DF22C1039
:1039B00001F0C4F9FE214DF22D1001F0BFF90321F1
:1039C0004DF22E1001F0BAF910214DF22F1001F036
:1039D000B5F903214DF2301001F0B0F933214DF269
:1039E000311001F0ABF903214DF2321001F0A6F9CC
:1039F0006D214DF2331001F0A1F900214FF4524036
:103A000001F09CF933214DF2012001F097F90021DA
:103A10004DF2022001F092F9342101E0A8020020C9
:103A20004DF2032001F08AF900214DF2042001F04B
:103A300085F93A214DF2052001F080F900214DF27F
:103A4000062001F07BF94A214DF2072001F076F9BA
:103A500000214DF2082001F071F95C214DF209209E
:103A600001F06CF900214DF20A2001F067F9812183
:103A70004DF20B2001F062F900214DF20C2001F013
:103A80005DF9A6214DF20D2001F058F900214DF20B
:103A90000E2001F053F9E5214DF20F2001F04EF90F
:103AA00001214DF2102001F049F913214DF21120AE
:103AB00001F044F901214DF2122001F03FF95421A7
:103AC0004DF2132001F03AF901214DF2142001F0DA
:103AD00035F982214DF2152001F030F901214DF226
:103AE000162001F02BF9CA214DF2172001F026F91A
:103AF00002214DF2182001F021F900214DF2192088
:103B000001F01CF902214DF21A2001F017F90121F0
:103B10004DF21B2001F012F902214DF21C2001F0A0
:103B20000DF934214DF21D2001F008F902214DF26A
:103B30001E2001F003F967214DF21F2001F0FEF86D
:103B400002214DF2202001F0F9F884214DF22120CC
:103B500001F0F4F802214DF2222001F0EFF8A42147
:103B60004DF2232001F0EAF802214DF2242001F069
:103B7000E5F8B7214DF2252001F0E0F802214DF2E1
:103B8000262001F0DBF8CF214DF2272001F0D6F8F6
:103B900002214DF2282001F0D1F8DE214DF229203A
:103BA00001F0CCF802214DF22A2001F0C7F8F221F1
:103BB0004DF22B2001F0C2F802214DF22C2001F031
:103BC000BDF8FE214DF22D2001F0B8F803214DF291
:103BD0002E2001F0B3F810214DF22F2001F0AEF8A5
:103BE00003214DF2302001F0A9F833214DF23120AC
:103BF00001F0A4F803214DF2322001F09FF86D216D
:103C00004DF2332001F09AF800214FF4534001F0B7
:103C100095F833214DF2013001F090F800214DF27A
:103C2000023001F08BF834214DF2033001F086F8B8
:103C300000214DF2043001F081F83A214DF20530B7
:103C400001F07CF800214DF2063001F077F84A21AE
:103C50004DF2073001F072F800214DF2083001F00A
:103C60006DF85C214DF2093001F068F800214DF249
:103C70000A3001F063F881214DF20B3001F05EF85B
:103C800000214DF20C3001F059F8A6214DF20D3013
:103C900001F054F800214DF20E3001F04FF8E5210B
:103CA0004DF20F3001F04AF801214DF2103001F0D1
:103CB00045F813214DF2113001F040F801214DF289
:103CC000123001F03BF854214DF2133001F036F878
:103CD00001214DF2143001F031F882214DF21530FE
:103CE00001F02CF801214DF2163001F027F8CA211D
:103CF0004DF2173001F022F802214DF2183001F098
:103D00001DF800214DF2193001F018F802214DF292
:103D10001A3001F013F801214DF21B3001F00EF8BA
:103D200002214DF21C3001F009F834214DF21D3012
:103D300001F004F802214DF21E3000F0FFFF672170
:103D40004DF21F3000F0FAFF02214DF2203000F05A
:103D5000F5FF84214DF2213000F0F0FF02214DF2F9
:103D6000223000F0EBFFA4214DF2233000F0E6FFFB
:103D700002214DF2243000F0E1FFB7214DF2253051
:103D800000F0DCFF02214DF2263000F0D7FFCF21FA
:103D90004DF2273000F0D2FF02214DF2283000F022
:103DA000CDFFDE214DF2293000F0C8FF02214DF297
:103DB0002A3000F0C3FFF2214DF22B3000F0BEFF9D
:103DC00002214DF22C3000F0B9FFFE214DF22D30D2
:103DD00000F0B4FF03214DF22E3000F0AFFF1021B0
:103DE0004DF22F3000F0AAFF03214DF2303000F0E9
:103DF000A5FF33214DF2313000F0A0FF03214DF239
:103E0000323000F09BFF6D214DF2333000F096FF11
:103E100000214FF4544000F091FF33214DF2014056
:103E200000F08CFF00214DF2024000F087FF3421AA
:103E30004DF2034000F082FF00214DF2044000F0FB
:103E40007DFF3A214DF2054000F078FF00214DF250
:103E5000064000F073FF4A214DF2074000F06EFF6C
:103E600000214DF2084000F069FF5C214DF209404D
:103E700000F064FF00214DF20A4000F05FFF812155
:103E80004DF20B4000F05AFF00214DF20C4000F0C3
:103E900055FFA6214DF20D4000F050FF00214DF2DC
:103EA0000E4000F04BFFE5214DF20F4000F046FFC1
:103EB00001214DF2104000F041FF13214DF211405D
:103EC00000F03CFF01214DF2124000F037FF542179
:103ED0004DF2134000F032FF01214DF2144000F08A
:103EE0002DFF82214DF2154000F028FF01214DF2F7
:103EF000164000F023FFCA214DF2174000F01EFFCC
:103F000002214DF2184000F019FF00214DF2194036
:103F100000F014FF02214DF21A4000F00FFF0121C2
:103F20004DF21B4000E005E300F008FF02214DF2D6
:103F30001C4000F003FF34214DF21D4000F0FEFE56
:103F400002214DF21E4000F0F9FE67214DF21F40A4
:103F500000F0F4FE02214DF2204000F0EFFE84213B
:103F60004DF2214000F0EAFE02214DF2224000F025
:103F7000E5FEA4214DF2234000F0E0FE02214DF2C7
:103F8000244000F0DBFEB7214DF2254000F0D6FEC4
:103F900002214DF2264000F0D1FECF214DF2274004
:103FA00000F0CCFE02214DF2284000F0C7FEDE21D9
:103FB0004DF2294000F0C2FE02214DF22A4000F0ED
:103FC000BDFEF2214DF22B4000F0B8FE02214DF271
:103FD0002C4000F0B3FEFE214DF22D4000F0AEFE6D
:103FE00003214DF22E4000F0A9FE10214DF22F408A
:103FF00000F0A4FE03214DF2304000F09FFE33217B
:104000004DF2314000F09AFE03214DF2324000F0B3
:1040100095FE6D214DF2334000F090FE00214FF4EB
:10402000554000F08BFE33214DF2015000F086FE2A
:1040300000214DF2025000F081FE34214DF2035078
:1040400000F07CFE00214DF2045000F077FE3A2192
:104050004DF2055000F072FE00214DF2065000F0C6
:104060006DFE4A214DF2075000F068FE00214DF22E
:10407000085000F063FE5C214DF2095000F05EFE36
:1040800000214DF20A5000F059FE81214DF20B50F3
:1040900000F054FE00214DF20C5000F04FFEA6211E
:1040A0004DF20D5000F04AFE00214DF20E5000F08E
:1040B00045FEE5214DF20F5000F040FE01214DF28A
:1040C000105000F03BFE13214DF2115000F036FE6F
:1040D00001214DF2125000F031FE54214DF21350E7
:1040E00000F02CFE01214DF2145000F027FE822139
:1040F0004DF2155000F022FE01214DF2165000F055
:104100001DFECA214DF2175000F018FE02214DF29B
:10411000185000F013FE00214DF2195000F00EFE71
:1041200002214DF21A5000F009FE01214DF21B5000
:1041300000F004FE02214DF21C5000F0FFFD34217E
:104140004DF21D5000F0FAFD02214DF21E5000F01C
:10415000F5FD67214DF21F5000F0F0FD02214DF2F8
:10416000205000F0EBFD84214DF2215000F0E6FDDF
:1041700002214DF2225000F0E1FDA4214DF2235026
:1041800000F0DCFD02214DF2245000F0D7FDB721F4
:104190004DF2255000F0D2FD02214DF2265000F0E4
:1041A000CDFDCF214DF2275000F0C8FD02214DF288
:1041B000285000F0C3FDDE214DF2295000F0BEFD75
:1041C00002214DF22A5000F0B9FDF2214DF22B50A0
:1041D00000F0B4FD02214DF22C5000F0AFFDFE21A5
:1041E0004DF22D5000F0AAFD03214DF22E5000F0AB
:1041F000A5FD10214DF22F5000F0A0FD03214DF23E
:10420000305000F09BFD33214DF2315000F096FD0F
:1042100003214DF2325000F091FD6D214DF23350EB
:1042200000F08CFD00214FF4564000F087FD332153
:104230004DF2016000F082FD00214DF2026000F0BD
:104240007DFD34214DF2036000F078FD00214DF238
:10425000046000F073FD3A214DF2056000F06EFD40
:1042600000214DF2066000F069FD4A214DF2076021
:1042700000F064FD00214DF2086000F05FFD5C215C
:104280004DF2096000F05AFD00214DF20A6000F085
:1042900055FD81214DF20B6000F050FD00214DF2E3
:1042A0000C6000F04BFDA6214DF20D6000F046FDC4
:1042B00000214DF20E6000F041FDE5214DF20F604E
:1042C00000F03CFD01214DF2106000F037FD13219C
:1042D0004DF2116000F032FD01214DF2126000F04C
:1042E0002DFD54214DF2136000F028FD01214DF207
:1042F000146000F023FD82214DF2156000F01EFDD8
:1043000001214DF2166000F019FDCA214DF217602F
:1043100000F014FD02214DF2186000F00FFD0021A5
:104320004DF2196000F00AFD02214DF21A6000F012
:1043300005FD01214DF21B6000F000FD02214DF250
:104340001C6000F0FBFC34214DF21D6000F0F6FC17
:1043500002214DF21E6000F0F1FC67214DF21F605A
:1043600000F0ECFC02214DF2206000F0E7FC84211B
:104370004DF2216000F0E2FC02214DF2226000F0DB
:10438000DDFCA4214DF2236000F0D8FC02214DF2A7
:10439000246000F0D3FCB7214DF2256000F0CEFC84
:1043A00002214DF2266000F0C9FCCF214DF22760BA
:1043B00000F0C4FC02214DF2286000F0BFFCDE21B9
:1043C0004DF2296000F0BAFC02214DF22A6000F0A3
:1043D000B5FCF2214DF22B6000F0B0FC02214DF251
:1043E0002C6000F0ABFCFE214DF22D6000F0A6FC2D
:1043F00003214DF22E6000F0A1FC10214DF22F6040
:1044000000F09CFC03214DF2306000F097FC33215A
:104410004DF2316000F092FC03214DF2326000F069
:104420008DFC6D214DF2336000F088FC55214FF476
:10443000704000F083FCAA214FF2010000F07EFCE6
:1044400052214FF2020000F079FC08214FF20300E4
:1044500000F074FC00214FF2040000F06FFCCC214E
:104460004FF4314000F06AFC00214BF2011000F0E3
:1044700065FC05214FF4364000F060FC70214FF4DC
:10448000374000F05BFC70214BF2017000F056FCED
:1044900001214FF4384000F051FC03214BF601009C
:1044A00000F04CFC03214BF6020000F047FC032116
:1044B0004BF6030000F042FC02214FF43C4000F0B8
:1044C0003DFC00214BF6014000F038FC00214BF68A
:1044D000024000F033FCD0214FF4494000F02EFCA4
:1044E00002214CF6011000F029FC50214CF602107C
:1044F00000F024FC50214CF6031000F01FFC50216A
:104500004CF6041000F01AFC00214FF4545000F057
:1045100015FC55214FF4685000F010FC4FF4885002
:1045200000F0F6FB782001F0D3F94FF4245000F0AE
:10453000EFFBBDE07F48808841F663118842F8D1E7
:10454000E22000F0E5FB1D2000F0D6FB022000F089
:10455000D3FB042000F0D0FB642001F0B9F9E02087
:1045600000F0D6FB012000F0C7FB0A2001F0A4F9FF
:10457000E02000F0CDFB032000F0BEFB0C2001F09A
:104580009BF9012000F0C4FB0A2001F095F9E62018
:1045900000F0BEFB2F2000F0AFFBFF2000F0ACFBD3
:1045A000FF2000F0A9FBB02000F0B2FB202000F0BB
:1045B000A3FB002000F0A0FB032000F09DFB40F2D5
:1045C0001F3000F099FB012000F096FB40F2DF1055
:1045D00000F092FB002000F08FFBB42000F098FB6D
:1045E000042000F089FB40F21F4000F085FB002012
:1045F00000F082FB2E2000F07FFB002000F07CFB0F
:10460000002000F079FB002000F076FB002000F095
:1046100073FBB62000F07CFB022000F06DFB4FF432
:10462000037000F069FB002000F066FB172000F02B
:1046300063FB152000F060FB002000F05DFB002014
:1046400000F05AFBF02000F063FB032000F054FB65
:10465000292000F05DFBD02000F05AFB002000F084
:104660004BFBBE2000F054FB052000F045FBFE2074
:1046700000F042FB012000F03FFB002000F03CFB7B
:10468000002000F039FB002000F036FBB82000F0DD
:104690003FFB032000F030FB012000F02DFBBA208F
:1046A00000F036FB012000F027FB642000F052F8F8
:1046B0002048808849F24131884211D01D488088C5
:1046C00045F2103188420BD01A48808845F21051CB
:1046D000884205D01748808841F6631188421CD172
:1046E0001548006820F00F004FF02041C1F81C0170
:1046F0000846D0F81C0120F47060C1F81C0108467F
:10470000D0F81C0140F00100C1F81C010846D0F8A7
:104710001C0140F48070C1F81C010020FDF77CFCF6
:104720000120064908604FF6FF70FDF75BFC13B0EF
:1047300000BD0000A80200201C0100A080812142D1
:1047400008B5034800880090BDF8000008BD0000CF
:104750000008006C2DE9F0470446BE2000F0D8FAAE
:10476000052000F0C9FA204602F051FB07464FF041
:1047700066320C4B02F05EFB054602F01BFB1FFA93
:1047800080F9484600F0B8FA012000F0B5FAFF20A1
:1047900000F0B2FA002000F0AFFA002000F0ACFA0E
:1047A000BDE8F08766660440F0B5054600240027A2
:1047B00099488079012805D19748808841F663118E
:1047C000884208D194488079F0B99348808841F6AE
:1047D0006311884218D1082D15D2DFE805F00406D0
:1047E000080A0C0E101206250DE007250BE0042523
:1047F00009E0052507E0012505E0002503E0032584
:1048000001E0022500BF00BF8348808849F24131A2
:10481000884211D08048808845F2103188420BD000
:104820007D48808845F21051884205D07A488088BA
:1048300041F6631188427DD1082D1CD2DFE805F0D6
:104840000406090C0F12151800BF14E044F0800490
:1048500011E044F040040EE044F0C0040BE044F0EA
:10486000200408E044F0600405E044F0A00402E005
:1048700044F0E00400BF00BF6748808845F2105153
:10488000884202D14FF4585700E0362762488088AA
:1048900045F2103188420DD05F48808845F21051B2
:1048A000884207D05C48808841F66311884201D075
:1048B00044F008042146384600F040FA5648808803
:1048C00041F6631188421DD004F0200068B15248BF
:1048D000008851494988884214DA4F480688408840
:1048E0004D490880084646800CE04B4800884A49FC
:1048F0004988884206DD484806884088464908803D
:10490000084646804448808845F21051884254D178
:104910004149488900F0FCF9002000F0EDF93E49DA
:104920004989491C88B200F0F3F9002000F0E4F94D
:10493000394900E06FE04989891C88B200F0E8F944
:1049400035490988491EC1F30F2000F0D5F93249D5
:104950004989C91C88B200F0DBF92F490978491E42
:10496000C8B200F0C9F92C49888900F0D1F90020BB
:1049700000F0C2F928498989491C88B200F0C8F9B9
:10498000002000F0B9F924498989891C88B200F017
:10499000BFF921494988491EC1F30F2000F0ACF945
:1049A0001D498989C91C88B200F0B2F91A49897871
:1049B000491EC8B200F0A0F92DE01749488900F05F
:1049C000A7F9002000F098F9002000F095F91249AD
:1049D0000988491EC1F30F2000F08EF90E490978AD
:1049E000491EC8B200F088F90B49888900F090F997
:1049F000002000F081F9002000F07EF90649498886
:104A0000491EC1F30F2000F077F903498978491E48
:104A1000C8B200F071F9F0BDA802002010B502463E
:104A20000C464B48808849F24131884205D04848BD
:104A3000808845F21031884214D14549488900F0F8
:104A400067F9101200F058F9D0B200F055F940495A
:104A5000888900F05DF9201200F04EF9E0B200F014
:104A60004BF973E03A48808841F66311884247D198
:104A700037488079A8B936480088401E801A82B22B
:104A80003349488900F044F9002000F035F900204E
:104A900000F032F9101200F02FF9D0B200F02CF92A
:104AA00016E02B49488900F033F9101200F024F980
:104AB000D0B200F021F926490988491EC1F30F2020
:104AC00000F01AF922490978491EC8B200F014F919
:104AD0001F49888900F01CF9201200F00DF9E0B29E
:104AE00000F00AF91A494988491EC1F30F2000F065
:104AF00003F917498978491EC8B200F0FDF825E08E
:104B00001348808845F2105188421FD110494889C6
:104B100000F0FEF8101200F0EFF80D494989491C29
:104B200088B200F0F5F8D0B200F0E6F808498889BC
:104B300000F0EEF8201200F0DFF805498989491CE1
:104B400088B200F0E5F8E0B200F0D6F810BD000041
:104B5000A80200202DE9F84F80460F4616461C4655
:104B6000BB462046E31704EB5373DB1021464FEAA4
:104B7000E47C04EB5C7C4FEAEC0CA4EBCC0CBCF1C9
:104B8000000F02D04FF0010C01E04FF0000C634425
:104B9000224604EBD27C4FEA6C0C03FB0CF3DBB235
:104BA0000093A6F12000C6B200255EE00C2C07D1D0
:104BB00006EB46002F4901EB800010F805901BE042
:104BC000102C05D12C4800EB061010F8059013E0CE
:104BD000182C07D106EBC600284901EB800010F81D
:104BE000059009E0202C05D1254800EBC61010F8EF
:104BF000059001E0BDE8F88F4FF0000A2FE009F0C2
:104C0000800030B11F48394602684046FDF7B4FACB
:104C100007E00A9828B91C48394602684046FDF763
:104C2000ABFA4FEA49604FEA1069781C87B217481F
:104C30004088B84200DCDDE7A7EB0B00A0420AD1B8
:104C40005F4608F101001FFA80F8104800884045CF
:104C500000DCCFE706E00AF1010000F0FF0ABAF13C
:104C6000080FCCDB00BF681CC5B2009885429DDBF5
:104C700000BFBFE75E700008D2740008C27A000867
:104C80001E8800081C00002020000020A802002030
:104C90002DE9F84704460D4690469946DDE9096737
:104CA00004F0FF0A08EB04001FFA80F809EB050086
:104CB0001FFA80F916E0444502DB5446A81985B274
:104CC0004D4500DB14E0002000903A783346294639
:104CD0002046FFF73FFF304606EBD07104EB610141
:104CE0008CB27F1C38787E2802DC38782028E2DA03
:104CF00000BFBDE8F887000001B5BDF800000090D6
:104D0000BDF800000149088008BD00000008006CE3
:104D100001B5BDF800000090BDF800000149088011
:104D200008BD0000FE07006C0248008902490880A7
:104D300070470000A8020020FE07006C024A1080A5
:104D4000921C118070470000FE07006C00B585B012
:104D500000BF1B48806940F0080019498861084677
:104D6000806900F00800009000BF00BF00BF084647
:104D7000806940F0400088610846806900F040008A
:104D8000009000BF00BF20200190012002900390FE
:104D90000320049001A90B48FBF71AFE2020019084
:104DA00001A90948FBF714FE012220210548FBF761
:104DB000B7FF012220210448FBF7B2FF05B000BD78
:104DC00000100240000C01400018014000BFFEE747
:104DD0007047704708B508490968C9084FF47A72E6
:104DE000B1FBF2F14143009100BF00BF00994A1EA0
:104DF00000920029F9D108BD0000002010B5134829
:104E0000134908604FF482704860002110488160A7
:104E1000C1600221016101214161490281613821A2
:104E2000C16100210162416281620721C162FCF718
:104E300095FB07480068006840F040000449096895
:104E40000860FF2000F006F810BD000000380040A8
:104E5000B802002001B582B04FF47A70012301AA94
:104E600002A900900248FCF7F9FB9DF804000EBD72
:104E7000B802002010490968096821F040010E4A73
:104E8000126811600C49096809684FF6C772114031
:104E9000094A126811600849096809680143064A0D
:104EA0001268116004490968096841F04001024A2A
:104EB0001268116070470000B8020020F8B504467F
:104EC0000D4616462B46002280212046009600F013
:104ED0000CF828B1606D40F0200060650320F8BD3B
:104EE0000020FCE70146012070472DE9F04104460F
:104EF0000E4617461D46DDF818803EE0681CD8B304
:104F0000FBF714FFA0EB0800A84200D2A5BB206865
:104F1000406820F0E000216848606068B0F5827F5A
:104F20000DD1A068B0F5004F03D0A068B0F5806F38
:104F300005D12068006820F0400021680860A06A60
:104F4000B0F5005F0DD100BF2068006820F400506C
:104F5000216808602068006840F4005021680860FB
:104F600000BF012084F8510000BF002084F85000E9
:104F700000BF0320BDE8F081FFE720688068304073
:104F8000B04201D1012000E00020B842B6D100209B
:104F9000F0E7704730B58FB005460024012005903A
:104FA000000406900020079002200C90C1030D9190
:104FB0000E9505A8FCF7A0F804460CB100BFFEE76B
:104FC0000F20009002200190002002904FF480609A
:104FD00003900020049002216846FBF757FF044627
:104FE0000CB100BFFEE70FB030BD10B5FBF7A4FE5B
:104FF00010BD00001148006840F001000F49086032
:10500000084640680E4908400C4948600846006858
:105010000C490840094908600846006820F48020CF
:1050200008600846406820F4FE0048604FF41F0006
:105030008860C803044908607047000000100240FF
:105040000000FFF8FFFFF6FE08ED00E010B50E4887
:105050000068C06800F0010078B10C490869804719
:10506000002009490968486200BF642006490968B0
:10507000C86264210448C16000BF6FF001000249AA
:105080000968086110BD00001013002064000020B2
:1050900010B50268204B98420ED0204B98420BD09E
:1050A000B0F1804F08D01E4B984205D01D4B98425E
:1050B00002D01D4B984203D122F070024B681A4374
:1050C000154B98420ED0154B98420BD0B0F1804F43
:1050D00008D0134B984205D0124B984202D0124B85
:1050E000984203D122F44072CB681A4322F0800325
:1050F0004C6943EA040202608B68C3620B688362F6
:10510000054B984202D0054B984201D10B690363CD
:105110000123436110BD0000002C01400034014018
:105120000004004000080040000C004038B5044670
:105130000D4600BF1148C06940F004000F49C86126
:105140000846C06900F00400009000BF00BF0322C1
:1051500011461E20FBF747FE1E20FBF734FE0848D1
:10516000084908600846456000218160C46001610B
:10517000FCF7A6FC0348FCF7BEFC38BD001002405B
:10518000000800401013002070B505466C6A00202E
:10519000E085E0842046FCF7C3FC70BD0168C96867
:1051A00021F490710268D1600168496921F0010120
:1051B00002685161202180F83A10704710B504460A
:1051C0002068C06820F040002168C860202084F872
:1051D00039002046FCF760FE002010BD70B5044683
:1051E00094F83A0022284AD1A068B0F5805F13D124
:1051F000A56A206940B920684068C0F3080028808B
:10520000A06A801CA06219E020684068C0B22880B3
:10521000A06A401CA06211E0206938B9206840688B
:10522000C1B2A26A501CA062117007E020684068F9
:1052300000F07F01A26A501CA0621170E08D401E38
:1052400080B2E085C8B92068C06820F020002168DD
:10525000C8602068C06820F480702168C860206839
:10526000406920F0010021684861202084F83A005C
:105270002046FCF7CDFD002070BD0020FCE7022099
:10528000FAE7000070B504462168096921F440512D
:10529000E2681143226811612269A16811436269C1
:1052A00041EA02052168C96841F20C629143294331
:1052B0002268D1602168496921F44071A2691143D3
:1052C00022685161564A2168914254D1FBF7BAFED7
:1052D00000EBC00101EB001162689200B1FBF2F13A
:1052E00000EBC00202EB001263689B00B2FBF3F21A
:1052F0006423B2FBF3F202EBC20303EB0212A1EB55
:105300008201322202EB01116422B1FBF2F101F0C1
:10531000F00100EBC00202EB001263689B00B2FBDD
:10532000F3F26423B2FBF3F201EB021200EBC001D3
:1053300001EB001163689B00B1FBF3F100EBC003CC
:1053400003EB00136668B600B3FBF6F36426B3FB09
:10535000F6F303EBC30606EB0313A1EB8301322341
:1053600003EB01116423B1FBF3F101F00F011144D0
:105370002268916053E0FBF755FE00EBC00101EBA2
:10538000001162689200B1FBF2F100EBC00202EB87
:10539000001263689B00B2FBF3F26423B2FBF3F2EA
:1053A00002EBC20303EB0212A1EB8201322202EBF9
:1053B00001116422B1FBF2F101F0F00100EBC00237
:1053C00002EB001263689B00B2FBF3F26423B2FBB2
:1053D000F3F201EB021200EBC00101EB0011636874
:1053E0009B00B1FBF3F100EBC00303EB0013666815
:1053F000B600B3FBF6F36426B3FBF6F303EBC30688
:1054000006EB0313A1EB8301322303EB01116423A9
:10541000B1FBF3F101F00F0111442268916070BDFE
:1054200000380140014691F8390021282CD18868C4
:10543000B0F5805F0FD10A6A1088C0F308000B68CE
:105440005860086918B9086A801C086209E0086A8F
:10545000401C086205E00B6A581C086218780B684B
:105460005860C88C401E80B2C88458B90868C068AB
:1054700020F080000B68D8600868C06840F04000E9
:105480000B68D860002070470220FCE710B50024AC
:105490000C48FCF751FB00BF01E0641C00BF094849
:1054A000FCF73FFB2028F8D100BF002401E0641C7A
:1054B00000BF012204490348FCF772FC0028F6D122
:1054C00000BF10BD200200201A00002000BFFEE730
:1054D00010B50446240300F055F900F0EDF8002063
:1054E0000F4908602020FFF7B5FC0E4800884EF6F3
:1054F0001871884202D1200EFFF7ACFCC4F30740BC
:10550000FFF7A8FCC4F30720FFF7A4FCE0B2FFF705
:10551000A1FC01200249086000F0CEF810BD000097
:10552000B08121422600002010B586B000BF1E4881
:10553000806940F008001C4988610846806900F0D5
:105540000800019000BF00BF881402900120039062
:1055500004900320059002A91448FBF739FA0120B2
:1055600013490860FFF74AFC0020FFF783FC00F0B6
:1055700057F810490880084600884EF6187188428E
:1055800010D1032000F070F8044604F0010048B97F
:10559000002007490860B720FFF75CFC012006499E
:1055A000C1F8B00106B010BD00100240000C01406F
:1055B000B081214226000020008021422DE9F041E7
:1055C00006460C4617460020134908600320FFF7E3
:1055D00041FC124800884EF61871884202D1200E14
:1055E000FFF738FCC4F30740FFF734FCC4F307208F
:1055F000FFF730FCE0B2FFF72DFC002505E0FF20AF
:10560000FFF728FC7055681C85B2BD42F7DB01200E
:1056100001490860BDE8F081B081214226000020E8
:1056200010B5002400200E4908609020FFF712FCFE
:105630000020FFF70FFC0020FFF70CFC0020FFF715
:1056400009FCFF20FFF706FC44EA0024FF20FFF7D7
:1056500001FC044301200349C1F8B001204610BDFC
:10566000B08121420080214270B504460025002609
:10567000012C04D0022C04D0032C06D103E0052613
:1056800005E0352603E0152601E0052600BF00BF32
:105690000020074908603046FFF7DCFBFF20FFF7DA
:1056A000D9FB054601200349C1F8B001284670BD69
:1056B000B08121420080214210B500BF0120FFF7D8
:1056C000D3FF00F001000028F8D110BD2DE9F05FF4
:1056D00081460F461646DFF8A8B04FEA1738C7F3E1
:1056E0000B0ACAF58054A64200DC344644E04FEA77
:1056F00008314FF480525846FFF760FF002508E05C
:105700000AEB05001BF80000FF2800D003E0681C2E
:1057100085B2A542F4DB00BFA54216DA4046FFF78A
:10572000D7FE002507E019F8050005EB0A010BF884
:105730000100681C85B2A542F5DB4FEA08314FF441
:105740008052584600F02EF804E02246394648467A
:1057500000F028F8A64200D10FE008F101084FF050
:10576000000AA1442744301B86B2B6F5805F02DDF3
:105770004FF4805400E03446B9E700BFBDE8F09F25
:105780001003002010B50020044908600620FFF730
:1057900061FB01200249C1F8B00110BDB081214276
:1057A000008021422DE9F04107460E461446F0B232
:1057B000C0F58075AC4200DC254612E02A46314631
:1057C000384600F013F8AC4200D10BE02F442E44D1
:1057D000601B84B2B4F5807F02DD4FF4807500E079
:1057E0002546EBE700BFBDE8F08100002DE9F04160
:1057F00006460C461746FFF7C5FF0020144908600F
:105800000220FFF727FB134800884EF618718842E4
:1058100002D1200EFFF71EFBC4F30740FFF71AFB6F
:10582000C4F30720FFF716FBE0B2FFF713FB0025D8
:1058300004E0705DFFF70EFB681C85B2BD42F8DB2B
:10584000012003490860FFF737FFBDE8F081000041
:10585000B08121422600002002480068C0F30220E7
:10586000704700000CED00E010B5002804DB0A07CB
:10587000130E054A135406E00A07140E034A00F0FB
:105880000F031B1FD45410BD00E400E018ED00E02E
:1058900030380A2801D2012070470020704700BF2D
:1058A0007047000010B504460420FCF7DBF80148FF
:1058B000046010BD1000002030B50446002504E04F
:1058C0004FF47A7000F004F86D1CA542F8D330BD97
:1058D00070B5034600224FF0E02675690D4E36681C
:1058E00003FB06F44FF0E026B16910E04FF0E0262C
:1058F000B06988420BD0884202D20E1A324402E0CC
:105900002E1A0E4432440146A24200D300E0EDE7D5
:1059100000BF70BD1000002000BF054A126802F0F1
:105920004002002AF9D0C2B2014B1B1D1A60704719
:105930000038014088B000260027FBF709FA4FF431
:10594000E010FFF727FB4820FFF7ACFF4FF4E130F2
:1059500000F06AF97248416854208847FFF7F6F969
:10596000FCF79EFAFCF7B6FCFFF7DEFD4FF478403B
:105970006C4908606CA010210B46C822CDE90010CC
:1059800032211E20FFF784F96BA010210B46C8229C
:10599000CDE9001046211E20FFF77AF969A01021F9
:1059A0000B46C822CDE900105A211E20FFF770F9DE
:1059B00068A010210B46C822CDE900106E211E20E0
:1059C000FFF766F966A010210B46C822CDE900104A
:1059D00082211E20FFF75CF92FE0FFF721FE07462A
:1059E0004EF61770874203D045F21720874200D148
:1059F00024E061A010210B46C822CDE900109621B9
:105A00001E20FFF745F94FF4FA70FFF755FF60A02D
:105A100010210B46C822CDE9001096211E20FFF769
:105A200037F94FF4FA70FFF747FF5F48006808B98D
:105A3000012000E000205C490860CEE700BF5BA0C9
:105A400010210B46C822CDE9001096211E20FFF739
:105A50001FF94FF000751F20324908605FE00020F9
:105A6000FCF75CFA0446022C23D14FF6FF7040F29B
:105A70003F13EF22AA2100900020FCF701FC4FA069
:105A800010210B46C822CDE90010AA211E20FFF7E5
:105A9000FFF8A5F1640116224E48FFF717FE4EA04D
:105AA00010210B46C822CDE90010AA211E20FFF7C5
:105AB000EFF8012C23D14EA010210B46C822CDE9CE
:105AC0000010AA211E20FFF7E3F8A5F164011622B9
:105AD00002A8FFF773FD4CA010210B46C822CDE9A8
