:020000040800F2
:10000000280F00204D020008C936000807320008FA
:10001000C53600084304000841390008000000000C
:10002000000000000000000000000000CF360008C3
:100030001905000800000000CD360008D136000880
:1000400067020008670200086702000867020008EC
:1000500067020008670200086702000867020008DC
:1000600067020008670200086702000867020008CC
:1000700067020008670200086702000867020008BC
:10008000C9040008D90400086702000879040008C0
:1000900049040008590400086904000867020008C0
:1000A000670200086702000867020008670200088C
:1000B000670200086702000867020008670200087C
:1000C000670200086702000867020008670200086C
:1000D000670200086702000831390008670200085B
:1000E000670200086702000867020008670200084C
:1000F000670200086702000867020008670200083C
:10010000670200086702000867020008670200082B
:10011000670200086702000867020008670200081B
:10012000E9040008F904000867020008090500084E
:10013000670200086702000867020008B9040008A7
:100140008904000899040008A9040008670200084F
:1001500067020008670200086702000867020008DB
:1001600067020008670200086702000867020008CB
:10017000670200086702000867020008000000002C
:1001800067020008670200086702000867020008AB
:10019000670200086702000867020008670200089B
:1001A00000000000000000006702000800F002F8F4
:1001B00000F03CF80AA090E8000C82448344AAF1C5
:1001C0000107DA4501D100F031F8AFF2090EBAE8C3
:1001D0000F0013F0010F18BFFB1A43F0010318477B
:1001E000284E0000484E0000103A24BF78C878C15D
:1001F000FAD8520724BF30C830C144BF04680C602D
:10020000704700000023002400250026103A28BF74
:1002100078C1FBD8520728BF30C148BF0B60704778
:100220001FB504F0A6FE1FBD10B510BD00F0CFF83D
:100230001146FFF7F5FF04F06DFC00F0EDF803B494
:10024000FFF7F2FF03BC00F0F5F800000948804713
:1002500009480047FEE7FEE7FEE7FEE7FEE7FEE7A8
:10026000FEE7FEE7FEE7FEE704480549054A064BC0
:1002700070470000D9360008AD01000828090020A9
:10028000280F0020280B0020280B002053EA020C26
:1002900000F069802DE9F04B4FF00006002B1FBFE6
:1002A000B3FA83F503FA05F424FA05F65E4012BFAB
:1002B0001643B2FA82F502FA05F4C5F120051EBF15
:1002C00022FA05FC44EA0C04203556EA044C4FEAB5
:1002D000144418BF641C4FF000084FF0000990420E
:1002E00071EB030C39D3002919BFB1FA81F701FA78
:1002F00007F6B0FA80F700FA07F6C7F120071EBF2D
:1003000020FA07FC46EA0C062037B6FBF4FCA7EB04
:100310000507103F07F01F0BCBF120060CFA0BFB73
:100320002CFA06F644BFB3460026202FA4BF5E4633
:100330004FF0000B5BEA060C08BF4FF0010B19EB06
:100340000B09ABFB027C48EB0608C01B06FB02CC8A
:100350000BFB03CC71EB0C01C1E70B460246414697
:100360004846BDE8F08B13B54FF000004FF0000198
:10037000AFF30080BDE81C4070474FF0000200B5AD
:10038000134694469646203922BFA0E80C50A0E8B8
:100390000C50B1F12001BFF4F7AF090728BFA0E866
:1003A0000C5048BF0CC05DF804EB890028BF40F832
:1003B000042B08BF704748BF20F8022B11F0804F74
:1003C00018BF00F8012B704770477047704775469B
:1003D00000F02CF8AE4605006946534620F00700B1
:1003E000854618B020B5FFF73FFFBDE820404FF02D
:1003F00000064FF000074FF000084FF0000B21F00F
:100400000701AC46ACE8C009ACE8C009ACE8C009DB
:10041000ACE8C0098D46704710B50446AFF30080C4
:100420002046BDE81040FFF70ABF000000487047B3
:10043000C408002001491820ABBEFEE726000200D8
:10044000704700BFFEE7000010B5024800F043FB14
:1004500010BD00008005002010B5024800F03BFBF5
:1004600010BD00008005002010B5024800F033FBED
:1004700010BD00008005002010B5024800F02BFBE5
:1004800010BD00008005002010B5024800F023FBDD
:1004900010BD0000A805002010B5024800F01BFBAD
:1004A00010BD0000A805002010B5024800F013FBA5
:1004B00010BD0000A805002010B5024800F00BFB9D
:1004C00010BD0000A805002010B5024800F06CFF28
:1004D00010BD00007807002010B5024800F064FF4E
:1004E00010BD0000D807002010B5024800F05CFFE6
:1004F00010BD00002005002010B5024800F054FF98
:1005000010BD00008806002010B5024800F04CFF26
:1005100010BD000028060020704772B600BFFEE73D
:1005200038B502460020009000BF92F83C00012838
:1005300001D1022038BD012082F83C0000BF0868CC
:10054000092816D91068C0680C780A3C04EB4405E9
:100550000724AC40A0431468E0600C780A3C04EB2C
:1005600044048868A0401468E46820431468E0608C
:1005700013E0106800690C7804EB44050724AC40D4
:10058000A043146820610C7804EB44048868A04000
:10059000146824692043146820614868072817D22A
:1005A0001068406B0C79641E04EB84051F24AC407A
:1005B000A04314686063088880B20C79641E04EB61
:1005C0008404A0401468646B20431468606331E0C5
:1005D00048680D2817D21068006B0C79E41F04EBF3
:1005E00084051F24AC40A04314682063088880B2AF
:1005F0000C79E41F04EB8404A0401468246B2043AE
:100600001468206316E01068C06A0C790D3C04EB96
:1006100084051F24AC40A0431468E062088880B2BF
:100620000C790D3C04EB8404A0401468E46A204378
:100630001468E0621E4B1F4C1068A0420AD1086883
:10064000122807D1586820F400005860586840F418
:1006500080005860174C1068A04222D1164C0868E0
:10066000A04202D0086811281BD1586820F48000ED
:100670005860586840F4000058600F4C0868A04269
:100680000FD10E4800680E4CB0FBF4F000EB800078
:100690004000009002E00098401E00900098002862
:1006A000F9D100BF002082F83C0000BF00BF41E745
:1006B000002301400020014012000010280000200B
:1006C00040420F0070B5044600250CB9012070BDF2
:1006D0001549A06A884200D000BF206C30B920467E
:1006E00000F024F80020606484F83C00206C00F0E6
:1006F000100088B9206C20F4885040F0020020647B
:10070000204603F053FB00206064206C20F00200C0
:1007100040F00100206400E0012500BF002084F8C3
:100720003C0000BF2846D2E70100000F10B586B09C
:100730000446142101A8FFF720FE284920688842BA
:100740004AD100BF002000902548006840F4807026
:10075000234908600846006800F48070009000BFDC
:1007600000BF00BF002000901D481438006840F012
:1007700001001B49143908600846006800F00100B8
:10078000009000BF00BF06200190032002900020CF
:10079000039001A9134800F0FBFF134813490860B8
:1007A00000204860002111488160C1604FF48061E1
:1007B000016149004161890081614911C1610021E4
:1007C0000162416200F010FF08B1FFF7A6FE00BF12
:1007D0000648A063846300BF06B010BD002001403E
:1007E000443802400000024010640240200500200E
:1007F00010B5024692F82030012B01D0022B06D111
:1008000010684069084314686061002010BD506A98
:1008100040F4802050620120F8E70000F0B5044663
:100820000A46216894F82050012D01D0022D7ED176
:10083000424901F50071086840F00100086008684D
:1008400020F47C5008600868566A40EA0620086078
:10085000107D00F01F06012000FA06F3C8699843D6
:10086000C861A1F50071D069C8B9D1F80C029843EC
:10087000C1F80C02908880B2968940EA064601F5DC
:100880001070576940F83760108880B2168940EAC6
:10089000064601F51070576900EBC7004660D06945
:1008A000012819D1D1F80C021843C1F80C02908824
:1008B00080B2168840EA064601F51070576940F884
:1008C0003760908980B2168940EA064601F51070BB
:1008D000576900EBC7004660906928B9D1F8040257
:1008E0009843C1F8040204E0D1F804021843C1F8A7
:1008F0000402106928B9D1F814029843C1F814020F
:1009000004E0D1F814021843C1F81402106A012857
:1009100004D1D1F81C021843C1F81C02D1F800021E
:1009200020F00100C1F800020020F0BDFFE7606A7E
:1009300040F4802060620120F7E70000006400407E
:10094000704770B5044694F82050012D01D0022D57
:100950007DD151B92068C06800F0030080B9606A99
:1009600040F400106062012070BD2068006900F052
:10097000030028B9606A40F4001060620120F3E7C8
:10098000206800F5D87000EB0110006800F004004A
:100990009060906840B9206800F5D87000EB0110B5
:1009A0000068400D106007E0206800F5D87000EB8B
:1009B00001100068C0085060206800F5D87000EB96
:1009C0000110006800F00200D060206800F5D870C7
:1009D00000EB0110406800F00F00082802D3082047
:1009E000106108E0206800F5D87000EB0110406845
:1009F00000F00F001061206800F5D87000EB0110C6
:100A0000406800F47F40000A9061206800F5D870CB
:100A100000EB01104068000C5061206800F5D870B0
:100A200000EB011080681870206800F5D87000EBAA
:100A30000110806800F47F40000A5870206800F5BB
:100A4000D87000EB0110806800F47F0000E03CE00B
:100A5000000C9870206800F5D87000EB01108068D9
:100A6000000ED870206800F5D87000EB0110C06847
:100A70001871206800F5D87000EB0110C06800F410
:100A80007F40000A5871206800F5D87000EB011013
:100A9000C06800F47F00000C9871206800F5D870E1
:100AA00000EB0110C068000ED87131B92068C06831
:100AB00040F020002668F06005E02068006940F002
:100AC00020002668306100204EE7606A40F48020F4
:100AD0006062012048E72DE9F05F044600252068A8
:100AE00046692068D0F80490206887682068D0F8AC
:100AF0000CA02068D0F810B02068D0F8188006F05C
:100B00000100002855D007F00100C0B10120216884
:100B1000886007F0020018B1204600F0D4FB0EE018
:100B200007F0040010B145F4006508E007F0080084
:100B300010B145F4805502E0204600F0C3FB07F4F5
:100B40008070C8B14FF480702168886007F400702D
:100B500018B1204600F0B9FB0EE007F4806010B138
:100B600045F4005508E007F4006010B145F48045F5
:100B700002E0204600F0A8FB07F48030C8B14FF433
:100B800080302168886007F4003018B1204600F0FA
:100B90009EFB0EE007F4802010B145F4004508E00C
:100BA00007F4002010B145F4803502E0204600F043
:100BB0008DFB06F0080038B10AF0100020B145F4B2
:100BC000007510202168C86006F0040040B10AF0EA
:100BD000080028B108202168C860204600F03EFACD
:100BE00006F0020038B12068C06800F0030010B1C0
:100BF000204600F035FA06F0400038B10BF0100046
:100C000020B145F4806510202168086106F02000BD
:100C100040B10BF0080028B1082021680861204687
:100C200000F01EFB06F0100038B12068006900F0EB
:100C3000030010B1204600F014FB06F4003040B170
:100C400009F0100028B1102021684860204600F00B
:100C500009FB06F4803040B109F0080028B10820F3
:100C600021684860204600F033FB06F4004088B35A
:100C700009F0040078B306F4807020B108F0010098
:100C800008B145F0010506F4007020B108F002003B
:100C900008B145F0020506F4806020B108F00400B8
:100CA00008B145F0040506F40060A0B108F070003A
:100CB00088B108F07000402817D006DC10280BD04F
:100CC00020280CD0302819D10CE0502810D06028F2
:100CD00014D110E01DE019E045F008050FE045F0E3
:100CE00010050CE045F0200509E045F0400506E060
:100CF00045F0800503E045F4807500E000BF00BFCB
:100D00002068806920F070002168886104202168D3
:100D100048602DB1606A284360622046FFF710FEEC
:100D2000BDE8F09F70B504460CB9012070BD94F881
:100D3000200010B9204600F0AFF82068006840F0AD
:100D400001002168086000F03BFE05460DE000F060
:100D500037FE401B0A2808D9606A40F40030606200
:100D6000052084F820000120E0E72068406800F0BA
:100D700001000028EBD02068006820F00200216804
:100D8000086000F01DFE05460DE000F019FE401B56
:100D90000A2808D9606A40F400306062052084F8AF
:100DA00020000120C2E72068406800F0020000280F
:100DB000EBD1207E012806D12068006840F0800039
:100DC0002168086005E02068006820F08000216844
:100DD0000860607E012806D12068006840F040006D
:100DE0002168086005E02068006820F04000216864
:100DF0000860A07E012806D12068006840F020002D
:100E00002168086005E02068006820F02000216863
:100E10000860E07E012806D12068006820F01000FC
:100E20002168086005E02068006840F01000216833
:100E30000860207F012806D12068006840F0080083
:100E40002168086005E02068006820F0080021683B
:100E50000860607F012806D12068006840F0040027
:100E60002168086005E02068006820F0040021681F
:100E70000860D4E902010843216908436169084315
:100E80006168491E08432168C86100206062012032
:100E900084F82000002049E710B586B004461421EC
:100EA00001A8FFF76AFA67492068884259D1664865
:100EB0000068401C644908600846006801280FD19A
:100EC00000BF002000906148006840F000705F495A
:100ED00008600846006800F00070009000BF00BF86
:100EE00000BF0020009059481038006840F008000A
:100EF0005649103908600846006800F00800009064
:100F000000BF00BF03200190022002900020039048
:100F1000032004900920059001A94D4800F038FCF9
:100F200000221146132000F0D9FD132000F0C2FD6D
:100F300000221146142000F0D1FD142000F0BAFD6B
:100F400000221146152000F0C9FD152000F0B2FD69
:100F500000221146162000F0C1FD162000F0AAFD67
:100F60006DE03C492068884269D100BF00200090B4
:100F70003648006840F080603449086008460068E0
:100F800000F08060009000BF00BF2F480068401C48
:100F90002D4908600846006801280FD100BF0020D5
:100FA00000902A48006840F0007028490860084610
:100FB000006800F00070009000BF00BF00BF00207C
:100FC000009022481038006840F002001F49103994
:100FD00008600846006800F00200009000BF00BFF3
:100FE0004FF4405001900220029000200390032013
:100FF00004900920059001A9174800F0C9FB0022C0
:1010000011463F2000F06AFD3F2000F053FD002212
:101010001146402000F062FD402000F04BFD002210
:101020001146412000F05AFD412000F043FD00220E
:101030001146422000F052FD422000F03BFD06B078
:1010400010BD00000064004018000020403802403D
:10105000000C02400068004000040240704700009D
:1010600010B58AB004467649206888427ED101AB2B
:1010700003AA00217348FFF764FC40F2032203989F
:10108000811A90420DD005DCA0F2012038B1012870
:101090004ED105E0012905D0072949D149E000BF1B
:1010A00000BF00BF0398401E6749087008460078DB
:1010B00000EB8000654931F8100000B26249097800
:1010C00001EB8101614A02EB410108819DF80500B5
:1010D0009DF8041040EA01205B49097801EB810189
:1010E00022F811009DF807009DF8061040EA012043
:1010F00000B25549097801EB810102EB41014880BA
:101100009DF809009DF8081040EA012000B24E4900
:10111000097801EB810102EB410188809DF80A000A
:101120004949097801EB810102EB4101887125E011
:1011300024E04748008800B2454908819DF8050031
:101140009DF8041040EA0120414908809DF80700FD
:101150009DF8061040EA012000B23D4948809DF804
:1011600009009DF8081040EA012000E008E000B204
:10117000374988809DF80A00887100BF00BF00BF12
:1011800034492068884259D101AB03AA0021324872
:10119000FFF7D7FB0398A0F2062020B1012803D067
:1011A000022848D101E000BF00BF0398401E2B4930
:1011B00008700846007800EB8000244931F81000E0
:1011C00000B22649097801EB8101204A02EB410176
:1011D00008819DF805009DF8041040EA01201F4990
:1011E000097801EB810122F811009DF807009DF8B4
:1011F000061040EA012000B21849097801EB81018C
:1012000002EB410148809DF809009DF8081040EA72
:10121000012000B21149097801EB810102EB410183
:1012200088809DF80A000D49097801EB810102EBE5
:101230004101887100E000BF00BF00BF0AB010BDCF
:1012400000640040800500203C0000203808002099
:101250008808002000680040A80500203D0000200C
:1012600070477047704770B5044694F82000012815
:1012700022D1022084F820002068006820F00100BC
:101280002168086000F09CFB05460DE000F098FB2B
:10129000401B0A2808D9606A40F4003060620520CB
:1012A00084F82000012070BD2068406800F0010033
:1012B0000028EBD16062F6E7606A40F400206062CB
:1012C0000120F0E7704770477047704770477047DC
:1012D000704770B50446A56D00F072FB064694F8A1
:1012E0003500022808D08020606500BF002084F807
:1012F000340000BF012070BD2068006820F0160097
:10130000216808602068406920F0800021684861F9
:10131000206C08B9A06C28B12068006820F0080093
:10132000216808602068006820F0010021680860DA
:1013300010E000F045FB801B05280BD920206065DC
:10134000032084F8350000BF002084F8340000BF7B
:101350000320D0E72068006800F001000028E8D1F1
:1013600094F85C103F208840A860012084F8350084
:1013700000BF002084F8340000BF00BFBBE7014677
:1013800091F83500022803D080204865012070477D
:10139000052081F835000868006820F001000A681F
:1013A00010600020F3E70000F8B50446002000902C
:1013B0008C4800684FF41651B0FBF1F7A56D2E680C
:1013C00094F85C1008208840304098B1206800688C
:1013D00000F0040070B12068006820F0040021686B
:1013E000086094F85C1008208840A860606D40F0A8
:1013F0000100606594F85C1001208840304068B1BD
:101400002068406900F0800040B194F85C10012031
:101410008840A860606D40F00200606594F85C1040
:1014200004208840304068B12068006800F0020065
:1014300040B194F85C1004208840A860606D40F0D2
:101440000400606594F85C1010208840304078B348
:101450002068006800F0080050B394F85C10102079
:101460008840A8602068006800F4802080B120686F
:10147000006800F4002028B9206CC8B12046216C17
:10148000884715E0A06C98B12046A16C88470FE012
:101490002068006800F4807028B92068006820F097
:1014A000080021680860206C10B12046216C884734
:1014B00094F85C10202088403040002865D02068D7
:1014C000006800F0100000285FD094F85C10202025
:1014D0008840A86094F83500052828D12068006865
:1014E00020F01600216808602068406920F0800024
:1014F00021684861206C08B9A06C28B12068006898
:1015000020F008002168086094F85C103F208840B3
:10151000A860012084F8350000BF002084F8340062
:1015200000BF206D10B12046216D8847F8BD2068AE
:10153000006800F4802080B12068006800F400207A
:1015400028B9606C10B12046616C88471DE0E06BE3
:10155000D8B12046E16B884717E02068006800F4A6
:10156000807068B92068006820F010002168086069
:10157000012084F8350000BF002084F8340000BF4B
:10158000E06B10B12046E16B8847606D38B3606D49
:1015900000F00100F0B1052084F8350020680068F3
:1015A00020F001002168086000BF0098401C0090F6
:1015B000B84200D905E02068006800F0010000286A
:1015C000F3D100BF012084F8350000BF002084F86B
:1015D000340000BFE06C10B12046E16C884700BFCA
:1015E000A4E70000280000202DE9F0410446002572
:1015F00000F0E6F9074614B90120BDE8F081606A01
:1016000000B100BF022084F8350000BF002084F83C
:10161000340000BF2068006820F0010021680860E5
:101620000AE000F0CDF9C01B052805D9202060652F
:10163000032084F83500E0E72068006800F001002E
:101640000028EED12068056821480540D4E9010151
:101650000843E16808432169084361690843A169B7
:101660000843E1690843216A08430543606A042886
:1016700003D1D4E90B0108430543206805602068C5
:10168000456925F00705606A0543606A04280DD1A5
:10169000A06A0543E06A48B1204602F04DFC28B13B
:1016A00040206065012084F83500A6E72068456188
:1016B000204602F097FC064694F85C103F208840D4
:1016C000B06000206065012084F83500002094E7B8
:1016D0003F8010F02DE9F04704460D4616461F46A0
:1016E0004FF00008D4F8589000BF94F83400012857
:1016F00002D10220BDE8F087012084F8340000BF49
:1017000094F83500012825D1022084F83500002006
:1017100060653B4632462946204602F0F7FB94F8C6
:101720005C103F208840C9F808002068006840F03D
:10173000160021680860206C28B12068006840F01D
:101740000800216808602068006840F001002168F6
:10175000086006E000BF002084F8340000BF4FF0AE
:1017600002084046C6E7000070B5044600F028F9BC
:1017700006462546681C10B104480078054400BFA1
:1017800000F01EF9801BA842FAD370BD240000208F
:10179000F8B502460B460025002400200021E0E0B9
:1017A000012606FA01F51E6806EA0504AC4274D16A
:1017B0001E7906F00306012E04D01E7906F00306FA
:1017C000022E13D190684F000326BE40B0434F0055
:1017D000DE68BE4030439060506801268E40B043C2
:1017E0001E79C6F300168E40304350601E7906F015
:1017F0000306032E09D0D0684F000326BE40B04335
:101800004F009E68BE403043D0601E7906F003064C
:10181000022E13D1CF0802F1200656F827004E07FA
:10182000F70E0F26BE40B0434F07FF0E1E69BE40A5
:101830003043CF0802F1200646F8270010684F0019
:101840000326BE40B0431E7906F003064F00BE409B
:10185000304310605E6806F44036002E1DD000BF95
:1018600000260096414E366846F480463F4F3E6063
:101870003E46366806F48046009600BF00BF3C4EE8
:101880008F0856F827008E07370F0F26BE40B0434B
:10189000384EB24202D100262EE061E0364EB2420E
:1018A00001D1012628E0354EB24201D1022623E0C3
:1018B000334EB24201D103261EE0324EB24201D174
:1018C000042619E0304EB24201D1052614E02F4E15
:1018D000B24201D106260FE02D4EB24201D10726B9
:1018E0000AE02C4EB24201D1082605E02A4EB2424F
:1018F00001D1092600E00A268F073F0FBE40304382
:101900001B4E8F0846F82700244E3068A0435E68BF
:1019100006F4801606B12043204E3060361D306834
:10192000A0435E6806F4001606B120431B4E361D28
:1019300030601A4E361F3068A0435E6806F40036E9
:1019400006B12043154E361F3060361F3068A04365
:101950005E6806F4803606B12043104E083E3060C3
:10196000491C1029FFF41CAFF8BD000044380240A8
:101970000838014000000240000402400008024014
:10198000000C024000100240001402400018024007
:10199000001C02400020024000240240083C01409C
:1019A00010B5426921EA020302EA010443EA044352
:1019B000836110BD0AB1816101E00B04836170474E
:1019C00001480068704700001C00002003480068C0
:1019D0000349097808440149086070471C00002049
:1019E0002400002010B50D48006840F400700B4939
:1019F00008600846006840F4806008600846006897
:101A000040F480700860032000F0A6F80F2000F07A
:101A100007F800F02BF8002010BD0000003C024049
:101A200070B504460E4800784FF47A71B1FBF0F0BF
:101A30000C490968B1FBF0F5284600F021FF08B118
:101A4000012070BD102C07D200222146501E00F04C
:101A500045F80548046001E00120F2E70020F0E7C6
:101A600024000020280000202000002008B500BF2E
:101A7000002000900E48006840F480400C49086047
:101A80000846006800F48040009000BF00BF00BF1F
:101A900000200090081F006840F08050091F086077
:101AA0000846006800F08050009000BF00BF08BDED
:101AB000443802400146084600280DDB00BF00BF45
:101AC00000F01F0301229A4043099B0003F1E02329
:101AD000C3F8002100BF00BF00BF70472DE9F05FD1
:101AE00080460D461646002703F00CF80746394697
:101AF0002A46334601F00700C0F1070ABAF1040F85
:101B000002D94FF0040A01E0C0F1070AD14600F102
:101B1000040ABAF1070F02D24FF0000A01E0A0F167
:101B2000030AD4464FF0010A0AFA09FAAAF1010A97
:101B30000AEA020A0AFA0CFA4FF0010B0BFA0CFB44
:101B4000ABF1010B0BEA030B4AEA0B0421464046BA
:101B500002F0C4FFBDE8F09F00BF00F00702064B93
:101B600019684FF6FF031940044B0B4343EA022167
:101B7000014B196000BF70470CED00E00000FA0552
:101B800038B5002400BF002000901D48006840F0D8
:101B900080501B4908600846006800F080500090A3
:101BA00000BF00BF012017490864FFF709FF044682
:101BB00007E0FFF705FF001BB0F57A7F01D903208E
:101BC00038BD1148406800F48030B0F5803FF0D156
:101BD00001200C494864FFF7F3FE044607E0FFF7D5
:101BE000EFFE001BB0F57A7F01D90320E8E7064835
:101BF000406800F40030B0F5003FF0D10020DFE78E
:101C00004038024000000E420070004070B50446AB
:101C10000D460CB9012070BD5848006800F00F0057
:101C2000A84209D255490D700846006800F00F001F
:101C3000A84201D00120EEE7207800F0020002283F
:101C40001DD1207800F00400042805D14C4800681C
:101C500040F4E0504A490860207800F00800082865
:101C600005D14748006840F4604045490860444851
:101C7000006820F0F000A16808434149086020781E
:101C800000F00100A8B36068012807D13C4808387B
:101C90000068C0F34040B8B90120BCE76068022882
:101CA00002D06068032807D1354808380068C0F3BF
:101CB000406048B90120AEE7314808380068C0F3F9
:101CC000400008B90120A6E72D48006820F0030075
:101CD000616808432A490860FFF772FE064609E07A
:101CE000FFF76EFE801B41F28831884202D9032043
:101CF00091E707E02248006800F00C006168B0EB53
:101D0000810FEDD11D48006800F00F00A84209D9ED
:101D10001A490D700846006800F00F00A84201D073
:101D2000012078E7207800F00400042807D1144847
:101D3000006820F4E050E168084311490860207809
:101D400000F00800082808D10D48006820F4604021
:101D5000216940EAC1000A49086000F03FF80849DB
:101D60000968C1F30311074A515CC840064908607D
:101D700006480068FFF754FE00204CE7003C024094
:101D8000083802408E4F0008280000202000002064
:101D900001480068704700002800002000B5FFF7E8
:101DA000F7FF04490968C1F38221034A515CC84026
:101DB00000BD0000083802409E4F000800B5FFF744
:101DC000E7FF04490968C1F34231034A515CC84046
:101DD00000BD0000083802409E4F00082DE9F04782
:101DE000002400250026A1462548006800F00C00CC
:101DF00020B1042805D008283AD105E0DFF8849006
:101E000039E0DFF8849036E01D48001F006800F0DC
:101E10003F041B48001F006800F4800078B11A4896
:101E20001749091F0968C1F38811A0FB0170014619
:101E3000224600233846FEF729FA05460EE01148EF
:101E40000F49091F0968C1F38811A0FB0170014601
:101E5000224600233846FEF719FA05460848001FB7
:101E60000068C0F30140401C4600B5FBF6F902E0F3
:101E7000DFF8109000BF00BF4846BDE8F0870000C3
:101E8000083802400024F400001BB700F8B50446EF
:101E90000CB90120F8BD207800F00100002874D0B2
:101EA000F948006800F00C0004280DD0F6480068DE
:101EB00000F00C00082813D1F348001F006800F45C
:101EC0008000B0F5800F0BD1EF4808380068C0F3F0
:101ED0004040002859D06068002856D10120D9E739
:101EE00000BF6068B0F5803F08D1E7480838006857
:101EF00040F48030E449083908601EE06068B0F5BD
:101F0000A02F0DD1E0480838006840F48020DE4959
:101F1000083908600846006840F4803008600CE02A
:101F2000D9480838006820F48030D749083908605B
:101F30000846006820F48020086000BF606890B107
:101F4000FFF73EFD054606E0FFF73AFD401B64281B
:101F500001D903209EE7CC4808380068C0F3404010
:101F60000028F1D011E0FFF72BFD054606E0FFF752
:101F700027FD401B642801D903208BE7C24808389D
:101F80000068C0F340400028F1D1207800F0020042
:101F900002285FD1BC48006800F00C0058B1BA4874
:101FA000006800F00C0008281CD1B748001F00682A
:101FB00000F48000B0B9B44808380068C0F34000AD
:101FC00020B1E068012801D0012063E7AE4808385D
:101FD000006820F0F800216940EAC100AA490839E8
:101FE000086037E0E06800B30120A8490860FFF707
:101FF000E7FC054606E0FFF7E3FC401B022801D999
:10200000032047E7A04808380068C0F340000028D4
:10201000F1D09D480838006820F0F800216940EAB6
:10202000C10099490839086014E000209749086008
:10203000FFF7C6FC054606E0FFF7C2FC401B02287E
:1020400001D9032026E7904808380068C0F3400013
:102050000028F1D1207800F0080008282CD1606910
:10206000A8B101208A490860FFF7AAFC054606E0EE
:10207000FFF7A6FC401B022801D903200AE782488B
:102080006C300068C0F340000028F1D014E000205C
:102090007F490860FFF794FC054606E0FFF790FCD7
:1020A000401B022801D90320F4E677486C30006811
:1020B000C0F340000028F1D1207800F0040004288B
:1020C00070D1002770483830006800F0805090B917
:1020D00000BF002000906C483830006840F080500D
:1020E0006949383108600846006800F08050009067
:1020F00000BF00BF01276748006800F48070B0B9D6
:102100006448006840F4807062490860FFF758FC3A
:10211000054606E0FFF754FC401B022801D90320C6
:10212000B8E65C48006800F480700028F2D000BF78
:10213000A068012808D154486830006840F00100C8
:102140005149683108601DE0A06805280DD14E484E
:102150006830006840F004004B4968310860084668
:10216000006840F0010008600CE0474868300068F3
:1021700020F001004449683108600846006820F0FA
:102180000400086000BFA068A8B1FFF719FC05466D
:1021900009E0FFF715FC401B41F28831884202D963
:1021A000032077E626E0384868300068C0F3400036
:1021B0000028EED013E0FFF703FC054608E0FFF728
:1021C000FFFB401B41F28831884201D9032061E6C0
:1021D0002D4868300068C0F340000028EFD1012F7F
:1021E00007D129483830006820F08050264938311E
:1021F000086000BFA069002845D02348006800F0AF
:102200000C0008285DD0A069022845D100201F4994
:102210000866FFF7D5FB054606E0FFF7D1FB401B3C
:10222000022801D9032035E6174808380068C0F3B2
:1022300040600028F1D1D4E907010843616A40EA0F
:1022400081110122A06AC2EB500041EA00412C201A
:10225000005D41EA00600C49091F086001200B493C
:102260000866FFF7ADFB054606E0FFF7A9FB401B3C
:10227000022801D903200DE6034808380068C0F39E
:1022800040600028F1D049E0083802400000474291
:10229000800E474200700040002021490866FFF789
:1022A0008FFB054606E0FFF78BFB401B022801D998
:1022B0000320EFE51B480068C0F340600028F2D11E
:1022C0002CE0A069012800D1E4E51648001D06684D
:1022D000A069012820D006F48001E06981421BD169
:1022E00006F03F01206A814216D147F6C0703040A7
:1022F000616AB0EB811F0FD106F440310122A06A60
:10230000C2EB5000B1EB004F06D106F070612C20FB
:10231000005DB1EB006F01D00120BBE50020B9E505
:102320000000474200380240704710B504460CB91F
:10233000012010BD606A38B96068B0F5827F00D1B5
:1023400005E00021E16102E00021216161610021DD
:10235000A16294F8510028B9002084F8500020466A
:1023600000F048F8022084F851002068006820F04E
:10237000400021680860A08800F48270218901F47F
:1023800004410843A18901F400610843217C01F064
:1023900002010843217D01F001010843218B01F472
:1023A00000710843217F01F0380108432021095DB5
:1023B00001F080010843218D01F400510843216898
:1023C00008600421A06901EA104094F8241001F08B
:1023D00010010843216848602068C06920F400604B
:1023E0002168C86100206065012084F85100002048
:1023F0009FE7000010B586B00446142101A8FDF740
:10240000BCFF3B492068884270D100BF002000908B
:102410003848006840F400503649086008460068B3
:1024200000F40050009000BF00BF00BF00200090EB
:1024300030481438006840F010002E491439086004
:102440000846006800F01000009000BF00BF4FF485
:1024500082500190022002900020039003200490FB
:102460000520059001A92448FFF792F92348244943
:1024700008604FF020604860002121488160C16001
:102480004FF480610161490041618900816100214F
:10249000C16101624162FFF7A7F808B1FEF73DF89C
:1024A00000BF1748E064846300BF14483038154902
:1024B00008604FF0006048604021124881600021B0
:1024C000C1604FF48061016149004161890081610F
:1024D0000021C16101624162FFF786F808B1FEF791
:1024E0001CF800BF0748A064846300BF06B010BD9D
:1024F0000034014044380240001002405864024059
:1025000028060020880600202DE9F04104460E46EA
:102510001546002794F85100012801D0022770E0E9
:10252000A06870B96068B0F5827F0AD1042084F891
:1025300051002B4632463146204600F071F8BDE886
:10254000F08100BF94F85000012801D10220F6E785
:10255000012084F8500000BF06B10DB9012750E0FA
:10256000042084F8510000206065A663A587E587F4
:1025700020646064A086E086A068B0F5004F0BD1AF
:102580002068006820F0400021680860206800682A
:1025900020F48040216808601D48E16C08641D48F3
:1025A000E16CC8631C48E16CC8640020E16C0865FC
:1025B000E38FD4F800C00CF10C01A26BE06CFFF7C4
:1025C00089F828B1606D40F010006065012718E0BF
:1025D0002068006800F04000402805D020680068AE
:1025E00040F04000216808602068406840F020000A
:1025F000216848602068406840F001002168486018
:1026000000BF00BF002084F8500000BF384696E7A6
:10261000D141000841400008194000087047704748
:102620002DE9F04704460E4617461D464FF0000AB6
:1026300000BF94F85000012802D10220BDE8F087C5
:10264000012084F8500000BF94F85180D4F8049021
:10265000B8F1010F0AD0B9F5827F04D1A06810B992
:10266000B8F1040F02D04FF0020A77E00EB107B1C3
:1026700015B94FF0010A71E094F85100042802D016
:10268000052084F85100002060652663A586E58654
:10269000A763A587E5872064606494F85100042847
:1026A00006D13248E16C08643148E16CC86305E04A
:1026B0003048E16C08643048E16CC8632F48E16C35
:1026C000C8640020E16C0865E38FD4F800C00CF109
:1026D0000C01A26BE06CFEF7FDFF30B1606D40F0C5
:1026E000100060654FF0010A38E02068406840F053
:1026F0000100216848600020A16C0864A16CC863D7
:10270000A16CC864A16C0865E38ED4F800C00CF11C
:102710000C02216BA06CFEF7DDFF30B1606D40F064
:10272000100060654FF0010A18E02068006800F0B2
:102730004000402805D02068006840F04000216833
:1027400008602068406840F02000216848602068E8
:10275000406840F002002168486000BF00BF0020D0
:1027600084F8500000BF504668E70000D1410008DF
:1027700041400008B94300087742000819400008AA
:102780002DE9F04104460E461546002700BF94F897
:102790005000012802D10220BDE8F081012084F818
:1027A000500000BF94F85100012801D0022755E0E5
:1027B00006B10DB9012751E0032084F85100002033
:1027C00060652663A586E586A06360642064A087B3
:1027D000E087A068B0F5004F0BD12068006820F0BA
:1027E0004000216808602068006840F4804021684B
:1027F00008601E48A16C08641D48A16CC8631D4890
:10280000A16CC8640020A16C0865E38ED4F800C0F8
:102810000CF10C02216BA06CFEF75CFF28B1606D1F
:1028200040F010006065012718E02068006800F0A3
:102830004000402805D02068006840F04000216832
:1028400008602068406840F02000216848602068E7
:10285000406840F002002168486000BF00BF0020CF
:1028600084F8500000BF384696E70000694200082F
:10287000BD40000819400008704770477047704716
:1028800070B504462546681EB0F1807F01D3012053
:102890000FE0681E4FF0E02148610F214FF0FF303C
:1028A00002F01CF900204FF0E02188610720086148
:1028B000002070BD30B502460B4600BF92F83C00C8
:1028C000012801D1022030BD012082F83C0000BF68
:1028D000022082F83D00106844681068816824F086
:1028E00070041868044310684460184D1068A842CA
:1028F0001BD01068B0F1804F17D0154D1068A8425A
:1029000013D0144D1068A8420FD0134D1068A84280
:102910000BD0124D1068A84207D0114D1068A84284
:1029200003D0104D1068A84205D121F080015868ED
:10293000014310688160012082F83D0000BF002043
:1029400082F83C0000BF00BFBDE70000000001406E
:102950000004004000080040000C0040000401405A
:10296000004001400018004010B504460CB9012099
:1029700010BD94F83D0028B9002084F83C002046A2
:1029800000F026F8022084F83D00211D206800F0A8
:10299000ADFE012084F8460000BF84F83E0001210E
:1029A0003F200155402001554120015500BF00BF87
:1029B000012084F842004320015544200155452060
:1029C000015500BF012084F83D000020D0E7000041
:1029D00008B50168B1F1804F0FD100BF002100910F
:1029E0000649096841F00101044A1160114609686D
:1029F00001F00101009100BF00BF08BD4038024056
:102A00002DE9F04104460D46002700BF94F83C0034
:102A1000012802D10220BDE8F081012084F83C00A9
:102A200000BF022084F83D002068866826F0770603
:102A300026F47F46206886602868502833D00CDC56
:102A4000202850D004DC00284BD0102851D149E078
:102A5000302849D040284CD139E060282DD070284A
:102A600007D0B0F5805F03D0B0F5005F41D10DE035
:102A700041E0D5E902136A68206800F0ABFE2068E7
:102A8000866846F077062068866034E0D5E9021350
:102A90006A68206800F09EFE2068806840F48040EC
:102AA0002168886027E0EA686968206801F033FDE2
:102AB0005021206801F026FD1DE0EA686968206861
:102AC00001F03CFD6021206801F01CFD13E0EA6884
:102AD0006968206801F01FFD4021206801F012FDA7
:102AE00009E000BF00BF00BF2968206801F00AFDAF
:102AF00001E0012700BF00BF012084F83D0000BFB6
:102B0000002084F83C0000BF384684E710B586B04A
:102B10000446142101A8FDF730FC2068B0F1804F75
:102B20001CD100BF002000900D48006840F001005B
:102B30000B4908600846006800F00100009000BFE3
:102B400000BF012001900220029000200390049019
:102B50000120059001A90348FEF71AFE06B010BD3A
:102B600030380240000002402DE9F04104460D4695
:102B70001646002700BF94F83C00012802D102202D
:102B8000BDE8F081012084F83C0000BF36B1042E7E
:102B90001BD0082E31D00C2E5ED145E0294620688E
:102BA00001F012FC2068806940F00800216888610B
:102BB0002068806920F004002168886120688069AD
:102BC000296908432168886148E02946206800F0A7
:102BD0000DFE2068806940F40060216888612068EB
:102BE000806920F480602168886120688069296993
:102BF00040EA01202168886130E02946206801F020
:102C00001BFC2068C06940F008002168C86120688A
:102C1000C06920F004002168C8612068C069296982
:102C200008432168C86119E02946206801F040FC8A
:102C30002068C06940F400602168C8612068C069EC
:102C400020F480602168C8612068C069296940EA71
:102C500001202168C86101E0012700BF00BF00BF5B
:102C6000002084F83C0000BF384689E710B50446D0
:102C70000CB9012010BD94F83D0028B9002084F85B
:102C80003C00204600F025F8022084F83D00211D7C
:102C9000206800F02BFD012084F8460000BF84F876
:102CA0003E0001213F2001554020015541200155A2
:102CB00000BF00BF012084F842004320015544209A
:102CC00001554520015500BF012084F83D0000203A
:102CD000D0E77047F8B504460E46174694F8420010
:102CE00020282ED106B10FB90120F8BD01202063A4
:102CF000002060633A463146204600F0B5FD0546A7
:102D0000EDB9206B012819D100BF00200090206888
:102D10000068009020684068009000BF00BF00BFBE
:102D200000BF21680C3151E8001F41F010002168FC
:102D30000C3141E80002002AF3D100E001252846C9
:102D4000D3E70220D1E7000070B504460D460948DC
:102D500084420ED105220849FFF7BCFF06480078DF
:102D6000312806D102210548FEF71AFE302002491B
:102D7000087070BD30070020CC040020001802400D
:102D8000704700002DE9F84F044620680568206868
:102D9000C668206847694FF00009CA4605F00F0968
:102DA000B9F1000F0AD105F0200038B106F020007B
:102DB00020B1204601F014FDBDE8F88FB9F1000FF5
:102DC0007CD007F0010018B906F49070002875D087
:102DD00005F0010030B106F4807018B1606C40F06D
:102DE0000100606405F0040030B107F0010018B183
:102DF000606C40F00200606405F0020030B107F042
:102E0000010018B1606C40F00400606405F0080037
:102E100048B106F0200010B907F0010018B1606C4D
:102E200040F008006064606C002846D005F0200087
:102E300028B106F0200010B1204601F0D1FC206836
:102E40004069C0F3801A606C00F0080010B9BAF154
:102E5000000F2DD0204601F083FD2068406900F06E
:102E60004000402820D100BF00BF2168143151E844
:102E7000001F21F040002168143141E80002002ABF
:102E8000F3D100BFE06B50B17748E16B0865E06BB0
:102E9000FEF775FA88B1E06B016D88470DE02046BA
:102EA000FFF76EFF09E009E02046FFF769FF04E045
:102EB0002046FFF765FF002060647DE7206B012856
:102EC00078D105F01000002874D006F0100000281A
:102ED000FAD000BF002000902068006800902068B1
:102EE0004068009000BF00BF2068406900F04000CB
:102EF000402860D1E06B006840681FFA80F8B8F1A4
:102F0000000F56D0A08D404553DDA4F82E80E06B15
:102F1000C069B0F5807F43D000BF00BF21680C318D
:102F200051E8001F21F4807021680C3141E8000253
:102F3000002AF3D100BF00BF00BF2168143151E85F
:102F4000001F21F001002168143141E80002002A2D
:102F5000F3D100BF00BF00BF2168143151E8001F4A
:102F600021F040002168143141E80002002AF3D129
:102F700000BF202084F842000020206300BF00BF73
:102F800021680C3151E8001F21F0100021680C313C
:102F900041E80002002AF3D100BFE06BFEF799F987
:102FA00002206063A08DE28D801A81B22046FFF777
:102FB000CBFE01E742E0A08DE18D401A1FFA80F8B8
:102FC000E08DD0B3B8F1000F37D000BF00BF21684B
:102FD0000C3151E8001F21F4907021680C3141E858
:102FE0000002002AF3D100BF00BF00BF21681431E6
:102FF00051E8001F21F001002168143141E800026E
:10300000002AF3D100BF202084F842000020206372
:1030100000BF00BF21680C3151E8001F21F01000F3
:1030200021680C3141E80002002AF3D100BF0220E0
:10303000606341462046FFF787FEBDE605F080004D
:1030400030B106F0800018B1204601F047FCB3E62D
:1030500005F0400030B106F0400018B1204601F004
:1030600022FDA9E600BFA7E6C74A000810B504463E
:103070000CB9012010BDA06900B100E000BF94F8B8
:10308000410028B9002084F84000204600F02AF8CA
:10309000242084F841002068C06820F40050216892
:1030A000C860204601F086FA2068006920F490404C
:1030B000216808612068406920F02A002168486181
:1030C0002068C06840F400502168C8600020606437
:1030D000202084F8410084F842000020606300BF93
:1030E000C8E7000010B586B00446142101A8FDF71A
:1030F00044F93D492068884273D100BF0020009008
:103100003A48006840F400303849086008460068D2
:1031100000F40030009000BF00BF00BF002000900E
:1031200032481038006840F0080030491039086013
:103130000846006800F00800009000BF00BF602053
:1031400001900220029000200390032004900720A9
:10315000059001A92648FEF71BFB26482649086072
:103160004FF000604860002123488160C1604FF447
:1031700080610161002141618161C161016241623F
:10318000FEF732FA08B1FDF7C8F900BF1A48E0634C
:10319000846300BF17481830184908604FF000607A
:1031A00048604021154881600021C1604FF4806172
:1031B0000161002141618161C16101624162FEF7EB
:1031C00013FA08B1FDF7A9F900BF0C48A0638463A6
:1031D00000BF002211462620FEF780FC2620FEF7C5
:1031E00069FC06B010BD00000044004040380240B9
:1031F000000C02408860024078070020D8070020B9
:1032000070477047704700BFFEE700001FB5002001
:1032100000900190029003901A481B4908604FF4F7
:1032200080304860002118488160012101610176E9
:10323000002180F82010C162144981620021C16020
:103240000221C161002180F8301001214161FDF7A8
:1032500039FA08B1FDF761F90120009001900020D2
:10326000029069460848FDF75BF908B1FDF755F98A
:103270000220019069460448FDF752F908B1FDF7B4
:103280004CF91FBD00200140D80400200100000FB0
:1032900010B50D480D4908600920486000210B4811
:1032A0008160C1604FF480310161090141610021F9
:1032B000017641768176C17601774177FDF732FD5F
:1032C00008B1FDF72AF910BD006400408005002018
:1032D00010B50D480D4908600920486000210B48D1
:1032E0008160C1604FF480310161090141610021B9
:1032F000017641768176C17601774177FDF712FD3F
:1033000008B1FDF70AF910BD00680040A8050020CB
:1033100008B500BF002000902248006840F48000FB
:10332000204908600846006800F48000009000BF53
:1033300000BF00BF002000900846006840F4001065
:1033400008600846006800F40010009000BF00BF4D
:10335000002211461020FEF7C1FB1020FEF7AAFB49
:10336000002211461120FEF7B9FB1120FEF7A2FB47
:10337000002211463820FEF7B1FB3820FEF79AFBF9
:10338000002211463920FEF7A9FB3920FEF792FBF7
:10339000002211463B20FEF7A1FB3B20FEF78AFBF3
:1033A00008BD00003038024000B587B0142102A8E3
:1033B000FCF7E3FF00BF002001907248006840F076
:1033C0000100704908600846006800F001000190A3
:1033D00000BF00BF00BF002001900846006840F019
:1033E000100008600846006800F01000019000BF5F
:1033F00000BF00BF002001900846006840F00800B0
:1034000008600846006800F00800019000BF00BF97
:1034100000BF002001900846006840F0800008606E
:103420000846006800F08000019000BF00BF00BFA8
:10343000002001900846006840F0400008600846FF
:10344000006800F04000019000BF00BF00BF0020F6
:1034500001900846006840F00400086008460068D3
:1034600000F00400019000BF00BF00BF00200190E9
:103470000846006840F0020008600846006800F056
:103480000200019000BF00BF00222C213E48FEF741
:1034900091FA012210213C48FEF78CFA00224FF4E9
:1034A000FF713A48FEF786FA012208213848FEF7F4
:1034B00081FA012203213748FEF77CFA3C20029072
:1034C0000120039004900020059002A92E48FEF7E9
:1034D0005FF94FF4FE7002900120039000200490E9
:1034E000059002A92948FEF753F9042002904FF4F1
:1034F000881003900020049002A92548FEF748F99F
:10350000082002900120039004900220059002A957
:103510001F48FEF73DF9022002900120039004901D
:103520000020059002A91948FEF732F910200290F8
:10353000002003900120049002A91548FEF728F905
:10354000202002904FF4881003900020049002A9DC
:103550001148FEF71DF9022002900120039004900B
:103560000220059002A90B48FEF712F901200290F3
:10357000039000200490059002A90648FEF708F980
:1035800007B000BD30380240001C02400018024065
:1035900000080240000402400000024010B510483C
:1035A000104908604FF4827048604FF400410D48A4
:1035B00081600911C160002101610121416149025D
:1035C00081612021C16100210162416281620A2181
:1035D000C162FEF7AAFE08B1FCF79FFF10BD000014
:1035E00000340140D005002000B58DB000200990C6
:1035F0000A900B900C90079008901C216846FCF7ED
:10360000BCFE4FF0804020490860B3204860002194
:103610001D4881604FF4FA61C16000210161802181
:103620008161FFF7A1F908B1FCF777FF4FF48050F3
:10363000099009A91448FFF7E3F908B1FCF76DFFF9
:103640001148FFF713FB08B1FCF767FF0020079054
:10365000089007A90C48FFF72DF908B1FCF75DFFAA
:1036600060200090002001900290049000226946A2
:103670000548FFF779FA08B1FCF74FFF0248FFF75A
:1036800045FA0DB000BD0000E806002010B50B485B
:103690000B4908604FF4E130486000210848816020
:1036A000C16001610C21416100218161C161FFF7AD
:1036B000DDFC08B1FCF731FF10BD00000044004004
:1036C0003007002000BFFEE700BFFEE770477047ED
:1036D00010B5FEF77BF910BD0348006840F4700098
:1036E000014908607047000088ED00E010B50268ED
:1036F0002D4B98420ED0B0F1804F0BD02B4B9842FF
:1037000008D02B4B984205D02A4B984202D02A4B26
:10371000984203D122F070024B681A43224B984220
:1037200020D0B0F1804F1DD0204B98421AD0204BB2
:10373000984217D01F4B984214D01F4B984211D07B
:103740001E4B98420ED01E4B98420BD01D4B9842F8
:1037500008D01D4B984205D01C4B984202D01C4B00
:10376000984203D122F44072CB681A4322F08003BE
:103770004C6943EA040202608B68C3620B6883628F
:10378000094B984202D00C4B984201D10B6903635C
:1037900001234361036903F001031BB1036923F0B3
:1037A0000103036110BD000000000140000400405F
:1037B00000080040000C00400004014000400140AF
:1037C000004401400048014000180040001C004037
:1037D0000020004030B50C46816821F47F4142EA68
:1037E000032525432943816030BD000030B5026ABE
:1037F000056A25F0100505624368846924F4E044F5
:1038000024F440740D6844EA052422F020028D68F7
:1038100042EA0512124DA84200D103E0114DA84220
:1038200007D100BF22F08002CD6842EA051222F0E3
:1038300040020B4DA84202D00A4DA84209D123F400
:10384000806323F400634D6943EA85038D6943EA8D
:103850008503436084614D688563026230BD00006A
:10386000000001400004014077B581B004461546D0
:103870000298A062A58500206064222084F842009E
:103880002848E16BC8632848E16B08642748E16B6E
:10389000C8640020E16B086502AE32682368191D18
:1038A0002B46E06BFDF716FF00BF0020009020685C
:1038B0000068009020684068009000BF00BF206949
:1038C00070B100BF00BF21680C3151E8001F41F406
:1038D000807021680C3141E80002002AF3D100BF5A
:1038E00000BF00BF2168143151E8001F41F0010002
:1038F0002168143141E80002002AF3D100BF00BF63
:1039000000BF2168143151E8001F41F040002168D8
:10391000143141E80002002AF3D100BF002004B0B6
:1039200070BD0000F34900083D49000865450008E6
:1039300010B50248FFF726FA10BD0000300700203E
:1039400000BFFEE730B599B005460DB919B030BDDE
:103950003849D1E900208968CDE916201891354A07
:103960000C32D2E900109268CDE914021391314A69
:103970001832D2E900109268CDE9110210912D4A57
:103980002432D2E900109268CDE90E020D91294A45
:103990003032D2E900109268CDE90B020A91254A33
:1039A0003C32D2E900109268CDE908020791214A21
:1039B0004832D2E900109268CDE9050204911D4A0F
:1039C0005432D2E900109268CDE90202019100243C
:1039D00029E0204600F054F9C4EBC40101EB0411C6
:1039E00045F83100C4EBC40101EB041105EBC10142
:1039F00001F14C00DFED100A9FED100A10AA002122
:103A000000F0A4F9C4EBC40101EB041105EBC10102
:103A1000081DDFED0B0AB0EE000A0DAA002100F030
:103A200095F9601CC4B2062CD3DB284600F08EF852
:103A300000BF8BE7A84F00080000FA4400401C4676
:103A40000000000010B58AB004460F48844201D13E
:103A50000E2005900D48844201D1002005900020E1
:103A600006900120079000200090019002900390A2
:103A700004900E2009900120089069462046FCF72A
:103A8000CDFE0AB010BD0000A80500208005002072
:103A900000B593B0302107A8FCF76FFC142102A8F1
:103AA000FCF76BFC00BF002001902648006840F046
:103AB0008050244908600846006800F0805001905A
:103AC00000BF00BF00BF002001901F48006840F405
:103AD00040401D4908600846006800F440400190DD
:103AE00000BF00BF012007900004089002200D9045
:103AF00041050E9106210F91B421109102211191DF
:103B00000421129107A8FEF7C1F908B1FCF705FDE1
:103B1000FEF736F808B1FCF700FD0F2002900220F6
:103B20000390002004904FF4A05005904FF4805073
:103B30000690052102A8FEF769F808B1FCF7EDFC34
:103B400013B000BD403802400070004010B503467D
:103B500003B910BD002400BF34E0C4EBC40000EB87
:103B6000041053F83000B0F9020000EE100AB8EE6D
:103B7000C00ADFED160A20EE200AC4EBC40000EBF9
:103B8000041003EBC00080ED250AC4EBC40000EB79
:103B9000041053F83000008800EE100AB8EE400A16
:103BA000C4EBC40000EB041003EBC00080ED270A57
:103BB000C4EBC40101EB041103EBC10000F008F8F1
:103BC000601CC4B2062CC8DB00BFC2E70A01DA39A8
:103BD000016809880268B2F90820891A002906DDFF
:103BE000016809880268B2F90820891A05E00168AD
:103BF000B1F9081002681288891AB1F5805F2EDBCE
:103C0000016809880268B2F90820914213DA016854
:103C1000B1F9081041F6FF72511A02681288114476
:103C200000EE101AB8EEC00AD0ED270A30EE200AD6
:103C300080ED270A23E00168098841F6FF72511AD6
:103C40000268B2F90820114400EE101AB8EEC00A5A
:103C5000D0ED270A30EEC00A80ED270A0FE0016898
:103C600009880268B2F90820891A00EE101AB8EE25
:103C7000C00AD0ED270A30EE200A80ED270A7047EF
:103C8000014601F0030000EB8000024A02EB400015
:103C9000704700003808002000B52DED068B83B07A
:103CA000002208212448FDF785FE48F221000290F9
:103CB000012202A92148FEF763FD012201A91F4844
:103CC000FEF722FCBDF80400C0F30E000190BDF821
:103CD000040001F0E7F89FED1A0B53EC102B00F0F5
:103CE00089FF00F055FF08EE100A01220821124852
:103CF000FDF760FEBDEEC80A10EE100A4FF47A71AF
:103D0000484300EE100AB8EEC00ADFED0F0A18EEC5
:103D1000200ADFED0D0A80EE201AF0EE418A3220F3
:103D2000FDF722FDBDEEC80AB8EEC00A30EE280A43
:103D300003B0BDEC068B00BD00080240D00500209A
:103D4000943EE9933EC1564000007A4400B102B966
:103D50007047017092ED001A80ED011A92ED011A80
:103D600080ED021A92ED021A80ED031A80ED040A2A
:103D7000C0ED050A9FED0C1A80ED0E1A80ED0D1AAC
:103D800080ED0C1A9FED081A80ED081A80ED0B1AD1
:103D900080ED0A1A80ED091A80ED111A80ED101AD3
:103DA00080ED0F1A00BFD3E70000000055494A68B4
:103DB00022F440324A604A6843681A434A60026803
:103DC000526822F4807203685A600268536802697C
:103DD00043EA022203685A600268526822F0407285
:103DE00003685A600268526883681A4303685A601D
:103DF0000268926822F4006203689A60026892681E
:103E0000C3681A4303689A603F4B826A9A4218D08B
:103E10000268926822F0706203689A600268926891
:103E2000836A1A4303689A600268926822F04052DB
:103E300003689A6002689268C36A1A4303689A60CA
:103E40000BE00268926822F0706203689A60026870
:103E5000926822F0405203689A600268926822F0E9
:103E6000020203689A6002689368027E43EA420293
:103E700003689A602022125CA2B10268526842F480
:103E8000006203685A600268526822F46042036864
:103E90005A6002685368426A521E43EA423203681B
:103EA0005A6005E00268526822F4006203685A60B2
:103EB0000268D26A22F470020368DA620268D36A86
:103EC000828B521E43EA02520368DA6202689268E9
:103ED00022F4007203689A600268936890F83020B8
:103EE00043EA422203689A600268926822F4806280
:103EF00003689A6002689368426943EA8222036811
:103F00009A607047002301400100000F30B504683B
:103F1000246824F4802405682C6004686360846845
:103F2000402C04D10468A2600468E16003E00468E6
:103F3000A1600468E26030BD014600208A6A8B6996
:103F4000CBB932B1012A0DD0022A03D0032A10D1F5
:103F50000EE000BFCB6A03F08073B3F1807F00D125
:103F6000012007E0CB6AB3F1C07F00D1012001E05E
:103F700000E000BF34E08B69B3F5005F1AD132B1C5
:103F8000012A07D0022A03D0032A11D10AE000BF78
:103F900001200EE0CB6A03F08073B3F1807F00D183
:103FA000012006E0CB6AB3F1C07F00D1012000E020
:103FB00000BF15E032B1012A05D0022A04D0032A3D
:103FC0000CD103E000BF00BF012008E0CB6A03F082
:103FD0008073B3F1807F00D1012000E000BF00BFFB
:103FE000704700000146087810381823B0FBF3F240
:103FF0000848805CC865032A05D908686FF3090082
:10400000001D886503E008686FF309008865886D06
:1040100070470000864F000870B50546AC6B2068FD
:10402000406820F0030021684860606D40F0100097
:104030006065012084F851002046FEF775F970BDD7
:1040400070B50546AC6BFDF7BBFC064628680068FA
:1040500000F48070B0F5807F2BD02068406820F09D
:10406000200021684860A06850B96068B0F5827F80
:1040700006D12068406820F003002168486005E010
:104080002068406820F001002168486032466421C1
:10409000204600F053F808B1202060650020E0873A
:1040A000012084F85100606D18B12046FEF73CF9FC
:1040B00070BD2046FEF7B2FA00BFF9E7F8B5054635
:1040C000AC6BFDF77DFC06462868006800F4807044
:1040D000B0F5807F2DD02068406820F02000216856
:1040E00048602068406820F002002168486032463D
:1040F0006421204600F074F818B1606D40F0200093
:104100006065A06850B900BF002000902068C068BA
:10411000009020688068009000BF00BF0020E0860B
:10412000012084F85100606D18B12046FEF7FCF8BC
:10413000F8BD2046FEF7A0FB00BFF9E7F8B504463E
:104140000E4615466068B0F5827F0DD1A068B0F5C7
:10415000004F03D0A068B0F5806F05D120680068DB
:1041600020F04000216808606068B0F5827F1FD1B0
:10417000A068B0F5806F0DD0334600228021204624
:10418000009500F0ADF808B3606D40F02000606568
:104190000320F8BD3346002201212046009500F09F
:1041A0009FF898B1606D40F0200060650320F0E753
:1041B0003346002201212046009500F091F828B1F5
:1041C000606D40F0200060650320E2E70020E0E73A
:1041D00070B50446A56B2846FEF721FA70BD0000B5
:1041E0007CB504460E461546334601220221204680
:1041F000009500F075F828B1606D40F02000606512
:1042000003207CBD164800681821B0FBF1F0154969
:10421000B0FBF1F04FF47A71484301906068B0F55B
:10422000827F0DD13346002280212046009500F088
:1042300057F898B1606D40F0200060650320E0E71A
:1042400000BF019800B908E00198401E0190206865
:104250008068C0F3C0100028F3D100BF0020D0E771
:104260002800002040420F0070B50446A56B284688
:10427000FEF703FB70BD70B50546AC6BFDF7A0FB08
:1042800006462868006800F48070B0F5807F21D071
:104290002068406820F02000216848603246642190
:1042A0002046FFF79DFF18B1606D40F0200060656B
:1042B0002068406820F00300216848600020E08604
:1042C000E087012084F85100606D18B12046FEF7A8
:1042D0002BF870BD2046FEF7D1FA00BFF9E70000C9
:1042E0002DE9F84F04460D4690461E46DDF828900D
:1042F000FDF766FBA0EB0900371AFDF761FB82466C
:104300002C480068C0F3CB307843009045E0701C27
:10431000002842D0FDF754FBA0EB0A00B84200D2BF
:10432000A7BB2068406820F0E00021684860606812
:10433000B0F5827F0DD1A068B0F5004F03D0A06822
:10434000B0F5806F05D12068006820F0400021683A
:104350000860A06AB0F5005F0DD100BF206800685A
:1043600020F40050216808602068006840F4005084
:104370002168086000BF012084F8510000BF0020C0
:1043800084F8500000BF0320BDE8F88FFFE70098D5
:1043900000B900270098401E0090206880682840DF
:1043A000A84201D1012000E000204045AFD100200B
:1043B000EAE700002800002070B50446A56B2846F7
:1043C000FEF75DFA70BD000030B5026A056A25F09F
:1043D000010505624368846924F0700424F0030435
:1043E0000D682C4322F002028D682A43104DA8422A
:1043F00000D103E00F4DA84206D100BF22F0080211
:10440000CD682A4322F00402094DA84202D0094D8A
:10441000A84207D123F4807323F400734D692B4322
:104420008D692B43436084614D684563026230BDF2
:10443000000001400004014030B5026A056A25F41D
:10444000807505624368C46924F0700424F0030495
:104450000D682C4322F400728D6842EA0522124D49
:10446000A84200D103E0114DA84207D100BF22F4B9
:104470000062CD6842EA052222F480620A4DA84219
:1044800002D00A4DA84209D123F4805323F40053EB
:104490004D6943EA05138D6943EA05134360C4611E
:1044A0004D68C563026230BD000001400004014058
:1044B00030B5036A056A25F4805505624468C2690F
:1044C00022F4E04222F440720D6842EA052223F40D
:1044D00000538D6843EA0533084DA84202D0084DC9
:1044E000A84204D124F480444D6944EA8514446010
:1044F000C2614D680564036230BD000000000140E8
:10450000000401400A46816821F0700142F007036F
:1045100019438160704730B50B461446026A056A3C
:1045200025F001050562816921F0F00141EA0411DD
:1045300022F00A021A438161026230BD30B50B4697
:104540001446026A056A25F010050562816921F4A6
:10455000704141EA043122F0A00242EA0312816173
:10456000026230BD70B506460025B46B2068406914
:10457000C0F3C01594F84100212805D125B10020D1
:10458000E084204600F022FA20684069C0F38015DC
:1045900094F84200222805D125B10020E08520466C
:1045A00000F0DEF9606C40F0100060642046FEF719
:1045B000E7FB70BD2DE9F84F04462068006920F440
:1045C0004050E1680843216808612169A0680843F8
:1045D00061690843E169084300902068C06849F2B6
:1045E0000C618843009908432168C86020684069CD
:1045F00020F44070A1690843216848617649206829
:10460000884203D075492068884203D1FDF7D6FB64
:10461000814602E0FDF7C2FB8146E069B0F5004F3C
:104620006CD102206168A0FB015003461920A9FB50
:10463000007001462A463846FBF728FE6421B0FB8D
:10464000F1F04FEA001A02206168A0FB01510B460D
:104650001920A9FB00712A463846FBF717FE83464E
:1046600002206168A0FB015003461920A9FB0071DC
:104670002A463846FBF70AFE6421B0FBF1F000EB56
:10468000C00101EB0010ABEB8000322101EBC00058
:104690006421B0FBF1F000F0F8000AEB400A0220C0
:1046A0006168A0FB015003461920A9FB0070014678
:1046B0002A463846FBF7EAFD834602206168A0FBE4
:1046C000015003461920A9FB00712A463846FBF722
:1046D000DDFD6421B0FBF1F000EBC00101EB001047
:1046E000ABEB8000322101EBC0006421B0FBF1F0A4
:1046F00000F007005044216888606AE00420616887
:10470000A0FB015003461920A9FB007001462A4670
:104710003846FBF7BBFD824604206168A0FB0150D0
:1047200003461920A9FB007001462A463846FBF7CC
:10473000ADFD6421B0FBF1F000EBC00101EB001016
:10474000AAEB8000322101EB00106421B0FBF1F0F4
:1047500000F0F00A04206168A0FB017003461920F4
:10476000A9FB00513A462846FBF790FD6421B0FBB7
:10477000F1F00AEB001A04206168A0FB01510B461E
:104780001920A9FB00712A463846FBF77FFD8346B6
:1047900004206168A0FB015003461920A9FB0070AA
:1047A00001462A463846FBF771FD6421B0FBF1F063
:1047B00000EBC00101EB0010ABEB8000322101EBFC
:1047C00000106421B0FBF1F000F00F0050442168AC
:1047D0008860BDE8F88F000000100140001401401F
:1047E000F8B5044694F84200222875D1A068B0F5C7
:1047F000805F0CD1206950B90025A66A2068406806
:10480000C0F308003080A06A801CA06215E0A56A91
:104810000026A068B0F5805F03D0A06828B92069A1
:1048200018B920684068287004E02068406800F0EB
:104830007F002870A06A401CA062E08D401E80B2FC
:10484000E085002846D12068C06820F0200021685B
:10485000C8602068C06820F480702168C860206843
:10486000406920F0010021684861202084F842005E
:1048700000206063206B012826D10020206300BF48
:1048800000BF21680C3151E8001F21F010002168A1
:104890000C3141E80002002AF3D100BF2068006813
:1048A00000F0100010280AD100BF002000902068FE
:1048B0000068009020684068009000BF00BFA18D94
:1048C0002046FEF741FA02E02046FEF799FC002060
:1048D000F8BD01E00020FBE70220F9E7014691F86E
:1048E0004100212828D18868B0F5805F0BD1086984
:1048F00048B90A6A1088C0F308000B685860086A53
:10490000801C086205E00B6A581C086218780B6866
:104910005860C88C401E80B2C88458B90868C06806
:1049200020F080000B68D8600868C06840F0400044
:104930000B68D860002070470220FCE770B5054680
:10494000AC6B01206063206B012805D1A08D41086C
:104950002046FEF7F9F902E02046FEF752FC70BD52
:1049600000BF00BF02680C3252E8002F22F49071A1
:1049700002680C3242E80013002BF3D100BF00BFE5
:1049800000BF0268143252E8002F22F001010268D1
:10499000143242E80013002BF3D100BF016B012950
:1049A0000ED100BF00BF02680C3252E8002F22F087
:1049B000100102680C3242E80013002BF3D100BF53
:1049C000202180F8421000210163704700BF00BF22
:1049D00002680C3252E8002F22F0C00102680C324B
:1049E00042E80013002BF3D100BF202180F84110D2
:1049F000704770B50546AC6B2868006800F480709D
:104A0000002842D1E08500BF00BF21680C3151E889
:104A1000001F21F4807021680C3141E80002002A57
:104A2000F3D100BF00BF00BF2168143151E8001F5F
:104A300021F001002168143141E80002002AF3D17D
:104A400000BF00BF00BF2168143151E8001F21F0F2
:104A500040002168143141E80002002AF3D100BF70
:104A6000202084F84200206B01280ED100BF00BF37
:104A700021680C3151E8001F21F0100021680C3131
:104A800041E80002002AF3D100BF00206063206BE0
:104A9000012804D1A18D2046FEF756F902E02046F8
:104AA000FEF7AEFB70BD10B504462068C06820F06C
:104AB00040002168C860202084F841002046FEF7AD
:104AC000A1FB002010BD70B50546AC6B0020E08551
:104AD000E0842046FEF754F970BD000010B50028B0
:104AE00004DB0A07130E054A135406E00A07140EE6
:104AF000034A00F00F031B1FD45410BD00E400E074
:104B000018ED00E002480068C0F302207047000082
:104B10000CED00E0FCF766FFFEF7BAFFFEF744FC81
:104B2000FEF7F6FBFEF7B4FBFEF75EFDFEF736FD83
:104B3000FEF76CFBFEF7AAFDFEF7CAFB1048FEF776
:104B400081FF1048FEF77EFF0D48FCF78CFB0D48F7
:104B5000FCF789FB02210A48FBF74AFE02210948BB
:104B6000FBF746FE0848FEF7EDFE07E0FFF794F876
:104B7000064880ED000A0520FCF7F6FDF6E7000088
:104B800080050020A805002040000020140000201F
:104B900021F00042A2F16052B2F5801F01F0004303
:104BA00028BFD2F17F6C0BD95FEA001C43EAC20236
:104BB00042EB507018BF704728BF20F001007047CB
:104BC000B2F5801FBCBF184670474FEA410C1CF578
:104BD000001F02D2084600F0D1B970B500F075F997
:104BE00000000089FFF7F6BF4FF00040A0F58000FD
:104BF000704700002DE9C04130B4DFF8A0C23CEAA4
:104C0000111418BF3CEA131400F0EC8081EA03058C
:104C10001CEA111444EAD57418BF1CEA131500F0FD
:104C2000C780A4EB05044FF0004545EAC12145EAE1
:104C3000C32341EA505143EA525304F17F7499422D
:104C400004F500344FEAC0204FEAC22208BF904268
:104C500000F09C804FEA13650FF24016765D4FEA34
:104C6000134506FB05F7C7F1807706FB07F74FEA08
:104C7000D737A7FB03687642C8F58038A7FB06CE76
:104C800038BFA8F1010807FB08E64FF0000EA6FBAD
:104C9000028CE6FB03CEDCF1000CCEF1004E38BFF7
:104CA000AEF1010EA6FB0C584FF000074FF00005C7
:104CB000E6FB0E87A1FB08C6A0FB07CE16EB0E068F
:104CC00045F10005E1FB076515F1E04E7EBFA4F557
:104CD00080345FEA46066D4116F1800745F1000514
:104CE0004FEA17274FEA066647EA0567A6F1DE4650
:104CF000B6F1805F4FEA15251FD9384624F0010C24
:104D000005EBC471BCF1FE6F01EB0C1102D8F0BCD5
:104D1000BDE8008124425CBF01F5801E9EEAC47F8D
:104D200002D4F0BCBDE80081244238D4F0BCA1F12B
:104D3000C041BDE8004100F016B94FEAD22242EA74
:104D400043524FEAD323A7FB02864FEAD02040EA22
:104D5000415007FB03661EEA0E0F4FEAD12105FB07
:104D6000026658BFA6EB0056B6EB00564FEA520E4D
:104D70004EEAC37E18EB0E0E56EB530EBDD518EB64
:104D800002085E417F1C55F10005B6E74FF480151F
:104D90004FF000074FF000064FF00008ADE7F0BC01
:104DA0004FF0000001F1C04101F00041BDE8008179
:104DB00011EA0C1F0CEA131500D00CE013EA0C1FCB
:104DC00000F025804FF00000F0BC81EA030101F003
:104DD0000041BDE80081F0BCBDE8004181EA03016B
:104DE00000F0C1B8F0BCBDE8004170B500F06DF84E
:104DF000097EFC3E00F007B881EA03014FF0000095
:104E000001F00041704781EA030100F0ACB8F0BC4A
:104E1000BDE800414FF0000021497047FFFDFBF95C
:104E2000F7F5F4F2F0EEEDEBE9E8E6E4E3E1E0DEDD
:104E3000DDDBDAD8D7D5D4D3D1D0CFCDCCCBCAC84F
:104E4000C7C6C5C4C2C1C0BFBEBDBCBBBAB9B8B776
:104E5000B6B5B4B3B2B1B0AFAEADACABAAA9A8A869
:104E6000A7A6A5A4A3A3A2A1A09F9F9E9D9C9C9B37
:104E70009A999998979796959594939392919190E2
:104E80008F8F8E8E8D8C8C8B8B8A89898888878773
:104E90008685858484838382828181800000FF07E8
:104EA0000000F87FB0FA80F310FA03F10AD0C3F1E2
:104EB0001D0303F580634FEA41504FEA035202EBB2
:104EC000D12170474FF0000070470EF1020E2EF016
:104ED000030E5EF8046B364205D4012A43EB03054A
:104EE00015F5001F12D8012841EB010C1CF5001F1D
:104EF0000CD80ED14FEAD17C15F5001F0CEB4C0CF1
:104F00000CF1020C08BF4CEBD37C04E04FF0080C12
:104F100001E04FEAD37C0CEB4C0526FA05F606F0CF
:104F20000706B6F1040C06D20EEB860CBDE8704005
:104F30004CF0010C6047DFE80CF0090B02024FF067
:104F400000414FF00000A1F5002170BD1946104648
:104F5000012851EB010418BFD4F5001484BF0020D0
:104F600001F0004170BD0808A0F500114FEA3101C1
:104F700070474FF04070E1EE100A7047FF2141EAA0
:104F8000D050C0057047000610160006101600002D
:104F900000000000000001020304060708090000E9
:104FA00000000102030400000000C84300000000EC
:104FB0000000000017B7D138000000000AD7233CDA
:104FC0000000FA4400000000000000000AD7A33BE4
:104FD000000000000AD7233C00409C46000000006F
:104FE000000000000AD7233C000000000AD7A33BC2
:104FF000007014460000000000409C450AD7233C86
:10500000000000000AD7A33B285000080000002041
:1050100040000000E801000868500008400000203F
:10502000E80E00000402000868656C6C6F00000068
:105030000000000000000000000000000000000070
:10504000000000000000000010000000010000004F
:105050000024F40000000000000000000000000038
:08506000000000000000000048
:04000005080001AD41
:00000001FF
