:020000040800F2
:1000000048270020B90200081D650008F7360008DF
:1000100019650008831900085B8F000800000000C4
:10002000000000000000000000000000E16800087F
:10003000351B000800000000B7680008636900086D
:10004000D3020008D3020008D3020008D30200083C
:10005000D3020008D3020008D3020008D30200082C
:10006000D3020008D3020008D3020008D30200081C
:10007000D3020008D3020008D3020008D30200080C
:10008000D3020008D3020008D3020008D3020008FC
:100090006D8D0008D3020008D3020008D3020008C7
:1000A000D3020008D3020008D3020008D3020008DC
:1000B000D3020008D3020008D3020008D3020008CC
:1000C000D3020008D3020008D3020008D3020008BC
:1000D000D3020008C96C0008D3020008D30200084C
:1000E000D3020008D3020008D3020008D30200089C
:1000F000D3020008D3020008D3020008D30200088C
:10010000D3020008D3020008D3020008D30200087B
:10011000D3020008D3020008D3020008D30200086B
:10012000D3020008D3020008D3020008D30200085B
:1001300000F002F800F0B0F80AA090E8000C824449
:100140008344AAF10107DA4501D100F0A5F8AFF226
:10015000090EBAE80F0013F0010F18BFFB1A43F0A5
:1001600001031847F8DC000018DD00000A444FF0D6
:10017000000C10F8013B13F0070408BF10F8014B06
:100180001D1108BF10F8015B641E05D010F8016B4B
:10019000641E01F8016BF9D113F0080F1EBF10F8AF
:1001A000014BAD1C0C1B09D16D1E58BF01F801CBD2
:1001B000FAD505E014F8016B01F8016B6D1EF9D555
:1001C0009142D6D37047000000230024002500266A
:1001D000103A28BF78C1FBD8520728BF30C148BFAA
:1001E0000B6070476E2900F02883702900F01F8192
:1001F000662909F01982652909F01682672909F034
:1002000013826129AFF3008003681B0A28BF41F005
:100210008001692900F09080642900F08D807529A3
:1002200000F08A806F2900F00A84782900F0EB80C2
:10023000E92900F0A583E42900F0A283F52900F064
:100240009F83EF2900F00784F82900F0EA80036813
:10025000DB0928BF41F08001632900F06386732920
:1002600000F06886E32900F07386F32900F07886B1
:10027000002070471FB500F0C9FE040000200021D7
:1002800009F07EF8401C60600020002109F062F84F
:10029000E0601FBD10B510BD00F08AFE1146FFF7EB
:1002A000E9FF08F0DFFE00F063FF03B4FFF7F2FFA1
:1002B00003BC08F08CFE000009488047094800474D
:1002C000FEE7FEE7FEE7FEE7FEE7FEE7FEE7FEE706
:1002D000FEE7FEE704480549054A064B7047000063
:1002E0006D69000831010008480E002048270020F1
:1002F0004823002048230020704700001CB50C460E
:10030000064B7B4469460090204600F0B0FA044654
:100310000020694600F0BEFA20461CBD8F05000093
:100320000FB4044910B503AA029800F0B9FA10BC42
:100330005DF814FB140000202DE9F041064600246E
:1003400010687529314616A510D000F0E2F9002892
:1003500002DA404213A507E031688A0701D512A5E9
:1003600002E0490704D511A5012401E000F0DAF903
:1003700000210A2206F1240709E0B0FBF2FCB0FBE1
:10038000F2F302FB1C00303078541846491C002858
:10039000F3D123462A463046BDE8F04100F0F4B9D7
:1003A000000000002D0000002B00000020000000D5
:1003B000F0B40D460188090502D5214C7C4402E0C9
:1003C0001F4C7C440E34002100F1240608E002F0AA
:1003D0000F071209E75D42EA03721B097754491CB3
:1003E00052EA0307F3D102780023120704D5702DD7
:1003F00006D009B1022311342246F0BC00F0C4B982
:1004000001231034F8E770B504460D462146106804
:1004100000F088F9024629462046BDE870400023D6
:10042000C6E7D21D22F00703D3E90023C0E7036823
:10043000126843F0200303600823C3610023B7E779
:10044000C4D900002DE9F05F894604464FF0000A48
:10045000DFF874B1FB44C0F820A02046E16888476B
:10046000002874D0252806D0D4E901219047206ABD
:10047000401C2062F1E700265F462046E16888477D
:100480002028054607DB312D05D2781910F8200CFD
:1004900008B10643F1E7B00701D526F00406C4F819
:1004A0001CA00027C4F818A02A2D09D0284608F05F
:1004B00087FD38B304EB8708303DC8F8185019E0C1
:1004C00059F8041B204604EB87029161E1688847D4
:1004D000012F054618D1E069002820DA26F0200611
:1004E0001DE0D8F8180000EB800005EB4000303824
:1004F000C8F818002046E1688847054608F060FD06
:100500000028EED1012F0AD02E2D08D12046E16817
:1005100088477F1C0546022F46F02006C4DBA069F1
:10052000002803DA404246F00106A061F00701D03E
:1005300026F010066C2D0BD0682D09D04C2D39D02B
:100540006A2D35D0742D35D07A2D33D016E038E0B1
:10055000E1682F4620468847B842054609D16C2FEE
:1005600026D04FF48060E168064320468847054660
:1005700004E06C2F1AD04FF4807006430DB3A5F140
:100580004100192802D8203546F400664A4629461B
:10059000204626604E46FFF725FE80B101280BD08D
:1005A000F61D26F0070000F1080956E74020E4E7B1
:1005B0008020D8E70020D6E706F104094DE7284659
:1005C00052E7206ABDE8F09F54D9000010B5431CE3
:1005D00002E010F8011B71B18107FAD14FF001322E
:1005E00002C88C1A8C4314EAC211F9D0C01A0A0648
:1005F00003D0C01E10BDC01A10BD0A0401D0801E59
:1006000010BD0902FCD0401E10BD10B5203AC0F04C
:100610000B80B1E81850203AA0E81850B1E8185003
:10062000A0E81850BFF4F5AF5FEA027C24BFB1E840
:100630001850A0E8185044BF18C918C0BDE81040B1
:100640005FEA827C24BF51F8043B40F8043B08BFBA
:100650007047D20728BF31F8023B48BF11F8012B81
:1006600028BF20F8023B48BF00F8012B70474FF02D
:10067000000200B5134694469646203922BFA0E8F2
:100680000C50A0E80C50B1F12001BFF4F7AF0907FE
:1006900028BFA0E80C5048BF0CC05DF804EB8900EF
:1006A00028BF40F8042B08BF704748BF20F8022B32
:1006B00011F0804F18BF00F8012B7047704770474A
:1006C0007047704770B5044685690068C10601D55A
:1006D000302600E02026C00707D070BDD4E90121F4
:1006E00030469047206A401C20626D1EF6D570BDD2
:1006F00070B5044685690078C00707D170BDD4E99C
:10070000012120209047206A401C20626D1EF6D5F2
:1007100070BD09684A0501D540B27047C905FCD5CE
:1007200000B2704709684A0501D5C0B27047C905D3
:10073000FCD580B2704770B50C460546012A05D03D
:100740002878800600D5EA69002302E0012305E04D
:100750005B1C934202D2E05C0028F9D1A869E6183C
:10076000C01AA861286A184428622846FFF7AAFF21
:1007700004E0D5E9012114F8010B9047B442F8D305
:100780002846FFF7B5FF70BD2DE9F0470D469946A5
:100790009246044600F124080168880604D5E06901
:1007A00021F01001216000E00120A84201DD471B7B
:1007B00000E00027A1697A1902EB0900081AA0617C
:1007C0002078C00602D42046FFF77CFF002608E010
:1007D000D4E901211AF806009047206A401C761CD3
:1007E00020624E45F4DB2078C0060AD52046FFF78C
:1007F00069FF06E0D4E9012130209047206A401CBF
:100800002062381EA7F10107F4DC07E0D4E90121DA
:1008100018F805009047206A401C2062281EA5F1A8
:100820000105F3DC2046FFF763FF2078000602D5C0
:100830000220BDE8F0870120FBE711680268006A2A
:10084000530501D508700AE0D30501D5088006E0FC
:10085000130603D5C217C1E9000200E008600120B9
:100860007047000001694A1C02610878704700B5B2
:100870008FB0CDE901310021059105497944CDE9D9
:10088000031011466846FFF7DDFD0FB000BD000004
:10089000E5FFFFFF0A6802F8010B0A6070470000DD
:1008A000074B70B50D467B44FFF7E1FF0446284631
:1008B00000F05AFB10B14FF0FF3070BD204670BD04
:1008C0009F8700002DE9FF5F15468A460446DFF842
:1008D000AC80F8440027D8E900103E46CDE900106E
:1008E00010E03AF816106A4602A800F041FB411CDD
:1008F00007D02178890603D5E269391891420DD8CD
:100900000744761C2078800602D5E069B84205DDF0
:10091000AE42E6DB3AF816000028E2D1A069C01B1F
:10092000A0612046FFF7CEFED8E90010CDE9001007
:10093000002017E03AF818106A4602A800F018FBE9
:10094000B0F1FF3F81460BD000250DF1080B05E00B
:10095000D4E901211BF8050090476D1C4D45F7D3E4
:1009600008F10100B0428046E4DB206A384420628E
:100970002046FFF7BDFEBDE8FF9F0000EAD400005F
:100980002DE9F0418046D21D22F007020025D2E970
:100990000002F52915A614D0011E72F1000106DA35
:1009A0000023D0EB030063EB020211A608E0D8F8A5
:1009B00000108B0701D50FA602E0490701D50EA64E
:1009C00001251146002408F1240704E000F04EF848
:1009D00030323A55641C50EA0102F7D12B463246B8
:1009E00021464046BDE8F041FFF7CEBE00000000C2
:1009F0002D0000002B0000002000000030B400217A
:100A000000F1240408E002F00705D208303542EA7C
:100A10004372DB086554491C52EA0305F3D10468AC
:100A2000002310A2250707D5A40600D421B1C4696C
:100A300001230DA2641EC46130BCFFF7A5BE10B532
:100A4000044621461068FFF76DFE02462046BDE8C9
:100A500010400023D2E7D21D22F00701D1E9002384
:100A6000CCE70000000000003000000030B5B0F11D
:100A70000A024FEA900E71F100034EEA817EB0EB5C
:100A80000E0061EB91014FEA101E4EEA017E10EB61
:100A90000E0041EB11114FEA102E4EEA016E10EBE1
:100AA0000E0041EB11214FEA104E4EEA014E10EBC1
:100AB0000E0041EB1141401841F100014FEAD00016
:100AC00040EA41704FEAD10110EB80054FEA810402
:100AD00044EA907444EB01046D1944EB0404521B86
:100AE000A3414FF0000348BF0A3200D530BD401C7F
:100AF00041F1000130BD70472DE9FF4F0C461E4605
:100B00004FF0FF378BB0D2E90001DDF860800A902A
:100B10008A46C1F30A5505B93D46002108464FF003
:100B20000000BAF1000F00F4400005DA00EB80008D
:100B30004FF4400101EA50004FEA9059B9F1010F1A
:100B400000DDB9460A9850EA4A000ED044F610502B
:100B5000A5F2FF3545432F14B8F1000F1ED07542A2
:100B6000291E1EDDC9F100021CE0B8F1010F4FF093
:100B7000000001D0302103E0F24305E02154401C85
:100B8000B042FBDB30460022002121540B99C1F812
:100B90000880C1E900200FB0BDE8F08FBD1B6D1CBF
:100BA000DEE74A4600DA694206A800F073FA06ABAF
:100BB00093E8070003AB83E8070050460A9900F06A
:100BC00025FB8DE80700A0F500501F380090039822
:100BD000002D09DD42F21F014A46084403A9039093
:100BE000684600F084FD08E0A0F500504A461F3832
:100BF00003A90390684600F08EFD8DE8070000040D
:100C0000000C03D04FF0FF30410800E01046B8F16F
:100C1000000F03D00022009215461EE0751E05D479
:100C2000FFF724FF303262556D1EF9D5B34601221D
:100C3000084302D000227F1C04E02078302801D134
:100C400000227F1E002A099786D01DE0112D07DAA9
:100C5000FFF70CFF303262556D1C50EA0102F5D1EE
:100C6000084302D00098C8B10EE00021681E05E0DC
:100C7000235C625C63542254401E491C8142F7DBB2
:100C8000AB46A81B401E0990002004F80B000B98EF
:100C9000099AC0F80880C0E9002B7CE711264FF0C4
:100CA000000859E72DE9F04F88460446D21D22F08E
:100CB000070191B0D1E90001CDE90A0108F04FF92F
:100CC00002460B98C00F01D02D2007E02068810755
:100CD00001D52B2002E0202101EAC000032A09905F
:100CE00001D0072A05DB03464146204600F092F971
:100CF0000BE12078800601D5E06900E00620B8F11C
:100D0000650F814606D0B8F1660F18D0B8F1670FAD
:100D100070D131E00020B9F1110F009001DB1123F7
:100D200001E009F101030AAA01A90CA8FFF7E4FEFA
:100D3000DDE90C70002609F10105834647E001203A
:100D40004B4600904FF000470AAA01A90CA8FFF7F4
:100D5000D3FEDDE90DB00C995D46002610B909F10E
:100D600001000D18B9EB050003D4C0F1FF3609F1FD
:100D70000105A5EB09002BE0B9F1010F01DA4FF0F5
:100D800001090020B9F1110F0090484601DD11233F
:100D900000E003460AAA01A90CA8FFF7ADFEDDE9B1
:100DA0000C704D4600268346207800070AD4AB45D8
:100DB00000DA5D4601A8012D04DD411911F8011C7E
:100DC000302907D04F4502DA17F1040F04DA012069
:100DD00082460FE06D1EEEE7002F02DCED1B3E4465
:100DE00003E0781CA84200DD7D1CB81B00F1010A5D
:100DF0004FF000472078000703D4AA4501DB4FF0ED
:100E0000FF3A0021B7F1004F0DF143088DF8431070
:100E100024D002202B23002F01DA7F422D230A2128
:100E2000021EA0F1010000DC5FB197FBF1FC97FB13
:100E3000F1F201FB1C7C17460CF1300C08F801CDD7
:100E4000EEE7A8F1010003702188090501D54521CD
:100E500000E06521A0F1010800F8011C09980FA924
:100E6000A1EB0807FF1D00B10120411901EBEA7059
:100E7000A1693844081A401EA0612078C00602D437
:100E80002046FFF71FFC099828B1D4E901219047BB
:100E9000206A401C20622078C00622D52046FFF739
:100EA00011FC1EE0002E04DBB34502DD01A8805DCD
:100EB00000E03020D4E901219047206A401C2062E4
:100EC000761CAAF101005FEA000A0AD100F09EF840
:100ED000C0680168405CD4E901219047206A401C49
:100EE0002062281EA5F10105DCDC07E0D4E9012120
:100EF00018F8010B9047206A401C2062381EA7F1A9
:100F00000107F3DC2046FFF7F3FB032011B043E6B3
:100F100010B5436913B1AFF3008001E0FFF70BFC9C
:100F2000012010BD127800F124010A7000224A70DD
:100F30000122EDE711684FF0FF32E9E710B5436990
:100F400013B1AFF3008001E0FFF7BCFC012010BD3E
:100F5000128800F1240182840022C2840122EDE77C
:100F600011684FF0FF32E9E7007B00F08000704726
:100F700070B516460C46054600F040F8036893F835
:100F80000101012806D0FF2C0FD8185D68B101209F
:100F90002C7070BDD3F807013246214603F20713C7
:100FA00003442846BDE8704018474FF0FF3070BD3D
:100FB000754600F0E7F8AE4605006946534620F056
:100FC0000700854618B020B5FFF784F9BDE820403A
:100FD0004FF000064FF000074FF000084FF0000BF5
:100FE00021F00701AC46ACE8C009ACE8C009ACE8A8
:100FF000C009ACE8C0098D467047000010B500F08C
:1010000005F8001D10BD00BF79830000004870473F
:10101000040E00202DE9F0411F4604460326016816
:10102000072A01F4006004DB08B116A505E016A547
:1010300003E008B115A500E015A521F0100020601F
:10104000A069C01EA0610FB1401EA0612046FFF73D
:1010500039FB4FB1D4E9012138469047206A401C42
:101060002062C01C206206E0206AFAE7D4E9012170
:1010700015F8010B9047761EF8D22046FFF738FB93
:10108000BDE8F0814E414E006E616E00494E460053
:10109000696E66002DE9F047814616468AB03348EE
:1010A00078440DC88DE80D0030487844801C03ACAE
:1010B0000DC884E80D0041F69B300844372190FBB1
:1010C000F1F290FBF1F5A5F1800501FB12041B3C48
:1010D00002D56442012000E00020DFF890A08046A5
:1010E0000027FA44AAF1BE0A0DE0E00709D0324613
:1010F000684607EB47010AEB810100F00CFB8DE825
:10110000070064107F1C002CEFD1184F7F44AC3FC8
:1011100018E0E80714D007EB04100DF1180A90E866
:101120000E008AE80E00C068F04201D198190890BC
:10113000324606A903A800F0EEFA03AB83E80700E5
:101140006D10641C002DE4D132466946B8F1000FE1
:1011500003A802D000F0CBFA01E000F0DCFAC9E904
:101160000001C9F808200AB0BDE8F087A0CD000052
:1011700010B50446AFF300802046BDE81040FFF7ED
:1011800094B8000000487047E40D00204FF0013C87
:1011900050F8042B51F8043B9A4221D1A2EB0C03E6
:1011A000934313EACC1317D150F8042B51F8043BA6
:1011B0009A4215D1A2EB0C03934313EACC130BD143
:1011C00050F8042B51F8043B9A4209D1A2EB0C03CE
:1011D000934313EACC13DBD04FF00000704700BFFD
:1011E000D01A01BAB1FA81F101F0180122FA01F026
:1011F000CB40C1F12001DBB2C0B2C01A2CFA01F31E
:10120000D11A914311EAC311E6D170475FEA400C4D
:1012100008BF91F0000F4FEA8C234FEAC12243EA46
:1012200051514FEA1C5018BF00F5F0404FEA300012
:1012300018BF41F000415FEA6C5C00F02980BCF10E
:10124000FF3F08BF40F080407047130C06BF1204F8
:101250004FF0100C4FF0000C130E04BF12020CF1F3
:10126000080C130F04BF12010CF1040C930F04BF00
:1012700092000CF1020CD30F04BF52000CF1010CD0
:1012800011464FF00002A0F11F00A0EB0C007047C8
:1012900011F0004F08BF704731F000413FF4D5AF67
:1012A0000B0C06BF09044FF0100C4FF0000C0B0E96
:1012B00004BF09020CF1080C0B0F04BF09010CF16B
:1012C000040C8B0F04BF89000CF1020CCB0F04BF80
:1012D00049000CF1010CCCF12003A0EB0C0022FA28
:1012E00003F302FA0CF241EA030100F10100704736
:1012F00020F07F4C80EA030023F07F47ACEB07032C
:1013000003F57C5300F0004003F1FF032DE9804911
:101310004FEA154B09B44FEA144325EA0B4E24EA71
:1013200003480FF2042606EB132749083E785FEACC
:10133000320203FB0667C7F5000707FB06F64FEA14
:1013400054374FEAD64606F1020607FB066CCCF18D
:10135000005C4FEA1C472CEA074C07FB06F40CFB29
:1013600006F504EB15464FEA961634BF00204FF001
:1013700000404FEAD13706FB07FC4FEA1C4C0CFB40
:101380000BF7D21B03FB0CF761EB07010CFB0EF70D
:10139000B0EB074072EB17420CFB08F734BFA2EB2F
:1013A0000742B2EB074261EB17414FEA0C444FEAA8
:1013B000910706FB07FC4FEA1C4C0CFB0BF7B0EB4C
:1013C000C74072EB573203FB0CF734BFA2EBC742A6
:1013D000B2EBC74261EB57310CFB0EF7B0EBC70025
:1013E00072EB57720CFB08F734BFA2EBC702B2EBEB
:1013F000C70261EB5771039F4FEA816141EA921185
:1014000004EBCC044FEAD1374FEA826206FB07FCBB
:1014100042EA90124FEA80604FEA1C4C0CFB0BF73B
:10142000D21B03FB0CF761EB07010CFB0EF7B0EBD3
:10143000074072EB17420CFB08F734BFA2EB0742E0
:10144000B2EB074261EB17414FEA8C554FEA910727
:1014500004EB9C2406FB07FC4FEA1C4C0CFB0BF72F
:10146000B0EBC74072EB573203FB0CF734BFA2EB73
:10147000C742B2EBC74261EB57310CFB0EF7B0EB42
:10148000C70072EB57720CFB08F734BFA2EBC70220
:10149000B2EBC70261EB577115EB4C254FEA816146
:1014A00041EA92114FEA82624FEAD13742EA901242
:1014B00006FB07FC44F100044FEA80604FEA1C4C35
:1014C0000CFB0BF7D21B03FB0CF761EB07010CFBCA
:1014D0000EF7B0EB074072EB17420CFB08F734BF76
:1014E000A2EB0742B2EB074261EB174115EB1C156B
:1014F0004FEA813141EA92414FEA823242EA904218
:101500004FEA80304FEA0C7644F1000448EA034386
:101510004EEA0B484FF0000EB2EB080C71EB0307DC
:1015200024BF624639464EEB0E0E4FF0000B0018FA
:10153000524149414BEB0B0BB2EB080C71EB03072B
:101540007BF1000B24BF624639464EEB0E0E4FF086
:10155000000B0018524149414BEB0B0BB2EB080C4E
:1015600071EB03077BF1000B24BF624639464EEB5B
:101570000E0E51EA020718BF46F0010616EB0E7672
:1015800055F1000254F1000103D5BDE88901BDE821
:101590000088BDE88901BDE80048B619524141EB19
:1015A0000101A3F10103704780807F7E7D7C7B7AFF
:1015B0007978777676757473727171706F6E6E6DFF
:1015C0006C6C6B6A6A6968686766666564646363A5
:1015D00062616160605F5F5E5E5D5D5C5C5B5B5A2B
:1015E0005A59595858575756565555555454535398
:1015F00052525251515050504F4F4F4E4E4D4D4DF3
:101600004C4C4C4B4B4B4A4A4A494949484848473D
:10161000474747464646454545444444444343437B
:101620004342424242414141002B26D4770021D01F
:101630001CB54FEA370703B44FF010004FF010010C
:101640004FF000000FBCBDE810400BF1010BBBF1E7
:10165000010F08BF5FEA170722BF12F1010211F163
:1016600001014FF0004143F1000300F0004043EA64
:1016700000007047F9D35708DAE746EA064613F147
:10168000400F4FEA16461FDD13F1200FDFBF164350
:101690000A46002120335B42C8D0C3F1200746EA46
:1016A000064602FA07F74FEA164646EA0706C3F16E
:1016B000200722FA03F201FA07F721FA03F14FF0AB
:1016C000000342EA0702B1E746EA020646EA064696
:1016D0004FEA164646EA0106BCBF46EA0646360C05
:1016E0004FF000034FF000024FF000019EE72DE99C
:1016F000C048934630B491E8380007C831EA400C3E
:1017000048BF34EA430C03D5FFF7F2FDFFF78CFF27
:10171000F0BCBDE800882DE9C048934630B491E89C
:10172000380007C810F0804F08BF13F0804F03D176
:1017300000F005F8FFF778FFF0BCBDE8008820F066
:101740007F4780EA030023F07F4C07EB0C03A3F5EF
:101750007C5300F00040A3F1FE0392F0000F00F074
:10176000B38095F0000F00F077802DE901494FEA32
:1017700011404FEA144621EA004800FB06FC24EA27
:10178000064708FB06F607FB08F800FB07F718EB0F
:1017900006484CEB164C4FEA124B18EB07484FEA41
:1017A00015464CEB174022EA0B4E0BFB06FC25EAD4
:1017B00006470EFB06F607FB0EFE0BFB07F71EEBBC
:1017C000064E4CEB164C4FF000061EEB074E4CEB52
:1017D000174B18EB0B0840F1000018EB0E0B58EB01
:1017E000000840F100008F1A4FF000013CBFC943D0
:1017F000661B14BFB5EB040C00213CBFC943F61BAC
:101800004FEA17444EEA8E0E27EA04454FEA1C477A
:1018100004FB07622CEA074C05FB07F70CFB05F6F7
:1018200004FB0CFC16EB074642EB174216EB0C468A
:1018300042EB1C421BEB060658EB0202414146EA12
:101840009E0601D5BDE80189B619524141EB01015F
:10185000A3F10103BDE801894FEA14454FEA11479E
:1018600024EA054621EA074C05FB07F406FB07F7C7
:101870000CFB06F105FB0CFC11EB074144EB174494
:101880004FEA124711EB0C4144EB1C4422EA074C8F
:1018900005FB07F206FB07F70CFB06F605FB0CFC45
:1018A00016EB074642EB174216EB0C4642EB1C4583
:1018B0006A1854F1000148BF7047B619524141EB14
:1018C0000101A3F10103704795F0000F37D04FEAF3
:1018D00011424FEA144721EA024624EA074C02FB70
:1018E00007F106FB07F70CFB06F402FB0CFC14EBFC
:1018F000074441EB17414FEA154714EB0C4441EB09
:101900001C4125EA074C02FB07F506FB07F70CFB19
:1019100006F602FB0CFC16EB074645EB174516EBEB
:101920000C4645EB1C42121951F1000148BF7047AB
:10193000B619524141EB0101A3F1010370474FEA8F
:1019400014454FEA114724EA054621EA074C05FBF6
:1019500007F106FB07F70CFB06F24FF0000605FB4C
:101960000CFC12EB074241EB174112EB0C4251EB1E
:101970001C4148BF7047921841EB0101A3F10103DC
:10198000704700BFFEE7000070B505460C461646DE
:10199000042D15D007DC7DB1012D0ED0022D0DD008
:1019A000032D50D10BE0202D0BD0212D30D0222D36
:1019B00047D0232D47D145E046E045E044E043E0F1
:1019C00042E02078617840EA0120A17840EA0140B5
:1019D000E17840EA01601E49086020790871607969
:1019E0004871A0798871084601791AA0FEF798FC21
:1019F000174841791DA0FEF793FC1548817922A074
:101A0000FEF78EFC1248016826A0FEF789FC1BE059
:101A10000F48007820700E480088000A60700C485B
:101A20000068000CA0700A480068000EE0700848CA
:101A30000079207106484079607105488079A0716D
:101A400002E001E000E000BF00BF002070BD000028
:101A5000980100206C696E65636F64696E672E661D
:101A60006F726D61743A25640D0A00006C696E65D1
:101A7000636F64696E672E706172697479747970CE
:101A8000653A25640D0A00006C696E65636F6469D0
:101A90006E672E64617461747970653A25640D0A0D
:101AA000000000006C696E65636F64696E672E628A
:101AB0006974726174653A25640D0A0000207047EC
:101AC00010B50349034805F055FA002010BD000089
:101AD0001C0D00200403002070B504460D4621466D
:101AE000054805F047FA044805F020FA2046296821
:101AF00007F0C8F9002070BD040300202DE9F04173
:101B000004460D4600260A48D0F8B872D7F81402E9
:101B100010B10120BDE8F0812A462146044805F0B5
:101B200030FA034805F0B1FA06463046F2E7000005
:101B3000040300207047000010B502A0FEF7F0FB80
:101B400010BD000075736220656E746572206C6F45
:101B50007720706F776572206D6F64650D0A0000E5
:101B60007047000070B50446B3F5804F13D1D1E93A
:101B7000000540EA05108D6840EA05208D6928437C
:101B80008D8940EA054054F82250064E35402843DE
:101B900044F8220003E06FF0704044F82200002077
:101BA00070BD00000000F0CF30B50246086852F862
:101BB000200020F001000C6842F824008868082802
:101BC00001D1402300E00023486818438C6820437B
:101BD000CC6820430C6920434C6920438C69204326
:101BE000CC6920430C6A20434C6A20438C6A204312
:101BF000CC6A20430C6B20434C6B20430C6852F89A
:101C00002440044D2C4020430C6842F8240000205E
:101C100030BD00008000F0FF10B50346D1E900049C
:101C200040EA04108C6840EA04208C8940EA0444AD
:101C3000088A401E44EA0054087D801E44EA006081
:101C40008C692043541C53F8244004F04044204342
:101C5000541C43F82400002010BD000070B50A4851
:101C60000468001D0568001D0668344454B108224C
:101C70000649204601F041FD04220449103128465E
:101C800001F03BFD70BD0000E8F7FF1F7E01002062
:101C900070B50446002594F82100022803D00420E2
:101CA000A0630125C1E02068006820F00E002168D3
:101CB00008602068006820F00100216808605C4925
:101CC0002068884252D95A4978392068884201D11F
:101CD000012047E0564964392068884201D110202C
:101CE00040E0534950392068884201D1801539E0DD
:101CF0004F493C392068884201D1801432E04C4978
:101D000028392068884202D14FF480302AE04849BF
:101D100014392068884202D14FF4801022E04449EF
:101D20002068884201D140041CE042492068884272
:101D300001D1012016E03F4914312068884201D1C9
:101D400010200FE03B4928312068884201D18015DE
:101D500008E038493C312068884201D1801401E014
:101D60004FF480303349091F086051E03049783919
:101D70002068884201D1012047E02D49643920685C
:101D8000884201D1102040E029495039206888421A
:101D900001D1801539E026493C392068884201D1BB
:101DA000801432E0224928392068884202D14FF459
:101DB00080302AE01E4914392068884202D14FF44D
:101DC000801022E01A492068884201D140041CE0BA
:101DD00018492068884201D1012016E015491431C4
:101DE0002068884201D110200FE012492831206874
:101DF000884201D1801508E00E493C3120688842B4
:101E000001D1801401E04FF48030094980394860E5
:101E1000012084F8210000BF002084F8200000BFCA
:101E2000606B10B12046616B8847284670BD00008A
:101E300080000240080402402DE9F84702460023D2
:101E40009C467BE14FF0010808FA03F4D1F80080CA
:101E500008EA0400A0427DD1DFF8F4A2D1F80480A2
:101E6000A8EB0A09D0453AD014DCB8F1030F50D0E2
:101E700009DCB8F1000F31D0B8F1010F1CD0B8F176
:101E8000020F49D120E0B8F1110F18D0B8F1120FAC
:101E900042D11EE0B9F5881F25D006DCB9F5803F98
:101EA00020D0B9F5801F37D11AE0B9F5001F18D03E
:101EB000B9F5041F30D117E0D1F80CC02DE0D1F8EE
:101EC0000C8008F1040C28E0D1F80C8008F1080C13
:101ED00023E0D1F80C8008F10C0C1EE000BF00BF1D
:101EE00000BF00BF00BF00BFD1F80880B8F1000FED
:101EF00002D14FF0040C0BE0D1F80880B8F1010FCB
:101F000003D14FF0080C146102E04FF0080C54614B
:101F100003E04FF0000C00E000BF00BFFF2801D835
:101F2000904601E002F104084646FF2802D84FEA35
:101F3000830803E0A3F108084FEA88084746D6F86B
:101F400000804FF00F0909FA07F928EA09080CFA8E
:101F500007F900E07AE048EA0908C6F80080D1F8FD
:101F6000048008F08058B8F1805F6FD100BFDFF8BF
:101F7000E481D8F8188048F00108DFF8D891C9F852
:101F80001880C846D8F8188008F00108CDF80080FD
:101F900000BF00BF4FEAB9384FEA930958F82950FB
:101FA0004FEA83784FEA18794FF00F0808FA09F8DA
:101FB00025EA0805DFF8A081424502D14FF000086C
:101FC00024E0DFF89881424502D14FF001081DE07E
:101FD000DFF88C81424502D14FF0020816E0DFF8AD
:101FE0008481424502D14FF003080FE0DFF8788189
:101FF000424502D14FF0040808E0DFF87081424505
:1020000002D14FF0050801E04FF006084FEA83794E
:102010004FEA197908FA09F848EA0505DFF850810E
:102020004FEA930948F82950D1F8048008F4803821
:10203000B8F5803F0BD1DFF83C81D8F8008048EA42
:102040000008DFF83091C9F800800AE075E0DFF899
:102050002481D8F8008028EA0008DFF81891C9F830
:102060000080D1F8048008F40038B8F5003F0ED1A4
:10207000DFF8008108F10408D8F8008048EA000879
:10208000DFF8F09009F10409C9F800800DE0DFF8ED
:10209000E48008F10408D8F8008028EA0008DFF896
:1020A000D49009F10409C9F80080D1F8048008F43B
:1020B0008018B8F5801F0ED1DFF8B88008F1080845
:1020C000D8F8008048EA0008DFF8A89009F108096C
:1020D000C9F800800DE0DFF89C8008F10808D8F806
:1020E000008028EA0008DFF88C9009F10809C9F897
:1020F0000080D1F8048008F40018B8F5001F0ED154
:10210000DFF8708008F10C08D8F8008048EA000871
:10211000DFF8609009F10C09C9F800800DE0DFF8E4
:10212000548008F10C08D8F8008028EA0008DFF88D
:10213000449009F10C09C9F800805B1CD1F80080BB
:1021400028FA03F8B8F1000F7FF47CAEBDE8F887F9
:10215000000011100010024000080140000C014076
:10216000001001400014014000180140001C014013
:1021700008000140000401400AB1016101E00B04C4
:1021800003617047014800687047000004000020A8
:10219000034800680349097808440149086070470A
:1021A000040000200C00002010B50848006840F032
:1021B000100006490860032000F0A8F80F2000F086
:1021C00007F800F02BF8002010BD000000200240AE
:1021D00070B504460E4800784FF47A71B1FBF0F008
:1021E0000C490968B1FBF0F5284601F0ADF808B1DB
:1021F000012070BD102C07D200222146501E00F095
:1022000047F80548046001E00120F2E70020F0E70C
:102210000C000020000000200800002008B500BFCE
:102220001148806940F001000F49886108468069C3
:1022300000F00100009000BF00BF00BF0846C06969
:1022400040F08050C8610846C06900F0805000909E
:1022500000BF00BF00BF0549486820F0E06040F0C3
:102260000070486000BF08BD00100240000001403F
:1022700001460846002809DB00F01F0301229A40AE
:1022800043099B0003F1E023C3F8002100BF70471E
:102290002DE9F05F80460D461646002706F074FED5
:1022A000074639462A46334601F00700C0F1070ABF
:1022B000BAF1040F02D94FF0040A01E0C0F1070A95
:1022C000D14600F1040ABAF1070F02D24FF0000A1A
:1022D00001E0A0F1030AD4464FF0010A0AFA09FA14
:1022E000AAF1010A0AEA020A0AFA0CFA4FF0010BF3
:1022F0000BFA0CFBABF1010B0BEA030B4AEA0B04E4
:102300002146404606F048FEBDE8F09F00BF00F0C1
:102310000702064B19684FF6FF031940044B0B43A5
:1023200043EA0221014B196000BF70470CED00E049
:102330000000FA0570B505460C4604F080008028C0
:1023400006D104F0070605F1280000EB461103E072
:1023500005F5947000EB44111AB900200873CB8086
:1023600004E0012008730B81180C4881002070BD27
:10237000704770B504460D4604F1280101EB451184
:102380004A692946D4F8680205F092F970BD70B523
:1023900004460D4604F5947101EB45114A6929463E
:1023A000D4F8680205F004FA70BD70B504460E4614
:1023B00006F08000802808D106F0070104F128000B
:1023C00000EB41150120687007E006F0070104F5F5
:1023D000947000EB41150020687006F0070028702B
:1023E00000BF94F82802012801D1022070BD01200D
:1023F00084F8280200BF2946206806F082F800BF52
:10240000002084F8280200BF00BFEFE770B5044643
:102410000E4606F00F006168884201D9012070BDA8
:1024200006F08000802808D106F0070104F128009A
:1024300000EB41150120687007E006F0070104F584
:10244000947000EB4115002068700020A87006F021
:102450000700287000BF94F82802012801D102204B
:10246000DDE7012084F8280200BF2946206806F035
:10247000A8F900BF002084F8280200BF00BFCEE703
:10248000024601F0070302F5947000EB4310C069A7
:1024900070472DE9F04705460E4690461F464FF01F
:1024A000000906F08000802808D106F0070105F138
:1024B000280000EB41140120607007E006F00701DE
:1024C00005F5947000EB41140020607006F00700E1
:1024D0002070C4F81080E770607808B12078E0813F
:1024E000022F01D10020207100BF95F82802012899
:1024F00002D10220BDE8F087012085F8280200BF44
:102500002146286805F0AEFD00BF002085F82802AE
:1025100000BF4846EEE72DE9F04105460E46174656
:10252000984606F0070105F5947000EB41146761C9
:10253000C4F818800020E061607006F00700207089
:1025400006F0070020B92146286806F0D5F903E017
:102550002146286806F0D0F90020BDE8F08170B56A
:1025600004460D4605F007006168884201D9012044
:1025700070BD05F08000802808D105F0070104F146
:10258000280000EB41160120707005E004F59470FE
:1025900000EB4516002070700120B07005F00700B8
:1025A000307000BF94F82802012801D10220DFE733
:1025B000012084F8280200BF3146206806F06EF939
:1025C00005F0070020B904F50C71206806F0F6F854
:1025D00000BF002084F8280200BF00BFC8E72DE933
:1025E000F04105460E461746984606F0070105F1EC
:1025F000280000EB41146761C4F818800020E061F6
:102600000120607006F00700207006F0070020B976
:102610002146286806F070F903E02146286806F094
:102620006BF90020BDE8F08110B50446206806F083
:10263000C3FB00F40040B0F5004F02D1204603F088
:102640006EFF206806F0B8FB00F48060B0F5806F84
:102650000ED12068B0F8440020F480602168A1F811
:102660004400204600F05AF90021204600F076F997
:10267000206806F0A1FB00F48040B0F5804F07D140
:102680002068B0F8440020F480402168A1F844009C
:10269000206806F091FB00F40050B0F5005F07D110
:1026A0002068B0F8440020F400502168A1F84400EC
:1026B000206806F081FB00F48050B0F5805F1CD1EB
:1026C0002068B0F840004FF6FB7108402168A1F87F
:1026D00040002068B0F840004FF6F77108402168CC
:1026E000A1F84000204600F02BF92068B0F8440023
:1026F00020F480502168A1F84400206806F05CFBBB
:1027000000F40060B0F5006F2AD12068B0F84000F6
:1027100040F008002168A1F840002068B0F84400AB
:1027200020F400602168A1F844002068B0F840005F
:1027300040F004002168A1F84000206806F03CFB4E
:1027400000F48050B0F5805F07D12068B0F84400F5
:1027500020F480502168A1F84400204600F040F9A0
:10276000206806F029FB00F40070B0F5007F0AD164
:102770002068B0F8440020F400702168A1F84400FB
:10278000204600F0E4F8206806F016FB00F48070A4
:10279000B0F5807F07D12068B0F8440020F4807045
:1027A0002168A1F8440010BD30B585B0044614B9C5
:1027B000012005B030BD94F8290228B9002084F822
:1027C0002802204600F088F8032084F829022068B7
:1027D00005F0EAFF142204F110016846FDF715FF29
:1027E00094E80F0005F089FE20B1022084F8290248
:1027F0000120DEE70021206806F03AFB002526E0F4
:10280000012104F1280000EB4510417004F128007B
:1028100000EB4510057004F1280000EB4510C58160
:10282000002104F1280000EB4510C17004F12800DC
:1028300000EB4510016104F1280000EB45104161F7
:1028400004F1280000EB45108161681CC5B2606886
:10285000A842D5D8002520E0002104F5947000EBB3
:102860004510417004F5947000EB4510057004F5B7
:10287000947000EB4510C17004F5947000EB4510A6
:10288000016104F5947000EB4510416104F594700A
:1028900000EB45108161681CC5B26068A842DBD8B6
:1028A000142204F110016846FDF7AFFE94E80F0012
:1028B00005F06BFF20B1022084F82902012078E79F
:1028C000002084F82400012084F82902206805F003
:1028D00059FF00206DE7000038B504460D49206817
:1028E000884215D100BF0C48C06940F400000A4975
:1028F000C8610846C06900F40000009000BF00BF36
:10290000002211461420FFF7C3FC1420FFF7B0FC8F
:1029100038BD0000005C00400010024070B5044665
:102920000125A068022801D0FFF71AF92946D4F83A
:10293000680205F06DF8D4F8680205F01FF870BD64
:1029400010B50446D4F8680205F046F810BD10B57D
:102950000446D4F8680205F04AF810BD70B5044684
:102960000D4600BF94F82802012801D1022070BD55
:10297000012084F8280200BF84F8245029462068EA
:1029800006F079FA00BF002084F8280200BF00BFDB
:10299000EDE710B5044604F50C71D4F8680205F0B3
:1029A0004EF810BD10B5044600BF94F82802012867
:1029B00001D1022010BD012084F8280200BF0121AE
:1029C0002046FFF7D5FC206805F0D9FE206806F008
:1029D000BDF900BF002084F8280200BF00BFE9E76E
:1029E00010B50446D4F8680205F082F8A06928B151
:1029F0000448006840F0060002490860FFF79CF8B0
:102A000010BD000010ED00E0F8B5044600270026D8
:102A10000025207800F00100002869D04248C069F4
:102A200000F0805070B900BF3F48C06940F080504E
:102A30003D49C8610846C06900F08050009000BF61
:102A400000BF01273948006800F48070B0B93748EA
:102A5000006840F4807035490860FFF793FB064634
:102A600006E0FFF78FFB801B642801D90320F8BD27
:102A70002E48006800F480700028F2D02A48006ACE
:102A800000F440752DB3A08800F44070A84220D017
:102A90002548006A20F4407501202549086000207F
:102AA00008602148056205F0010090B1FFF76AFB5C
:102AB000064608E0FFF766FB801B41F2883188423A
:102AC00001D90320D3E71848006A00F0020000286B
:102AD000F0D01548006A20F440706168084312493C
:102AE0000862012F04D10846C06920F08050C861F7
:102AF000207800F00200022807D10B48406820F43B
:102B00004040A168084308494860207800F0100060
:102B1000102807D10448406820F480006169084308
:102B2000014948600020A2E7001002400070004008
:102B30004004424270B504460D460CB9012070BDF8
:102B40005A48006800F00700A8420ED257480068B3
:102B500020F007002843554908600846006800F047
:102B60000700A84201D00120E9E7207800F0020028
:102B700002281DD1207800F00400042805D14C481B
:102B8000406840F4E0604A494860207800F008005E
:102B9000082805D14648406840F4605044494860E0
:102BA0004348406820F0F000A1680843404948606D
:102BB000207800F0010078B36068012806D13C4815
:102BC000006800F4003090B90120B8E7606802287E
:102BD00006D13748006800F0007040B90120AEE728
:102BE0003348006800F0020008B90120A7E7304828
:102BF000406820F00300616808432D494860FFF7F2
:102C0000C1FA064609E0FFF7BDFA801B41F28831A0
:102C1000884202D9032092E707E02548406800F087
:102C20000C006168B0EB810FEDD12048006800F026
:102C30000700A8420ED91D48006820F0070028436D
:102C40001A4908600846006800F00700A84201D051
:102C5000012074E7207800F00400042807D114480C
:102C6000406820F4E060E16808431149486020783A
:102C700000F00800082808D10D48406820F4605092
:102C8000216940EAC1000A49486000F03FF808495C
:102C90004968C1F30311074A515CC84006490860FE
:102CA00006480068FFF794FA002048E70020024039
:102CB000001002402C9600080000002008000020B0
:102CC00001480068704700000000002000B5FFF7D1
:102CD000F7FF04494968C1F30221034A515CC84027
:102CE00000BD0000001002403C96000800B5FFF750
:102CF000E7FF04494968C1F3C221034A515CC84057
:102D000000BD0000001002403C960008F0B585B000
:102D10000FF26C0C9CE8E01001A8A0E8E0101CA5E4
:102D20002D68009500210022002300240020194D69
:102D3000696801F00C05F5B1042D02D0082D19D1F8
:102D400001E0154819E001ADC1F38346AC5D01F423
:102D5000803555B10F4D6D68C5F340451DF8052010
:102D60000D4D6543B5FBF2F302E00C4D04FB05F39A
:102D7000184602E000BF084800BF00BF05B0F0BD24
:102D800002030405060708090A0B0C0D0E0F1010AC
:102D9000010200000010024000127A0000093D000C
:102DA000F8B504460CB90120F8BD207800F0010008
:102DB000002878D0F848406800F00C0004280CD0B7
:102DC000F548406800F00C00082811D1F24840682E
:102DD00000F48030B0F5803F0AD1EF48006800F47D
:102DE000003000285FD0606800285CD10120DBE75C
:102DF00000BF6068B0F5803F06D1E748006840F446
:102E00008030E549086028E0606858B9E248006809
:102E100020F48030E04908600846006820F48020F3
:102E200008601AE06068B0F5A02F0BD1DA4800689E
:102E300040F48020D84908600846006840F480309B
:102E400008600AE0D448006820F48030D249086065
:102E50000846006820F48020086000BF606888B1E0
:102E6000FFF790F9054606E0FFF78CF9401B642850
:102E700001D9032098E7C848006800F40030002812
:102E8000F2D010E0FFF77EF9054606E0FFF77AF989
:102E9000401B642801D9032086E7BF48006800F47E
:102EA00000300028F2D1207800F00200022857D12B
:102EB000B948406800F00C0050B1B748406800F0D5
:102EC0000C00082818D1B448406800F4803098B944
:102ED000B148006800F0020020B12069012801D04B
:102EE000012061E7AC48006820F0F800616940EA21
:102EF000C100A949086033E02069E8B10120A74971
:102F00000860FFF73FF9054606E0FFF73BF9401B75
:102F1000022801D9032047E79F48006800F002001B
:102F20000028F2D09C48006820F0F800616940EA6F
:102F3000C1009949086013E0002098490860FFF734
:102F400021F9054606E0FFF71DF9401B022801D9CB
:102F5000032029E79048006800F002000028F2D121
:102F6000207800F0080008282DD1A069B8B1012010
:102F70008B490860FFF706F9054606E0FFF702F9FE
:102F8000401B022801D903200EE78348406A00F065
:102F900002000028F2D0012003F08EFC13E0002094
:102FA0007F490860FFF7EEF8054606E0FFF7EAF80C
:102FB000401B022801D90320F6E67748406A00F05A
:102FC00002000028F2D1207800F00400042873D118
:102FD00000277148C06900F0805070B900BF6E488A
:102FE000C06940F080506C49C8610846C06900F073
:102FF0008050009000BF00BF01276A48006800F4BD
:103000008070B0B96748006840F480706549086016
:10301000FFF7B8F8054606E0FFF7B4F8401B642850
:1030200001D90320C0E65F48006800F480700028E2
:10303000F2D000BFE068012806D15748006A40F08E
:1030400001005549086227E0E06858B95248006A13
:1030500020F00100504908620846006A20F0040090
:10306000086219E0E06805280BD14B48006A40F07F
:103070000400494908620846006A40F001000862FD
:103080000AE04548006A20F001004349086208460A
:10309000006A20F00400086200BFE068A0B1FFF7FA
:1030A00071F8054609E0FFF76DF8401B41F28831E1
:1030B000884202D9032077E622E03748006A00F010
:1030C00002000028EFD012E0FFF75CF8054608E0A8
:1030D000FFF758F8401B41F28831884201D903209C
:1030E00062E62D48006A00F002000028F0D1012FAE
:1030F00005D12948C06920F080502749C86100BF28
:10310000E069C8B32448406800F00C00082860D08B
:10311000E069022848D1002020490866FFF732F80C
:10312000054606E0FFF72EF8401B022801D90320D0
:103130003AE61948006800F000700028F2D1206AD1
:10314000B0F5803F07D11448406820F40030A168F2
:10315000084311494860D4E9080108430E49496809
:1031600021F4741108430C49486001200B4908669A
:10317000FFF708F8054607E03DE0FFF703F8401BBE
:10318000022801D903200FE60348006800F0007010
:103190000028F2D02FE00000001002400000424260
:1031A0008004424200700040002014490866FEF787
:1031B000E9FF054606E0FEF7E5FF401B022801D9BE
:1031C0000320F1E50E48006800F000700028F2D1FD
:1031D00011E0E069012800D1E6E50948466806F4F7
:1031E0008031206A814204D106F47011606A814204
:1031F00001D00120D8E50020D6E5000000004242C1
:103200000010024070B504460E4615460CB9012068
:1032100070BD94F8410028B9002084F84000204691
:1032200000F020F804F108012068FEF7BDFC3146EB
:10323000A2682068FEF7F0FC2946236BD4E901025E
:10324000FEF790FCA168206850F8210040F00100D2
:10325000A268216841F82200012084F84100002082
:10326000D6E7000010B586B0044600BF2848406984
:1032700040F48070264948610846406900F4807037
:10328000019000BF00BF00BF0846806940F02000E9
:1032900088610846806900F02000019000BF00BFEF
:1032A00000BF0846806940F0400088610846806998
:1032B00000F04000019000BF00BF00BF08468069D9
:1032C00040F4807088610846806900F48070019045
:1032D00000BF00BF4CF23370029002200390012027
:1032E00004900320059002A90A48FEF7A5FD4FF6B9
:1032F0008070029002A90848FEF79EFD41F201008D
:10330000029002A90548FEF797FD06B010BD000027
:10331000001002400014014000180140002001404C
:10332000042808D14FF0E021096941F004014FF071
:10333000E022116107E04FF0E021096921F004016A
:103340004FF0E0221161704770B504462546681EB3
:10335000B0F1807F01D301200FE0681E4FF0E02123
:1033600048610F214FF0FF3005F016FE00204FF0AE
:10337000E021886107200861002070BD7047014688
:103380000022002391F8392091F83A3042EA0300F4
:10339000704700002DE9F047044620680568206862
:1033A000C668206847694FF00008C14605F00F085D
:1033B000B8F1000F0AD105F0200038B106F0200066
:1033C00020B1204603F028FBBDE8F087B8F1000FDC
:1033D0006DD007F0010018B906F49070002866D08F
:1033E00005F0010030B106F4807018B1E06B40F0D8
:1033F0000100E06305F0040030B107F0010018B1EE
:10340000E06B40F00200E06305F0020030B107F02D
:10341000010018B1E06B40F00400E06305F0080023
:1034200030B107F0010018B1E06B40F00800E06334
:10343000E06B68B305F0200028B106F0200010B161
:10344000204603F0E9FA20684069C0F38019E06B78
:1034500000F0080010B9B9F1000F22D0204603F0A7
:10346000BBFA2068406900F04000B0B120684069B4
:1034700020F0400021684861606B50B11748616BD3
:103480004863606BFEF704FC10B1606B416B8847CA
:103490000CE02046FFF772FF08E02046FFF76EFFC2
:1034A00004E02046FFF76AFF0020E0638CE705F0A8
:1034B000800030B106F0800018B1204603F0D0FB48
:1034C00082E705F0400030B106F0400018B1204618
:1034D00003F092FA78E700BF76E70000C5690008BC
:1034E00010B504460CB9012010BDA06900B100E080
:1034F00000BF94F8390028B9002084F8380020462D
:1035000000F028F8242084F839002068C06820F4EE
:1035100000502168C860204603F0D2FA2068006994
:1035200020F49040216808612068406920F02A005A
:10353000216848612068C06840F400502168C86074
:103540000020E063202084F8390084F83A0000204D
:10355000CAE7000010B586B00446254920688842B5
:1035600044D100BF2348806940F0040021498861AC
:103570000846806900F00400019000BF00BF00BF52
:103580000846806940F4804088610846806900F4FC
:103590008040019000BF00BF00BF0846806940F036
:1035A000010088610846806900F00100019000BFB9
:1035B00000BF4815029002200390012004900320D0
:1035C000059002A90C48FEF737FC4FF4806002908A
:1035D0000020039002A90848FEF72EFC2520FEF7E4
:1035E00047FE032211462520FEF752FE06B010BD0D
:1035F00000380140001002400008014010B50346A9
:1036000093F83A0020282FD101B10AB9012010BD4A
:1036100000BF93F83800012801D10220F7E701200C
:1036200083F8380000BF99629A85DA850020D86354
:10363000222083F83A0000BF002083F8380000BF42
:103640001868C06840F480701C68E06018684069C1
:1036500040F001001C6860611868C06840F02000FC
:103660001C68E0600020D2E70220D0E71D4A016814
:10367000914236D11C49098801F4004189BB1A499D
:10368000098801F4804171B1184909780A2903D0E9
:103690000021154A118024E01349098841F40041B2
:1036A000114A11801DE0114909780D2906D10E49F2
:1036B000098841F480410C4A118012E00B490978D5
:1036C000094A1288C2F30D02094B99540649098828
:1036D000491C054A118011460988C72901DD0021CE
:1036E0001180704700380140180000201A000020A7
:1036F000A4010020704700BFFEE730B50B46002153
:1037000000BF16E00A24B4EB107F05D9302404EB87
:10371000107403F8114005E0412404EB10740A3CD6
:1037200003F81140000100254C00641C1D554C1C81
:10373000E1B29142E6DB30BD70B50446002609488F
:103740000588408845430021084602F0E7FC02F066
:103750006BFE00BF02E004490C80761CAE42FAD337
:1037600070BD0000F40200200008006C10B5044693
:1037700055488471002C51D1F020534908804FF4F2
:10378000A07048800846808849F24131884205D0BF
:103790004D48808845F21031884214D12C204A4986
:1037A00008812A2048812B2088810846808845F29C
:1037B0001031884206D14FF4A070434908804FF47D
:1037C000F07048807BE04048808845F21051884284
:1037D00010D14FF430503C4908814FF428504881B3
:1037E0004FF42C5088814FF4F07008804FF44870EB
:1037F000488064E03448808841F6631188425ED195
:103800002C20314908812B2048812A2088814FF4BF
:10381000F07008804FF44870488050E04FF4A0707A
:1038200029490880F02048800846808849F24131C3
:10383000884205D02448808845F21031884207D15B
:103840002C20214908812A2048812B20888129E0C9
:103850001D48808845F21051884210D14FF43050F5
:10386000194908814FF4285048814FF42C50888121
:103870004FF4487008804FF4F070488012E012480E
:10388000808841F6631188420CD12C200E490881B2
:103890002A2048812B2088814FF4487008804FF4FB
:1038A000F07048800848808845F21031884206D17F
:1038B0004FF4F070044908804FF4A0704880002055
:1038C00002F0F2FA10BD0000F402002030B5044608
:1038D0000D463E48808849F24131884205D03B4838
:1038E000808845F21031884214D13849488902F065
:1038F0008FFD201202F080FDE0B202F07DFD334921
:10390000888902F085FD281202F076FDE8B202F007
:1039100073FD54E02D48808845F21051884220D133
:103920002A49488902F074FD201202F065FD2749FA
:103930004989491C88B202F06BFDE0B202F05CFDDF
:103940002249888902F064FD281202F055FD1F49C2
:103950008989491C88B202F05BFDE8B202F04CFD97
:103960002DE01A48808841F66311884227D1174814
:10397000807920B915480088401E001B84B2134985
:10398000488902F045FD201202F036FDE0B202F057
:1039900033FD201202F030FDE0B202F02DFD0B49A4
:1039A000888902F035FD281202F026FDE8B202F007
:1039B00023FD281202F020FDE8B202F01DFD0348AD
:1039C000008903490880891C0A8030BDF402002068
:1039D000FE07006C00B593B000BFFE48806940F060
:1039E0000800FC4988610846806900F008000090E2
:1039F00000BF00BF01200F90109011900320129083
:103A00000FA9F548FEF718FA4FF02040F349086077
:103A1000F3484860062088600021F048C1600161D9
:103A20001021416100218161C16141624FF48051E7
:103A300081620021C1624FF4804101630021416332
:103A4000816306200890002009901A200A90002027
:103A50000E90049003200190002002900620039015
:103A60000020079001AA08A9DC48FFF7CBFB322011
:103A700005F0BAFAD32002F0CBFC02F0E1F9D94903
:103A8000888002F0DDF9D749888002F0D9F9D5495C
:103A90008880084680884FF6FF7101EA0020D149EE
:103AA000888002F0CDF9CF4989880843CD498880C4
:103AB0000846808849F24131884278D0D42002F00B
:103AC000A7FC02F0BDF9C749888002F0B9F9C549E1
:103AD000888002F0B5F9C3498880084680884FF68F
:103AE000FF7101EA0020BF49888002F0A9F9BD49B1
:103AF00089880843BB4988800846808845F2103190
:103B0000884254D04FF45A4002F082FC02F098F9F7
:103B1000B44988804FF45B4002F07AFC02F090F9DF
:103B2000B0498880084680884FF6FF7101EA00207E
:103B3000AC4988804FF45C4002F06AFC02F080F9E6
:103B4000A84989880843A749888008468088B0F535
:103B5000004F02D145F210508880A248808845F27B
:103B60001051884223D0A12002F052FC02F068F9E3
:103B70009C49888002F064F99A49888008468088C8
:103B80004FF6FF7101EA00209649888002F058F94B
:103B9000944989880843934988800846808845F27B
:103BA0006171884203D141F663108E4988808D4847
:103BB00081888DA0FCF7B4FB8A48808849F24131A6
:103BC00088427CD1CF2002F023FC002002F014FCBC
:103BD000C12002F011FC302002F00EFCED2002F0BA
:103BE00017FC642002F008FC032002F005FC122000
:103BF00002F002FC812002F0FFFBE82002F008FC4A
:103C0000852002F0F9FB102002F0F6FB7A2002F08A
:103C1000F3FBCB2002F0FCFB392002F0EDFB2C2063
:103C200002F0EAFB002002F0E7FB342002F0E4FBA4
:103C3000022002F0E1FBF72002F0EAFB202002F074
:103C4000DBFBEA2002F0E4FB002002F0D5FB0020C1
:103C500002F0D2FBC02002F0DBFB1B2002F0CCFB09
:103C6000C12002F0D5FB012002F0C6FBC52002F006
:103C7000CFFB302002F0C0FB302002F0BDFBC7209C
:103C800002F0C6FBB72002F0B7FB362002F0C0FB03
:103C9000482002F0B1FB3A2002F0BAFB552002F0B6
:103CA000ABFBB12002F0B4FB002002F0A5FB1A2010
:103CB00002F0A2FBB62002F0ABFB0A2000E0ACE071
:103CC00002F09AFBA22002F097FBF22002F0A0FB88
:103CD000002002F091FB262002F09AFB012002F066
:103CE0008BFBE02002F094FB0F2002F085FB2A20E2
:103CF00002F082FB282002F07FFB082002F07CFB10
:103D00000E2002F079FB082002F076FB542002F02E
:103D100073FBA92002F070FB432002F06DFB0A2028
:103D200002F06AFB0F2002F067FB002002F064FB48
:103D3000002002F061FB002002F05EFB002002F098
:103D40005BFBE12002F064FB002002F055FB152034
:103D500002F052FB172002F04FFB072002F04CFB51
:103D6000112002F049FB062002F046FB2B2002F056
:103D700043FB562002F040FB3C2002F03DFB0520B7
:103D800002F03AFB102002F037FB0F2002F034FB68
:103D90003F2002F031FB3F2002F02EFB0F2002F00B
:103DA0002BFB2B2002F034FB002002F025FB00202F
:103DB00002F022FB012002F01FFB3F2002F01CFB5F
:103DC0002A2002F025FB002002F016FB002002F062
:103DD00013FB11E000100240000C0140AC02002077
:103DE000040100A0F4020020204C43442049443A3E
:103DF00025780D0A00000000002002F0FDFAEF20F7
:103E000002F0FAFA112002F003FB782005F0ECF83A
:103E1000292002F0FDFA01F0CBBFFE48808845F270
:103E20001031884240F07C87ED2002F0F1FA012049
:103E300002F0E2FAFE2002F0DFFAEE2002F0E8FAE9
:103E4000DE2002F0D9FA212002F0D6FAF12002F0A9
:103E5000DFFA012002F0D0FADF2002F0D9FA1020B8
:103E600002F0CAFAC42002F0D3FA8F2002F0C4FA9A
:103E7000C62002F0CDFA002002F0BEFAE22002F0E5
:103E8000BBFAE22002F0B8FAE22002F0B5FABF2055
:103E900002F0BEFAAA2002F0AFFAB02002F0B8FA9F
:103EA0000D2002F0A9FA002002F0A6FA0D2002F07F
:103EB000A3FA002002F0A0FA112002F09DFA0020DF
:103EC00002F09AFA192002F097FA002002F094FA10
:103ED000212002F091FA002002F08EFA2D2002F04B
:103EE0008BFA002002F088FA3D2002F085FA0020CB
:103EF00002F082FA5D2002F07FFA002002F07CFAE4
:103F00005D2002F079FA002002F076FAB12002F08A
:103F10007FFA802002F070FA002002F06DFA8B2008
:103F200002F06AFA002002F067FA962002F064FAC2
:103F3000002002F061FAB22002F06AFA002002F0DA
:103F40005BFA002002F058FA022002F055FA002035
:103F500002F052FA032002F04FFA002002F04CFA6D
:103F6000B32002F055FA002002F046FA002002F0D9
:103F700043FA002002F040FA002002F03DFA00204F
:103F800002F03AFA002002F037FA002002F034FA88
:103F9000002002F031FA002002F02EFA002002F098
:103FA0002BFA002002F028FA002002F025FA002067
:103FB00002F022FA002002F01FFA002002F01CFAA0
:103FC000002002F019FA002002F016FA002002F098
:103FD00013FA002002F010FA002002F00DFA00207F
:103FE00002F00AFA002002F007FA002002F004FAB8
:103FF000002002F001FAB42002F00AFA8B2002F04D
:10400000FBF9002002F0F8F9962002F0F5F9002003
:1040100002F0F2F9A12002F0EFF9002002F0ECF931
:10402000B52002F0F5F9022002F0E6F9002002F0D6
:10403000E3F9032002F0E0F9002002F0DDF90420AA
:1040400002F0DAF9002002F0D7F9B62002F0E0F928
:10405000002002F0D1F9002002F0CEF9B72002F0E2
:10406000D7F9002002F0C8F9002002F0C5F93F207E
:1040700002F0C2F9002002F0BFF95E2002F0BCF9A4
:10408000002002F0B9F9642002F0B6F9002002F035
:10409000B3F98C2002F0B0F9002002F0ADF9AC20A9
:1040A00002F0AAF9002002F0A7F9DC2002F0A4F93E
:1040B000002002F0A1F9702002F09EF9002002F029
:1040C0009BF9902002F098F9002002F095F9EB207E
:1040D00002F092F9002002F08FF9DC2002F08CF956
:1040E000002002F089F9B82002F092F9002002F0D5
:1040F00083F9002002F080F9002002F07DF9002011
:1041000002F07AF9002002F077F9002002F074F949
:10411000002002F071F9002002F06EF9BA2002F0DE
:1041200077F9242002F068F9002002F065F90020F8
:1041300002F062F9002002F05FF9C12002F068F994
:10414000202002F059F9002002F056F9542002F024
:1041500053F9002002F050F9FF2002F04DF9002041
:1041600002F04AF9C22002F053F90A2002F044F9A1
:10417000002002F041F9042002F03EF9002002F094
:104180003BF9C32002F044F93C2002F035F900204D
:1041900002F032F93A2002F02FF9002002F02CF957
:1041A000392002F029F9002002F026F9372002F028
:1041B00023F9002002F020F93C2002F01DF9002034
:1041C00002F01AF9362002F017F9002002F014F973
:1041D000322002F011F9002002F00EF92F2002F037
:1041E0000BF9002002F008F92C2002F005F900205C
:1041F00002F002F9292002F0FFF8002002F0FCF89A
:10420000262002F0F9F8002002F0F6F8242002F04F
:10421000F3F801E0F4020020002002F0EDF8242081
:1042200002F0EAF8002002F0E7F8232002F0E4F8B8
:10423000002002F0E1F83C2002F0DEF8002002F05D
:10424000DBF8362002F0D8F8002002F0D5F8322052
:1042500002F0D2F8002002F0CFF82F2002F0CCF8C4
:10426000002002F0C9F82C2002F0C6F8002002F06D
:10427000C3F8292002F0C0F8002002F0BDF8262083
:1042800002F0BAF8002002F0B7F8242002F0B4F8E7
:10429000002002F0B1F8242002F0AEF8002002F075
:1042A000ABF8232002F0A8F8002002F0A5F8C42003
:1042B00002F0AEF8622002F09FF8002002F09CF8B5
:1042C000052002F099F8002002F096F8842002F010
:1042D00093F8002002F090F8F02002F08DF8002012
:1042E00002F08AF8182002F087F8002002F084F823
:1042F000A42002F081F8002002F07EF8182002F0DD
:104300007BF8002002F078F8502002F075F80020C9
:1043100002F072F80C2002F06FF8002002F06CF846
:10432000172002F069F8002002F066F8952002F0EC
:1043300063F8002002F060F8F32002F05DF800203E
:1043400002F05AF8E62002F057F8002002F054F884
:10435000C52002F05DF8322002F04EF8002002F095
:104360004BF8442002F048F8002002F045F86520A0
:1043700002F042F8002002F03FF8762002F03CF80C
:10438000002002F039F8882002F036F8002002F010
:1043900033F8C62002F03CF8202002F02DF800206F
:1043A00002F02AF8172002F027F8002002F024F883
:1043B000012002F021F8002002F01EF8C72002F0D0
:1043C00027F8002002F018F8002002F015F800206D
:1043D00002F012F8002002F00FF8C82002F018F8DE
:1043E000002002F009F8002002F006F8002002F098
:1043F00003F8002002F000F8C92002F009F80020BC
:1044000001F0FAFF002001F0F7FF002001F0F4FFB7
:10441000002001F0F1FF002001F0EEFF002001F08C
:10442000EBFF002001F0E8FF002001F0E5FF002095
:1044300001F0E2FF002001F0DFFF002001F0DCFFCF
:10444000002001F0D9FF002001F0D6FF002001F08C
:10445000D3FF002001F0D0FF002001F0CDFFE020CD
:1044600001F0D6FF162001F0C7FF002001F0C4FFC5
:104470001C2001F0C1FF002001F0BEFF212001F04F
:10448000BBFF002001F0B8FF362001F0B5FF00208F
:1044900001F0B2FF462001F0AFFF002001F0ACFFB9
:1044A000522001F0A9FF002001F0A6FF642001F0D6
:1044B000A3FF002001F0A0FF7A2001F09DFF002063
:1044C00001F09AFF8B2001F097FF002001F094FF8C
:1044D000992001F091FF002001F08EFFA82001F04B
:1044E0008BFF002001F088FFB92001F085FF00203C
:1044F00001F082FFC42001F07FFF002001F07CFF6B
:10450000CA2001F079FF002001F076FFD22001F0EF
:1045100073FF002001F070FFD92001F06DFF002033
:1045200001F06AFFE02001F067FF002001F064FF66
:10453000F32001F061FF002001F05EFFE12001F0B7
:1045400067FF162001F058FF002001F055FF1C20E6
:1045500001F052FF002001F04FFF222001F04CFF3C
:10456000002001F049FF362001F046FF002001F055
:1045700043FF452001F040FF002001F03DFF5220A5
:1045800001F03AFF002001F037FF642001F034FF12
:10459000002001F031FF7A2001F02EFF002001F011
:1045A0002BFF8B2001F028FF002001F025FF992030
:1045B00001F022FF002001F01FFFA82001F01CFFE6
:1045C000002001F019FFB92001F016FF002001F0D2
:1045D00013FFC42001F010FF002001F00DFFCA20DE
:1045E00001F00AFF002001F007FFD22001F004FFD4
:1045F000002001F001FFD82001F0FEFE002001F0B4
:10460000FBFEE02001F0F8FE002001F0F5FEF320B3
:1046100001F0F2FE002001F0EFFEE22001F0F8FED2
:10462000052001F0E9FE002001F0E6FE0B2001F07C
:10463000E3FE002001F0E0FE1B2001F0DDFE002083
:1046400001F0DAFE342001F0D7FE002001F0D4FEA4
:10465000442001F0D1FE002001F0CEFE4F2001F0F9
:10466000CBFE002001F0C8FE612001F0C5FE002055
:1046700001F0C2FE792001F0BFFE002001F0BCFE77
:10468000882001F0B9FE002001F0B6FE972001F06D
:10469000B3FE002001F0B0FEA62001F0ADFE002028
:1046A00001F0AAFEB72001F0A7FE002001F0A4FE51
:1046B000C22001F0A1FE002001F09EFEC72001F003
:1046C0009BFE002001F098FED12001F095FE002015
:1046D00001F092FED62001F08FFE002001F08CFE4A
:1046E000DD2001F089FE002001F086FEF32001F0BC
:1046F00083FE002001F080FEE32001F089FE05200A
:1047000001F07AFE002001F077FE0A2001F074FE2D
:10471000002001F071FE1C2001F06EFE002001F06F
:104720006BFE332001F068FE002001F065FE44209E
:1047300001F062FE002001F05FFE502001F05CFEFF
:10474000002001F059FE622001F056FE002001F029
:1047500053FE782001F050FE002001F04DFE88202D
:1047600001F04AFE002001F047FE972001F044FED0
:10477000002001F041FEA62001F03EFE002001F0E5
:104780003BFEB72001F038FE002001F035FEC220CC
:1047900001F032FE002001F02FFEC72001F02CFEB8
:1047A000002001F029FED12001F026FE002001F0BA
:1047B00023FED52001F020FE002001F01DFEDD20AB
:1047C00001F01AFE002001F017FEF32001F014FEA4
:1047D000002001F011FEE42001F01AFE012001F09A
:1047E0000BFE002001F008FE012001F005FE002074
:1047F00001F002FE022001F0FFFD002001F0FCFDAF
:104800002A2001F0F9FD002001F0F6FD3C2001F026
:10481000F3FD002001F0F0FD4B2001F0EDFD002044
:1048200001F0EAFD5D2001F0E7FD002001F0E4FD6C
:10483000742001F0E1FD002001F0DEFD842001F094
:10484000DBFD002001F0D8FD932001F0D5FD002014
:1048500001F0D2FDA22001F0CFFD002001F0CCFD3F
:10486000B32001F0C9FD002001F0C6FDBE2001F01B
:10487000C3FD002001F0C0FDC42001F0BDFD0020FB
:1048800001F0BAFDCD2001F0B7FD002001F0B4FD2C
:10489000D32001F0B1FD002001F0AEFDDD2001F0DC
:1048A000ABFD002001F0A8FDF32001F0A5FD0020E4
:1048B00001F0A2FDE52001F0ABFD002001F09CFD20
:1048C000002001F099FD002001F096FD002001F08C
:1048D00093FD022001F090FD002001F08DFD2920C4
:1048E00001F08AFD002001F087FD3C2001F084FDED
:1048F000002001F081FD4B2001F07EFD002001F041
:104900007BFD5D2001F078FD002001F075FD742035
:1049100001F072FD002001F06FFD842001F06CFDBC
:10492000002001F069FD932001F066FD002001F0F8
:1049300063FDA22001F060FD002001F05DFDB320C9
:1049400001F05AFD002001F057FDBE2001F054FD9A
:10495000002001F051FDC42001F04EFD002001F0C7
:104960004BFDCD2001F048FD002001F045FDD32096
:1049700001F042FD002001F03FFDDC2001F03CFD94
:10498000002001F039FDF32001F036FD002001F098
:1049900033FDE62001F03CFD112001F02DFD00204B
:1049A00001F02AFD342001F027FD002001F024FD54
:1049B000562001F021FD002001F01EFD762001F0BF
:1049C0001BFD002001F018FD772001F015FD0020EF
:1049D00001F012FD662001F00FFD002001F00CFD3A
:1049E000882001F009FD002001F006FD992001F06A
:1049F00003FD002001F000FDBB2001F0FDFC0020C4
:104A000001F0FAFC992001F0F7FC002001F0F4FC21
:104A1000662001F0F1FC002001F0EEFC552001F0D1
:104A2000EBFC002001F0E8FC552001F0E5FC002043
:104A300001F0E2FC452001F0DFFC002001F0DCFC8D
:104A4000432001F0D9FC002001F0D6FC442001F005
:104A5000D3FC002001F0D0FCE72001F0D9FC32208B
:104A600001F0CAFC002001F0C7FC552001F0C4FC95
:104A7000002001F0C1FC762001F0BEFC002001F016
:104A8000BBFC662001F0B8FC002001F0B5FC6720FB
:104A900001F0B2FC002001F0AFFC672001F0ACFC9B
:104AA000002001F0A9FC872001F0A6FC002001F005
:104AB000A3FC992001F0A0FC002001F09DFCBB208C
:104AC00001F09AFC002001F097FC992001F094FC81
:104AD000002001F091FC772001F08EFC002001F015
:104AE0008BFC442001F088FC002001F085FC56205E
:104AF00001F082FC002001F07FFC232001F07CFC0F
:104B0000002001F079FC332001F076FC002001F058
:104B100073FC452001F070FC002001F06DFCE820E2
:104B200001F076FC002001F067FC002001F064FC3D
:104B3000992001F061FC002001F05EFC872001F06B
:104B40005BFC002001F058FC882001F055FC00209F
:104B500001F052FC772001F04FFC002001F04CFCEA
:104B6000662001F049FC002001F046FC882001F09D
:104B700043FC002001F040FCAA2001F03DFC002095
:104B800001F03AFCBB2001F037FC002001F034FCBE
:104B9000992001F031FC002001F02EFC662001F08C
:104BA0002BFC002001F028FC552001F025FC002002
:104BB00001F022FC552001F01FFC002001F01CFC3C
:104BC000442001F019FC002001F016FC442001F003
:104BD00013FC002001F010FC552001F00DFC00201A
:104BE00001F00AFCE92001F013FCAA2001F004FC0A
:104BF000002001F001FC002001F0FEFB002001F08C
:104C0000FBFB002001F004FCAA2001F0F5FBCF2003
:104C100001F0FEFB002001F0EFFB002001F0ECFBB7
:104C2000002001F0E9FB002001F0E6FB002001F08C
:104C3000E3FB002001F0E0FB002001F0DDFB0020A1
:104C400001F0DAFB002001F0D7FB002001F0D4FBDB
:104C5000002001F0D1FB002001F0CEFB002001F08C
:104C6000CBFB002001F0C8FB002001F0C5FB0020B9
:104C700001F0C2FB002001F0BFFBF02001F0C8FBF7
:104C8000002001F0B9FB502001F0B6FB002001F03C
:104C9000B3FB002001F0B0FB002001F0ADFBF320DE
:104CA00001F0B6FB002001F0A7FBF92001F0B0FBFA
:104CB000062001F0A1FB102001F09EFB292001F04D
:104CC0009BFB002001F098FB3A2001F0A1FB55204E
:104CD00001F092FB112001F09BFB642004F084F9A9
:104CE000292001F095FB352001F092FB002001F016
:104CF00083FB512001F08CFBFF2001F07DFB532052
:104D000001F086FB2C2001F077FB552001F080FBA1
:104D1000822001F071FB2C2001F07AFB01F048B8F1
:104D2000FE48808845F2105188427DD155214FF4CC
:104D3000704001F083FBAA214FF2010001F07EFBDD
:104D400052214FF2020001F079FB08214FF20300DB
:104D500001F074FB01214FF2040001F06FFB0D2103
:104D60004FF4304001F06AFB0D214BF2010001F0DD
:104D700065FB0D214BF2020001F060FB34214FF482
:104D8000364001F05BFB34214BF2016001F056FB31
:104D900034214BF2026001F051FB0D214FF4314000
:104DA00001F04CFB0D214BF2011001F047FB0D21EE
:104DB0004BF2021001F042FB34214FF4374001F076
:104DC0003DFB34214BF2017001F038FB34214BF2F2
:104DD000027001F033FB00214FF4324001F02EFB52
:104DE00000214BF2012001F029FB00214BF20220AF
:104DF00001F024FB24214FF4384001F01FFB242153
:104E00004BF6010001F01AFB24214BF6020001F0E1
:104E100015FB01214FF43F4001F010FB0F214FF42F
:104E2000334001F00BFB00E0FDE30F214BF20130BA
:104E300001F004FB0F214BF2023001F0FFFA3421A4
:104E40004FF4394001F0FAFA34214BF6011001F029
:104E5000F5FA34214BF6021001F0F0FA08214FF474
:104E6000354001F0EBFA08214BF2015001F0E6FA6F
:104E700008214BF2025001F0E1FA03214FF44240C5
:104E800001F0DCFA24214FF43A4001F0D7FA242152
:104E90004BF6012001F0D2FA24214BF6022001F05A
:104EA000CDFA00214FF43C4001F0C8FA78214BF6CE
:104EB000014001F0C3FA00214BF6024001F0BEFAB6
:104EC00000214FF43D4001F0B9FA78214BF6015032
:104ED00001F0B4FA00214BF6025001F0AFFA0021C4
:104EE0004FF43E4001F0AAFA64214BF6016001F054
:104EF000A5FA00214FF4514001F0A0FA33214DF200
:104F0000011001F09BFA00214DF2021001F096FA17
:104F100034214DF2031001F091FA00214DF20410FA
:104F200001F08CFA3A214DF2051001F087FA0021C8
:104F30004DF2061001F082FA4A214DF2071001F0FD
:104F40007DFA00214DF2081001F078FA5C214DF253
:104F5000091001F073FA00214DF20A1001F06EFA07
:104F600081214DF20B1001F069FA00214DF20C1075
:104F700001F064FAA6214DF20D1001F05FFA002154
:104F80004DF20E1001F05AFAE5214DF20F1001F02A
:104F900055FA01214DF2101001F050FA13214DF293
:104FA000111001F04BFA01214DF2121001F046FAF6
:104FB00054214DF2131001F041FA01214DF2141069
:104FC00001F03CFA82214DF2151001F037FA01216F
:104FD0004DF2161001F032FACA214DF2171001F00D
:104FE0002DFA02214DF2181001F028FA00214DF29D
:104FF000191001F023FA02214DF21A1001F01EFAE5
:1050000001214DF21B1001F019FA02214DF21C1082
:1050100001F014FA34214DF21D1001F00FFA0221B3
:105020004DF21E1001F00AFA67214DF21F1001F037
:1050300005FA02214DF2201001F000FA84214DF210
:10504000211001F0FBF902214DF2221001F0F6F9D6
:10505000A4214DF2231001F0F1F902214DF22410A8
:1050600001F0ECF9B7214DF2251001F0E7F902212A
:105070004DF2261001F0E2F9CF214DF2271001F098
:10508000DDF902214DF2281001F0D8F9DE214DF2B0
:10509000291001F0D3F902214DF22A1001F0CEF9C6
:1050A000F2214DF22B1001F0C9F902214DF22C1022
:1050B00001F0C4F9FE214DF22D1001F0BFF90321DA
:1050C0004DF22E1001F0BAF910214DF22F1001F01F
:1050D000B5F903214DF2301001F0B0F933214DF252
:1050E000311001F0ABF903214DF2321001F0A6F9B5
:1050F0006D214DF2331001F0A1F900214FF452401F
:1051000001F09CF933214DF2012001F097F90021C3
:105110004DF2022001F092F9342101E0F402002066
:105120004DF2032001F08AF900214DF2042001F034
:1051300085F93A214DF2052001F080F900214DF268
:10514000062001F07BF94A214DF2072001F076F9A3
:1051500000214DF2082001F071F95C214DF2092087
:1051600001F06CF900214DF20A2001F067F981216C
:105170004DF20B2001F062F900214DF20C2001F0FC
:105180005DF9A6214DF20D2001F058F900214DF2F4
:105190000E2001F053F9E5214DF20F2001F04EF9F8
:1051A00001214DF2102001F049F913214DF2112097
:1051B00001F044F901214DF2122001F03FF9542190
:1051C0004DF2132001F03AF901214DF2142001F0C3
:1051D00035F982214DF2152001F030F901214DF20F
:1051E000162001F02BF9CA214DF2172001F026F903
:1051F00002214DF2182001F021F900214DF2192071
:1052000001F01CF902214DF21A2001F017F90121D9
:105210004DF21B2001F012F902214DF21C2001F089
:105220000DF934214DF21D2001F008F902214DF253
:105230001E2001F003F967214DF21F2001F0FEF856
:1052400002214DF2202001F0F9F884214DF22120B5
:1052500001F0F4F802214DF2222001F0EFF8A42130
:105260004DF2232001F0EAF802214DF2242001F052
:10527000E5F8B7214DF2252001F0E0F802214DF2CA
:10528000262001F0DBF8CF214DF2272001F0D6F8DF
:1052900002214DF2282001F0D1F8DE214DF2292023
:1052A00001F0CCF802214DF22A2001F0C7F8F221DA
:1052B0004DF22B2001F0C2F802214DF22C2001F01A
:1052C000BDF8FE214DF22D2001F0B8F803214DF27A
:1052D0002E2001F0B3F810214DF22F2001F0AEF88E
:1052E00003214DF2302001F0A9F833214DF2312095
:1052F00001F0A4F803214DF2322001F09FF86D2156
:105300004DF2332001F09AF800214FF4534001F0A0
:1053100095F833214DF2013001F090F800214DF263
:10532000023001F08BF834214DF2033001F086F8A1
:1053300000214DF2043001F081F83A214DF20530A0
:1053400001F07CF800214DF2063001F077F84A2197
:105350004DF2073001F072F800214DF2083001F0F3
:105360006DF85C214DF2093001F068F800214DF232
:105370000A3001F063F881214DF20B3001F05EF844
:1053800000214DF20C3001F059F8A6214DF20D30FC
:1053900001F054F800214DF20E3001F04FF8E521F4
:1053A0004DF20F3001F04AF801214DF2103001F0BA
:1053B00045F813214DF2113001F040F801214DF272
:1053C000123001F03BF854214DF2133001F036F861
:1053D00001214DF2143001F031F882214DF21530E7
:1053E00001F02CF801214DF2163001F027F8CA2106
:1053F0004DF2173001F022F802214DF2183001F081
:105400001DF800214DF2193001F018F802214DF27B
:105410001A3001F013F801214DF21B3001F00EF8A3
:1054200002214DF21C3001F009F834214DF21D30FB
:1054300001F004F802214DF21E3000F0FFFF672159
:105440004DF21F3000F0FAFF02214DF2203000F043
:10545000F5FF84214DF2213000F0F0FF02214DF2E2
:10546000223000F0EBFFA4214DF2233000F0E6FFE4
:1054700002214DF2243000F0E1FFB7214DF225303A
:1054800000F0DCFF02214DF2263000F0D7FFCF21E3
:105490004DF2273000F0D2FF02214DF2283000F00B
:1054A000CDFFDE214DF2293000F0C8FF02214DF280
:1054B0002A3000F0C3FFF2214DF22B3000F0BEFF86
:1054C00002214DF22C3000F0B9FFFE214DF22D30BB
:1054D00000F0B4FF03214DF22E3000F0AFFF102199
:1054E0004DF22F3000F0AAFF03214DF2303000F0D2
:1054F000A5FF33214DF2313000F0A0FF03214DF222
:10550000323000F09BFF6D214DF2333000F096FFFA
:1055100000214FF4544000F091FF33214DF201403F
:1055200000F08CFF00214DF2024000F087FF342193
:105530004DF2034000F082FF00214DF2044000F0E4
:105540007DFF3A214DF2054000F078FF00214DF239
:10555000064000F073FF4A214DF2074000F06EFF55
:1055600000214DF2084000F069FF5C214DF2094036
:1055700000F064FF00214DF20A4000F05FFF81213E
:105580004DF20B4000F05AFF00214DF20C4000F0AC
:1055900055FFA6214DF20D4000F050FF00214DF2C5
:1055A0000E4000F04BFFE5214DF20F4000F046FFAA
:1055B00001214DF2104000F041FF13214DF2114046
:1055C00000F03CFF01214DF2124000F037FF542162
:1055D0004DF2134000F032FF01214DF2144000F073
:1055E0002DFF82214DF2154000F028FF01214DF2E0
:1055F000164000F023FFCA214DF2174000F01EFFB5
:1056000002214DF2184000F019FF00214DF219401F
:1056100000F014FF02214DF21A4000F00FFF0121AB
:105620004DF21B4000E005E300F008FF02214DF2BF
:105630001C4000F003FF34214DF21D4000F0FEFE3F
:1056400002214DF21E4000F0F9FE67214DF21F408D
:1056500000F0F4FE02214DF2204000F0EFFE842124
:105660004DF2214000F0EAFE02214DF2224000F00E
:10567000E5FEA4214DF2234000F0E0FE02214DF2B0
:10568000244000F0DBFEB7214DF2254000F0D6FEAD
:1056900002214DF2264000F0D1FECF214DF22740ED
:1056A00000F0CCFE02214DF2284000F0C7FEDE21C2
:1056B0004DF2294000F0C2FE02214DF22A4000F0D6
:1056C000BDFEF2214DF22B4000F0B8FE02214DF25A
:1056D0002C4000F0B3FEFE214DF22D4000F0AEFE56
:1056E00003214DF22E4000F0A9FE10214DF22F4073
:1056F00000F0A4FE03214DF2304000F09FFE332164
:105700004DF2314000F09AFE03214DF2324000F09C
:1057100095FE6D214DF2334000F090FE00214FF4D4
:10572000554000F08BFE33214DF2015000F086FE13
:1057300000214DF2025000F081FE34214DF2035061
:1057400000F07CFE00214DF2045000F077FE3A217B
:105750004DF2055000F072FE00214DF2065000F0AF
:105760006DFE4A214DF2075000F068FE00214DF217
:10577000085000F063FE5C214DF2095000F05EFE1F
:1057800000214DF20A5000F059FE81214DF20B50DC
:1057900000F054FE00214DF20C5000F04FFEA62107
:1057A0004DF20D5000F04AFE00214DF20E5000F077
:1057B00045FEE5214DF20F5000F040FE01214DF273
:1057C000105000F03BFE13214DF2115000F036FE58
:1057D00001214DF2125000F031FE54214DF21350D0
:1057E00000F02CFE01214DF2145000F027FE822122
:1057F0004DF2155000F022FE01214DF2165000F03E
:105800001DFECA214DF2175000F018FE02214DF284
:10581000185000F013FE00214DF2195000F00EFE5A
:1058200002214DF21A5000F009FE01214DF21B50E9
:1058300000F004FE02214DF21C5000F0FFFD342167
:105840004DF21D5000F0FAFD02214DF21E5000F005
:10585000F5FD67214DF21F5000F0F0FD02214DF2E1
:10586000205000F0EBFD84214DF2215000F0E6FDC8
:1058700002214DF2225000F0E1FDA4214DF223500F
:1058800000F0DCFD02214DF2245000F0D7FDB721DD
:105890004DF2255000F0D2FD02214DF2265000F0CD
:1058A000CDFDCF214DF2275000F0C8FD02214DF271
:1058B000285000F0C3FDDE214DF2295000F0BEFD5E
:1058C00002214DF22A5000F0B9FDF2214DF22B5089
:1058D00000F0B4FD02214DF22C5000F0AFFDFE218E
:1058E0004DF22D5000F0AAFD03214DF22E5000F094
:1058F000A5FD10214DF22F5000F0A0FD03214DF227
:10590000305000F09BFD33214DF2315000F096FDF8
:1059100003214DF2325000F091FD6D214DF23350D4
:1059200000F08CFD00214FF4564000F087FD33213C
:105930004DF2016000F082FD00214DF2026000F0A6
:105940007DFD34214DF2036000F078FD00214DF221
:10595000046000F073FD3A214DF2056000F06EFD29
:1059600000214DF2066000F069FD4A214DF207600A
:1059700000F064FD00214DF2086000F05FFD5C2145
:105980004DF2096000F05AFD00214DF20A6000F06E
:1059900055FD81214DF20B6000F050FD00214DF2CC
:1059A0000C6000F04BFDA6214DF20D6000F046FDAD
:1059B00000214DF20E6000F041FDE5214DF20F6037
:1059C00000F03CFD01214DF2106000F037FD132185
:1059D0004DF2116000F032FD01214DF2126000F035
:1059E0002DFD54214DF2136000F028FD01214DF2F0
:1059F000146000F023FD82214DF2156000F01EFDC1
:105A000001214DF2166000F019FDCA214DF2176018
:105A100000F014FD02214DF2186000F00FFD00218E
:105A20004DF2196000F00AFD02214DF21A6000F0FB
:105A300005FD01214DF21B6000F000FD02214DF239
:105A40001C6000F0FBFC34214DF21D6000F0F6FC00
:105A500002214DF21E6000F0F1FC67214DF21F6043
:105A600000F0ECFC02214DF2206000F0E7FC842104
:105A70004DF2216000F0E2FC02214DF2226000F0C4
:105A8000DDFCA4214DF2236000F0D8FC02214DF290
:105A9000246000F0D3FCB7214DF2256000F0CEFC6D
:105AA00002214DF2266000F0C9FCCF214DF22760A3
:105AB00000F0C4FC02214DF2286000F0BFFCDE21A2
:105AC0004DF2296000F0BAFC02214DF22A6000F08C
:105AD000B5FCF2214DF22B6000F0B0FC02214DF23A
