:020000040800F2
:10000000A82900202D020008D94D0008E51D000890
:10001000D54D000829070008E5530008000000003E
:10002000000000000000000000000000054E000875
:100030005907000800000000DB4D00085D4E000875
:10004000470200084702000847020008470200086C
:10005000470200084702000847020008470200085C
:10006000470200084702000847020008470200084C
:10007000470200084702000847020008470200083C
:10008000470200084702000847020008470200082C
:10009000470200084702000847020008470200081C
:1000A000470200084702000847020008470200080C
:1000B0004702000847020008BD4E0008470200083A
:1000C00047020008470200084702000847020008EC
:1000D00047020008A553000847020008470200082D
:1000E00047020008470200084702000847020008CC
:1000F00047020008470200084702000847020008BC
:1001000047020008470200084702000847020008AB
:10011000470200084702000847020008470200089B
:10012000470200084702000847020008470200088B
:1001300000F002F800F06BF80AA090E8000C82448E
:100140008344AAF10107DA4501D100F060F8AFF26B
:10015000090EBAE80F0013F0010F18BFFB1A43F0A5
:1001600001031847C8B70000E8B700000A444FF081
:10017000000C10F8013B13F0070408BF10F8014B06
:100180001D1108BF10F8015B641E05D010F8016B4B
:10019000641E01F8016BF9D113F0080F1EBF10F8AF
:1001A000014BAD1C0C1B09D16D1E58BF01F801CBD2
:1001B000FAD505E014F8016B01F8016B6D1EF9D555
:1001C0009142D6D37047000000230024002500266A
:1001D000103A28BF78C1FBD8520728BF30C148BFAA
:1001E0000B607047642900F09F80752900F09C80A7
:1001F000782900F0D580632900F02982732900F066
:100200002E82002070471FB51FBD10B510BD00F035
:1002100059FA1146FFF7F7FF05F054F900F077FAA5
:1002200003B4FFF7F2FF03BC05F001F9094880476A
:1002300009480047FEE7FEE7FEE7FEE7FEE7FEE7C8
:10024000FEE7FEE7FEE7FEE704480549054A064BE0
:1002500070470000654E000831010008A823002007
:10026000A8290020A8250020A8250020704700000C
:100270000FB4044910B503AA029800F0F5F910BCB8
:100280005DF814FB1400002070B504468569006811
:10029000C10601D5302600E02026C00707D070BD7A
:1002A000D4E9012130469047206A401C20626D1E2F
:1002B000F6D570BD70B5044685690078C00707D1D2
:1002C00070BDD4E9012120209047206A401C2062A3
:1002D0006D1EF6D570BD70B50C460546012A05D0D9
:1002E0002878800600D5EA69002302E0012305E0B2
:1002F0005B1C934202D2E05C0028F9D1A869E618A1
:10030000C01AA861286A184428622846FFF7BCFF73
:1003100004E0D5E9012114F8010B9047B442F8D369
:100320002846FFF7C7FF70BD2DE9F04106460024BF
:1003300010687529314616A510D0AFF3008000284B
:1003400002DA404213A507E031688A0701D512A5F9
:1003500002E0490704D511A5012401E0AFF30080B4
:1003600000210A2206F1240709E0B0FBF2FCB0FBF1
:10037000F2F302FB1C00303078541846491C002868
:10038000F3D123462A463046BDE8F04100F0FCB8E0
:10039000000000002D0000002B00000020000000E5
:1003A00070B504460D4621461068AFF300802188E1
:1003B000090502D50F4A7A4402E00E4A7A440E3209
:1003C000002104F1240305E000F00F060009965D0A
:1003D0005E54491C0028F7D120780023000704D57B
:1003E000702D02D009B1022311322046BDE87040C1
:1003F00000F0CAB8A2B400002DE9F05F89460446B7
:100400004FF0000ADFF874B1FB44C0F820A020468A
:10041000E1688847002874D0252806D0D4E9012156
:100420009047206A401C2062F1E700265F46204684
:10043000E16888472028054607DB312D05D2781969
:1004400010F8200C08B10643F1E7B00701D526F0FB
:100450000406C4F81CA00027C4F818A02A2D09D04F
:10046000284604F0DDFF38B304EB8708303DC8F8B8
:10047000185019E059F8041B204604EB87029161DB
:10048000E1688847012F054618D1E069002820DA85
:1004900026F020061DE0D8F8180000EB800005EBE0
:1004A00040003038C8F818002046E1688847054603
:1004B00004F0B6FF0028EED1012F0AD02E2D08D16E
:1004C0002046E16888477F1C0546022F46F020063B
:1004D000C4DBA069002803DA404246F00106A061AF
:1004E000F00701D026F010066C2D0BD0682D09D036
:1004F0004C2D39D06A2D35D0742D35D07A2D33D08E
:1005000016E038E0E1682F4620468847B8420546A5
:1005100009D16C2F26D04FF48060E1680643204655
:100520008847054604E06C2F1AD04FF480700643CC
:100530000DB3A5F14100192802D8203546F4006614
:100540004A462946204626604E46FFF74BFE80B1BC
:1005500001280BD0F61D26F0070000F1080956E728
:100560004020E4E78020D8E70020D6E706F1040920
:100570004DE7284652E7206ABDE8F09F78B40000B6
:1005800070477047704770472DE9F0470D46994610
:100590009246044600F124080168880604D5E06903
:1005A00021F01001216000E00120A84201DD471B7D
:1005B00000E00027A1697A1902EB0900081AA0617E
:1005C0002078C00602D42046FFF75EFE002608E031
:1005D000D4E901211AF806009047206A401C761CD5
:1005E00020624E45F4DB2078C0060AD52046FFF78E
:1005F0004BFE06E0D4E9012130209047206A401CE0
:100600002062381EA7F10107F4DC07E0D4E90121DC
:1006100018F805009047206A401C2062281EA5F1AA
:100620000105F3DC2046FFF745FE2078000602D5E1
:100630000220BDE8F0870120FBE710B5436913B144
:10064000AFF3008001E0FFF746FE012010BD1278F5
:1006500000F124010A7000224A700122EDE71168BE
:100660004FF0FF32E9E70000074B70B50D467B44C1
:1006700000F011F80446284600F020F810B14FF0C1
:10068000FF3070BD204670BD374E000001694A1C26
:1006900002610878704700B58FB0CDE901310021C3
:1006A000059105497944CDE9031011466846FFF7E5
:1006B000A3FE0FB000BD0000E5FFFFFF007B00F0D0
:1006C00080007047754600F02BF8AE46050069467D
:1006D000534620F00700854618B020B5FFF7B4FD5B
:1006E000BDE820404FF000064FF000074FF0000833
:1006F0004FF0000B21F00701AC46ACE8C009ACE8B4
:10070000C009ACE8C009ACE8C0098D46704710B517
:100710000446AFF300802046BDE81040FFF780BDDF
:10072000004870474423002000BFFEE730B590F832
:1007300040500124AC40C56B6C6004686360446841
:10074000102C04D10468A2600468E16003E004682E
:10075000A1600468E26030BD7047000070B50446D7
:10076000B3F5804F13D1D1E9000540EA05108D683B
:1007700040EA05208D6928438D8940EA054054F8F8
:100780002250064E3540284344F8220003E06FF023
:10079000704044F82200002070BD00000000F0CF3F
:1007A00030B50246086852F8200020F001000C68BD
:1007B00042F824008868082801D1402300E0002383
:1007C000486818438C682043CC6820430C69204358
:1007D0004C6920438C692043CC6920430C6A204338
:1007E0004C6A20438C6A2043CC6A20430C6B204324
:1007F0004C6B20430C6852F82440044D2C4020439D
:100800000C6842F82400002030BD00008000F0FF9A
:1008100010B50346D1E9000440EA04108C6840EAB0
:1008200004208C8940EA0444088A401E44EA0054AB
:10083000087D801E44EA00608C692043541C53F8F4
:10084000244004F040442043541C43F8240000207A
:1008500010BD0146002291F82100022808D0042092
:10086000886300BF002081F8200000BF012070478E
:100870000868006820F00E000B68186008680068BF
:1008800020F001000B68186091F84030012098407A
:10089000CB6B5860012081F8210000BF002081F857
:1008A000200000BF1046E2E770B50446002594F82A
:1008B0002100022803D00420A0630125C1E02068A4
:1008C000006820F00E00216808602068006820F0B1
:1008D0000100216808605C492068884252D95A4961
:1008E00078392068884201D1012047E056496439AF
:1008F0002068884201D1102040E0534950392068D7
:10090000884201D1801539E04F493C39206888423E
:1009100001D1801432E04C4928392068884202D144
:100920004FF480302AE0484914392068884202D1C7
:100930004FF4801022E044492068884201D14004ED
:100940001CE042492068884201D1012016E03F495D
:1009500014312068884201D110200FE03B49283132
:100960002068884201D1801508E038493C31206870
:10097000884201D1801401E04FF480303349091FCF
:10098000086051E0304978392068884201D101205F
:1009900047E02D4964392068884201D1102040E0A9
:1009A000294950392068884201D1801539E026490B
:1009B0003C392068884201D1801432E0224928392C
:1009C0002068884202D14FF480302AE01E49143951
:1009D0002068884202D14FF4801022E01A49206832
:1009E000884201D140041CE018492068884201D1A6
:1009F000012016E0154914312068884201D11020E9
:100A00000FE0124928312068884201D1801508E0A2
:100A10000E493C312068884201D1801401E04FF436
:100A20008030094980394860012084F8210000BFE6
:100A3000002084F8200000BF606B10B12046616B7D
:100A40008847284670BD000080000240080402402C
:100A5000014609B9012070470868006820F00100CC
:100A60000A68106000200A6810600A6850600A680E
:100A700090600A68D060174A086890420BD2164A04
:100A80000868801A1422B0FBF2F080000864124853
:100A90000838C8630AE00F4A0868801A1422B0FBBD
:100AA000F2F0800008640B480838C86391F84020D1
:100AB00001209040CA6B506000208862C8620863C1
:100AC0004863886381F8210000BF81F8200000BFDF
:100AD00000BFC0E7080402400800024001460022AF
:100AE00009B9012070471E4B086898420BD21D4B74
:100AF0000868C01A1423B0FBF3F08000086419489A
:100B00000838C8630AE0164B0868C01A1423B0FB03
:100B1000F3F08000086412480838C863022081F8A6
:100B200021000868026843F6F0708243D1E90103AE
:100B30001843CB6818430B6918434B6918438B69FA
:100B40001843CB6918430243086802600020886399
:100B5000012081F82100002081F8200000BFC1E7BA
:100B600008040240080002402DE9F04104460D4609
:100B700016461F464FF0000800BF94F820000128D9
:100B800002D10220BDE8F081012084F8200000BFDE
:100B900094F8210001282CD1022084F821000020A3
:100BA000A0632068006820F00100216808603B46CF
:100BB000324629462046FFF7B9FDE06A30B1206889
:100BC000006840F00E00216808600BE020680068B3
:100BD00020F00400216808602068006840F00A00E6
:100BE000216808602068006840F001002168086002
:100BF00006E000BF002084F8200000BF4FF002088C
:100C00004046BFE72DE9F847024600239C467BE1BA
:100C10004FF0010808FA03F4D1F8008008EA040054
:100C2000A0427DD1DFF8F4A2D1F80480A8EB0A0934
:100C3000D0453AD014DCB8F1030F50D009DCB8F13C
:100C4000000F31D0B8F1010F1CD0B8F1020F49D11B
:100C500020E0B8F1110F18D0B8F1120F42D11EE008
:100C6000B9F5881F25D006DCB9F5803F20D0B9F54D
:100C7000801F37D11AE0B9F5001F18D0B9F5041F4D
:100C800030D117E0D1F80CC02DE0D1F80C8008F17C
:100C9000040C28E0D1F80C8008F1080C23E0D1F80E
:100CA0000C8008F10C0C1EE000BF00BF00BF00BFAD
:100CB00000BF00BFD1F80880B8F1000F02D14FF09B
:100CC000040C0BE0D1F80880B8F1010F03D14FF00C
:100CD000080C146102E04FF0080C546103E04FF07F
:100CE000000C00E000BF00BFFF2801D8904601E0E3
:100CF00002F104084646FF2802D84FEA830803E0C1
:100D0000A3F108084FEA88084746D6F800804FF05C
:100D10000F0909FA07F928EA09080CFA07F900E0AF
:100D20007AE048EA0908C6F80080D1F8048008F0A3
:100D30008058B8F1805F6FD100BFDFF8E481D8F848
:100D4000188048F00108DFF8D891C9F81880C84623
:100D5000D8F8188008F00108CDF8008000BF00BF67
:100D60004FEAB9384FEA930958F829504FEA837887
:100D70004FEA18794FF00F0808FA09F825EA080534
:100D8000DFF8A081424502D14FF0000824E0DFF8EF
:100D90009881424502D14FF001081DE0DFF88C81B7
:100DA000424502D14FF0020816E0DFF88481424547
:100DB00002D14FF003080FE0DFF87881424502D1FD
:100DC0004FF0040808E0DFF87081424502D14FF08F
:100DD000050801E04FF006084FEA83794FEA1979D8
:100DE00008FA09F848EA0505DFF850814FEA930947
:100DF00048F82950D1F8048008F48038B8F5803FCD
:100E00000BD1DFF83C81D8F8008048EA0008DFF811
:100E10003091C9F800800AE075E0DFF82481D8F845
:100E2000008028EA0008DFF81891C9F80080D1F89E
:100E3000048008F40038B8F5003F0ED1DFF80081D7
:100E400008F10408D8F8008048EA0008DFF8F090BC
:100E500009F10409C9F800800DE0DFF8E48008F129
:100E60000408D8F8008028EA0008DFF8D49009F1D7
:100E70000409C9F80080D1F8048008F48018B8F596
:100E8000801F0ED1DFF8B88008F10808D8F800807C
:100E900048EA0008DFF8A89009F10809C9F80080BD
:100EA0000DE0DFF89C8008F10808D8F8008028EAF7
:100EB0000008DFF88C9009F10809C9F80080D1F822
:100EC000048008F40018B8F5001F0ED1DFF8708018
:100ED00008F10C08D8F8008048EA0008DFF86090B4
:100EE00009F10C09C9F800800DE0DFF8548008F121
:100EF0000C08D8F8008028EA0008DFF8449009F1CF
:100F00000C09C9F800805B1CD1F8008028FA03F8AE
:100F1000B8F1000F7FF47CAEBDE8F8870000111037
:100F20000010024000080140000C01400010014088
:100F30000014014000180140001C0140080001405D
:100F400000040140024693680B400BB1012000E011
:100F5000002070470AB1016101E00B040361704792
:100F60000148006870470000040000200348006842
:100F700003490978084401490860704704000020CB
:100F80000C00002010B50848006840F01000064929
:100F90000860052000F080F80F2000F007F800F04E
:100FA0002BF8002010BD00000020024070B5044660
:100FB0000E4800784FF47A71B1FBF0F00C490968E3
:100FC000B1FBF0F5284600F085FC08B1012070BDAA
:100FD000102C07D200222146501E00F01EF80548B2
:100FE000046001E00120F2E70020F0E70C0000209F
:100FF0000000002008000020704701460846002835
:1010000009DB00F01F0301229A4043099B0003F112
:10101000E023C3F8002100BF70472DE9F05F804650
:101020000D461646002704F0DFF9074639462A46E2
:10103000334601F00700C0F1070ABAF1040F02D9E4
:101040004FF0040A01E0C0F1070AD14600F1040A9A
:10105000BAF1070F02D24FF0000A01E0A0F1030A33
:10106000D4464FF0010A0AFA09FAAAF1010A0AEA7B
:10107000020A0AFA0CFA4FF0010B0BFA0CFBABF167
:10108000010B0BEA030B4AEA0B042146404604F02D
:10109000B3F9BDE8F09F000000BF00F00702064B67
:1010A00019684FF6FF031940044B0B4343EA022132
:1010B000014B196000BF70470CED00E00000FA051D
:1010C00070B504460D460CB9012070BD5A48006841
:1010D00000F00700A8420ED25748006820F0070031
:1010E0002843554908600846006800F00700A842F8
:1010F00001D00120E9E7207800F0020002281DD18C
:10110000207800F00400042805D14C48406840F4E1
:10111000E0604A494860207800F00800082805D1BE
:101120004648406840F4605044494860434840683D
:1011300020F0F000A168084340494860207800F0A2
:10114000010078B36068012806D13C48006800F4CB
:10115000003090B90120B8E76068022806D137480E
:10116000006800F0007040B90120AEE73348006825
:1011700000F0020008B90120A7E73048406820F0DD
:101180000300616808432D494860FFF7E9FE064601
:1011900009E0FFF7E5FE801B41F28831884202D961
:1011A000032092E707E02548406800F00C006168E2
:1011B000B0EB810FEDD12048006800F00700A84295
:1011C0000ED91D48006820F0070028431A4908601E
:1011D0000846006800F00700A84201D0012074E72B
:1011E000207800F00400042807D11448406820F457
:1011F000E060E168084311494860207800F0080089
:10120000082808D10D48406820F46050216940EA60
:10121000C1000A49486000F03FF808494968C1F335
:101220000311074A515CC840064908600648006837
:10123000FFF7BCFE002048E70020024000100240FB
:101240000471000800000020080000200148006828
:10125000704700000000002000B5FFF7F7FF0449C9
:101260004968C1F30221034A515CC84000BD000037
:10127000001002401471000800B5FFF7E7FF0449B1
:101280004968C1F3C221034A515CC84000BD000057
:101290000010024014710008F0B585B00FF26C0C1C
:1012A0009CE8E01001A8A0E8E0101CA52D680095BE
:1012B00000210022002300240020194D696801F05C
:1012C0000C05F5B1042D02D0082D19D101E0154807
:1012D00019E001ADC1F38346AC5D01F4803555B131
:1012E0000F4D6D68C5F340451DF805200D4D654354
:1012F000B5FBF2F302E00C4D04FB05F3184602E0E7
:1013000000BF084800BF00BF05B0F0BD02030405E0
:10131000060708090A0B0C0D0E0F10100102000041
:101320000010024000127A0000093D00F8B50446A2
:101330000CB90120F8BD207800F00100002878D019
:10134000F848406800F00C0004280CD0F5484068CC
:1013500000F00C00082811D1F248406800F48030F9
:10136000B0F5803F0AD1EF48006800F40030002853
:101370005FD0606800285CD10120DBE700BF6068B7
:10138000B0F5803F06D1E748006840F48030E54979
:10139000086028E0606858B9E248006820F48030AE
:1013A000E04908600846006820F4802008601AE0E0
:1013B0006068B0F5A02F0BD1DA48006840F48020B7
:1013C000D84908600846006840F4803008600AE0A8
:1013D000D448006820F48030D2490860084600688C
:1013E00020F48020086000BF606888B1FFF7B8FD76
:1013F000054606E0FFF7B4FD401B642801D9032031
:1014000098E7C848006800F400300028F2D010E0E7
:10141000FFF7A6FD054606E0FFF7A2FD401B642886
:1014200001D9032086E7BF48006800F40030002897
:10143000F2D1207800F00200022857D1B948406864
:1014400000F00C0050B1B748406800F00C000828CC
:1014500018D1B448406800F4803098B9B1480068A9
:1014600000F0020020B12069012801D0012061E7CD
:10147000AC48006820F0F800616940EAC100A94961
:10148000086033E02069E8B10120A7490860FFF750
:1014900067FD054606E0FFF763FD401B022801D902
:1014A000032047E79F48006800F002000028F2D0C0
:1014B0009C48006820F0F800616940EAC100994941
:1014C000086013E0002098490860FFF749FD0546D1
:1014D00006E0FFF745FD401B022801D9032029E75C
:1014E0009048006800F002000028F2D1207800F057
:1014F000080008282DD1A069B8B101208B490860E7
:10150000FFF72EFD054606E0FFF72AFD401B0228E7
:1015100001D903200EE78348406A00F0020000284A
:10152000F2D0012003F05AFC13E000207F4908604C
:10153000FFF716FD054606E0FFF712FD401B0228E7
:1015400001D90320F6E67748406A00F0020000283F
:10155000F2D1207800F00400042873D100277148EC
:10156000C06900F0805070B900BF6E48C06940F09B
:1015700080506C49C8610846C06900F080500090F6
:1015800000BF00BF01276A48006800F48070B0B94E
:101590006748006840F4807065490860FFF7E0FC28
:1015A000054606E0FFF7DCFC401B642801D9032058
:1015B000C0E65F48006800F480700028F2D000BFE9
:1015C000E068012806D15748006A40F001005549FB
:1015D000086227E0E06858B95248006A20F001002C
:1015E000504908620846006A20F00400086219E0C9
:1015F000E06805280BD14B48006A40F004004949D7
:1016000008620846006A40F0010008620AE04548A6
:10161000006A20F00100434908620846006A20F091
:101620000400086200BFE068A0B1FFF799FC05461E
:1016300009E0FFF795FC401B41F28831884202D94E
:10164000032077E622E03748006A00F00200002815
:10165000EFD012E0FFF784FC054608E0FFF780FCBE
:10166000401B41F28831884201D9032062E62D48AF
:10167000006A00F002000028F0D1012F05D12948AE
:10168000C06920F080502749C86100BFE069C8B335
:101690002448406800F00C00082860D0E069022867
:1016A00048D1002020490866FFF75AFC054606E0AD
:1016B000FFF756FC401B022801D903203AE61948DF
:1016C000006800F000700028F2D1206AB0F5803F79
:1016D00007D11448406820F40030A168084311493C
:1016E0004860D4E9080108430E49496821F474119F
:1016F00008430C49486001200B490866FFF730FC9D
:10170000054607E03DE0FFF72BFC401B022801D90E
:1017100003200FE60348006800F000700028F2D0B4
:101720002FE00000001002400000424280044242CC
:1017300000700040002014490866FFF711FC0546C0
:1017400006E0FFF70DFC401B022801D90320F1E55C
:101750000E48006800F000700028F2D111E0E06946
:10176000012800D1E6E50948466806F48031206A80
:10177000814204D106F47011606A814201D00120D7
:10178000D8E50020D6E500000000424200100240EB
:1017900070B504460E4615460CB9012070BD94F88C
:1017A000410028B9002084F84000204600F020F8CD
:1017B00004F108012068FEF7F3FF3146A2682068B3
:1017C000FFF726F82946236BD4E90102FEF7C6FF8E
:1017D000A168206850F8210040F00100A26821684B
:1017E00041F82200012084F841000020D6E70000E3
:1017F00010B586B0044600BF2848406940F48070A8
:10180000264948610846406900F48070019000BF95
:1018100000BF00BF0846806940F02000886108468C
:10182000806900F02000019000BF00BF00BF0846A3
:10183000806940F0400088610846806900F04000FF
:10184000019000BF00BF00BF0846806940F480706F
:1018500088610846806900F48070019000BF00BF75
:101860004CF2337002900220039001200490032078
:10187000059002A90A48FFF7C5F94FF6807002905B
:1018800002A90848FFF7BEF941F20100029002A93F
:101890000548FFF7B7F906B010BD00000010024080
:1018A000001401400018014000200140042808D124
:1018B0004FF0E021096941F004014FF0E02211618D
:1018C00007E04FF0E021096921F004014FF0E02228
:1018D0001161704770B504462546681EB0F1807FDF
:1018E00001D301200FE0681E4FF0E02148610F2175
:1018F0004FF0FF3003F080FD00204FF0E0218861C1
:1019000007200861002070BD10B504460CB9012005
:1019100010BD94F83D0028B9002084F83C00204612
:1019200000F00CF8022084F83D00211D206803F02F
:10193000E7FA012084F83D000020E9E770470146FE
:101940000868C06840F001000B68D86008688068CB
:1019500000F00702062A05D00868006840F0010080
:101960000B6818600020704770B504460025206899
:101970004069C0F3C01594F8390021280ED16DB12B
:101980002068406920F0800021684861206B10B118
:10199000206BFEF75EFF204603F0A2FB2068406943
:1019A000C0F3801594F83A0022280ED16DB120685A
:1019B000406920F0400021684861606B10B1606BA5
:1019C000FEF747FF204603F06BFB002070BD704719
:1019D00001460022002391F8392091F83A3042EA7A
:1019E000030070472DE9F047044620680568206829
:1019F000C668206847694FF00008C14605F00F0827
:101A0000B8F1000F0AD105F0200038B106F020002F
:101A100020B1204603F06EFBBDE8F087B8F1000F5F
:101A20006DD007F0010018B906F49070002866D058
:101A300005F0010030B106F4807018B1E06B40F0A1
:101A40000100E06305F0040030B107F0010018B1B7
:101A5000E06B40F00200E06305F0020030B107F0F7
:101A6000010018B1E06B40F00400E06305F00800ED
:101A700030B107F0010018B1E06B40F00800E063FE
:101A8000E06B68B305F0200028B106F0200010B12B
:101A9000204603F02FFB20684069C0F38019E06BFB
:101AA00000F0080010B9B9F1000F22D0204603F071
:101AB000F7FA2068406900F04000B0B12068406942
:101AC00020F0400021684861606B50B11748616B9D
:101AD0004863606BFEF7E8FE10B1606B416B8847AE
:101AE0000CE02046FFF773FF08E02046FFF76FFF8A
:101AF00004E02046FFF76BFF0020E0638CE705F071
:101B0000800030B106F0800018B1204603F016FCCA
:101B100082E705F0400030B106F0400018B12046E1
:101B200003F0CEFA78E700BF76E70000F94F00082F
:101B300010B504460CB9012010BDA06900B100E049
:101B400000BF94F8390028B9002084F838002046F6
:101B500000F028F8242084F839002068C06820F4B8
:101B600000502168C860204603F018FB2068006917
:101B700020F49040216808612068406920F02A0024
:101B8000216848612068C06840F400502168C8603E
:101B90000020E063202084F8390084F83A00002017
:101BA000CAE7000010B586B004462549206888427F
:101BB00044D100BF2348806940F004002149886176
:101BC0000846806900F00400019000BF00BF00BF1C
:101BD0000846806940F4804088610846806900F4C6
:101BE0008040019000BF00BF00BF0846806940F000
:101BF000010088610846806900F00100019000BF83
:101C000000BF481502900220039001200490032099
:101C1000059002A90C48FEF7F5FF4FF48060029092
:101C20000020039002A90848FEF7ECFF2520FFF7EB
:101C3000E4F9032211462520FFF7EFF906B010BDA5
:101C400000380140001002400008014010B5034672
:101C500093F83A0020282FD101B10AB9012010BD14
:101C600000BF93F83800012801D10220F7E70120D6
:101C700083F8380000BF99629A85DA850020D8631E
:101C8000222083F83A0000BF002083F8380000BF0C
:101C90001868C06840F480701C68E060186840698B
:101CA00040F001001C6860611868C06840F02000C6
:101CB0001C68E0600020D2E70220D0E71D4A0168DE
:101CC000914236D11C49098801F4004189BB1A4967
:101CD000098801F4804171B1184909780A2903D0B3
:101CE0000021154A118024E01349098841F400417C
:101CF000114A11801DE0114909780D2906D10E49BC
:101D0000098841F480410C4A118012E00B4909789E
:101D1000094A1288C2F30D02094B995406490988F1
:101D2000491C054A118011460988C72901DD002197
:101D30001180704700380140180000201A00002070
:101D400060210020F7B50446154694F83900202894
:101D50003DD1019800B10DB90120FEBD00BF94F83E
:101D60003800012801D10220F7E7012084F838006B
:101D700000BF01982062A584E5840020E063212053
:101D800084F839001348216B88621348216BC862BC
:101D90001248216B08630020216B486301AE236861
:101DA0001A1D31682B46206BFEF7DEFE6FF04000F7
:101DB0002168086000BF002084F8380000BF206858
:101DC000406940F08000216848610020C5E702209A
:101DD000C3E700005D500008935000080D50000854
:101DE0007047704700BFFEE700B585B000BF1A48D6
:101DF000806940F00400184988610846806900F055
:101E00000400009000BF00BF00BF0846806940F09A
:101E1000400088610846806900F04000009000BFE3
:101E200000BF0120019000200290022003900320B7
:101E3000049001A90948FEF7E5FE1C20019000204E
:101E40000290012003900320049001A90448FEF7AA
:101E5000D9FE05B000BD000000100240000801409E
:101E60000018014010B50446012C01D12C4908701E
:101E70002B480078002837D010212A48FFF762F855
:101E800078B108212748FFF75DF850B104212548B3
:101E9000FFF758F828B101212348FFF753F801282C
:101EA00022D10A2003F0D0FA00201D490870102129
:101EB0001C48FFF747F808B9012010BD0821194850
:101EC000FFF740F808B90220F7E704211548FFF7AB
:101ED00039F808B90320F0E701211348FFF732F879
:101EE00001281BD10420E8E710210E48FFF72AF84B
:101EF000012813D108210B48FFF724F801280DD140
:101F000004210848FFF71EF8012807D101210648DF
:101F1000FFF718F810B90120014908700020CCE73C
:101F200024000020001801400008014070B504465C
:101F3000002609480588408845430021084602F0EC
:101F4000F3FC02F0C1FE00BF02E004490C80761CE5
:101F5000AE42FAD370BD0000B02200200008006C31
:101F600010B5044655488471002C51D1F0205349D6
:101F700008804FF4A07048800846808849F24131BB
:101F8000884205D04D48808845F21031884214D1EE
:101F90002C204A4908812A2048812B208881084624
:101FA000808845F21031884206D14FF4A070434931
:101FB00008804FF4F07048807BE04048808845F20C
:101FC0001051884210D14FF430503C4908814FF4F1
:101FD000285048814FF42C5088814FF4F0700880CD
:101FE0004FF44870488064E03448808841F66311BB
:101FF00088425ED12C20314908812B2048812A203B
:1020000088814FF4F07008804FF44870488050E0A9
:102010004FF4A07029490880F02048800846808845
:1020200049F24131884205D02448808845F2103178
:10203000884207D12C20214908812A2048812B2061
:10204000888129E01D48808845F21051884210D1CE
:102050004FF43050194908814FF4285048814FF40B
:102060002C5088814FF4487008804FF4F0704880FD
:1020700012E01248808841F6631188420CD12C206E
:102080000E4908812A2048812B2088814FF448700E
:1020900008804FF4F07048800848808845F210317D
:1020A000884206D14FF4F070044908804FF4A070C4
:1020B0004880002002F0FEFA10BD0000B02200208F
:1020C00030B504460D463E48808849F24131884289
:1020D00005D03B48808845F21031884214D13849F8
:1020E000488902F0E5FD201202F0D6FDE0B202F0D0
:1020F000D3FD3349888902F0DBFD281202F0CCFDC4
:10210000E8B202F0C9FD54E02D48808845F2105134
:10211000884220D12A49488902F0CAFD201202F0E3
:10212000BBFD27494989491C88B202F0C1FDE0B2D4
:1021300002F0B2FD2249888902F0BAFD281202F0AD
:10214000ABFD1F498989491C88B202F0B1FDE8B294
:1021500002F0A2FD2DE01A48808841F66311884202
:1021600027D11748807920B915480088401E001BE8
:1021700084B21349488902F09BFD201202F08CFDC5
:10218000E0B202F089FD201202F086FDE0B202F01A
:1021900083FD0B49888902F08BFD281202F07CFD3B
:1021A000E8B202F079FD281202F076FDE8B202F002
:1021B00073FD0348008903490880891C0A8030BDEB
:1021C000B0220020FE07006C00B593B000BFFE48AF
:1021D000806940F00800FC4988610846806900F089
:1021E0000800009000BF00BF01200F9010901190D8
:1021F000032012900FA9F548FEF704FD4FF0204090
:10220000F3490860F3484860062088600021F048E0
:10221000C16001611021416100218161C1614162A0
:102220004FF4805181620021C1624FF4804101630B
:1022300000214163816306200890002009901A2044
:102240000A9000200E90049003200190002002903C
:10225000062003900020079001AA08A9DC48FFF798
:1022600097FA322003F0F0F8D32002F021FD02F0BB
:10227000EDF9D949888002F0E9F9D749888002F060
:10228000E5F9D5498880084680884FF6FF7101EA54
:102290000020D149888002F0D9F9CF4989880843C4
:1022A000CD4988800846808849F24131884278D0FB
:1022B000D42002F0FDFC02F0C9F9C749888002F081
:1022C000C5F9C549888002F0C1F9C349888008462C
:1022D00080884FF6FF7101EA0020BF49888002F034
:1022E000B5F9BD4989880843BB498880084680887C
:1022F00045F21031884254D04FF45A4002F0D8FCD5
:1023000002F0A4F9B44988804FF45B4002F0D0FC9D
:1023100002F09CF9B0498880084680884FF6FF712A
:1023200001EA0020AC4988804FF45C4002F0C0FC18
:1023300002F08CF9A84989880843A7498880084693
:102340008088B0F5004F02D145F210508880A24835
:10235000808845F21051884223D0A12002F0A8FCC9
:1023600002F074F99C49888002F070F99A498880DB
:10237000084680884FF6FF7101EA00209649888060
:1023800002F064F994498988084393498880084693
:10239000808845F26171884203D141F663108E490D
:1023A00088808D4881888DA0FDF762FF8A488088EB
:1023B00049F2413188427CD1CF2002F079FC0020E3
:1023C00002F06AFCC12002F067FC302002F064FCDD
:1023D000ED2002F06DFC642002F05EFC032002F0B0
:1023E0005BFC122002F058FC812002F055FCE82032
:1023F00002F05EFC852002F04FFC102002F04CFC45
:102400007A2002F049FCCB2002F052FC392002F085
:1024100043FC2C2002F040FC002002F03DFC342064
:1024200002F03AFC022002F037FCF72002F040FCF8
:10243000202002F031FCEA2002F03AFC002002F0F9
:102440002BFC002002F028FCC02002F031FC1B20F5
:1024500002F022FCC12002F02BFC012002F01CFC47
:10246000C52002F025FC302002F016FC302002F0DE
:1024700013FCC72002F01CFCB72002F00DFC362034
:1024800002F016FC482002F007FC3A2002F010FC93
:10249000552002F001FCB12002F00AFC002002F0FD
:1024A000FBFB1A2002F0F8FBB62002F001FC0A2028
:1024B00000E0ACE002F0F0FBA22002F0EDFBF22025
:1024C00002F0F6FB002002F0E7FB262002F0F0FB12
:1024D000012002F0E1FBE02002F0EAFB0F2002F015
:1024E000DBFB2A2002F0D8FB282002F0D5FB0820D5
:1024F00002F0D2FB0E2002F0CFFB082002F0CCFB52
:10250000542002F0C9FBA92002F0C6FB432002F0D0
:10251000C3FB0A2002F0C0FB0F2002F0BDFB00202D
:1025200002F0BAFB002002F0B7FB002002F0B4FB7F
:10253000002002F0B1FBE12002F0BAFB002002F023
:10254000ABFB152002F0A8FB172002F0A5FB07202B
:1025500002F0A2FB112002F09FFB062002F09CFB80
:102560002B2002F099FB562002F096FB3C2002F053
:1025700093FB052002F090FB102002F08DFB0F2052
:1025800002F08AFB3F2002F087FB3F2002F084FB31
:102590000F2002F081FB2B2002F08AFB002002F0CA
:1025A0007BFB002002F078FB012002F075FB3F204E
:1025B00002F072FB2A2002F07BFB002002F06CFB91
:1025C000002002F069FB11E000100240000C014005
:1025D00068220020040100A0B0220020204C4344C7
:1025E0002049443A25780D0A00000000002002F03E
:1025F00053FBEF2002F050FB112002F059FB782032
:1026000002F022FF292002F053FB01F0CBBFFE486D
:10261000808845F21031884240F07C87ED2002F03E
:1026200047FB012002F038FBFE2002F035FBEE20D4
:1026300002F03EFBDE2002F02FFB212002F02CFBFB
:10264000F12002F035FB012002F026FBDF2002F032
:102650002FFB102002F020FBC42002F029FB8F206A
:1026600002F01AFBC62002F023FB002002F014FB4C
:10267000E22002F011FBE22002F00EFBE22002F069
:102680000BFBBF2002F014FBAA2002F005FBB020D8
:1026900002F00EFB0D2002F0FFFA002002F0FCFA1F
:1026A0000D2002F0F9FA002002F0F6FA112002F0F3
:1026B000F3FA002002F0F0FA192002F0EDFA0020FF
:1026C00002F0EAFA212002F0E7FA002002F0E4FA30
:1026D0002D2002F0E1FA002002F0DEFA3D2002F0A7
:1026E000DBFA002002F0D8FA5D2002F0D5FA0020D3
:1026F00002F0D2FA5D2002F0CFFA002002F0CCFA0C
:10270000B12002F0D5FA802002F0C6FA002002F0D3
:10271000C3FA8B2002F0C0FA002002F0BDFA962026
:1027200002F0BAFA002002F0B7FAB22002F0C0FAC2
:10273000002002F0B1FA002002F0AEFA022002F00E
:10274000ABFA002002F0A8FA032002F0A5FA00205C
:1027500002F0A2FAB32002F0ABFA002002F09CFAD9
:10276000002002F099FA002002F096FA002002F010
:1027700093FA002002F090FA002002F08DFA002077
:1027800002F08AFA002002F087FA002002F084FAB0
:10279000002002F081FA002002F07EFA002002F010
:1027A0007BFA002002F078FA002002F075FA00208F
:1027B00002F072FA002002F06FFA002002F06CFAC8
:1027C000002002F069FA002002F066FA002002F010
:1027D00063FA002002F060FA002002F05DFA0020A7
:1027E00002F05AFA002002F057FAB42002F060FA20
:1027F0008B2002F051FA002002F04EFA962002F0EF
:102800004BFA002002F048FAA12002F045FA00201D
:1028100002F042FAB52002F04BFA022002F03CFA34
:10282000002002F039FA032002F036FA002002F00C
:1028300033FA042002F030FA002002F02DFAB6201C
:1028400002F036FA002002F027FA002002F024FA03
:10285000B72002F02DFA002002F01EFA002002F04C
:102860001BFA3F2002F018FA002002F015FA5E2051
:1028700002F012FA002002F00FFA642002F00CFAC3
:10288000002002F009FA8C2002F006FA002002F083
:1028900003FAAC2002F000FA002002F0FDF9DC207F
:1028A00002F0FAF9002002F0F7F9702002F0F4F9D2
:1028B000002002F0F1F9902002F0EEF9002002F081
:1028C000EBF9EB2002F0E8F9002002F0E5F9DC205A
:1028D00002F0E2F9002002F0DFF9B82002F0E8F996
:1028E000002002F0D9F9002002F0D6F9002002F011
:1028F000D3F9002002F0D0F9002002F0CDF9002039
:1029000002F0CAF9002002F0C7F9002002F0C4F971
:10291000BA2002F0CDF9242002F0BEF9002002F026
:10292000BBF9002002F0B8F9002002F0B5F9C1208F
:1029300002F0BEF9202002F0AFF9002002F0ACF95D
:10294000542002F0A9F9002002F0A6F9FF2002F0BD
:10295000A3F9002002F0A0F9C22002F0A9F90A2090
:1029600002F09AF9002002F097F9042002F094F99D
:10297000002002F091F9C32002F09AF93C2002F005
:102980008BF9002002F088F93A2002F085F9002046
:1029900002F082F9392002F07FF9002002F07CF980
:1029A000372002F079F9002002F076F93C2002F09D
:1029B00073F9002002F070F9362002F06DF9002062
:1029C00002F06AF9322002F067F9002002F064F99F
:1029D0002F2002F061F9002002F05EF92C2002F0B5
:1029E0005BF9002002F058F9292002F055F9002087
:1029F00002F052F9262002F04FF9002002F04CF9C3
:102A0000242002F049F901E0B0220020002002F069
:102A100043F9242002F040F9002002F03DF9232080
:102A200002F03AF9002002F037F93C2002F034F9C4
:102A3000002002F031F9362002F02EF9002002F0D9
:102A40002BF9322002F028F9002002F025F92F207E
:102A500002F022F9002002F01FF92C2002F01CF9EC
:102A6000002002F019F9292002F016F9002002F0E6
:102A700013F9262002F010F9002002F00DF92420AD
:102A800002F00AF9002002F007F9242002F004F90C
:102A9000002002F001F9232002F0FEF8002002F0ED
:102AA000FBF8C42002F004F9622002F0F5F80020DF
:102AB00002F0F2F8052002F0EFF8002002F0ECF846
:102AC000842002F0E9F8002002F0E6F8F02002F09D
:102AD000E3F8002002F0E0F8182002F0DDF8002012
:102AE00002F0DAF8A42002F0D7F8002002F0D4F8BF
:102AF000182002F0D1F8002002F0CEF8502002F0A9
:102B0000CBF8002002F0C8F80C2002F0C5F8002035
:102B100002F0C2F8172002F0BFF8002002F0BCF863
:102B2000952002F0B9F8002002F0B6F8F32002F088
:102B3000B3F8002002F0B0F8E62002F0ADF8002073
:102B400002F0AAF8C52002F0B3F8322002F0A4F88F
:102B5000002002F0A1F8442002F09EF8002002F0CC
:102B60009BF8652002F098F8002002F095F8762096
:102B700002F092F8002002F08FF8882002F08CF822
:102B8000002002F089F8C62002F092F8202002F01E
:102B900083F8002002F080F8172002F07DF8002072
:102BA00002F07AF8012002F077F8002002F074F8C1
:102BB000C72002F07DF8002002F06EF8002002F03D
:102BC0006BF8002002F068F8002002F065F8C820D9
:102BD00002F06EF8002002F05FF8002002F05CF8CE
:102BE000002002F059F8002002F056F8C92002F047
:102BF0005FF8002002F050F8002002F04DF80020AD
:102C000002F04AF8002002F047F8002002F044F8F1
:102C1000002002F041F8002002F03EF8002002F00F
:102C20003BF8002002F038F8002002F035F80020D0
:102C300002F032F8002002F02FF8002002F02CF809
:102C4000002002F029F8002002F026F8002002F00F
:102C500023F8E02002F02CF8162002F01DF80020E6
:102C600002F01AF81C2002F017F8002002F014F805
:102C7000212002F011F8002002F00EF8362002F0B8
:102C80000BF8002002F008F8462002F005F80020BA
:102C900002F002F8522001F0FFFF002001F0FCFFDB
:102CA000642001F0F9FF002001F0F6FF7A2001F026
:102CB000F3FF002001F0F0FF8B2001F0EDFF00207A
:102CC00001F0EAFF992001F0E7FF002001F0E4FFA6
:102CD000A82001F0E1FF002001F0DEFFB92001F0A3
:102CE000DBFF002001F0D8FFC42001F0D5FF002059
:102CF00001F0D2FFCA2001F0CFFF002001F0CCFF8D
:102D0000D22001F0C9FF002001F0C6FFD92001F058
:102D1000C3FF002001F0C0FFE02001F0BDFF002054
:102D200001F0BAFFF32001F0B7FF002001F0B4FF7B
:102D3000E12001F0BDFF162001F0AEFF002001F000
:102D4000ABFF1C2001F0A8FF002001F0A5FF22200E
:102D500001F0A2FF002001F09FFF362001F09CFF50
:102D6000002001F099FF452001F096FF002001F0BE
:102D700093FF522001F090FF002001F08DFF6420AE
:102D800001F08AFF002001F087FF7A2001F084FF24
:102D9000002001F081FF8B2001F07EFF002001F078
:102DA0007BFF992001F078FF002001F075FFA8203B
:102DB00001F072FF002001F06FFFB92001F06CFFFD
:102DC000002001F069FFC42001F066FF002001F03F
:102DD00063FFCA2001F060FF002001F05DFFD220F8
:102DE00001F05AFF002001F057FFD82001F054FFF6
:102DF000002001F051FFE02001F04EFF002001F023
:102E00004BFFF32001F048FF002001F045FFE220D6
:102E100001F04EFF052001F03FFF002001F03CFFD4
:102E20000B2001F039FF002001F036FF1B2001F0DC
:102E300033FF002001F030FF342001F02DFF00208F
:102E400001F02AFF442001F027FF002001F024FFB9
:102E50004F2001F021FF002001F01EFF612001F052
:102E60001BFF002001F018FF792001F015FF002062
:102E700001F012FF882001F00FFF002001F00CFF8D
:102E8000972001F009FF002001F006FFA62001F0C5
:102E900003FF002001F000FFB72001F0FDFE00203D
:102EA00001F0FAFEC22001F0F7FE002001F0F4FE6E
:102EB000C72001F0F1FE002001F0EEFED12001F06C
:102EC000EBFE002001F0E8FED62001F0E5FE002038
:102ED00001F0E2FEDD2001F0DFFE002001F0DCFE6B
:102EE000F32001F0D9FE002001F0D6FEE32001F02E
:102EF000DFFE052001F0D0FE002001F0CDFE0A200B
:102F000001F0CAFE002001F0C7FE1C2001F0C4FE43
:102F1000002001F0C1FE332001F0BEFE002001F0D0
:102F2000BBFE442001F0B8FE002001F0B5FE5020A9
:102F300001F0B2FE002001F0AFFE622001F0ACFE15
:102F4000002001F0A9FE782001F0A6FE002001F08B
:102F5000A3FE882001F0A0FE002001F09DFE972036
:102F600001F09AFE002001F097FEA62001F094FEE9
:102F7000002001F091FEB72001F08EFE002001F04C
:102F80008BFEC22001F088FE002001F085FEC720E4
:102F900001F082FE002001F07FFED12001F07CFED6
:102FA000002001F079FED52001F076FE002001F02E
:102FB00073FEDD2001F070FE002001F06DFEF320B5
:102FC00001F06AFE002001F067FEE42001F070FECF
:102FD000012001F061FE002001F05EFE012001F001
:102FE0005BFE002001F058FE022001F055FE00209B
:102FF00001F052FE2A2001F04FFE002001F04CFEAD
:103000003C2001F049FE002001F046FE4B2001F07B
:1030100043FE002001F040FE5D2001F03DFE002057
:1030200001F03AFE742001F037FE002001F034FE7A
:10303000842001F031FE002001F02EFE932001F0EB
:103040002BFE002001F028FEA22001F025FE00202A
:1030500001F022FEB32001F01FFE002001F01CFE53
:10306000BE2001F019FE002001F016FEC42001F080
:1030700013FE002001F010FECD2001F00DFE002017
:1030800001F00AFED32001F007FE002001F004FE4B
:10309000DD2001F001FE002001F0FEFDF32001F033
:1030A000FBFD002001F0F8FDE52001F001FE00200D
:1030B00001F0F2FD002001F0EFFD002001F0ECFD39
:1030C000002001F0E9FD022001F0E6FD002001F002
:1030D000E3FD292001F0E0FD002001F0DDFD3C20B2
:1030E00001F0DAFD002001F0D7FD4B2001F0D4FD06
:1030F000002001F0D1FD5D2001F0CEFD002001F0A7
:10310000CBFD742001F0C8FD002001F0C5FD842036
:1031100001F0C2FD002001F0BFFD932001F0BCFDD5
:10312000002001F0B9FDA22001F0B6FD002001F061
:10313000B3FDB32001F0B0FD002001F0ADFDBE20D5
:1031400001F0AAFD002001F0A7FDC42001F0A4FDBC
:10315000002001F0A1FDCD2001F09EFD002001F036
:103160009BFDD32001F098FD002001F095FDDC20AF
:1031700001F092FD002001F08FFDF32001F08CFDA5
:10318000002001F089FDE62001F092FD112001F000
:1031900083FD002001F080FD342001F07DFD002042
:1031A00001F07AFD562001F077FD002001F074FD5A
:1031B000762001F071FD002001F06EFD772001F016
:1031C0006BFD002001F068FD662001F065FD002028
:1031D00001F062FD882001F05FFD002001F05CFD40
:1031E000992001F059FD002001F056FDBB2001F0AF
:1031F00053FD002001F050FD992001F04DFD00200D
:1032000001F04AFD662001F047FD002001F044FD79
:10321000552001F041FD002001F03EFD552001F058
:103220003BFD002001F038FD452001F035FD002078
:1032300001F032FD432001F02FFD002001F02CFDB4
:10324000442001F029FD002001F026FDE72001F0D7
:103250002FFD322001F020FD002001F01DFD552042
:1032600001F01AFD002001F017FD762001F014FD99
:10327000002001F011FD662001F00EFD002001F09C
:103280000BFD672001F008FD002001F005FD67201F
:1032900001F002FD002001F0FFFC872001F0FCFCA2
:1032A000002001F0F9FC992001F0F6FC002001F06B
:1032B000F3FCBB2001F0F0FC002001F0EDFC9920B4
:1032C00001F0EAFC002001F0E7FC772001F0E4FCCB
:1032D000002001F0E1FC442001F0DEFC002001F0C0
:1032E000DBFC562001F0D8FC002001F0D5FC2320A7
:1032F00001F0D2FC002001F0CFFC332001F0CCFC27
:10330000002001F0C9FC452001F0C6FC002001F0BE
:10331000C3FCE82001F0CCFC002001F0BDFC002043
:1033200001F0BAFC992001F0B7FC002001F0B4FCD8
:10333000872001F0B1FC002001F0AEFC882001F0F4
:10334000ABFC002001F0A8FC772001F0A5FC0020D8
:1033500001F0A2FC662001F09FFC002001F09CFC23
:10336000882001F099FC002001F096FCAA2001F0D1
:1033700093FC002001F090FCBB2001F08DFC0020AC
:1033800001F08AFC992001F087FC002001F084FC08
:10339000662001F081FC002001F07EFC552001F048
:1033A0007BFC002001F078FC552001F075FC00202A
:1033B00001F072FC442001F06FFC002001F06CFC75
:1033C000442001F069FC002001F066FC552001F06A
:1033D00063FC002001F060FCE92001F069FCAA20F8
:1033E00001F05AFC002001F057FC002001F054FCD1
:1033F000002001F051FC002001F05AFCAA2001F04D
:103400004BFCCF2001F054FC002001F045FC0020D3
:1034100001F042FC002001F03FFC002001F03CFCE8
:10342000002001F039FC002001F036FC002001F002
:1034300033FC002001F030FC002001F02DFC0020C6
:1034400001F02AFC002001F027FC002001F024FC00
:10345000002001F021FC002001F01EFC002001F002
:103460001BFC002001F018FC002001F015FCF020EE
:1034700001F01EFC002001F00FFC502001F00CFCBC
:10348000002001F009FC002001F006FC002001F002
:1034900003FCF32001F00CFC002001F0FDFBF920FF
:1034A00001F006FC062001F0F7FB102001F0F4FB10
:1034B000292001F0F1FB002001F0EEFB3A2001F0A1
:1034C000F7FB552001F0E8FB112001F0F1FB64202F
:1034D00001F0BAFF292001F0EBFB352001F0E8FBF9
:1034E000002001F0D9FB512001F0E2FBFF2001F0A8
:1034F000D3FB532001F0DCFB2C2001F0CDFB552049
:1035000001F0D6FB822001F0C7FB2C2001F0D0FB9C
:1035100001F048B8FE48808845F2105188427DD1BC
:1035200055214FF4704001F0D9FBAA214FF2010060
:1035300001F0D4FB52214FF2020001F0CFFB082131
:103540004FF2030001F0CAFB01214FF2040001F029
:10355000C5FB0D214FF4304001F0C0FB0D214BF2B3
:10356000010001F0BBFB0D214BF2020001F0B6FBA4
:1035700034214FF4364001F0B1FB34214BF20160AD
:1035800001F0ACFB34214BF2026001F0A7FB0D21EE
:103590004FF4314001F0A2FB0D214BF2011001F07C
:1035A0009DFB0D214BF2021001F098FB34214FF4EA
:1035B000374001F093FB34214BF2017001F08EFB98
:1035C00034214BF2027001F089FB00214FF43240AC
:1035D00001F084FB00214BF2012001F07FFB002170
:1035E0004BF2022001F07AFB24214FF4384001F025
:1035F00075FB24214BF6010001F070FB24214BF6F2
:10360000020001F06BFB01214FF43F4001F066FB2B
:103610000F214FF4334001F061FB00E0FDE30F2187
:103620004BF2013001F05AFB0F214BF2023001F056
:1036300055FB34214FF4394001F050FB34214BF657
:10364000011001F04BFB34214BF6021001F046FB58
:1036500008214FF4354001F041FB08214BF20150A5
:1036600001F03CFB08214BF2025001F037FB032133
:103670004FF4424001F032FB24214FF43A4001F074
:103680002DFB24214BF6012001F028FB24214BF6D1
:10369000022001F023FB00214FF43C4001F01EFB0F
:1036A00078214BF6014001F019FB00214BF6024056
:1036B00001F014FB00214FF43D4001F00FFB782195
:1036C0004BF6015001F00AFB00214BF6025001F0CD
:1036D00005FB00214FF43E4001F000FB64214BF656
:1036E000016001F0FBFA00214FF4514001F0F6FABD
:1036F00033214DF2011001F0F1FA00214DF20210D8
:1037000001F0ECFA34214DF2031001F0E7FA002148
:103710004DF2041001F0E2FA3A214DF2051001F0E9
:10372000DDFA00214DF2061001F0D8FA4A214DF2DF
:10373000071001F0D3FA00214DF2081001F0CEFA83
:103740005C214DF2091001F0C9FA00214DF20A1076
:1037500001F0C4FA81214DF20B1001F0BFFA0021F3
:103760004DF20C1001F0BAFAA6214DF20D1001F045
:10377000B5FA00214DF20E1001F0B0FAE5214DF23C
:103780000F1001F0ABFA01214DF2101001F0A6FA72
:1037900013214DF2111001F0A1FA01214DF2121086
:1037A00001F09CFA54214DF2131001F097FA012117
:1037B0004DF2141001F092FA82214DF2151001F031
:1037C0008DFA01214DF2161001F088FACA214DF24E
:1037D000171001F083FA02214DF2181001F07EFA61
:1037E00000214DF2191001F079FA02214DF21A1060
:1037F00001F074FA01214DF21B1001F06FFA022161
:103800004DF21C1001F06AFA34214DF21D1001F046
:1038100065FA02214DF21E1001F060FA67214DF2A7
:103820001F1001F05BFA02214DF2201001F056FA50
:1038300084214DF2211001F051FA02214DF22210A3
:1038400001F04CFAA4214DF2231001F047FA0221B5
:103850004DF2241001F042FAB7214DF2251001F08B
:103860003DFA02214DF2261001F038FACF214DF237
:10387000271001F033FA02214DF2281001F02EFA40
:10388000DE214DF2291001F029FA02214DF22A1011
:1038900001F024FAF2214DF22B1001F01FFA02215F
:1038A0004DF22C1001F01AFAFE214DF22D1001F00C
:1038B00015FA03214DF22E1001F010FA10214DF2ED
:1038C0002F1001F00BFA03214DF2301001F006FA2F
:1038D00033214DF2311001F001FA03214DF2321083
:1038E00001F0FCF96D214DF2331001F0F7F90021E0
:1038F0004FF4524001F0F2F933214DF2012001F072
:10390000EDF900214DF2022001F0E8F9342101E047
:10391000B02200204DF2032001F0E0F900214DF229
:10392000042001F0DBF93A214DF2052001F0D6F92F
:1039300000214DF2062001F0D1F94A214DF2072075
:1039400001F0CCF900214DF2082001F0C7F95C210B
:103950004DF2092001F0C2F900214DF20A2001F0D8
:10396000BDF981214DF20B2001F0B8F900214DF293
:103970000C2001F0B3F9A6214DF20D2001F0AEF9B3
:1039800000214DF20E2001F0A9F9E5214DF20F20A2
:1039900001F0A4F901214DF2102001F09FF913214B
:1039A0004DF2112001F09AF901214DF2122001F09F
:1039B00095F954214DF2132001F090F901214DF2B7
:1039C000142001F08BF982214DF2152001F086F9C7
:1039D00001214DF2162001F081F9CA214DF2172084
:1039E00001F07CF902214DF2182001F077F9002155
:1039F0004DF2192001F072F902214DF21A2001F066
:103A00006DF901214DF21B2001F068F902214DF200
:103A10001C2001F063F934214DF21D2001F05EF904
:103A200002214DF21E2001F059F967214DF21F20AD
:103A300001F054F902214DF2202001F04FF98421C8
:103A40004DF2212001F04AF902214DF2222001F02D
:103A500045F9A4214DF2232001F040F902214DF255
:103A6000242001F03BF9B7214DF2252001F036F971
:103A700002214DF2262001F031F9CF214DF227200D
:103A800001F02CF902214DF2282001F027F9DE2166
:103A90004DF2292001F022F902214DF22A2001F0F5
:103AA0001DF9F2214DF22B2001F018F902214DF2FF
:103AB0002C2001F013F9FE214DF22D2001F00EF91A
:103AC00003214DF22E2001F009F910214DF22F2093
:103AD00001F004F903214DF2302001F0FFF8332109
:103AE0004DF2312001F0FAF803214DF2322001F0BD
:103AF000F5F86D214DF2332001F0F0F800214FF47C
:103B0000534001F0EBF833214DF2013001F0E6F8BB
:103B100000214DF2023001F0E1F834214DF2033082
:103B200001F0DCF800214DF2043001F0D7F83A2121
:103B30004DF2053001F0D2F800214DF2063001F0CF
:103B4000CDF84A214DF2073001F0C8F800214DF2BE
:103B5000083001F0C3F85C214DF2093001F0BEF8E5
:103B600000214DF20A3001F0B9F881214DF20B30FD
:103B700001F0B4F800214DF20C3001F0AFF8A621AD
:103B80004DF20D3001F0AAF800214DF20E3001F097
:103B9000A5F8E5214DF20F3001F0A0F801214DF21A
:103BA000103001F09BF813214DF2113001F096F81E
:103BB00001214DF2123001F091F854214DF21330F1
:103BC00001F08CF801214DF2143001F087F88221C8
:103BD0004DF2153001F082F801214DF2163001F05E
:103BE0007DF8CA214DF2173001F078F802214DF22C
:103BF000183001F073F800214DF2193001F06EF821
:103C000002214DF21A3001F069F801214DF21B300A
:103C100001F064F802214DF21C3001F05FF834210C
:103C20004DF21D3001F05AF802214DF21E3001F024
:103C300055F867214DF21F3001F050F802214DF286
:103C4000203001F04BF884214DF2213001F046F88C
:103C500002214DF2223001F041F8A4214DF223302F
:103C600001F03CF802214DF2243001F037F8B72181
:103C70004DF2253001F032F802214DF2263001F0EC
:103C80002DF8CF214DF2273001F028F802214DF216
:103C9000283001F023F8DE214DF2293001F01EF822
:103CA00002214DF22A3001F019F8F2214DF22B30A9
:103CB00001F014F802214DF22C3001F00FF8FE2132
:103CC0004DF22D3001F00AF803214DF22E3001F0B3
:103CD00005F810214DF22F3001F000F803214DF2CC
:103CE000303000F0FBFF33214DF2313000F0F6FFB1
:103CF00003214DF2323000F0F1FF6D214DF23330EF
:103D000000F0ECFF00214FF4544000F0E7FF3321B6
:103D10004DF2014000F0E2FF00214DF2024000F0C0
:103D2000DDFF34214DF2034000F0D8FF00214DF2B9
:103D3000044000F0D3FF3A214DF2054000F0CEFFE1
:103D400000214DF2064000F0C9FF4A214DF2074024
:103D500000F0C4FF00214DF2084000F0BFFF5C21DD
:103D60004DF2094000F0BAFF00214DF20A4000F088
:103D7000B5FF81214DF20B4000F0B0FF00214DF264
:103D80000C4000F0ABFFA6214DF20D4000F0A6FF65
:103D900000214DF20E4000F0A1FFE5214DF20F4051
:103DA00000F09CFF01214DF2104000F097FF13211D
:103DB0004DF2114000F092FF01214DF2124000F04F
:103DC0008DFF54214DF2134000F088FF01214DF288
:103DD000144000F083FF82214DF2154000F07EFF79
:103DE00001214DF2164000F079FFCA214DF2174033
:103DF00000F074FF02214DF2184000F06FFF002127
:103E00004DF2194000F06AFF02214DF21A4000F015
:103E100065FF01214DF21B4000E005E300F05EFF6D
:103E200002214DF21C4000F059FF34214DF21D409B
:103E300000F054FF02214DF21E4000F04FFF6721B9
:103E40004DF21F4000F04AFF02214DF2204000F0E9
:103E500045FF84214DF2214000F040FF02214DF248
:103E6000224000F03BFFA4214DF2234000F036FF3A
:103E700002214DF2244000F031FFB7214DF22540E0
:103E800000F02CFF02214DF2264000F027FFCF2149
:103E90004DF2274000F022FF02214DF2284000F0B1
:103EA0001DFFDE214DF2294000F018FF02214DF2E6
:103EB0002A4000F013FFF2214DF22B4000F00EFFDC
:103EC00002214DF22C4000F009FFFE214DF22D4061
:103ED00000F004FF03214DF22E4000F0FFFE102100
:103EE0004DF22F4000F0FAFE03214DF2304000F079
:103EF000F5FE33214DF2314000F0F0FE03214DF28A
:103F0000324000F0EBFE6D214DF2334000F0E6FE52
:103F100000214FF4554000F0E1FE33214DF20150F5
:103F200000F0DCFE00214DF2025000F0D7FE3421FB
:103F30004DF2035000F0D2FE00214DF2045000F08B
:103F4000CDFE3A214DF2055000F0C8FE00214DF2A1
:103F5000065000F0C3FE4A214DF2075000F0BEFEAD
:103F600000214DF2085000F0B9FE5C214DF20950DD
:103F700000F0B4FE00214DF20A5000F0AFFE8121A6
:103F80004DF20B5000F0AAFE00214DF20C5000F053
:103F9000A5FEA6214DF20D5000F0A0FE00214DF22D
:103FA0000E5000F09BFEE5214DF20F5000F096FE02
:103FB00001214DF2105000F091FE13214DF21150ED
:103FC00000F08CFE01214DF2125000F087FE5421CA
:103FD0004DF2135000F082FE01214DF2145000F01A
:103FE0007DFE82214DF2155000F078FE01214DF248
:103FF000165000F073FECA214DF2175000F06EFE0D
:1040000002214DF2185000F069FE00214DF21950C6
:1040100000F064FE02214DF21A5000F05FFE012113
:104020004DF21B5000F05AFE02214DF21C5000F0E0
:1040300055FE34214DF21D5000F050FE02214DF28C
:104040001E5000F04BFE67214DF21F5000F046FE5F
:1040500002214DF2205000F041FE84214DF221500A
:1040600000F03CFE02214DF2225000F037FEA42168
:104070004DF2235000F032FE02214DF2245000F0A8
:104080002DFEB7214DF2255000F028FE02214DF201
:10409000265000F023FECF214DF2275000F01EFEE7
:1040A00002214DF2285000F019FEDE214DF2295078
:1040B00000F014FE02214DF22A5000F00FFEF22112
:1040C0004DF22B5000F00AFE02214DF22C5000F070
:1040D00005FEFE214DF22D5000F000FE03214DF2B1
:1040E0002E5000F0FBFD10214DF22F5000F0F6FD98
:1040F00003214DF2305000F0F1FD33214DF23150EB
:1041000000F0ECFD03214DF2325000F0E7FD6D218F
:104110004DF2335000F0E2FD00214FF4564000F024
:10412000DDFD33214DF2016000F0D8FD00214DF29C
:10413000026000F0D3FD34214DF2036000F0CEFDAB
:1041400000214DF2046000F0C9FD3A214DF20560F6
:1041500000F0C4FD00214DF2066000F0BFFD4A21D1
:104160004DF2076000F0BAFD00214DF2086000F04A
:10417000B5FD5C214DF2096000F0B0FD00214DF26B
:104180000A6000F0ABFD81214DF20B6000F0A6FD4E
:1041900000214DF20C6000F0A1FDA6214DF20D6052
:1041A00000F09CFD00214DF20E6000F097FDE5212E
:1041B0004DF20F6000F092FD01214DF2106000F011
:1041C0008DFD13214DF2116000F088FD01214DF2AB
:1041D000126000F083FD54214DF2136000F07EFD6B
:1041E00001214DF2146000F079FD82214DF215603D
:1041F00000F074FD01214DF2166000F06FFDCA2140
:104200004DF2176000F06AFD02214DF2186000F0D7
:1042100065FD00214DF2196000F060FD02214DF2B4
:104220001A6000F05BFD01214DF21B6000F056FDAD
:1042300002214DF21C6000F051FD34214DF21D6051
:1042400000F04CFD02214DF21E6000F047FD672199
:104250004DF21F6000F042FD02214DF2206000F09F
:104260003DFD84214DF2216000F038FD02214DF228
:10427000226000F033FDA4214DF2236000F02EFDFA
:1042800002214DF2246000F029FDB7214DF2256096
:1042900000F024FD02214DF2266000F01FFDCF2129
:1042A0004DF2276000F01AFD02214DF2286000F067
:1042B00015FDDE214DF2296000F010FD02214DF2C6
:1042C0002A6000F00BFDF2214DF22B6000F006FD9C
:1042D00002214DF22C6000F001FDFE214DF22D6017
:1042E00000F0FCFC03214DF22E6000F0F7FC1021E1
:1042F0004DF22F6000F0F2FC03214DF2306000F02F
:10430000EDFC33214DF2316000F0E8FC03214DF269
:10431000326000F0E3FC6D214DF2336000F0DEFC12
:1043200055214FF4704000F0D9FCAA214FF2010052
:1043300000F0D4FC52214FF2020000F0CFFC082123
:104340004FF2030000F0CAFC00214FF2040000F01D
:10435000C5FCCC214FF4314000F0C0FC00214BF2F1
:10436000011000F0BBFC05214FF4364000F0B6FC14
:1043700070214FF4374000F0B1FC70214BF2017016
:1043800000F0ACFC01214FF4384000F0A7FC032101
:104390004BF6010000F0A2FC03214BF6020000F0F6
:1043A0009DFC03214BF6030000F098FC02214FF422
:1043B0003C4000F093FC00214BF6014000F08EFCE5
:1043C00000214BF6024000F089FCD0214FF4494017
:1043D00000F084FC02214CF6011000F07FFC50211B
:1043E0004CF6021000F07AFC50214CF6031000F05D
:1043F00075FC50214CF6041000F070FC00214FF4C5
:10440000545000F06BFC55214FF4685000F066FCEE
:104410004FF4885000F04CFC782001F021F84FF464
:10442000245000F045FCBDE07F48808841F66311D0
:104430008842F8D1E22000F03BFC1D2000F02CFC6B
:10444000022000F029FC042000F026FC642001F08A
:1044500007F8E02000F02CFC012000F01DFC0A20F1
:1044600000F0F2FFE02000F023FC032000F014FC39
:104470000C2000F0E9FF012000F01AFC0A2000F0F7
:10448000E3FFE62000F014FC2F2000F005FCFF20E5
:1044900000F002FCFF2000F0FFFBB02000F008FC61
:1044A000202000F0F9FB002000F0F6FB032000F0D4
:1044B000F3FB40F21F3000F0EFFB012000F0ECFBBB
:1044C00040F2DF1000F0E8FB002000F0E5FBB42034
:1044D00000F0EEFB042000F0DFFB40F21F4000F094
:1044E000DBFB002000F0D8FB2E2000F0D5FB0020E5
:1044F00000F0D2FB002000F0CFFB002000F0CCFB4E
:10450000002000F0C9FBB62000F0D2FB022000F032
:10451000C3FB4FF4037000F0BFFB002000F0BCFBB6
:10452000172000F0B9FB152000F0B6FB002000F0CA
:10453000B3FB002000F0B0FBF02000F0B9FB03203B
:1045400000F0AAFB292000F0B3FBD02000F0B0FB64
:10455000002000F0A1FBBE2000F0AAFB052000F027
:104560009BFBFE2000F098FB012000F095FB002053
:1045700000F092FB002000F08FFB002000F08CFB8D
:10458000B82000F095FB032000F086FB012000F02E
:1045900083FBBA2000F08CFB012000F07DFB64203F
:1045A00000F05EF82048808849F24131884211D0FD
:1045B0001D48808845F2103188420BD01A48808807
:1045C00045F21051884205D01748808841F66311A2
:1045D00088421CD11548006820F00F004FF02041A0
:1045E000C1F81C010846D0F81C0120F47060C1F825
:1045F0001C010846D0F81C0140F00100C1F81C0164
:104600000846D0F81C0140F48070C1F81C0100205D
:10461000FDF7A6FC0120064908604FF6FF70FDF784
:1046200085FC13B000BD0000B02200201C0100A0DA
:104630008081214210B50246012000E050430B1E4C
:10464000A1F10104E1B2F9D110BD000008B50348A1
:1046500000880090BDF8000008BD00000008006C54
:104660002DE9F0470446BE2000F022FB052000F0B3
:1046700013FB204602F07FF907464FF066320C4BE1
:1046800002F08CF9054602F049F91FFA80F9484614
:1046900000F002FB012000F0FFFAFF2000F0FCFA1E
:1046A000002000F0F9FA002000F0F6FABDE8F087EB
:1046B00066660440F0B505460024002799488079D5
:1046C000012805D19748808841F66311884208D1B6
:1046D00094488079F0B99348808841F66311884204
:1046E00018D1082D15D2DFE805F00406080A0C0ED3
:1046F000101206250DE007250BE0042509E005252D
:1047000007E0012505E0002503E0032501E002257F
:1047100000BF00BF8348808849F24131884211D0F0
:104720008048808845F2103188420BD07D488088CF
:1047300045F21051884205D07A48808841F66311CD
:1047400088427DD1082D1CD2DFE805F00406090C53
:104750000F12151800BF14E044F0800411E044F07B
:1047600040040EE044F0C0040BE044F0200408E0F4
:1047700044F0600405E044F0A00402E044F0E004EA
:1047800000BF00BF6748808845F21051884202D1BF
:104790004FF4585700E036276248808845F21031C0
:1047A00088420DD05F48808845F21051884207D07A
:1047B0005C48808841F66311884201D044F00804C7
:1047C0002146384600F08AFA5648808841F663113F
:1047D00088421DD004F0200068B152480088514939
:1047E0004988884214DA4F48068840884D49088035
:1047F000084646800CE04B4800884A494988884270
:1048000006DD4848068840884649088008464680B4
:104810004448808845F21051884254D14149488922
:1048200000F046FA002000F037FA3E494989491C59
:1048300088B200F03DFA002000F02EFA394900E07D
:104840006FE04989891C88B200F032FA354909883D
:10485000491EC1F30F2000F01FFA32494989C91CD3
:1048600088B200F025FA2F490978491EC8B200F035
:1048700013FA2C49888900F01BFA002000F00CFA8A
:1048800028498989491C88B200F012FA002000F0FA
:1048900003FA24498989891C88B200F009FA214960
:1048A0004988491EC1F30F2000F0F6F91D49898996
:1048B000C91C88B200F0FCF91A498978491EC8B2AF
:1048C00000F0EAF92DE01749488900F0F1F90020DD
:1048D00000F0E2F9002000F0DFF912490988491ED2
:1048E000C1F30F2000F0D8F90E490978491EC8B26B
:1048F00000F0D2F90B49888900F0DAF9002000F0C5
:10490000CBF9002000F0C8F906494988491EC1F3D7
:104910000F2000F0C1F903498978491EC8B200F0A0
:10492000BBF9F0BDB022002010B502460C464B4842
:10493000808849F24131884205D04848808845F254
:104940001031884214D14549488900F0B1F910125C
:1049500000F0A2F9D0B200F09FF94049888900F038
:10496000A7F9201200F098F9E0B200F095F973E091
:104970003A48808841F66311884247D137488079A8
:10498000A8B936480088401E801A82B23349488947
:1049900000F08EF9002000F07FF9002000F07CF993
:1049A000101200F079F9D0B200F076F916E02B4938
:1049B000488900F07DF9101200F06EF9D0B200F0D5
:1049C0006BF926490988491EC1F30F2000F064F9EC
:1049D00022490978491EC8B200F05EF91F4988894A
:1049E00000F066F9201200F057F9E0B200F054F937
:1049F0001A494988491EC1F30F2000F04DF91749A3
:104A00008978491EC8B200F047F925E0134880882C
:104A100045F2105188421FD11049488900F048F9E9
:104A2000101200F039F90D494989491C88B200F08B
:104A30003FF9D0B200F030F90849888900F038F920
:104A4000201200F029F905498989491C88B200F033
:104A50002FF9E0B200F020F910BD0000B0220020D4
:104A60002DE9F84F80460F4616461C46BB462046A9
:104A7000E31704EB5373DB1021464FEAE47C04EBAD
:104A80005C7C4FEAEC0CA4EBCC0CBCF1000F02D028
:104A90004FF0010C01E04FF0000C6344224604EBA0
:104AA000D27C4FEA6C0C03FB0CF3DBB20093A6F153
:104AB0002000C6B200255EE00C2C07D106EB4600B4
:104AC0002F4901EB800010F805901BE0102C05D158
:104AD0002C4800EB061010F8059013E0182C07D1B5
:104AE00006EBC600284901EB800010F8059009E0AC
:104AF000202C05D1254800EBC61010F8059001E0E8
:104B0000BDE8F88F4FF0000A2FE009F0800030B1C7
:104B10001F48394602684046FDF7D2FA07E00A9876
:104B200028B91C48394602684046FDF7C9FA4FEAE1
:104B300049604FEA1069781C87B217484088B8422C
:104B400000DCDDE7A7EB0B00A0420AD15F4608F1CD
:104B500001001FFA80F810480088404500DCCFE7CC
:104B600006E00AF1010000F0FF0ABAF1080FCCDB01
:104B700000BF681CC5B2009885429DDB00BFBFE73F
:104B80001C71000890750008807B0008DC88000814
:104B90001C00002020000020B02200202DE9FF4F43
:104BA00081B0074691461E460E9D4FF0000A002434
:104BB00039E0301B401EC1B20A20FFF73BFDB9FBB4
:104BC000F0F00A21B0FBF1F201FB1208BAF1000F7C
:104BD00016D1701EA04213DDB8F1000F0ED10020D7
:104BE000AB4605EBDB71491001FB0471009088B204
:104BF0002B4620220299FFF733FF12E04FF0010A03
:104C00000020AB4605EBDB71491001FB04710090FD
:104C100088B208F13001CAB22B460299FFF720FF93
:104C200000BF601CC4B2B442C3DB05B0BDE8F08F66
:104C30002DE9F84704460D4690469946DDE9096797
:104C400004F0FF0A08EB04001FFA80F809EB0500E6
:104C50001FFA80F916E0444502DB5446A81985B2D4
:104C60004D4500DB14E0002000903A783346294699
:104C70002046FFF7F5FE304606EBD07104EB6101EC
:104C80008CB27F1C38787E2802DC38782028E2DA63
:104C900000BFBDE8F887000001B5BDF80000009036
:104CA000BDF800000149088008BD00000008006C44
:104CB00001B5BDF800000090BDF800000149088072
:104CC00008BD0000FE07006C024800890249088008
:104CD00070470000B0220020FE07006C024A1080DE
:104CE000921C118070470000FE07006C00B585B073
:104CF00000BF1B48806940F00800194988610846D8
:104D0000806900F00800009000BF00BF00BF0846A7
:104D1000806940F0400088610846806900F04000EA
:104D2000009000BF00BF202001900120029003905E
:104D30000320049001A90B48FBF764FF2020019099
:104D400001A90948FBF75EFF012220210548FCF775
:104D500001F9012220210448FCF7FCF805B000BD50
:104D600000100240000C01400018014038B5044614
:104D700000BF1548406940F00100134948610846EA
:104D8000406900F00100009000BF00BF00BF0F4865
:104D90000F49086308460D49486200BF0846046091
:104DA000102048600021094881608021C1600021F5
:104DB0000161416181614FF48051C161FBF748FE9F
:104DC0000248FBF78BFE38BD00100240C0220020D5
:104DD0002822002000BFFEE77047704708B5084949
:104DE0000968C9084FF47A72B1FBF2F141430091AE
:104DF00000BF00BF00994A1E00920029F9D108BDEA
:104E000000000020704730B58FB005460024012017
:104E10000590000406900020079002200C90C1032A
:104E20000D910E9505A8FCF781FA04460CB100BF60
:104E3000FEE70F20009002200190002002904FF426
:104E4000806003900020049002216846FCF738F946
:104E500004460CB100BFFEE70FB030BD10B5FCF743
:104E600085F810BD1148006840F001000F49086046
:104E7000084640680E4908400C49486008460068EA
:104E80000C490840094908600846006820F4802061
:104E900008600846406820F4FE0048604FF41F0098
:104EA0008860C80304490860704700000010024091
:104EB0000000FFF8FFFFF6FE08ED00E010B50E4819
:104EC0000068C06800F0010078B10C4908698047AB
:104ED000002009490968486200BF64200649096842
:104EE000C86264210448C16000BF6FF0010002493C
:104EF0000968086110BD0000042300206400002040
:104F000010B50268204B98420ED0204B98420BD02F
:104F1000B0F1804F08D01E4B984205D01D4B9842EF
:104F200002D01D4B984203D122F070024B681A4305
:104F3000154B98420ED0154B98420BD0B0F1804FD4
:104F400008D0134B984205D0124B984202D0124B16
:104F5000984203D122F44072CB681A4322F08003B6
:104F60004C6943EA040202608B68C3620B68836287
:104F7000054B984202D0054B984201D10B6903635F
:104F80000123436110BD0000002C014000340140AA
:104F90000004004000080040000C004038B5044602
:104FA0000D4600BF1148C06940F004000F49C861B8
:104FB0000846C06900F00400009000BF00BF032253
:104FC00011461E20FCF729F81E20FCF716F80848A9
:104FD000084908600846456000218160C46001619D
:104FE000FCF792FC0348FCF7AAFC38BD0010024015
:104FF000000800400423002070B505466C6A0020BC
:10500000E085E0842046FCF7E2FC70BD70B5064602
:105010000025746A20684069C0F3C01594F839000F
:10502000212805D125B10020E084204600F058F861
:1050300020684069C0F3801594F83A00222805D111
:1050400025B10020E085204600F02AF8E06B40F012
:105050001000E0632046FCF7BAFC70BD70B5054651
:105060006C6A2868006800F0200070B90020E084B5
:105070002068406920F08000216848612068C0688D
:1050800040F040002168C86002E02046FCF7A8FE1E
:1050900070BD70B50446656A2846FCF7A2FE70BD77
:1050A0000168C96821F490710268D160016849699A
:1050B00021F0010102685161202180F83A10704707
:1050C00010B504462068C06820F040002168C86020
:1050D000202084F839002046FCF782FE002010BD15
:1050E0000168C96821F0C0010268D160202180F800
:1050F0003910704770B5044694F83A0022284AD116
:10510000A068B0F5805F13D1A56A206940B9206816
:105110004068C0F308002880A06A801CA06219E0E3
:1051200020684068C0B22880A06A401CA06211E0DC
:10513000206938B920684068C1B2A26A501CA062D8
:10514000117007E02068406800F07F01A26A501CDF
:10515000A0621170E08D401E80B2E085C8B9206861
:10516000C06820F020002168C8602068C06820F472
:1051700080702168C8602068406920F001002168C3
:105180004861202084F83A002046FCF797FD002073
:1051900070BD0020FCE70220FAE7000070B504466D
:1051A0002168096921F44051E268114322681161C4
:1051B0002269A1681143626941EA02052168C96850
:1051C00041F20C62914329432268D1602168496908
:1051D00021F44071A269114322685161564A216845
:1051E000914254D1FCF748F800EBC00101EB0011EB
:1051F00062689200B1FBF2F100EBC00202EB001218
:1052000063689B00B2FBF3F26423B2FBF3F202EBA0
:10521000C20303EB0212A1EB8201322202EB011165
:105220006422B1FBF2F101F0F00100EBC00202EBED
:10523000001263689B00B2FBF3F26423B2FBF3F24B
:1052400001EB021200EBC00101EB001163689B004F
:10525000B1FBF3F100EBC00303EB00136668B6008B
:10526000B3FBF6F36426B3FBF6F303EBC30606EBDE
:105270000313A1EB8301322303EB01116423B1FB80
:10528000F3F101F00F0111442268916053E0FBF744
:10529000E3FF00EBC00101EB001162689200B1FB7B
:1052A000F2F100EBC00202EB001263689B00B2FB5C
:1052B000F3F26423B2FBF3F202EBC20303EB02123C
:1052C000A1EB8201322202EB01116422B1FBF2F167
:1052D00001F0F00100EBC00202EB001263689B00DA
:1052E000B2FBF3F26423B2FBF3F201EB021200EB28
:1052F000C00101EB001163689B00B1FBF3F100EB0F
:10530000C00303EB00136668B600B3FBF6F3642634
:10531000B3FBF6F303EBC30606EB0313A1EB830128
:10532000322303EB01116423B1FBF3F101F00F0110
:1053300011442268916070BD00380140014691F827
:10534000390021282CD18868B0F5805F0FD10A6A16
:105350001088C0F308000B685860086918B9086A1B
:10536000801C086209E0086A401C086205E00B6ABC
:10537000581C086218780B685860C88C401E80B2B0
:10538000C88458B90868C06820F080000B68D860ED
:105390000868C06840F040000B68D8600020704783
:1053A0000220FCE710B500240C48FCF71BFB00BFF3
:1053B00001E0641C00BF0948FCF70AFB2028F8D173
:1053C00000BF002401E0641C00BF0122044903481F
:1053D000FCF73CFC0028F6D100BF10BD28220020BD
:1053E0001A00002000BFFEE702480068C0F3022058
:1053F000704700000CED00E010B5002804DB0A0740
:10540000130E054A135406E00A07140E034A00F06F
:105410000F031B1FD45410BD00E400E018ED00E0A2
:1054200030380A2801D2012070470020704700BFA1
:105430007047000010B504460420FCF737FA014815
:10544000046010BD1000002030B50446002504E0C3
:105450004FF47A7000F004F86D1CA542F8D330BD0B
:1054600070B5034600224FF0E02675690D4E366890
:1054700003FB06F44FF0E026B16910E04FF0E026A0
:10548000B06988420BD0884202D20E1A324402E040
:105490002E1A0E4432440146A24200D300E0EDE74A
:1054A00000BF70BD1000002000BF054A126802F066
:1054B0004002002AF9D0C2B2014B1B1D1A6070478E
:1054C000003801401CB500250026A846FBF75AFD10
:1054D0004FF4E010FFF797FC4820FFF7ABFF4FF4C5
:1054E000E13000F055F97C48416854208847FFF7C7
:1054F000FDFBFCF779FCFCF767FE7848FFF736FC0C
:105500004FF478407649086076A010210B46C822F7
:10551000CDE9001032211E20FFF78AFB75A0102173
:105520000B46C822CDE9001046211E20FFF780FB64
:1055300073A010210B46C822CDE900105A211E206D
:10554000FFF776FB72A010210B46C822CDE90010B0
:105550006E211E20FFF76CFB70A010210B46C822A5
:10556000CDE9001082211E20FFF762FB1F205C495D
:1055700008602627002416E0BD420BDB26B10A2076
:105580006949085500250CE00D2067490855701C35
:10559000C6B206E000266548405D63490855681CB0
:1055A000C5B2601C84B242F208008442E4DB1F20D2
:1055B0004B49086000248EE00020FCF753FC0546B0
:1055C000012D78D15AA0FAF753FE5DA010210B46A9
:1055D000C822CDE9001096211E20FFF729FB5DA00F
:1055E00010210B46C822CDE90010AA211E20FFF78A
:1055F0001FFB42F208024C495848FCF7A3FB46E067
:105600005748006835493C31884204D955480068FC
:1056100000F4005004E031484438006800F40050C1
:10562000A0B14F4800682D493C31884205D94FF45C
:1056300000504C49091D086004E04FF40050274910
:10564000443948604548FCF78FF921E0444909682E
:10565000486801F0E5FB80464349404601F0FEFA08
:1056600081464FF07E5101F0BBFC80463F494046E9
:1056700001F0EAFB8046404601F0B2FB8146102073
:1056800003234A46AA2100901E20FFF787FAB7E7B6
:1056900000BF102003236422AA2100901E20FFF7E0
:1056A0007DFA33A010210B46C822CDE900109621C7
:1056B0001E20FFF7BDFA601C84B20A20FFF7C4FE6B
:1056C000142C08D12F48006808B9012000E0002000
:1056D0002C49086000246FE7640000204400024069
:1056E0001C000020576172536869702053544D3379
:1056F00032000000444D4120544553540000000046
:1057000041544F4D40414C49454E54454B000000DB
:10571000323031392F392F31380000004B455930A4
:105720003A5374617274000058010020DE70000862
:105730000D0A444D4120444154413A0D0A000000F5
:105740005374617274205472616E73696D69742E42
:105750002E2E2E00202020250000000028220020D0
:10576000C022002000040240002000460000C84281
:105770005472616E73696D69742046696E697368ED
:105780006564210094812142014608687047000049
:1057900010B5044609480A490860084644600021DB
:1057A0008160C160016181610C214161FCF7C0F938
:1057B000012204490248FCF749FA10BD00380140B3
:1057C000282200201A00002030B595B0054613AB02
:1057D00012AA09A9284600F03FFA044614B120464F
:1057E00015B030BD0020149026E0224909689DF8CC
:1057F000502001EBC20113AB11AA486801A900F0C7
:105800002BFA04460CB12046EAE709A901A800F0EA
:10581000E1FC60B99DF844009DF84810884201DD24
:105820000220DDE79DF85000124988750AE09DF8D6
:105830005000401CC0B214900E48007D9DF85010DE
:105840008842D2DC00BF0B48007D9DF85010884292
:1058500001D10420C4E714A9284600F0DDFA04466B
:105860000CB12046BCE79DF8500002494875002065
:10587000B6E70000640000202DE9F0419AB09C4892
:10588000847D007DA04202DC1AB0BDE8F081984919
:10589000096801EBC40106AB07AA486808A900F033
:1058A000DBF908A993A0FAF7E3FC002644E090484E
:1058B000008B0121B1400840D8B122218FA0FAF716
:1058C000D7FC304600F02EFB894924314718394671
:1058D0008BA0FAF7CDFC222188A0FAF7C9FC30464C
:1058E00000F020FB82492431084410A941F8260029
:1058F00018E0304600F016FB7D492431085810A905
:1059000041F826007A48C07D30B910A850F826101A
:105910007CA0FAF7ADFC05E010A850F826107AA09C
:10592000FAF7A6FC9DF81C00401EB04202D078A0F9
:10593000FAF79EFC701CC6B29DF81C008642B6DBCE
:1059400074A0FAF795FC00F03FFB6948407D0B28F6
:105950000DD2DFE800F0060D151E27323F4E5F72B4
:1059600087006349096851F834008047054690E094
:105970005F4A126852F8341010988847054688E04C
:105980005B4B1B6853F83420DDE910019047054656
:105990007FE0574F3F6857F8343010A807C8984742
:1059A000054676E0DFF848C1DCF800C05CF83470EA
:1059B00010A80FC8B84705466BE01498DFF830C14F
:1059C0000090DCF800C05CF8347010A80FC8B8472D
:1059D00005465EE0DDE91401DFF814C1CDE9000100
:1059E000DCF800C05CF8347010A80FC8B847054652
:1059F0004FE0DDE914121698DFF8F4C0CDE900128B
:105A00000290DCF800C05CF8347010A80FC8B847EA
:105A100005463EE0DDE91423DDE91610DFF8D0C0CD
:105A2000CDE90023CDE90210DCF800C05CF8347049
:105A300010A80FC8B84705462BE0DDE91523DDE9BE
:105A40001710CDE90123CDE903101498DFF8A0C0A9
:105A50000090DCF800C05CF8347010A80FC8B8479C
:105A6000054616E0DDE91623DDE91810CDE902232D
:105A7000CDE90410DDE91401DFF874C0CDE90001BF
:105A8000DCF800C05CF8347010A80FC8B8470546B1
:105A900000BF00BF00F056FA9DF8180001280CD195
:105AA0001348C07D20B929461BA0FAF7E1FB07E0A7
:105AB00029461BA0FAF7DCFB02E018A0FAF7D8FB96
:105AC0000B4890F8EC0088B10948D0F8F0000A21A2
:105AD000B0FBF1F201FB12070548D0F8F000B0FB73
