:020000040800F2
:10000000681300204D020008353900080D33000840
:100010003139000843040008113B000800000000CB
:100020000000000000000000000000004D39000842
:10003000A904000800000000393900084F39000801
:1000400067020008670200086702000867020008EC
:1000500067020008670200086702000867020008DC
:1000600067020008670200086702000869040008C8
:1000700067020008670200086702000867020008BC
:100080006702000879040008670200086702000898
:1000900049040008670200086702000867020008B8
:1000A0006702000865390008670200086702000857
:1000B000670200086702000867020008670200087C
:1000C000670200086702000867020008670200086C
:1000D00067020008013B0008670200086702000889
:1000E000670200086702000867020008670200084C
:1000F000670200086702000867020008670200083C
:10010000670200086702000867020008670200082B
:10011000670200086702000867020008670200081B
:1001200089040008990400086702000867020008B3
:1001300067020008670200086702000867020008FB
:1001400059040008670200086702000867020008F7
:1001500067020008670200086702000867020008DB
:1001600067020008670200086702000867020008CB
:10017000670200086702000867020008000000002C
:10018000670200086702000867020008F13A0008E9
:100190003D3900086702000867020008670200088E
:1001A00000000000000000006702000800F002F8F4
:1001B00000F03CF80AA090E8000C82448344AAF1C5
:1001C0000107DA4501D100F031F8AFF2090EBAE8C3
:1001D0000F0013F0010F18BFFB1A43F0010318477B
:1001E00094440000B4440000103A24BF78C878C199
:1001F000FAD8520724BF30C830C144BF04680C602D
:10020000704700000023002400250026103A28BF74
:1002100078C1FBD8520728BF30C148BF0B60704778
:100220001FB504F011FA1FBD10B510BD00F0D4F8D1
:100230001146FFF7F5FF04F0A7F900F0F2F803B458
:10024000FFF7F2FF03BC00F0F5F800000948804713
:1002500009480047FEE7FEE7FEE7FEE7FEE7FEE7A8
:10026000FEE7FEE7FEE7FEE704480549054A064BC0
:100270007047000051390008AD010008680D0020EA
:1002800068130020680F0020680F002053EA020C5A
:1002900000F069802DE9F04B4FF00006002B1FBFE6
:1002A000B3FA83F503FA05F424FA05F65E4012BFAB
:1002B0001643B2FA82F502FA05F4C5F120051EBF15
:1002C00022FA05FC44EA0C04203556EA044C4FEAB5
:1002D000144418BF641C4FF000084FF0000990420E
:1002E00071EB030C39D3002919BFB1FA81F701FA78
:1002F00007F6B0FA80F700FA07F6C7F120071EBF2D
:1003000020FA07FC46EA0C062037B6FBF4FCA7EB04
:100310000507103F07F01F0BCBF120060CFA0BFB73
:100320002CFA06F644BFB3460026202FA4BF5E4633
:100330004FF0000B5BEA060C08BF4FF0010B19EB06
:100340000B09ABFB027C48EB0608C01B06FB02CC8A
:100350000BFB03CC71EB0C01C1E70B460246414697
:100360004846BDE8F08B13B54FF000004FF0000198
:10037000AFF30080BDE81C4070474FF0000200B5AD
:10038000134694469646203922BFA0E80C50A0E8B8
:100390000C50B1F12001BFF4F7AF090728BFA0E866
:1003A0000C5048BF0CC05DF804EB890028BF40F832
:1003B000042B08BF704748BF20F8022B11F0804F74
:1003C00018BF00F8012B7047704770477047000056
:1003D00000487047040D00207546FFF7F9FFAE4650
:1003E00005006946534620F00700854618B020B541
:1003F000FFF73AFFBDE820404FF000064FF000073E
:100400004FF000084FF0000B21F00701AC46ACE8BC
:10041000C009ACE8C009ACE8C009ACE8C0098D4629
:10042000704710B50446AFF300802046BDE8104089
:10043000FFF705BF01491820ABBEFEE7260002000A
:10044000704700BFFEE7000010B5024800F0A3F9B6
:1004500010BD00005C08002010B5024800F09BF9B8
:1004600010BD00008408002010B5024800F034FEE2
:1004700010BD00002C0B002010B5024800F02CFE2F
:1004800010BD00008C0B002010B5024800F024FEC7
:1004900010BD00000409002010B5024800F01CFE49
:1004A00010BD000064090020704772B600BFFEE76F
:1004B00010B5024692F82030012B01D0022B06D154
:1004C00010684069084314686061002010BD506ADC
:1004D00040F4802050620120F8E70000F0B50446A7
:1004E0000A46216894F82050012D01D0022D7ED1BA
:1004F000424901F50071086840F001000860086891
:1005000020F47C5008600868566A40EA06200860BB
:10051000107D00F01F06012000FA06F3C869984319
:10052000C861A1F50071D069C8B9D1F80C0298432F
:10053000C1F80C02908880B2968940EA064601F51F
:100540001070576940F83760108880B2168940EA09
:10055000064601F51070576900EBC7004660D06988
:10056000012819D1D1F80C021843C1F80C02908867
:1005700080B2168840EA064601F51070576940F8C7
:100580003760908980B2168940EA064601F51070FE
:10059000576900EBC7004660906928B9D1F804029A
:1005A0009843C1F8040204E0D1F804021843C1F8EA
:1005B0000402106928B9D1F814029843C1F8140252
:1005C00004E0D1F814021843C1F81402106A01289B
:1005D00004D1D1F81C021843C1F81C02D1F8000262
:1005E00020F00100C1F800020020F0BDFFE7606AC2
:1005F00040F4802060620120F7E7000000640040C2
:10060000704770B5044694F82050012D01D0022D9A
:100610007DD151B92068C06800F0030080B9606ADC
:1006200040F400106062012070BD2068006900F095
:10063000030028B9606A40F4001060620120F3E70B
:10064000206800F5D87000EB0110006800F004008D
:100650009060906840B9206800F5D87000EB0110F8
:100660000068400D106007E0206800F5D87000EBCE
:1006700001100068C0085060206800F5D87000EBD9
:100680000110006800F00200D060206800F5D8700A
:1006900000EB0110406800F00F00082802D308208A
:1006A000106108E0206800F5D87000EB0110406888
:1006B00000F00F001061206800F5D87000EB011009
:1006C000406800F47F40000A9061206800F5D8700F
:1006D00000EB01104068000C5061206800F5D870F4
:1006E00000EB011080681870206800F5D87000EBEE
:1006F0000110806800F47F40000A5870206800F5FF
:10070000D87000EB0110806800F47F0000E03CE04E
:10071000000C9870206800F5D87000EB011080681C
:10072000000ED870206800F5D87000EB0110C0688A
:100730001871206800F5D87000EB0110C06800F453
:100740007F40000A5871206800F5D87000EB011056
:10075000C06800F47F00000C9871206800F5D87024
:1007600000EB0110C068000ED87131B92068C06874
:1007700040F020002668F06005E02068006940F045
:1007800020002668306100204EE7606A40F4802037
:100790006062012048E72DE9F05F044600252068EB
:1007A00046692068D0F80490206887682068D0F8EF
:1007B0000CA02068D0F810B02068D0F8188006F09F
:1007C0000100002855D007F00100C0B101202168C8
:1007D000886007F0020018B1204600F00CFC0EE023
:1007E00007F0040010B145F4006508E007F00800C8
:1007F00010B145F4805502E0204600F0FBFB07F401
:100800008070C8B14FF480702168886007F4007070
:1008100018B1204600F0F1FB0EE007F4806010B143
:1008200045F4005508E007F4006010B145F4804538
:1008300002E0204600F0E0FB07F48030C8B14FF43E
:1008400080302168886007F4003018B1204600F03D
:10085000D6FB0EE007F4802010B145F4004508E017
:1008600007F4002010B145F4803502E0204600F086
:10087000C5FB06F0080038B10AF0100020B145F4BD
:10088000007510202168C86006F0040040B10AF02D
:10089000080028B108202168C860204600F00EFA40
:1008A00006F0020038B12068C06800F0030010B103
:1008B000204600F005FA06F0400038B10BF01000B9
:1008C00020B145F4806510202168086106F0200001
:1008D00040B10BF0080028B10820216808612046CB
:1008E00000F056FB06F0100038B12068006900F0F7
:1008F000030010B1204600F04CFB06F4003040B17C
:1009000009F0100028B1102021684860204600F04E
:1009100041FB06F4803040B109F0080028B10820FE
:1009200021684860204600F06BFB06F4004088B365
:1009300009F0040078B306F4807020B108F00100DB
:1009400008B145F0010506F4007020B108F002007E
:1009500008B145F0020506F4806020B108F00400FB
:1009600008B145F0040506F40060A0B108F070007D
:1009700088B108F07000402817D006DC10280BD092
:1009800020280CD0302819D10CE0502810D0602835
:1009900014D110E01DE019E045F008050FE045F026
:1009A00010050CE045F0200509E045F0400506E0A3
:1009B00045F0800503E045F4807500E000BF00BF0E
:1009C0002068806920F07000216888610420216817
:1009D00048602DB1606A284360622046FFF710FE30
:1009E000BDE8F09F70B504460CB9012070BD94F8C5
:1009F000200010B9204600F0AFF82068006840F0F1
:100A000001002168086000F01FFE05460DE000F0BF
:100A10001BFE401B0A2808D9606A40F4003060625F
:100A2000052084F820000120E0E72068406800F0FD
:100A300001000028EBD02068006820F00200216847
:100A4000086000F001FE05460DE000F0FDFD401BD2
:100A50000A2808D9606A40F400306062052084F8F2
:100A600020000120C2E72068406800F00200002852
:100A7000EBD1207E012806D12068006840F080007C
:100A80002168086005E02068006820F08000216887
:100A90000860607E012806D12068006840F04000B0
:100AA0002168086005E02068006820F040002168A7
:100AB0000860A07E012806D12068006840F0200070
:100AC0002168086005E02068006820F020002168A7
:100AD0000860E07E012806D12068006820F0100040
:100AE0002168086005E02068006840F01000216877
:100AF0000860207F012806D12068006840F00800C7
:100B00002168086005E02068006820F0080021687E
:100B10000860607F012806D12068006840F004006A
:100B20002168086005E02068006820F00400216862
:100B30000860D4E902010843216908436169084358
:100B40006168491E08432168C86100206062012075
:100B500084F82000002049E710B586B0044614212F
:100B600001A8FFF70AFC4F492068884241D14E484E
:100B70000068401C4C4908600846006801280FD1F5
:100B800000BF002000904948006840F000704749CD
:100B900008600846006800F00070009000BF00BFC9
:100BA00000BF0020009041481038006840F0080065
:100BB0003E49103908600846006800F008000090BF
:100BC00000BF00BF0320019002200290002003908C
:100BD000032004900920059001A9354800F026FC67
:100BE00000221146142000F0E7FD142000F0D0FD93
:100BF00055E030492068884251D100BF0020009064
:100C00002A48006840F0806028490860084600686B
:100C100000F08060009000BF00BF23480068401CC7
:100C2000214908600846006801280FD100BF002054
:100C300000901E48006840F000701C49086008469B
:100C4000006800F00070009000BF00BF00BF0020EF
:100C5000009016481038006840F00200134910391F
:100C600008600846006800F00200009000BF00BF66
:100C70004FF4405001900220029000200390032086
:100C800004900920059001A90B4800F0CFFB002239
:100C90001146402000F090FD402000F079FD06B0A4
:100CA00010BD0000006400400000002040380240F9
:100CB000000C024000680040000402407047000041
:100CC00010B58AB00446AA49206888427DD101AB9C
:100CD00003AA0021A748FFF794FC0398A0F2012083
:100CE0000A284FD2DFE800F0050607084E4E4E4EA8
:100CF0004F7500BF00BF00BF0398401E9E4908709B
:100D00000846007800EB80009C4931F8100000B2E2
:100D10009949097801EB8101984A02EB4101088168
:100D20009DF805009DF8041040EA012092490978D9
:100D300001EB810122F811009DF807009DF80610D3
:100D400040EA012000B28C49097801EB810102EBF5
:100D5000410148809DF809009DF8081040EA0120F3
:100D600000B28549097801EB810102EB41018880DD
:100D70009DF80A008049097801EB810102EB4101ED
:100D8000887149E048E07E48008D01B27C480186C8
:100D90009DF805009DF8041040EA01207849088577
:100DA0009DF807009DF8061040EA012001B2744842
:100DB00041859DF809009DF8081040EA012001B224
:100DC0006F4881859DF80A1000E027E080F82E101A
:100DD00022E06B48408901B2694841829DF80500D4
:100DE0009DF8041040EA0120654948819DF80700FC
:100DF0009DF8061040EA012001B2614881819DF80A
:100E000009009DF8081040EA012001B25C48C18148
:100E10009DF80A10017400BF00BF00BF5949206847
:100E200088427CD101AB03AA00215748FFF7E9FBB8
:100E30000398A0F2052006284DD2DFE800F0030455
:100E400005064D7100BF00BF00BF0398401E4F490B
:100E500008700846007800EB8000484931F810001F
:100E600000B24A49097801EB8101444A02EB410191
:100E700008819DF805009DF8041040EA01204349CF
:100E8000097801EB810122F811009DF807009DF817
:100E9000061040EA012000B23C49097801EB8101CB
:100EA00002EB410148809DF809009DF8081040EAD6
:100EB000012000B23549097801EB810102EB4101C3
:100EC00088809DF80A003149097801EB810102EB25
:100ED0004101887147E046E02948008800B228496E
:100EE00008819DF805009DF8041040EA012024497E
:100EF00008809DF807009DF8061040EA012000B226
:100F00001F4948809DF809009DF8081040EA01201B
:100F100000B21B4988809DF80A00887123E024E014
:100F20001748408901B2164841829DF805009DF896
:100F3000041040EA0120124948819DF807009DF8FD
:100F4000061040EA012001B20D4881819DF8090098
:100F50009DF8081040EA012001B20948C1819DF8BE
:100F60000A10017400BF00BF00BF0AB010BD00002E
:100F7000006400405C08002024000020340C0020A5
:100F80008E0C00200068004084080020250000200E
:100F900070477047704770B5044694F820000128E8
:100FA00022D1022084F820002068006820F001008F
:100FB0002168086000F048FB05460DE000F044FBA6
:100FC000401B0A2808D9606A40F40030606205209E
:100FD00084F82000012070BD2068406800F0010006
:100FE0000028EBD16062F6E7606A40F4002060629E
:100FF0000120F0E7704770477047704770477047AF
:10100000704770B50446A56D00F01EFB064694F8C7
:101010003500022808D08020606500BF002084F8D9
:10102000340000BF012070BD2068006820F0160069
:10103000216808602068406920F0800021684861CC
:10104000206C08B9A06C28B12068006820F0080066
:10105000216808602068006820F0010021680860AD
:1010600010E000F0F1FA801B05280BD92020606504
:10107000032084F8350000BF002084F8340000BF4E
:101080000320D0E72068006800F001000028E8D1C4
:1010900094F85C103F208840A860012084F8350057
:1010A00000BF002084F8340000BF00BFBBE701464A
:1010B00091F83500022803D0802048650120704750
:1010C000052081F835000868006820F001000A68F2
:1010D00010600020F3E70000F8B5044600200090FF
:1010E0008C4800684FF41651B0FBF1F7A56D2E68DF
:1010F00094F85C1008208840304098B1206800685F
:1011000000F0040070B12068006820F0040021683D
:10111000086094F85C1008208840A860606D40F07A
:101120000100606594F85C1001208840304068B18F
:101130002068406900F0800040B194F85C10012004
:101140008840A860606D40F00200606594F85C1013
:1011500004208840304068B12068006800F0020038
:1011600040B194F85C1004208840A860606D40F0A5
:101170000400606594F85C1010208840304078B31B
:101180002068006800F0080050B394F85C1010204C
:101190008840A8602068006800F4802080B1206842
:1011A000006800F4002028B9206CC8B12046216CEA
:1011B000884715E0A06C98B12046A16C88470FE0E5
:1011C0002068006800F4807028B92068006820F06A
:1011D000080021680860206C10B12046216C884707
:1011E00094F85C10202088403040002865D02068AA
:1011F000006800F0100000285FD094F85C102020F8
:101200008840A86094F83500052828D12068006837
:1012100020F01600216808602068406920F08000F6
:1012200021684861206C08B9A06C28B1206800686A
:1012300020F008002168086094F85C103F20884086
:10124000A860012084F8350000BF002084F8340035
:1012500000BF206D10B12046216D8847F8BD206881
:10126000006800F4802080B12068006800F400204D
:1012700028B9606C10B12046616C88471DE0E06BB6
:10128000D8B12046E16B884717E02068006800F479
:10129000807068B92068006820F01000216808603C
:1012A000012084F8350000BF002084F8340000BF1E
:1012B000E06B10B12046E16B8847606D38B3606D1C
:1012C00000F00100F0B1052084F8350020680068C6
:1012D00020F001002168086000BF0098401C0090C9
:1012E000B84200D905E02068006800F0010000283D
:1012F000F3D100BF012084F8350000BF002084F83E
:10130000340000BFE06C10B12046E16C884700BF9C
:10131000A4E70000100000202DE9F041044600255C
:1013200000F092F9074614B90120BDE8F081606A27
:1013300000B100BF022084F8350000BF002084F80F
:10134000340000BF2068006820F0010021680860B8
:101350000AE000F079F9C01B052805D92020606556
:10136000032084F83500E0E72068006800F0010001
:101370000028EED12068056821480540D4E9010124
:101380000843E16808432169084361690843A1698A
:101390000843E1690843216A08430543606A042859
:1013A00003D1D4E90B010843054320680560206898
:1013B000456925F00705606A0543606A04280DD178
:1013C000A06A0543E06A48B1204602F0B5FC28B1A6
:1013D00040206065012084F83500A6E7206845615B
:1013E000204602F0FFFC064694F85C103F2088403F
:1013F000B06000206065012084F83500002094E78B
:101400003F8010F070B5044600F01EF906462546F0
:10141000681C10B104480078054400BF00F014F9BE
:10142000801BA842FAD370BD0C000020F8B502461C
:101430000B460025002400200021E0E0012606FAEA
:1014400001F51E6806EA0504AC4274D11E7906F067
:101450000306012E04D01E7906F00306022E13D1D6
:1014600090684F000326BE40B0434F00DE68BE4088
:1014700030439060506801268E40B0431E79C6F319
:1014800000168E40304350601E7906F00306032E8E
:1014900009D0D0684F000326BE40B0434F009E687D
:1014A000BE403043D0601E7906F00306022E13D1F1
:1014B000CF0802F1200656F827004E07F70E0F2638
:1014C000BE40B0434F07FF0E1E69BE403043CF08F9
:1014D00002F1200646F8270010684F000326BE40A0
:1014E000B0431E7906F003064F00BE403043106043
:1014F0005E6806F44036002E1DD000BF0026009620
:10150000414E366846F480463F4F3E603E46366860
:1015100006F48046009600BF00BF3C4E8F0856F888
:1015200027008E07370F0F26BE40B043384EB24219
:1015300002D100262EE061E0364EB24201D10126F2
:1015400028E0354EB24201D1022623E0334EB242AA
:1015500001D103261EE0324EB24201D1042619E029
:10156000304EB24201D1052614E02F4EB24201D1D5
:1015700006260FE02D4EB24201D107260AE02C4E7E
:10158000B24201D1082605E02A4EB24201D1092615
:1015900000E00A268F073F0FBE4030431B4E8F08E6
:1015A00046F82700244E3068A0435E6806F4801693
:1015B00006B12043204E3060361D3068A0435E687F
:1015C00006F4001606B120431B4E361D30601A4E3D
:1015D000361F3068A0435E6806F4003606B120432B
:1015E000154E361F3060361F3068A0435E6806F423
:1015F000803606B12043104E083E3060491C102949
:10160000FFF41CAFF8BD0000443802400838014028
:10161000000002400004024000080240000C0240AA
:10162000001002400014024000180240001C02405A
:101630000020024000240240083C01400AB18161C0
:1016400001E00B04836170470148006870470000A7
:101650000400002003480068034909780844014950
:1016600008607047040000200C00002010B50D48F1
:10167000006840F400700B4908600846006840F4B8
:10168000806008600846006840F4807008600320AD
:1016900000F0D0F80F2000F007F800F055F8002017
:1016A00010BD0000003C0240F0B587B004460026A3
:1016B000002700BF002000901E48006840F0010095
:1016C0001C4908600846006800F00100009000BF57
:1016D00000BF01A902A800F0C9F900F0FFF9460017
:1016E0001548B6FBF0F0471E14481549086040F253
:1016F000E7311348C1604760002101618160816169
:1017000000F0C4FF054695B90D4801F033F80546D1
:101710006DB9192000F03CF8102C07D200222146A8
:10172000192000F049F80748046000E00125284628
:1017300007B0F0BD4438024040420F0000000140B5
:10174000EC0B00200800002008B500BF002000902E
:101750000E48006840F480400C4908600846006864
:1017600000F48040009000BF00BF00BF0020009048
:10177000081F006840F08050091F08600846006894
:1017800000F08050009000BF00BF08BD4438024008
:101790000146084600280DDB00BF00BF00F01F0314
:1017A00001229A4043099B0003F1E023C3F8002182
:1017B00000BF00BF00BF70472DE9F05F80460D46B7
:1017C0001646002702F0D8FE074639462A46334619
:1017D00001F00700C0F1070ABAF1040F02D94FF077
:1017E000040A01E0C0F1070AD14600F1040ABAF187
:1017F000070F02D24FF0000A01E0A0F1030AD4461D
:101800004FF0010A0AFA09FAAAF1010A0AEA020AE1
:101810000AFA0CFA4FF0010B0BFA0CFBABF1010BBF
:101820000BEA030B4AEA0B042146404602F090FE05
:10183000BDE8F09F00BF00F00702064B19684FF6A5
:10184000FF031940044B0B4343EA0221014B19608B
:1018500000BF70470CED00E00000FA0538B5002429
:1018600000BF002000901D48006840F080501B49D8
:1018700008600846006800F08050009000BF00BF7C
:10188000012017490864FFF7DFFE044607E0FFF771
:10189000DBFE001BB0F57A7F01D9032038BD11486B
:1018A000406800F48030B0F5803FF0D101200C4951
:1018B0004864FFF7C9FE044607E0FFF7C5FE001BBA
:1018C000B0F57A7F01D90320E8E70648406800F4C4
:1018D0000030B0F5003FF0D10020DFE74038024093
:1018E00000000E420070004070B504460D460CB971
:1018F000012070BD5848006800F00F00A84209D2CE
:1019000055490D700846006800F00F00A84201D04C
:101910000120EEE7207800F0020002281DD1207897
:1019200000F00400042805D14C48006840F4E05061
:101930004A490860207800F00800082805D1474887
:10194000006840F46040454908604448006820F061
:10195000F000A168084341490860207800F00100C8
:10196000A8B36068012807D13C4808380068C0F374
:101970004040B8B90120BCE76068022802D0606826
:10198000032807D1354808380068C0F3406048B9DB
:101990000120AEE7314808380068C0F3400008B9BC
:1019A0000120A6E72D48006820F003006168084385
:1019B0002A490860FFF748FE064609E0FFF744FEA3
:1019C000801B41F28831884202D9032091E707E069
:1019D0002248006800F00C006168B0EB810FEDD187
:1019E0001D48006800F00F00A84209D91A490D707F
:1019F0000846006800F00F00A84201D0012078E7F7
:101A0000207800F00400042807D11448006820F46E
:101A1000E050E168084311490860207800F00800B0
:101A2000082808D10D48006820F46040216940EA88
:101A3000C1000A49086000F061F808490968C1F36B
:101A40000311074A515CC84006490860064800680F
:101A5000FFF72AFE00204CE7003C02400838024015
:101A60005A46000810000020080000200F220260E3
:101A70000D4A126802F0030242600B4A126802F03B
:101A8000F0028260084A126802F4E052C260064A1C
:101A9000126802F46042D2080261044A126802F03D
:101AA0000F020A607047000008380240003C024004
:101AB00001480068704700001000002000B5FFF7E3
:101AC000F7FF04490968C1F38221034A515CC84009
:101AD00000BD0000083802406A46000800B5FFF764
:101AE000E7FF04490968C1F34231034A515CC84029
:101AF00000BD0000083802406A4600082DE9F047A2
:101B0000002400250026A1462548006800F00C00AE
:101B100020B1042805D008283AD105E0DFF88490E8
:101B200039E0DFF8849036E01D48001F006800F0BF
:101B30003F041B48001F006800F4800078B11A4879
:101B40001749091F0968C1F38811A0FB01700146FC
:101B5000224600233846FEF799FB05460EE0114861
:101B60000F49091F0968C1F38811A0FB01700146E4
:101B7000224600233846FEF789FB05460848001F29
:101B80000068C0F30140401C4600B5FBF6F902E0D6
:101B9000DFF8109000BF00BF4846BDE8F0870000A6
:101BA000083802400024F400001BB700F8B50446D2
:101BB0000CB90120F8BD207800F00100002874D095
:101BC000F948006800F00C0004280DD0F6480068C1
:101BD00000F00C00082813D1F348001F006800F43F
:101BE0008000B0F5800F0BD1EF4808380068C0F3D3
:101BF0004040002859D06068002856D10120D9E71C
:101C000000BF6068B0F5803F08D1E7480838006839
:101C100040F48030E449083908601EE06068B0F59F
:101C2000A02F0DD1E0480838006840F48020DE493C
:101C3000083908600846006840F4803008600CE00D
:101C4000D9480838006820F48030D749083908603E
:101C50000846006820F48020086000BF606890B1EA
:101C6000FFF7F2FC054606E0FFF7EEFC401B642898
:101C700001D903209EE7CC4808380068C0F34040F3
:101C80000028F1D011E0FFF7DFFC054606E0FFF782
:101C9000DBFC401B642801D903208BE7C2480838CD
:101CA0000068C0F340400028F1D1207800F0020025
:101CB00002285FD1BC48006800F00C0058B1BA4857
:101CC000006800F00C0008281CD1B748001F00680D
:101CD00000F48000B0B9B44808380068C0F3400090
:101CE00020B1E068012801D0012063E7AE48083840
:101CF000006820F0F800216940EAC100AA490839CB
:101D0000086037E0E06800B30120A8490860FFF7E9
:101D10009BFC054606E0FFF797FC401B022801D913
:101D2000032047E7A04808380068C0F340000028B7
:101D3000F1D09D480838006820F0F800216940EA99
:101D4000C10099490839086014E0002097490860EB
:101D5000FFF77AFC054606E0FFF776FC401B0228F9
:101D600001D9032026E7904808380068C0F34000F6
:101D70000028F1D1207800F0080008282CD16069F3
:101D8000A8B101208A490860FFF75EFC054606E01D
:101D9000FFF75AFC401B022801D903200AE78248BA
:101DA0006C300068C0F340000028F1D014E000203F
:101DB0007F490860FFF748FC054606E0FFF744FC52
:101DC000401B022801D90320F4E677486C300068F4
:101DD000C0F340000028F1D1207800F0040004286E
:101DE00070D1002770483830006800F0805090B9FA
:101DF00000BF002000906C483830006840F08050F0
:101E00006949383108600846006800F08050009049
:101E100000BF00BF01276748006800F48070B0B9B8
:101E20006448006840F4807062490860FFF70CFC69
:101E3000054606E0FFF708FC401B022801D90320F5
:101E4000B8E65C48006800F480700028F2D000BF5B
:101E5000A068012808D154486830006840F00100AB
:101E60005149683108601DE0A06805280DD14E4831
:101E70006830006840F004004B496831086008464B
:101E8000006840F0010008600CE0474868300068D6
:101E900020F001004449683108600846006820F0DD
:101EA0000400086000BFA068A8B1FFF7CDFB05469D
:101EB00009E0FFF7C9FB401B41F28831884202D993
:101EC000032077E626E0384868300068C0F3400019
:101ED0000028EED013E0FFF7B7FB054608E0FFF758
:101EE000B3FB401B41F28831884201D9032061E6EF
:101EF0002D4868300068C0F340000028EFD1012F62
:101F000007D129483830006820F080502649383100
:101F1000086000BFA069002845D02348006800F091
:101F20000C0008285DD0A069022845D100201F4977
:101F30000866FFF789FB054606E0FFF785FB401BB7
:101F4000022801D9032035E6174808380068C0F395
:101F500040600028F1D1D4E907010843616A40EAF2
:101F600081110122A06AC2EB500041EA00412C20FD
:101F7000005D41EA00600C49091F086001200B491F
:101F80000866FFF761FB054606E0FFF75DFB401BB7
:101F9000022801D903200DE6034808380068C0F381
:101FA00040600028F1D049E0083802400000474274
:101FB000800E474200700040002021490866FFF76C
:101FC00043FB054606E0FFF73FFB401B022801D913
:101FD0000320EFE51B480068C0F340600028F2D101
:101FE0002CE0A069012800D1E4E51648001D066830
:101FF000A069012820D006F48001E06981421BD14C
:1020000006F03F01206A814216D147F6C070304089
:10201000616AB0EB811F0FD106F440310122A06A42
:10202000C2EB5000B1EB004F06D106F070612C20DE
:10203000005DB1EB006F01D00120BBE50020B9E5E8
:10204000000047420038024070470000F8B50446DF
:102050002068466820688568C5F3801048B905F097
:10206000010030B1C6F3801018B12046216C8847BA
:10207000F8BDC5F3400030B1C6F3C01018B120461A
:10208000616C8847F4E7C5F3401030B9C5F38010A0
:1020900018B9C5F3002000287CD0C6F340100028F2
:1020A0007DD0C5F38010F0B194F8510003280ED014
:1020B000606D40F00400606500BF00200090206863
:1020C000C068009020688068009000BF0BE000BFEF
:1020D000002000902068C068009020688068009010
:1020E00000BF00BFC4E7C5F3401088B1606D40F089
:1020F0000100606500BF00200090206880680090AB
:102100002068006820F040002168086000BF00BF20
:10211000C5F3002058B1606D40F00800606500BF55
:102120000020009020688068009000BF00BF606DB4
:1021300078B32068406820F0E00021684860012002
:1021400084F8510006F00200022802D006F00100D7
:1021500008B32068406820F0030021684860E06C04
:1021600050B11048E16C0865E06CFEF7A0FF18B1B3
:10217000606D40F040006065A06C50B10948A16CF2
:102180000865A06CFEF793FF18B1606D40F0400049
:10219000606503E003E02046FFF756FF68E700BFF5
:1021A00066E70000193E000810B504460CB901208E
:1021B00010BD606A38B96068B0F5827F00D105E073
:1021C0000021E16102E00021216161610021A16241
:1021D00094F8510028B9002084F85000204600F0FF
:1021E00047F8022084F851002068006820F0400081
:1021F00021680860A08800F48270218901F40441FC
:102200000843A18901F400610843217C01F0020127
:102210000843217D01F001010843218B01F4007185
:102220000843217F01F0380108432021095D01F0B6
:1022300080010843218D01F40051084321680860A2
:102240000421A06901EA104094F8241001F0100163
:102250000843216848602068C06920F40060216854
:10226000C86100206065012084F8510000209FE7CC
:1022700010B586B00446142101A8FEF77EF83F4948
:102280002068884277D100BF002000903C48006859
:1022900040F400503A4908600846006800F40050D5
:1022A000009000BF00BF00BF0020009034481438E9
:1022B000006840F010003249143908600846006890
:1022C00000F01000009000BF00BF4FF48350019059
:1022D0000220029000200390032004900520059026
:1022E00001A92848FFF7A2F8274828490860C00537
:1022F0004860002125488160C1604FF48061016120
:1023000049004161890081610021C161016241622E
:10231000FFF702F808B1FEF7C8F800BF1B48E064F9
:10232000846300BF18481830194908604FF00060F6
:1023300048604021164881600021C1604FF48061EF
:10234000016149004161890081610021C16101622F
:102350004162FEF7E1FF08B1FEF7A7F800BF0C48A5
:10236000A064846300BF002211465420FFF724FAC2
:102370005420FFF70DFA06B010BD000000340140F4
:10238000443802400010024010640240040900205A
:10239000640900202DE9FF5F0446884691461D46EA
:1023A0000E9E012002900020019000BF94F8500082
:1023B000012803D1022004B0BDE8F09F012084F879
:1023C000500000BFFFF740F9074694F851B060682D
:1023D0000390AA46BBF1010F0BD00398B0F5827FA2
:1023E00004D1A06810B9BBF1040F02D00220019003
:1023F000E9E0B8F1000F03D0B9F1000F00D015B932
:1024000001200190DFE094F85100042802D005205B
:1024100084F8510000206065C4F83890E587A587EE
:10242000C4F83080E586A586206460642068006872
:1024300000F04000402805D02068006840F04000CF
:1024400021680860E068B0F5006F4DD1606810B198
:10245000BAF1010F09D1206B00882168C860206B98
:10246000801C2063E08E401EE08636E02068806895
:1024700000F00200022810D1E08E70B1029801280D
:102480000BD1206B00882168C860206B801C206302
:10249000E08E401EE086002002902068806800F0F8
:1024A000010068B1E08F58B12068C068A16B088056
:1024B000A06B801CA063E08F401EE087012002908B
:1024C000FFF7C2F8C01BB04207D3701C28B103202D
:1024D0000190012084F8510075E0E08E0028C5D1FC
:1024E000E08F0028C2D14DE0606810B1BAF1010F51
:1024F00009D1206B007821680873206B401C206391
:10250000E08E401EE08637E02068806800F0020020
:10251000022810D1E08E70B1029801280BD1206BF7
:10252000007821680873206B401C2063E08E401EF9
:10253000E086002002902068806800F0010068B109
:10254000E08F58B12068C068A16B0870A06B401C78
:10255000A063E08F401EE08701200290FFF774F82F
:10256000C01BB04201D3701C00B92EB903200190EA
:10257000012084F8510026E0E08E0028C4D1E08FCD
:102580000028C1D13A463146204601F04FFC20B127
:10259000012001902020606515E0A06850B900BFBF
:1025A000002000902068C06800902068806800903B
:1025B00000BF00BF606D10B10120019002E001205A
:1025C00084F8510000BF00BF002084F8500000BF15
:1025D0000198F0E67047704730B502460B4600BFE1
:1025E00092F83C00012801D1022030BD012082F880
:1025F0003C0000BF022082F83D001068446810686B
:10260000816824F070041868044310684460184D11
:102610001068A8421BD01068B0F1804F17D0154D3C
:102620001068A84213D0144D1068A8420FD0134D63
:102630001068A8420BD0124D1068A84207D0114D67
:102640001068A84203D0104D1068A84205D121F0AF
:1026500080015868014310688160012082F83D00C4
:1026600000BF002082F83C0000BF00BFBDE70000B3
:10267000000001400004004000080040000C004041
:1026800000040140004001400018004010B504461D
:102690000CB9012010BD94F83D0028B9002084F841
:1026A0003C00204600F026F8022084F83D00211D61
:1026B000206801F05FF9012084F8460000BF84F82B
:1026C0003E0001213F200155402001554120015588
:1026D00000BF00BF012084F8420043200155442080
:1026E00001554520015500BF012084F83D00002020
:1026F000D0E7000010B586B00446142101A8FDF70C
:102700003CFE2068B0F1804F2ED100BF0020009029
:102710001648006840F00100144908600846006847
:1027200000F00100009000BF00BF00BF002000903B
:102730000E481038006840F001000C49103908605C
:102740000846006800F00100009000BF00BF0620AE
:102750000190022002900020039004900120059037
:1027600001A90348FEF762FE06B010BD40380240E2
:1027700000000240014691F83D00012801D00120EF
:102780007047022081F83D000868C06840F00100F1
:102790000B68D8601A4B086898421BD00868B0F1E3
:1027A000804F17D0174B0868984213D0164B086813
:1027B00098420FD0154B086898420BD0144B08680C
:1027C000984207D0134B0868984203D0124B086810
:1027D00098420CD10868806800F00702062A0CD0E5
:1027E0000868006840F001000B68186005E00868A0
:1027F000006840F001000B6818600020C0E700008E
:10280000000001400004004000080040000C0040AF
:102810000004014000400140001800402DE9F04153
:1028200004460D46002700BF94F83C00012802D161
:102830000220BDE8F081012084F83C0000BF0220A6
:1028400084F83D002068866826F0770626F47F46E7
:10285000206886602868502833D00CDC202850D0AF
:1028600004DC00284BD0102851D149E0302849D051
:1028700040284CD139E060282DD0702807D0B0F521
:10288000805F03D0B0F5005F41D10DE041E0D5E9B4
:1028900002136A68206801F0E1F82068866846F053
:1028A00077062068866034E0D5E902136A682068FC
:1028B00001F0D4F82068806840F480402168886086
:1028C00027E0EA686968206801F007FC5021206869
:1028D00001F0FAFB1DE0EA686968206801F010FC6D
:1028E0006021206801F0F0FB13E0EA686968206865
:1028F00001F0F3FB4021206801F0E6FB09E000BF96
:1029000000BF00BF2968206801F0DEFB01E001275D
:1029100000BF00BF012084F83D0000BF002084F804
:102920003C0000BF384684E7704770B50446206815
:10293000C5682068066906F00200022819D105F072
:102940000200022815D1401F21680861012020776C
:102950002068806900F0030018B12046FFF7E4FF0B
:1029600005E0204600F032F9204600F015FA00207C
:10297000207706F00400042819D105F0040004288B
:1029800015D1C04321680861022020772068806942
:1029900000F4407018B12046FFF7C6FF05E020465E
:1029A00000F014F9204600F0F7F90020207706F037
:1029B0000800082819D105F00800082815D1C043DF
:1029C00021680861042020772068C06900F00300B6
:1029D00018B12046FFF7A8FF05E0204600F0F6F802
:1029E000204600F0D9F90020207706F010001028CA
:1029F00019D105F01000102815D1C04321680861D5
:102A0000082020772068C06900F4407018B1204683
:102A1000FFF78AFF05E0204600F0D8F8204600F0D6
:102A2000BBF90020207706F0010048B105F0010055
:102A300030B16FF0010021680861204600F0AEF966
:102A400006F08000802809D105F08000802805D19B
:102A5000C043216808612046FFF7BCFD06F0400036
:102A6000402809D105F04000402805D1C043216825
:102A70000861204600F09EF906F02000202809D1C8
:102A800005F02000202805D1C043216808612046B8
:102A9000FFF7A1FD70BD000010B586B004461421FB
:102AA00001A8FDF76AFC2068B0F1804F1DD100BF7E
:102AB000002000903E48006840F001003C4908605A
:102AC0000846006800F00100009000BF00BF012030
:102AD00001900220029000200390049001200590B4
:102AE00001A93448FEF7A2FC60E03349206888421F
:102AF0001ED100BF002000902D48006840F0080063
:102B00002B4908600846006800F00800009000BFEC
:102B100000BF4FF44040019002200290002003903B
:102B200004900220059001A92448FEF77FFC3DE0B7
:102B300023492068884239D100BF002000901C48FA
:102B4000006840F480701A4908600846006800F484
:102B50008070009000BF00BF00BF002000900846BA
:102B6000006840F0800008600846006800F08000BF
:102B7000009000BF00BF01200190022002900020C1
:102B8000039004900220059001A90E48FEF74EFC28
:102B90004FF4E05001900220029000200390049036
:102BA0000220059001A90848FEF740FC06B010BDC0
:102BB000303802400000024000080040000C024093
:102BC000000C004000200240001C024070472DE92C
:102BD000F04104460D461646002700BF94F83C001D
:102BE000012802D10220BDE8F081012084F83C00D8
:102BF00000BF36B1042E1BD0082E31D00C2E5ED172
:102C000045E02946206801F0C1F92068806940F05C
:102C10000800216888612068806920F0040021682C
:102C2000886120688069296908432168886148E0D3
:102C30002946206800F01EFF2068806940F400608B
:102C4000216888612068806920F48060216888613B
:102C500020688069296940EA01202168886130E0A4
:102C60002946206801F0CAF92068C06940F00800D0
:102C70002168C8612068C06920F004002168C8612B
:102C80002068C069296908432168C86119E029469C
:102C9000206801F0EFF92068C06940F40060216805
:102CA000C8612068C06920F480602168C86120681C
:102CB000C069296940EA01202168C86101E0012753
:102CC00000BF00BF00BF002084F83C0000BF3846B2
:102CD00089E710B504460CB9012010BD94F83D00F9
:102CE00028B9002084F83C00204600F025F8022096
:102CF00084F83D00211D206800F03CFE012084F88E
:102D0000460000BF84F83E0001213F2001554020CD
:102D100001554120015500BF00BF012084F8420049
:102D200043200155442001554520015500BF012095
:102D300084F83D000020D0E708B5144A01689142AC
:102D40000FD100BF002100911149096841F0040131
:102D50000F4A11601146096801F00401009100BF9B
:102D600013E00C4A016891420FD100BF002100918D
:102D70000749096841F00801054A116011460968D0
:102D800001F00801009100BF00BF08BD000800402D
:102D900040380240000C00407047000010B5044667
:102DA00003492068884201D1FEF754FC10BD0000A1
:102DB0000000014070477047704700002DE9F84F50
:102DC0000446206805682068C668206847694FF097
:102DD0000009CA4605F00F09B9F1000F0AD105F044
:102DE000200038B106F0200020B1204601F0B2FAF0
:102DF000BDE8F88FB9F1000F7CD007F0010018B9D9
:102E000006F49070002875D005F0010030B106F48A
:102E1000807018B1606C40F00100606405F004003F
:102E200030B107F0010018B1606C40F0020060643E
:102E300005F0020030B107F0010018B1606C40F0FD
:102E40000400606405F0080048B106F0200010B9E5
:102E500007F0010018B1606C40F008006064606C1D
:102E6000002846D005F0200028B106F0200010B15F
:102E7000204601F06FFA20684069C0F3801A606C48
:102E800000F0080010B9BAF1000F2DD0204601F073
:102E90000FFB2068406900F04000402820D100BFAF
:102EA00000BF2168143151E8001F21F04000216863
:102EB000143141E80002002AF3D100BFE06B50B1A9
:102EC0007748E16B0865E06BFEF7F1F888B1E06BDD
:102ED000016D88470DE02046FFF76EFF09E009E02D
:102EE0002046FFF769FF04E02046FFF765FF00205A
:102EF00060647DE7206B012878D105F01000002880
:102F000074D006F010000028FAD000BF0020009016
:102F100020680068009020684068009000BF00BFF3
:102F20002068406900F04000402860D1E06B0068F4
:102F300040681FFA80F8B8F1000F56D0A08D4045C8
:102F400053DDA4F82E80E06BC069B0F5807F43D0DC
:102F500000BF00BF21680C3151E8001F21F48070D0
:102F600021680C3141E80002002AF3D100BF00BF04
:102F700000BF2168143151E8001F21F001002168D1
:102F8000143141E80002002AF3D100BF00BF00BFA6
:102F90002168143151E8001F21F0400021681431EC
:102FA00041E80002002AF3D100BF202084F842004B
:102FB0000020206300BF00BF21680C3151E8001FD2
:102FC00021F0100021680C3141E80002002AF3D101
:102FD00000BFE06BFEF715F802206063A08DE28D64
:102FE000801A81B22046FFF7E6FE01E742E0A08D9D
:102FF000E18D401A1FFA80F8E08DD0B3B8F1000FD0
:1030000037D000BF00BF21680C3151E8001F21F408
:10301000907021680C3141E80002002AF3D100BF12
:1030200000BF00BF2168143151E8001F21F00100EA
:103030002168143141E80002002AF3D100BF2020AA
:1030400084F842000020206300BF00BF21680C31DB
:1030500051E8001F21F0100021680C3141E8000206
:10306000002AF3D100BF0220606341462046FFF7EB
:10307000A2FEBDE605F0800030B106F0800018B178
:10308000204601F0E5F9B3E605F0400030B106F066
:10309000400018B1204601F041FAA9E600BFA7E6BA
:1030A0003D45000810B504460CB9012010BDA069CB
:1030B00000B100E000BF94F8410028B9002084F876
:1030C0004000204600F02AF8242084F841002068BF
:1030D000C06820F400502168C860204601F024F840
:1030E0002068006920F490402168086120684069E8
:1030F00020F02A00216848612068C06840F4005030
:103100002168C86000206064202084F8410084F8B1
:1031100042000020606300BFC8E7000010B586B021
:103120000446142101A8FDF728F96E492068884259
:103130007AD100BF002000906B48006840F000404A
:10314000694908600846006800F00040009000BF30
:1031500000BF00BF0020009063481038006840F0B6
:1031600010006149103908600846006800F010003E
:10317000009000BF00BF03200190022002900020B9
:103180000390032004900820059001A95748FEF7FA
:103190004DF95748574908604FF02060486040217A
:1031A000544881600021C1604FF4806101610021B9
:1031B00041618161C1614FF440310162002141628E
:1031C000FEF7AAF808B1FDF770F900BF4948A063FF
:1031D000846300BF46489030474908600005486056
:1031E000002145488160C1604FF480610161002188
:1031F00041618161C1614FF440310162002141624E
:10320000FEF78AF808B1FDF750F900BF3A48E063CD
:10321000846300BF002211465320FEF7CDFA5320ED
:10322000FEF7B6FA5CE0FFE734492068884257D1E0
:1032300000BF002000902C48001D006840F01000E6
:103240002949091D08600846006800F01000009038
:1032500000BF00BF00BF0020009023481038006866
:1032600040F002002049103908600846006800F06C
:103270000200009000BF00BF00BF00200090084681
:10328000006840F0010008600846006800F0010096
:10329000009000BF00BF802001900220029000201B
:1032A0000390032004900720059001A91448FEF71D
:1032B000BDF84FF4007001900220029000200390AE
:1032C000032004900720059001A90E48FEF7AEF8F0
:1032D000002211462520FEF76FFA2520FEF758FA46
:1032E00006B010BD007C0040403802400010024093
:1032F000106002402C0B00208C0B002000100140BD
:1033000000040240000002407047704700BFFEE723
:1033100010B50D480D4908600920486000210B4890
:103320008160C1604FF48031016109014161002178
:10333000017641768176C17601774177FDF752FBC0
:1033400008B1FDF7B2F810BD006400405C08002031
:1033500010B50D480D4908600920486000210B4850
:103360008160C1604FF48031016109014161002138
:10337000017641768176C17601774177FDF732FBA0
:1033800008B1FDF792F810BD0068004084080020E5
:1033900008B500BF002000901E48006840F40010EF
:1033A0001C4908600846006800F40010009000BF47
:1033B00000BF00BF002000900846006840F4800075
:1033C00008600846006800F48000009000BF00BF5D
:1033D000002211460B20FEF7EFF90B20FEF7D8F97B
:1033E000002211461120FEF7E7F91120FEF7D0F96F
:1033F000002211463820FEF7DFF93820FEF7C8F921
:10340000002211463920FEF7D7F93920FEF7C0F91E
:1034100008BD00003038024000B587B0142102A872
:10342000FCF7ABFF00BF002001909348006840F01C
:103430001000914908600846006800F010000190F3
:1034400000BF00BF00BF002001900846006840F0A8
:10345000010008600846006800F00100019000BF0C
:1034600000BF00BF002001900846006840F0020045
:1034700008600846006800F00200019000BF00BF2D
:1034800000BF002001900846006840F00800086076
:103490000846006800F00800019000BF00BF00BFB0
:1034A000002001900846006840F0040008600846CB
:1034B000006800F00400019000BF00BF00BF0020C2
:1034C00001900846006840F0200008600846006847
:1034D00000F02000019000BF00BF00BF002001905D
:1034E0000846006840F4807008600846006800F4F0
:1034F0008070019000BF00BF00BF0020019008460F
:10350000006840F0800008600846006800F0800015
:10351000019000BF00BF00BF002001900846006876
:1035200040F0400008600846006800F0400001904C
:1035300000BF00BF012210215048FEF77FF8012292
:1035400003214F48FEF77AF800222C214D48FEF760
:1035500075F8012210214B48FEF770F800224FF455
:10356000FF714948FEF76AF8012204214748FEF737
:1035700065F8012203214648FEF760F8102002900A
:103580000120039004900220059002A93B48FDF71A
:103590004DFF03200290012003900490022005902B
:1035A00002A93748FDF742FF3C200290012003901A
:1035B00004900020059002A93248FDF737FF4FF430
:1035C000FE7002900120039000200490059002A953
:1035D0002D48FDF72BFF042002900120039004905A
:1035E0000220059002A92948FDF720FF0220029041
:1035F0000120039004900020059002A92248FDF7C5
:1036000015FF10200290002003900120049002A9D1
:103610001E48FDF70BFF202002904FF48810039006
:103620000020049002A91B48FDF700FF4FF4C07072
:1036300002900220039000200490032005900820AF
:10364000069002A90D48FDF7F1FE0220029001202C
:10365000039004900220059002A90D48FDF7E6FEB4
:1036600001200290039000200490059002A90848D0
:10367000FDF7DCFE07B000BD30380240001002400C
:1036800000140240001C02400018024000080240E2
:10369000000402400000024010B5104810490860C4
:1036A0004FF48270486000210D4881604FF4006142
:1036B000C16000210161012141614902816118213C
:1036C000C16100210162416281620A21C162FEF78B
:1036D0006BFD08B1FCF7E9FE10BD000000340140AD
:1036E000AC08002000B58DB0002009900A900B9026
:1036F0000C90079008901C216846FCF73EFE4FF0A6
:10370000804020490860B320486000211D48816046
:103710004FF4FA61C1600021016180218161FEF7EF
:10372000B5FF08B1FCF7C1FE4FF48050099009A91C
:103730001448FFF773F808B1FCF7B7FE1148FFF71C
:10374000C8FA08B1FCF7B1FE00200790089007A95D
:103750000C48FEF741FF08B1FCF7A7FE602000907F
:103760000020019002900490002269460548FFF76E
:103770002EFA08B1FCF799FE0248FFF78DF90DB05B
:1037800000BD0000C409002000B589B000200790EA
:1037900008901C216846FCF7F0FD1C481C49086095
:1037A0005320486000211A48816044F61F61C160BF
:1037B0000021016180218161FFF78BFA08B1FCF7DC
:1037C00074FE00200790089007A91148FEF704FF37
:1037D00008B1FCF76AFE6020009000200190029082
:1037E0000490082269460A48FFF7F1F908B1FCF78E
:1037F0005CFE0C2269460648FFF7E9F908B1FCF7C0
:1038000054FE0348FFF748F909B000BD0008004026
:103810000C0A002000B589B00020079008901C21F8
:103820006846FCF7AAFD24482449086053204860F4
:1038300000212248816044F61F61C16000210161BE
:1038400080218161FFF745FA08B1FCF72EFE0020C8
:103850000790089007A91948FEF7BEFE08B1FCF7CB
:1038600024FE60200090002001900290049000222D
:1038700069461248FFF7ABF908B1FCF716FE0422BF
:1038800069460E48FFF7A3F908B1FCF70EFE0822BF
:1038900069460A48FFF79BF908B1FCF706FE0C22BF
:1038A00069460648FFF793F908B1FCF7FEFD0348A7
:1038B000FFF7F2F809B000BD000C0040540A0020E8
:1038C00010B50B480B4908604FF4E1304860002107
:1038D00008488160C16001610C2141610021816162
:1038E000C161FFF7DFFB08B1FCF7DFFD10BD000091
:1038F000007C00409C0A002010B50A480A49086074
:103900000A484860002108488160C16001610421C3
:10391000416100218161C161FFF7C4FB08B1FCF77F
:10392000C4FD10BD00100140E40A0020A086010083
:1039300000BFFEE700BFFEE77047000010B5024879
:10394000FEF784FB10BD0000AC08002070477047F4
:103950000348006840F470000149086070470000A7
:1039600088ED00E010B50248FEF7DFFF10BD000053
:10397000EC0B002010B502682D4B98420ED0B0F130
:10398000804F0BD02B4B984208D02B4B984205D040
:103990002A4B984202D02A4B984203D122F070025F
:1039A0004B681A43224B984220D0B0F1804F1DD073
:1039B000204B98421AD0204B984217D01F4B984268
:1039C00014D01F4B984211D01E4B98420ED01E4B64
:1039D00098420BD01D4B984208D01D4B984205D001
:1039E0001C4B984202D01C4B984203D122F44072E7
:1039F000CB681A4322F080034C6943EA0402026058
:103A00008B68C3620B688362094B984202D00C4BEF
:103A1000984201D10B69036301234361036903F0F9
:103A200001031BB1036923F00103036110BD000012
:103A3000000001400004004000080040000C00406D
:103A400000040140004001400044014000480140A2
:103A500000180040001C00400020004030B50C461B
:103A6000816821F47F4142EA03252543294381608F
:103A700030BD000030B5026A056A25F01005056208
:103A80004368846924F4E04424F440740D6844EAF3
:103A9000052422F020028D6842EA0512124DA84248
:103AA00000D103E0114DA84207D100BF22F08002EF
:103AB000CD6842EA051222F040020B4DA84202D026
:103AC0000A4DA84209D123F4806323F400634D69B1
:103AD00043EA85038D6943EA8503436084614D6849
:103AE0008563026230BD0000000001400004014017
:103AF00010B50248FFF762F910BD00009C0A0020D3
:103B000010B50248FFF75AF910BD0000E40A002082
:103B100000BFFEE770B5054635B1012D1AD0022D64
:103B20002ED0032D64D141E0002201213248FDF75F
:103B300085FD48F2200000F0E9F8FF2000F0E6F8EB
:103B4000C0F30E00C0F50044012211462A48FDF7DB
:103B500075FD4DE0002202212748FDF76FFD48F278
:103B6000200000F0D3F8FF2000F0D0F8C0F30E00E2
:103B7000C0F50044012202211F48FDF75FFD37E038
:103B8000002210211D48FDF759FD48F2200000F0E9
:103B9000BDF8FF2000F0BAF8C0F30E00C0F50044F5
:103BA000012210211548FDF749FD21E000220421E2
:103BB0001348FDF743FD48F2200000F0A7F80F4836
:103BC000006820F440500D490860FF2000F09EF886
:103BD000C0F30E00C0F500440848006840F40050EF
:103BE00006490860012204210548FDF727FD00BFB2
:103BF00000BF204670BD00000014024000100240CB
:103C00000008024010B58AB004460F48844201D132
:103C10000E2005900D48844201D10020059000201F
:103C200006900120079000200090019002900390E0
:103C300004900E2009900120089069462046FCF768
:103C40004DFC0AB010BD0000840800205C08002074
:103C500000B593B0302107A8FCF78FFB142102A810
:103C6000FCF78BFB00BF002001902648006840F065
:103C70008050244908600846006800F08050019098
:103C800000BF00BF00BF002001901F48006840F443
:103C900040401D4908600846006800F4404001901B
:103CA00000BF00BF012007900004089002200D9083
:103CB00041050E9106210F91B4211091022111911D
:103CC0000421129107A8FDF771FF08B1FCF7EDFB85
:103CD000FDF7C4FD08B1FCF7E8FB0F2002900220BD
:103CE0000390002004904FF4A05005904FF48050B2
:103CF0000690052102A8FDF7F7FD08B1FCF7D5FBFA
:103D000013B000BD403802400070004001B582B0E1
:103D1000002001904FF47A70012301AA02A90090BB
:103D20000448FEF737FB08B100200EBDBDF80400C3
:103D3000FBE70000AC080020014600208A6A8B697E
:103D4000CBB932B1012A0DD0022A03D0032A10D1F7
:103D50000EE000BFCB6A03F08073B3F1807F00D127
:103D6000012007E0CB6AB3F1C07F00D1012001E060
:103D700000E000BF34E08B69B3F5005F1AD132B1C7
:103D8000012A07D0022A03D0032A11D10AE000BF7A
:103D900001200EE0CB6A03F08073B3F1807F00D185
:103DA000012006E0CB6AB3F1C07F00D1012000E022
:103DB00000BF15E032B1012A05D0022A04D0032A3F
:103DC0000CD103E000BF00BF012008E0CB6A03F084
:103DD0008073B3F1807F00D1012000E000BF00BFFD
:103DE000704700000146087810381823B0FBF3F242
:103DF0000848805CC865032A05D908686FF3090084
:103E0000001D886503E008686FF309008865886D08
:103E1000704700005246000870B50546AC6B0020A4
:103E2000E087E0862046FEF70FF970BD7CB50446BA
:103E30000E4615463346012202212046009500F029
:103E400039F828B1606D40F02000606503207CBD2A
:103E5000164800681821B0FBF1F01549B0FBF1F0ED
:103E60004FF47A71484301906068B0F5827F0DD1BC
:103E70003346002280212046009500F01BF898B1BF
:103E8000606D40F0200060650320E0E700BF01980E
:103E900000B908E00198401E019020688068C0F3D6
:103EA000C0100028F3D100BF0020D0E71000002090
:103EB00040420F002DE9F84F04460D4690461E463D
:103EC000DDF82890FDF7C0FBA0EB0900371AFDF7DD
:103ED000BBFB82462C480068C0F3CB30784300908F
:103EE00045E0701C002842D0FDF7AEFBA0EB0A00B5
:103EF000B84200D2A7BB2068406820F0E0002168EB
:103F000048606068B0F5827F0DD1A068B0F5004FC1
:103F100003D0A068B0F5806F05D12068006820F05C
:103F2000400021680860A06AB0F5005F0DD100BFB5
:103F30002068006820F4005021680860206800684C
:103F400040F400502168086000BF012084F851004F
:103F500000BF002084F8500000BF0320BDE8F88FA8
:103F6000FFE7009800B900270098401E00902068E5
:103F700080682840A84201D1012000E0002040458F
:103F8000AFD10020EAE700001000002030B5026A3F
:103F9000056A25F0010505624368846924F0700410
:103FA00024F003040D682C4322F002028D682A439A
:103FB000104DA84200D103E00F4DA84206D100BF2A
:103FC00022F00802CD682A4322F00402094DA842DB
:103FD00002D0094DA84207D123F4807323F4007363
:103FE0004D692B438D692B43436084614D68456364
:103FF000026230BD000001400004014030B5026A99
:10400000056A25F4807505624368C46924F070046C
:1040100024F003040D682C4322F400728D6842EAF8
:104020000522124DA84200D103E0114DA84207D14C
:1040300000BF22F40062CD6842EA052222F48062C9
:104040000A4DA84202D00A4DA84209D123F4805358
:1040500023F400534D6943EA05138D6943EA0513C0
:104060004360C4614D68C563026230BD0000014019
:104070000004014030B5036A056A25F480550562E5
:104080004468C26922F4E04222F440720D6842EAB8
:10409000052223F400538D6843EA0533084DA842F6
:1040A00002D0084DA84204D124F480444D6944EA6A
:1040B00085144460C2614D680564036230BD000030
:1040C00000000140000401400A46816821F07001AF
:1040D00042F0070319438160704730B50B46144620
:1040E000026A056A25F001050562816921F0F00187
:1040F00041EA041122F00A021A438161026230BDD2
:1041000030B50B461446026A056A25F010050562B3
:10411000816921F4704141EA043122F0A00242EAAF
:1041200003128161026230BD2DE9F84F0446206818
:10413000006920F44050E168084321680861216962
:10414000A068084361690843E1690843009020685A
:10415000C06849F20C618843009908432168C8602F
:104160002068406920F44070A169084321684861D3
:1041700076492068884203D075492068884203D177
:10418000FDF7ACFC814602E0FDF798FC8146E06952
:10419000B0F5004F6CD102206168A0FB01500346CE
:1041A0001920A9FB007001462A463846FCF76EF834
:1041B0006421B0FBF1F04FEA001A02206168A0FB15
:1041C00001510B461920A9FB00712A463846FCF71D
:1041D0005DF8834602206168A0FB01500346192068
:1041E000A9FB00712A463846FCF750F86421B0FB61
:1041F000F1F000EBC00101EB0010ABEB80003221CD
:1042000001EBC0006421B0FBF1F000F0F8000AEB14
:10421000400A02206168A0FB015003461920A9FB57
:10422000007001462A463846FCF730F883460220E3
:104230006168A0FB015003461920A9FB00712A46C2
:104240003846FCF723F86421B0FBF1F000EBC00125
:1042500001EB0010ABEB8000322101EBC0006421C8
:10426000B0FBF1F000F007005044216888606AE07C
:1042700004206168A0FB015003461920A9FB0070CF
:1042800001462A463846FCF701F882460420616858
:10429000A0FB015003461920A9FB007001462A46E5
:1042A0003846FBF7F3FF6421B0FBF1F000EBC001EF
:1042B00001EB0010AAEB8000322101EB0010642119
:1042C000B0FBF1F000F0F00A04206168A0FB01707F
:1042D00003461920A9FB00513A462846FBF7D6FFB2
:1042E0006421B0FBF1F00AEB001A04206168A0FB26
:1042F00001510B461920A9FB00712A463846FBF7ED
:10430000C5FF834604206168A0FB015003461920C5
:10431000A9FB007001462A463846FBF7B7FF642127
:10432000B0FBF1F000EBC00101EB0010ABEB800043
:10433000322101EB00106421B0FBF1F000F00F001E
:10434000504421688860BDE8F88F000000100140EB
:1043500000140140F8B5044694F84200222875D1B3
:10436000A068B0F5805F0CD1206950B90025A66A1D
:1043700020684068C0F308003080A06A801CA062FA
:1043800015E0A56A0026A068B0F5805F03D0A0689C
:1043900028B9206918B920684068287004E02068AE
:1043A000406800F07F002870A06A401CA062E08D89
:1043B000401E80B2E085002846D12068C06820F009
:1043C00020002168C8602068C06820F480702168DF
:1043D000C8602068406920F0010021684861202001
:1043E00084F8420000206063206B012826D1002061
:1043F000206300BF00BF21680C3151E8001F21F08D
:10440000100021680C3141E80002002AF3D100BFFE
:104410002068006800F0100010280AD100BF0020BA
:10442000009020680068009020684068009000BFFD
:1044300000BFA18D2046FEF7BEFC02E02046FEF73D
:1044400063FF0020F8BD01E00020FBE70220F9E750
:10445000014691F84100212828D18868B0F5805F95
:104460000BD1086948B90A6A1088C0F308000B68C4
:104470005860086A801C086205E00B6A581C0862D4
:1044800018780B685860C88C401E80B2C88458B930
:104490000868C06820F080000B68D8600868C068B1
:1044A00040F040000B68D860002070470220FCE715
:1044B00000BF00BF02680C3252E8002F22F4907156
:1044C00002680C3242E80013002BF3D100BF00BF9A
:1044D00000BF0268143252E8002F22F00101026886
:1044E000143242E80013002BF3D100BF016B012905
:1044F0000ED100BF00BF02680C3252E8002F22F03C
:10450000100102680C3242E80013002BF3D100BF07
:10451000202180F8421000210163704710B5044645
:104520002068C06820F040002168C860202084F81E
:1045300041002046FEF7E9FE002010BD70B505469B
:10454000AC6B0020E085E0842046FEF735FC70BDB2
:1045500010B5002804DB0A07130E054A135406E0C1
:104560000A07140E034A00F00F031B1FD45410BD9A
:1045700000E400E018ED00E002480068C0F302200B
:10458000704700000CED00E0FDF770F8FFF760FBEE
:10459000FEF742FFFEF7FCFEFEF7BAFEFFF7A2F8B9
:1045A000FFF77AF8FFF736F9FFF7A6F9FEF7D0FE26
:1045B000FFF7EAF8FFF784F92048FFF723FB2048CC
:1045C000FFF720FB1D48FCF7E6FC1D48FCF7E3FC69
:1045D00002211A48FBF76CFF02211948FBF768FF1C
:1045E0002AE00020FFF796FA00EE100AB8EE400A23
:1045F000144880ED000A0120FFF78CFA00EE100A43
:10460000B8EE400A0F4880ED010A0220FFF782FA57
:1046100000EE100AB8EE400A0A4880ED020A0320B4
:10462000FFF778FA00EE100AB8EE400A054880ED70
:10463000030A0120FCF7E6FED3E700005C08002037
:10464000840800204C0800204FF04070E1EE100A72
:10465000704700061016000610160000000000004B
:10466000000001020304060708090000000001021F
:104670000304000094460008000000202800000009
:10468000E8010008BC460008280000204013000094
:1046900004020008000000000000000010000000FC
:1046A000010000000024F4000000000000000000F1
:0C46B000000000000000000000000000FE
:04000005080001AD41
:00000001FF
