:020000040800F2
:1000000018080020D5020008FD2B0008D52A00089A
:10001000B92B00089F1D0008F72F00080000000002
:100020000000000000000000000000007D2D00081E
:10003000A11D000800000000112C00087F2D000801
:10004000EF020008EF020008EF020008EF020008CC
:10005000EF020008EF020008EF020008EF020008BC
:10006000EF020008EF020008EF020008EF020008AC
:10007000EF020008EF020008EF020008EF0200089C
:10008000EF020008EF020008EF020008EF0200088C
:10009000EF020008EF020008EF020008EF0200087C
:1000A000EF020008EF020008EF020008EF0200086C
:1000B000EF020008EF020008EF020008EF0200085C
:1000C000EF020008EF020008EF020008EF0200084C
:1000D000EF020008EF020008EF020008EF0200083C
:1000E000EF020008EF020008EF020008EF0200082C
:1000F000EF020008EF020008EF020008EF0200081C
:10010000EF020008EF020008EF020008EF0200080B
:10011000EF020008EF020008EF020008EF020008FB
:10012000EF020008EF020008EF020008EF020008EB
:10013000EF020008EF020008EF020008EF020008DB
:10014000EF020008EF020008EF020008EF020008CB
:10015000EF020008EF020008EF020008EF020008BB
:10016000EF020008EF020008EF020008EF020008AB
:10017000EF020008EF020008EF0200080000000094
:10018000EF020008EF02000800F002F800F092F819
:100190000AA090E8000C82448344AAF10107DA45E2
:1001A00001D100F087F8AFF2090EBAE80F0013F0A2
:1001B000010F18BFFB1A43F00103184784310000F8
:1001C000A4310000103A24BF78C878C1FAD8520789
:1001D00024BF30C830C144BF04680C6070470000C1
:1001E0000023002400250026103A28BF78C1FBD840
:1001F000520728BF30C148BF0B6070476E2900F01E
:100200002582702900F06F83662903F00B80652931
:1002100003F00880672903F00580612903F004805A
:1002200003681B0A28BF41F08001692900F0D281D0
:10023000642900F0CF81752900F0CC816F2900F08E
:10024000FC82782900F03B83E92900F09782E429B9
:1002500000F09482F52900F09182EF2900F0F982F4
:10026000F82900F03A830368DB0928BF41F08001D8
:10027000632901F03D80732901F04280E32901F0F8
:100280004D80F32901F05280002070471FB502F025
:10029000C4FF01F09DF804000020002102F030FFAF
:1002A000401C60600020002102F014FFE0601FBDD0
:1002B00010B510BD01F05EF81146FFF7E7FF02F040
:1002C000EBFE01F03BF903B4FFF7F2FF03BC01F0D2
:1002D00083F900000948804709480047FEE7FEE728
:1002E000FEE7FEE7FEE7FEE7FEE7FEE7FEE7FEE7E6
:1002F00004480549054A064B70470000192E0008BE
:1003000089010008180200201808002018040020A5
:100310001804002053EA020C00F069802DE9F04B2C
:100320004FF00006002B1FBFB3FA83F503FA05F464
:1003300024FA05F65E4012BF1643B2FA82F502FABD
:1003400005F4C5F120051EBF22FA05FC44EA0C04A1
:10035000203556EA044C4FEA144418BF641C4FF091
:1003600000084FF00009904271EB030C39D30029CB
:1003700019BFB1FA81F701FA07F6B0FA80F700FA6F
:1003800007F6C7F120071EBF20FA07FC46EA0C0655
:100390002037B6FBF4FCA7EB0507103F07F01F0B57
:1003A000CBF120060CFA0BFB2CFA06F644BFB34641
:1003B0000026202FA4BF5E464FF0000B5BEA060C20
:1003C00008BF4FF0010B19EB0B09ABFB027C48EBAC
:1003D0000608C01B06FB02CC0BFB03CC71EB0C0127
:1003E000C1E70B46024641464846BDE8F08B13B5CF
:1003F0004FF000004FF00001AFF30080BDE81C405B
:10040000704700007CB51D4616460C00009001D0D8
:100410002044401E074B7B442A46694601903046E3
:1004200000F02DF905461CB10020694600F03AF9AC
:1004300028467CBD9502000010B5431C02E010F870
:10044000011B71B18107FAD14FF0013202C88C1A39
:100450008C4314EAC211F9D0C01A0A0603D0C01E98
:1004600010BDC01A10BD0A0401D0801E10BD0902C3
:10047000FCD0401E10BD4FF000020429C0F01280D5
:1004800010F0030C00F01B80CCF1040CBCF1020F47
:1004900018BF00F8012BA8BF20F8022BA1EB0C011C
:1004A00000F00DB85FEAC17C24BF00F8012B00F812
:1004B000012B48BF00F8012B70474FF0000200B538
:1004C000134694469646203922BFA0E80C50A0E877
:1004D0000C50B1F12001BFF4F7AF090728BFA0E825
:1004E0000C5048BF0CC05DF804EB890028BF40F8F1
:1004F000042B08BF704748BF20F8022B11F0804F33
:1005000018BF00F8012B704770477047704770B5EF
:10051000044685690068C10601D5302600E0202622
:10052000C00707D070BDD4E9012130469047206A4A
:10053000401C20626D1EF6D570BD70B504468569FD
:100540000078C00707D170BDD4E901212020904771
:10055000206A401C20626D1EF6D570BD09684A05F0
:1005600001D540B27047C905FCD500B27047096893
:100570004A0501D5C0B27047C905FCD580B27047A5
:1005800070B50C460546012A05D02878800600D5AE
:10059000EA69002302E0012305E05B1C934202D2DA
:1005A000E05C0028F9D1A869E618C01AA861286A99
:1005B000184428622846FFF7AAFF04E0D5E9012184
:1005C00014F8010B9047B442F8D32846FFF7B5FF63
:1005D00070BD00002DE9F041064600241068752921
:1005E000314616A510D0FFF7B9FF002802DA4042C5
:1005F00013A507E031688A0701D512A502E0490773
:1006000004D511A5012401E0FFF7B1FF00210A2262
:1006100006F1240709E0B0FBF2FCB0FBF2F302FBA9
:100620001C00303078541846491C0028F3D123466A
:100630002A463046BDE8F04100F069BA00000000EB
:100640002D0000002B00000020000000116802684F
:10065000006A530501D508700AE0D30501D508806A
:1006600006E0130603D5C217C1E9000200E00860E6
:100670000120704701694A1C02610878704700B583
:100680008FB0CDE901310021059105497944CDE9CB
:1006900003101146684600F031F90FB000BD0000AC
:1006A000E5FFFFFF0A6802F8010B0A607047D1E915
:1006B00000239A4202D2531C0B6010707047000056
:1006C0002DE9FF5F15468A460446DFF8AC80F84402
:1006D0000027D8E900103E46CDE9001010E03AF8B6
:1006E00016106A4602A800F025FE411C07D02178AA
:1006F000890603D5E269391891420DD80744761C62
:100700002078800602D5E069B84205DDAE42E6DB1E
:100710003AF816000028E2D1A069C01BA06120466B
:10072000FFF7F5FED8E90010CDE90010002017E032
:100730003AF818106A4602A800F0FCFDB0F1FF3F3D
:1007400081460BD000250DF1080B05E0D4E901210D
:100750001BF8050090476D1C4D45F7D308F10100CB
:10076000B0428046E4DB206A384420622046FFF72E
:10077000E4FEBDE8FF9F0000722B00002DE9F04170
:100780008046D21D22F007020025D2E90002F52999
:1007900015A614D0011E72F1000106DA0023D0EB79
:1007A000030063EB020211A608E0D8F800108B07E3
:1007B00001D50FA602E0490701D50EA60125114675
:1007C000002408F1240704E000F05CF930323A55C7
:1007D000641C50EA0102F7D12B46324621464046BE
:1007E000BDE8F04100F093B9000000002D000000CA
:1007F0002B0000002000000030B4002100F1240490
:1008000008E002F00705D208303542EA4372DB08FF
:100810006554491C52EA0305F3D10468002310A271
:10082000250707D5A40600D421B1C46901230DA270
:10083000641EC46130BC00F06AB910B5044621469C
:100840001068FFF794FE02462046BDE810400023E2
:10085000D2E7D21D22F00701D1E90023CCE7000046
:100860000000000030000000F0B40D4601880905CA
:1008700002D5214C7C4402E01F4C7C440E34002104
:1008800000F1240608E002F00F071209E75D42EAD2
:1008900003721B097754491C52EA0307F3D102780B
:1008A0000023120704D5702D06D009B1022311349C
:1008B0002246F0BC00F02BB901231034F8E770B5E4
:1008C00004460D4621461068FFF751FE02462946B0
:1008D0002046BDE870400023C6E7D21D22F0070382
:1008E000D3E90023C0E70368126843F020030360E4
:1008F0000823C3610023B7E7D42900002DE9F05F86
:10090000894604464FF0000ADFF874B1FB44C0F892
:1009100020A02046E1688847002874D0252806D00A
:10092000D4E901219047206A401C2062F1E70026AB
:100930005F462046E16888472028054607DB312DC1
:1009400005D2781910F8200C08B10643F1E7B0077A
:1009500001D526F00406C4F81CA00027C4F818A08E
:100960002A2D09D0284602F06FFB38B304EB870824
:10097000303DC8F8185019E059F8041B204604EB24
:1009800087029161E1688847012F054618D1E06927
:10099000002820DA26F020061DE0D8F8180000EB29
:1009A000800005EB40003038C8F818002046E168A8
:1009B0008847054602F048FB0028EED1012F0AD0F7
:1009C0002E2D08D12046E16888477F1C0546022F5E
:1009D00046F02006C4DBA069002803DA404246F056
:1009E0000106A061F00701D026F010066C2D0BD097
:1009F000682D09D04C2D39D06A2D35D0742D35D0C5
:100A00007A2D33D016E038E0E1682F46204688473B
:100A1000B842054609D16C2F26D04FF48060E168BA
:100A2000064320468847054604E06C2F1AD04FF451
:100A3000807006430DB3A5F14100192802D8203576
:100A400046F400664A462946204626604E46FFF791
:100A5000D5FB80B101280BD0F61D26F0070000F170
:100A6000080956E74020E4E78020D8E70020D6E7D1
:100A700006F104094DE7284652E7206ABDE8F09FD9
:100A80006429000030B5B0F10A024FEA900E71F10E
:100A900000034EEA817EB0EB0E0061EB91014FEA5C
:100AA000101E4EEA017E10EB0E0041EB11114FEAD1
:100AB000102E4EEA016E10EB0E0041EB11214FEAB1
:100AC000104E4EEA014E10EB0E0041EB1141401862
:100AD00041F100014FEAD00040EA41704FEAD101F4
:100AE00010EB80054FEA810444EA907444EB010462
:100AF0006D1944EB0404521BA3414FF0000348BF9F
:100B00000A3200D530BD401C41F1000130BD2DE955
:100B1000F0470D4699469246044600F124080168C4
:100B2000880604D5E06921F01001216000E0012071
:100B3000A84201DD471B00E00027A1697A1902EBFA
:100B40000900081AA0612078C00602D42046FFF7E9
:100B5000DEFC002608E0D4E901211AF806009047DF
:100B6000206A401C761C20624E45F4DB2078C006CB
:100B70000AD52046FFF7CBFC06E0D4E9012130205E
:100B80009047206A401C2062381EA7F10107F4DC60
:100B900007E0D4E9012118F805009047206A401CBD
:100BA0002062281EA5F10105F3DC2046FFF7C5FCF5
:100BB0002078000602D50220BDE8F0870120FBE77F
:100BC00070472DE9FF4F0C461E464FF0FF378BB0A4
:100BD000D2E90001DDF860800A908A46C1F30A5527
:100BE00005B93D46002108464FF00000BAF1000F5C
:100BF00000F4400005DA00EB80004FF4400101EA08
:100C000050004FEA9059B9F1010F00DDB9460A983A
:100C100050EA4A000ED044F61050A5F2FF35454385
:100C20002F14B8F1000F1ED07542291E1EDDC9F128
:100C300000021CE0B8F1010F4FF0000001D030219C
:100C400003E0F24305E02154401CB042FBDB304698
:100C50000022002121540B99C1F80880C1E900202D
:100C60000FB0BDE8F08FBD1B6D1CDEE74A4600DA11
:100C7000694206A800F0F0FB06AB93E8070003AB5F
:100C800083E8070050460A9900F0ADFC8DE80700A4
:100C9000A0F500501F3800900398002D0ADD42F2A5
:100CA0001F014A460844002303A90390684600F048
:100CB00016FF09E0A0F500504A461F38002303A99B
:100CC0000390684600F020FF8DE807000004000C48
:100CD00003D04FF0FF30410800E01046B8F1000F9C
:100CE00003D00022009215461EE0751E05D4FFF7C2
:100CF000C9FE303262556D1EF9D5B3460122084354
:100D000002D000227F1C04E02078302801D100228C
:100D10007F1E002A099784D01DE0112D07DAFFF706
:100D2000B1FE303262556D1C50EA0102F5D1084324
:100D300002D00098C8B10EE00021681E05E0235CD7
:100D4000625C63542254401E491C8142F7DBAB466F
:100D5000A81B401E0990002004F80B000B98099A6C
:100D6000C0F80880C0E9002B7AE711264FF0000890
:100D700057E72DE9F04F88460446D21D22F00701BF
:100D800091B0D1E90001CDE90A0102F035F902463E
:100D90000B98C00F01D02D2007E02068810701D5F6
:100DA0002B2002E0202101EAC000032A099001D093
:100DB000072A05DB03464146204600F00DFB0BE108
:100DC0002078800601D5E06900E00620B8F1650FC3
:100DD000814606D0B8F1660F18D0B8F1670F70D110
:100DE00031E00020B9F1110F009001DB112301E087
:100DF00009F101030AAA01A90CA8FFF7E2FEDDE947
:100E00000C70002609F10105834647E001204B469E
:100E100000904FF000470AAA01A90CA8FFF7D1FEE5
:100E2000DDE90DB00C995D46002610B909F101000D
:100E30000D18B9EB050003D4C0F1FF3609F1010527
:100E4000A5EB09002BE0B9F1010F01DA4FF0010920
:100E50000020B9F1110F0090484601DD112300E098
:100E600003460AAA01A90CA8FFF7ABFEDDE90C7046
:100E70004D4600268346207800070AD4AB4500DAA9
:100E80005D4601A8012D04DD411911F8011C30292E
:100E900007D04F4502DA17F1040F04DA0120824629
:100EA0000FE06D1EEEE7002F02DCED1B3E4403E079
:100EB000781CA84200DD7D1CB81B00F1010A4FF030
:100EC00000472078000703D4AA4501DB4FF0FF3A22
:100ED0000021B7F1004F0DF143088DF8431024D0E5
:100EE00002202B23002F01DA7F422D230A21021E2C
:100EF000A0F1010000DC5FB197FBF1FC97FBF1F280
:100F000001FB1C7C17460CF1300C08F801CDEEE714
:100F1000A8F1010003702188090501D5452100E0F1
:100F20006521A0F1010800F8011C09980FA9A1EBA7
:100F30000807FF1D00B10120411901EBEA70A1690A
:100F40003844081A401EA0612078C00602D420460A
:100F5000FFF7DDFA099828B1D4E901219047206A0A
:100F6000401C20622078C00622D52046FFF7CFFA29
:100F70001EE0002E04DBB34502DD01A8805D00E029
:100F80003020D4E901219047206A401C2062761C61
:100F9000AAF101005FEA000A0AD100F019FAC0685C
:100FA0000168405CD4E901219047206A401C20621E
:100FB000281EA5F10105DCDC07E0D4E9012118F8C1
:100FC000010B9047206A401C2062381EA7F10107E0
:100FD000F3DC2046FFF7B1FA032011B041E6000030
:100FE0002DE9F04F04460D46D21D22F0070089B0CE
:100FF000D0E900974846394601F0FEFF0246F80F57
:1010000001D02D2307E02068810701D52B2302E0C2
:10101000202101EAC0038DF820300BB1012000E04F
:101020000020032A824601D0072A04DB29462046F5
:1010300000F0D2F93FE12078800601D40D2500E0D0
:10104000E569C7F30A560D2D49DA00214FEA175B0F
:1010500008464FF00000002F00F4400007DA00EBD4
:1010600080004FF4400100EBD07001EA6000811570
:10107000012901DD4FF0FF3100224FEA850CBCF160
:10108000180F06D31346ACF118004FF08052C2403F
:1010900003E04FF4801323FA0CF30CF10C0CBCF1B9
:1010A000200F04D3ACF1200C09FA0CF001E007FA90
:1010B0000CF000294FF0004801DD18B90FE00ED107
:1010C00040450CD319EB02095F4121B9404502D1DB
:1010D0009F4329EA0209BBEB175F00D0761C2088EA
:1010E000000502D57B48784402E07A4878441938F4
:1010F00008AA302302F80A30037C0AF10101002E0D
:101100000AF1020A53546A4602DC4FF0300101E052
:101110004FF031014FF001088DF8001002D0A6F217
:10112000FF3603E059EA470100D06B4E002D02DC88
:101130002178090704D54FF002082E218DF80110FF
:10114000C44600210BE0C7F303433F01C35C491CC5
:101150006D1E02F80830052908F1010801DA002D9A
:10116000F1DC00210CE000EB1973491C1B786D1EAB
:10117000082902F808304FEA091908F1010801DAD4
:10118000002DF0DC21688B0602D516E0A8F10108DD
:10119000E04505DD02EB080313F8013C302BF5D0E8
:1011A000B8F1000F09DD02EB080313F8013C2E2B08
:1011B00003D1090701D4A8F10108002D05DD3E2166
:1011C00002F808106D1E08F10108407C002E02F89C
:1011D000080008F1010804DA2D20764202F8080020
:1011E00002E02B2002F808000A214FF47A708642B0
:1011F00008F101080BDB96FBF0F3303302F80830FE
:1012000096FBF0F308F1010800FB136601E0642E81
:101210000CDB642096FBF0F3303302F8083096FBC9
:10122000F0F308F1010800FB136601E00A2E06DB6B
:1012300096FBF1F0303002F8080008F1010896FB47
:10124000F1F001FB1060303002F80800A16908F1EC
:10125000010808EB050202EB0A00081AA0612078D9
:10126000C00602D42046FFF752F9216A08AE01EB0E
:101270000A00206204E0D4E9012116F8010B90472E
:10128000BAF1010AF7D22078C00602D52046FFF74E
:101290003EF96E4609E016F8010B3E280FD0D4E95E
:1012A00001219047206A401C2062B8F10108F2D267
:1012B0002046FFF742F909B00320BDE8F08F206A0D
:1012C0002844206203E0D4E90121302090476D1EBC
:1012D000EBD3F8E7AE21000002FCFFFF10B5436935
:1012E00013B1AFF3008001E0FFF74AF9012010BD10
:1012F000127800F124010A7000224A700122EDE701
:1013000011684FF0FF32E9E710B5436913B1AFF34D
:10131000008001E0FFF7D4F9012010BD128800F130
:10132000240182840022C2840122EDE711684FF07B
:10133000FF32E9E770B516460C46054600F040F866
:10134000036893F80101012806D0FF2C0FD8185D1F
:1013500068B101202C7070BDD3F8070132462146D8
:1013600003F2071303442846BDE8704018474FF0C6
:10137000FF3070BD754600F0EBF8AE4605006946DB
:10138000534620F00700854618B020B5FEF7B0FFA1
:10139000BDE820404FF000064FF000074FF0000876
:1013A0004FF0000B21F00701AC46ACE8C009ACE8F7
:1013B000C009ACE8C009ACE8C0098D467047000020
:1013C00010B500F005F8001D10BD00BF351D000070
:1013D00000487047D80100202DE9F0411F4604461F
:1013E00003260168072A01F4006004DB08B116A592
:1013F00005E016A503E008B115A500E015A521F04C
:1014000010002060A069C01EA0610FB1401EA06145
:101410002046FFF77CF84FB1D4E9012138469047C8
:10142000206A401C2062C01C206206E0206AFAE7A5
:10143000D4E9012115F8010B9047761EF8D2204619
:10144000FFF77BF8BDE8F0814E414E006E616E0003
:10145000494E4600696E66002DE9F0478146164602
:101460008AB0354878440DC88DE80D00324878447C
:10147000801C03AC0DC884E80D0041F69B30084485
:10148000372190FBF1F290FBF1F5A5F1800501FB0E
:1014900012041B3C02D56442012000E00020DFF86A
:1014A00098A080460027FA44AAF1BE0A0EE0E007A1
:1014B0000AD03246684607EB470101230AEB810157
:1014C00000F022FB8DE8070064107F1C002CEED199
:1014D000194F7F44AE3F19E0E80715D007EB041021
:1014E0000DF1180A90E80E008AE80E00C068F0427C
:1014F00001D1981908903246012306A903A800F0EB
:1015000003FB03AB83E807006D10641C002DE3D1DF
:101510004FF0010332466946B8F1000F03A802D02C
:1015200000F0DDFA01E000F0EFFAC9E90001C9F8C6
:1015300008200AB0BDE8F087C01E000010B50446C0
:10154000AFF300802046BDE81040FEF7BCBE0000AF
:1015500000487047B80100204FF0013C50F8042BC0
:1015600051F8043B9A4221D1A2EB0C03934313EAB6
:10157000CC1317D150F8042B51F8043B9A4215D1E3
:10158000A2EB0C03934313EACC130BD150F8042BBA
:1015900051F8043B9A4209D1A2EB0C03934313EA9E
:1015A000CC13DBD04FF00000704700BFD01A01BA57
:1015B000B1FA81F101F0180122FA01F0CB40C1F13A
:1015C0002001DBB2C0B2C01A2CFA01F3D11A914348
:1015D00011EAC311E6D1704701491820ABBEFEE7FE
:1015E0002600020070475FEA400C08BF91F0000F30
:1015F0004FEA8C234FEAC12243EA51514FEA1C5073
:1016000018BF00F5F0404FEA300018BF41F000412C
:101610005FEA6C5C00F02980BCF1FF3F08BF40F03E
:1016200080407047130C06BF12044FF0100C4FF0AF
:10163000000C130E04BF12020CF1080C130F04BFB0
:1016400012010CF1040C930F04BF92000CF1020C78
:10165000D30F04BF52000CF1010C11464FF00002F1
:10166000A0F11F00A0EB0C00704711F0004F08BF65
:10167000704731F000413FF4D5AF0B0C06BF0904B1
:101680004FF0100C4FF0000C0B0E04BF09020CF1D0
:10169000080C0B0F04BF09010CF1040C8B0F04BFE5
:1016A00089000CF1020CCB0F04BF49000CF1010CB6
:1016B000CCF12003A0EB0C0022FA03F302FA0CF2A7
:1016C00041EA030100F10100704720F07F4C80EAFD
:1016D000030023F07F47ACEB070303F57C5300F0D6
:1016E000004003F1FF032DE980494FEA154B09B48F
:1016F0004FEA144325EA0B4E24EA03480FF204266E
:1017000006EB132749083E785FEA320203FB0667BF
:10171000C7F5000707FB06F64FEA54374FEAD646EF
:1017200006F1020607FB066CCCF1005C4FEA1C4791
:101730002CEA074C07FB06F40CFB06F504EB1546F8
:101740004FEA961634BF00204FF000404FEAD137E1
:1017500006FB07FC4FEA1C4C0CFB0BF7D21B03FBF0
:101760000CF761EB07010CFB0EF7B0EB074072EBD7
:1017700017420CFB08F734BFA2EB0742B2EB07425B
:1017800061EB17414FEA0C444FEA910706FB07FC57
:101790004FEA1C4C0CFB0BF7B0EBC74072EB573217
:1017A00003FB0CF734BFA2EBC742B2EBC74261EBBD
:1017B00057310CFB0EF7B0EBC70072EB57720CFB06
:1017C00008F734BFA2EBC702B2EBC70261EB577157
:1017D000039F4FEA816141EA921104EBCC044FEA86
:1017E000D1374FEA826206FB07FC42EA90124FEAC9
:1017F00080604FEA1C4C0CFB0BF7D21B03FB0CF771
:1018000061EB07010CFB0EF7B0EB074072EB1742E0
:101810000CFB08F734BFA2EB0742B2EB074261EBC7
:1018200017414FEA8C554FEA910704EB9C2406FBC5
:1018300007FC4FEA1C4C0CFB0BF7B0EBC74072EBFC
:10184000573203FB0CF734BFA2EBC742B2EBC742DF
:1018500061EB57310CFB0EF7B0EBC70072EB577220
:101860000CFB08F734BFA2EBC702B2EBC70261EB77
:10187000577115EB4C254FEA816141EA92114FEA0D
:1018800082624FEAD13742EA901206FB07FC44F12C
:1018900000044FEA80604FEA1C4C0CFB0BF7D21B94
:1018A00003FB0CF761EB07010CFB0EF7B0EB0740F5
:1018B00072EB17420CFB08F734BFA2EB0742B2EB06
:1018C000074261EB174115EB1C154FEA813141EAE4
:1018D00092414FEA823242EA90424FEA80304FEA28
:1018E0000C7644F1000448EA03434EEA0B484FF0FB
:1018F000000EB2EB080C71EB030724BF62463946B9
:101900004EEB0E0E4FF0000B0018524149414BEBCD
:101910000B0BB2EB080C71EB03077BF1000B24BF40
:10192000624639464EEB0E0E4FF0000B0018524146
:1019300049414BEB0B0BB2EB080C71EB03077BF14E
:10194000000B24BF624639464EEB0E0E51EA0207E9
:1019500018BF46F0010616EB0E7655F1000254F161
:10196000000103D5BDE88901BDE80088BDE8890113
:10197000BDE80048B619524141EB0101A3F1010352
:10198000704780807F7E7D7C7B7A797877767675EC
:101990007473727171706F6E6E6D6C6C6B6A6A6964
:1019A0006868676666656464636362616160605FFE
:1019B0005F5E5E5D5D5C5C5B5B5A5A595958585777
:1019C00057565655555554545353525252515150DF
:1019D00050504F4F4F4E4E4D4D4D4C4C4C4B4B4B32
:1019E0004A4A4A4949494848484747474746464678
:1019F00045454544444444434343434242424241B3
:101A00004141002B9C4630D477002BD01CB54FEAC7
:101A1000370703B44FF010004FF01001BAF1000F78
:101A200006D0BCF1000FDCBF40F0080040F0080118
:101A30004FF000000FBCBDE810400BF1010BBBF1F3
:101A4000010F08BF5FEA170722BF12F1010211F16F
:101A500001014FF0004143F1000300F0004043EA70
:101A600000007047F9D35708D0E746EA064613F15D
:101A7000400F4FEA16461FDD13F1200FDFBF16435C
:101A80000A46002120335B42BED0C3F1200746EA5C
:101A9000064602FA07F74FEA164646EA0706C3F17A
:101AA000200722FA03F201FA07F721FA03F14FF0B7
:101AB000000342EA0702A7E746EA020646EA0646AC
:101AC0004FEA164646EA0106BCBF46EA0646360C11
:101AD0004FF000034FF000024FF0000194E72DE9B2
:101AE000804C9A46934670B491E8380007C831EAB2
:101AF000400C48BF34EA430C03D5FFF7E6FDFFF77F
:101B000080FFF0BCBDE8008C2DE9804C9A469346DE
:101B100070B491E8380007C810F0804F08BF13F088
:101B2000804F03D100F005F8FFF76BFFF0BCBDE874
:101B3000008C20F07F4780EA030023F07F4C07EB06
:101B40000C03A3F57C5300F00040A3F1FE0392F0D8
:101B5000000F00F0B38095F0000F00F077802DE9C2
:101B600001494FEA11404FEA144621EA004800FBC0
:101B700006FC24EA064708FB06F607FB08F800FB0C
:101B800007F718EB06484CEB164C4FEA124B18EBD4
:101B900007484FEA15464CEB174022EA0B4E0BFB69
:101BA00006FC25EA06470EFB06F607FB0EFE0BFBBE
:101BB00007F71EEB064E4CEB164C4FF000061EEBE3
:101BC000074E4CEB174B18EB0B0840F1000018EBDD
:101BD0000E0B58EB000840F100008F1A4FF0000187
:101BE0003CBFC943661B14BFB5EB040C00213CBFCE
:101BF000C943F61B4FEA17444EEA8E0E27EA044506
:101C00004FEA1C4704FB07622CEA074C05FB07F769
:101C10000CFB05F604FB0CFC16EB074642EB1742E7
:101C200016EB0C4642EB1C421BEB060658EB02027D
:101C3000414146EA9E0601D5BDE80189B6195241E7
:101C400041EB0101A3F10103BDE801894FEA14450D
:101C50004FEA114724EA054621EA074C05FB07F441
:101C600006FB07F70CFB06F105FB0CFC11EB07412B
:101C700044EB17444FEA124711EB0C4144EB1C4470
:101C800022EA074C05FB07F206FB07F70CFB06F6FA
:101C900005FB0CFC16EB074642EB174216EB0C4615
:101CA00042EB1C456A1854F1000148BF7047B61951
:101CB000524141EB0101A3F10103704795F0000F80
:101CC00037D04FEA11424FEA144721EA024624EA8C
:101CD000074C02FB07F106FB07F70CFB06F402FBBF
:101CE0000CFC14EB074441EB17414FEA154714EB8A
:101CF0000C4441EB1C4125EA074C02FB07F506FBAF
:101D000007F70CFB06F602FB0CFC16EB074645EB4F
:101D1000174516EB0C4645EB1C42121951F1000118
:101D200048BF7047B619524141EB0101A3F10103CD
:101D300070474FEA14454FEA114724EA054621EA65
:101D4000074C05FB07F106FB07F70CFB06F24FF00B
:101D5000000605FB0CFC12EB074241EB174112EBAE
:101D60000C4251EB1C4148BF7047921841EB0101F6
:101D7000A3F10103704710B540F48042104600F013
:101D80003EFF012801D142F40042104600F078FFE6
:101D90004FF4804000F074FFC0F30D0010BDFEE76B
:101DA000704772B6FEE7000070B5044600F00CF90B
:101DB0000546601C02D004480078044400F004F991
:101DC000401BA042FAD370BD040000202DE9F84F5B
:101DD000DFF8BCA10022012503264FF00F090AF10C
:101DE000040BAAF1040E00BF0B6805FA02F42340AD
:101DF000A34270D10F7907F00307012F01D0022F02
:101E000016D187684FEA420806FA08FC27EA0C0751
:101E1000D1F80CC00CFA08FC4CEA070CC0F808C05A
:101E20004768A7430C79C4F3001494403C434460D2
:101E30000C79E443A4070AD0C4684FEA420C06FABE
:101E40000CF7BC438F6807FA0CF72743C7600C797F
:101E500004F00304022C12D1D40800EB840CDCF84B
:101E600020405707FF0E09FA07F824EA0804D1F8C2
:101E7000108008FA07F848EA0408CCF820800468C3
:101E80004FEA420C06FA0CF7BC430F7907F0030740
:101E900007FA0CF7274307604C6814F4403F70D0F2
:101EA0003C4C276847F480472760246822F00307EA
:101EB00004F480440094384C07EB040CDCF8084828
:101EC00097074FEA177809FA08F7BC43334FB8422F
:101ED00002D1002724E054E0314FB84201D101275C
:101EE0001EE0304FB84201D1022719E02E4FB84210
:101EF00001D1032714E02D4FB84201D104270FE090
:101F00002B4FB84201D105270AE02A4FB84201D130
:101F1000062705E0284FB84201D1072700E008272F
:101F200007FA08F72743CCF80878DAF80040574654
:101F3000D1F804C09C435FEACC2C00D51C433C6024
:101F4000DBF800405F46D1F804C09C435FEA8C2C6C
:101F500000D51C433C60DEF800407746D1F804C051
:101F60009C435FEA8C3C00D51C433C60084F083F13
:101F70003C68D1F804C09C435FEACC3C00D51C43CC
:101F80003C60521C102AFFF42FAFBDE8F88F000010
:101F9000083C01404438024000300140000002404B
:101FA0000004024000080240000C02400010024001
:101FB0000014024000180240001C02400AB1816176
:101FC00070470904FBE70000014880687047000083
:101FD0000400002002488168027811448160704743
:101FE000040000200B4810B5016841F40071016045
:101FF000016841F480610160016841F48071016011
:10200000032000F061F80F2000F006F800F024F83B
:10201000002010BD003C024070B50D4D04464FF449
:102020007A712878B1FBF0F00A490968B1FBF0F049
:1020300000F086FC48B9102C07D200222146501E21
:1020400000F022F800206C6070BD012070BD00001F
:1020500004000020100000200A4808B5016841F47F
:1020600080410160006800F4804000900548001F36
:10207000016841F080510160006800F080500090DC
:1020800008BD000044380240F0B40E4B1B680C46FB
:10209000C3F30223C3F10705042D00D90425191D3C
:1020A000072901D2002300E0DB1E012606FA05F114
:1020B000491E214099409E40761E16403143F0BC97
:1020C00000F0B2BF0CED00E0064900F0070208681E
:1020D0004FF6FF03184040EA0220034A104308600D
:1020E000704700000CED00E00000FA052DE9F04714
:1020F0000E46050065D0DFF81481D8F80000F7B26D
:1021000000F00700B04207D288F80070D8F800004D
:1021100000F00700B04254D128683D4C810712D529
:10212000400703D5206840F4E0502060287800077D
:1021300003D5206840F4604020602068A96820F042
:10214000F000084320602878C0072DD03049686827
:102150000839012812D0022813D0032811D00968A9
:10216000890700292DDA216821F00301014321604C
:10217000FFF72AFF814641F2883A0EE00968890399
:10218000EFE709688901ECE7FFF71EFFA0EB090103
:10219000514502D90320BDE8F0872068696800F046
:1021A0000C00B0EB810FEFD1D8F80010404601F0E1
:1021B0000701B14207D90770006800F00700B0427C
:1021C00001D00120E7E72878400705D52068E968B5
:1021D00020F4E050084320602878000706D52068E6
:1021E000296920F4604040EAC100206000F038F81E
:1021F0002168084AC1F30311515CC84006490860D0
:1022000006480068FFF708FF0020C4E7003C0240D2
:10221000083802402C32000810000020080000207E
:102220000448054900680968044AC1F38221515CE9
:10223000C840704710000020083802403C320008B7
:102240000448054900680968044AC1F34231515CF9
:10225000C840704710000020083802403C32000897
:10226000154810B5006810F00C02144813D0411046
:10227000042A0FD0082A0ED10F4C241F226823688D
:1022800002F03F025B0207D52068C0F38810A0FB74
:10229000010106E0084610BD2168C1F38811A1FBC9
:1022A00000010023FEF736F82168C1F30141491C03
:1022B0004900B0FBF1F010BD083802400024F400E2
:1022C0002DE9F84F04006ED02078DFF84C93C0075A
:1022D000A9F104054AD009F104000168C1F38101A4
:1022E000012908D00068C0F3810002280AD1D9F87A
:1022F0000000400206D52868800337D560680028B2
:10230000E1D033E06068B0F5803F10D0B0F5A02F89
:10231000286810D020F480302860286820F48020BD
:1023200028606068A8B1FFF74FFE06460DE02868F8
:1023300040F48030F4E740F480202860F7E700BFE5
:10234000FFF742FE801B642873D828688003F7D506
:102350000CE0FFF739FE064605E000BFFFF734FE4C
:10236000801B6428F0D828688003F7D42078DFF831
:10237000AC8280074FF0000A3ED5A748001D0168D7
:1023800011F00C0F08D00068C0F3810002280BD1B7
:10239000D9F80000400207D42868800716D5E06805
:1023A000012800D112E033E1E068B8B10120C8F89B
:1023B0000000FFF709FE064605E000BFFFF704FE38
:1023C000801B0228C0D828688007F7D528682169B3
:1023D00020F0F80040EAC10028600DE0C8F800A035
:1023E000FFF7F2FD064604E0FFF7EEFD801B022832
:1023F0001FD828688007F7D42078000722D5864F99
:1024000087486169703771B101210160FFF7DCFD18
:10241000064604E0FFF7D8FD801B022809D838687B
:102420008007F7D50EE0C0F800A0FFF7CDFD064607
:1024300005E082E0FFF7C8FD801B02287DD83868E0
:102440008007F7D42078400768D5DFF8CCB10027A3
:102450000BF13C0BDBF80000C0000BD4DBF80010E4
:1024600041F08051CBF80010DBF80000012700F0AC
:10247000805000906B4E3068C00510D4306840F436
:1024800080703060FFF7A0FD009005E0FFF79CFD35
:102490000099401A022850D83068C005F6D55E4E23
:1024A000A0686C3601280FD00528306810D020F0C5
:1024B00001003060306820F004003060A068B8B1DE
:1024C000FFF782FD00900FE0306840F00100F4E774
:1024D00040F004003060F7E7FFF776FD0099411AFD
:1024E00041F28830814266D830688007F4D50EE02A
:1024F000FFF76AFD009007E0FFF766FD0099411ABB
:1025000041F28830814256D830688007F4D42FB128
:10251000DBF8001021F08051CBF80010A069C8B39F
:102520003D49091D0968C1F3810102294AD00228E9
:10253000504607D0C8F8600000E03CE0FFF744FDDB
:1025400004463BE04746C8F86000FFF73DFD0646FD
:1025500005E000BFFFF738FD801B02282BD8286854
:102560008001F7D4D4E907010843A16A2E4A49083B
:1025700002EB0141626A41EA8211084394F82C108F
:1025800040EA0161C9F8001001203866FFF71CFD20
:10259000044606E03EE000BFFFF716FD001B0228E0
:1025A00009D828688001F7D534E000BFFFF70CFD9B
:1025B000001B022802D90320BDE8F88F286880019B
:1025C000F4D427E00128F7D0D9F80000E26900F43C
:1025D000800191421CD1226A00F03F01914217D143
:1025E00047F6C071626A0140B1EB821F10D1A26A46
:1025F0004FF0FF3300F4403103EB5202B1EB024FD6
:1026000006D194F82C1000F07060B0EB016F01D08F
:102610000120D1E70020CFE7043802400000474204
:10262000800E4742007000400000FFFF70B50400BC
:1026300009D0606A002540B125616561A56294F802
:10264000510040B10CE0012070BD6068B0F5827FA0
:10265000F4D0E561F2E784F85050204600F044F8E9
:10266000022084F851002068016821F040010160D7
:10267000A088218900F4827001F404410843A189F3
:1026800001F400610843217C01F002010843217D2F
:1026900001F001010843218B01F400710843217FFF
:1026A00001F03801084394F8201001F0800108433C
:1026B000218D01F40051084321680860A0690421BC
:1026C00001EA104094F8241001F010010843216839
:1026D00048602068C16921F40061C161656501201D
:1026E00084F85100002070BD10B586B00446142156
:1026F0006846FDF7E2FE13492068884220D112485F
:102700000021026842F480520260006800F48050A8
:1027100005900D481438026842F00102026000681A
:1027200000F001000590E02000900220CDE90101B9
:10273000032003900520049069460448FFF746FBF8
:1027400006B010BD00300140443802400000024095
:102750002DE9FF4F81B01D46934604464FF0010915
:102760000E9EFFF731FC074694F85100616801287E
:1027700006D0B1F5827F3CD1A168C9BB042838D10D
:102780000298002871D0BBF1000FFBD0002DF9D0CA
:1027900094F8500001282CD04FF0010A84F850A082
:1027A00094F85100042802D0052084F851004FF01D
:1027B0000008C4F85480C4F838B0E587A5870299AA
:1027C0002163E586A586C4F84080C4F8448020686B
:1027D0000168490603D4016841F040010160E068E6
:1027E000B0F5006F606808D0F0B3012D49D081E0EA
:1027F000FFE7022005B0BDE8F08F08B1012D39D107
:10280000206B21680088C860206B801C2063E08EEC
:10281000401EE0862EE02068816889070FD5E18E92
:1028200069B1B9F1010F0AD1216B0988C160206B30
:10283000801C2063E08E401EE0864FF00009206877
:102840008168C9070CD0E18F51B1C068A16B0880C5
:10285000A06B801CA063E08F401EE0874FF0010951
:10286000FFF7B2FBC01B01E00BE067E0B04201D311
:10287000701C50D1E08E0028CDD1E08F0028CAD145
:102880003EE0206B216800780873206B401C2063B9
:10289000E08E401EE0862DE02068816889070FD514
:1028A000E18E69B1B9F1010F0AD1216B0978017389
:1028B000206B401C2063E08E401EE0864FF0000934
:1028C00020688168C9070CD0E18F51B1C068A16B45
:1028D0000870A06B401CA063E08F401EE0874FF0A3
:1028E0000109FFF771FBC01BB04202D3701C01D07D
:1028F00011E086B1E08E0028CED1E08F0028CBD148
:102900003A463146204600F085F950B120206065F6
:1029100084F8508012E084F851A084F8508003209D
:1029200068E7A06818B92068C1688068009084F8DA
:1029300051A084F85080606D0028F1D0012059E743
:1029400010B5401EB0F1807F01D3012010BD4FF0C3
:10295000E02460610F21601700F066FB0020A06199
:1029600007202061002010BD70B5040004D094F849
:102970004100002510B106E0012070BD84F84050F0
:10298000204600F023F8242084F841002068C16824
:1029900021F40051C160204600F06EFA2068016900
:1029A00021F4904101612068416921F02A014161CF
:1029B0002068C16841F40051C1606564202084F83A
:1029C000410084F842006563002070BD10B586B0F8
:1029D000044614216846FDF770FD134920688842BB
:1029E00020D112480021026842F4003202600068DF
:1029F00000F4003005900D481038026842F00102E2
:102A00000260006800F0010005900C200090022098
:102A1000CDE9010103200390072004906946044892
:102A2000FFF7D4F906B010BD004400404038024022
:102A3000000002402DE9F843044690F84100984612
:102A400016460D46202802D00220BDE8F88385B145
:102A50007EB100206064212084F84100FFF7B4FAC1
:102A6000A6848146E684A0682027B0F5805F02D066
:102A700003E00120E9E7206910B12E4600250EE0B1
:102A800000260CE08021204600F07CFAA8B9C6B1EF
:102A900016F8010B21684860E08C401EE084E08C51
:102AA0004B464FF00002CDF800800028EAD14FF0ED
:102AB0004001204600F066FA40B184F841700320DE
:102AC000C3E735F8020BC0F30800E3E784F8417070
:102AD0000020BAE7FEE7000010B586B01421684672
:102AE000FDF7EBFC1148016841F0800101600168CD
:102AF00001F080010591016841F001010160006869
:102B00000B4C00F001000590012210212046FFF738
:102B100055FA10200121CDE900010320CDE9021072
:102B200069462046FFF752F906B010BD3038024022
:102B300000000240114810B50F4901604FF4827146
:102B4000416000214FF40062C0E902120122C0E995
:102B50000412520282610822C0E9072141628162A7
:102B60000A21C162FFF762FD002803D0BDE81040D2
:102B7000FFF717B910BD0000003001401800002019
:102B80000C4810B50A4901604FF4E1314160002161
:102B900081600C22C160C0E904128161C161FFF74C
:102BA000E3FE002803D0BDE81040FFF7FAB810BDDF
:102BB0000044004070000020FEE700000FB40D4804
:102BC00070B54FF4807505AC2946FDF754FC2346DB
:102BD00029460848049AFDF715FC0648FDF72CFC29
:102BE00082B24FF6FF7303490348FFF723FF70BC1F
:102BF0005DF814FBB800002070000020FEE7002103
:102C000001E0414040080028FBD101F0010070477D
:102C100070470000F8B515460E460B460092044674
:102C20000122022100F04EF8A0B9134813490068B0
:102C3000B0FBF1F04FF47A71484300906068B0F552
:102C4000827F0DD13346002280212046009500F07E
:102C500039F870B1606D40F0200060650320F8BD68
:102C6000009830B1401E009020688068C043000684
:102C7000F6D50020F8BD00001000002000366E01DF
:102C800011B50E4C83B0002210212046FFF796F9B3
:102C90004FF47A700090012301AA03A90848FFF7B6
:102CA00057FD10B10020ADF804000122102120468C
:102CB000FFF784F9BDF8040004B010BD0000024025
:102CC000180000202DE9F8431E4691468846044628
:102CD000089DFFF779F9401B351AFFF775F907468C
:102CE00025480068C0F3CB30684338E0701C37D00B
:102CF000FFF76AF9C01BA84203D215B1009860B370
:102D00002CE02068416821F0E00141606068B0F586
:102D1000827F0BD1A068B0F5004F02D0B0F5806F74
:102D200004D12068016821F040010160A06AB0F57B
:102D3000005F09D12068016821F40051016020681A
:102D4000016841F400510160012084F85100002025
:102D500084F850000320BDE8F8830025401E009051
:102D60002068816838EA010004D000214945BDD1BE
:102D70000020F0E70121F9E7100000207047FFF77D
:102D800029B9000030B593B030216846FDF795FBB6
:102D900014210CA8FDF791FB1D480025016841F0A6
:102DA00080510160006800F080501190194801685E
:102DB00041F4804101600068022400F480401190D9
:102DC00001200090000401908001CDE9064008AA8E
:102DD0000420902182E813000B906846FFF770FAF8
:102DE00008B172B6FEE70CA90F2081E831004FF45C
:102DF000A0500F904FF48050109004210CA8FFF7C2
:102E000075F9002801D072B6FEE713B030BD00009E
:102E100040380240007000400248016841F47001EF
:102E20000160704788ED00E001680C3151E8002F27
:102E300022F4907241E80023002BF5D1016814318F
:102E400051E8002F22F0010241E80023002BF5D1C8
:102E5000016B012909D101680C3151E8002F22F0E2
:102E6000100241E80023002BF5D1202180F8421008
:102E7000002101637047000070B5044600680169D5
:102E8000E26821F44051114301612169A068E269BF
:102E900008436169114308432168CA6849F20C6319
:102EA0009A430243CA6020684169A26921F44071D3
:102EB0001143416131492068884202D0304988423B
:102EC00002D1FFF7BDF901E0FFF7AAF9E26900239B
:102ED000192164253226B2F5004F626828D0A0FB84
:102EE0000101930F9200FDF715FA0146B0FBF5F0D2
:102EF0006FF01802504301EB800006EB0010B0FBAE
:102F0000F5F000F0F002B1FBF5F002EB0012B1FBBE
:102F1000F5F06FF01803584301EB800006EB00104A
:102F2000B0FBF5F000F00F0021681044886070BD20
:102F3000A0FB010192185B41FDF7ECF90146B0FBE3
:102F4000F5F00201B1FBF5F06FF01803584301EB07
:102F5000800006EBC000B0FBF5F000F0F80002EBDB
:102F60004002B1FBF5F0584301EB800006EBC000D6
:102F7000B0FBF5F000F00700D6E7000000100140BC
:102F8000001401402DE9F843984617460D460446C3
:102F9000089E24E0701C22D0FFF716F8A0EB080072
:102FA000B0421AD8CEB12068C168490717D5802D24
:102FB00015D0402D13D00168C94309070FD401680B
:102FC0000025406800902046FFF72EFF082060642F
:102FD00084F840500120BDE8F8830320FBE7206817
:102FE000006835EA000004D00020B842D2D00020AA
:102FF000F1E70120F9E7FEE703B4019841000098EA
:1030000050EAC12018BF04204A0D18BF40F001004B
:1030100040F2FF72B2EB515F08BF40F0020001289E
:1030200008BF052002B070470907090E002804DB1D
:1030300000F1E02080F80014704700F00F0000F16C
:10304000E02080F8141D704730380A2801D2012092
:1030500070470020704700000B4810B5008800EE54
:10306000100A0A48B8EE400A80ED000A10EE100A75
:1030700000F062F841EC100BBDE8104053EC102B4F
:1030800003A0FFF79BBD00000000002014000020FB
:10309000252E32660A000000FEF7A4FFFFF772FE3D
:1030A000FFF71AFDFFF746FDFFF76AFD4FF47A7050
:1030B000FEF77AFE064C43F6FE752846FEF75BFEE9
:1030C0002080FFF7C9FF0520FEF76EFEF5E7000040
:1030D0000000002010B500290AD00878002807D089
:1030E00005487844FEF738FA002801D0002010BDCA
:1030F0000248784410BD00007E0200007602000005
:1031000010B500290AD00878002807D0054878446F
:10311000FEF722FA002801D0002010BD02487844B2
:1031200010BD00006E020000660200000808A0F555
:1031300000114FEA3101704743004FEAD30C4FEAC8
:103140003C0C43401FBF40070CF1605113F0FE4F91
:1031500070471CF0006F03D100200CF00041704755
:103160000CF0004343EA507010B540EACC0000F088
:103170000EF800BF000000924FEA0001FFF7D6BF33
:103180004FF000414FF00000A1F5002170470EF113
:10319000020E2EF0030E5EF8044B244204D44FEAD4
:1031A0004102B2F17F4F11D84FEA4003B3F17F4F94
:1031B0000CD80ED14FEAD07CB2F17F4F0CEB4C0C07
:1031C0000CF1020C08BF4CEBD17C04E04FF0080C72
:1031D00001E04FEAD17C0CEB4C0324FA03F404F039
:1031E0000704B4F1040C06D20EEB840CBDE81040C9
:1031F0004CF0010C6047DFE80CF0070802024FF0CA
:103200000040A0F5800010BD0846420018BFD2F172
:10321000807288BF00F0004010BD4FF04070E1EEBA
:10322000100A7047FDF7A5BDFDF7DABE00000000EB
:103230000000000001020304060708090000000066
:1032400001020304000000000000000030313233AE
:1032500034353637383941424344454640305800CA
:1032600030313233343536373839616263646566FC
:103270004030780004000008000000000000000258
:1032800000010000103031323334353637383961BF
:1032900062636465667870003031323334353637B6
:1032A000383941424344454658500000024000002E
:1032B000000000A00000000005400000000000C861
:1032C000000000000C4000000000409C00000000D6
:1032D000194000000020BCBE000000003440000087
:1032E000BFC91B8E00000004B5400000504BCFD07A
:1032F0006607E2CF010000006C4100003E8251AA47
:10330000DFEEA73401000000D9420000DCB5A0E2E6
:103310003A301F97FFFFFFFFB4450000FD25A0C80E
:10332000E9A3C14FFFFFFFFFFF3F00000000008047
:1033300000000000FF3F00000000008000000000CF
:103340008C3400080000002018000000C4010008B0
:10335000A43400081800002000080000E001000864
:103360001C00000043000000F8FFFFFF0C000000FD
:103370000E0000000F0000002E00000010010000F1
:1033800043000000F8FFFFFF004040404040404045
:103390004040414141414140404040404040404028
:1033A00040404040404040404005020202020202CC
:1033B000020202020202020202202020202020201B
:1033C000202020020202020202029090909090902F
:1033D00010101010101010101010101010101010ED
:1033E0001010101002020202020288888888888861
:1033F000080808080808080808080808080808084D
:103400000808080802020202400000000000000054
:1034100000000000000000000000000000000000AC
:10342000000000000000000000000000000000009C
:10343000000000000000000000000000000000008C
:10344000000000000000000000000000000000007C
:10345000000000000000000000000000000000006C
:10346000000000000000000000000000000000005C
:10347000000000000000000000000000000000004C
:10348000000000000000000000000000000000003C
:103490000100000010000000000000000024F40003
:0434A0000000000028
:040000050800018965
:00000001FF
