:020000040800F2
:10000000081B00204D020008A53C00082D36000802
:10001000A13C00085F040008493F00080000000000
:10002000000000000000000000000000BD3C0008CF
:10003000D504000800000000A93C0008BF3C0008EF
:1000400067020008670200086702000867020008EC
:1000500067020008670200086702000867020008DC
:1000600067020008670200086702000885040008AC
:1000700067020008670200086702000867020008BC
:10008000670200089504000867020008670200087C
:10009000650400086702000867020008670200089C
:1000A00067020008D53C00086702000867020008E4
:1000B000670200086702000867020008670200087C
:1000C000670200086702000867020008670200086C
:1000D00067020008393F000867020008670200084D
:1000E000670200086702000867020008670200084C
:1000F000670200086702000867020008670200083C
:10010000670200086702000867020008670200082B
:10011000670200086702000867020008670200081B
:10012000A5040008B5040008C5040008670200081B
:1001300067020008670200086702000867020008FB
:1001400075040008670200086702000867020008DB
:1001500067020008670200086702000867020008DB
:1001600067020008670200086702000867020008CB
:10017000670200086702000867020008000000002C
:10018000670200086702000867020008613E000875
:10019000AD3C00086702000867020008670200081B
:1001A00000000000000000006702000800F002F8F4
:1001B00000F03CF80AA090E8000C82448344AAF1C5
:1001C0000107DA4501D100F031F8AFF2090EBAE8C3
:1001D0000F0013F0010F18BFFB1A43F0010318477B
:1001E000A0820000C0820000103A24BF78C878C105
:1001F000FAD8520724BF30C830C144BF04680C602D
:10020000704700000023002400250026103A28BF74
:1002100078C1FBD8520728BF30C148BF0B60704778
:100220001FB507F0F4FF1FBD10B510BD00F0E2F8D8
:100230001146FFF7F5FF07F0D7F800F000F903B417
:10024000FFF7F2FF03BC00F003F900000948804704
:1002500009480047FEE7FEE7FEE7FEE7FEE7FEE7A8
:10026000FEE7FEE7FEE7FEE704480549054A064BC0
:1002700070470000C13C0008AD01000808150020CF
:10028000081B0020081700200817002053EA020C62
:1002900000F069802DE9F04B4FF00006002B1FBFE6
:1002A000B3FA83F503FA05F424FA05F65E4012BFAB
:1002B0001643B2FA82F502FA05F4C5F120051EBF15
:1002C00022FA05FC44EA0C04203556EA044C4FEAB5
:1002D000144418BF641C4FF000084FF0000990420E
:1002E00071EB030C39D3002919BFB1FA81F701FA78
:1002F00007F6B0FA80F700FA07F6C7F120071EBF2D
:1003000020FA07FC46EA0C062037B6FBF4FCA7EB04
:100310000507103F07F01F0BCBF120060CFA0BFB73
:100320002CFA06F644BFB3460026202FA4BF5E4633
:100330004FF0000B5BEA060C08BF4FF0010B19EB06
:100340000B09ABFB027C48EB0608C01B06FB02CC8A
:100350000BFB03CC71EB0C01C1E70B460246414697
:100360004846BDE8F08B13B54FF000004FF0000198
:10037000AFF30080BDE81C4070474FF0000200B5AD
:10038000134694469646203922BFA0E80C50A0E8B8
:100390000C50B1F12001BFF4F7AF090728BFA0E866
:1003A0000C5048BF0CC05DF804EB890028BF40F832
:1003B000042B08BF704748BF20F8022B11F0804F74
:1003C00018BF00F8012B704770477047704710B591
:1003D00000F008F8006810BD10B5044600F002F8FF
:1003E000046010BD00487047A41400200048704706
:1003F000A41400207546FFF7F9FFAE4605006946D4
:10040000534620F00700854618B020B5FFF72CFFB3
:10041000BDE820404FF000064FF000074FF0000805
:100420004FF0000B21F00701AC46ACE8C009ACE886
:10043000C009ACE8C009ACE8C0098D46704710B5EA
:100440000446AFF300802046BDE81040FFF7F7BE3A
:1004500001491820ABBEFEE726000200704700BF2E
:10046000FEE7000010B5024800F04FFA10BD000092
:10047000680E002010B5024800F047FA10BD0000D9
:10048000900E002010B5024800F0E4FE10BD000000
:100490008011002010B5024800F0DCFE10BD000005
:1004A000E011002010B5024800F0D4FE10BD00009D
:1004B000100F002010B5024800F0CCFE10BD000067
:1004C000700F002010B5024800F0C4FE10BD0000FF
:1004D00040120020704772B600BFFEE710B502461A
:1004E00092F82030012B01D0022B06D11068406910
:1004F000084314686061002010BD506A40F48020F9
:1005000050620120F8E7F0B504460D461E4694F807
:10051000207020688368A86800B900E000BF012F40
:1005200001D0022F7DD103F0806030B903F000606C
:1005300018B903F0805000287ED0C3F30161012078
:1005400088403060A86860B9B5F800C0E86840EA43
:100550004C5C206800F5C07000EB0110C0F800C0D2
:100560000FE0D5E901C040EACC00D5F80CC040EA64
:100570000C00D4F800C00CF5C07C0CEB011CCCF8CE
:100580000000D5F810C0206800F5C07000EB011025
:10059000C0F804C0287D01280ED1206800F5C07085
:1005A00000EB0110406840F4807C206800F5C070CA
:1005B00000EB0110C0F804C0D079000692F806C024
:1005C00040EA0C4092F805C040EA0C2092F804C0C2
:1005D00040EA0C00D4F800C00CF5C07C0CEB011C08
:1005E000CCF80C00D078000692F802C040EA0C402B
:1005F00092F801C040EA0C2092F800C040EA0C00DA
:10060000D4F800C00CF5C07C0CEB011CCCF8080041
:10061000206800F5C07000EB0110006840F0010C8C
:1006200001E00FE008E0206800F5C07000EB011069
:10063000C0F800C00020F0BD606A40F400106062A5
:100640000120F8E7606A40F4802060620120F2E750
:10065000F0B504460A46216894F82050012D01D0D7
:10066000022D7ED1424901F50071086840F0010079
:100670000860086820F47C5008600868566A40EA00
:1006800006200860107D00F01F06012000FA06F326
:10069000C8699843C861A1F50071D069C8B9D1F89B
:1006A0000C029843C1F80C02908880B2968940EA07
:1006B000064601F51070576940F83760108880B21F
:1006C000168940EA064601F51070576900EBC7002D
:1006D0004660D069012819D1D1F80C021843C1F83D
:1006E0000C02908880B2168840EA064601F5107028
:1006F000576940F83760908980B2168940EA06460B
:1007000001F51070576900EBC7004660906928B981
:10071000D1F804029843C1F8040204E0D1F80402BD
:100720001843C1F80402106928B9D1F8140298439B
:10073000C1F8140204E0D1F814021843C1F81402FD
:10074000106A012804D1D1F81C021843C1F81C0218
:10075000D1F8000220F00100C1F800020020F0BD35
:10076000FFE7606A40F4802060620120F7E7000044
:1007700000640040704770B5044694F82050012D85
:1007800001D0022D7DD151B92068C06800F003006E
:1007900080B9606A40F400106062012070BD20687A
:1007A000006900F0030028B9606A40F4001060623C
:1007B0000120F3E7206800F5D87000EB0110006815
:1007C00000F004009060906840B9206800F5D8708F
:1007D00000EB01100068400D106007E0206800F594
:1007E000D87000EB01100068C0085060206800F568
:1007F000D87000EB0110006800F00200D0602068A3
:1008000000F5D87000EB0110406800F00F000828D8
:1008100002D30820106108E0206800F5D87000EBD2
:100820000110406800F00F001061206800F5D870DA
:1008300000EB0110406800F47F40000A90612068DE
:1008400000F5D87000EB01104068000C5061206882
:1008500000F5D87000EB011080681870206800F572
:10086000D87000EB0110806800F47F40000A5870D7
:10087000206800F5D87000EB0110806800F47F005C
:1008800000E03CE0000C9870206800F5D87000EBA8
:1008900001108068000ED870206800F5D87000EB59
:1008A0000110C0681871206800F5D87000EB0110C5
:1008B000C06800F47F40000A5871206800F5D870C5
:1008C00000EB0110C06800F47F00000C98712068F4
:1008D00000F5D87000EB0110C068000ED87131B976
:1008E0002068C06840F020002668F06005E02068BD
:1008F000006940F020002668306100204EE7606A01
:1009000040F480206062012048E72DE9F05F044652
:100910000025206846692068D0F804902068876820
:100920002068D0F80CA02068D0F810B02068D0F86B
:10093000188006F00100002855D007F00100C0B172
:1009400001202168886007F0020018B1204600F0FD
:1009500010FC0EE007F0040010B145F4006508E05B
:1009600007F0080010B145F4805502E0204600F081
:10097000FFFB07F48070C8B14FF480702168886075
:1009800007F4007018B1204600F0F5FB0EE007F404
:10099000806010B145F4005508E007F4006010B124
:1009A00045F4804502E0204600F0E4FB07F4803087
:1009B000C8B14FF480302168886007F4003018B166
:1009C000204600F0DAFB0EE007F4802010B145F479
:1009D000004508E007F4002010B145F4803502E03E
:1009E000204600F0C9FB06F0080038B10AF01000FC
:1009F00020B145F4007510202168C86006F004009D
:100A000040B10AF0080028B108202168C8602046DB
:100A100000F00EFA06F0020038B12068C06800F05D
:100A2000030010B1204600F005FA06F0400038B18E
:100A30000BF0100020B145F480651020216808619A
:100A400006F0200040B10BF0080028B10820216812
:100A50000861204600F05AFB06F0100038B120680B
:100A6000006900F0030010B1204600F050FB06F4CE
:100A7000003040B109F0100028B110202168486012
:100A8000204600F045FB06F4803040B109F0080034
:100A900028B1082021684860204600F06FFB06F46A
:100AA000004088B309F0040078B306F4807020B1E8
:100AB00008F0010008B145F0010506F4007020B10E
:100AC00008F0020008B145F0020506F4806020B18C
:100AD00008F0040008B145F0040506F40060A0B178
:100AE00008F0700088B108F07000402817D006DCCC
:100AF00010280BD020280CD0302819D10CE0502819
:100B000010D0602814D110E01DE019E045F0080570
:100B10000FE045F010050CE045F0200509E045F038
:100B2000400506E045F0800503E045F4807500E0EF
:100B300000BF00BF2068806920F0700021688861D4
:100B40000420216848602DB1606A28436062204615
:100B5000FFF710FEBDE8F09F70B504460CB9012008
:100B600070BD94F8200010B9204600F0AFF820685E
:100B7000006840F001002168086000F06DFE054645
:100B80000DE000F069FE401B0A2808D9606A40F4B5
:100B900000306062052084F820000120E0E7206832
:100BA000406800F001000028EBD02068006820F0C9
:100BB00002002168086000F04FFE05460DE000F0DD
:100BC0004BFE401B0A2808D9606A40F4003060627E
:100BD000052084F820000120C2E72068406800F06A
:100BE00002000028EBD1207E012806D12068006891
:100BF00040F080002168086005E02068006820F06F
:100C0000800021680860607E012806D120680068A5
:100C100040F040002168086005E02068006820F08E
:100C2000400021680860A07E012806D12068006885
:100C300040F020002168086005E02068006820F08E
:100C4000200021680860E07E012806D12068006845
:100C500020F010002168086005E02068006840F07E
:100C6000100021680860207F012806D120680068F4
:100C700040F008002168086005E02068006820F066
:100C8000080021680860607F012806D1206800689C
:100C900040F004002168086005E02068006820F04A
:100CA000040021680860D4E902010843216908436F
:100CB000616908436168491E08432168C8610020D2
:100CC0006062012084F82000002049E710B586B05A
:100CD0000446142101A8FFF750FB4F4920688842C1
:100CE00041D14E480068401C4C49086008460068E5
:100CF00001280FD100BF002000904948006840F053
:100D00000070474908600846006800F000700090D5
:100D100000BF00BF00BF00200090414810380068AD
:100D200040F008003E49103908600846006800F0AD
:100D30000800009000BF00BF032001900220029035
:100D400000200390032004900920059001A9354854
:100D500000F074FC00221146142000F035FE14202F
:100D600000F01EFE55E030492068884251D100BF96
:100D7000002000902A48006840F080602849086000
:100D80000846006800F08060009000BF00BF234864
:100D90000068401C214908600846006801280FD1FE
:100DA00000BF002000901E48006840F000701C4901
:100DB00008600846006800F00070009000BF00BFA7
:100DC00000BF0020009016481038006840F0020074
:100DD0001349103908600846006800F002000090CE
:100DE00000BF00BF4FF4405001900220029000204D
:100DF0000390032004900920059001A90B4800F0FE
:100E00001DFC00221146402000F0DEFD402000F0D5
:100E1000C7FD06B010BD00000064004000000020C7
:100E200040380240000C02400068004000040240CC
:100E30007047000010B58AB00446AB49206888426C
:100E40007DD101AB03AA0021A848FFF794FC0398C9
:100E5000A0F201200A284FD2DFE800F005060708BB
:100E60004E4E4E4E4F7500BF00BF00BF0398401E50
:100E70009F4908700846007800EB80009D4931F8D2
:100E8000100000B29A49097801EB8101994A02EBFE
:100E9000410108819DF805009DF8041040EA0120F9
:100EA0009349097801EB810122F811009DF80700B0
:100EB0009DF8061040EA012000B28D49097801EB47
:100EC000810102EB410148809DF809009DF808105E
:100ED00040EA012000B28649097801EB810102EB6A
:100EE000410188809DF80A008149097801EB810160
:100EF00002EB4101887149E048E07F48008D01B272
:100F00007D4801869DF805009DF8041040EA012007
:100F1000794908859DF807009DF8061040EA0120F0
:100F200001B2754841859DF809009DF8081040EA16
:100F3000012001B2704881859DF80A1000E027E089
:100F400080F82E1022E06C48408901B26A48418244
:100F50009DF805009DF8041040EA0120664948818B
:100F60009DF807009DF8061040EA012001B2624892
:100F700081819DF809009DF8081040EA012001B226
:100F80005D48C1819DF80A10017400BF00BF00BF19
:100F90005A49206888427DD101AB03AA00215848F4
:100FA000FFF7E9FB0398A0F201200A284FD2DFE8FF
:100FB00000F0050607084E4E4E4E4F7400BF00BFAE
:100FC00000BF0398401E4F4908700846007800EBA8
:100FD00080004D4931F8100000B24A49097801EB10
:100FE0008101494A02EB410108819DF805009DF805
:100FF000041040EA01204349097801EB810122F8FD
:1010000011009DF807009DF8061040EA012000B28B
:101010003C49097801EB810102EB410148809DF8D0
:1010200009009DF8081040EA012000B2354909780E
:1010300001EB810102EB410188809DF80A003149F2
:10104000097801EB810102EB4101887148E047E03A
:101050002948008800B2284908819DF805009DF8BC
:10106000041040EA0120244908809DF807009DF8FB
:10107000061040EA012000B21F4948809DF809008F
:101080009DF8081040EA012000B21B4988809DF8B5
:101090000A0000E026E0887122E01748408901B28A
:1010A000154841829DF805009DF8041040EA012092
:1010B000114948819DF807009DF8061040EA01207B
:1010C00001B20D4881819DF809009DF8081040EAA1
:1010D000012001B20848C1819DF80A10017400BFC7
:1010E00000BF00BF0AB010BD00640040680E0020C1
:1010F00024000020E8120020921300200068004025
:10110000900E002025000020381300207047704703
:10111000704770B5044694F82000012822D10220BF
:1011200084F820002068006820F001002168086031
:1011300000F092FB05460DE000F08EFB401B0A28F4
:1011400008D9606A40F400306062052084F820000D
:10115000012070BD2068406800F001000028EBD13C
:101160006062F6E7606A40F4002060620120F0E708
:10117000704770477047704770477047704770B549
:101180000446A56D00F068FB064694F83500022879
:1011900008D08020606500BF002084F8340000BFC4
:1011A000012070BD2068006820F0160021680860EA
:1011B0002068406920F0800021684861206C08B9EF
:1011C000A06C28B12068006820F008002168086041
:1011D0002068006820F001002168086010E000F03D
:1011E0003BFB801B05280BD920206065032084F879
:1011F000350000BF002084F8340000BF0320D0E792
:101200002068006800F001000028E8D194F85C1024
:101210003F208840A860012084F8350000BF0020EE
:1012200084F8340000BF00BFBBE7014691F83500E9
:10123000022803D08020486501207047052081F8EE
:1012400035000868006820F001000A68106000207E
:10125000F3E70000F8B50446002000908C480068D1
:101260004FF41651B0FBF1F7A56D2E6894F85C10A1
:1012700008208840304098B12068006800F00400E1
:1012800070B12068006820F004002168086094F8BC
:101290005C1008208840A860606D40F00100606527
:1012A00094F85C1001208840304068B120684069A3
:1012B00000F0800040B194F85C1001208840A860E4
:1012C000606D40F00200606594F85C100420884076
:1012D000304068B12068006800F0020040B194F826
:1012E0005C1004208840A860606D40F004006065D8
:1012F00094F85C1010208840304078B32068006873
:1013000000F0080050B394F85C1010208840A860EA
:101310002068006800F4802080B12068006800F434
:10132000002028B9206CC8B12046216C884715E000
:10133000A06C98B12046A16C88470FE02068006837
:1013400000F4807028B92068006820F00800216847
:101350000860206C10B12046216C884794F85C101E
:10136000202088403040002865D02068006800F0C8
:10137000100000285FD094F85C1020208840A860FE
:1013800094F83500052828D12068006820F0160060
:10139000216808602068406920F080002168486169
:1013A000206C08B9A06C28B12068006820F0080003
:1013B0002168086094F85C103F208840A8600120F4
:1013C00084F8350000BF002084F8340000BF206D91
:1013D00010B12046216D8847F8BD2068006800F4F0
:1013E000802080B12068006800F4002028B9606C7B
:1013F00010B12046616C88471DE0E06BD8B12046F3
:10140000E16B884717E02068006800F4807068B9D5
:101410002068006820F0100021680860012084F82E
:10142000350000BF002084F8340000BFE06B10B12D
:101430002046E16B8847606D38B3606D00F00100B5
:10144000F0B1052084F835002068006820F0010024
:101450002168086000BF0098401C0090B84200D985
:1014600005E02068006800F001000028F3D100BF0B
:10147000012084F8350000BF002084F8340000BF4C
:10148000E06C10B12046E16C884700BFA4E7000083
:10149000100000202DE9F0410446002500F0DCF9A1
:1014A000074614B90120BDE8F081606A00B100BFB1
:1014B000022084F8350000BF002084F8340000BF0B
:1014C0002068006820F00100216808600AE000F050
:1014D000C3F9C01B052805D920206065032084F8C6
:1014E0003500E0E72068006800F001000028EED138
:1014F0002068056821480540D4E901010843E168F6
:1015000008432169084361690843A1690843E16907
:101510000843216A08430543606A042803D1D4E9DB
:101520000B0108430543206805602068456925F0E4
:101530000705606A0543606A04280DD1A06A054367
:10154000E06A48B1204604F093F828B14020606575
:10155000012084F83500A6E720684561204604F0A4
:10156000DDF8064694F85C103F208840B06000200B
:101570006065012084F83500002094E73F8010F07A
:101580002DE9F04704460D4616461F464FF0000869
:10159000D4F8589000BF94F83400012802D10220FA
:1015A000BDE8F087012084F8340000BF94F83500CE
:1015B000012825D1022084F83500002060653B46D3
:1015C00032462946204604F03DF894F85C103F204E
:1015D0008840C9F808002068006840F016002168BB
:1015E0000860206C28B12068006840F0080021687D
:1015F00008602068006840F001002168086006E08B
:1016000000BF002084F8340000BF4FF002084046BD
:10161000C6E7000070B5044600F01EF906462546F0
:10162000681C10B104480078054400BF00F014F9AC
:10163000801BA842FAD370BD0C000020F8B502460A
:101640000B460025002400200021E0E0012606FAD8
:1016500001F51E6806EA0504AC4274D11E7906F055
:101660000306012E04D01E7906F00306022E13D1C4
:1016700090684F000326BE40B0434F00DE68BE4076
:1016800030439060506801268E40B0431E79C6F307
:1016900000168E40304350601E7906F00306032E7C
:1016A00009D0D0684F000326BE40B0434F009E686B
:1016B000BE403043D0601E7906F00306022E13D1DF
:1016C000CF0802F1200656F827004E07F70E0F2626
:1016D000BE40B0434F07FF0E1E69BE403043CF08E7
:1016E00002F1200646F8270010684F000326BE408E
:1016F000B0431E7906F003064F00BE403043106031
:101700005E6806F44036002E1DD000BF002600960D
:10171000414E366846F480463F4F3E603E4636684E
:1017200006F48046009600BF00BF3C4E8F0856F876
:1017300027008E07370F0F26BE40B043384EB24207
:1017400002D100262EE061E0364EB24201D10126E0
:1017500028E0354EB24201D1022623E0334EB24298
:1017600001D103261EE0324EB24201D1042619E017
:10177000304EB24201D1052614E02F4EB24201D1C3
:1017800006260FE02D4EB24201D107260AE02C4E6C
:10179000B24201D1082605E02A4EB24201D1092603
:1017A00000E00A268F073F0FBE4030431B4E8F08D4
:1017B00046F82700244E3068A0435E6806F4801681
:1017C00006B12043204E3060361D3068A0435E686D
:1017D00006F4001606B120431B4E361D30601A4E2B
:1017E000361F3068A0435E6806F4003606B1204319
:1017F000154E361F3060361F3068A0435E6806F411
:10180000803606B12043104E083E3060491C102936
:10181000FFF41CAFF8BD0000443802400838014016
:10182000000002400004024000080240000C024098
:10183000001002400014024000180240001C024048
:101840000020024000240240083C01400AB18161AE
:1018500001E00B0483617047014800687047000095
:10186000040000200348006803490978084401493E
:1018700008607047040000200C00002010B50D48DF
:10188000006840F400700B4908600846006840F4A6
:10189000806008600846006840F48070086003209B
:1018A00000F0D0F80F2000F007F800F055F8002005
:1018B00010BD0000003C0240F0B587B00446002691
:1018C000002700BF002000901E48006840F0010083
:1018D0001C4908600846006800F00100009000BF45
:1018E00000BF01A902A800F0C9F900F0FFF90646FF
:1018F0001548B6FBF0F0471E14481549086040F241
:10190000E7311348C1604760002101618160816156
:1019100000F0C4FF054695B90D4801F033F80546BF
:101920006DB9192000F03CF8102C07D20022214696
:10193000192000F049F80748046000E00125284616
:1019400007B0F0BD4438024040420F0000000140A3
:10195000A01200200800002008B500BF0020009061
:101960000E48006840F480400C4908600846006852
:1019700000F48040009000BF00BF00BF0020009036
:10198000081F006840F08050091F08600846006882
:1019900000F08050009000BF00BF08BD44380240F6
:1019A0000146084600280DDB00BF00BF00F01F0302
:1019B00001229A4043099B0003F1E023C3F8002170
:1019C00000BF00BF00BF70472DE9F05F80460D46A5
:1019D0001646002704F014FB074639462A463346CC
:1019E00001F00700C0F1070ABAF1040F02D94FF065
:1019F000040A01E0C0F1070AD14600F1040ABAF175
:101A0000070F02D24FF0000A01E0A0F1030AD4460A
:101A10004FF0010A0AFA09FAAAF1010A0AEA020ACF
:101A20000AFA0CFA4FF0010B0BFA0CFBABF1010BAD
:101A30000BEA030B4AEA0B042146404604F0CCFAB9
:101A4000BDE8F09F00BF00F00702064B19684FF693
:101A5000FF031940044B0B4343EA0221014B196079
:101A600000BF70470CED00E00000FA0538B5002417
:101A700000BF002000901D48006840F080501B49C6
:101A800008600846006800F08050009000BF00BF6A
:101A9000012017490864FFF7DFFE044607E0FFF75F
:101AA000DBFE001BB0F57A7F01D9032038BD114859
:101AB000406800F48030B0F5803FF0D101200C493F
:101AC0004864FFF7C9FE044607E0FFF7C5FE001BA8
:101AD000B0F57A7F01D90320E8E70648406800F4B2
:101AE0000030B0F5003FF0D10020DFE74038024081
:101AF00000000E420070004070B504460D460CB95F
:101B0000012070BD5848006800F00F00A84209D2BB
:101B100055490D700846006800F00F00A84201D03A
:101B20000120EEE7207800F0020002281DD1207885
:101B300000F00400042805D14C48006840F4E0504F
:101B40004A490860207800F00800082805D1474875
:101B5000006840F46040454908604448006820F04F
:101B6000F000A168084341490860207800F00100B6
:101B7000A8B36068012807D13C4808380068C0F362
:101B80004040B8B90120BCE76068022802D0606814
:101B9000032807D1354808380068C0F3406048B9C9
:101BA0000120AEE7314808380068C0F3400008B9AA
:101BB0000120A6E72D48006820F003006168084373
:101BC0002A490860FFF748FE064609E0FFF744FE91
:101BD000801B41F28831884202D9032091E707E057
:101BE0002248006800F00C006168B0EB810FEDD175
:101BF0001D48006800F00F00A84209D91A490D706D
:101C00000846006800F00F00A84201D0012078E7E4
:101C1000207800F00400042807D11448006820F45C
:101C2000E050E168084311490860207800F008009E
:101C3000082808D10D48006820F46040216940EA76
:101C4000C1000A49086000F061F808490968C1F359
:101C50000311074A515CC8400649086006480068FD
:101C6000FFF72AFE00204CE7003C02400838024003
:101C70001A83000810000020080000200F220260D4
:101C80000D4A126802F0030242600B4A126802F029
:101C9000F0028260084A126802F4E052C260064A0A
:101CA000126802F46042D2080261044A126802F02B
:101CB0000F020A607047000008380240003C0240F2
:101CC00001480068704700001000002000B5FFF7D1
:101CD000F7FF04490968C1F38221034A515CC840F7
:101CE00000BD0000083802402A83000800B5FFF755
:101CF000E7FF04490968C1F34231034A515CC84017
:101D000000BD0000083802402A8300082DE9F04792
:101D1000002400250026A1462548006800F00C009C
:101D200020B1042805D008283AD105E0DFF88490D6
:101D300039E0DFF8849036E01D48001F006800F0AD
:101D40003F041B48001F006800F4800078B11A4867
:101D50001749091F0968C1F38811A0FB01700146EA
:101D6000224600233846FEF791FA05460EE0114858
:101D70000F49091F0968C1F38811A0FB01700146D2
:101D8000224600233846FEF781FA05460848001F20
:101D90000068C0F30140401C4600B5FBF6F902E0C4
:101DA000DFF8109000BF00BF4846BDE8F087000094
:101DB000083802400024F400001BB700F8B50446C0
:101DC0000CB90120F8BD207800F00100002874D083
:101DD000F948006800F00C0004280DD0F6480068AF
:101DE00000F00C00082813D1F348001F006800F42D
:101DF0008000B0F5800F0BD1EF4808380068C0F3C1
:101E00004040002859D06068002856D10120D9E709
:101E100000BF6068B0F5803F08D1E7480838006827
:101E200040F48030E449083908601EE06068B0F58D
:101E3000A02F0DD1E0480838006840F48020DE492A
:101E4000083908600846006840F4803008600CE0FB
:101E5000D9480838006820F48030D749083908602C
:101E60000846006820F48020086000BF606890B1D8
:101E7000FFF7F2FC054606E0FFF7EEFC401B642886
:101E800001D903209EE7CC4808380068C0F34040E1
:101E90000028F1D011E0FFF7DFFC054606E0FFF770
:101EA000DBFC401B642801D903208BE7C2480838BB
:101EB0000068C0F340400028F1D1207800F0020013
:101EC00002285FD1BC48006800F00C0058B1BA4845
:101ED000006800F00C0008281CD1B748001F0068FB
:101EE00000F48000B0B9B44808380068C0F340007E
:101EF00020B1E068012801D0012063E7AE4808382E
:101F0000006820F0F800216940EAC100AA490839B8
:101F1000086037E0E06800B30120A8490860FFF7D7
:101F20009BFC054606E0FFF797FC401B022801D901
:101F3000032047E7A04808380068C0F340000028A5
:101F4000F1D09D480838006820F0F800216940EA87
:101F5000C10099490839086014E0002097490860D9
:101F6000FFF77AFC054606E0FFF776FC401B0228E7
:101F700001D9032026E7904808380068C0F34000E4
:101F80000028F1D1207800F0080008282CD16069E1
:101F9000A8B101208A490860FFF75EFC054606E00B
:101FA000FFF75AFC401B022801D903200AE78248A8
:101FB0006C300068C0F340000028F1D014E000202D
:101FC0007F490860FFF748FC054606E0FFF744FC40
:101FD000401B022801D90320F4E677486C300068E2
:101FE000C0F340000028F1D1207800F0040004285C
:101FF00070D1002770483830006800F0805090B9E8
:1020000000BF002000906C483830006840F08050DD
:102010006949383108600846006800F08050009037
:1020200000BF00BF01276748006800F48070B0B9A6
:102030006448006840F4807062490860FFF70CFC57
:10204000054606E0FFF708FC401B022801D90320E3
:10205000B8E65C48006800F480700028F2D000BF49
:10206000A068012808D154486830006840F0010099
:102070005149683108601DE0A06805280DD14E481F
:102080006830006840F004004B4968310860084639
:10209000006840F0010008600CE0474868300068C4
:1020A00020F001004449683108600846006820F0CB
:1020B0000400086000BFA068A8B1FFF7CDFB05468B
:1020C00009E0FFF7C9FB401B41F28831884202D981
:1020D000032077E626E0384868300068C0F3400007
:1020E0000028EED013E0FFF7B7FB054608E0FFF746
:1020F000B3FB401B41F28831884201D9032061E6DD
:102100002D4868300068C0F340000028EFD1012F4F
:1021100007D129483830006820F0805026493831EE
:10212000086000BFA069002845D02348006800F07F
:102130000C0008285DD0A069022845D100201F4965
:102140000866FFF789FB054606E0FFF785FB401BA5
:10215000022801D9032035E6174808380068C0F383
:1021600040600028F1D1D4E907010843616A40EAE0
:1021700081110122A06AC2EB500041EA00412C20EB
:10218000005D41EA00600C49091F086001200B490D
:102190000866FFF761FB054606E0FFF75DFB401BA5
:1021A000022801D903200DE6034808380068C0F36F
:1021B00040600028F1D049E0083802400000474262
:1021C000800E474200700040002021490866FFF75A
:1021D00043FB054606E0FFF73FFB401B022801D901
:1021E0000320EFE51B480068C0F340600028F2D1EF
:1021F0002CE0A069012800D1E4E51648001D06681E
:10220000A069012820D006F48001E06981421BD139
:1022100006F03F01206A814216D147F6C070304077
:10222000616AB0EB811F0FD106F440310122A06A30
:10223000C2EB5000B1EB004F06D106F070612C20CC
:10224000005DB1EB006F01D00120BBE50020B9E5D6
:10225000000047420038024070470000F8B50446CD
:102260002068466820688568C5F3801048B905F085
:10227000010030B1C6F3801018B12046216C8847A8
:10228000F8BDC5F3400030B1C6F3C01018B1204608
:10229000616C8847F4E7C5F3401030B9C5F380108E
:1022A00018B9C5F3002000287CD0C6F340100028E0
:1022B0007DD0C5F38010F0B194F8510003280ED002
:1022C000606D40F00400606500BF00200090206851
:1022D000C068009020688068009000BF0BE000BFDD
:1022E000002000902068C0680090206880680090FE
:1022F00000BF00BFC4E7C5F3401088B1606D40F077
:102300000100606500BF0020009020688068009098
:102310002068006820F040002168086000BF00BF0E
:10232000C5F3002058B1606D40F00800606500BF43
:102330000020009020688068009000BF00BF606DA2
:1023400078B32068406820F0E000216848600120F0
:1023500084F8510006F00200022802D006F00100C5
:1023600008B32068406820F0030021684860E06CF2
:1023700050B11048E16C0865E06CFEF756FF18B1EB
:10238000606D40F040006065A06C50B10948A16CE0
:102390000865A06CFEF749FF18B1606D40F0400081
:1023A000606503E003E02046FFF756FF68E700BFE3
:1023B00066E700005157000810B504460CB901202B
:1023C00010BD606A38B96068B0F5827F00D105E061
:1023D0000021E16102E00021216161610021A1622F
:1023E00094F8510028B9002084F85000204600F0ED
:1023F00047F8022084F851002068006820F040006F
:1024000021680860A08800F48270218901F40441E9
:102410000843A18901F400610843217C01F0020115
:102420000843217D01F001010843218B01F4007173
:102430000843217F01F0380108432021095D01F0A4
:1024400080010843218D01F4005108432168086090
:102450000421A06901EA104094F8241001F0100151
:102460000843216848602068C06920F40060216842
:10247000C86100206065012084F8510000209FE7BA
:1024800010B586B00446142101A8FDF776FF3F4938
:102490002068884277D100BF002000903C48006847
:1024A00040F400503A4908600846006800F40050C3
:1024B000009000BF00BF00BF0020009034481438D7
:1024C000006840F01000324914390860084600687E
:1024D00000F01000009000BF00BF4FF48350019047
:1024E0000220029000200390032004900520059014
:1024F00001A92848FFF7A2F8274828490860C00525
:102500004860002125488160C1604FF4806101610D
:1025100049004161890081610021C161016241621C
:10252000FEF7B8FF08B1FDF7D6FF00BF1B48E06417
:10253000846300BF18481830194908604FF00060E4
:1025400048604021164881600021C1604FF48061DD
:10255000016149004161890081610021C16101621D
:102560004162FEF797FF08B1FDF7B5FF00BF0C48C9
:10257000A064846300BF002211465420FFF724FAB0
:102580005420FFF70DFA06B010BD000000340140E2
:10259000443802400010024010640240100F002036
:1025A000700F00202DE9FF5F0446884691461D46C6
:1025B0000E9E012002900020019000BF94F8500070
:1025C000012803D1022004B0BDE8F09F012084F867
:1025D000500000BFFFF740F9074694F851B060681B
:1025E0000390AA46BBF1010F0BD00398B0F5827F90
:1025F00004D1A06810B9BBF1040F02D002200190F1
:10260000E9E0B8F1000F03D0B9F1000F00D015B91F
:1026100001200190DFE094F85100042802D0052049
:1026200084F8510000206065C4F83890E587A587DC
:10263000C4F83080E586A586206460642068006860
:1026400000F04000402805D02068006840F04000BD
:1026500021680860E068B0F5006F4DD1606810B186
:10266000BAF1010F09D1206B00882168C860206B86
:10267000801C2063E08E401EE08636E02068806883
:1026800000F00200022810D1E08E70B102980128FB
:102690000BD1206B00882168C860206B801C2063F0
:1026A000E08E401EE086002002902068806800F0E6
:1026B000010068B1E08F58B12068C068A16B088044
:1026C000A06B801CA063E08F401EE0870120029079
:1026D000FFF7C2F8C01BB04207D3701C28B103201B
:1026E0000190012084F8510075E0E08E0028C5D1EA
:1026F000E08F0028C2D14DE0606810B1BAF1010F3F
:1027000009D1206B007821680873206B401C20637E
:10271000E08E401EE08637E02068806800F002000E
:10272000022810D1E08E70B1029801280BD1206BE5
:10273000007821680873206B401C2063E08E401EE7
:10274000E086002002902068806800F0010068B1F7
:10275000E08F58B12068C068A16B0870A06B401C66
:10276000A063E08F401EE08701200290FFF774F81D
:10277000C01BB04201D3701C00B92EB903200190D8
:10278000012084F8510026E0E08E0028C4D1E08FBB
:102790000028C1D13A463146204602F0E3FF20B17D
:1027A000012001902020606515E0A06850B900BFAD
:1027B000002000902068C068009020688068009029
:1027C00000BF00BF606D10B10120019002E0012048
:1027D00084F8510000BF00BF002084F8500000BF03
:1027E0000198F0E67047704730B502460B4600BFCF
:1027F00092F83C00012801D1022030BD012082F86E
:102800003C0000BF022082F83D0010684468106858
:10281000816824F070041868044310684460184DFF
:102820001068A8421BD01068B0F1804F17D0154D2A
:102830001068A84213D0144D1068A8420FD0134D51
:102840001068A8420BD0124D1068A84207D0114D55
:102850001068A84203D0104D1068A84205D121F09D
:1028600080015868014310688160012082F83D00B2
:1028700000BF002082F83C0000BF00BFBDE70000A1
:10288000000001400004004000080040000C00402F
:1028900000040140004001400018004010B504460B
:1028A0000CB9012010BD94F83D0028B9002084F82F
:1028B0003C00204600F026F8022084F83D00211D4F
:1028C000206801F00FFA012084F8460000BF84F868
:1028D0003E0001213F200155402001554120015576
:1028E00000BF00BF012084F842004320015544206E
:1028F00001554520015500BF012084F83D0000200E
:10290000D0E7000010B586B00446142101A8FDF7F9
:1029100034FD2068B0F1804F2ED100BF0020009020
:102920001648006840F00100144908600846006835
:1029300000F00100009000BF00BF00BF0020009029
:102940000E481038006840F001000C49103908604A
:102950000846006800F00100009000BF00BF06209C
:102960000190022002900020039004900120059025
:1029700001A90348FEF762FE06B010BD40380240D0
:1029800000000240014691F83D00012801D00120DD
:102990007047022081F83D000868C06840F00100DF
:1029A0000B68D8601A4B086898421BD00868B0F1D1
:1029B000804F17D0174B0868984213D0164B086801
:1029C00098420FD0154B086898420BD0144B0868FA
:1029D000984207D0134B0868984203D0124B0868FE
:1029E00098420CD10868806800F00702062A0CD0D3
:1029F0000868006840F001000B68186005E008688E
:102A0000006840F001000B6818600020C0E700007B
:102A1000000001400004004000080040000C00409D
:102A20000004014000400140001800402DE9F04141
:102A300004460D46002700BF94F83C00012802D14F
:102A40000220BDE8F081012084F83C0000BF022094
:102A500084F83D002068866826F0770626F47F46D5
:102A6000206886602868502833D00CDC202850D09D
:102A700004DC00284BD0102851D149E0302849D03F
:102A800040284CD139E060282DD0702807D0B0F50F
:102A9000805F03D0B0F5005F41D10DE041E0D5E9A2
:102AA00002136A68206801F091F92068866846F090
:102AB00077062068866034E0D5E902136A682068EA
:102AC00001F084F92068806840F4804021688860C3
:102AD00027E0EA686968206802F09BFF50212068BF
:102AE00002F08EFF1DE0EA686968206802F0A4FF2A
:102AF0006021206802F084FF13E0EA6869682068BA
:102B000002F087FF4021206802F07AFF09E000BF51
:102B100000BF00BF2968206802F072FF01E00127B2
:102B200000BF00BF012084F83D0000BF002084F8F2
:102B30003C0000BF384684E7704770B50446206803
:102B4000C5682068066906F00200022819D105F060
:102B50000200022815D1401F21680861012020775A
:102B60002068806900F0030018B12046FFF7E4FFF9
:102B700005E0204600F032F9204600F015FA00206A
:102B8000207706F00400042819D105F00400042879
:102B900015D1C04321680861022020772068806930
:102BA00000F4407018B12046FFF7C6FF05E020464C
:102BB00000F014F9204600F0F7F90020207706F025
:102BC0000800082819D105F00800082815D1C043CD
:102BD00021680861042020772068C06900F00300A4
:102BE00018B12046FFF7A8FF05E0204600F0F6F8F0
:102BF000204600F0D9F90020207706F010001028B8
:102C000019D105F01000102815D1C04321680861C2
:102C1000082020772068C06900F4407018B1204671
:102C2000FFF78AFF05E0204600F0D8F8204600F0C4
:102C3000BBF90020207706F0010048B105F0010043
:102C400030B16FF0010021680861204600F0AEF954
:102C500006F08000802809D105F08000802805D189
:102C6000C043216808612046FFF7BCFD06F0400024
:102C7000402809D105F04000402805D1C043216813
:102C80000861204600F09EF906F02000202809D1B6
:102C900005F02000202805D1C043216808612046A6
:102CA000FFF7A1FD70BD000010B586B004461421E9
:102CB00001A8FDF762FB2068B0F1804F1DD100BF75
:102CC000002000903E48006840F001003C49086048
:102CD0000846006800F00100009000BF00BF01201E
:102CE00001900220029000200390049001200590A2
:102CF00001A93448FEF7A2FC60E03349206888420D
:102D00001ED100BF002000902D48006840F0080050
:102D10002B4908600846006800F00800009000BFDA
:102D200000BF4FF440400190022002900020039029
:102D300004900220059001A92448FEF77FFC3DE0A5
:102D400023492068884239D100BF002000901C48E8
:102D5000006840F480701A4908600846006800F472
:102D60008070009000BF00BF00BF002000900846A8
:102D7000006840F0800008600846006800F08000AD
:102D8000009000BF00BF01200190022002900020AF
:102D9000039004900220059001A90E48FEF74EFC16
:102DA0004FF4E05001900220029000200390049024
:102DB0000220059001A90848FEF740FC06B010BDAE
:102DC000303802400000024000080040000C024081
:102DD000000C004000200240001C024070472DE91A
:102DE000F04104460D461646002700BF94F83C000B
:102DF000012802D10220BDE8F081012084F83C00C6
:102E000000BF36B1042E1BD0082E31D00C2E5ED15F
:102E100045E02946206802F055FD2068806940F0B1
:102E20000800216888612068806920F0040021681A
:102E3000886120688069296908432168886148E0C1
:102E40002946206800F0CEFF2068806940F40060C9
:102E5000216888612068806920F480602168886129
:102E600020688069296940EA01202168886130E092
:102E70002946206802F05EFD2068C06940F0080025
:102E80002168C8612068C06920F004002168C86119
:102E90002068C069296908432168C86119E029468A
:102EA000206802F083FD2068C06940F4006021685A
:102EB000C8612068C06920F480602168C86120680A
:102EC000C069296940EA01202168C86101E0012741
:102ED00000BF00BF00BF002084F83C0000BF3846A0
:102EE00089E710B504460CB9012010BD94F83D00E7
:102EF00028B9002084F83C00204600F025F8022084
:102F000084F83D00211D206800F0ECFE012084F8CB
:102F1000460000BF84F83E0001213F2001554020BB
:102F200001554120015500BF00BF012084F8420037
:102F300043200155442001554520015500BF012083
:102F400084F83D000020D0E708B5144A016891429A
:102F50000FD100BF002100911149096841F004011F
:102F60000F4A11601146096801F00401009100BF89
:102F700013E00C4A016891420FD100BF002100917B
:102F80000749096841F00801054A116011460968BE
:102F900001F00801009100BF00BF08BD000800401B
:102FA00040380240000C00407047000010B5044655
:102FB00003492068884201D1FEF754FC10BD00008F
:102FC0000000014070477047704700002DE9F84F3E
:102FD0000446206805682068C668206847694FF085
:102FE0000009CA4605F00F09B9F1000F0AD105F032
:102FF000200038B106F0200020B1204602F06EFE1D
:10300000BDE8F88FB9F1000F7CD007F0010018B9C6
:1030100006F49070002875D005F0010030B106F478
:10302000807018B1606C40F00100606405F004002D
:1030300030B107F0010018B1606C40F0020060642C
:1030400005F0020030B107F0010018B1606C40F0EB
:103050000400606405F0080048B106F0200010B9D3
:1030600007F0010018B1606C40F008006064606C0B
:10307000002846D005F0200028B106F0200010B14D
:10308000204602F02BFE20684069C0F3801A606C75
:1030900000F0080010B9BAF1000F2DD0204602F060
:1030A000DDFE2068406900F04000402820D100BFCC
:1030B00000BF2168143151E8001F21F04000216851
:1030C000143141E80002002AF3D100BFE06B50B197
:1030D0007748E16B0865E06BFEF7A7F888B1E06B15
:1030E000016D88470DE02046FFF76EFF09E009E01B
:1030F0002046FFF769FF04E02046FFF765FF002048
:1031000060647DE7206B012878D105F0100000286D
:1031100074D006F010000028FAD000BF0020009004
:1031200020680068009020684068009000BF00BFE1
:103130002068406900F04000402860D1E06B0068E2
:1031400040681FFA80F8B8F1000F56D0A08D4045B6
:1031500053DDA4F82E80E06BC069B0F5807F43D0CA
:1031600000BF00BF21680C3151E8001F21F48070BE
:1031700021680C3141E80002002AF3D100BF00BFF2
:1031800000BF2168143151E8001F21F001002168BF
:10319000143141E80002002AF3D100BF00BF00BF94
:1031A0002168143151E8001F21F0400021681431DA
:1031B00041E80002002AF3D100BF202084F8420039
:1031C0000020206300BF00BF21680C3151E8001FC0
:1031D00021F0100021680C3141E80002002AF3D1EF
:1031E00000BFE06BFDF7CBFF02206063A08DE28D96
:1031F000801A81B22046FFF7E6FE01E742E0A08D8B
:10320000E18D401A1FFA80F8E08DD0B3B8F1000FBD
:1032100037D000BF00BF21680C3151E8001F21F4F6
:10322000907021680C3141E80002002AF3D100BF00
:1032300000BF00BF2168143151E8001F21F00100D8
:103240002168143141E80002002AF3D100BF202098
:1032500084F842000020206300BF00BF21680C31C9
:1032600051E8001F21F0100021680C3141E80002F4
:10327000002AF3D100BF0220606341462046FFF7D9
:10328000A2FEBDE605F0800030B106F0800018B166
:10329000204602F0A1FDB3E605F0400030B106F093
:1032A000400018B1204602F07CFEA9E600BFA7E668
:1032B000C35F000810B504460CB9012010BDA06919
:1032C00000B100E000BF94F8410028B9002084F864
:1032D0004000204600F02AF8242084F841002068AD
:1032E000C06820F400502168C860204602F0E0FB6E
:1032F0002068006920F490402168086120684069D6
:1033000020F02A00216848612068C06840F400501D
:103310002168C86000206064202084F8410084F89F
:1033200042000020606300BFC8E7000010B586B00F
:103330000446142101A8FDF720F89D492068884221
:103340007AD100BF002000909A48006840F0004009
:10335000984908600846006800F00040009000BFEF
:1033600000BF00BF0020009092481038006840F075
:1033700010009049103908600846006800F01000FD
:10338000009000BF00BF03200190022002900020A7
:103390000390032004900820059001A98648FEF7B9
:1033A0004DF98648864908604FF02060486040210A
:1033B000834881600021C1604FF480610161002178
:1033C00041618161C1614FF440310162002141627C
:1033D000FEF760F808B1FDF77EF800BF7848A063FB
:1033E000846300BF754890307649086000054860E6
:1033F000002174488160C1604FF480610161002147
:1034000041618161C1614FF440310162002141623B
:10341000FEF740F808B1FDF75EF800BF6948E063C9
:10342000846300BF002211465320FEF7CDFA5320DB
:10343000FEF7B6FAB9E0FFE76349206888427CD11D
:1034400000BF002000905B48001D006840F01000A5
:103450005849091D08600846006800F010000090F7
:1034600000BF00BF00BF0020009052481038006825
:1034700040F002004F49103908600846006800F02B
:103480000200009000BF00BF00BF0020009008466F
:10349000006840F0010008600846006800F0010084
:1034A000009000BF00BF8020019002200290002009
:1034B0000390032004900720059001A94348FEF7DC
:1034C000BDF84FF40070019002200290002003909C
:1034D000032004900720059001A93D48FEF7AEF8AF
:1034E0003C483D4908604FF00060486000213A4880
:1034F0008160C1604FF4806101610021416181619F
:103500004FF48071C16100210162042141620321F5
:1035100081620021C1620163FDF7BCFF08B1FCF7C5
:10352000DAFF00BF2C48E063846300BF002211462D
:103530002520FEF749FA252000E002E0FEF730FAE8
:1035400033E02649206888422FD100BF0020009038
:103550001848006840F400301649086008460068C2
:1035600000F40030009000BF00BF00BF00200090BA
:1035700010481038006840F008000E491039086003
:103580000846006800F00800009000BF00BF6020FF
:103590000190022002900020039003200490072055
:1035A000059001A90E48FEF749F806B010BD0000CD
:1035B000007C004040380240001002401060024091
:1035C00080110020E01100200010014000040240A2
:1035D00000000240406402404012002000440040CD
:1035E000000C024070B504460D46164694F84200A1
:1035F00020280BD105B10EB9012070BD0020206339
:1036000032462946204600F033FCF6E70220F4E774
:1036100010B5044603492068884201D101F0BCFE80
:1036200010BD0000001001407047704700BFFEE76A
:1036300010B50D480D4908600920486000210B486D
:103640008160C1604FF48031016109014161002155
:10365000017641768176C17601774177FDF77CFA74
:1036600008B1FCF738FF10BD00640040680E002070
:1036700010B50D480D4908600920486000210B482D
:103680008160C1604FF48031016109014161002115
:10369000017641768176C17601774177FDF75CFA54
:1036A00008B1FCF718FF10BD00680040900E002024
:1036B00008B500BF002000902248006840F40010C8
:1036C000204908600846006800F40010009000BF20
:1036D00000BF00BF002000900846006840F4800052
:1036E00008600846006800F48000009000BF00BF3A
:1036F000002211460B20FEF767F90B20FEF750F968
:10370000002211461120FEF75FF91120FEF748F95B
:10371000002211463820FEF757F93820FEF740F90D
:10372000002211463920FEF74FF93920FEF738F90B
:10373000002211463A20FEF747F93A20FEF730F909
:1037400008BD00003038024000B587B0142102A83F
:10375000FCF713FE00BF002001909348006840F082
:103760001000914908600846006800F010000190C0
:1037700000BF00BF00BF002001900846006840F075
:10378000010008600846006800F00100019000BFD9
:1037900000BF00BF002001900846006840F0020012
:1037A00008600846006800F00200019000BF00BFFA
:1037B00000BF002001900846006840F00800086043
:1037C0000846006800F00800019000BF00BF00BF7D
:1037D000002001900846006840F004000860084698
:1037E000006800F00400019000BF00BF00BF00208F
:1037F00001900846006840F0200008600846006814
:1038000000F02000019000BF00BF00BF0020019029
:103810000846006840F4807008600846006800F4BC
:103820008070019000BF00BF00BF002001900846DB
:10383000006840F0800008600846006800F08000E2
:10384000019000BF00BF00BF002001900846006843
:1038500040F0400008600846006800F04000019019
:1038600000BF00BF012210215048FDF7EFFF0122E9
:1038700003214F48FDF7EAFF00222C214D48FDF7B8
:10388000E5FF012210214B48FDF7E0FF00224FF435
:10389000FF714948FDF7DAFF012204214748FDF78F
:1038A000D5FF012203214648FDF7D0FF10200290EA
:1038B0000120039004900320059002A93B48FDF7E6
:1038C000BDFE032002900120039004900320059088
:1038D00002A93748FDF7B2FE3C2002900120039078
:1038E00004900020059002A93248FDF7A7FE4FF48E
:1038F000FE7002900120039000200490059002A920
:103900002D48FDF79BFE04200290012003900490B7
:103910000320059002A92948FDF790FE022002909D
:103920000120039004900020059002A92248FDF791
:1039300085FE10200290002003900120049002A92F
:103940001E48FDF77BFE202002904FF48810039064
:103950000020049002A91B48FDF770FE4FF4C070D0
:10396000029002200390002004900320059008207C
:10397000069002A90D48FDF761FE02200290012089
:10398000039004900220059002A90D48FDF756FE11
:1039900001200290039000200490059002A908489D
:1039A000FDF74CFE07B000BD303802400010024069
:1039B00000140240001C02400018024000080240AF
:1039C000000402400000024010B510481049086091
:1039D0004FF48270486000210D4881604FF400610F
:1039E000C160002101610121416149028161182109
:1039F000C16100210162416281620A21C162FEF758
:103A0000DBFC08B1FCF767FD10BD0000003401408D
:103A1000B80E002000B58DB0002009900A900B90E0
:103A20000C90079008901C216846FCF7A6FC4FF00C
:103A3000804020490860B320486000211D48816013
:103A40004FF4FA61C1600021016180218161FEF7BC
:103A500025FF08B1FCF73FFD4FF48050099009A9FC
:103A60001448FEF7E3FF08B1FCF735FD1148FFF7F6
:103A700038FA08B1FCF72FFD00200790089007A93D
:103A80000C48FEF7B1FE08B1FCF725FD6020009060
:103A90000020019002900490002269460548FFF73B
:103AA0009EF908B1FCF717FD0248FFF7FDF80DB0CD
:103AB00000BD0000D00F002000B589B000200790A5
:103AC00008901C216846FCF758FC1C481C490860FB
:103AD0005320486000211A48816044F61F61C1608C
:103AE0000021016180218161FFF7FBF908B1FCF73A
:103AF000F2FC00200790089007A91148FEF774FE19
:103B000008B1FCF7E8FC60200090002001900290D2
:103B10000490082269460A48FFF761F908B1FCF7EA
:103B2000DAFC0C2269460648FFF759F908B1FCF7A0
:103B3000D2FC0348FFF7B8F809B000BD0008004008
:103B40001810002000B589B00020079008901C21B3
:103B50006846FCF712FC244824490860532048605A
:103B600000212248816044F61F61C160002101618B
:103B700080218161FFF7B5F908B1FCF7ACFC0020AA
:103B80000790089007A91948FEF72EFE08B1FCF728
:103B9000A2FC60200090002001900290049000227E
:103BA00069461248FFF71BF908B1FCF794FC0422A0
:103BB00069460E48FFF713F908B1FCF78CFC0822A0
:103BC00069460A48FFF70BF908B1FCF784FC0C22A0
:103BD00069460648FFF703F908B1FCF77CFC034887
:103BE000FFF762F809B000BD000C00406010002033
:103BF00010B50B480B4908604FF4E13048600021D4
:103C000008488160C16001610C214161002181612E
:103C1000C161FFF74FFB08B1FCF75DFC10BD000070
:103C2000007C0040A810002010B50C480C4908602A
:103C30000C4848604FF48051094881600021C16000
:103C40004FF4806101610421416100218161C16102
:103C5000FFF730FB08B1FCF73EFC10BD001001403F
:103C6000F0100020A086010010B50B480B49086039
:103C70004FF4E1304860002108488160C160016173
:103C80000C21416100218161C161FFF713FB08B183
:103C9000FCF721FC10BD000000440040381100205A
:103CA00000BFFEE700BFFEE77047000010B5024806
:103CB000FEF7D4FA10BD0000B80E00207047704720
:103CC0000348006840F47000014908607047000034
:103CD00088ED00E010B50248FEF72FFF10BD000090
:103CE000A012002010B502682D4B98420ED0B0F102
:103CF000804F0BD02B4B984208D02B4B984205D0CD
:103D00002A4B984202D02A4B984203D122F07002EB
:103D10004B681A43224B984220D0B0F1804F1DD0FF
:103D2000204B98421AD0204B984217D01F4B9842F4
:103D300014D01F4B984211D01E4B98420ED01E4BF0
:103D400098420BD01D4B984208D01D4B984205D08D
:103D50001C4B984202D01C4B984203D122F4407273
:103D6000CB681A4322F080034C6943EA04020260E4
:103D70008B68C3620B688362094B984202D00C4B7C
:103D8000984201D10B69036301234361036903F086
:103D900001031BB1036923F00103036110BD00009F
:103DA000000001400004004000080040000C0040FA
:103DB000000401400040014000440140004801402F
:103DC00000180040001C00400020004030B50C46A8
:103DD000816821F47F4142EA03252543294381601C
:103DE00030BD000030B5026A056A25F01005056295
:103DF0004368846924F4E04424F440740D6844EA80
:103E0000052422F020028D6842EA0512124DA842D4
:103E100000D103E0114DA84207D100BF22F080027B
:103E2000CD6842EA051222F040020B4DA84202D0B2
:103E30000A4DA84209D123F4806323F400634D693D
:103E400043EA85038D6943EA8503436084614D68D5
:103E50008563026230BD00000000014000040140A3
:103E600010B50248FFF7B2F810BD0000A8100020FE
:103E700077B581B0044615460298A062A58500205A
:103E80006064222084F842002848E16BC863284817
:103E9000E16B08642748E16BC8640020E16B0865AA
:103EA00002AE32682368191D2B46E06BFDF768FBF4
:103EB00000BF0020009020680068009020684068E3
:103EC000009000BF00BF206970B100BF00BF216833
:103ED0000C3151E8001F41F4807021680C3141E839
:103EE0000002002AF3D100BF00BF00BF21681431D7
:103EF00051E8001F41F001002168143141E800023F
:103F0000002AF3D100BF00BF00BF2168143151E87F
:103F1000001F41F040002168143141E80002002AEE
:103F2000F3D100BF002004B070BD0000EF5E0008B8
:103F3000395E0008615A000810B50248FFF746F8DC
:103F400010BD0000F010002000BFFEE7B4EEE00A54
:103F5000F1EE10FA03DD30EE601AB0EE410AB5EE74
:103F6000C00AF1EE10FA03D230EE201AB0EE410A88
:103F70007047000070B52DED028B0446B0EE408A0C
:103F8000F0EE608A0D4624B99FED7F0ABDEC028BEE
:103F900070BD94ED100A84ED110A94ED0F0A84EDC2
:103FA000100AC4ED068A84ED078ABCEEC80A10EE3A
:103FB000102A91B2BCEEE80A10EE102A90B22A46FE
:103FC00001F02CFB84ED0F0A2078002875D194EDC8
:103FD000010AD4ED0F0A20EE200A84ED090A94EDBF
:103FE0000A0AD4ED020A94ED0F1A00EE810A84ED5C
:103FF0000A0A94ED0D0A84ED0E0A94ED0C0A84ED84
:104000000D0A94ED0F0AD4ED100A30EE600A84ED2B
:104010000C0A94ED030AD4ED0C0A20EE200A84ED7C
:104020000B0A94ED0A0AD4ED050AB4EEE00AF1EEAB
:1040300010FA04DD94ED050A84ED0A0A10E094ED0F
:104040000A0AD4ED050AF1EE600AB4EEE00AF1EED8
:1040500010FA05D294ED050AB1EE400A84ED0A0A81
:1040600094ED090AD4ED0A0A30EE200AD4ED0B0AC9
:1040700030EE200A84ED080A94ED080AD4ED040A13
:10408000B4EEE00AF1EE10FA04DD94ED040A84EDDA
:10409000080A76E094ED080AD4ED040AF1EE600A0D
:1040A000B4EEE00AF1EE10FA6BD294ED040AB1EE30
:1040B000400A84ED080A64E0FFE72078012860D117
:1040C00094ED0F0AD4ED100A30EE600AD4ED010A27
:1040D00020EE200A84ED090A94ED020AD4ED0F0ABD
:1040E00020EE200A84ED0A0A94ED0D0A84ED0E0AF2
:1040F00094ED0C0A84ED0D0A94ED0F0AD4ED100A2C
:10410000B0EE001A01EE600AD4ED110A30EE200A7A
:1041100084ED0C0A94ED030AD4ED0C0A20EE200A7B
:1041200084ED0B0A94ED090AD4ED0A0A30EE200A58
:10413000D4ED0B0A30EE200AD4ED080A30EE200A46
:1041400084ED080A94ED080AD4ED040AB4EEE00AFE
:10415000F1EE10FA04DD94ED040A84ED080A10E093
:1041600094ED080AD4ED040AF1EE600AB4EEE00A18
:10417000F1EE10FA05D294ED040AB1EE400A84ED96
:10418000080A94ED080A01E70000000070B5054632
:1041900035B1012D1AD0022D2ED0032D64D141E06E
:1041A000002202213248FDF751FB48F2200001F0C5
:1041B00089F8FF2001F086F8C0F30E00C0F5004436
:1041C000012202212A48FDF741FB4DE00022012196
:1041D0002748FDF73BFB48F2200001F073F8FF2071
:1041E00001F070F8C0F30E00C0F500440122114642
:1041F0001F48FDF72BFB37E0002204211D48FDF787
:1042000025FB48F2200001F05DF8FF2001F05AF88C
:10421000C0F30E00C0F50044012204211548FDF74B
:1042200015FB21E0002210211348FDF70FFB48F297
:10423000200001F047F81048006820F440500E4973
:104240000860FF2001F03EF8C0F30E00C0F5004406
:104250000948006840F40050074908600122102115
:104260000548FDF7F3FA00BF00BF204670BD00000F
:1042700000140240000802400010024030B589B02E
:1042800004460CB909B030BD354AD2E90010926835
:10429000CDE907020691324A0C32D2E90010926849
:1042A000CDE9040203912E4A183207CA8DE80700AF
:1042B00000252FE0284601F07FF8C5EBC50101EB92
:1042C000051204F5B86141F83200C5EBC50101EBF8
:1042D000051204F5B86101EBC20101F14C00DFEDFC
:1042E000210A9FED210A03AA002101F067F9C5EB1D
:1042F000C50101EB051204F5B86101EBC201081D0F
:10430000DFED1A0AB0EE000A6A46002101F056F904
:10431000681CC5B2042DCDDB00251AE0284601F04B
:1043200041F8C5EBC50101EB051144F83100C5EBBF
:10433000C50101EB051104EBC10101F14C00DFEDFA
:10434000090A9FED090A06AA002101F037F9681C45
:10435000C5B2042DE2DB204600F0CAFF00BF91E7A2
:10436000348300080000FA4400401C4600000000AE
:10437000F8B507460C4615461E464FF400700D4929
:10438000086000208860C86008200861380A0A496F
:1043900008704F70200A8870CC70280A08714D711F
:1043A000300A8871CE716B460A4602490348FCF711
:1043B000AAF8F8BDF01300201C000020680E0020B1
:1043C000204800781F49497840EA0120C0F30A00DC
:1043D0001D4908801B484078C0101A49897840EA76
:1043E0004110C0F30A0018494880164880788011AF
:1043F0001449C97840EA81001249097940EA8120CC
:10440000C0F30A00104988800E48007940100D4919
:10441000497940EAC110C0F30A000B49C880094835
:10442000007C0849497C40EA012007490881054889
:10443000407900118008887202484079C0F3011069
:10444000C8727047781400208A14002010B58AB012
:1044500004460F48844201D10E2005900D48844245
:1044600001D1002005900020069001200790002037
:10447000009001900290039004900E20099001207A
:10448000089069462046FCF7E3F80AB010BD00002A
:10449000900E0020680E0020F8B507460C46154621
:1044A0001E464FF400700D49086000208860C86007
:1044B00008200861380A0A4908704F70200A88707D
:1044C000CC70280A08714D71300A8871CE716B4624
:1044D0000A4602490348FCF716F8F8BDF01300201D
:1044E0001C000020900E002000B593B0302107A8DA
:1044F000FBF743FF142102A8FBF73FFF00BF00209A
:1045000001902748006840F080502549086008461F
:10451000006800F08050019000BF00BF00BF002085
:1045200001902048006820F4404040F480401D493C
:1045300008600846006800F44040019000BF00BFDA
:10454000012007900004089002200D9041050E9173
:1045500006210F915A2110910221119104211291EB
:1045600007A8FDF72BFC08B1FBF7B5FFFDF77EFAB6
:1045700008B1FBF7B0FF0F2002900220039000204B
:1045800004904FF48050059000200690022102A86C
:10459000FDF7B2FA08B1FBF79EFF13B000BD0000B3
:1045A000403802400070004010B52DED108B82B0F5
:1045B000F0EE408AB0EE609AB0EE418A0446F5EE25
:1045C000C08AF1EE10FA09D1B5EEC09AF1EE10FAF8
:1045D00004D1B5EEC08AF1EE10FA7CD018EE100AC4
:1045E00003F0A4FD41EC1E0B9FEDFA0B53EC102BD6
:1045F00003F0A6FA41EC1C0B18EE900A03F096FDAE
:1046000041EC1D0B53EC1C2B03F004F841EC1A0B8E
:1046100018EE100A03F08AFD41EC1E0B9FEDED0B26
:1046200053EC102B03F08CFA41EC1C0B19EE100A22
:1046300003F07CFD41EC1D0B53EC1C2B03F08CFCB8
:1046400041EC1B0BB0EE4A1AF0EE6A1AB0EE4B0AC0
:10465000F0EE6B0A01F07CFE8DED000B9FEDDF0BA1
:1046600053EC102B9DED000B51EC100B03F068FA8E
:1046700041EC1F0B9FEDDB0B53EC102B03F086F886
:10468000DA4A03C218EE100A03F050FD41EC1E0B8B
:104690009FEDD00B53EC102B03F052FA41EC1C0BA6
:1046A00018EE900A03F042FD41EC1D0B53EC1C2B5D
:1046B00003F052FC41EC1B0B18EE100A03F036FD20
:1046C00041EC1E0B9FEDC30B53EC102B03F038FA9B
:1046D00041EC1C0B00E0E2E019EE100A03F026FDAD
:1046E00041EC1D0B53EC1C2B03F036FC41EC1F0B73
:1046F000B0EE4B1AF0EE6B1AB0EE4F0AF0EE6F0A06
:1047000001F026FEB0EE40AAF0EE60AA9FEDB30BDA
:1047100053EC102B51EC1A0B03F012FA9FEDB10B76
:1047200053EC102BCDE900019DED000B51EC100B6B
:1047300003F02CF8AD4AC2E9020118EE100A03F0AA
:10474000F5FC41EC1E0B9FEDA30B53EC102B03F07B
:10475000F7F941EC1C0B18EE900A03F0E7FC41EC72
:104760001D0B53EC1C2B02F055FF41EC1A0B18EEFD
:10477000100A03F0DBFC41EC1E0B9FED960B53EC93
:10478000102B03F0DDF941EC1C0B19EE100A03F0BD
:10479000CDFC41EC1D0B53EC1C2B02F03BFF41EC1C
:1047A0001B0BB0EE4A1AF0EE6A1AB0EE4B0AF0EEAE
:1047B0006B0A01F0CDFDB0EE40FAF0EE60FA9FED2D
:1047C000870B53EC102B51EC1F0B03F0B9F99FED45
:1047D000850B53EC102BCDE900019DED000B51EC46
:1047E000100B02F0D3FF814AC2E9040118EE100A4F
:1047F00003F09CFC41EC1E0B9FED760B53EC102B51
:1048000003F09EF941EC1C0B18EE900A03F08EFCAD
:1048100041EC1D0B53EC1C2B03F09EFB41EC1A0BDF
:1048200018EE100A03F082FC41EC1E0B9FED690BA1
:1048300053EC102B03F084F941EC1C0B19EE100A19
:1048400003F074FC41EC1D0B53EC1C2B02F0E2FE58
:1048500041EC1B0BB0EE4A1AF0EE6A1AB0EE4B0AAE
:10486000F0EE6B0A01F074FDB0EE40FAF0EE60FA83
:104870009FED5A0B53EC102B51EC1F0B03F060F91A
:104880009FED580B53EC102BCDE900019DED000B73
:1048900051EC100B02F07AFF544AC2E9060153486A
:1048A00090ED001BB0EE410AF0EE610A9FED501B47
:1048B00053EC112B51EC100B03F042F941EC1A0BA5
:1048C00002F076FE00EE100A4B48D0ED000A30EE02
:1048D000200AF0EE409ADFED490AFFF737FB84ED3E
:1048E000000A424890ED021BB0EE410AF0EE610A68
:1048F0009FED3F1B53EC112B51EC100B03F020F9F3
:1049000041EC1A0B02F054FE00EE100A3A48D0EDCA
:10491000010A30EE200AF0EE409ADFED380AFFF788
:1049200015FB84ED010A314890ED041BB0EE410AFD
:10493000F0EE610A9FED2E1B53EC112B51EC100B86
:1049400003F0FEF841EC1A0B02F032FE00EE100A02
:104950002948D0ED020A30EE200AF0EE409ADFED51
:10496000270AFFF7F3FA84ED020A204890ED061BB0
:10497000B0EE410AF0EE610A9FED1D1B53EC112BC6
:1049800051EC100B03F0DCF841EC1A0B02F010FEB6
:1049900000EE100A1848D0ED030A30EE200AF0EEBF
:1049A000409ADFED160AFFF7D1FA84ED030A1448A6
:1049B00090ED000AD4ED000A30EE600AB5EEC00AB0
:1049C000F1EE10FA1EDD90ED000AD4ED000A30EE93
:1049D000600A20E0BBB9F8DB9EA0E63F00000000C3
:1049E0000080664000000060FB2109404814002060
:1049F000000000A047C156403000002000000047E2
:104A000018140020684890ED000AD4ED000A30EE3A
:104A1000600AB1EE400ADFED650AB4EEE00AF1EE9D
:104A200010FA11DD012062490870D4ED000A9FEDF3
:104A3000611A70EEC10AB0EE600A5FED100AFFF76E
:104A400085FA84ED000A02E0FF20594908705648B3
:104A500090ED010AD4ED010A30EE600AB5EEC00A0D
:104A6000F1EE10FA06DD90ED010AD4ED010A30EE08
:104A7000600A08E04C4890ED010AD4ED010A30EEDE
:104A8000600AB1EE400ADFED490AB4EEE00AF1EE49
:104A900010FA11DDFF2046494870D4ED010A9FED60
:104AA000451A70EEC10AB0EE600A5FED2C0AFFF7FE
:104AB0004DFA84ED010A02E001203D4948703A4870
:104AC00090ED020AD4ED020A30EE600AB5EEC00A9B
:104AD000F1EE10FA06DD90ED020AD4ED020A30EE96
:104AE000600A08E0304890ED020AD4ED020A30EE88
:104AF000600AB1EE400ADFED2D0AB4EEE00AF1EEF5
:104B000010FA11DDFF202A498870D4ED020A9FEDCA
:104B1000291A70EEC10AB0EE600A5FED480AFFF78D
:104B200015FA84ED020A02E00120214988701E482E
:104B300090ED030AD4ED030A30EE600AB5EEC00A28
:104B4000F1EE10FA06DD90ED030AD4ED030A30EE23
:104B5000600A08E0144890ED030AD4ED030A30EE31
:104B6000600AB1EE400ADFED110AB4EEE00AF1EEA0
:104B700010FA11DDFF200E49C870D4ED030A9FED35
:104B80000D1A70EEC10AB0EE600A5FED640AFFF71D
:104B9000DDF984ED030A02E001200549C87002B086
:104BA000BDEC108B10BD0000181400200000004662
:104BB0002A0000200000804630B52DED108B8DB00E
:104BC000F0EE408AB0EE609AB0EE418A04469FED66
:104BD000FE0A10EE105A284603F0A8FACDE90801A3
:104BE00018EE100A03F0A2FA41EC1E0B9FEDF70B32
:104BF00053EC102B02F0A4FF41EC1C0B18EE900AB2
:104C000003F094FA41EC1D0B53EC1C2B02F002FD57
:104C100041EC1B0B0220B0EE4B0AF0EE6B0A01F0E8
:104C2000F7F9B0EE40AAF0EE60AA18EE100A03F011
:104C30007DFA41EC1E0B9FEDE50B53EC102B02F0BF
:104C40007FFF41EC1C0B19EE100A03F06FFA41ECE8
:104C50001D0B53EC1C2B03F07FF941EC1B0B0220C6
:104C6000B0EE4B0AF0EE6B0A01F0D2F9B0EE40FA6A
:104C7000F0EE60FA53EC1A2B51EC1F0B02F0CAFC59
:104C8000CDE900019DED000B02F082FA8DED040BE1
:104C9000D04991F9000002F000FFCDE902019DED3D
:104CA000040B53EC102B9DED020B51EC100B02F09A
:104CB00047FFCDE906019DED080B53EC102B9DED50
:104CC000060B51EC100B02F03BFFCDE90A019DED04
:104CD0000A0B51EC100B02F06BFC2060284603F02D
:104CE00025FACDE9080118EE100A03F01FFA41EC8D
:104CF0001E0B9FEDB60B53EC102B02F021FF41EC85
:104D00001C0B18EE900A03F011FA41EC1D0B53EC4A
:104D10001C2B02F07FFC41EC1B0B0220B0EE4B0A77
:104D2000F0EE6B0A01F074F98DED020B18EE100A2B
:104D300003F0FCF941EC1E0B9FEDA40B53EC102B80
:104D400002F0FEFE41EC1C0B19EE100A03F0EEF926
:104D500041EC1D0B53EC1C2B02F05CFC41EC1B0BDB
:104D60000220B0EE4B0AF0EE6B0A01F051F98DED26
:104D7000000B9DED020B53EC102B9DED000B51EC45
:104D8000100B02F047FCCDE904019DED040B02F08D
:104D9000FFF9B0EE40AAF0EE60AA8E4991F9010049
:104DA00002F07BFE53EC1A2BCDE906019DED060BBC
:104DB00051EC100B02F0C4FE41EC1F0B9DED080BF3
:104DC00053EC102B02F0BCFECDE90A019DED0A0B5D
:104DD00051EC100B02F0ECFB6060284603F0A6F9E2
:104DE000CDE9080118EE100A03F0A0F941EC1E0B02
:104DF0009FED760B53EC102B02F0A2FE41EC1C0B46
:104E000018EE900A03F092F941EC1D0B53EC1C2BA9
:104E100003F0A2F841EC1B0B0220B0EE4B0AF0EEBF
:104E20006B0A01F0F5F88DED020B18EE100A03F095
:104E30007DF941EC1E0B9FED650B53EC102B02F03E
:104E40007FFE41EC1C0B19EE100A03F06FF941ECE8
:104E50001D0B53EC1C2B02F0DDFB41EC1B0B022065
:104E6000B0EE4B0AF0EE6B0A01F0D2F88DED000BBC
:104E70009DED020B53EC102B9DED000B51EC100B34
:104E800002F0C8FB41EC1A0BB0EE4A0AF0EE6A0AD7
:104E900002F07EF9B0EE40FAF0EE60FA4D4991F979
:104EA000020002F0FAFD53EC1F2BCDE904019DED49
:104EB000040B51EC100B02F043FECDE906019DED11
:104EC000080B53EC102B9DED060B51EC100B02F070
:104ED00037FECDE90A019DED0A0B51EC100B02F0F3
:104EE00067FBA060284603F021F941EC1F0B18EE88
:104EF000100A03F01BF941EC1E0B9FED340B53EC31
:104F0000102B02F01DFE41EC1C0B18EE900A03F072
:104F10000DF941EC1D0B53EC1C2B03F01DF841EC7B
:104F20001B0B0220B0EE4B0AF0EE6B0A01F070F89A
:104F30008DED020B18EE100A03F0F8F841EC1E0B91
:104F40009FED220B53EC102B02F0FAFD41EC1C0BF1
:104F500019EE100A03F0EAF841EC1D0B53EC1C2B80
:104F600002F0FAFF41EC1B0B0220B0EE4B0AF0EE10
:104F70006B0A01F04DF88DED000B9DED020B53EC2B
:104F8000102B9DED000B51EC100B02F043FB41EC9C
:104F90001A0BB0EE4A0AF0EE6A0A02F0F9F88DED4B
:104FA000060B0C4991F9030002F077FDCDE90401ED
:104FB0009DED060B53EC102B9DED040B51EC100BEB
:104FC00002F0BEFD08E0000017BCDB43BBB9F8DB14
:104FD0009EA0E63F2A00002053EC1F2BCDE90801DC
:104FE0009DED080B51EC100B02F0AAFDCDE90A0172
:104FF0009DED0A0B51EC100B02F0DAFAE0600DB0F7
:10500000BDEC108B30BD000010B5122202490348E0
:10501000FEF7E8FA10BD000078140020F010002020
:1050200010B52DED068B12222A492B48FEF7DAFA2D
:105030002A49B1F9040002F030FD41EC1A0B9FED52
:10504000280B53EC102B02F07BFD41EC190B9FED6C
:10505000260B53EC102B02F073FD41EC180B02F001
:10506000EDFC00B2224908800846B0F9000041F288
:105070007071084400EE100AB8EEC00A1D4880EDB9
:10508000000A1B48B0F9000042F21071084400EE1B
:10509000100AB8EEC00A174880ED010A1448B0F9AA
:1050A000000000F5C86000EE100AB8EEC00A114812
:1050B00080ED020A0E48B0F9000000F5FA5000EE4B
:1050C000100AB8EEC00A0B4880ED030ABDEC068B4F
:1050D00010BD000078140020F0100020981400206B
:1050E000D218308D01D3284000000000000000409D
:1050F000500000200814002012480088A0F58060AD
:1051000000B2114908800F484088A0F5806000B2C5
:1051100048800C488088A0F5806000B288800948EB
:10512000C088A0F5806000B2C88006480089A0F55C
:10513000806000B208810348807A88720148C07A92
:10514000C87270478A1400209814002070B5044675
:1051500004F54060D0ED6F1AB0EE611AD0ED6E1A12
:10516000F0EE610AD0ED6D1AB0EE610A5148FFF71A
:105170001BFA04F54060D0ED6F1AB0EE611AD0ED65
:105180006E1AF0EE610AD0ED6D1AB0EE610A4A486F
:10519000FFF712FD002552E0464901EB850191ED34
:1051A000001AF0EE410A454901EB850191ED001A24
:1051B000B0EE410AC5EBC50101EB051204F5B8617B
:1051C00001EBC201081D4FF40041FEF7D3FEB1EE22
:1051D000400ABDEEC00A10EE100A00B2384908803D
:1051E000C5EBC50101EB051204F5B86101EBC20185
:1051F000D1ED250AB0EE600AC5EBC50101EB051241
:1052000004F5B86101EBC20101F14C002C49B1F980
:10521000001000EE901AF8EEE00A00F0D7F8BDEEAC
:10522000C00A10EE100A01B2C5EBC50000EB051272
:1052300004F5B86000EBC200A0F8A8106D1C042DA6
:10524000AADB002533E01C4800EB8500D0ED000A06
:10525000B0EE600AF1EE000AFEF778FE164901EBA7
:10526000850191ED001AF0EE410AC5EBC50101EB95
:10527000051104EBC10191ED251AB0EE410AC5EB11
:10528000C50101EB051104EBC10101F14C0000F077
:105290009DF8BDEEC00A10EE100A00B2C5EBC501C4
:1052A00001EB051104EBC101A1F8A8006D1C042D50
:1052B000C9DB70BD28140020381400201814002009
:1052C0002800002001B582B0002001904FF47A70D0
:1052D000012301AA02A900900448FDF763F908B16F
:1052E00000200EBDBDF80400FBE70000B80E002052
:1052F00070B5044604B970BD002528E0C5EBC500B3
:1053000000EB051104F5B86050F83100B0F9020067
:1053100000EE100AB8EEC00ADFED1D0A20EE200AEA
:10532000C5EBC50000EB051104F5B86000EBC1004A
:1053300080ED250A2846FEF729FF00EE100AB8EE98
:10534000400A144800EB850080ED000A6D1C042D16
:10535000D4DB002018E0C0EBC00101EB001154F8D1
:105360003110B1F9021000EE101AB8EEC00ADFEDEC
:10537000080A20EE200AC0EBC00101EB001104EB8B
:10538000C10181ED250A401C0428E4DB00BFB2E71F
:10539000FFC03F3A1814002000B5FFF711F8FFF7DF
:1053A000ABFE00BD014601EB8100024A02EB40006A
:1053B00070470000E8120020014601EB8100024A1C
:1053C00002EB40007047000038130020B0EE401A96
:1053D00010B99FED790A704790ED100A80ED110A1F
:1053E00090ED0F0A80ED100AC0ED060A80ED071A55
:1053F00030EEC10A80ED0F0A0178002975D190EDD9
:10540000010AD0ED0F1A20EE210A80ED090A90ED75
:105410000A0AD0ED021A90ED0F2A01EE820A80ED01
:105420000A0A90ED0D0A80ED0E0A90ED0C0A80ED4F
:105430000D0A90ED0F0AD0ED101A30EE610A80EDE2
:105440000C0A90ED030AD0ED0C1A20EE210A80ED33
:105450000B0A90ED0A0AD0ED051AB4EEE10AF1EE5E
:1054600010FA04DD90ED050A80ED0A0A10E090EDD7
:105470000A0AD0ED051AF1EE611AB4EEE10AF1EE76
:1054800010FA05D290ED050AB1EE400A80ED0A0A45
:1054900090ED090AD0ED0A1A30EE210AD0ED0B1A70
:1054A00030EE210A80ED080A90ED080AD0ED041ACA
:1054B000B4EEE10AF1EE10FA04DD90ED040A80ED9D
:1054C000080A76E090ED080AD0ED041AF1EE611AB0
:1054D000B4EEE10AF1EE10FA6BD290ED040AB1EEEF
:1054E000400A80ED080A64E0FFE70178012960D1F5
:1054F00090ED0F0AD0ED101A30EE610AD0ED011ACE
:1055000020EE210A80ED090A90ED020AD0ED0F1A73
:1055100020EE210A80ED0A0A90ED0D0A80ED0E0AB8
:1055200090ED0C0A80ED0D0A90ED0F0AD0ED101AE7
:10553000B0EE002A02EE610AD0ED111A30EE210A17
:1055400080ED0C0A90ED030AD0ED0C1A20EE210A32
:1055500080ED0B0A90ED090AD0ED0A1A30EE210A0F
:10556000D0ED0B1A30EE210AD0ED081A30EE210AE8
:1055700080ED080A90ED080AD0ED041AB4EEE10AB5
:10558000F1EE10FA04DD90ED040A80ED080A10E057
:1055900090ED080AD0ED041AF1EE611AB4EEE10ABA
:1055A000F1EE10FA05D290ED040AB1EE400A80ED5A
:1055B000080A90ED080A0EE70000000000B102B9E9
:1055C0007047017092ED001A80ED011A92ED011AF8
:1055D00080ED021A92ED021A80ED031A80ED040AA2
:1055E000C0ED050A9FED0C1A80ED0E1A80ED0D1A24
:1055F00080ED0C1A9FED081A80ED081A80ED0B1A49
:1056000080ED0A1A80ED091A80ED111A80ED101A4A
:1056100080ED0F1A00BFD3E70000000070B503460D
:10562000581A154602EBD576C6F34F04A04200DDAA
:10563000801A6542A84200DA104400EE100AB8EE63
:10564000C00A70BD30B50468246824F4802405685D
:105650002C60046863608468402C04D10468A260F4
:105660000468E16003E00468A1600468E26030BDA2
:10567000014600208A6A8B69CBB932B1012A0DD06C
:10568000022A03D0032A10D10EE000BFCB6A03F038
:105690008073B3F1807F00D1012007E0CB6AB3F1C2
:1056A000C07F00D1012001E000E000BF34E08B6941
:1056B000B3F5005F1AD132B1012A07D0022A03D014
:1056C000032A11D10AE000BF01200EE0CB6A03F0EB
:1056D0008073B3F1807F00D1012006E0CB6AB3F183
:1056E000C07F00D1012000E000BF15E032B1012AE7
:1056F00005D0022A04D0032A0CD103E000BF00BF6A
:10570000012008E0CB6A03F08073B3F1807F00D101
:10571000012000E000BF00BF70470000014608788C
:1057200010381823B0FBF3F20848805CC865032AE0
:1057300005D908686FF30900001D886503E0086853
:105740006FF309008865886D7047000012830008B8
:1057500070B50546AC6B0020E087E0862046FCF77C
:105760007BFD70BD7CB504460E46154633460122CE
:1057700002212046009500F039F828B1606D40F014
:105780002000606503207CBD164800681821B0FB2E
:10579000F1F01549B0FBF1F04FF47A7148430190F4
:1057A0006068B0F5827F0DD133460022802120460B
:1057B000009500F01BF898B1606D40F02000606526
:1057C0000320E0E700BF019800B908E00198401EFF
:1057D000019020688068C0F3C0100028F3D100BF9A
:1057E0000020D0E71000002040420F002DE9F84FC4
:1057F00004460D4690461E46DDF82890FCF72CF82E
:10580000A0EB0900371AFCF727F882462C480068FD
:10581000C0F3CB307843009045E0701C002842D0A4
:10582000FCF71AF8A0EB0A00B84200D2A7BB206828
:10583000406820F0E000216848606068B0F5827F31
:105840000DD1A068B0F5004F03D0A068B0F5806F0F
:1058500005D12068006820F0400021680860A06A37
:10586000B0F5005F0DD100BF2068006820F4005043
:10587000216808602068006840F4005021680860D2
:1058800000BF012084F8510000BF002084F85000C0
:1058900000BF0320BDE8F88FFFE7009800B900279C
:1058A0000098401E0090206880682840A84201D1DE
:1058B000012000E000204045AFD10020EAE70000D1
:1058C0001000002030B5026A056A25F00105056266
:1058D0004368846924F0700424F003040D682C43A9
:1058E00022F002028D682A43104DA84200D103E045
:1058F0000F4DA84206D100BF22F00802CD682A430E
:1059000022F00402094DA84202D0094DA84207D155
:1059100023F4807323F400734D692B438D692B436B
:10592000436084614D684563026230BD0000014000
:105930000004014030B5026A056A25F480750562ED
:105940004368C46924F0700424F003040D682C43F8
:1059500022F400728D6842EA0522124DA84200D15D
:1059600003E0114DA84207D100BF22F40062CD68C8
:1059700042EA052222F480620A4DA84202D00A4D72
:10598000A84209D123F4805323F400534D6943EA1C
:1059900005138D6943EA05134360C4614D68C5630F
:1059A000026230BD000001400004014030B5036ACE
:1059B000056A25F4805505624468C26922F4E04214
:1059C00022F440720D6842EA052223F400538D68E8
:1059D00043EA0533084DA84202D0084DA84204D13D
:1059E00024F480444D6944EA85144460C2614D68E2
:1059F0000564036230BD0000000001400004014066
:105A00000A46816821F0700142F007031943816062
:105A1000704730B50B461446026A056A25F0010549
:105A20000562816921F0F00141EA041122F00A02C5
:105A30001A438161026230BD30B50B461446026ADA
:105A4000056A25F010050562816921F4704141EA7B
:105A5000043122F0A00242EA03128161026230BDE9
:105A600070B506460025B46B20684069C0F3C015C8
:105A700094F84100212805D125B10020E08420467A
:105A800000F022FA20684069C0F3801594F84200C3
:105A9000222805D125B10020E085204600F0DEF95E
:105AA000606C40F0100060642046FDF78DFA70BD18
:105AB0002DE9F84F04462068006920F44050E16861
:105AC0000843216808612169A068084361690843A7
:105AD000E169084300902068C06849F20C6188437E
