:020000040800F2
:10000000C00900202D0200081D4D00089F1A00089D
:10001000194D00082907000881520008000000005F
:10002000000000000000000000000000494D000832
:100030002D070008000000001F4D0008A14D00081A
:10004000470200084702000847020008470200086C
:10005000470200084702000847020008470200085C
:10006000470200084702000847020008470200084C
:10007000470200084702000847020008470200083C
:10008000470200084702000847020008470200082C
:10009000470200084702000847020008470200081C
:1000A000470200084702000847020008470200080C
:1000B0004702000847020008014E000847020008F6
:1000C00047020008470200084702000847020008EC
:1000D0004702000841520008470200084702000892
:1000E00047020008470200084702000847020008CC
:1000F00047020008470200084702000847020008BC
:1001000047020008470200084702000847020008AB
:10011000470200084702000847020008470200089B
:10012000470200084702000847020008470200088B
:1001300000F002F800F06BF80AA090E8000C82448E
:100140008344AAF10107DA4501D100F060F8AFF26B
:10015000090EBAE80F0013F0010F18BFFB1A43F0A5
:100160000103184790B10000B0B100000A444FF0FD
:10017000000C10F8013B13F0070408BF10F8014B06
:100180001D1108BF10F8015B641E05D010F8016B4B
:10019000641E01F8016BF9D113F0080F1EBF10F8AF
:1001A000014BAD1C0C1B09D16D1E58BF01F801CBD2
:1001B000FAD505E014F8016B01F8016B6D1EF9D555
:1001C0009142D6D37047000000230024002500266A
:1001D000103A28BF78C1FBD8520728BF30C148BFAA
:1001E0000B607047642900F09F80752900F09C80A7
:1001F000782900F0D580632900F02982732900F066
:100200002E82002070471FB51FBD10B510BD00F035
:1002100059FA1146FFF7F7FF05F0A8F800F077FA52
:1002200003B4FFF7F2FF03BC05F04FF8094880471D
:1002300009480047FEE7FEE7FEE7FEE7FEE7FEE7C8
:10024000FEE7FEE7FEE7FEE704480549054A064BE0
:1002500070470000A94D000831010008C0030020CC
:10026000C0090020C0050020C00500207047000024
:100270000FB4044910B503AA029800F0F5F910BCB8
:100280005DF814FB1400002070B504468569006811
:10029000C10601D5302600E02026C00707D070BD7A
:1002A000D4E9012130469047206A401C20626D1E2F
:1002B000F6D570BD70B5044685690078C00707D1D2
:1002C00070BDD4E9012120209047206A401C2062A3
:1002D0006D1EF6D570BD70B50C460546012A05D0D9
:1002E0002878800600D5EA69002302E0012305E0B2
:1002F0005B1C934202D2E05C0028F9D1A869E618A1
:10030000C01AA861286A184428622846FFF7BCFF73
:1003100004E0D5E9012114F8010B9047B442F8D369
:100320002846FFF7C7FF70BD2DE9F04106460024BF
:1003300010687529314616A510D0AFF3008000284B
:1003400002DA404213A507E031688A0701D512A5F9
:1003500002E0490704D511A5012401E0AFF30080B4
:1003600000210A2206F1240709E0B0FBF2FCB0FBF1
:10037000F2F302FB1C00303078541846491C002868
:10038000F3D123462A463046BDE8F04100F0FCB8E0
:10039000000000002D0000002B00000020000000E5
:1003A00070B504460D4621461068AFF300802188E1
:1003B000090502D50F4A7A4402E00E4A7A440E3209
:1003C000002104F1240305E000F00F060009965D0A
:1003D0005E54491C0028F7D120780023000704D57B
:1003E000702D02D009B1022311322046BDE87040C1
:1003F00000F0CAB80EAC00002DE9F05F8946044653
:100400004FF0000ADFF874B1FB44C0F820A020468A
:10041000E1688847002874D0252806D0D4E9012156
:100420009047206A401C2062F1E700265F46204684
:10043000E16888472028054607DB312D05D2781969
:1004400010F8200C08B10643F1E7B00701D526F0FB
:100450000406C4F81CA00027C4F818A02A2D09D04F
:10046000284604F02BFF38B304EB8708303DC8F86A
:10047000185019E059F8041B204604EB87029161DB
:10048000E1688847012F054618D1E069002820DA85
:1004900026F020061DE0D8F8180000EB800005EBE0
:1004A00040003038C8F818002046E1688847054603
:1004B00004F004FF0028EED1012F0AD02E2D08D120
:1004C0002046E16888477F1C0546022F46F020063B
:1004D000C4DBA069002803DA404246F00106A061AF
:1004E000F00701D026F010066C2D0BD0682D09D036
:1004F0004C2D39D06A2D35D0742D35D07A2D33D08E
:1005000016E038E0E1682F4620468847B8420546A5
:1005100009D16C2F26D04FF48060E1680643204655
:100520008847054604E06C2F1AD04FF480700643CC
:100530000DB3A5F14100192802D8203546F4006614
:100540004A462946204626604E46FFF74BFE80B1BC
:1005500001280BD0F61D26F0070000F1080956E728
:100560004020E4E78020D8E70020D6E706F1040920
:100570004DE7284652E7206ABDE8F09FE4AB000053
:1005800070477047704770472DE9F0470D46994610
:100590009246044600F124080168880604D5E06903
:1005A00021F01001216000E00120A84201DD471B7D
:1005B00000E00027A1697A1902EB0900081AA0617E
:1005C0002078C00602D42046FFF75EFE002608E031
:1005D000D4E901211AF806009047206A401C761CD5
:1005E00020624E45F4DB2078C0060AD52046FFF78E
:1005F0004BFE06E0D4E9012130209047206A401CE0
:100600002062381EA7F10107F4DC07E0D4E90121DC
:1006100018F805009047206A401C2062281EA5F1AA
:100620000105F3DC2046FFF745FE2078000602D5E1
:100630000220BDE8F0870120FBE710B5436913B144
:10064000AFF3008001E0FFF746FE012010BD1278F5
:1006500000F124010A7000224A700122EDE71168BE
:100660004FF0FF32E9E70000074B70B50D467B44C1
:1006700000F011F80446284600F020F810B14FF0C1
:10068000FF3070BD204670BDD34C000001694A1C8C
:1006900002610878704700B58FB0CDE901310021C3
:1006A000059105497944CDE9031011466846FFF7E5
:1006B000A3FE0FB000BD0000E5FFFFFF007B00F0D0
:1006C00080007047754600F02BF8AE46050069467D
:1006D000534620F00700854618B020B5FFF7B4FD5B
:1006E000BDE820404FF000064FF000074FF0000833
:1006F0004FF0000B21F00701AC46ACE8C009ACE8B4
:10070000C009ACE8C009ACE8C0098D46704710B517
:100710000446AFF300802046BDE81040FFF780BDDF
:10072000004870475C03002000BFFEE770470000F0
:1007300070B50446B3F5804F13D1D1E9000540EA06
:1007400005108D6840EA05208D6928438D8940EAAF
:10075000054054F82250064E3540284344F8220004
:1007600003E06FF0704044F82200002070BD0000EC
:100770000000F0CF30B50246086852F8200020F0A3
:1007800001000C6842F824008868082801D1402341
:1007900000E00023486818438C682043CC6820435D
:1007A0000C6920434C6920438C692043CC69204369
:1007B0000C6A20434C6A20438C6A2043CC6A204355
:1007C0000C6B20434C6B20430C6852F82440044DC2
:1007D0002C4020430C6842F82400002030BD00006B
:1007E0008000F0FF10B50346D1E9000440EA041090
:1007F0008C6840EA04208C8940EA0444088A401E40
:1008000044EA0054087D801E44EA00608C6920435D
:10081000541C53F8244004F040442043541C43F833
:100820002400002010BD000070B50446002594F897
:100830002100022803D00420A0630125C1E0206824
:10084000006820F00E00216808602068006820F031
:100850000100216808605C492068884252D95A49E1
:1008600078392068884201D1012047E0564964392F
:100870002068884201D1102040E053495039206857
:10088000884201D1801539E04F493C3920688842BF
:1008900001D1801432E04C4928392068884202D1C5
:1008A0004FF480302AE0484914392068884202D148
:1008B0004FF4801022E044492068884201D140046E
:1008C0001CE042492068884201D1012016E03F49DE
:1008D00014312068884201D110200FE03B492831B3
:1008E0002068884201D1801508E038493C312068F1
:1008F000884201D1801401E04FF480303349091F50
:10090000086051E0304978392068884201D10120DF
:1009100047E02D4964392068884201D1102040E029
:10092000294950392068884201D1801539E026498B
:100930003C392068884201D1801432E022492839AC
:100940002068884202D14FF480302AE01E491439D1
:100950002068884202D14FF4801022E01A492068B2
:10096000884201D140041CE018492068884201D126
:10097000012016E0154914312068884201D1102069
:100980000FE0124928312068884201D1801508E023
:100990000E493C312068884201D1801401E04FF4B7
:1009A0008030094980394860012084F8210000BF67
:1009B000002084F8200000BF606B10B12046616BFE
:1009C0008847284670BD00008000024008040240AD
:1009D0002DE9F847024600239C467BE14FF00108D1
:1009E00008FA03F4D1F8008008EA0400A0427DD19F
:1009F000DFF8F4A2D1F80480A8EB0A09D0453AD078
:100A000014DCB8F1030F50D009DCB8F1000F31D07D
:100A1000B8F1010F1CD0B8F1020F49D120E0B8F1B4
:100A2000110F18D0B8F1120F42D11EE0B9F5881F8E
:100A300025D006DCB9F5803F20D0B9F5801F37D12D
:100A40001AE0B9F5001F18D0B9F5041F30D117E02E
:100A5000D1F80CC02DE0D1F80C8008F1040C28E08E
:100A6000D1F80C8008F1080C23E0D1F80C8008F1D3
:100A70000C0C1EE000BF00BF00BF00BF00BF00BFE6
:100A8000D1F80880B8F1000F02D14FF0040C0BE050
:100A9000D1F80880B8F1010F03D14FF0080C1461B0
:100AA00002E04FF0080C546103E04FF0000C00E04E
:100AB00000BF00BFFF2801D8904601E002F1040802
:100AC0004646FF2802D84FEA830803E0A3F108084E
:100AD0004FEA88084746D6F800804FF00F0909FA18
:100AE00007F928EA09080CFA07F900E07AE048EA71
:100AF0000908C6F80080D1F8048008F08058B8F1E1
:100B0000805F6FD100BFDFF8E481D8F8188048F02B
:100B10000108DFF8D891C9F81880C846D8F81880BD
:100B200008F00108CDF8008000BF00BF4FEAB938D7
:100B30004FEA930958F829504FEA83784FEA187919
:100B40004FF00F0808FA09F825EA0805DFF8A08138
:100B5000424502D14FF0000824E0DFF89881424579
:100B600002D14FF001081DE0DFF88C81424502D12F
:100B70004FF0020816E0DFF88481424502D14FF0C1
:100B800003080FE0DFF87881424502D14FF00408F6
:100B900008E0DFF87081424502D14FF0050801E01E
:100BA0004FF006084FEA83794FEA197908FA09F8F5
:100BB00048EA0505DFF850814FEA930948F82950C3
:100BC000D1F8048008F48038B8F5803F0BD1DFF805
:100BD0003C81D8F8008048EA0008DFF83091C9F875
:100BE00000800AE075E0DFF82481D8F8008028EA68
:100BF0000008DFF81891C9F80080D1F8048008F4E3
:100C00000038B8F5003F0ED1DFF8008108F1040884
:100C1000D8F8008048EA0008DFF8F09009F10409EC
:100C2000C9F800800DE0DFF8E48008F10408D8F886
:100C3000008028EA0008DFF8D49009F10409C9F817
:100C40000080D1F8048008F48018B8F5801F0ED118
:100C5000DFF8B88008F10808D8F8008048EA0008F2
:100C6000DFF8A89009F10809C9F800800DE0DFF865
:100C70009C8008F10808D8F8008028EA0008DFF80E
:100C80008C9009F10809C9F80080D1F8048008F4B3
:100C90000018B8F5001F0ED1DFF8708008F10C08BD
:100CA000D8F8008048EA0008DFF8609009F10C09E4
:100CB000C9F800800DE0DFF8548008F10C08D8F87E
:100CC000008028EA0008DFF8449009F10C09C9F80F
:100CD00000805B1CD1F8008028FA03F8B8F1000FFF
:100CE0007FF47CAEBDE8F8870000111000100240D0
:100CF00000080140000C01400010014000140140B8
:100D000000180140001C014008000140000401409F
:100D10000AB1016101E00B040361704701480068FA
:100D20007047000004000020034800680349097868
:100D30000844014908607047040000200C000020AE
:100D400010B50848006840F010000649086005200A
:100D500000F080F80F2000F007F800F02BF80020DA
:100D600010BD00000020024070B504460E48007817
:100D70004FF47A71B1FBF0F00C490968B1FBF0F562
:100D8000284600F085FC08B1012070BD102C07D268
:100D900000222146501E00F01EF80548046001E0C4
:100DA0000120F2E70020F0E70C0000200000002006
:100DB00008000020704701460846002809DB00F0C3
:100DC0001F0301229A4043099B0003F1E023C3F86B
:100DD000002100BF70472DE9F05F80460D461646A2
:100DE000002704F04FFA074639462A46334601F0F9
:100DF0000700C0F1070ABAF1040F02D94FF0040A44
:100E000001E0C0F1070AD14600F1040ABAF1070F68
:100E100002D24FF0000A01E0A0F1030AD4464FF0DD
:100E2000010A0AFA09FAAAF1010A0AEA020A0AFA06
:100E30000CFA4FF0010B0BFA0CFBABF1010B0BEAB8
:100E4000030B4AEA0B042146404604F023FABDE8AE
:100E5000F09F000000BF00F00702064B19684FF634
:100E6000FF031940044B0B4343EA0221014B196075
:100E700000BF70470CED00E00000FA0570B50446B5
:100E80000D460CB9012070BD5A48006800F00700FB
:100E9000A8420ED25748006820F007002843554961
:100EA00008600846006800F00700A84201D0012051
:100EB000E9E7207800F0020002281DD1207800F038
:100EC0000400042805D14C48406840F4E0604A49D9
:100ED0004860207800F00800082805D1464840689E
:100EE00040F46050444948604348406820F0F000B6
:100EF000A168084340494860207800F0010078B3B9
:100F00006068012806D13C48006800F4003090B9C0
:100F10000120B8E76068022806D13748006800F071
:100F2000007040B90120AEE73348006800F00200CD
:100F300008B90120A7E73048406820F00300616845
:100F400008432D494860FFF7E9FE064609E0FFF730
:100F5000E5FE801B41F28831884202D9032092E7E6
:100F600007E02548406800F00C006168B0EB810F95
:100F7000EDD12048006800F00700A8420ED91D48B6
:100F8000006820F0070028431A49086008460068F6
:100F900000F00700A84201D0012074E7207800F09B
:100FA0000400042807D11448406820F4E060E16898
:100FB000084311494860207800F00800082808D14B
:100FC0000D48406820F46050216940EAC1000A4998
:100FD000486000F03FF808494968C1F30311074A27
:100FE000515CC8400649086006480068FFF7BCFE2F
:100FF000002048E70020024000100240706800080E
:101000000000002008000020014800687047000030
:101010000000002000B5FFF7F7FF04494968C1F35D
:101020000221034A515CC84000BD0000001002408C
:101030008068000800B5FFF7E7FF04494968C1F37D
:10104000C221034A515CC84000BD000000100240AC
:1010500080680008F0B585B00FF26C0C9CE8E010D9
:1010600001A8A0E8E0101CA52D6800950021002231
:10107000002300240020194D696801F00C05F5B12A
:10108000042D02D0082D19D101E0154819E001AD59
:10109000C1F38346AC5D01F4803555B10F4D6D68E9
:1010A000C5F340451DF805200D4D6543B5FBF2F332
:1010B00002E00C4D04FB05F3184602E000BF0848AF
:1010C00000BF00BF05B0F0BD020304050607080914
:1010D0000A0B0C0D0E0F1010010200000010024050
:1010E00000127A0000093D00F8B504460CB9012051
:1010F000F8BD207800F00100002878D0F84840685A
:1011000000F00C0004280CD0F548406800F00C00FA
:10111000082811D1F248406800F48030B0F5803FD3
:101120000AD1EF48006800F4003000285FD0606802
:1011300000285CD10120DBE700BF6068B0F5803F8C
:1011400006D1E748006840F48030E549086028E0AF
:10115000606858B9E248006820F48030E0490860CF
:101160000846006820F4802008601AE06068B0F546
:10117000A02F0BD1DA48006840F48020D8490860DD
:101180000846006840F4803008600AE0D4480068EF
:1011900020F48030D24908600846006820F480209E
:1011A000086000BF606888B1FFF7B8FD054606E03B
:1011B000FFF7B4FD401B642801D9032098E7C84815
:1011C000006800F400300028F2D010E0FFF7A6FD20
:1011D000054606E0FFF7A2FD401B642801D9032065
:1011E00086E7BF48006800F400300028F2D120787C
:1011F00000F00200022857D1B948406800F00C0006
:1012000050B1B748406800F00C00082818D1B44825
:10121000406800F4803098B9B148006800F00200DE
:1012200020B12069012801D0012061E7AC480068A5
:1012300020F0F800616940EAC100A949086033E084
:101240002069E8B10120A7490860FFF767FD05465E
:1012500006E0FFF763FD401B022801D9032047E7A2
:101260009F48006800F002000028F2D09C48006807
:1012700020F0F800616940EAC1009949086013E074
:10128000002098490860FFF749FD054606E0FFF792
:1012900045FD401B022801D9032029E7904800683A
:1012A00000F002000028F2D1207800F008000828A1
:1012B0002DD1A069B8B101208B490860FFF72EFD40
:1012C000054606E0FFF72AFD401B022801D903204E
:1012D0000EE78348406A00F002000028F2D00120A7
:1012E00003F01EFD13E000207F490860FFF716FDA4
:1012F000054606E0FFF712FD401B022801D9032036
:10130000F6E67748406A00F002000028F2D1207823
:1013100000F00400042873D100277148C06900F070
:10132000805070B900BF6E48C06940F080506C4971
:10133000C8610846C06900F08050009000BF00BF3F
:1013400001276A48006800F48070B0B967480068F7
:1013500040F4807065490860FFF7E0FC054606E050
:10136000FFF7DCFC401B642801D90320C0E65F487E
:10137000006800F480700028F2D000BFE068012807
:1013800006D15748006A40F001005549086227E03D
:10139000E06858B95248006A20F0010050490862DC
:1013A0000846006A20F00400086219E0E068052899
:1013B0000BD14B48006A40F00400494908620846D6
:1013C000006A40F0010008620AE04548006A20F027
:1013D0000100434908620846006A20F004000862E0
:1013E00000BFE068A0B1FFF799FC054609E0FFF7F0
:1013F00095FC401B41F28831884202D9032077E6F0
:1014000022E03748006A00F002000028EFD012E026
:10141000FFF784FC054608E0FFF780FC401B41F223
:101420008831884201D9032062E62D48006A00F025
:1014300002000028F0D1012F05D12948C06920F011
:1014400080502749C86100BFE069C8B3244840689C
:1014500000F00C00082860D0E069022848D1002084
:1014600020490866FFF75AFC054606E0FFF756FCE0
:10147000401B022801D903203AE61948006800F011
:1014800000700028F2D1206AB0F5803F07D11448DF
:10149000406820F40030A168084311494860D4E94D
:1014A000080108430E49496821F4741108430C49A6
:1014B000486001200B490866FFF730FC054607E04D
:1014C0003DE0FFF72BFC401B022801D903200FE66B
:1014D0000348006800F000700028F2D02FE0000000
:1014E000001002400000424280044242007000406E
:1014F000002014490866FFF711FC054606E0FFF7D7
:101500000DFC401B022801D90320F1E50E480068BC
:1015100000F000700028F2D111E0E069012800D14C
:10152000E6E50948466806F48031206A814204D124
:1015300006F47011606A814201D00120D8E50020D4
:10154000D6E50000000042420010024070B504469B
:101550000E4615460CB9012070BD94F8410028B91B
:10156000002084F84000204600F020F804F1080133
:101570002068FFF7FFF83146A2682068FFF732F9CC
:101580002946236BD4E90102FFF7D2F8A16820684D
:1015900050F8210040F00100A268216841F82200C3
:1015A000012084F841000020D6E7000010B586B085
:1015B000044600BF2848406940F4807026494861CD
:1015C0000846406900F48070019000BF00BF00BF72
:1015D0000846806940F0200088610846806900F074
:1015E0002000019000BF00BF00BF0846806940F0A6
:1015F000400088610846806900F04000019000BF0B
:1016000000BF00BF0846806940F4807088610846CA
:10161000806900F48070019000BF00BF4CF233700D
:10162000029002200390012004900320059002A95B
:101630000A48FFF7CDF94FF68070029002A90848DA
:10164000FFF7C6F941F20100029002A90548FFF731
:10165000BFF906B010BD00000010024000140140A8
:101660000018014000200140042808D14FF0E0217B
:10167000096941F004014FF0E022116107E04FF0E9
:10168000E021096921F004014FF0E0221161704767
:1016900070B504462546681EB0F1807F01D3012055
:1016A0000FE0681E4FF0E02148610F214FF0FF303E
:1016B00003F0F0FD00204FF0E02188610720086171
:1016C000002070BD10B504460CB9012010BD94F87F
:1016D0003D0028B9002084F83C00204600F00CF8BA
:1016E000022084F83D00211D206803F0ABFB01209F
:1016F00084F83D000020E9E7704701460868C068AB
:1017000040F001000B68D8600868806800F00702AC
:10171000062A05D00868006840F001000B681860D0
:1017200000207047704701460022002391F83920BD
:1017300091F83A3042EA0300704700002DE9F04783
:101740000446206805682068C668206847694FF02D
:101750000008C14605F00F08B8F1000F0AD105F0E6
:10176000200038B106F0200020B1204603F010FC24
:10177000BDE8F087B8F1000F6DD007F0010018B98F
:1017800006F49070002866D005F0010030B106F430
:10179000807018B1E06B40F00100E06305F00400D8
:1017A00030B107F0010018B1E06B40F00200E063D7
:1017B00005F0020030B107F0010018B1E06B40F015
:1017C0000400E06305F0080030B107F0010018B133
:1017D000E06B40F00800E063E06B68B305F02000C8
:1017E00028B106F0200010B1204603F0D1FB20689C
:1017F0004069C0F38019E06B00F0080010B9B9F13E
:10180000000F22D0204603F0A3FB2068406900F0BF
:101810004000B0B12068406920F040002168486174
:10182000606B50B11748616B4863606BFEF7FCFF5B
:1018300010B1606B416B88470CE02046FFF772FFE8
:1018400008E02046FFF76EFF04E02046FFF76AFF3E
:101850000020E0638CE705F0800030B106F08000E6
:1018600018B1204603F0B8FC82E705F0400030B123
:1018700006F0400018B1204603F07AFB78E700BF7D
:1018800076E700003D4F000810B504460CB9012072
:1018900010BDA06900B100E000BF94F8390028B97C
:1018A000002084F83800204600F028F8242084F82E
:1018B00039002068C06820F400502168C8602046C4
:1018C00003F0BAFB2068006920F4904021680861A9
:1018D0002068406920F02A00216848612068C068BB
:1018E00040F400502168C8600020E063202084F8A4
:1018F000390084F83A000020CAE7000010B586B02D
:10190000044625492068884244D100BF23488069A5
:1019100040F00400214988610846806900F0040015
:10192000019000BF00BF00BF0846806940F48040BE
:1019300088610846806900F48040019000BF00BFC4
:1019400000BF0846806940F0010088610846806950
:1019500000F00100019000BF00BF48150290022076
:101960000390012004900320059002A90C48FFF782
:101970002FF84FF4806002900020039002A90848DD
:10198000FFF726F82520FFF716FA03221146252037
:10199000FFF721FA06B010BD0038014000100240E8
:1019A0000008014010B5034693F83A0020282FD1D3
:1019B00001B10AB9012010BD00BF93F83800012819
:1019C00001D10220F7E7012083F8380000BF9962B7
:1019D0009A85DA850020D863222083F83A0000BF78
:1019E000002083F8380000BF1868C06840F4807099
:1019F0001C68E0601868406940F001001C68606184
:101A00001868C06840F020001C68E0600020D2E741
:101A10000220D0E71D4A0168914236D11C4909884D
:101A200001F4004189BB1A49098801F4804171B170
:101A3000184909780A2903D00021154A118024E0A9
:101A40001349098841F40041114A11801DE01149F0
:101A500009780D2906D10E49098841F480410C4AC4
:101A6000118012E00B490978094A1288C2F30D026D
:101A7000094B995406490988491C054A11801146A9
:101A80000988C72901DD0021118070470038014015
:101A9000180000201A000020BC010020704700BF81
:101AA000FEE7000070B50446002609480588408816
:101AB00045430021084602F0C3FE03F0DBF800BFF7
:101AC00002E004480480761CAE42FAD370BD0000E8
:101AD0000C0300200008006C10B5044649488471CE
:101AE000002C45D1F020474908804FF4A070488071
:101AF0000846808845F21051884210D14FF430508A
:101B0000404908814FF4285048814FF42C50888177
:101B10004FF4F07008804FF4487048801AE039485C
:101B2000808841F6631188420DD12C203549088107
:101B30002B2048812A2088814FF4F07008804FF4D0
:101B40004870488006E02C202E4908812A204881D0
:101B50002B2088812B48808845F2103188424CD157
:101B60004FF4A070274908804FF4F070488044E09B
:101B70004FF4A07023490880F020488008468088F0
:101B800045F21051884210D14FF430501D49088160
:101B90004FF4285048814FF42C5088814FF44870FE
:101BA00008804FF4F07048801AE01648808841F6AB
:101BB000631188420DD12C20124908812A204881C6
:101BC0002B2088814FF4487008804FF4F0704880D3
:101BD00006E02C200B4908812A2048812B2088818F
:101BE0000848808845F21031884206D14FF4F070E1
:101BF000044908804FF4A0704880002002F006FDE0
:101C000010BD00000C0300202DE9FF4F84B0814679
:101C10008A460020039002900698A0EB09050798D9
:101C2000A0EB0A06CDF80490CDF800A0002D01DD50
:101C3000012705E00DB9002702E04FF0FF376D42A4
:101C4000002E02DD4FF0010806E016B94FF0000843
:101C500002E04FF0FF387642B54201DD2C4600E04D
:101C600034464FF0000B21E0009A91B2019A90B2F5
:101C700000F022F803982844039002983044029020
:101C80000398A04205DD0398001B03900198384497
:101C900001900298A04205DD0298001B0290009876
:101CA000404400900BF101001FFA80FB601C83454B
:101CB000DADD08B0BDE8F08F30B504460D462946A0
:101CC000204602F0BDFD02F0D5FF0248008802491F
:101CD000088030BD1C0000200008006CF0B50446F0
:101CE0000D4616461F462B46324629462046FFF72C
:101CF0008BFF3B46224629462046FFF785FF3B46A1
:101D0000324639462046FFF77FFF3B46324629469A
:101D10003046FFF779FFF0BD2DE9F04306460F4648
:101D20009046002445460320A0EB48093CE07A1B7E
:101D300091B2321990B2FFF7BFFF3A1B91B27219FC
:101D400090B2FFF7B9FF3A1991B2721990B2FFF74A
:101D5000B3FF7A1991B2321990B2FFF7ADFF7A1939
:101D600091B2321B90B2FFF7A7FF3A1991B2721BE2
:101D700090B2FFF7A1FF7A1B91B2321B90B2FFF72E
:101D80009BFF3A1B91B2721B90B2FFF795FF641C48
:101D9000B9F1000F03DAA000801D814404E0601B4C
:101DA00080000A3081446D1EAC42C0DDBDE8F08386
:101DB00030B504460D463848808845F210518842B7
:101DC00020D13549488902F049FF201202F03AFF3C
:101DD00031494989491C88B202F040FFE0B202F063
:101DE00031FF2D49888902F039FF281202F02AFFBD
:101DF00029498989491C88B202F030FFE8B202F013
:101E000021FF42E02448808841F66311884228D1AE
:101E10002148807920B920480088401E001B84B2E8
:101E20001D49488902F01AFF201202F00BFFE0B2B0
:101E300002F008FF201202F005FFE0B202F002FFFC
:101E40001549888902F00AFF281202F0FBFEE8B269
:101E500002F0F8FE281202F0F5FEE8B202F0F2FEFF
:101E600013E00D49488902F0F9FE201202F0EAFE63
:101E7000E0B202F0E7FE0849888902F0EFFE28127E
:101E800002F0E0FEE8B202F0DDFE034800890349FB
:101E90000880881C028030BD0C030020FE07006C07
:101EA0002DE9F04F05460E4617469846DDF824A06A
:101EB0004FF0000B781B401C1FFA80FB344613E0E8
:101EC0002146284602F0BCFC02F0D4FE4FF0000987
:101ED00006E00748A0F800A009F101001FFA80F908
:101EE000D945F6DB601C84B24445E9DDBDE8F08FDE
:101EF0000008006C00B593B000BFFE48806940F058
:101F00000800FC4988610846806900F008000090DC
:101F100000BF00BF01200F9010901190032012907D
:101F20000FA9F548FEF754FD4FF02040F349086033
:101F3000F3484860062088600021F048C1600161D4
:101F40001021416100218161C16141624FF48051E2
:101F500081620021C1624FF480410163002141632D
:101F6000816306200890002009901A200A90002022
:101F70000E90049003200190002002900620039010
:101F80000020079001AA08A9DC48FFF7DFFA3220F9
:101F900003F0A8F9D32002F061FE02F0C1FAD9499A
:101FA000888002F0BDFAD749888002F0B9FAD54995
:101FB0008880084680884FF6FF7101EA0020D149E9
:101FC000888002F0ADFACF4989880843CD498880DE
:101FD0000846808849F2413188427DD0042002F0D1
:101FE0003DFE02F09DFAC749888002F099FAC54982
:101FF000888002F095FAC3498880084680884FF6A9
:10200000FF7101EA0020BF49888002F089FABD49CA
:1020100089880843BB4988800846808848F2525125
:10202000884203D147F28970B6498880B5488088D4
:1020300047F2897188427AD0D42002F00FFE02F074
:102040006FFAB049888002F06BFAAE49888002F0DE
:1020500067FAAC498880084680884FF6FF7101EA2C
:102060000020A849888002F05BFAA64989880843C5
:10207000A44988800846808845F21031884256D0AD
:102080004FF45A4002F0EAFD02F04AFA9D49888076
:102090004FF45B4002F0E2FD02F042FA9949888079
:1020A000084680884FF6FF7101EA00209549888034
:1020B0004FF45C4002F0D2FD02F032FA9149898877
:1020C00008439049888008468088B0F5004F02D1C7
:1020D00045F21050888000E029E08A48808845F267
:1020E0001051884223D0A12002F0B8FD02F018FA66
:1020F0008449888002F014FA8249888008468088E2
:102100004FF6FF7101EA00207E49888002F008FA4C
:102110007C49898808437B4988800846808845F245
:102120006171884203D141F6631076498880754811
:10213000818875A0FEF79CF87248808849F2413189
:1021400088427CD1CF2002F089FD002002F07AFD88
:10215000C12002F077FD302002F074FDED2002F086
:102160007DFD642002F06EFD032002F06BFD122065
:1021700002F068FD812002F065FDE82002F06EFDAE
:10218000852002F05FFD102002F05CFD7A2002F055
:1021900059FDCB2002F062FD392002F053FD2C20C6
:1021A00002F050FD002002F04DFD342002F04AFD07
:1021B000022002F047FDF72002F050FD202002F03F
:1021C00041FDEA2002F04AFD002002F03BFD002024
:1021D00002F038FDC02002F041FD1B2002F032FD6C
:1021E000C12002F03BFD012002F02CFDC52002F0D1
:1021F00035FD302002F026FD302002F023FDC720FF
:1022000002F02CFDB72002F01DFD362002F026FD65
:10221000482002F017FD3A2002F020FD552002F080
:1022200011FDB12002F01AFD002002F00BFD1A2072
:1022300002F008FDB62002F011FD0A2000E0ACE03B
:1022400002F000FDA22002F0FDFCF22002F006FDEB
:10225000002002F0F7FC262002F000FD012002F031
:10226000F1FCE02002F0FAFC0F2002F0EBFC2A2047
:1022700002F0E8FC282002F0E5FC082002F0E2FC75
:102280000E2002F0DFFC082002F0DCFC542002F0FB
:10229000D9FCA92002F0D6FC432002F0D3FC0A208E
:1022A00002F0D0FC0F2002F0CDFC002002F0CAFCAE
:1022B000002002F0C7FC002002F0C4FC002002F065
:1022C000C1FCE12002F0CAFC002002F0BBFC15209A
:1022D00002F0B8FC172002F0B5FC072002F0B2FCB7
:1022E000112002F0AFFC062002F0ACFC2B2002F023
:1022F000A9FC11E000100240000C0140C4020020C3
:10230000040100A00C030020204C43442049443A1F
:1023100025780D0A00000000562002F093FC3C20B6
:1023200002F090FC052002F08DFC102002F08AFCE7
:102330000F2002F087FC3F2002F084FC3F2002F0D7
:1023400081FC0F2002F07EFC2B2002F087FC002095
:1023500002F078FC002002F075FC012002F072FC13
:102360003F2002F06FFC2A2002F078FC002002F0EF
:1023700069FC002002F066FC002002F063FCEF2004
:1023800002F060FC112002F069FC782002F0AAFF44
:10239000292002F063FC02F0A6B8FE48808847F2CC
:1023A000897188427ED1112002F058FC782002F019
:1023B00099FF362002F052FC002002F043FC3A2044
:1023C00002F04CFC052002F03DFCB22002F046FC7D
:1023D0000C2002F037FC0C2002F034FC002002F04C
:1023E00031FC332002F02EFC332002F02BFCB7200E
:1023F00002F034FC352002F025FCBB2002F02EFC5C
:10240000322002F01FFCC02002F028FC0C2002F059
:1024100019FCC22002F022FC012002F013FCC320B0
:1024200002F01CFC102002F00DFCC42002F016FC8F
:10243000202002F007FCC62002F010FC0F2002F062
:1024400001FCD02002F00AFCA42002F0FBFBA1203A
:1024500002F0F8FBE02002F001FCD02002F0F2FBD9
:10246000002002F0EFFB022002F0ECFB072002F05C
:10247000E9FB0A2002F0E6FB282002F0E3FB322011
:1024800002F0E0FB442002F0DDFB422002F0DAFB28
:10249000062002F0D7FB0E2002F0D4FB122002F03F
:1024A000D1FB00E054E0142002F0CCFB172002F036
:1024B000C9FBE12002F0D2FBD02002F0C3FB0020D8
:1024C00002F0C0FB022002F0BDFB072002F0BAFBC5
:1024D0000A2002F0B7FB282002F0B4FB312002F002
:1024E000B1FB542002F0AEFB472002F0ABFB0E2004
:1024F00002F0A8FB1C2002F0A5FB172002F0A2FBB3
:102500001B2002F09FFB1E2002F09CFB2A2002F001
:10251000A5FB002002F096FB002002F093FB0020B8
:1025200002F090FBEF2002F08DFB2B2002F096FBD7
:10253000002002F087FB002002F084FB012002F063
:1025400081FB3F2002F07EFB292002F087FB22E77F
:102550009048808845F21031884240F07C87ED2019
:1025600002F07CFB012002F06DFBFE2002F06AFB12
:10257000EE2002F073FBDE2002F064FB212002F06B
:1025800061FBF12002F06AFB012002F05BFBDF201F
:1025900002F064FB102002F055FBC42002F05EFB49
:1025A0008F2002F04FFBC62002F058FB002002F003
:1025B00049FBE22002F046FBE22002F043FBE2206E
:1025C00002F040FBBF2002F049FBAA2002F03AFBD8
:1025D000B02002F043FB0D2002F034FB002002F09B
:1025E00031FB0D2002F02EFB002002F02BFB11200E
:1025F00002F028FB002002F025FB192002F022FB4C
:10260000002002F01FFB212002F01CFB002002F042
:1026100019FB2D2002F016FB002002F013FB3D20D9
:1026200002F010FB002002F00DFB5D2002F00AFB1F
:10263000002002F007FB5D2002F004FB002002F006
:1026400001FBB12002F00AFB802002F0FBFA00201F
:1026500002F0F8FA8B2002F0F5FA002002F0F2FA0C
:10266000962002F0EFFA002002F0ECFAB22002F01D
:10267000F5FA002002F0E6FA002002F0E3FA022068
:1026800002F0E0FA002002F0DDFA032002F0DAFAAC
:10269000002002F0D7FAB32002F0E0FA002002F0A6
:1026A000D1FA002002F0CEFA002002F0CBFA00208E
:1026B00002F0C8FA002002F0C5FA002002F0C2FAC7
:1026C000002002F0BFFA002002F0BCFA002002F065
:1026D000B9FA002002F0B6FA002002F0B3FA0020A6
:1026E00002F0B0FA002002F0ADFA002002F0AAFADF
:1026F000002002F0A7FA002002F0A4FA002002F065
:10270000A1FA002002F09EFA002002F09BFA0020BD
:1027100002F098FA002002F095FA002002F092FAF6
:10272000002002F08FFA002002F08CFAB42002F0B0
:1027300095FA8B2002F086FA002002F083FA9620A8
:1027400002F080FA002002F07DFAA12002F07AFA6D
:10275000002002F077FAB52002F080FA022002F0A1
:1027600071FA002002F06EFA032002F06BFA0020EA
:1027700002F068FA042002F065FA002002F062FA22
:10278000B62002F06BFA002002F05CFA002002F0A2
:1027900059FA01E00C030020B72002F05FFA002094
:1027A00002F050FA002002F04DFA3F2002F04AFAFF
:1027B000002002F047FA5E2002F044FA002002F006
:1027C00041FA642002F03EFA002002F03BFA8C202D
:1027D00002F038FA002002F035FAAC2002F032FAAA
:1027E000002002F02FFADC2002F02CFA002002F088
:1027F00029FA702002F026FA002002F023FA902035
:1028000002F020FA002002F01DFAEB2002F01AFA82
:10281000002002F017FADC2002F014FA002002F087
:1028200011FAB82002F01AFA002002F00BFA002088
:1028300002F008FA002002F005FA002002F002FA85
:10284000002002F0FFF9002002F0FCF9002002F065
:10285000F9F9002002F0F6F9BA2002F0FFF924207D
:1028600002F0F0F9002002F0EDF9002002F0EAF9A0
:10287000002002F0E7F9C12002F0F0F9202002F078
:10288000E1F9002002F0DEF9542002F0DBF900202B
:1028900002F0D8F9FF2002F0D5F9002002F0D2F9B9
:1028A000C22002F0DBF90A2002F0CCF9002002F08D
:1028B000C9F9042002F0C6F9002002F0C3F9C320D0
:1028C00002F0CCF93C2002F0BDF9002002F0BAF988
:1028D0003A2002F0B7F9002002F0B4F9392002F0F2
:1028E000B1F9002002F0AEF9372002F0ABF9002078
:1028F00002F0A8F93C2002F0A5F9002002F0A2F9AC
:10290000362002F09FF9002002F09CF9322002F0FC
:1029100099F9002002F096F92F2002F093F9002097
:1029200002F090F92C2002F08DF9002002F08AF9D3
:10293000292002F087F9002002F084F9262002F015
:1029400081F9002002F07EF9242002F07BF90020BA
:1029500002F078F9242002F075F9002002F072F9F3
:10296000232002F06FF9002002F06CF93C2002F005
:1029700069F9002002F066F9362002F063F90020C0
:1029800002F060F9322002F05DF9002002F05AF9FD
:102990002F2002F057F9002002F054F92C2002F009
:1029A00051F9002002F04EF9292002F04BF90020E5
:1029B00002F048F9262002F045F9002002F042F921
:1029C000242002F03FF9002002F03CF9242002F01C
:1029D00039F9002002F036F9232002F033F9002003
:1029E00002F030F9C42002F039F9622002F02AF92D
:1029F000002002F027F9052002F024F9002002F05F
:102A000021F9842002F01EF9002002F01BF9F020C9
:102A100002F018F9002002F015F9182002F012F95E
:102A2000002002F00FF9A42002F00CF9002002F0BF
:102A300009F9182002F006F9002002F003F95020ED
:102A400002F000F9002002F0FDF80C2002F0FAF884
:102A5000002002F0F7F8172002F0F4F8002002F04E
:102A6000F1F8952002F0EEF8002002F0EBF8F320E8
:102A700002F0E8F8002002F0E5F8E62002F0E2F8C3
:102A8000002002F0DFF8C52002F0E8F8322002F062
:102A9000D9F8002002F0D6F8442002F0D3F8002044
:102AA00002F0D0F8652002F0CDF8002002F0CAF85C
:102AB000762002F0C7F8002002F0C4F8882002F067
:102AC000C1F8002002F0BEF8C62002F0C7F82020AE
:102AD00002F0B8F8002002F0B5F8172002F0B2F8C2
:102AE000002002F0AFF8012002F0ACF8002002F064
:102AF000A9F8C72002F0B2F8002002F0A3F80020E5
:102B000002F0A0F8002002F09DF8002002F09AF8F0
:102B1000C82002F0A3F8002002F094F8002002F090
:102B200091F8002002F08EF8002002F08BF8C92006
:102B300002F094F8002002F085F8002002F082F8FC
:102B4000002002F07FF8002002F07CF8002002F064
:102B500079F8002002F076F8002002F073F80020E7
:102B600002F070F8002002F06DF8002002F06AF820
:102B7000002002F067F8002002F064F8002002F064
:102B800061F8002002F05EF8002002F05BF80020FF
:102B900002F058F8E02002F061F8162002F052F836
:102BA000002002F04FF81C2002F04CF8002002F048
:102BB00049F8212002F046F8002002F043F83620C0
:102BC00002F040F8002002F03DF8462002F03AF80A
:102BD000002002F037F8522002F034F8002002F012
:102BE00031F8642002F02EF8002002F02BF87A2051
:102BF00002F028F8002002F025F88B2002F022F8DD
:102C0000002002F01FF8992002F01CF8002002F0CA
:102C100019F8A82002F016F8002002F013F8B920E5
:102C200002F010F8002002F00DF8C42002F00AF8BB
:102C3000002002F007F8CA2002F004F8002002F099
:102C400001F8D22001F0FEFF002001F0FBFFD920A7
:102C500001F0F8FF002001F0F5FFE02001F0F2FFA5
:102C6000002001F0EFFFF32001F0ECFF002001F065
:102C7000E9FFE12001F0F2FF162001F0E3FF002060
:102C800001F0E0FF1C2001F0DDFF002001F0DAFF81
:102C9000222001F0D7FF002001F0D4FF362001F000
:102CA000D1FF002001F0CEFF452001F0CBFF002036
:102CB00001F0C8FF522001F0C5FF002001F0C2FF63
:102CC000642001F0BFFF002001F0BCFF7A2001F07A
:102CD000B9FF002001F0B6FF8B2001F0B3FF002008
:102CE00001F0B0FF992001F0ADFF002001F0AAFF34
:102CF000A82001F0A7FF002001F0A4FFB92001F0F7
:102D0000A1FF002001F09EFFC42001F09BFF0020E6
:102D100001F098FFCA2001F095FF002001F092FF1A
:102D2000D22001F08FFF002001F08CFFD82001F0AD
:102D300089FF002001F086FFE02001F083FF0020E2
:102D400001F080FFF32001F07DFF002001F07AFF09
:102D5000E22001F083FF052001F074FF002001F064
:102D600071FF0B2001F06EFF002001F06BFF1B20B4
:102D700001F068FF002001F065FF342001F062FFE0
:102D8000002001F05FFF442001F05CFF002001F013
:102D900059FF4F2001F056FF002001F053FF612042
:102DA00001F050FF002001F04DFF792001F04AFFB3
:102DB000002001F047FF882001F044FF002001F0CF
:102DC00041FF972001F03EFF002001F03BFFA620CD
:102DD00001F038FF002001F035FFB72001F032FF8D
:102DE000002001F02FFFC22001F02CFF002001F095
:102DF00029FFC72001F026FF002001F023FFD1208A
:102E000001F020FF002001F01DFFD62001F01AFF85
:102E1000002001F017FFDD2001F014FF002001F079
:102E200011FFF32001F00EFF002001F00BFFE32063
:102E300001F014FF052001F005FF002001F002FF62
:102E40000A2001F0FFFE002001F0FCFE1C2001F032
:102E5000F9FE002001F0F6FE332001F0F3FE002021
:102E600001F0F0FE442001F0EDFE002001F0EAFE4A
:102E7000502001F0E7FE002001F0E4FE622001F0A6
:102E8000E1FE002001F0DEFE782001F0DBFE0020F4
:102E900001F0D8FE882001F0D5FE002001F0D2FE1E
:102EA000972001F0CFFE002001F0CCFEA62001F01B
:102EB000C9FE002001F0C6FEB72001F0C3FE0020CD
:102EC00001F0C0FEC22001F0BDFE002001F0BAFEFC
:102ED000C72001F0B7FE002001F0B4FED12001F0C0
:102EE000B1FE002001F0AEFED52001F0ABFE0020C7
:102EF00001F0A8FEDD2001F0A5FE002001F0A2FEF9
:102F0000F32001F09FFE002001F09CFEE42001F080
:102F1000A5FE012001F096FE002001F093FE0120A5
:102F200001F090FE002001F08DFE022001F08AFEEB
:102F3000002001F087FE2A2001F084FE002001F02D
:102F400081FE3C2001F07EFE002001F07BFE4B2044
:102F500001F078FE002001F075FE5D2001F072FEA8
:102F6000002001F06FFE742001F06CFE002001F0E3
:102F700069FE842001F066FE002001F063FE9320CC
:102F800001F060FE002001F05DFEA22001F05AFE7B
:102F9000002001F057FEB32001F054FE002001F0A4
:102FA00051FEBE2001F04EFE002001F04BFEC42079
:102FB00001F048FE002001F045FECD2001F042FE68
:102FC000002001F03FFED32001F03CFE002001F084
:102FD00039FEDD2001F036FE002001F033FEF32043
:102FE00001F030FE002001F02DFEE52001F036FE5C
:102FF000002001F027FE002001F024FE002001F057
:1030000021FE002001F01EFE022001F01BFE002028
:1030100001F018FE292001F015FE002001F012FE3B
:103020003C2001F00FFE002001F00CFE4B2001F0CF
:1030300009FE002001F006FE5D2001F003FE0020E5
:1030400001F000FE742001F0FDFD002001F0FAFD0A
:10305000842001F0F7FD002001F0F4FD932001F041
:10306000F1FD002001F0EEFDA22001F0EBFD0020BB
:1030700001F0E8FDB32001F0E5FD002001F0E2FDE4
:10308000BE2001F0DFFD002001F0DCFDC42001F0D6
:10309000D9FD002001F0D6FDCD2001F0D3FD0020A8
:1030A00001F0D0FDD32001F0CDFD002001F0CAFDDC
:1030B000DC2001F0C7FD002001F0C4FDF32001F089
:1030C000C1FD002001F0BEFDE62001F0C7FD11208A
:1030D00001F0B8FD002001F0B5FD342001F0B2FD93
:1030E000002001F0AFFD562001F0ACFD002001F002
:1030F000A9FD762001F0A6FD002001F0A3FD7720B8
:1031000001F0A0FD002001F09DFD662001F09AFD78
:10311000002001F097FD882001F094FD002001F0CF
:1031200091FD992001F08EFD002001F08BFDBB2068
:1031300001F088FD002001F085FD992001F082FD5D
:10314000002001F07FFD662001F07CFD002001F0F1
:1031500079FD552001F076FD002001F073FD55202A
:1031600001F070FD002001F06DFD452001F06AFDC9
:10317000002001F067FD432001F064FD002001F014
:1031800061FD442001F05EFD002001F05BFDE720C1
:1031900001F064FD322001F055FD002001F052FDE8
:1031A000552001F04FFD002001F04CFD762001F08C
:1031B00049FD002001F046FD662001F043FD00209E
:1031C00001F040FD672001F03DFD002001F03AFDD7
:1031D000672001F037FD002001F034FD872001F069
:1031E00031FD002001F02EFD992001F02BFD002083
:1031F00001F028FDBB2001F025FD002001F022FD9B
:10320000992001F01FFD002001F01CFD772001F046
:1032100019FD002001F016FD442001F013FD0020EF
:1032200001F010FD562001F00DFD002001F00AFD17
:10323000232001F007FD002001F004FD332001F000
:1032400001FD002001F0FEFC452001F0FBFC002008
:1032500001F0F8FCE82001F001FD002001F0F2FC93
:10326000002001F0EFFC992001F0ECFC002001F0BF
:10327000E9FC872001F0E6FC002001F0E3FC882057
:1032800001F0E0FC002001F0DDFC772001F0DAFC29
:10329000002001F0D7FC662001F0D4FC002001F0F2
:1032A000D1FC882001F0CEFC002001F0CBFCAA204C
:1032B00001F0C8FC002001F0C5FCBB2001F0C2FCFD
:1032C000002001F0BFFC992001F0BCFC002001F0BF
:1032D000B9FC662001F0B6FC002001F0B3FC5520DB
:1032E00001F0B0FC002001F0ADFC552001F0AAFC7B
:1032F000002001F0A7FC442001F0A4FC002001F014
:10330000A1FC442001F09EFC002001F09BFC552014
:1033100001F098FC002001F095FCE92001F09EFCF2
:10332000AA2001F08FFC002001F08CFC002001F0AD
:1033300089FC002001F086FC002001F08FFCAA200F
:1033400001F080FCCF2001F089FC002001F07AFC24
:10335000002001F077FC002001F074FC002001F057
:1033600071FC002001F06EFC002001F06BFC0020DD
:1033700001F068FC002001F065FC002001F062FC17
:10338000002001F05FFC002001F05CFC002001F057
:1033900059FC002001F056FC002001F053FC0020F5
:1033A00001F050FC002001F04DFC002001F04AFC2F
:1033B000F02001F053FC002001F044FC502001F00B
:1033C00041FC002001F03EFC002001F03BFC00200D
:1033D00001F038FCF32001F041FC002001F032FC48
:1033E000F92001F03BFC062001F02CFC102001F03C
:1033F00029FC292001F026FC002001F023FC3A20C2
:1034000001F02CFC552001F01DFC112001F026FCE0
:10341000642001F067FF292001F020FC352001F035
:103420001DFC002001F00EFC512001F017FCFF20D4
:1034300001F008FC532001F011FC2C2001F002FCEB
:10344000552001F00BFC822001F0FCFB2C2001F048
:1034500005FC01F048B8FE48808845F210518842CA
:103460007ED155214FF4704001F00EFCAA214FF29D
:10347000010001F009FC52214FF2020001F004FCAE
:1034800008214FF2030001F0FFFB01214FF204007D
:1034900001F0FAFB0D214FF4304001F0F5FB0D2156
:1034A0004BF2010001F0F0FB0D214BF2020001F0A4
:1034B000EBFB34214FF4364001F0E6FB34214BF2B4
:1034C000016001F0E1FB34214BF2026001F0DCFB12
:1034D0000D214FF4314001F0D7FB0D214BF20110CB
:1034E00001F0D2FB0D214BF2021001F0CDFB342193
:1034F0004FF4374001F0C8FB34214BF2017001F06A
:10350000C3FB34214BF2027001F0BEFB00214FF4EB
:10351000324001F0B9FB00214BF2012001F0B4FB75
:1035200000214BF2022001F0AFFB24214FF4384080
:1035300001F0AAFB24214BF6010001F0A5FB242198
:103540004BF6020001F0A0FB01214FF43F4001F0D7
:103550009BFB0F214FF4334001F096FB0F2100E05D
:10356000FEE34BF2013001F08FFB0F214BF20230F2
:1035700001F08AFB34214FF4394001F085FB3421FE
:103580004BF6011001F080FB34214BF6021001F0E4
:103590007BFB08214FF4354001F076FB08214BF20C
:1035A000015001F071FB08214BF2025001F06CFB5D
:1035B00003214FF4424001F067FB24214FF43A40CD
:1035C00001F062FB24214BF6012001F05DFB242178
:1035D0004BF6022001F058FB00214FF43C4001F073
:1035E00053FB78214BF6014001F04EFB00214BF6D6
:1035F000024001F049FB00214FF43D4001F044FB43
:1036000078214BF6015001F03FFB00214BF60250B0
:1036100001F03AFB00214FF43E4001F035FB6421FC
:103620004BF6016001F030FB00214FF4514001F0F6
:103630002BFB33214DF2011001F026FB00214DF24E
:10364000021001F021FB34214DF2031001F01CFBAC
:1036500000214DF2041001F017FB3A214DF2051044
:1036600001F012FB00214DF2061001F00DFB4A2182
:103670004DF2071001F008FB00214DF2081001F097
:1036800003FB5C214DF2091001F0FEFA00214DF21E
:103690000A1001F0F9FA81214DF20B1001F0F4FA51
:1036A00000214DF20C1001F0EFFAA6214DF20D10A1
:1036B00001F0EAFA00214DF20E1001F0E5FAE521E1
:1036C0004DF20F1001F0E0FA01214DF2101001F05F
:1036D000DBFA13214DF2111001F0D6FA01214DF25F
:1036E000121001F0D1FA54214DF2131001F0CCFA6E
:1036F00001214DF2141001F0C7FA82214DF215108C
:1037000001F0C2FA01214DF2161001F0BDFACA21F2
:103710004DF2171001F0B8FA02214DF2181001F025
:10372000B3FA00214DF2191001F0AEFA02214DF268
:103730001A1001F0A9FA01214DF21B1001F0A4FAB0
:1037400002214DF21C1001F09FFA34214DF21D10A0
:1037500001F09AFA02214DF21E1001F095FA67214C
:103760004DF21F1001F090FA02214DF2201001F0ED
:103770008BFA84214DF2211001F086FA02214DF2DC
:10378000221001F081FAA4214DF2231001F07CFAFD
:1037900002214DF2241001F077FAB7214DF22510E5
:1037A00001F072FA02214DF2261001F06DFACF21DC
:1037B0004DF2271001F068FA02214DF2281001F0B5
:1037C00063FADE214DF2291001F05EFA02214DF27A
:1037D0002A1001F059FAF2214DF22B1001F054FA9F
:1037E00002214DF22C1001F04FFAFE214DF22D1066
:1037F00001F04AFA03214DF22E1001F045FA102192
:103800004DF22F1001F040FA03214DF2301001F07B
:103810003BFA33214DF2311001F036FA03214DF21B
:10382000321001F031FA6D214DF2331001F02CFA13
:1038300000214FF4524001F027FA33214DF20120CC
:1038400001F022FA00214DF2022001F01DFA01E000
:103850000C03002034214DF2032001F015FA002161
:103860004DF2042001F010FA3A214DF2052001F04A
:103870000BFA00214DF2062001F006FA4A214DF222
:10388000072001F001FA00214DF2082001F0FCF9B7
:103890005C214DF2092001F0F7F900214DF20A20D8
:1038A00001F0F2F981214DF20B2001F0EDF9002138
:1038B0004DF20C2001F0E8F9A6214DF20D2001F0A7
:1038C000E3F900214DF20E2001F0DEF9E5214DF281
:1038D0000F2001F0D9F901214DF2102001F0D4F9A7
:1038E00013214DF2112001F0CFF901214DF21220E8
:1038F00001F0CAF954214DF2132001F0C5F901215C
:103900004DF2142001F0C0F982214DF2152001F092
:10391000BBF901214DF2162001F0B6F9CA214DF292
:10392000172001F0B1F902214DF2182001F0ACF995
:1039300000214DF2192001F0A7F902214DF21A20C1
:1039400001F0A2F901214DF21B2001F09DF90221A5
:103950004DF21C2001F098F934214DF21D2001F0A8
:1039600093F902214DF21E2001F08EF967214DF2EC
:103970001F2001F089F902214DF2202001F084F985
:1039800084214DF2212001F07FF902214DF2222005
:1039900001F07AF9A4214DF2232001F075F90221FA
:1039A0004DF2242001F070F9B7214DF2252001F0ED
:1039B0006BF902214DF2262001F066F9CF214DF27C
:1039C000272001F061F902214DF2282001F05CF975
:1039D000DE214DF2292001F057F902214DF22A2073
:1039E00001F052F9F2214DF22B2001F04DF90221A4
:1039F0004DF22C2001F048F9FE214DF22D2001F06E
:103A000043F903214DF22E2001F03EF910214DF231
:103A10002F2001F039F903214DF2302001F034F963
:103A200033214DF2312001F02FF903214DF23220E4
:103A300001F02AF96D214DF2332001F025F9002122
:103A40004FF4534001F020F933214DF2013001F0E1
:103A50001BF900214DF2023001F016F934214DF22C
:103A6000033001F011F900214DF2043001F00CF99E
:103A70003A214DF2053001F007F900214DF20630F0
:103A800001F002F94A214DF2073001F0FDF8002162
:103A90004DF2083001F0F8F85C214DF2093001F0E8
:103AA000F3F800214DF20A3001F0EEF881214DF2D9
:103AB0000B3001F0E9F800214DF20C3001F0E4F890
:103AC000A6214DF20D3001F0DFF800214DF20E304D
:103AD00001F0DAF8E5214DF20F3001F0D5F80121BF
:103AE0004DF2103001F0D0F813214DF2113001F0F9
:103AF000CBF801214DF2123001F0C6F854214DF2FD
:103B0000133001F0C1F801214DF2143001F0BCF87E
:103B100082214DF2153001F0B7F801214DF2163037
:103B200001F0B2F8CA214DF2173001F0ADF80221D0
:103B30004DF2183001F0A8F800214DF2193001F0D3
:103B4000A3F802214DF21A3001F09EF801214DF246
:103B50001B3001F099F802214DF21C3001F094F86D
:103B600034214DF21D3001F08FF802214DF21E304C
:103B700001F08AF867214DF21F3001F085F802212B
:103B80004DF2203001F080F884214DF2213001F017
:103B90007BF802214DF2223001F076F8A4214DF29B
:103BA000233001F071F802214DF2243001F06CF85D
:103BB000B7214DF2253001F067F802214DF2263091
:103BC00001F062F8CF214DF2273001F05DF80221BB
:103BD0004DF2283001F058F8DE214DF2293001F085
:103BE00053F802214DF22A3001F04EF8F2214DF245
:103BF0002B3001F049F802214DF22C3001F044F84D
:103C0000FE214DF22D3001F03FF803214DF22E3010
:103C100001F03AF810214DF22F3001F035F8032170
:103C20004DF2303001F030F833214DF2313001F0F7
:103C30002BF803214DF2323001F026F86D214DF2C0
:103C4000333001F021F800214FF4544001F01CF80A
:103C500033214DF2014001F017F800214DF20240EE
:103C600001F012F834214DF2034001F00DF800216B
:103C70004DF2044001F008F83A214DF2054001F000
:103C800003F800214DF2064000F0FEFF4A214DF2FC
:103C9000074000F0F9FF00214DF2084000F0F4FF6A
:103CA0005C214DF2094000F0EFFF00214DF20A4087
:103CB00000F0EAFF81214DF20B4000F0E5FF00210A
:103CC0004DF20C4000F0E0FFA6214DF20D4000F057
:103CD000DBFF00214DF20E4000F0D6FFE5214DF252
:103CE0000F4000F0D1FF01214DF2104000F0CCFF59
:103CF00013214DF2114000F0C7FF01214DF2124097
:103D000000F0C2FF54214DF2134000F0BDFF01212D
:103D10004DF2144000F0B8FF82214DF2154000F042
:103D2000B3FF01214DF2164000F0AEFFCA214DF263
:103D3000174000F0A9FF02214DF2184000F0A4FF47
:103D400000214DF2194000F09FFF02214DF21A4070
:103D500000F09AFF01214DF21B4000F095FF00E0BA
:103D600003E302214DF21C4000F08EFF34214DF29E
:103D70001D4000F089FF02214DF21E4000F084FF3B
:103D800067214DF21F4000F07FFF02214DF22040DD
:103D900000F07AFF84214DF2214000F075FF0221EE
:103DA0004DF2224000F070FFA4214DF2234000F0BC
:103DB0006BFF02214DF2244000F066FFB7214DF267
:103DC000254000F061FF02214DF2264000F05CFF2B
:103DD000CF214DF2274000F057FF02214DF228403D
:103DE00000F052FFDE214DF2294000F04DFF02218C
:103DF0004DF22A4000F048FFF2214DF22B4000F036
:103E000043FF02214DF22C4000F03EFFFE214DF217
:103E10002D4000F039FF03214DF22E4000F034FF19
:103E200010214DF22F4000F02FFF03214DF23040C2
:103E300000F02AFF33214DF2314000F025FF03212D
:103E40004DF2324000F020FF6D214DF2334000F082
:103E50001BFF00214FF4554000F016FF33214DF2B7
:103E6000015000F011FF00214DF2025000F00CFF54
:103E700034214DF2035000F007FF00214DF20450B1
:103E800000F002FF3A214DF2055000F0FDFE002146
:103E90004DF2065000F0F8FE4A214DF2075000F0B6
:103EA000F3FE00214DF2085000F0EEFE5C214DF2D1
:103EB000095000F0E9FE00214DF20A5000F0E4FE46
:103EC00081214DF20B5000F0DFFE00214DF20C502D
:103ED00000F0DAFEA6214DF20D5000F0D5FE0021D3
:103EE0004DF20E5000F0D0FEE5214DF20F5000F0E3
:103EF000CBFE01214DF2105000F0C6FE13214DF211
:103F0000115000F0C1FE01214DF2125000F0BCFE34
:103F100054214DF2135000F0B7FE01214DF2145020
:103F200000F0B2FE82214DF2155000F0ADFE0121ED
:103F30004DF2165000F0A8FECA214DF2175000F0C5
:103F4000A3FE02214DF2185000F09EFE00214DF21A
:103F5000195000F099FE02214DF21A5000F094FE23
:103F600001214DF21B5000F08FFE02214DF21C503A
:103F700000F08AFE34214DF21D5000F085FE022132
:103F80004DF21E5000F080FE67214DF21F5000F0F0
:103F90007BFE02214DF2205000F076FE84214DF28E
:103FA000215000F071FE02214DF2225000F06CFE13
:103FB000A4214DF2235000F067FE02214DF224505F
:103FC00000F062FEB7214DF2255000F05DFE0221A7
:103FD0004DF2265000F058FECF214DF2275000F050
:103FE00053FE02214DF2285000F04EFEDE214DF22C
:103FF000295000F049FE02214DF22A5000F044FE03
:10400000F2214DF22B5000F03FFE02214DF22C50D8
:1040100000F03AFEFE214DF22D5000F035FE032156
:104020004DF22E5000F030FE10214DF22F5000F0D6
:104030002BFE03214DF2305000F026FE33214DF2CD
:10404000315000F021FE03214DF2325000F01CFEF1
:104050006D214DF2335000F017FE00214FF4564011
:1040600000F012FE33214DF2016000F00DFE002140
:104070004DF2026000F008FE34214DF2036000F0C2
:1040800003FE00214DF2046000F0FEFD3A214DF2E6
:10409000056000F0F9FD00214DF2066000F0F4FD2E
:1040A0004A214DF2076000F0EFFD00214DF208605B
:1040B00000F0EAFD5C214DF2096000F0E5FD002111
:1040C0004DF20A6000F0E0FD81214DF20B6000F03E
:1040D000DBFD00214DF20C6000F0D6FDA6214DF273
:1040E0000D6000F0D1FD00214DF20E6000F0CCFD1E
:1040F000E5214DF20F6000F0C7FD01214DF2106087
:1041000000F0C2FD13214DF2116000F0BDFD012150
:104110004DF2126000F0B8FD54214DF2136000F032
:10412000B3FD01214DF2146000F0AEFD82214DF28D
:10413000156000F0A9FD01214DF2166000F0A4FD0C
:10414000CA214DF2176000F09FFD02214DF2186068
:1041500000F09AFD00214DF2196000F095FD02215A
:104160004DF21A6000F090FD01214DF21B6000F04D
:104170008BFD02214DF21C6000F086FD34214DF2D2
:104180001D6000F081FD02214DF21E6000F07CFDFB
:1041900067214DF21F6000F077FD02214DF2206093
:1041A00000F072FD84214DF2216000F06DFD0221CE
:1041B0004DF2226000F068FDA4214DF2236000F072
:1041C00063FD02214DF2246000F05EFDB7214DF247
:1041D000256000F059FD02214DF2266000F054FDEB
:1041E000CF214DF2276000F04FFD02214DF22860F3
:1041F00000F04AFDDE214DF2296000F045FD02216C
:104200004DF22A6000F040FDF2214DF22B6000F0EB
:104210003BFD02214DF22C6000F036FDFE214DF2F7
:104220002D6000F031FD03214DF22E6000F02CFDD9
:1042300010214DF22F6000F027FD03214DF2306078
:1042400000F022FD33214DF2316000F01DFD03210D
:104250004DF2326000F018FD6D214DF2336000F038
:1042600013FD55214FF4704000F00EFDAA214FF2CE
:10427000010000F009FD52214FF2020000F004FDA0
:1042800008214FF2030000F0FFFC00214FF2040070
:1042900000F0FAFCCC214FF4314000F0F5FC002195
:1042A0004BF2011000F0F0FC05214FF4364000F015
:1042B000EBFC70214FF4374000F0E6FC70214BF22C
:1042C000017000F0E1FC01214FF4384000F0DCFC0B
:1042D00003214BF6010000F0D7FC03214BF602004E
:1042E00000F0D2FC03214BF6030000F0CDFC0221CC
:1042F0004FF43C4000F0C8FC00214BF6014000F0B8
:10430000C3FC00214BF6024000F0BEFCD0214FF46C
:10431000494000F0B9FC02214CF6011000F0B4FC59
:1043200050214CF6021000F0AFFC50214CF6031067
:1043300000F0AAFC50214CF6041000F0A5FC00216E
:104340004FF4545000F0A0FC55214FF4685000F099
:104350009BFC4FF4885000F081FC782000F0CEFFE9
:104360004FF4245000F07AFCBDE06548808841F6A7
:1043700063118842F8D1E22000F070FC1D2000F0AB
:1043800061FC022000F05EFC042000F05BFC642075
:1043900000F0B4FFE02000F061FC012000F052FCCE
:1043A0000A2000F09FFFE02000F058FC032000F0FE
:1043B00049FC0C2000F096FF012000F04FFC0A2081
:1043C00000F090FFE62000F049FC2F2000F03AFCBE
:1043D000FF2000F037FCFF2000F034FCB02000F09C
:1043E0003DFC202000F02EFC002000F02BFC0320E0
:1043F00000F028FC40F21F3000F024FC012000F007
:1044000021FC40F2DF1000F01DFC002000F01AFC3F
:10441000B42000F023FC042000F014FC40F21F4004
:1044200000F010FC002000F00DFC2E2000F00AFC33
:10443000002000F007FC002000F004FC002000F049
:1044400001FC002000F0FEFBB62000F007FC02207B
:1044500000F0F8FB4FF4037000F0F4FB002000F0D4
:10446000F1FB172000F0EEFB152000F0EBFB002025
:1044700000F0E8FB002000F0E5FBF02000F0EEFB90
:10448000032000F0DFFB292000F0E8FBD02000F043
:10449000E5FB002000F0D6FBBE2000F0DFFB05208E
:1044A00000F0D0FBFE2000F0CDFB012000F0CAFBA5
:1044B000002000F0C7FB002000F0C4FB002000F04B
:1044C000C1FBB82000F0CAFB032000F0BBFB0120B9
:1044D00000F0B8FBBA2000F0C1FB012000F0B2FBF5
:1044E000642000F069F80020FDF7F6FA0120054984
:1044F00008604FF6FF70FDF7D5FA13B000BD00005D
:104500000C0300208081214210B50246012000E00A
:1045100050430B1EA1F10104E1B2F9D110BD00001E
:1045200008B5034800880090BDF8000008BD0000F1
:104530000008006C2DE9F04105460E461D48008834
:10454000A84203DD1B484088B04202DC0020BDE8E1
:10455000F0813146284600F073F91648808845F20C
:104560001051884204D14FF4385000F077FB02E03C
:104570002E2000F073FBFFF7D3FF04460D48808820
:1045800041F66311884201D12046E0E7FFF7C8FFFA
:104590000446FFF7C5FF8046E7B24FF6FF7000EA1A
:1045A0000727E012C002B91240EA411040EAE820B1
:1045B000CDE700000C0300202DE9F0470446BE20A3
:1045C00000F04CFB052000F03DFB204602F03FF8D8
:1045D00007464FF066320C4B02F04CF8054602F0ED
:1045E00009F81FFA80F9484600F02CFB012000F082
:1045F00029FBFF2000F026FB002000F023FB002019
:1046000000F020FBBDE8F08766660440F0B5054683
:104610000024002789488079012805D187488088AF
:1046200041F66311884208D184488079F0B9834803
:10463000808841F66311884218D1082D15D2DFE831
:1046400005F00406080A0C0E101206250DE00725D9
:104650000BE0042509E0052507E0012505E000251C
:1046600003E0032501E0022500BF00BF082D1CD296
:10467000DFE805F00406090C0F12151800BF14E05E
:1046800044F0800411E044F040040EE044F0C00423
:104690000BE044F0200408E044F0600405E044F03E
:1046A000A00402E044F0E00400BF00BF634880883B
:1046B00045F21051884202D14FF4585700E0362796
:1046C0005E48808849F24131884205D05B48808845
:1046D00047F28971884201D144F0080421463846E6
:1046E00000F0D2FA5548808841F6631188421DD007
:1046F00004F0200068B15148008850494988884238
:1047000014DA4E48068840884C490880084646809E
:104710000CE04A48008849494988884206DD4748F4
:104720000688408845490880084646804348808876
:1047300045F21051884252D14049488900F08EFA22
:10474000002000F07FFA3D494989491C88B200F0F9
:1047500085FA002000F076FA38494989891C88B228
:1047600000F07CFA35490988491EC1F30F2000F09A
:1047700069FA32494989C91C88B200F06FFA2F4999
:104780000978491EC8B200F05DFA2C49888900F00A
:1047900065FA002000F056FA28498989491C88B238
:1047A00000F05CFA002000F04DFA24498989891C48
:1047B00088B200F053FA21494988491EC1F30F20FD
:1047C00000F040FA1D498989C91C88B200F046FAF8
:1047D0001A498978491EC8B200F034FA2DE0174909
:1047E000488900F03BFA002000F02CFA002000F08D
:1047F00029FA12490988491EC1F30F2000F022FA54
:104800000E490978491EC8B200F01CFA0B49888984
:1048100000F024FA002000F015FA002000F012FA4F
:1048200006494988491EC1F30F2000F00BFA0349DD
:104830008978491EC8B200F005FAF0BD0C030020CB
:1048400010B502460C464548808841F663118842FF
:1048500047D142488079A8B940480088401E801A54
:1048600082B23E49488900F0F9F9002000F0EAF9E7
:10487000002000F0E7F9101200F0E4F9D0B200F0E7
:10488000E1F916E03549488900F0E8F9101200F026
:10489000D9F9D0B200F0D6F930490988491EC1F3E0
:1048A0000F2000F0CFF92D490978491EC8B200F059
:1048B000C9F92A49888900F0D1F9201200F0C2F91B
:1048C000E0B200F0BFF925494988491EC1F30F2025
:1048D00000F0B8F921498978491EC8B200F0B2F950
:1048E0003AE01E48808845F21051884220D11B4989
:1048F000488900F0B3F9101200F0A4F9174949896A
:10490000491C88B200F0AAF9D0B200F09BF9134913
:10491000888900F0A3F9201200F094F90F498989E1
:10492000491C88B200F09AF9E0B200F08BF913E06C
:104930000A49488900F092F9101200F083F9D0B2C8
:1049400000F080F90549888900F088F9201200F00C
:1049500079F9E0B200F076F910BD00000C030020F8
:104960002DE9F84F80460E4617461C46B3462046B2
:10497000E31704EB5373DB1021464FEAE47C04EBAE
:104980005C7C4FEAEC0CA4EBCC0CBCF1000F02D029
:104990004FF0010C01E04FF0000C6344224604EBA1
:1049A000D27C4FEA6C0C03FB0CF3DBB20093A7F153
:1049B0002000C7B2002558E00C2C07D107EB4700B8
:1049C0002C4901EB800010F8059013E0102C05D164
:1049D000294800EB071010F805900BE0182C07D1C0
:1049E00007EBC700254901EB800010F8059001E0B6
:1049F000BDE8F88F4FF0000A31E009F0800038B1CF
:104A00001F48008882B231464046FDF7D1F908E0E0
:104A10000A9830B91B48008882B231464046FDF7FB
:104A2000C7F94FEA49604FEA1069701C86B2164810
:104A30004088B04200DCDBE7A6EB0B00A0420AD1C5
:104A40005E4608F101001FFA80F80F4800884045D3
:104A500000DCCDE706E00AF1010000F0FF0ABAF140
:104A6000080FCADB00BF681CC5B200988542A3DBF3
:104A700000BFBDE788680008FC6C0008EC72000805
:104A80001C000020200000200C0300202DE9FF4F17
:104A900081B0074691461E460E9D4FF0000A002445
:104AA00039E0301B401EC1B20A20FFF72DFDB9FBD3
:104AB000F0F00A21B0FBF1F201FB1208BAF1000F8D
:104AC00016D1701EA04213DDB8F1000F0ED10020E8
:104AD000AB4605EBDB71491001FB0471009088B215
:104AE0002B4620220299FFF73BFF12E04FF0010A0C
:104AF0000020AB4605EBDB71491001FB047100900F
:104B000088B208F13001CAB22B460299FFF728FF9C
:104B100000BF601CC4B2B442C3DB05B0BDE8F08F77
:104B20002DE9F84704460D4690469946DDE90967A8
:104B300004F0FF0A08EB04001FFA80F809EB0500F7
:104B40001FFA80F916E0444502DB5446A81985B2E5
:104B50004D4500DB14E0002000903A7833462946AA
:104B60002046FFF7FDFE304606EBD07104EB6101F5
:104B70008CB27F1C38787E2802DC38782028E2DA74
:104B800000BFBDE8F8872DE9FF4F82B00646924688
:104B90001F46DDE90F480020019000254DE0781BFD
:104BA000401EC1B20A20FFF7AFFCBAFBF0F00A21A9
:104BB000B0FBF1F201FB1209019850BB781EA8422C
:104BC00027DDB9F1000F22D108F0800078B108F09C
:104BD0000100A34604EBDB71491001FB0561009065
:104BE00088B2234630220399FFF7BAFE0EE008F0A0
:104BF0000100A34604EBDB71491001FB0561009045
:104C000088B2234620220399FFF7AAFE13E0012071
:104C1000019008F00100A34604EBDB71491001FB91
:104C20000561009088B209F13001CAB223460399A8
:104C3000FFF796FE00BF681CC5B2BD42AFDB06B0F1
:104C4000BDE8F08F01B5BDF800000090BDF8000090
:104C50000149088008BD00000008006C01B5BDF8DE
:104C600000000090BDF800000149088008BD000068
:104C7000FE07006C02480089024908807047000066
:104C80000C030020FE07006C024A1080921C118069
:104C900070470000FE07006C00B585B000BF1B48E0
:104CA000806940F00800194988610846806900F071
:104CB0000800009000BF00BF00BF0846806940F0B8
:104CC000400088610846806900F04000009000BF05
:104CD00000BF202001900120029003900320049047
:104CE00001A90B48FBF774FE2020019001A9094897
:104CF000FBF76EFE012220210548FCF709F801228E
:104D000020210448FCF704F805B000BD0010024063
:104D1000000C01400018014000BFFEE770477047DB
:104D200008B508490968C9084FF47A72B1FBF2F175
:104D30004143009100BF00BF00994A1E0092002924
:104D4000F9D108BD00000020704730B58FB005468E
:104D50000024012005900004069000200790022006
:104D60000C90C1030D910E9505A8FCF7BDF9044602
:104D70000CB100BFFEE70F20009002200190002040
:104D800002904FF480600390002004900221684656
:104D9000FCF774F804460CB100BFFEE70FB030BD5D
:104DA00010B5FBF7C1FF10BD1148006840F00100CD
:104DB0000F490860084640680E4908400C494860A1
:104DC000084600680C490840094908600846006820
:104DD00020F4802008600846406820F4FE00486007
:104DE0004FF41F008860C803044908607047000042
:104DF000001002400000FFF8FFFFF6FE08ED00E0A3
:104E000010B50E480068C06800F0010078B10C4988
:104E100008698047002009490968486200BF64208A
:104E200006490968C86264210448C16000BF6FF088
:104E3000010002490968086110BD00001C03002040
:104E4000C800002010B50268204B98420ED0204BBD
:104E500098420BD0B0F1804F08D01E4B984205D03D
:104E60001D4B984202D01D4B984203D122F0700294
:104E70004B681A43154B98420ED0154B98420BD0F5
:104E8000B0F1804F08D0134B984205D0124B984296
:104E900002D0124B984203D122F44072CB681A43DD
:104EA00022F080034C6943EA040202608B68C3620B
:104EB0000B688362054B984202D0054B984201D1A2
:104EC0000B6903630123436110BD0000002C014006
:104ED000003401400004004000080040000C004085
:104EE00038B504460D4600BF1148C06940F00400C3
:104EF0000F49C8610846C06900F00400009000BF77
:104F000000BF032211461E20FBF765FF1E20FBF7A2
:104F100052FF084808490860084645600021816042
:104F2000C4600161FCF7CEFB0348FCF7E6FB38BD2B
:104F300000100240000800401C03002070B5054628
:104F40006C6A0020E085E0842046FCF7EBFB70BD36
:104F50000168C96821F490710268D16001684969EB
:104F600021F0010102685161202180F83A10704758
:104F700010B504462068C06820F040002168C86071
:104F8000202084F839002046FCF788FD002010BD61
:104F900070B5044694F83A0022284AD1A068B0F5CA
:104FA000805F13D1A56A206940B920684068C0F3CA
:104FB00008002880A06A801CA06219E02068406870
:104FC000C0B22880A06A401CA06211E0206938B9F4
:104FD00020684068C1B2A26A501CA062117007E04C
:104FE0002068406800F07F01A26A501CA062117026
:104FF000E08D401E80B2E085C8B92068C06820F00E
:1050000020002168C8602068C06820F48070216892
:10501000C8602068406920F00100216848612020B4
:1050200084F83A002046FCF7F5FC002070BD002013
:10503000FCE70220FAE7000070B504462168096920
:1050400021F44051E2681143226811612269A1688C
:105050001143626941EA02052168C96841F20C62A4
:10506000914329432268D1602168496921F4407144
:10507000A269114322685161564A2168914254D174
:10508000FBF7D8FF00EBC00101EB00116268920052
:10509000B1FBF2F100EBC00202EB001263689B006F
:1050A000B2FBF3F26423B2FBF3F202EBC20303EBB5
:1050B0000212A1EB8201322202EB01116422B1FB48
:1050C000F2F101F0F00100EBC00202EB00126368A4
:1050D0009B00B2FBF3F26423B2FBF3F201EB02128A
:1050E00000EBC00101EB001163689B00B1FBF3F121
:1050F00000EBC00303EB00136668B600B3FBF6F3E6
:105100006426B3FBF6F303EBC30606EB0313A1EB34
:105110008301322303EB01116423B1FBF3F101F0AE
:105120000F0111442268916053E0FBF773FF00EB1D
:10513000C00101EB001162689200B1FBF2F100EBDB
:10514000C00202EB001263689B00B2FBF3F264231F
:10515000B2FBF3F202EBC20303EB0212A1EB8201FA
:10516000322202EB01116422B1FBF2F101F0F001F5
:1051700000EBC00202EB001263689B00B2FBF3F28B
:105180006423B2FBF3F201EB021200EBC00101EB6E
:10519000001163689B00B1FBF3F100EBC00303EB6C
:1051A00000136668B600B3FBF6F36426B3FBF6F3B0
:1051B00003EBC30606EB0313A1EB8301322303EBDE
:1051C00001116423B1FBF3F101F00F0111442268D6
:1051D000916070BD00380140014691F839002128E6
:1051E0002CD18868B0F5805F0FD10A6A1088C0F3AF
:1051F00008000B685860086918B9086A801C0862C2
:1052000009E0086A401C086205E00B6A581C086245
:1052100018780B685860C88C401E80B2C88458B992
:105220000868C06820F080000B68D8600868C06813
:1052300040F040000B68D860002070470220FCE777
:1052400010B500240C48FCF779FA00BF01E0641C9B
:1052500000BF0948FCF767FA2028F8D100BF0024F6
:1052600001E0641C00BF012204490348FCF79AFBDB
:105270000028F6D100BF10BD840200201A000020D3
:1052800000BFFEE702480068C0F30220704700003C
:105290000CED00E010B5002804DB0A07130E054AE8
:1052A000135406E00A07140E034A00F00F031B1FF5
:1052B000D45410BD00E400E018ED00E030380A28B6
:1052C00001D2012070470020704700BF70470000E6
:1052D00010B504460420FCF7C7F90148046010BD6E
:1052E0001000002030B50446002504E04FF47A7029
:1052F00000F004F86D1CA542F8D330BD70B503462C
:1053000000224FF0E02675690D4E366803FB06F467
:105310004FF0E026B16910E04FF0E026B069884216
:105320000BD0884202D20E1A324402E02E1A0E44EA
:1053300032440146A24200D300E0EDE700BF70BD59
:105340001000002000BF054A126802F04002002A47
:10535000F9D0C2B2014B1B1D1A60704700380140E2
:105360000149086070470000940123421CB5FBF717
:10537000E7FC4FF4E010FFF7E8FC4820FFF7A8FF38
:105380004FF4E13000F070F8FFF786FCFCF7B2FD57
:105390001E484168542088474FF478401C490860F3
:1053A0001CA010210B46C822CDE9001032211E207E
:1053B000FFF7B6FB1CA010210B46C822CDE9001058
:1053C00046211E20FFF7ACFB1AA010210B46C82275
:1053D000CDE900105A211E20FFF7A2FB19A01021D1
:1053E0000B46C822CDE900106E211E20FFF798FB66
:1053F0000BE01748006808B9012000E000201449BC
:1054000008604FF4FA70FFF76DFFF2E7C800002064
:105410001C000020576172536869702053544D334B
:1054200032205E5F5E00000055534D4152542054BF
:105430004553540041544F4D40414C49454E54450D
:105440004B000000323031392F31302F380000004E
:105450009481214201460868704770B505460C46A4
:105460002046A84770BD000010B5044609480A4907
:1054700008600846446000218160C160016181616B
:105480000C214161FCF700FA012204490248FCF7B3
:1054900089FA10BD00380140840200201A00002063
:1054A00030B595B0054613AB12AA09A9284600F0FD
:1054B0003FFA044614B1204615B030BD00201490C8
:1054C00026E0224909689DF8502001EBC20113AB88
:1054D00011AA486801A900F02BFA04460CB1204635
:1054E000EAE709A901A800F0E1FC60B99DF84400D1
:1054F0009DF84810884201DD0220DDE79DF850004C
:10550000124988750AE09DF85000401CC0B2149002
:105510000E48007D9DF850108842D2DC00BF0B4839
:10552000007D9DF85010884201D10420C4E714A9E1
:10553000284600F0DDFA04460CB12046BCE79DF891
:105540005000024948750020B6E70000C80000205E
:105550002DE9F0419AB09C48847D007DA04202DC98
:105560001AB0BDE8F0819849096801EBC40106ABA7
:1055700007AA486808A900F0DBF908A993A0FAF780
:1055800077FE002644E09048008B0121B14008409E
:10559000D8B122218FA0FAF76BFE304600F02EFB27
:1055A00089492431471839468BA0FAF761FE222138
:1055B00088A0FAF75DFE304600F020FB82492431D6
:1055C000084410A941F8260018E0304600F016FB08
:1055D0007D492431085810A941F826007A48C07D39
:1055E00030B910A850F826107CA0FAF741FE05E06B
:1055F00010A850F826107AA0FAF73AFE9DF81C0081
:10560000401EB04202D078A0FAF732FE701CC6B23B
:105610009DF81C008642B6DB74A0FAF729FE00F064
:105620003FFB6948407D0B280DD2DFE800F0060DF6
:10563000151E27323F4E5F7287006349096851F893
:1056400034008047054690E05F4A126852F83410F3
:1056500010988847054688E05B4B1B6853F8342058
:10566000DDE91001904705467FE0574F3F6857F846
:10567000343010A807C89847054676E0DFF848C1DF
:10568000DCF800C05CF8347010A80FC8B8470546B5
:105690006BE01498DFF830C10090DCF800C05CF8D3
:1056A000347010A80FC8B84705465EE0DDE9140164
:1056B000DFF814C1CDE90001DCF800C05CF83470FB
:1056C00010A80FC8B84705464FE0DDE91412169838
:1056D000DFF8F4C0CDE900120290DCF800C05CF8FD
:1056E000347010A80FC8B84705463EE0DDE9142322
:1056F000DDE91610DFF8D0C0CDE90023CDE90210B6
:10570000DCF800C05CF8347010A80FC8B847054634
:105710002BE0DDE91523DDE91710CDE90123CDE903
:1057200003101498DFF8A0C00090DCF800C05CF80B
:10573000347010A80FC8B847054616E0DDE91623F7
:10574000DDE91810CDE90223CDE90410DDE91401EB
:10575000DFF874C0CDE90001DCF800C05CF83470FB
:1057600010A80FC8B847054600BF00BF00F056FAA2
:105770009DF8180001280CD11348C07D20B9294696
:105780001BA0FAF775FD07E029461BA0FAF770FD8C
:1057900002E018A0FAF76CFD0B4890F8EC0088B115
:1057A0000948D0F8F0000A21B0FBF1F201FB120722
:1057B0000548D0F8F000B0FBF1F83A46414611A098
:1057C000FAF756FD00BFCBE6C80000200D0A25738E
:1057D000280000002563000025730000256C64008C
:1057E00030582558000000002C000000290000005F
:1057F0003D256C753B0D0A003D305825583B0D0A80
:105800000000000046756E6374696F6E2052756EFD
:105810002054696D653A25642E2531646D730D0A37
:1058200000000000F0B503461546002000220026C7
:1058300000245BE01F782C2F01D104B901221F78CE
:10584000292F01D01F780FB904B950E0002E3AD1AA
:105850001F78302F02DB1F78392F17DD1F782D2F8F
:1058600014D01F782B2F11D01F78612F02DB1F78E7
:10587000662F0BDD1F78412F02DB1F78462F05DDD9
:105880001F78582F02D01F78782F0CD102B12EE04C
:105890001F78612F03DB1F78203F0F7001E01F7816
:1058A0000F70491C1FE01F78222F04D102B11EE0A7
:1058B0000126012417E01F78202F14D01F782C2FE9
:1058C00011D0FF2613E01F78222F00D1002402B14F
:1058D0000DE044B11F785C2F02D15B1C471CF8B26D
:1058E0001F780F70491C471CF8B25B1CA2E700BF71
:1058F00000270F702E70F0BD10B504460020107008
:105900000BE020780870641C491C1078401C107053
:105910001078984201DB012010BD2078202802D0A9
:1059200020780028EDD10020087000BFF4E70000C7
:105930002DE9FF4F85B0804689460027002004905E
:105940000390012002904FF0000B002544461DE01B
:105950002078202816D005F07F00052812DA0DB92E
:1059600045F0800505F07F00042803D120782A281F
:1059700000D00EE0207805F07F010DF80100681CD2
:10598000C5B202E0852D00D103E0641C2078002818
:10599000DED100BF8DB1002005F07F010DF80100C0
:1059A00051A1684600F082FA18B9002108980170E8
:1059B00002E001210898017000254FF0000A4446DA
:1059C00014E0641C0AF1010000F0FF0A207820288E
:1059D00002D020782A2809D1204600F0D9F90646BD
:1059E000282E03D02A2E01D0CDF810A02078282808
:1059F00002D020780028E4D14446049810B10498DD
:105A0000401C04444FF0000A002654E0207810B9EE
:105A10004FF0010A50E02078282803D116B9781CED
:105A2000C7B213E02078292808D13EB917B1781EF3
:105A3000C7B201E04FF0010A47B93DE020782228C3
:105A400004D10EB9012000E00020064647B92078B5
:105A500020282FD0207889F8000009F1010929E0D9
:105A600020782C2804D101200290681CC5B214E0D3
:105A70002078202811D0207828280ED04DB9BBF1ED
:105A8000050F06DA20780DF80B000BF1010000F08D
:105A9000FF0B0298401CC0B20290012F0AD102985D
:105AA000022807D10298401CC0B202900398401C03
:105AB000C0B20390641CA9E700BF0398012809D174
:105AC00000200DF80B0008A1684600F0EFF908B9B6
:105AD00000200390079903980870002089F80000BF
