:020000040800F2
:10000000701300204D0200086938000849320008CA
:100010006538000843040008113B00080000000098
:100020000000000000000000000000006F38000821
:1000300099040008000000006D38000871380008BD
:1000400067020008670200086702000867020008EC
:1000500067020008670200086702000867020008DC
:1000600067020008670200086702000867020008CC
:1000700067020008670200086702000867020008BC
:100080006904000879040008670200086702000894
:1000900049040008670200086702000867020008B8
:1000A000670200086702000867020008670200088C
:1000B000670200086702000867020008670200087C
:1000C000670200086702000867020008670200086C
:1000D00067020008F13A0008013B000867020008C7
:1000E000670200086702000867020008670200084C
:1000F000670200086702000867020008670200083C
:10010000670200086702000867020008670200082B
:10011000670200086702000867020008670200081B
:10012000670200086702000867020008670200080B
:1001300067020008670200086702000867020008FB
:1001400059040008670200086702000867020008F7
:1001500089040008670200086702000867020008B7
:1001600067020008670200086702000867020008CB
:10017000670200086702000867020008000000002C
:1001800067020008670200086702000867020008AB
:10019000670200086702000867020008670200089B
:1001A00000000000000000006702000800F002F8F4
:1001B00000F03CF80AA090E8000C82448344AAF1C5
:1001C0000107DA4501D100F031F8AFF2090EBAE8C3
:1001D0000F0013F0010F18BFFB1A43F0010318477B
:1001E000284E0000484E0000103A24BF78C878C15D
:1001F000FAD8520724BF30C830C144BF04680C602D
:10020000704700000023002400250026103A28BF74
:1002100078C1FBD8520728BF30C148BF0B60704778
:100220001FB504F0ABFE1FBD10B510BD00F0D4F833
:100230001146FFF7F5FF04F05FFE00F0F2F803B49B
:10024000FFF7F2FF03BC00F0F5F800000948804713
:1002500009480047FEE7FEE7FEE7FEE7FEE7FEE7A8
:10026000FEE7FEE7FEE7FEE704480549054A064BC0
:100270007047000079380008AD010008700D0020BB
:1002800070130020700F0020700F002053EA020C42
:1002900000F069802DE9F04B4FF00006002B1FBFE6
:1002A000B3FA83F503FA05F424FA05F65E4012BFAB
:1002B0001643B2FA82F502FA05F4C5F120051EBF15
:1002C00022FA05FC44EA0C04203556EA044C4FEAB5
:1002D000144418BF641C4FF000084FF0000990420E
:1002E00071EB030C39D3002919BFB1FA81F701FA78
:1002F00007F6B0FA80F700FA07F6C7F120071EBF2D
:1003000020FA07FC46EA0C062037B6FBF4FCA7EB04
:100310000507103F07F01F0BCBF120060CFA0BFB73
:100320002CFA06F644BFB3460026202FA4BF5E4633
:100330004FF0000B5BEA060C08BF4FF0010B19EB06
:100340000B09ABFB027C48EB0608C01B06FB02CC8A
:100350000BFB03CC71EB0C01C1E70B460246414697
:100360004846BDE8F08B13B54FF000004FF0000198
:10037000AFF30080BDE81C4070474FF0000200B5AD
:10038000134694469646203922BFA0E80C50A0E8B8
:100390000C50B1F12001BFF4F7AF090728BFA0E866
:1003A0000C5048BF0CC05DF804EB890028BF40F832
:1003B000042B08BF704748BF20F8022B11F0804F74
:1003C00018BF00F8012B7047704770477047000056
:1003D000004870470C0D00207546FFF7F9FFAE4648
:1003E00005006946534620F00700854618B020B541
:1003F000FFF73AFFBDE820404FF000064FF000073E
:100400004FF000084FF0000B21F00701AC46ACE8BC
:10041000C009ACE8C009ACE8C009ACE8C0098D4629
:10042000704710B50446AFF300802046BDE8104089
:10043000FFF705BF01491820ABBEFEE7260002000A
:10044000704700BFFEE7000010B5024800F03FFA19
:1004500010BD00005808002010B5024800F037FA1F
:1004600010BD00008008002010B5024800F0CEFE4C
:1004700010BD00001C0B002010B5024800F0C6FEA5
:1004800010BD00007C0B002010B5024800F0BEFE3D
:1004900010BD0000BC0A0020704772B600BFFEE726
:1004A00010B5024692F82030012B01D0022B06D164
:1004B00010684069084314686061002010BD506AEC
:1004C00040F4802050620120F8E7F0B504460D4664
:1004D0001E4694F8207020688368A86800B900E080
:1004E00000BF012F01D0022F7DD103F0806030B911
:1004F00003F0006018B903F0805000287ED0C3F3E9
:100500000161012088403060A86860B9B5F800C07A
:10051000E86840EA4C5C206800F5C07000EB011010
:10052000C0F800C00FE0D5E901C040EACC00D5F822
:100530000CC040EA0C00D4F800C00CF5C07C0CEBF9
:10054000011CCCF80000D5F810C0206800F5C07080
:1005500000EB0110C0F804C0287D01280ED12068EE
:1005600000F5C07000EB0110406840F4807C20680A
:1005700000F5C07000EB0110C0F804C0D07900068F
:1005800092F806C040EA0C4092F805C040EA0C2000
:1005900092F804C040EA0C00D4F800C00CF5C07C0E
:1005A0000CEB011CCCF80C00D078000692F802C0CD
:1005B00040EA0C4092F801C040EA0C2092F800C0DA
:1005C00040EA0C00D4F800C00CF5C07C0CEB011C18
:1005D000CCF80800206800F5C07000EB011000683E
:1005E00040F0010C01E00FE008E0206800F5C07069
:1005F00000EB0110C0F800C00020F0BD606A40F4BC
:10060000001060620120F8E7606A40F480206062B8
:100610000120F2E7F0B504460A46216894F820501C
:10062000012D01D0022D7ED1424901F500710868EB
:1006300040F001000860086820F47C5008600868F9
:10064000566A40EA06200860107D00F01F0601206F
:1006500000FA06F3C8699843C861A1F50071D06932
:10066000C8B9D1F80C029843C1F80C02908880B246
:10067000968940EA064601F51070576940F83760E0
:10068000108880B2168940EA064601F51070576955
:1006900000EBC7004660D069012819D1D1F80C02DF
:1006A0001843C1F80C02908880B2168840EA0646CA
:1006B00001F51070576940F83760908980B216894B
:1006C00040EA064601F51070576900EBC700466026
:1006D000906928B9D1F804029843C1F8040204E0F3
:1006E000D1F804021843C1F80402106928B9D1F8FE
:1006F00014029843C1F8140204E0D1F8140218431C
:10070000C1F81402106A012804D1D1F81C02184360
:10071000C1F81C02D1F8000220F00100C1F800026B
:100720000020F0BDFFE7606A40F480206062012095
:10073000F7E7000000640040704770B5044694F885
:100740002050012D01D0022D7DD151B92068C06803
:1007500000F0030080B9606A40F40010606201207C
:1007600070BD2068006900F0030028B9606A40F499
:10077000001060620120F3E7206800F5D87000EBFC
:100780000110006800F004009060906840B9206893
:1007900000F5D87000EB01100068400D106007E014
:1007A000206800F5D87000EB01100068C0085060A8
:1007B000206800F5D87000EB0110006800F002001E
:1007C000D060206800F5D87000EB0110406800F0A0
:1007D0000F00082802D30820106108E0206800F507
:1007E000D87000EB0110406800F00F001061206825
:1007F00000F5D87000EB0110406800F47F40000A5B
:100800009061206800F5D87000EB01104068000C82
:100810005061206800F5D87000EB011080681870F6
:10082000206800F5D87000EB0110806800F47F406C
:10083000000A5870206800F5D87000EB011080683D
:1008400000F47F0000E03CE0000C9870206800F5A8
:10085000D87000EB01108068000ED870206800F599
:10086000D87000EB0110C0681871206800F5D870CE
:1008700000EB0110C06800F47F40000A5871206846
:1008800000F5D87000EB0110C06800F47F00000C88
:100890009871206800F5D87000EB0110C068000E58
:1008A000D87131B92068C06840F020002668F06037
:1008B00005E02068006940F02000266830610020D3
:1008C0004EE7606A40F480206062012048E72DE92D
:1008D000F05F04460025206846692068D0F804903F
:1008E000206887682068D0F80CA02068D0F810B085
:1008F0002068D0F8188006F00100002855D007F0D5
:100900000100C0B101202168886007F0020018B121
:10091000204600F00AFC0EE007F0040010B145F498
:10092000006508E007F0080010B145F4805502E0CA
:10093000204600F0F9FB07F48070C8B14FF48070D6
:100940002168886007F4007018B1204600F0EFFBC2
:100950000EE007F4806010B145F4005508E007F49C
:10096000006010B145F4804502E0204600F0DEFB57
:1009700007F48030C8B14FF480302168886007F4F4
:10098000003018B1204600F0D4FB0EE007F48020C0
:1009900010B145F4004508E007F4002010B145F41B
:1009A000803502E0204600F0C3FB06F0080038B1B5
:1009B0000AF0100020B145F4007510202168C860CD
:1009C00006F0040040B10AF0080028B108202168B0
:1009D000C860204600F00EFA06F0020038B1206828
:1009E000C06800F0030010B1204600F005FA06F0E0
:1009F000400038B10BF0100020B145F480651020A4
:100A00002168086106F0200040B10BF0080028B111
:100A1000082021680861204600F054FB06F0100011
:100A200038B12068006900F0030010B1204600F0E2
:100A30004AFB06F4003040B109F0100028B1102044
:100A400021684860204600F03FFB06F4803040B14A
:100A500009F0080028B1082021684860204600F00D
:100A600069FB06F4004088B309F0040078B306F48B
:100A7000807020B108F0010008B145F0010506F4CE
:100A8000007020B108F0020008B145F0020506F43C
:100A9000806020B108F0040008B145F0040506F4B8
:100AA0000060A0B108F0700088B108F07000402824
:100AB00017D006DC10280BD020280CD0302819D1F4
:100AC0000CE0502810D0602814D110E01DE019E08F
:100AD00045F008050FE045F010050CE045F0200555
:100AE00009E045F0400506E045F0800503E045F4E7
:100AF000807500E000BF00BF2068806920F07000B2
:100B0000216888610420216848602DB1606A28430B
:100B100060622046FFF710FEBDE8F09F70B5044606
:100B20000CB9012070BD94F8200010B9204600F0E7
:100B3000AFF82068006840F001002168086000F00C
:100B400067FE05460DE000F063FE401B0A2808D949
:100B5000606A40F400306062052084F820000120C3
:100B6000E0E72068406800F001000028EBD0206832
:100B7000006820F002002168086000F049FE054688
:100B80000DE000F045FE401B0A2808D9606A40F4D9
:100B900000306062052084F820000120C2E7206850
:100BA000406800F002000028EBD1207E012806D129
:100BB0002068006840F080002168086005E0206837
:100BC000006820F0800021680860607E012806D15E
:100BD0002068006840F040002168086005E0206857
:100BE000006820F0400021680860A07E012806D13E
:100BF0002068006840F020002168086005E0206857
:100C0000006820F0200021680860E07E012806D1FD
:100C10002068006820F010002168086005E0206866
:100C2000006840F0100021680860207F012806D18C
:100C30002068006840F008002168086005E020682E
:100C4000006820F0080021680860607F012806D154
:100C50002068006840F004002168086005E0206812
:100C6000006820F0040021680860D4E9020108430C
:100C700021690843616908436168491E0843216886
:100C8000C86100206062012084F82000002049E74C
:100C900010B586B00446142101A8FFF76EFB4F493A
:100CA0002068884241D14E480068401C4C49086089
:100CB0000846006801280FD100BF00200090494875
:100CC000006840F00070474908600846006800F07E
:100CD0000070009000BF00BF00BF0020009041489E
:100CE0001038006840F008003E4910390860084696
:100CF000006800F00800009000BF00BF03200190D2
:100D00000220029000200390032004900920059007
:100D100001A9354800F06EFC00221146142000F0B5
:100D20007FFF142000F068FF55E0304920688842BA
:100D300051D100BF002000902A48006840F0806038
:100D4000284908600846006800F08060009000BFF5
:100D500000BF23480068401C21490860084600681D
:100D600001280FD100BF002000901E48006840F00D
:100D700000701C4908600846006800F00070009090
:100D800000BF00BF00BF0020009016481038006868
:100D900040F002001349103908600846006800F06E
:100DA0000200009000BF00BF4FF4405001900220AD
:100DB000029000200390032004900920059001A9CF
:100DC0000B4800F017FC00221146402000F028FFDD
:100DD000402000F011FF06B010BD0000006400408C
:100DE0000000002040380240000C02400068004033
:100DF000000402407047000010B58AB00446A949BB
:100E0000206888427ED101AB03AA0021A648FFF7E3
:100E100094FC0398A0F201200A284FD2DFE800F0EA
:100E2000050607084E4E4E4E4F7300BF00BF00BF71
:100E30000398401E9D4908700846007800EB80002A
:100E40009B4931F8100000B29849097801EB810103
:100E5000974A02EB410108819DF805009DF80410B6
:100E600040EA01209149097801EB810122F8110043
:100E70009DF807009DF8061040EA012000B28B495A
:100E8000097801EB810102EB410148809DF80900DE
:100E90009DF8081040EA012000B28449097801EB6E
:100EA000810102EB410188809DF80A007F490978A1
:100EB00001EB810102EB4101887147E046E07D488A
:100EC000008800B27B4908819DF805009DF8041058
:100ED00040EA0120774908809DF807009DF8061038
:100EE00040EA012000B2734948809DF809009DF84E
:100EF000081040EA012000B26E4988809DF80A007F
:100F0000887123E024E06B48408901B2694841823E
:100F10009DF805009DF8041040EA012065494881CC
:100F20009DF807009DF8061040EA012001B26148D3
:100F300081819DF809009DF8081040EA012001B266
:100F40005C48C1819DF80A10017400BF00BF00BF5A
:100F50005949206888427CD101AB03AA0021574837
:100F6000FFF7EBFB0398A0F2052006284DD2DFE83F
:100F700000F0030405064D7100BF00BF00BF0398D9
:100F8000401E4F4908700846007800EB8000484931
:100F900031F8100000B24A49097801EB8101444A56
:100FA00002EB410108819DF805009DF8041040EA1C
:100FB00001204349097801EB810122F811009DF8D5
:100FC00007009DF8061040EA012000B23C4909786C
:100FD00001EB810102EB410148809DF809009DF879
:100FE000081040EA012000B23549097801EB81017F
:100FF00002EB410188809DF80A003149097801EB34
:10100000810102EB4101887147E046E029480088F0
:1010100000B2284908819DF805009DF8041040EAB7
:101020000120244908809DF807009DF8061040EA39
:10103000012000B21F4948809DF809009DF8081062
:1010400040EA012000B21B4988809DF80A0088719F
:1010500023E024E01748408901B2164841829DF8F8
:1010600005009DF8041040EA0120124948819DF8CE
:1010700007009DF8061040EA012001B20D48818169
:101080009DF809009DF8081040EA012001B20948C6
:10109000C1819DF80A10017400BF00BF00BF0AB0F3
:1010A00010BD00000064004058080020240000200B
:1010B000DC0B0020360C0020006800408008002077
:1010C0002500002070477047704770B5044694F8BB
:1010D0002000012822D1022084F820002068006826
:1010E00020F001002168086000F092FB05460DE049
:1010F00000F08EFB401B0A2808D9606A40F40030DB
:101100006062052084F82000012070BD20684068DE
:1011100000F001000028EBD16062F6E7606A40F45D
:10112000002060620120F0E7704770477047704709
:1011300070477047704770B50446A56D00F068FBB6
:10114000064694F83500022808D08020606500BF6C
:10115000002084F8340000BF012070BD20680068C2
:1011600020F01600216808602068406920F08000A7
:1011700021684861206C08B9A06C28B1206800681B
:1011800020F00800216808602068006820F0010055
:101190002168086010E000F03BFB801B05280BD99C
:1011A00020206065032084F8350000BF002084F80B
:1011B000340000BF0320D0E72068006800F0010081
:1011C0000028E8D194F85C103F208840A8600120F6
:1011D00084F8350000BF002084F8340000BF00BF51
:1011E000BBE7014691F83500022803D0802048650E
:1011F00001207047052081F835000868006820F05C
:1012000001000A6810600020F3E70000F8B504460A
:10121000002000908C4800684FF41651B0FBF1F7A5
:10122000A56D2E6894F85C1008208840304098B175
:101230002068006800F0040070B12068006820F0A9
:1012400004002168086094F85C1008208840A860B9
:10125000606D40F00100606594F85C1001208840EA
:10126000304068B12068406900F0800040B194F8D7
:101270005C1001208840A860606D40F0020060654D
:1012800094F85C1004208840304068B12068006801
:1012900000F0020040B194F85C1004208840A8607F
:1012A000606D40F00400606594F85C101020884088
:1012B000304078B32068006800F0080050B394F81C
:1012C0005C1010208840A8602068006800F480202E
:1012D00080B12068006800F4002028B9206CC8B1F3
:1012E0002046216C884715E0A06C98B12046A16C7F
:1012F00088470FE02068006800F4807028B92068F3
:10130000006820F0080021680860206C10B12046B9
:10131000216C884794F85C102020884030400028D9
:1013200065D02068006800F0100000285FD094F8B5
:101330005C1020208840A86094F83500052828D14A
:101340002068006820F01600216808602068406965
:1013500020F0800021684861206C08B9A06C28B199
:101360002068006820F008002168086094F85C108C
:101370003F208840A860012084F8350000BF00208D
:1013800084F8340000BF206D10B12046216D8847DD
:10139000F8BD2068006800F4802080B120680068F3
:1013A00000F4002028B9606C10B12046616C8847B9
:1013B0001DE0E06BD8B12046E16B884717E020685C
:1013C000006800F4807068B92068006820F01000A0
:1013D00021680860012084F8350000BF002084F8EF
:1013E000340000BFE06B10B12046E16B8847606DB0
:1013F00038B3606D00F00100F0B1052084F83500CD
:101400002068006820F001002168086000BF009893
:10141000401C0090B84200D905E02068006800F048
:1014200001000028F3D100BF012084F8350000BF7F
:10143000002084F8340000BFE06C10B12046E16C5D
:10144000884700BFA4E70000100000202DE9F0410C
:101450000446002500F0DCF9074614B90120BDE878
:10146000F081606A00B100BF022084F8350000BF3F
:10147000002084F8340000BF2068006820F00100DC
:10148000216808600AE000F0C3F9C01B052805D9EF
:1014900020206065032084F83500E0E720680068BC
:1014A00000F001000028EED12068056821480540C1
:1014B000D4E901010843E1680843216908436169EF
:1014C0000843A1690843E1690843216A08430543C9
:1014D000606A042803D1D4E90B010843054320685E
:1014E00005602068456925F00705606A0543606A64
:1014F00004280DD1A06A0543E06A48B1204603F0F4
:10150000E5F828B140206065012084F83500A6E7A1
:1015100020684561204603F02FF9064694F85C10D8
:101520003F208840B06000206065012084F83500CD
:10153000002094E73F8010F02DE9F04704460D4667
:1015400016461F464FF00008D4F8589000BF94F894
:101550003400012802D10220BDE8F087012084F880
:10156000340000BF94F83500012825D1022084F80A
:101570003500002060653B4632462946204603F090
:101580008FF894F85C103F208840C9F80800206864
:10159000006840F0160021680860206C28B12068BF
:1015A000006840F00800216808602068006840F08A
:1015B00001002168086006E000BF002084F83400C4
:1015C00000BF4FF002084046C6E7000070B5044671
:1015D00000F01EF906462546681C10B10448007844
:1015E000054400BF00F014F9801BA842FAD370BD77
:1015F0000C000020F8B502460B4600250024002010
:101600000021E0E0012606FA01F51E6806EA05045D
:10161000AC4274D11E7906F00306012E04D01E7967
:1016200006F00306022E13D190684F000326BE4039
:10163000B0434F00DE68BE403043906050680126E2
:101640008E40B0431E79C6F300168E403043506082
:101650001E7906F00306032E09D0D0684F0003263A
:10166000BE40B0434F009E68BE403043D0601E79FC
:1016700006F00306022E13D1CF0802F1200656F819
:1016800027004E07F70E0F26BE40B0434F07FF0E50
:101690001E69BE403043CF0802F1200646F82700FD
:1016A00010684F000326BE40B0431E7906F00306C3
:1016B0004F00BE40304310605E6806F44036002E96
:1016C0001DD000BF00260096414E366846F4804685
:1016D0003F4F3E603E46366806F48046009600BFA7
:1016E00000BF3C4E8F0856F827008E07370F0F2695
:1016F000BE40B043384EB24202D100262EE061E037
:10170000364EB24201D1012628E0354EB24201D117
:10171000022623E0334EB24201D103261EE0324EB0
:10172000B24201D1042619E0304EB24201D1052661
:1017300014E02F4EB24201D106260FE02D4EB242E8
:1017400001D107260AE02C4EB24201D1082605E05D
:101750002A4EB24201D1092600E00A268F073F0F28
:10176000BE4030431B4E8F0846F82700244E306899
:10177000A0435E6806F4801606B12043204E306018
:10178000361D3068A0435E6806F4001606B120439B
:101790001B4E361D30601A4E361F3068A0435E68FF
:1017A00006F4003606B12043154E361F3060361F52
:1017B0003068A0435E6806F4803606B12043104EC0
:1017C000083E3060491C1029FFF41CAFF8BD000032
:1017D0004438024008380140000002400004024042
:1017E00000080240000C02400010024000140240B9
:1017F00000180240001C0240002002400024024069
:10180000083C01400AB1816101E00B04836170472B
:10181000014800687047000004000020024692F86A
:101820003D0020281ED1242082F83D001068006869
:1018300020F00100136818601068406A20F0100062
:10184000136858621068406A084313685862106849
:10185000006840F0010013681860202082F83D0005
:10186000002070470220FCE710B502460B4600211D
:1018700092F83D0020281DD1242082F83D001068F8
:10188000006820F00100146820601068406A81B28E
:1018900021F00F0141EA030081B210684162106833
:1018A000006840F0010014682060202082F83D00AC
:1018B000002010BD0220FCE770B504460CB90120E1
:1018C00070BD94F83D0028B9002084F83C00204603
:1018D00000F0DAF8242084F83D002068006820F049
:1018E0000100216808602068006840F40040216819
:1018F00008602068006820F400402168086000F05B
:10190000EFFA05465C496068884206D85B48854224
:1019100001D2012007E0002005E05948854201D2AC
:10192000012000E00020012800D1C9E75548B5FB9F
:10193000F0F62068406820F03F003043216848609E
:101940004D496068884201D8701C07E04FF49670DA
:1019500070434FF47A71B0FBF1F0401C2168096AC2
:1019600021F03F01084321680862434960688842CA
:1019700014D8681E61684900B0FBF1F0401CC0F348
:101980000B00042801D204203DE0681E6168490074
:10199000B0FBF1F0401CC0F30B0034E0A06838B994
:1019A000681E616801EB4101B0FBF1F0401C0AE0E8
:1019B000681E616801EBC10202EB0111B0FBF1F09E
:1019C000401C40F48040C0F30B0008B901201AE02D
:1019D000A06848B9681E616801EB4101B0FBF1F0F5
:1019E000401CC0F30B000CE0681E616801EBC102F3
:1019F00002EB0111B0FBF1F0401CC0F30B0040F40E
:101A0000804040F400402168C9694CF6FF72914360
:101A100008432168C861D4E90701084321680968BF
:101A200021F0C001084321680860D4E9031008438D
:101A30002168896848F2FF32914308432168886031
:101A4000D4E9050108432168C96821F0FF01084372
:101A50002168C8602068006840F0010021680860C3
:101A600000202064202084F83D000020206384F8BA
:101A70003E0000BF24E70000A086010080841E0015
:101A800000093D0040420F0010B586B00446142105
:101A900001A8FEF772FC1B49206888422FD100BFC5
:101AA000002000901848006840F0200016490860A7
:101AB0000846006800F02000009000BF00BF03202F
:101AC0000190122002900020039003200490042033
:101AD000059001A90D48FFF78DFD00BF0020009083
:101AE00009481030006840F4800007491031086050
:101AF0000846006800F48000009000BF00BF06B0F8
:101B000010BD000000580040303802400014024070
:101B10000348006803490978084401490860704790
:101B2000040000200C00002010B50D48006840F4AF
:101B300000700B4908600846006840F48060086047
:101B40000846006840F480700860032000F0A6F8A2
:101B50000F2000F007F800F02BF8002010BD000067
:101B6000003C024070B504460E4800784FF47A718C
:101B7000B1FBF0F00C490968B1FBF0F5284600F024
:101B80001DFD08B1012070BD102C07D20022214696
:101B9000501E00F045F80548046001E00120F2E71E
:101BA0000020F0E70C0000201000002008000020BA
:101BB00008B500BF002000900E48006840F4804047
:101BC0000C4908600846006800F48040009000BF9F
:101BD00000BF00BF00200090081F006840F0805048
:101BE000091F08600846006800F08050009000BFA0
:101BF00000BF08BD443802400146084600280DDBFE
:101C000000BF00BF00F01F0301229A4043099B0060
:101C100003F1E023C3F8002100BF00BF00BF7047FD
:101C20002DE9F05F80460D461646002703F05CF96B
:101C3000074639462A46334601F00700C0F1070A35
:101C4000BAF1040F02D94FF0040A01E0C0F1070A0B
:101C5000D14600F1040ABAF1070F02D24FF0000A90
:101C600001E0A0F1030AD4464FF0010A0AFA09FA8A
:101C7000AAF1010A0AEA020A0AFA0CFA4FF0010B69
:101C80000BFA0CFBABF1010B0BEA030B4AEA0B045A
:101C90002146404603F014F9BDE8F09F00BF00F074
:101CA0000702064B19684FF6FF031940044B0B431C
:101CB00043EA0221014B196000BF70470CED00E0C0
:101CC0000000FA0538B5002400BF002000901D4830
:101CD000006840F080501B4908600846006800F02A
:101CE0008050009000BF00BF012017490864FFF733
:101CF0008FFD044607E0FFF78BFD001BB0F57A7FF0
:101D000001D9032038BD1148406800F48030B0F597
:101D1000803FF0D101200C494864FFF779FD04466B
:101D200007E0FFF775FD001BB0F57A7F01D90320AE
:101D3000E8E70648406800F40030B0F5003FF0D115
:101D40000020DFE74038024000000E4200700040F3
:101D500070B504460D460CB9012070BD58480068A6
:101D600000F00F00A84209D255490D7008460068DE
:101D700000F00F00A84201D00120EEE7207800F02B
:101D8000020002281DD1207800F00400042805D1AB
:101D90004C48006840F4E0504A490860207800F060
:101DA0000800082805D14748006840F460404549CC
:101DB00008604448006820F0F000A16808434149E9
:101DC0000860207800F00100A8B36068012807D1FE
:101DD0003C4808380068C0F34040B8B90120BCE76F
:101DE0006068022802D06068032807D135480838A7
:101DF0000068C0F3406048B90120AEE731480838B8
:101E00000068C0F3400008B90120A6E72D4800682B
:101E100020F00300616808432A490860FFF7F8FCD6
:101E2000064609E0FFF7F4FC801B41F28831884246
:101E300002D9032091E707E02248006800F00C0077
:101E40006168B0EB810FEDD11D48006800F00F0014
:101E5000A84209D91A490D700846006800F00F0021
:101E6000A84201D0012078E7207800F0040004287F
:101E700007D11448006820F4E050E1680843114994
:101E80000860207800F00800082808D10D48006894
:101E900020F46040216940EAC1000A49086000F06E
:101EA0003FF808490968C1F30311074A515CC8406B
:101EB0000649086006480068FFF754FE00204CE71A
:101EC000003C0240083802408E4F000810000020FD
:101ED0000800002001480068704700001000002042
:101EE00000B5FFF7F7FF04490968C1F38221034AEF
:101EF000515CC84000BD0000083802409E4F0008F9
:101F000000B5FFF7E7FF04490968C1F34231034A0E
:101F1000515CC84000BD0000083802409E4F0008D8
:101F20002DE9F047002400250026A1462548006839
:101F300000F00C0020B1042805D008283AD105E0B3
:101F4000DFF8849039E0DFF8849036E01D48001F08
:101F5000006800F03F041B48001F006800F4800088
:101F600078B11A481749091F0968C1F38811A0FB05
:101F700001700146224600233846FEF787F90546E0
:101F80000EE011480F49091F0968C1F38811A0FB31
:101F900001700146224600233846FEF777F90546D0
:101FA0000848001F0068C0F30140401C4600B5FB14
:101FB000F6F902E0DFF8109000BF00BF4846BDE828
:101FC000F0870000083802400024F400001BB7002E
:101FD000F8B504460CB90120F8BD207800F00100E6
:101FE000002874D0F948006800F00C0004280DD0D7
:101FF000F648006800F00C00082813D1F348001FD1
:10200000006800F48000B0F5800F0BD1EF4808386D
:102010000068C0F34040002859D06068002856D1BD
:102020000120D9E700BF6068B0F5803F08D1E748DC
:102030000838006840F48030E449083908601EE040
:102040006068B0F5A02F0DD1E0480838006840F472
:102050008020DE49083908600846006840F4803076
:1020600008600CE0D9480838006820F48030D7496F
:10207000083908600846006820F48020086000BF26
:10208000606890B1FFF7C4FB054606E0FFF7C0FBB0
:10209000401B642801D903209EE7CC48083800681B
:1020A000C0F340400028F1D011E0FFF7B1FB054636
:1020B00006E0FFF7ADFB401B642801D903208BE746
:1020C000C24808380068C0F340400028F1D12078A9
:1020D00000F0020002285FD1BC48006800F00C004C
:1020E00058B1BA48006800F00C0008281CD1B74865
:1020F000001F006800F48000B0B9B44808380068D8
:10210000C0F3400020B1E068012801D0012063E75E
:10211000AE480838006820F0F800216940EAC100A4
:10212000AA490839086037E0E06800B30120A849EF
:102130000860FFF76DFB054606E0FFF769FB401BF3
:10214000022801D9032047E7A04808380068C0F3F7
:1021500040000028F1D09D480838006820F0F800C1
:10216000216940EAC10099490839086014E000205B
:1021700097490860FFF74CFB054606E0FFF748FB70
:10218000401B022801D9032026E790480838006840
:10219000C0F340000028F1D1207800F008000828A2
:1021A0002CD16069A8B101208A490860FFF730FB93
:1021B000054606E0FFF72CFB401B022801D903204F
:1021C0000AE782486C300068C0F340000028F1D074
:1021D00014E000207F490860FFF71AFB054606E07F
:1021E000FFF716FB401B022801D90320F4E67748CD
:1021F0006C300068C0F340000028F1D1207800F076
:102200000400042870D1002770483830006800F0BE
:10221000805090B900BF002000906C4838300068B2
:1022200040F080506949383108600846006800F085
:102230008050009000BF00BF01276748006800F48D
:102240008070B0B96448006840F4807062490860EA
:10225000FFF7DEFA054606E0FFF7DAFA401B022830
:1022600001D90320B8E65C48006800F480700028BB
:10227000F2D000BFA068012808D154486830006837
:1022800040F001005149683108601DE0A068052850
:102290000DD14E486830006840F004004B49683169
:1022A00008600846006840F0010008600CE04748FC
:1022B0006830006820F00100444968310860084631
:1022C000006820F00400086000BFA068A8B1FFF714
:1022D0009FFA054609E0FFF79BFA401B41F288315F
:1022E000884202D9032077E626E038486830006843
:1022F000C0F340000028EED013E0FFF789FA05464E
:1023000008E0FFF785FA401B41F28831884201D985
:10231000032061E62D4868300068C0F340000028C3
:10232000EFD1012F07D129483830006820F08050C4
:1023300026493831086000BFA069002845D02348ED
:10234000006800F00C0008285DD0A069022845D183
:1023500000201F490866FFF75BFA054606E0FFF715
:1023600057FA401B022801D9032035E617480838E0
:102370000068C0F340600028F1D1D4E907010843A8
:10238000616A40EA81110122A06AC2EB500041EA71
:1023900000412C20005D41EA00600C49091F0860E3
:1023A00001200B490866FFF733FA054606E0FFF700
:1023B0002FFA401B022801D903200DE603480838F4
:1023C0000068C0F340600028F1D049E008380240BE
:1023D00000004742800E4742007000400020214923
:1023E0000866FFF715FA054606E0FFF711FA401BED
:1023F000022801D90320EFE51B480068C0F34060C4
:102400000028F2D12CE0A069012800D1E4E51648AB
:10241000001D0668A069012820D006F48001E0694B
:1024200081421BD106F03F01206A814216D147F656
:10243000C0703040616AB0EB811F0FD106F44031AB
:102440000122A06AC2EB5000B1EB004F06D106F0AA
:1024500070612C20005DB1EB006F01D00120BBE565
:102460000020B9E5000047420038024010B504469C
:102470000CB9012010BD606A38B96068B0F5827F80
:1024800000D105E00021E16102E0002121616161EC
:102490000021A16294F8510028B9002084F850006E
:1024A000204600F047F8022084F8510020680068B8
:1024B00020F0400021680860A08800F48270218923
:1024C00001F404410843A18901F400610843217C1F
:1024D00001F002010843217D01F001010843218B35
:1024E00001F400710843217F01F0380108432021E5
:1024F000095D01F080010843218D01F4005108437A
:10250000216808600421A06901EA104094F82410B1
:1025100001F010010843216848602068C06920F478
:1025200000602168C86100206065012084F85100C6
:1025300000209FE710B586B00446142101A8FDF7DE
:102540001CFF1B492068884230D100BF002000904A
:102550001848006840F400501649086008460068B2
:1025600000F40050009000BF00BF00BF00200090AA
:1025700010481438006840F010000E491439086003
:102580000846006800F01000009000BF00BF4FF444
:1025900083500190022002900020039003200490B9
:1025A0000520059001A90448FFF724F806B010BDE6
:1025B00000340140443802400010024070B5044627
:1025C0002546681EB0F1807F01D301200FE0681E10
:1025D0004FF0E02148610F214FF0FF3002F070FC16
:1025E00000204FF0E021886107200861002070BDC5
:1025F00030B502460B4600BF92F83C00012801D1DD
:10260000022030BD012082F83C0000BF022082F889
:102610003D00106844681068816824F070041868F0
:10262000044310684460184D1068A8421BD010681D
:10263000B0F1804F17D0154D1068A84213D0144D3B
:102640001068A8420FD0134D1068A8420BD0124D4D
:102650001068A84207D0114D1068A84203D0104D51
:102660001068A84205D121F0800158680143106824
:102670008160012082F83D0000BF002082F83C000C
:1026800000BF00BFBDE700000000014000040040A3
:1026900000080040000C00400004014000400140E0
:1026A0000018004010B504460CB9012010BD94F884
:1026B0003D0028B9002084F83C00204600F026F8B0
:1026C000022084F83D00211D206801F0DFF8012080
:1026D00084F8460000BF84F83E0001213F200155E8
:1026E000402001554120015500BF00BF012084F862
:1026F000420043200155442001554520015500BFAB
:10270000012084F83D000020D0E7000010B586B01D
:102710000446142101A8FDF730FE2068B0F1804F77
:102720002ED100BF002000901648006840F0010044
:10273000144908600846006800F00100009000BFDE
:1027400000BF00BF002000900E481038006840F025
:1027500001000C49103908600846006800F00100CB
:10276000009000BF00BF06200190022002900020D0
:10277000039004900120059001A90348FEF73AFF59
:1027800006B010BD40380240000002402DE9F04183
:1027900004460D46002700BF94F83C00012802D1F2
:1027A0000220BDE8F081012084F83C0000BF022037
:1027B00084F83D002068866826F0770626F47F4678
:1027C000206886602868502833D00CDC202850D040
:1027D00004DC00284BD0102851D149E0302849D0E2
:1027E00040284CD139E060282DD0702807D0B0F5B2
:1027F000805F03D0B0F5005F41D10DE041E0D5E945
:1028000002136A68206801F0C6F82068866846F0FE
:1028100077062068866034E0D5E902136A6820688C
:1028200001F0B9F82068806840F480402168886031
:1028300027E0EA686968206802F05FF850212068A4
:1028400002F052F81DE0EA686968206802F068F852
:102850006021206802F048F813E0EA68696820689F
:1028600002F04BF84021206802F03EF809E000BF7A
:1028700000BF00BF2968206802F036F801E0012798
:1028800000BF00BF012084F83D0000BF002084F895
:102890003C0000BF384684E710B586B004461421DA
:1028A00001A8FDF76AFD2068B0F1804F1DD100BF7F
:1028B000002000903E48006840F001003C4908605C
:1028C0000846006800F00100009000BF00BF012032
:1028D00001900220029000200390049001200590B6
:1028E00001A93448FEF786FE60E03349206888423B
:1028F0001ED100BF002000902D48006840F0080065
:102900002B4908600846006800F00800009000BFEE
:1029100000BF4FF44040019002200290002003903D
:1029200004900220059001A92448FEF763FE3DE0D3
:1029300023492068884239D100BF002000901C48FC
:10294000006840F480701A4908600846006800F486
:102950008070009000BF00BF00BF002000900846BC
:10296000006840F0800008600846006800F08000C1
:10297000009000BF00BF01200190022002900020C3
:10298000039004900220059001A90E48FEF732FE44
:102990004FF4E05001900220029000200390049038
:1029A0000220059001A90848FEF724FE06B010BDDC
:1029B000303802400000024000080040000C024095
:1029C000000C004000200240001C02402DE9F041B4
:1029D00004460D461646002700BF94F83C00012827
:1029E00002D10220BDE8F081012084F83C0000BF44
:1029F00036B1042E1BD0082E31D00C2E5ED145E00E
:102A00002946206801F0D2FE2068806940F0080065
:102A1000216888612068806920F00400216888614D
:102A200020688069296908432168886148E029464F
:102A3000206800F0BBFF2068806940F400602168D6
:102A400088612068806920F480602168886120683E
:102A50008069296940EA01202168886130E02946BF
:102A6000206801F0DBFE2068C06940F008002168A2
:102A7000C8612068C06920F004002168C86120682E
:102A8000C069296908432168C86119E0294620689E
:102A900001F000FF2068C06940F400602168C8614F
:102AA0002068C06920F480602168C8612068C0691E
:102AB000296940EA01202168C86101E0012700BFBF
:102AC00000BF00BF002084F83C0000BF384689E703
:102AD00010B504460CB9012010BD94F83D0028B98A
:102AE000002084F83C00204600F026F8022084F8FC
:102AF0003D00211D206800F0C9FE012084F8460039
:102B000000BF84F83E0001213F20015540200155BF
:102B10004120015500BF00BF012084F8420043203E
:102B20000155442001554520015500BF012084F87E
:102B30003D000020D0E7000008B5144A016891422A
:102B40000FD100BF002100911149096841F0040133
:102B50000F4A11601146096801F00401009100BF9D
:102B600013E00C4A016891420FD100BF002100918F
:102B70000749096841F00801054A116011460968D2
:102B800001F00801009100BF00BF08BD000800402F
:102B900040380240000C004070B504460D4615B99F
:102BA00094F83E000BE0042D02D13F20005D06E0CA
:102BB000082D02D14020005D01E04120005D012888
:102BC00001D0012070BD1DB9022084F83E000EE046
:102BD000042D03D102213F20015508E0082D03D127
:102BE00002214020015502E002214120015501222D
:102BF0002946206800F0BEFE23492068884203D0A1
:102C000022492068884201D1012000E0002028B13B
:102C10002068406C40F40040216848641A492068EC
:102C200088421BD02068B0F1804F17D01849206827
:102C3000884213D01749206888420FD0164920686F
:102C400088420BD011492068884207D01349206878
:102C5000884203D01249206888420CD120688068DD
:102C600000F00706062E0CD02068006840F0010036
:102C70002168086005E02068006840F001002168D4
:102C8000086000209EE700000000014000040140B1
:102C90000004004000080040000C004000400140DB
:102CA00000180040704770472DE9F84F044620682F
:102CB00005682068C668206847694FF00009CA4661
:102CC00005F00F09B9F1000F0AD105F0200038B165
:102CD00006F0200020B1204601F074FFBDE8F88F17
:102CE000B9F1000F7CD007F0010018B906F490701C
:102CF000002875D005F0010030B106F4807018B1DD
:102D0000606C40F00100606405F0040030B107F031
:102D1000010018B1606C40F00200606405F0020030
:102D200030B107F0010018B1606C40F0040060643D
:102D300005F0080048B106F0200010B907F00100C6
:102D400018B1606C40F008006064606C002846D0E8
:102D500005F0200028B106F0200010B1204601F057
:102D600031FF20684069C0F3801A606C00F00800F1
:102D700010B9BAF1000F2DD0204601F0E3FF206812
:102D8000406900F04000402820D100BF00BF21680A
:102D9000143151E8001F21F040002168143141E84E
:102DA0000002002AF3D100BFE06B50B17748E16B1D
:102DB0000865E06BFEF715FA88B1E06B016D884796
:102DC0000DE02046FFF76FFF09E009E02046FFF71E
:102DD0006AFF04E02046FFF766FF002060647DE79D
:102DE000206B012878D105F01000002874D006F07F
:102DF00010000028FAD000BF002000902068006872
:102E0000009020684068009000BF00BF20684069C3
:102E100000F04000402860D1E06B006840681FFA75
:102E200080F8B8F1000F56D0A08D404553DDA4F8CE
:102E30002E80E06BC069B0F5807F43D000BF00BF3B
:102E400021680C3151E8001F21F4807021680C3199
:102E500041E80002002AF3D100BF00BF00BF216893
:102E6000143151E8001F21F001002168143141E8BC
:102E70000002002AF3D100BF00BF00BF2168143157
:102E800051E8001F21F040002168143141E80002A0
:102E9000002AF3D100BF202084F8420000202063E4
:102EA00000BF00BF21680C3151E8001F21F0100065
:102EB00021680C3141E80002002AF3D100BFE06B29
:102EC000FEF739F902206063A08DE28D801A81B28D
:102ED0002046FFF7E7FE01E742E0A08DE18D401AB2
:102EE0001FFA80F8E08DD0B3B8F1000F37D000BFE3
:102EF00000BF21680C3151E8001F21F49070216857
:102F00000C3141E80002002AF3D100BF00BF00BF2E
:102F10002168143151E8001F21F0010021681431AB
:102F200041E80002002AF3D100BF202084F84200CB
:102F30000020206300BF00BF21680C3151E8001F52
:102F400021F0100021680C3141E80002002AF3D181
:102F500000BF0220606341462046FFF7A3FEBDE6A6
:102F600005F0800030B106F0800018B1204601F075
:102F7000A7FEB3E605F0400030B106F0400018B1FE
:102F8000204601F082FFA9E600BFA7E6AB4E00088D
:102F900010B504460CB9012010BDA06900B100E0D5
:102FA00000BF94F8410028B9002084F84000204672
:102FB00000F02AF8242084F841002068C06820F43A
:102FC00000502168C860204601F0E6FC20680069D6
:102FD00020F49040216808612068406920F02A00B0
:102FE000216848612068C06840F400502168C860CA
:102FF00000206064202084F8410084F84200002012
:10300000606300BFC8E7000010B586B00446142115
:1030100001A8FDF7B2F97049206888425FD100BF6E
:10302000002000906D48006840F010006B49086077
:103030000846006800F01000009000BF00BF00BF0D
:103040000020009065481438006840F00200634991
:10305000143908600846006800F00200009000BFC4
:1030600000BFC020019002200290002003900320A6
:1030700004900720059001A95948FEF7BBFA59486A
:10308000594908604FF0006048600021564881604F
:10309000C1604FF4806101610021416181614FF4A1
:1030A0008071C1614FF4403101620421416203210A
:1030B00081620021C1620163FEF7C8F908B1FDF722
:1030C000ECF900BF4848E063846300BF002211466A
:1030D0002520FEF7A5FD2520FEF78EFD79E043496A
:1030E0002068884275D100BF002000903B48001F37
:1030F000006840F400303949091F0860084600683C
:1031000000F40030009000BF00BF00BF002000901E
:1031100032481438006840F008003049143908601B
:103120000846006800F00800009000BF00BF602063
:1031300001900220029000200390032004900720B9
:10314000059001A92A48FEF755FA2A482A4908603D
:103150004FF000604860002127488160C1604FF453
:1031600080610161002141618161C161016241624F
:10317000FEF76CF908B1FDF790F900BF1E48E06357
:10318000846300BF1B4818301C4908604FF0006082
:1031900048604021194881600021C1604FF480617E
:1031A0000161002141618161C16101624162FEF7FB
:1031B0004DF908B1FDF771F900BF1048A0638463B1
:1031C00000BF002211462620FEF72AFD2620FEF72A
:1031D00013FD06B010BD000000100140443802404D
:1031E0000004024088640240BC0A00200044004001
:1031F000000C0240886002401C0B00207C0B002069
:1032000070B504460D46164694F8420020280BD1AE
:1032100005B10EB9012070BD002020633246294659
:10322000204600F001FCF6E70220F4E710B5044662
:1032300003492068884201D101F056F810BD000012
:10324000001001407047704700BFFEE710B50D4801
:103250000D4908600920486000210B488160C16069
:103260004FF480310161090141610021017641760D
:103270008176C17601774177FDF750FC08B1FDF703
:103280000CF910BD006400405808002010B50D482E
:103290000D4908600920486000210B488160C16029
:1032A0004FF48031016109014161002101764176CD
:1032B0008176C17601774177FDF730FC08B1FDF7E3
:1032C000ECF810BD006800408008002008B500BF81
:1032D000002000901A48006840F400101849086067
:1032E0000846006800F40010009000BF00BF00BF57
:1032F000002000900846006840F4800008600846FE
:10330000006800F48000009000BF00BF002211465A
:103310001020FEF785FC1020FEF76EFC00221146FF
:103320001120FEF77DFC1120FEF766FC00221146FD
:103330004420FEF775FC4420FEF75EFC08BD00004B
:103340003038024000B587B0142102A8FDF715F807
:1033500000BF002001908148006840F001007F49D3
:1033600008600846006800F00100019000BF00BF3F
:1033700000BF002001900846006840F0100008607F
:103380000846006800F01000019000BF00BF00BFB9
:10339000002001900846006840F0020008600846DE
:1033A000006800F00200019000BF00BF00BF0020D5
:1033B00001900846006840F0080008600846006870
:1033C00000F00800019000BF00BF00BF0020019086
:1033D0000846006840F0040008600846006800F0F5
:1033E0000400019000BF00BF00BF0020019008460C
:1033F000006840F0200008600846006800F02000E7
:10340000019000BF00BF00BF002001900846006887
:1034100040F4807008600846006800F480700190F5
:1034200000BF00BF00BF002001900846006840F0C8
:10343000800008600846006800F08000019000BF2E
:1034400000BF00BF002001900846006840F0400027
:1034500008600846006800F04000019000BF00BF0F
:1034600000222C213E48FEF7CDF9012210213C48D4
:10347000FEF7C8F900224FF4FF713A48FEF7C2F98F
:10348000012208213848FEF7BDF9012203213748FF
:10349000FEF7B8F93C200290012003900490002030
:1034A000059002A92E48FEF7A5F84FF4FE70029091
:1034B0000120039000200490059002A92948FEF7FE
:1034C00099F8042002904FF4881003900020049093
:1034D00002A92548FEF78EF80820029001200390EB
:1034E00004900220059002A91F48FEF783F80220ED
:1034F00002900120039004900020059002A9194831
:10350000FEF778F81020029000200390012004902C
:1035100002A91548FEF76EF8202002904FF488109B
:1035200003900020049002A91148FEF763F80220DE
:1035300002900120039004900220059002A90B48FC
:10354000FEF758F8012002900390002004900590A7
:1035500002A90648FEF74EF807B000BD3038024019
:10356000001C024000180240000802400004024013
:103570000000024010B51248124908601248486025
:10358000002110488160C1604FF480410161002139
:1035900041618161C1610162FEF78EF908B1FCF7FA
:1035A0007CFF00210748FEF739F908B1FCF775FFE9
:1035B00000210448FEF758F908B1FCF76EFF10BD72
:1035C00000580040A8080020A086010010B50E4851
:1035D0000E4908604FF48270486000210B488160FA
:1035E000C160016141614FF4007181611821C161C5
:1035F00000210162416281620A21C162FEF736FF49
:1036000008B1FCF74AFF10BD00340140FC0800205F
:1036100000B58DB0002009900A900B900C90079097
:1036200008901C216846FCF7A8FE4FF08040204916
:103630000860B320486000211D4881604FF4FA61A2
:10364000C1600021016180218161FFF72BF808B181
:10365000FCF723FF4FF48050099009A91448FFF7A5
:1036600095F808B1FCF719FF1148FFF731FA08B1D6
:10367000FCF713FF00200790089007A90C48FEF7FD
:10368000B7FF08B1FCF709FF60200090002001900F
:1036900002900490002269460548FFF797F908B1A7
:1036A000FCF7FBFE0248FFF7F7F80DB000BD000085
:1036B0005409002000B589B00020079008901C2113
:1036C0006846FCF75AFE1C481C49086053204860B5
:1036D00000211A48816044F61F61C1600021016128
:1036E00080218161FFF7F4F908B1FCF7D6FE0020D4
:1036F0000790089007A91148FEF77AFF08B1FCF778
:10370000CCFE6020009000200190029004900822DE
:1037100069460A48FFF75AF908B1FCF7BEFE0C22C9
:1037200069460648FFF752F908B1FCF7B6FE0348B0
:10373000FFF7B2F809B000BD000800409C09002066
:1037400000B589B00020079008901C216846FCF75E
:1037500014FE244824490860532048600021224870
:10376000816044F61F61C160002101618021816197
:10377000FFF7AEF908B1FCF790FE00200790089023
:1037800007A91948FEF734FF08B1FCF786FE602050
:103790000090002001900290049000226946124897
:1037A000FFF714F908B1FCF778FE042269460E48C9
:1037B000FFF70CF908B1FCF770FE082269460A48C9
:1037C000FFF704F908B1FCF768FE0C2269460648C9
:1037D000FFF7FCF808B1FCF760FE0348FFF75CF860
:1037E00009B000BD000C0040E409002010B50C48F1
:1037F0000C4908600C4848604FF4805109488160CA
:103800000021C1604FF48061016104214161002108
:103810008161C161FFF7BCFB08B1FCF73EFE10BD42
:10382000001001402C0A0020A086010010B50B48B2
:103830000B4908604FF4E13048600021084881607E
:10384000C16001610C21416100218161C161FFF70B
:103850009FFB08B1FCF721FE10BD000000440040B2
:10386000740A002000BFFEE700BFFEE77047704704
:1038700010B5FEF74DF910BD0348006840F4700024
:10388000014908607047000088ED00E010B502684B
:103890002D4B98420ED0B0F1804F0BD02B4B98425D
:1038A00008D02B4B984205D02A4B984202D02A4B85
:1038B000984203D122F070024B681A43224B98427F
:1038C00020D0B0F1804F1DD0204B98421AD0204B11
:1038D000984217D01F4B984214D01F4B984211D0DA
:1038E0001E4B98420ED01E4B98420BD01D4B984257
:1038F00008D01D4B984205D01C4B984202D01C4B5F
:10390000984203D122F44072CB681A4322F080031C
:103910004C6943EA040202608B68C3620B688362ED
:10392000094B984202D00C4B984201D10B690363BA
:1039300001234361036903F001031BB1036923F011
:103940000103036110BD00000000014000040040BD
:1039500000080040000C004000040140004001400D
:10396000004401400048014000180040001C004095
:103970000020004030B501F01F05012404FA05F3D2
:10398000046A9C430462046A01F01F0502FA05F50B
:103990002C43046230BD30B50C46816821F47F4170
:1039A00042EA032525432943816030BD30B5026AD0
:1039B000056A25F0100505624368846924F4E04433
:1039C00024F440740D6844EA052422F020028D6836
:1039D00042EA0512124DA84200D103E0114DA8425F
:1039E00007D100BF22F08002CD6842EA051222F022
:1039F00040020B4DA84202D00A4DA84209D123F43F
:103A0000806323F400634D6943EA85038D6943EACB
:103A10008503436084614D688563026230BD0000A8
:103A2000000001400004014077B581B0044615460E
:103A30000298A062A58500206064222084F84200DC
:103A40002848E16BC8632848E16B08642748E16BAC
:103A5000C8640020E16B086502AE32682368191D56
:103A60002B46E06BFDF768FD00BF0020009020684A
:103A70000068009020684068009000BF00BF206987
:103A800070B100BF00BF21680C3151E8001F41F444
:103A9000807021680C3141E80002002AF3D100BF98
:103AA00000BF00BF2168143151E8001F41F0010040
:103AB0002168143141E80002002AF3D100BF00BFA1
:103AC00000BF2168143151E8001F41F04000216817
:103AD000143141E80002002AF3D100BF002004B0F5
:103AE00070BD0000D74D0008214D0008494900086D
:103AF00010B50248FFF7D8F810BD00002C0A0020CE
:103B000010B50248FFF7D0F810BD0000740A00207D
:103B100000BFFEE7B0EE402A9FED180AF0EE401A13
:103B200032EE600AF0EE401AF5EEC01AF1EE10FA2D
:103B30000EDDF4EEC11AF1EE10FA04DD30EE810A6A
:103B4000F0EE400A16E030EEA10AF0EE400A11E075
:103B5000B1EE410AF4EEC01AF1EE10FA06D2B1EE5F
:103B6000410A30EE800AF0EE400A03E030EEA10A8E
:103B7000F0EE400AB0EE600A70470000000000005E
:103B800010B500210B48FFF707F804210948FFF79B
:103B900003F808210748FEF7FFFF0C210548FEF750
:103BA000FBFF08210448FEF7F7FF0C210248FEF74F
:103BB000F3FF10BDE40900209C09002070B5044605
:103BC00064251DE00120FDF701FD204600F0D0FA3C
:103BD000204600F0F9F99FED170A174880ED020A18
:103BE000B4F9B035B4F9F824B4F94014B4F9880341
:103BF00000F058F96D1E9FED110A0F4880ED030A81
:103C0000002DDFD19FED0E0A04F58A6080ED270AB2
:103C10009FED0B0A084880ED020A9FED090A04F5A2
:103C2000A16080ED270A9FED060A034880ED030A94
:103C300070BD00000000FA43AC0C00200000FAC385
:103C40000000000030B599B004460CB919B030BD81
:103C50007B49D1E900208968CDE916201891784A7E
:103C60000C32D2E900109268CDE914021391744A23
:103C7000183207CA10AB07C3714A2432D2E90010C8
:103C80009268CDE90E020D916D4A303207CA0AAB37
:103C900007C36B4A3C3207CA07AB07C3684A4832BE
:103CA000D2E900109268CDE905020491644A5432C9
:103CB000D2E900109268CDE902020191002529E0C5
:103CC000284600F0BBFBC5EBC50101EB051144F82C
:103CD0003100C5EBC50101EB051104EBC10101F198
:103CE0004C00DFED580A9FED580A10AA002100F0A1
:103CF000A7FCC5EBC50101EB051104EBC101081DD3
:103D0000DFED520AB0EE000A0DAA002100F098FC87
:103D1000681CC5B2042DD3DB042529E0284600F039
:103D20008DFBC5EBC50101EB051144F83100C5EB76
:103D3000C50101EB051104EBC10101F14C00DFED00
:103D4000410A9FED410A10AA002100F079FCC5EB61
:103D5000C50101EB051104EBC101081DDFED3B0AB4
:103D6000B0EE000A0DAA002100F06AFC681CC5B282
:103D7000062DD3DB062529E0284600F05FFBC5EBC6
:103D8000C50101EB051144F83100C5EBC50101EB9C
:103D9000051104EBC10101F14C00DFED2A0A9FED92
:103DA0002A0A10AA002100F04BFCC5EBC50101EB6B
:103DB000051104EBC101081DDFED240AB0EE000A75
:103DC0000DAA002100F03CFC681CC5B2082DD3DB15
:103DD00000252EE0E8B200F025FBC5EBC50101EBA4
:103DE000051204F5CF6141F83200C5EBC50101EBC6
:103DF000051204F5CF6101EBC20101F14C00DFEDCA
:103E0000140A9FED140A04AA002100F019FCC5EB66
:103E1000C50101EB051204F5CF6101EBC201081DDC
:103E2000F7EE000AB7EE000A01AA002100F008FC34
:103E30006D1C022DCEDB204600F09AF900BF05E78D
:103E4000A84F00080000FA4400401C460000000093
:103E50000080BB450060EA4610B58AB004460F48B2
:103E6000844201D10E2005900D48844201D10020EA
:103E700005900020069001200790002000900190FE
:103E80000290039004900E2009900120089069464A
:103E90002046FCF7BFFB0AB010BD000080080020E0
:103EA00058080020F8B507460C4615461E4640F255
:103EB000FF100D49086000208860C8600820086174
:103EC000380A0A4908704F70200A8870CC70280A96
:103ED00008714D71300A8871CE716B460A460249ED
:103EE0000348FCF7F2FAF8BD940C00201C000020F7
:103EF0008008002000B593B0302107A8FCF73DFAF8
:103F0000142102A8FCF739FA00BF002001902648CE
:103F1000006840F08050244908600846006800F0BE
:103F20008050019000BF00BF00BF002001901F48DB
:103F3000006840F440401D4908600846006800F4ED
:103F40004040019000BF00BF01200790000408908E
:103F500002200D9041050E9106210F91B421109180
:103F6000022111910421129107A8FEF731F808B13E
:103F7000FCF793FAFDF7A6FE08B1FCF78EFA0F20C6
:103F8000029002200390002004904FF4A05005906E
:103F90004FF480500690052102A8FDF7D9FE08B124
:103FA000FCF77BFA13B000BD4038024000700040BF
:103FB00010B5122202490348FFF722F910BD000094
:103FC000EC0C00202C0A002070B50446002528E0E7
:103FD000624901EB850191ED001AF0EE410AC5EB53
:103FE000C50101EB051104EBC10191ED251AB0EEFD
:103FF000410AC5EBC50101EB051104EBC10101F15B
:104000004C0000F025FABDEEC00A10EE100A00B216
:10401000C5EBC50101EB051104EBC101A1F8A80036
:104020006D1C042DD4DB04256AE0C5EBC50000EB54
:10403000051004EBC00090ED281AF0EE410A281F8D
:10404000474901EB800090ED001AB0EE410A9FED68
:10405000451AFFF75FFDC5EBC50000EB051004EB4B
:10406000C00080ED280AC5EBC50101EB051104EB8A
:10407000C10191ED281AF0EE410AC5EBC50101EB33
:10408000051104EBC10191ED271AB0EE410AC5EB11
:10409000C50101EB051104EBC101081D00F0D8F9C1
:1040A000BDEEC00A10EE100A00B22F490880C5EB21
:1040B000C50101EB051104EBC101D1ED250AB0EEFC
:1040C000600AC5EBC50101EB051104EBC10101F16B
:1040D0004C002549B1F9001000EE901AF8EEE00A04
:1040E00000F0B6F9BDEEC00A10EE100A00B2C5EB42
:1040F000C50101EB051104EBC101A1F8A8006D1C7D
:10410000082D92DB04F5CF60D0ED250AB0EE600AF1
:104110001648D0ED000A04F2C46000F099F9BDEE33
:10412000C00A10EE100A01B2A4F8201704F5CF60FF
:10413000D0ED530AB0EE600A0C48D0ED000A04F24C
:104140007C7000F085F9B1EE400ABDEEC00A10EEB9
:10415000100A01B2A4F8D81770BD0000DC0C0020D2
:10416000AC0C00200000C842280000202C000020D9
:1041700010B5034603B910BD00202BE0C0EBC00111
:1041800001EB001153F83110B1F9021000EE101AD2
:10419000B8EEC00ADFED520A20EE200AC0EBC001E3
:1041A00001EB001103EBC10181ED250AC0EBC00159
:1041B00001EB001153F83110098800EE101AB8EE27
:1041C000400AC0EBC00101EB001103EBC10181ED1E
:1041D000270A401C0428D1DB042420E0C4EBC400DF
:1041E00000EB041053F83000B0F9020000EE100AA2
:1041F000B8EEC00ADFED3A0A20EE200AC4EBC40094
:1042000000EB041003EBC00080ED250AC4EBC401F1
:1042100001EB041103EBC10000F0ACF8641C062CA8
:10422000DCDB062420E0C4EBC40000EB041053F8F0
:104230003000B0F9020000EE100AB8EEC00ADFED5F
:10424000280A20EE200AC4EBC40000EB041003EBA4
:10425000C00080ED250AC4EBC40101EB041103EB9F
:10426000C10000F087F8641C082CDCDB002033E080
:10427000C0EBC00101EB001203F5CF6151F8321021
:10428000B1F9021000EE101AB8EEC00ADFED150AFF
:1042900020EE200AC0EBC00101EB001203F5CF6154
:1042A00001EBC20181ED250AC0EBC00101EB001258
:1042B00003F5CF6151F83210098800EE101AB8EEFC
:1042C000400AC0EBC00101EB001203F5CF6101EB26
:1042D000C20181ED270A401C0228C9DB00BF4AE762
:1042E0000A01DA39F1A23E3B204800781F4949789B
:1042F00040EA0120C0F30A001D4908801B484078AD
:10430000C0101A49897840EA4110C0F30A001849E0
:1043100048801648807880111449C97840EA8100A5
:104320001249097940EA8120C0F30A0010498880C7
:104330000E48007940100D49497940EAC110C0F398
:104340000A000B49C880094840790011800888722A
:1043500006484079C0F30110C8720448007C034944
:10436000497C40EA0120024908817047EC0C00209A
:10437000FE0C0020016809880268B2F90820891A39
:10438000002906DD016809880268B2F90820891A47
:1043900005E00168B1F9081002681288891AB1F5C0
:1043A000805F2EDB016809880268B2F9082091421B
:1043B00013DA0168B1F9081041F6FF72511A026868
:1043C0001288114400EE101AB8EEC00AD0ED270A88
:1043D00030EE200A80ED270A23E00168098841F6C3
:1043E000FF72511A0268B2F90820114400EE101A47
:1043F000B8EEC00AD0ED270A30EEC00A80ED270AD9
:104400000FE0016809880268B2F90820891A00EEF5
:10441000101AB8EEC00AD0ED270A30EE200A80ED5F
:10442000270A7047014601F0030000EB8000024AB2
:1044300002EB400070470000360C0020014601EB03
:104440008100024A02EB400070470000DC0B0020B4
:10445000B0EE401A10B99FED790A704790ED100A3E
:1044600080ED110A90ED0F0A80ED100AC0ED060AEA
:1044700080ED071A30EEC10A80ED0F0A017800299D
:1044800075D190ED010AD0ED0F1A20EE210A80EDD2
:10449000090A90ED0A0AD0ED021A90ED0F2A01EEFA
:1044A000820A80ED0A0A90ED0D0A80ED0E0A90ED69
:1044B0000C0A80ED0D0A90ED0F0AD0ED101A30EEC7
:1044C000610A80ED0C0A90ED030AD0ED0C1A20EE83
:1044D000210A80ED0B0A90ED0A0AD0ED051AB4EE20
:1044E000E10AF1EE10FA04DD90ED050A80ED0A0A0A
:1044F00010E090ED0A0AD0ED051AF1EE611AB4EE63
:10450000E10AF1EE10FA05D290ED050AB1EE400A8B
:1045100080ED0A0A90ED090AD0ED0A1A30EE210A60
:10452000D0ED0B1A30EE210A80ED080A90ED080A52
:10453000D0ED041AB4EEE10AF1EE10FA04DD90EDCC
:10454000040A80ED080A76E090ED080AD0ED041A1E
:10455000F1EE611AB4EEE10AF1EE10FA6BD290EDD1
:10456000040AB1EE400A80ED080A64E0FFE7017832
:10457000012960D190ED0F0AD0ED101A30EE610ADA
:10458000D0ED011A20EE210A80ED090A90ED020A11
:10459000D0ED0F1A20EE210A80ED0A0A90ED0D0AE7
:1045A00080ED0E0A90ED0C0A80ED0D0A90ED0F0AD9
:1045B000D0ED101AB0EE002A02EE610AD0ED111A09
:1045C00030EE210A80ED0C0A90ED030AD0ED0C1AB2
:1045D00020EE210A80ED0B0A90ED090AD0ED0A1AAF
:1045E00030EE210AD0ED0B1A30EE210AD0ED081A78
:1045F00030EE210A80ED080A90ED080AD0ED041A89
:10460000B4EEE10AF1EE10FA04DD90ED040A80ED5B
:10461000080A10E090ED080AD0ED041AF1EE611AD4
:10462000B4EEE10AF1EE10FA05D290ED040AB1EE13
:10463000400A80ED080A90ED080A0EE7000000002D
:1046400000B102B97047017092ED001A80ED011AB5
:1046500092ED011A80ED021A92ED021A80ED031A12
:1046600080ED040AC0ED050A9FED0C1A80ED0E1ACC
:1046700080ED0D1A80ED0C1A9FED081A80ED081AD6
:1046800080ED0B1A80ED0A1A80ED091A80ED111ADF
:1046900080ED101A80ED0F1A00BFD3E70000000074
:1046A00030B50468246824F4802405682C6004680C
:1046B00063608468402C04D10468A2600468E160EF
:1046C00003E00468A1600468E26030BD0146002098
:1046D0008A6A8B69CBB932B1012A0DD0022A03D084
:1046E000032A10D10EE000BFCB6A03F08073B3F150
:1046F000807F00D1012007E0CB6AB3F1C07F00D1F9
:10470000012001E000E000BF34E08B69B3F5005FF9
:104710001AD132B1012A07D0022A03D0032A11D1BB
:104720000AE000BF01200EE0CB6A03F08073B3F112
:10473000807F00D1012006E0CB6AB3F1C07F00D1B9
:10474000012000E000BF15E032B1012A05D0022AA5
:1047500004D0032A0CD103E000BF00BF012008E011
:10476000CB6A03F08073B3F1807F00D1012000E0B9
:1047700000BF00BF704700000146087810381823BA
:10478000B0FBF3F20848805CC865032A05D90868C5
:104790006FF30900001D886503E008686FF30900E6
:1047A0008865886D70470000864F000830B5026A42
:1047B000056A25F0010505624368846924F07004E8
:1047C00024F003040D682C4322F002028D682A4372
:1047D000104DA84200D103E00F4DA84206D100BF02
:1047E00022F00802CD682A4322F00402094DA842B3
:1047F00002D0094DA84207D123F4807323F400733B
:104800004D692B438D692B43436084614D6845633B
:10481000026230BD000001400004014030B5026A70
:10482000056A25F4807505624368C46924F0700444
:1048300024F003040D682C4322F400728D6842EAD0
:104840000522124DA84200D103E0114DA84207D124
:1048500000BF22F40062CD6842EA052222F48062A1
:104860000A4DA84202D00A4DA84209D123F4805330
:1048700023F400534D6943EA05138D6943EA051398
:104880004360C4614D68C563026230BD00000140F1
:104890000004014030B5036A056A25F480550562BD
:1048A0004468C26922F4E04222F440720D6842EA90
:1048B000052223F400538D6843EA0533084DA842CE
:1048C00002D0084DA84204D124F480444D6944EA42
:1048D00085144460C2614D680564036230BD000008
:1048E00000000140000401400A46816821F0700187
:1048F00042F0070319438160704730B50B461446F8
:10490000026A056A25F001050562816921F0F0015E
:1049100041EA041122F00A021A438161026230BDA9
:1049200030B50B461446026A056A25F0100505628B
:10493000816921F4704141EA043122F0A00242EA87
:1049400003128161026230BD70B506460025B46B6A
:1049500020684069C0F3C01594F84100212805D1B2
:1049600025B10020E084204600F022FA206840694A
:10497000C0F3801594F84200222805D125B100200B
:10498000E085204600F0DEF9606C40F010006064C5
:104990002046FEF788F970BD2DE9F84F04462068DF
:1049A000006920F44050E1680843216808612169EA
:1049B000A068084361690843E169084300902068E2
:1049C000C06849F20C618843009908432168C860B7
:1049D0002068406920F44070A1690843216848615B
:1049E00076492068884203D075492068884203D1FF
:1049F000FDF786FA814602E0FDF772FA8146E0692A
:104A0000B0F5004F6CD102206168A0FB0150034655
:104A10001920A9FB007001462A463846FBF736FCF0
:104A20006421B0FBF1F04FEA001A02206168A0FB9C
:104A300001510B461920A9FB00712A463846FBF7A5
:104A400025FC834602206168A0FB01500346192023
:104A5000A9FB00712A463846FBF718FC6421B0FB1D
:104A6000F1F000EBC00101EB0010ABEB8000322154
:104A700001EBC0006421B0FBF1F000F0F8000AEB9C
:104A8000400A02206168A0FB015003461920A9FBDF
:104A9000007001462A463846FBF7F8FB83460220A1
:104AA0006168A0FB015003461920A9FB00712A464A
:104AB0003846FBF7EBFB6421B0FBF1F000EBC001E3
:104AC00001EB0010ABEB8000322101EBC000642150
:104AD000B0FBF1F000F007005044216888606AE004
:104AE00004206168A0FB015003461920A9FB007057
:104AF00001462A463846FBF7C9FB82460420616816
:104B0000A0FB015003461920A9FB007001462A466C
:104B10003846FBF7BBFB6421B0FBF1F000EBC001B2
:104B200001EB0010AAEB8000322101EB00106421A0
:104B3000B0FBF1F000F0F00A04206168A0FB017006
:104B400003461920A9FB00513A462846FBF79EFB75
:104B50006421B0FBF1F00AEB001A04206168A0FBAD
:104B600001510B461920A9FB00712A463846FBF774
:104B70008DFB834604206168A0FB01500346192089
:104B8000A9FB007001462A463846FBF77FFB6421EB
:104B9000B0FBF1F000EBC00101EB0010ABEB8000CB
:104BA000322101EB00106421B0FBF1F000F00F00A6
:104BB000504421688860BDE8F88F00000010014073
:104BC00000140140F8B5044694F84200222875D13B
:104BD000A068B0F5805F0CD1206950B90025A66AA5
:104BE00020684068C0F308003080A06A801CA06282
:104BF00015E0A56A0026A068B0F5805F03D0A06824
:104C000028B9206918B920684068287004E0206835
:104C1000406800F07F002870A06A401CA062E08D10
:104C2000401E80B2E085002846D12068C06820F090
:104C300020002168C8602068C06820F48070216866
:104C4000C8602068406920F0010021684861202088
:104C500084F8420000206063206B012826D10020E8
:104C6000206300BF00BF21680C3151E8001F21F014
:104C7000100021680C3141E80002002AF3D100BF86
:104C80002068006800F0100010280AD100BF002042
:104C9000009020680068009020684068009000BF85
:104CA00000BFA18D2046FDF7FDFF02E02046FEF784
:104CB000BDFA0020F8BD01E00020FBE70220F9E783
:104CC000014691F84100212828D18868B0F5805F1D
:104CD0000BD1086948B90A6A1088C0F308000B684C
:104CE0005860086A801C086205E00B6A581C08625C
:104CF00018780B685860C88C401E80B2C88458B9B8
:104D00000868C06820F080000B68D8600868C06838
:104D100040F040000B68D860002070470220FCE79C
:104D200070B50546AC6B01206063206B012805D18E
:104D3000A08D41082046FDF7B5FF02E02046FEF7B2
:104D400081FA70BD00BF00BF02680C3252E8002F2C
:104D500022F4907102680C3242E80013002BF3D168
:104D600000BF00BF00BF0268143252E8002F22F0DB
:104D700001010268143242E80013002BF3D100BF96
:104D8000016B01290ED100BF00BF02680C3252E84E
:104D9000002F22F0100102680C3242E80013002BB1
:104DA000F3D100BF202180F8421000210163704739
:104DB00000BF00BF02680C3252E8002F22F0C00191
:104DC00002680C3242E80013002BF3D100BF20210F
:104DD00080F84110704770B50546AC6B28680068D4
:104DE00000F48070002842D1E08500BF00BF216838
:104DF0000C3151E8001F21F4807021680C3141E82A
:104E00000002002AF3D100BF00BF00BF21681431A7
:104E100051E8001F21F001002168143141E800022F
:104E2000002AF3D100BF00BF00BF2168143151E850
:104E3000001F21F040002168143141E80002002ADF
:104E4000F3D100BF202084F84200206B01280ED14E
:104E500000BF00BF21680C3151E8001F21F0100095
:104E600021680C3141E80002002AF3D100BF002084
:104E70006063206B012804D1A18D2046FDF712FF4D
:104E800002E02046FEF7D2F970BD10B50446206856
:104E9000C06820F040002168C860202084F84100EC
:104EA0002046FEF7D0F9002010BD70B50546AC6B6A
:104EB0000020E085E0842046FDF7F5FE70BD00008F
:104EC00010B5002804DB0A07130E054A135406E048
:104ED0000A07140E034A00F00F031B1FD45410BD21
:104EE00000E400E018ED00E002480068C0F3022092
:104EF000704700000CED00E0FCF716FEFEF7FAFF2D
:104F0000FEF720FAFEF7E2F9FEF7A0F9FEF780FBC4
:104F1000FEF75CFBFEF78AFCFEF72CFBFEF710FCAD
:104F2000FEF764FCFEF7B2F9FEF7C4FB1048FEF78B
:104F300093FF1048FEF790FF0D48FCF7C6F80D48A8
:104F4000FCF7C3F802210A48FBF7AAFA0221094834
:104F5000FBF7A6FAFFF72CF80748FEF773FE0648A2
:104F6000FEF72CFEFEF70CFE01E0FFF721F8FCE750
:104F70005808002080080020340000204FF04070C6
:104F8000E1EE100A70470006101600061016000029
:104F900000000000000001020304060708090000E9
:104FA00000000102030400000000C84300000000EC
:104FB0000000000017B7D138000000000AD7233CDA
:104FC0000000FA4400000000000000000AD7A33BE4
:104FD000000000000AD7233C00409C46000000006F
:104FE000000000000AD7233C000000000AD7A33BC2
:104FF000007014460000000000409C450AD7233C86
:10500000000000000AD7A33B285000080000002041
:1050100034000000E80100085C5000083400002063
:105020003C13000004020008000000000000000023
:1050300010000000010000000024F4000000000047
:105040000000000000000000000000000000000060
:0C50500000000000000000000000000054
:04000005080001AD41
:00000001FF
