:020000040800F2
:1000000080C60020D5010008895700083327000862
:1000100085570008BD0600086D6D0008000000004F
:10002000000000000000000000000000E56700087C
:10003000C1060008000000008B570008C9690008CD
:10004000EF010008EF010008EF010008EF010008D0
:10005000EF010008EF010008EF010008EF010008C0
:10006000EF010008EF010008EF010008EF010008B0
:10007000EF010008EF010008EF010008EF010008A0
:10008000EF010008EF010008EF010008EF01000890
:10009000EF010008EF010008EF010008EF01000880
:1000A000EF010008EF010008EF010008EF01000870
:1000B000EF010008EF010008EF010008EF01000860
:1000C000EF010008EF010008EF010008EF01000850
:1000D000EF0100082D6D0008EF010008EF01000896
:1000E000EF010008EF010008EF010008EF01000830
:1000F000EF010008EF010008EF010008EF01000820
:10010000EF010008EF010008EF010008EF0100080F
:10011000EF010008EF010008EF010008EF010008FF
:10012000EF010008EF010008EF010008EF010008EF
:1001300000F002F800F03FF80AA090E8000C8244BA
:100140008344AAF10107DA4501D100F034F8AFF297
:10015000090EBAE80F0013F0010F18BFFB1A43F0A5
:1001600001031847402B0100602B0100103A24BF07
:1001700078C878C1FAD8520724BF30C830C144BF0C
:1001800004680C607047000000230024002500264E
:10019000103A28BF78C1FBD8520728BF30C148BFEA
:1001A0000B607047782900F0B980002070471FB5B8
:1001B0001FBD10B510BD00F04FFA1146FFF7F7FF55
:1001C0000BF00EFC00F06DFA03B4FFF7F2FF03BC76
:1001D00006F0AEFF0948804709480047FEE7FEE702
:1001E000FEE7FEE7FEE7FEE7FEE7FEE7FEE7FEE7E7
:1001F00004480549054A064B70470000D1690008CC
:100200003101000880C0002080C6002080C200208C
:1002100080C20020704753EA020C00F069802DE98B
:10022000F04B4FF00006002B1FBFB3FA83F503FA23
:1002300005F424FA05F65E4012BF1643B2FA82F5C1
:1002400002FA05F4C5F120051EBF22FA05FC44EAB6
:100250000C04203556EA044C4FEA144418BF641CC1
:100260004FF000084FF00009904271EB030C39D3B6
:10027000002919BFB1FA81F701FA07F6B0FA80F741
:1002800000FA07F6C7F120071EBF20FA07FC46EA6E
:100290000C062037B6FBF4FCA7EB0507103F07F070
:1002A0001F0BCBF120060CFA0BFB2CFA06F644BF11
:1002B000B3460026202FA4BF5E464FF0000B5BEA3A
:1002C000060C08BF4FF0010B19EB0B09ABFB027CCE
:1002D00048EB0608C01B06FB02CC0BFB03CC71EB02
:1002E0000C01C1E70B46024641464846BDE8F08B8B
:1002F00013B54FF000004FF00001AFF30080BDE8F0
:100300001C4070470FB4044910B503AA029800F0CE
:1003100075F910BC5DF814FB1400002070B504469C
:100320000D4621461068AFF300802188090502D5EB
:100330000F4A7A4402E00E4A7A440E32002104F158
:10034000240305E000F00F060009965D5E54491C89
:100350000028F7D120780023000704D5702D02D0A3
:1003600009B1022311322046BDE8704000F0ECB81C
:10037000C22801002DE9F047884606460020DFF834
:10038000DC90F94430623046F1688847002862D03A
:10039000252806D0D6E901219047306A401C3062FA
:1003A000F1E700254F463046F1688847202804468B
:1003B00007DB312C05D2381910F8200C08B10543A1
:1003C000F1E7A80701D525F004056C2C0AD0682CAC
:1003D00008D04C2C38D06A2C34D0742C34D07A2CE1
:1003E00032D015E0F168274630468847B8420446C7
:1003F00009D16C2F26D04FF48060F1680543304658
:100400008847044604E06C2F1AD04FF480700543EF
:100410000CB3A4F14100192802D8203445F400653A
:1004200042462146304635604546FFF7BBFE80B167
:1004300001280BD0ED1D25F0070000F10808A2E708
:100440004020E4E78020D8E70020D6E705F1040843
:1004500099E720469EE7306ABDE8F0879A280100B8
:1004600040EA0103024630B59B0710D14FF001343A
:1004700000E008C208C91D1B9D4315EAC41FF8D03F
:1004800013F0FF0102F8011B0DD01B0AF8E711F869
:10049000013B002B02F8013B05D011F8013B002B7A
:1004A00002F8013BF3D130BD421E12F8013F002B90
:1004B000FBD111F8013B002B02F8013BF9D1704749
:1004C0004FF0013C50F8042B51F8043B9A4221D1E3
:1004D000A2EB0C03934313EACC1317D150F8042B6F
:1004E00051F8043B9A4215D1A2EB0C03934313EA53
:1004F000CC130BD150F8042B51F8043B9A4209D18C
:10050000A2EB0C03934313EACC13DBD04FF00000B3
:10051000704700BFD01A01BAB1FA81F101F0180199
:1005200022FA01F0CB40C1F12001DBB2C0B2C01A07
:100530002CFA01F3D11A914311EAC311E6D17047A5
:1005400070477047704770472DE9F0470D46994650
:100550009246044600F124080168880604D5E06943
:1005600021F01001216000E00120A84201DD471BBD
:1005700000E00027A1697A1902EB0900081AA061BE
:100580002078C00602D42046AFF30080002608E0A1
:10059000D4E901211AF806009047206A401C761C15
:1005A00020624E45F4DB2078C0060AD52046AFF322
:1005B000008006E0D4E9012130209047206A401CE9
:1005C0002062381EA7F10107F4DC07E0D4E901211D
:1005D00018F805009047206A401C2062281EA5F1EB
:1005E0000105F3DC2046AFF300802078000602D539
:1005F0000220BDE8F0870120FBE70000074B70B543
:100600000D467B4400F011F80446284600F020F81F
:1006100010B14FF0FF3070BD204670BDB3960000A2
:1006200001694A1C02610878704700B58FB0CDE9B6
:1006300001310021059105497944CDE903101146A6
:100640006846FFF797FE0FB000BD0000E5FFFFFF13
:10065000007B00F080007047754600F02BF8AE4636
:1006600005006946534620F00700854618B020B5BE
:10067000FFF7BEFDBDE820404FF000064FF0000739
:100680004FF000084FF0000B21F00701AC46ACE83A
:10069000C009ACE8C009ACE8C009ACE8C0098D46A7
:1006A000704710B50446AFF300802046BDE8104007
:1006B000FFF78ABD0048704720C0002000BFFEE75A
:1006C0007047000070B50446B3F5804F13D1D1E9EF
:1006D000000540EA05108D6840EA05208D69284331
:1006E0008D8940EA054054F82250064E3540284393
:1006F00044F8220003E06FF0704044F8220000202C
:1007000070BD00000000F0CF30B50246086852F816
:10071000200020F001000C6842F8240088680828B6
:1007200001D1402300E00023486818438C6820432F
:10073000CC6820430C6920434C6920438C692043DA
:10074000CC6920430C6A20434C6A20438C6A2043C6
:10075000CC6A20430C6B20434C6B20430C6852F84E
:100760002440044D2C4020430C6842F82400002013
:1007700030BD00008000F0FF10B50346D1E9000451
:1007800040EA04108C6840EA04208C8940EA044462
:10079000088A401E44EA0054087D801E44EA006036
:1007A0008C692043541C53F8244004F040442043F7
:1007B000541C43F82400002010BD00002DE9F05F18
:1007C00082460F4614462046E21704EB5272D210BE
:1007D0002146E31704EB5373DB10A4EBC3030BB107
:1007E000012300E000231A44624302F0FF099AF853
:1007F00000600AF1010082460578812E05DB402D5C
:1008000003DBFF2D01D0FF2E0DD14FF0000B06E0D2
:10081000002007F8010B0BF1010000F0FF0BCB45A6
:10082000F6DBBDE8F09F7F2D03DAA5F14000C5B2ED
:1008300002E0A5F14100C5B2A6F18100C6B2BE201A
:1008400000FB065000FB09F80C2C04D0102C0CD037
:10085000182C1ED113E01048D0F8090000EB080155
:100860004A46384606F0FAFA13E00B48D0F8110071
:1008700000EB08014A46384606F0F0FA09E006485F
:10088000D0F8190000EB08014A46384606F0E6FAAF
:1008900000BF00BF00BFC4E7C0BF002070B5044662
:1008A000002594F82100022803D00420A06301252C
:1008B000C1E02068006820F00E0021680860206810
:1008C000006820F00100216808605C4920688842C7
:1008D00052D95A4978392068884201D1012047E02D
:1008E000564964392068884201D1102040E05349BC
:1008F00050392068884201D1801539E04F493C3990
:100900002068884201D1801432E04C49283920689F
:10091000884202D14FF480302AE0484914392068D7
:10092000884202D14FF4801022E044492068884276
:1009300001D140041CE042492068884201D10120D5
:1009400016E03F4914312068884201D110200FE0A1
:100950003B4928312068884201D1801508E0384998
:100960003C312068884201D1801401E04FF480308E
:100970003349091F086051E03049783920688842BE
:1009800001D1012047E02D4964392068884201D116
:10099000102040E0294950392068884201D1801553
:1009A00039E026493C392068884201D1801432E080
:1009B000224928392068884202D14FF480302AE049
:1009C0001E4914392068884202D14FF4801022E079
:1009D0001A492068884201D140041CE01849206867
:1009E000884201D1012016E015491431206888425F
:1009F00001D110200FE0124928312068884201D12E
:100A0000801508E00E493C312068884201D18014ED
:100A100001E04FF48030094980394860012084F8B2
:100A2000210000BF002084F8200000BF606B10B1DF
:100A30002046616B8847284670BD00008000024058
:100A40000804024070B5044600F0BEF9064625468B
:100A5000681C10B104480078054400BF00F0B4F9E8
:100A6000801BA842FAD370BD0C0000202DE9F84786
:100A7000024600239C467BE14FF0010808FA03F48C
:100A8000D1F8008008EA0400A0427DD1DFF8F4A28A
:100A9000D1F80480A8EB0A09D0453AD014DCB8F1AB
:100AA000030F50D009DCB8F1000F31D0B8F1010FBD
:100AB0001CD0B8F1020F49D120E0B8F1110F18D0C5
:100AC000B8F1120F42D11EE0B9F5881F25D006DC1F
:100AD000B9F5803F20D0B9F5801F37D11AE0B9F5BC
:100AE000001F18D0B9F5041F30D117E0D1F80CC0A1
:100AF0002DE0D1F80C8008F1040C28E0D1F80C802E
:100B000008F1080C23E0D1F80C8008F10C0C1EE071
:100B100000BF00BF00BF00BF00BF00BFD1F808800A
:100B2000B8F1000F02D14FF0040C0BE0D1F80880AF
:100B3000B8F1010F03D14FF0080C146102E04FF03F
:100B4000080C546103E04FF0000C00E000BF00BF50
:100B5000FF2801D8904601E002F104084646FF282C
:100B600002D84FEA830803E0A3F108084FEA880897
:100B70004746D6F800804FF00F0909FA07F928EA2E
:100B800009080CFA07F900E07AE048EA0908C6F813
:100B90000080D1F8048008F08058B8F1805F6FD1F0
:100BA00000BFDFF8E481D8F8188048F00108DFF8CA
:100BB000D891C9F81880C846D8F8188008F00108FC
:100BC000CDF8008000BF00BF4FEAB9384FEA930963
:100BD00058F829504FEA83784FEA18794FF00F08F8
:100BE00008FA09F825EA0805DFF8A081424502D194
:100BF0004FF0000824E0DFF89881424502D14FF021
:100C000001081DE0DFF88C81424502D14FF0020857
:100C100016E0DFF88481424502D14FF003080FE06F
:100C2000DFF87881424502D14FF0040808E0DFF890
:100C30007081424502D14FF0050801E04FF00608EF
:100C40004FEA83794FEA197908FA09F848EA050565
:100C5000DFF850814FEA930948F82950D1F8048011
:100C600008F48038B8F5803F0BD1DFF83C81D8F824
:100C7000008048EA0008DFF83091C9F800800AE0F7
:100C800075E0DFF82481D8F8008028EA0008DFF852
:100C90001891C9F80080D1F8048008F40038B8F53C
:100CA000003F0ED1DFF8008108F10408D8F8008079
:100CB00048EA0008DFF8F09009F10409C9F800805B
:100CC0000DE0DFF8E48008F10408D8F8008028EA95
:100CD0000008DFF8D49009F10409C9F80080D1F8C0
:100CE000048008F48018B8F5801F0ED1DFF8B880B2
:100CF00008F10808D8F8008048EA0008DFF8A89052
:100D000009F10809C9F800800DE0DFF89C8008F1BE
:100D10000808D8F8008028EA0008DFF88C9009F16C
:100D20000809C9F80080D1F8048008F40018B8F563
:100D3000001F0ED1DFF8708008F10C08D8F8008091
:100D400048EA0008DFF8609009F10C09C9F8008052
:100D50000DE0DFF8548008F10C08D8F8008028EA8C
:100D60000008DFF8449009F10C09C9F800805B1C09
:100D7000D1F8008028FA03F8B8F1000F7FF47CAEB8
:100D8000BDE8F88700001110001002400008014083
:100D9000000C014000100140001401400018014007
:100DA000001C014008000140000401400246936815
:100DB0000B400BB1012000E0002070470AB1016137
:100DC00001E00B04036170470148006870470000B0
:100DD00004000020034800680349097808440149D9
:100DE00008607047040000200C00002010B508487F
:100DF000006840F0100006490860052000F080F807
:100E00000F2000F007F800F02BF8002010BD0000C4
:100E10000020024070B504460E4800784FF47A7105
:100E2000B1FBF0F00C490968B1FBF0F5284601F080
:100E3000A9FA08B1012070BD102C07D2002221466A
:100E4000501E00F01EF80548046001E00120F2E7A2
:100E50000020F0E70C000020000000200800002027
:100E6000704701460846002809DB00F01F030122F5
:100E70009A4043099B0003F1E023C3F8002100BF1F
:100E800070472DE9F05F80460D461646002706F0B4
:100E900033F9074639462A46334601F00700C0F1C8
:100EA000070ABAF1040F02D94FF0040A01E0C0F1B9
:100EB000070AD14600F1040ABAF1070F02D24FF037
:100EC000000A01E0A0F1030AD4464FF0010A0AFA31
:100ED00009FAAAF1010A0AEA020A0AFA0CFA4FF020
:100EE000010B0BFA0CFBABF1010B0BEA030B4AEA0B
:100EF0000B042146404606F007F9BDE8F09F0000CC
:100F000000BF00F00702064B19684FF6FF031940B7
:100F1000044B0B4343EA0221014B196000BF7047A9
:100F20000CED00E00000FA0570B504460D460CB962
:100F3000012070BD5A48006800F00700A8420ED298
:100F40005748006820F007002843554908600846C4
:100F5000006800F00700A84201D00120E9E72078EE
:100F600000F0020002281DD1207800F004000428BF
:100F700005D14C48406840F4E0604A494860207818
:100F800000F00800082805D14648406840F4605049
:100F9000444948604348406820F0F000A168084395
:100FA00040494860207800F0010078B3606801286B
:100FB00006D13C48006800F4003090B90120B8E741
:100FC0006068022806D13748006800F0007040B918
:100FD0000120AEE73348006800F0020008B90120A4
:100FE000A7E73048406820F00300616808432D49B6
:100FF0004860FFF7E9FE064609E0FFF7E5FE801BC3
:1010000041F28831884202D9032092E707E025485F
:10101000406800F00C006168B0EB810FEDD1204812
:10102000006800F00700A8420ED91D48006820F0B3
:10103000070028431A4908600846006800F00700C6
:10104000A84201D0012074E7207800F004000428B1
:1010500007D11448406820F4E060E1680843114972
:101060004860207800F00800082808D10D48406842
:1010700020F46050216940EAC1000A49486000F04C
:101080003FF808494968C1F30311074A515CC84059
:101090000649086006480068FFF7BCFE002048E7E4
:1010A00000200240001002400ADA00080000002080
:1010B0000800002001480068704700000000002080
:1010C00000B5FFF7F7FF04494968C1F30221034A5D
:1010D000515CC84000BD0000001002401ADA000850
:1010E00000B5FFF7E7FF04494968C1F3C221034A8D
:1010F000515CC84000BD0000001002401ADA000830
:10110000F0B585B00FF26C0C9CE8E01001A8A0E8E7
:10111000E0101CA52D68009500210022002300246A
:101120000020194D696801F00C05F5B1042D02D0BD
:10113000082D19D101E0154819E001ADC1F383462E
:10114000AC5D01F4803555B10F4D6D68C5F3404578
:101150001DF805200D4D6543B5FBF2F302E00C4D83
:1011600004FB05F3184602E000BF084800BF00BFBB
:1011700005B0F0BD02030405060708090A0B0C0DB3
:101180000E0F1010010200000010024000127A0041
:1011900000093D00F8B504460CB90120F8BD2078DF
:1011A00000F00100002878D0F848406800F00C00FA
:1011B00004280CD0F548406800F00C00082811D134
:1011C000F248406800F48030B0F5803F0AD1EF4823
:1011D000006800F4003000285FD0606800285CD10F
:1011E0000120DBE700BF6068B0F5803F06D1E7482B
:1011F000006840F48030E549086028E0606858B92C
:10120000E248006820F48030E04908600846006841
:1012100020F4802008601AE06068B0F5A02F0BD1A0
:10122000DA48006840F48020D84908600846006821
:1012300040F4803008600AE0D448006820F4803030
:10124000D24908600846006820F48020086000BF8A
:10125000606888B1FFF7B8FD054606E0FFF7B4FD0A
:10126000401B642801D9032098E7C848006800F4AF
:1012700000300028F2D010E0FFF7A6FD054606E09A
:10128000FFF7A2FD401B642801D9032086E7BF4871
:10129000006800F400300028F2D1207800F002004D
:1012A000022857D1B948406800F00C0050B1B74847
:1012B000406800F00C00082818D1B448406800F4D9
:1012C000803098B9B148006800F0020020B1206970
:1012D000012801D0012061E7AC48006820F0F80047
:1012E000616940EAC100A949086033E02069E8B1BA
:1012F0000120A7490860FFF767FD054606E0FFF7F4
:1013000063FD401B022801D9032047E79F4800687E
:1013100000F002000028F2D09C48006820F0F8009D
:10132000616940EAC1009949086013E000209849CA
:101330000860FFF749FD054606E0FFF745FD401B45
:10134000022801D9032029E79048006800F0020034
:101350000028F2D1207800F0080008282DD1A069DB
:10136000B8B101208B490860FFF72EFD054606E065
:10137000FFF72AFD401B022801D903200EE783480E
:10138000406A00F002000028F2D0012004F0FEF9CB
:1013900013E000207F490860FFF716FD054606E0D0
:1013A000FFF712FD401B022801D90320F6E677481B
:1013B000406A00F002000028F2D1207800F004001A
:1013C000042873D100277148C06900F0805070B9BB
:1013D00000BF6E48C06940F080506C49C861084643
:1013E000C06900F08050009000BF00BF01276A482C
:1013F000006800F48070B0B96748006840F48070FD
:1014000065490860FFF7E0FC054606E0FFF7DCFCF5
:10141000401B642801D90320C0E65F48006800F43F
:1014200080700028F2D000BFE068012806D157483C
:10143000006A40F001005549086227E0E06858B9A9
:101440005248006A20F00100504908620846006ACC
:1014500020F00400086219E0E06805280BD14B4831
:10146000006A40F00400494908620846006A40F0FA
:10147000010008620AE04548006A20F00100434983
:1014800008620846006A20F00400086200BFE068B5
:10149000A0B1FFF799FC054609E0FFF795FC401B5A
:1014A00041F28831884202D9032077E622E03748AA
:1014B000006A00F002000028EFD012E0FFF784FC81
:1014C000054608E0FFF780FC401B41F28831884266
:1014D00001D9032062E62D48006A00F002000028CE
:1014E000F0D1012F05D12948C06920F0805027494B
:1014F000C86100BFE069C8B32448406800F00C0030
:10150000082860D0E069022848D1002020490866F8
:10151000FFF75AFC054606E0FFF756FC401B022881
:1015200001D903203AE61948006800F0007000284D
:10153000F2D1206AB0F5803F07D11448406820F40A
:101540000030A168084311494860D4E90801084304
:101550000E49496821F4741108430C494860012080
:101560000B490866FFF730FC054607E03DE0FFF752
:101570002BFC401B022801D903200FE6034800681A
:1015800000F000700028F2D02FE0000000100240B0
:101590000000424280044242007000400020144992
:1015A0000866FFF711FC054606E0FFF70DFC401B3F
:1015B000022801D90320F1E50E48006800F0007010
:1015C0000028F2D111E0E069012800D1E6E50948E0
:1015D000466806F48031206A814204D106F4701115
:1015E000606A814201D00120D8E50020D6E50000E4
:1015F000000042420010024070B58AB004460D4619
:10160000032084F83400606C032820D0B5F5805F97
:1016100004D1A06B40F08050A0631CE0B5F5006FD2
:1016200007D1204604F016FF0646A06B3043A063A6
:1016300011E03DB9204604F0D9FE0646A06B3043C8
:10164000A06308E0A06B40F00060A06303E0A06B23
:1016500040F08050A063A06B38B1104821688863C7
:10166000012084F834000AB070BD60680490A0685E
:101670000590E0680690079560690890A069099058
:1016800007A807C88DE80700206804A90EC904F060
:10169000B6F8012084F834000020E4E7FF0540009C
:1016A00010B50246506E800F0870506EC0F3836014
:1016B0004870506EC0F301608870506E000CC870A6
:1016C000B2F86400000A087192F864004871906EE4
:1016D000000DC880906EC0F3034008726820805AE5
:1016E000C0F3C03048726820805AC0F380308872DE
:1016F0006820805AC0F34030C8726820805AC0F316
:101700000030087300204873506C002836D16820E0
:10171000805A8005030DD06E43EA90700861D06E48
:10172000C0F3C2600875D06EC0F302604875D06E19
:10173000C0F342508875D06EC0F38240C875D06E39
:10174000C0F3C23008760869401C50650B7E506DAE
:1017500003F007039B1C01249C4060435065087AFA
:1017600000F00F03012098409065D2E915035B0A51
:101770005843D0654FF40073136621E0506C012884
:1017800013D16820805C8006830AD06E43EA104043
:1017900008610869401C83025365536DD3654FF49B
:1017A00000739365936D13660AE02E48136898637F
:1017B000906B40F080509063012082F8340010BD9F
:1017C0006C20805AC0F3803001F8190F6C20805AC9
:1017D000C0F3C61048706C20805C00F07F008870F9
:1017E000106FC00FC870106FC0F341700871106F98
:1017F000C0F382604871106FC0F383508871106F1E
:10180000C0F34050C87100200872106FC0F3004050
:1018100048727020805AC0F3C03088727020805A9D
:10182000C0F38030C8727020805AC0F34030087313
:101830007020805AC0F3003048737020805AC0F383
:10184000812088737020805AC0F30120C8737020F3
:10185000805CC0F3460008740120487419390020E8
:10186000ADE70000FF0540000246506C0860906C38
:101870004860D06C8860106DC860506D0861906DD4
:101880004861D06D8861106EC86100207047F8B55E
:101890000446002000906946204604F08FFD05466E
:1018A00015B1A06B2843A0630098C0F343263046CF
:1018B000F8BD10B504460CB9012010BD94F83400F1
:1018C00020B900202077204600F054F8032084F847
:1018D0003400204600F00CF808B10120EDE70020AC
:1018E000A0632063012084F834000020E5E70000B5
:1018F00070B58AB0044600200490059006900790C9
:1019000008907620099007A807C88DE8070020688E
:1019100004A90EC903F073FF064616B101200AB0F0
:1019200070BD002012490860206803F082FF01208A
:101930000F49A039C1F8A000204604F0AFFC0546CD
:101940003DB1012084F83400A06B2843A06301203E
:10195000E5E7204604F020FC05463DB1012084F86F
:101960003400A06B2843A0630120D8E70020D6E70D
:10197000A000304210B586B0044600BF244840693C
:1019800040F48060224948610846406900F4806064
:10199000019000BF00BF00BF0846406940F0020050
:1019A00048610846406900F00200019000BF00BF96
:1019B00000BF0846806940F01000886108468069D1
:1019C00000F01000019000BF00BF00BF0846806912
:1019D00040F0200088610846806900F020000190F6
:1019E00000BF00BF4FF4F850029002200390012086
:1019F00004900320059002A90648FFF737F8042059
:101A0000029002A90448FFF731F806B010BD0000AB
:101A10000010024000100140001401402DE9F04F79
:101A200087B004468A4690461E46DDF84090002561
:101A3000FFF7CAF90090AB465746BAF1000F07D13D
:101A4000A06B40F00060A063012007B0BDE8F08FFC
:101A500094F8340001287DD10020A06308EB060132
:101A6000E06D814205D9A06B40F00070A0630120B9
:101A7000EBE7032084F8340000202168C862606C22
:101A8000012801D04FEA48284FF40071206803F084
:101A900031FF05464DB1704821688863A06B28432B
:101AA000A063012084F83400CFE74FF0FF300190AD
:101AB0007002029090200390022004900020059074
:101AC0000120069001A9206803F074FE012E07D9B9
:101AD000022020634146206803F074FF054606E0BB
:101AE000012020634146206803F088FF05464DB180
:101AF000594821688863A06B2843A063012084F8BB
:101B00003400A2E729E02068406B00F4004068B18F
:101B10004FF0000B06E0206803F094FE47F82B001E
:101B20000BF1010BBBF1080FF5D32037B9F1000F12
:101B300005D0FFF749F90099401A48450DD34648AA
:101B400021688863A06B40F00040A063012084F806
:101B5000340000E079E0032077E72068406B40F232
:101B60002A3108400028CED02068406B00F48070F5
:101B700098B1012E11D9606C03280ED0206803F0B3
:101B8000FDFF05464DB1344821688863A06B2843AA
:101B9000A063012084F8340057E72068406B00F010
:101BA000080050B12C4821688863A06B40F0080001
:101BB000A063012084F8340047E72068406B00F000
:101BC000020050B1244821688863A06B40F00200F5
:101BD000A063012084F8340037E72068406B00F0F0
:101BE000200050B11C4821688863A06B40F02000A1
:101BF000A063012084F8340027E718E0206803F090
:101C000021FE38603F1DB9F1000F05D0FFF7DCF869
:101C10000099401A48450AD30F4821688863A06B91
:101C200040F00040A063012084F834000DE72068F4
:101C3000406B00F400100028E0D107482168886359
:101C4000012084F834000020FFE6A06B40F0005033
:101C5000A0630120F9E60000FF0540002DE9F04FE8
:101C600087B00446884617461E46DDF840B000257A
:101C7000FFF7AAF80090A946C246B8F1000F07D1B5
:101C8000A06B40F00060A063012007B0BDE8F08FBA
:101C900094F8340001287BD10020A063B919E06DCD
:101CA000814205D9A06B40F00070A0630120ECE7F1
:101CB000032084F8340000202168C862606C012889
:101CC00000D07F024FF40071206803F013FE054638
:101CD0004DB15F4821688863A06B2843A063012051
:101CE00084F83400D1E7012E07D92020206339463B
:101CF000206803F061FF054606E0102020633946A6
:101D0000206803F075FF05464DB15148216888638E
:101D1000A06B2843A063012084F83400B5E74FF09E
:101D2000FF300190700202909020039000200490F8
:101D300005900120069001A9206803F03BFD28E0F2
:101D40002068406B00F4804070B14FF0000906E05D
:101D50000AEB8901206803F08DFD09F10109B9F151
:101D6000080FF5D30AF1200ABBF1000F05D0FFF7E9
:101D70002BF80099401A58450BD3354821688863E1
:101D8000A06B2843A063012084F8340003207CE783
:101D900057E02068406B40F21A3108400028CFD04D
:101DA0002068406B00F4807098B1012E11D9606CEE
:101DB00003280ED0206803F0E1FE05464DB124480B
:101DC00021688863A06B2843A063012084F8340055
:101DD0005BE72068406B00F0080050B11C482168A8
:101DE0008863A06B40F00800A063012084F83400F1
:101DF0004BE72068406B00F0020050B114482168A6
:101E00008863A06B40F00200A063012084F83400D6
:101E10003BE72068406B00F0100050B10C4821688F
:101E20008863A06B40F01000A063012084F83400A8
:101E30002BE7074821688863012084F834000020DC
:101E400023E7A06B40F00050A06301201DE70000D5
:101E5000FF05400010B504460CB9012010BD606AB2
:101E600000B900BFA06AB0F5005F00D100BF94F8D0
:101E7000510028B9002084F85000204600F038F8BE
:101E8000022084F851002068006820F0400021689A
:101E90000860D4E901010843E16808432169084367
:101EA00061690843218B01F400710843E16908432B
:101EB000216A0843A16A0843216808600421A069D7
:101EC00001EA104021684860A06AB0F5005F02D1C5
:101ED0002168E06A08612068C06920F40060216818
:101EE000C86100206065012084F851000020B5E73A
:101EF00010B586B0044600BF1448806940F0080061
:101F0000124988610846806900F00800019000BF0E
:101F100000BF00BF0846C06940F48040C861084661
:101F2000C06900F48040019000BF00BF4FF46040E2
:101F3000029002200390012004900320059002A942
:101F40000348FEF793FD06B010BD000000100240EC
:101F5000000C01402DE9FF5F0446884691461D466E
:101F60000E9E012002900020019000BF94F85000C6
:101F7000012803D1022004B0BDE8F09F012084F8BD
:101F8000500000BFFEF720FF074694F851B060688C
:101F90000390AA46BBF1010F0BD00398B0F5827FE6
:101FA00004D1A06810B9BBF1040F02D00220019047
:101FB0003DE1B8F1000F03D0B9F1000F00D015B921
:101FC0000120019033E194F85100042802D005204B
:101FD00084F8510000206065C4F83890E587A58733
:101FE000C4F83080E586A58620646064A06AB0F5F8
:101FF000005F0DD100BF2068006820F40050216808
:1020000008602068006840F400502168086000BF44
:102010002068006800F04000402805D02068006873
:1020200040F0400021680860E068B0F5006F56D1CC
:10203000606810B1BAF1010F09D1206B00882168E6
:10204000C860206B801C2063E08E401EE0863FE06D
:102050002068806800F0020002281CD1E08ED0B118
:102060000298012817D1206B00882168C860206B76
:10207000801C2063E08E401EE08600200290E08EEF
:1020800048B9A06AB0F5005F05D12068006840F447
:102090008050216808602068806800F0010068B105
:1020A000E08F58B12068C068A16B0880A06B801CCD
:1020B000A063E08F401EE08701200290FEF784FEBF
:1020C000C01BB04204D3701C10B103200190AEE0DD
:1020D000E08E0028BCD1E08F0028B9D156E06068BE
:1020E00010B1BAF1010F09D1206B00782168087393
:1020F000206B401C2063E08E401EE08640E020689C
:10210000806800F0020002281CD1E08ED0B1029855
:10211000012817D1206B007821680873206B401CC0
:102120002063E08E401EE08600200290E08E48B9D9
:10213000A06AB0F5005F05D12068006840F48050C7
:10214000216808602068806800F0010068B1E08FB5
:1021500058B12068C068A16B0870A06B401CA063D8
:10216000E08F401EE08701200290FEF72DFEC01B8D
:10217000B04201D3701C00B916B90320019056E09B
:10218000E08E0028BBD1E08F0028B8D1A06AB0F55E
:10219000005F10D13346012211462046009704F01B
:1021A0002EFA30B1606D40F00200606503200190AE
:1021B0003DE02068C06820688068C0F30010E8B186
:1021C000204604F019FA012814D1606D40F0020095
:1021D000606500BF2068006820F400502168086036
:1021E0002068006840F400502168086000BF0120AA
:1021F000019003E04FF6EF70216888603A4631465F
:10220000204604F0E5F920B101200190202060650E
:102210000DE0A06850B900BF002000902068C068A1
:10222000009020688068009000BF00BF00BF0120C0
:1022300084F8510000BF002084F8500000BF0198CE
:1022400099E670B504460E4615460CB9012070BDDE
:1022500094F8410028B9002084F84000204600F09E
:102260001FF804F108012068FEF74EFA3146A26813
:102270002068FEF781FA2946236BD4E90102FEF7B4
:1022800021FAA168206850F8210040F00100A268FE
:10229000216841F82200012084F841000020D6E79F
:1022A00010B586B0044600BF2848406940F48070ED
:1022B000264948610846406900F48070019000BFDB
:1022C00000BF00BF0846806940F0200088610846D2
:1022D000806900F02000019000BF00BF00BF0846E9
:1022E000806940F0400088610846806900F0400045
:1022F000019000BF00BF00BF0846806940F48070B5
:1023000088610846806900F48070019000BF00BFBA
:102310004CF23370029002200390012004900320BD
:10232000059002A90A48FEF7A1FB4FF680700290C3
:1023300002A90848FEF79AFB41F20100029002A9A7
:102340000548FEF793FB06B010BD000000100240E8
:10235000001401400018014000200140042808D169
:102360004FF0E021096941F004014FF0E0221161D2
:1023700007E04FF0E021096921F004014FF0E0226D
:102380001161704770B504462546681EB0F1807F24
:1023900001D301200FE0681E4FF0E02148610F21BA
:1023A0004FF0FF3004F0B0FE00204FF0E0218861D4
:1023B00007200861002070BD7047014600220023FD
:1023C00091F8392091F83A3042EA03007047000052
:1023D0002DE9F0470446206805682068C668206833
:1023E00047694FF00008C14605F00F08B8F1000F2B
:1023F0000AD105F0200038B106F0200020B12046B7
:1024000004F03CFBBDE8F087B8F1000F6DD007F099
:10241000010018B906F49070002866D005F001009C
:1024200030B106F4807018B1E06B40F00100E06359
:1024300005F0040030B107F0010018B1E06B40F086
:102440000200E06305F0020030B107F0010018B1AE
:10245000E06B40F00400E06305F0080030B107F0E5
:10246000010018B1E06B40F00800E063E06B68B376
:1024700005F0200028B106F0200010B1204604F03D
:10248000FDFA20684069C0F38019E06B00F0080095
:1024900010B9B9F1000F22D0204604F0CFFA20681D
:1024A000406900F04000B0B12068406920F0400071
:1024B00021684861606B50B11748616B4863606B7D
:1024C000FEF7ECF910B1606B416B88470CE02046D9
:1024D000FFF772FF08E02046FFF76EFF04E020469A
:1024E000FFF76AFF0020E0638CE705F0800030B161
:1024F00006F0800018B1204604F0E4FB82E705F006
:10250000400030B106F0400018B1204604F0A6FAB1
:1025100078E700BF76E70000296A000810B5044696
:102520000CB9012010BDA06900B100E000BF94F813
:10253000390028B9002084F83800204600F028F837
:10254000242084F839002068C06820F400502168F5
:10255000C860204604F0E6FA2068006920F4904044
:10256000216808612068406920F02A0021684861DC
:102570002068C06840F400502168C8600020E06313
:10258000202084F8390084F83A000020CAE70000CF
:1025900010B586B0044625492068884244D100BF62
:1025A0002348806940F00400214988610846806919
:1025B00000F00400019000BF00BF00BF0846806922
:1025C00040F4804088610846806900F480400190B2
:1025D00000BF00BF00BF0846806940F0010088616D
:1025E0000846806900F00100019000BF00BF481557
:1025F000029002200390012004900320059002A97C
:102600000C48FEF733FA4FF48060029000200390EC
:1026100002A90848FEF72AFA2520FEF722FC032229
:1026200011462520FEF72DFC06B010BD00380140F4
:10263000001002400008014010B5034693F83A002C
:1026400020282FD101B10AB9012010BD00BF93F895
:102650003800012801D10220F7E7012083F8380073
:1026600000BF99629A85DA850020D863222083F81A
:102670003A0000BF002083F8380000BF1868C06827
:1026800040F480701C68E0601868406940F0010008
:102690001C6860611868C06840F020001C68E06039
:1026A0000020D2E70220D0E71D4A0168914236D1CE
:1026B0001C49098801F4004189BB1A49098801F4C1
:1026C000804171B1184909780A2903D00021154ABF
:1026D000118024E01349098841F40041114A118016
:1026E0001DE0114909780D2906D10E49098841F4E8
:1026F00080410C4A118012E00B490978094A12887E
:10270000C2F30D02094B995406490988491C054A30
:10271000118011460988C72901DD00211180704709
:1027200000380140180000201A0000207C00002022
:10273000704700BFFEE772B6704762B67047000090
:1027400000B585B000BF1A48806940F00400184900
:1027500088610846806900F00400009000BF00BF57
:1027600000BF0846806940F04000886108468069E3
:1027700000F04000009000BF00BF01200190002049
:102780000290022003900320049001A90948FEF75B
:102790006DF91C200190002002900120039003207D
:1027A000049001A90448FEF761F905B000BD0000DE
:1027B00000100240000801400018014010B5044616
:1027C000012C01D12C4908702B480078002837D003
:1027D00010212A48FEF7EAFA78B108212748FEF7C7
:1027E000E5FA50B104212548FEF7E0FA28B10121AD
:1027F0002348FEF7DBFA012822D10A2005F06AFB04
:1028000000201D49087010211C48FEF7CFFA08B9B6
:10281000012010BD08211948FEF7C8FA08B90220A6
:10282000F7E704211548FEF7C1FA08B90320F0E7DD
:1028300001211348FEF7BAFA01281BD10420E8E76A
:1028400010210E48FEF7B2FA012813D108210B48D7
:10285000FEF7ACFA01280DD104210848FEF7A6FACC
:10286000012807D101210648FEF7A0FA10B901207E
:10287000014908700020CCE7240000200018014026
:102880000008014070B504460026094805884088C4
:1028900045430021084602F09DFD02F021FF00BFE4
:1028A00002E004490C80761CAE42FAD370BD0000F1
:1028B000CC0100200008006C2DE9F84F07460D46BA
:1028C00090469946DDF828B0A8EB0700401C1FFA97
:1028D00080FAA9EB0500401C80B20090002414E0AF
:1028E000281981B2384602F075FD02F0F9FE002683
:1028F00007E004FB0A603BF8100006490880701CE2
:1029000086B25645F5DB601C84B200988442E7DB52
:10291000BDE8F88F0008006C10B504465548847176
:10292000002C51D1F020534908804FF4A07048800A
:102930000846808849F24131884205D04D48808858
:1029400045F21031884214D12C204A4908812A20AE
:1029500048812B2088810846808845F210318842C2
:1029600006D14FF4A070434908804FF4F0704880BE
:102970007BE04048808845F21051884210D14FF4E6
:1029800030503C4908814FF4285048814FF42C5076
:1029900088814FF4F07008804FF44870488064E0FC
:1029A0003448808841F6631188425ED12C20314939
:1029B00008812B2048812A2088814FF4F0700880FC
:1029C0004FF44870488050E04FF4A07029490880C7
:1029D000F02048800846808849F24131884205D07D
:1029E0002448808845F21031884207D12C202149A3
:1029F00008812A2048812B20888129E01D48808871
:102A000045F21051884210D14FF4305019490881D5
:102A10004FF4285048814FF42C5088814FF448706F
:102A200008804FF4F070488012E01248808841F628
:102A3000631188420CD12C200E4908812A2048813C
:102A40002B2088814FF4487008804FF4F070488044
:102A50000848808845F21031884206D14FF4F07062
:102A6000044908804FF4A0704880002002F078FBF1
:102A700010BD0000CC01002030B504460D463E4894
:102A8000808849F24131884205D03B48808845F230
:102A90001031884214D13849488902F015FE2012BD
:102AA00002F006FEE0B202F003FE3349888902F02C
:102AB0000BFE281202F0FCFDE8B202F0F9FD54E032
:102AC0002D48808845F21051884220D12A494889F2
:102AD00002F0FAFD201202F0EBFD27494989491C5A
:102AE00088B202F0F1FDE0B202F0E2FD22498889ED
:102AF00002F0EAFD281202F0DBFD1F498989491C1A
:102B000088B202F0E1FDE8B202F0D2FD2DE01A48F1
:102B1000808841F66311884227D11748807920B90F
:102B200015480088401E001B84B21349488902F0F2
:102B3000CBFD201202F0BCFDE0B202F0B9FD201284
:102B400002F0B6FDE0B202F0B3FD0B49888902F055
:102B5000BBFD281202F0ACFDE8B202F0A9FD28127C
:102B600002F0A6FDE8B202F0A3FD03480089034984
:102B70000880891C0A8030BDCC010020FE07006C53
:102B80002DE9F04F05460E4617469846DDF824A07D
:102B90004FF0000B781B401C1FFA80FB344613E0FB
:102BA0002146284602F016FC02F09AFD4FF000097B
:102BB00006E00749A1F800A009F101001FFA80F919
:102BC000D945F6DB601C84B24445E9DDBDE8F08FF1
:102BD0000008006C00B593B000BFFE48806940F06B
:102BE0000800FC4988610846806900F008000090F0
:102BF00000BF00BF01200F90109011900320129091
:102C00000FA9F548FDF732FF4FF02040F349086067
:102C1000F3484860062088600021F048C1600161E7
:102C20001021416100218161C16141624FF48051F5
:102C300081620021C1624FF4804101630021416340
:102C4000816306200890002009901A200A90002035
:102C50000E90049003200190002002900620039023
:102C60000020079001AA08A9DC48FFF7EAFA322001
:102C700005F030F9D32002F027FD02F0E1F9D9493F
:102C8000888002F0DDF9D749888002F0D9F9D5496A
:102C90008880084680884FF6FF7101EA0020D149FC
:102CA000888002F0CDF9CF4989880843CD498880D2
:102CB0000846808849F24131884278D0D42002F019
:102CC00003FD02F0BDF9C749888002F0B9F9C54992
:102CD000888002F0B5F9C3498880084680884FF69D
:102CE000FF7101EA0020BF49888002F0A9F9BD49BF
:102CF00089880843BB4988800846808845F210319E
:102D0000884254D04FF45A4002F0DEFC02F098F9A9
:102D1000B44988804FF45B4002F0D6FC02F090F991
:102D2000B0498880084680884FF6FF7101EA00208C
:102D3000AC4988804FF45C4002F0C6FC02F080F998
:102D4000A84989880843A749888008468088B0F543
:102D5000004F02D145F210508880A248808845F289
:102D60001051884223D0A12002F0AEFC02F068F995
:102D70009C49888002F064F99A49888008468088D6
:102D80004FF6FF7101EA00209649888002F058F959
:102D9000944989880843934988800846808845F289
:102DA0006171884203D141F663108E4988808D4855
:102DB00081888DA0FDF7A6FA8A48808849F24131C2
:102DC00088427CD1CF2002F07FFC002002F070FC12
:102DD000C12002F06DFC302002F06AFCED2002F010
:102DE00073FC642002F064FC032002F061FC1220FA
:102DF00002F05EFC812002F05BFCE82002F064FC43
:102E0000852002F055FC102002F052FC7A2002F0DE
:102E10004FFCCB2002F058FC392002F049FC2C205A
:102E200002F046FC002002F043FC342002F040FC9B
:102E3000022002F03DFCF72002F046FC202002F0C8
:102E400037FCEA2002F040FC002002F031FC0020B8
:102E500002F02EFCC02002F037FC1B2002F028FC00
:102E6000C12002F031FC012002F022FCC52002F05A
:102E70002BFC302002F01CFC302002F019FCC72093
:102E800002F022FCB72002F013FC362002F01CFCFA
:102E9000482002F00DFC3A2002F016FC552002F00A
:102EA00007FCB12002F010FC002002F001FC1A2007
:102EB00002F0FEFBB62002F007FC0A2000E0ACE0C6
:102EC00002F0F6FBA22002F0F3FBF22002F0FCFB82
:102ED000002002F0EDFB262002F0F6FB012002F0BC
:102EE000E7FBE02002F0F0FB0F2002F0E1FB2A20DC
:102EF00002F0DEFB282002F0DBFB082002F0D8FB0A
:102F00000E2002F0D5FB082002F0D2FB542002F084
:102F1000CFFBA92002F0CCFB432002F0C9FB0A2022
:102F200002F0C6FB0F2002F0C3FB002002F0C0FB42
:102F3000002002F0BDFB002002F0BAFB002002F0EE
:102F4000B7FBE12002F0C0FB002002F0B1FB15202E
:102F500002F0AEFB172002F0ABFB072002F0A8FB4B
:102F6000112002F0A5FB062002F0A2FB2B2002F0AC
:102F70009FFB562002F09CFB3C2002F099FB0520B1
:102F800002F096FB102002F093FB0F2002F090FB62
:102F90003F2002F08DFB3F2002F08AFB0F2002F061
:102FA00087FB2B2002F090FB002002F081FB002029
:102FB00002F07EFB012002F07BFB3F2002F078FB59
:102FC0002A2002F081FB002002F072FB002002F0B8
:102FD0006FFB11E000100240000C01408401002052
:102FE000040100A0CC010020204C43442049443A75
:102FF00025780D0A00000000002002F059FBEF20A8
:1030000002F056FB112002F05FFB782004F062FF13
:10301000292002F059FB01F0CBBFFE48808845F221
:103020001031884240F07C87ED2002F04DFB0120FA
:1030300002F03EFBFE2002F03BFBEE2002F044FBE0
:10304000DE2002F035FB212002F032FBF12002F0FD
:103050003BFB012002F02CFBDF2002F035FB1020AF
:1030600002F026FBC42002F02FFB8F2002F020FB91
:10307000C62002F029FB002002F01AFBE22002F039
:1030800017FBE22002F014FBE22002F011FBBF204C
:1030900002F01AFBAA2002F00BFBB02002F014FB96
:1030A0000D2002F005FB002002F002FB0D2002F0D3
:1030B000FFFA002002F0FCFA112002F0F9FA0020D9
:1030C00002F0F6FA192002F0F3FA002002F0F0FA0A
:1030D000212002F0EDFA002002F0EAFA2D2002F0A1
:1030E000E7FA002002F0E4FA3D2002F0E1FA0020C5
:1030F00002F0DEFA5D2002F0DBFA002002F0D8FADE
:103100005D2002F0D5FA002002F0D2FAB12002F0E0
:10311000DBFA802002F0CCFA002002F0C9FA8B2002
:1031200002F0C6FA002002F0C3FA962002F0C0FABC
:10313000002002F0BDFAB22002F0C6FA002002F030
:10314000B7FA002002F0B4FA022002F0B1FA00202F
:1031500002F0AEFA032002F0ABFA002002F0A8FA67
:10316000B32002F0B1FA002002F0A2FA002002F02F
:103170009FFA002002F09CFA002002F099FA002049
:1031800002F096FA002002F093FA002002F090FA82
:10319000002002F08DFA002002F08AFA002002F0EE
:1031A00087FA002002F084FA002002F081FA002061
:1031B00002F07EFA002002F07BFA002002F078FA9A
:1031C000002002F075FA002002F072FA002002F0EE
:1031D0006FFA002002F06CFA002002F069FA002079
:1031E00002F066FA002002F063FA002002F060FAB2
:1031F000002002F05DFAB42002F066FA8B2002F0A3
:1032000057FA002002F054FA962002F051FA0020FA
:1032100002F04EFAA12002F04BFA002002F048FA28
:10322000B52002F051FA022002F042FA002002F02A
:103230003FFA032002F03CFA002002F039FA0420A1
:1032400002F036FA002002F033FAB62002F03CFA1F
:10325000002002F02DFA002002F02AFAB72002F036
:1032600033FA002002F024FA002002F021FA3F2075
:1032700002F01EFA002002F01BFA5E2002F018FA9B
:10328000002002F015FA642002F012FA002002F089
:103290000FFA8C2002F00CFA002002F009FAAC20A0
:1032A00002F006FA002002F003FADC2002F000FA35
:1032B000002002F0FDF9702002F0FAF9002002F07F
:1032C000F7F9902002F0F4F9002002F0F1F9EB2078
:1032D00002F0EEF9002002F0EBF9DC2002F0E8F950
:1032E000002002F0E5F9B82002F0EEF9002002F02B
:1032F000DFF9002002F0DCF9002002F0D9F900200B
:1033000002F0D6F9002002F0D3F9002002F0D0F943
:10331000002002F0CDF9002002F0CAF9BA2002F034
:10332000D3F9242002F0C4F9002002F0C1F90020F2
:1033300002F0BEF9002002F0BBF9C12002F0C4F98E
:10334000202002F0B5F9002002F0B2F9542002F07A
:10335000AFF9002002F0ACF9FF2002F0A9F900203B
:1033600002F0A6F9C22002F0AFF90A2002F0A0F99B
:10337000002002F09DF9042002F09AF9002002F0EA
:1033800097F9C32002F0A0F93C2002F091F9002047
:1033900002F08EF93A2002F08BF9002002F088F951
:1033A000392002F085F9002002F082F9372002F07E
:1033B0007FF9002002F07CF93C2002F079F900202E
:1033C00002F076F9362002F073F9002002F070F96D
:1033D000322002F06DF9002002F06AF92F2002F08D
:1033E00067F9002002F064F92C2002F061F9002056
:1033F00002F05EF9292002F05BF9002002F058F992
:10340000262002F055F9002002F052F9242002F0A3
:103410004FF901E0CC010020002002F049F92420FE
:1034200002F046F9002002F043F9232002F040F9AF
:10343000002002F03DF93C2002F03AF9002002F0B1
:1034400037F9362002F034F9002002F031F9322049
:1034500002F02EF9002002F02BF92F2002F028F9BB
:10346000002002F025F92C2002F022F9002002F0C1
:103470001FF9292002F01CF9002002F019F926207A
:1034800002F016F9002002F013F9242002F010F9DE
:10349000002002F00DF9242002F00AF9002002F0C9
:1034A00007F9232002F004F9002002F001F9C420FA
:1034B00002F00AF9622002F0FBF8002002F0F8F8AE
:1034C000052002F0F5F8002002F0F2F8842002F066
:1034D000EFF8002002F0ECF8F02002F0E9F800200C
:1034E00002F0E6F8182002F0E3F8002002F0E0F81D
:1034F000A42002F0DDF8002002F0DAF8182002F033
:10350000D7F8002002F0D4F8502002F0D1F80020C3
:1035100002F0CEF80C2002F0CBF8002002F0C8F840
:10352000172002F0C5F8002002F0C2F8952002F042
:10353000BFF8002002F0BCF8F32002F0B9F8002038
:1035400002F0B6F8E62002F0B3F8002002F0B0F87E
:10355000C52002F0B9F8322002F0AAF8002002F0EB
:10356000A7F8442002F0A4F8002002F0A1F865209A
:1035700002F09EF8002002F09BF8762002F098F806
:10358000002002F095F8882002F092F8002002F066
:103590008FF8C62002F098F8202002F089F8002069
:1035A00002F086F8172002F083F8002002F080F87D
:1035B000012002F07DF8002002F07AF8C72002F026
:1035C00083F8002002F074F8002002F071F8002067
:1035D00002F06EF8002002F06BF8C82002F074F8D8
:1035E000002002F065F8002002F062F8002002F0EE
:1035F0005FF8002002F05CF8C92002F065F80020B6
:1036000002F056F8002002F053F8002002F050F8C3
:10361000002002F04DF8002002F04AF8002002F0ED
:1036200047F8002002F044F8002002F041F80020A2
:1036300002F03EF8002002F03BF8002002F038F8DB
:10364000002002F035F8002002F032F8002002F0ED
:103650002FF8002002F02CF8002002F029F8E020DA
:1036600002F032F8162002F023F8002002F020F8D1
:103670001C2002F01DF8002002F01AF8212002F0B0
:1036800017F8002002F014F8362002F011F800209C
:1036900002F00EF8462002F00BF8002002F008F8C5
:1036A000522002F005F8002002F002F8642001F038
:1036B000FFFF002001F0FCFF7A2001F0F9FF00205D
:1036C00001F0F6FF8B2001F0F3FF002001F0F0FF86
:1036D000992001F0EDFF002001F0EAFFA82001F0A1
:1036E000E7FF002001F0E4FFB92001F0E1FF002036
:1036F00001F0DEFFC42001F0DBFF002001F0D8FF65
:10370000CA2001F0D5FF002001F0D2FFD22001F045
:10371000CFFF002001F0CCFFD92001F0C9FF00202D
:1037200001F0C6FFE02001F0C3FF002001F0C0FF60
:10373000F32001F0BDFF002001F0BAFFE12001F00D
:10374000C3FF162001F0B4FF002001F0B1FF1C20E0
:1037500001F0AEFF002001F0ABFF222001F0A8FF36
:10376000002001F0A5FF362001F0A2FF002001F0AB
:103770009FFF452001F09CFF002001F099FF52209F
:1037800001F096FF002001F093FF642001F090FF0C
:10379000002001F08DFF7A2001F08AFF002001F067
:1037A00087FF8B2001F084FF002001F081FF99202A
:1037B00001F07EFF002001F07BFFA82001F078FFE0
:1037C000002001F075FFB92001F072FF002001F028
:1037D0006FFFC42001F06CFF002001F069FFCA20D8
:1037E00001F066FF002001F063FFD22001F060FFCE
:1037F000002001F05DFFD82001F05AFF002001F009
:1038000057FFE02001F054FF002001F051FFF320AA
:1038100001F04EFF002001F04BFFE22001F054FFC9
:10382000052001F045FF002001F042FF0B2001F0D0
:103830003FFF002001F03CFF1B2001F039FF00207A
:1038400001F036FF342001F033FF002001F030FF9B
:10385000442001F02DFF002001F02AFF4F2001F04D
:1038600027FF002001F024FF612001F021FF00204C
:1038700001F01EFF792001F01BFF002001F018FF6E
:10388000882001F015FF002001F012FF972001F0C1
:103890000FFF002001F00CFFA62001F009FF00201F
:1038A00001F006FFB72001F003FF002001F000FF48
:1038B000C22001F0FDFE002001F0FAFEC72001F059
:1038C000F7FE002001F0F4FED12001F0F1FE00200F
:1038D00001F0EEFED62001F0EBFE002001F0E8FE44
:1038E000DD2001F0E5FE002001F0E2FEF32001F012
:1038F000DFFE002001F0DCFEE32001F0E5FE052004
:1039000001F0D6FE002001F0D3FE0A2001F0D0FE27
:10391000002001F0CDFE1C2001F0CAFE002001F0C5
:10392000C7FE332001F0C4FE002001F0C1FE442098
:1039300001F0BEFE002001F0BBFE502001F0B8FEF9
:10394000002001F0B5FE622001F0B2FE002001F07F
:10395000AFFE782001F0ACFE002001F0A9FE882027
:1039600001F0A6FE002001F0A3FE972001F0A0FECA
:10397000002001F09DFEA62001F09AFE002001F03B
:1039800097FEB72001F094FE002001F091FEC220C6
:1039900001F08EFE002001F08BFEC72001F088FEB2
:1039A000002001F085FED12001F082FE002001F010
:1039B0007FFED52001F07CFE002001F079FEDD20A5
:1039C00001F076FE002001F073FEF32001F070FE9E
:1039D000002001F06DFEE42001F076FE012001F0F0
:1039E00067FE002001F064FE012001F061FE00206E
:1039F00001F05EFE022001F05BFE002001F058FEA7
:103A00002A2001F055FE002001F052FE3C2001F07A
:103A10004FFE002001F04CFE4B2001F049FE00203B
:103A200001F046FE5D2001F043FE002001F040FE63
:103A3000742001F03DFE002001F03AFE842001F0E8
:103A400037FE002001F034FE932001F031FE00200B
:103A500001F02EFEA22001F02BFE002001F028FE36
:103A6000B32001F025FE002001F022FEBE2001F06F
:103A70001FFE002001F01CFEC42001F019FE0020F2
:103A800001F016FECD2001F013FE002001F010FE23
:103A9000D32001F00DFE002001F00AFEDD2001F030
:103AA00007FE002001F004FEF32001F001FE0020DB
:103AB00001F0FEFDE52001F007FE002001F0F8FD19
:103AC000002001F0F5FD002001F0F2FD002001F0E2
:103AD000EFFD022001F0ECFD002001F0E9FD2920BE
:103AE00001F0E6FD002001F0E3FD3C2001F0E0FDE7
:103AF000002001F0DDFD4B2001F0DAFD002001F097
:103B0000D7FD5D2001F0D4FD002001F0D1FD74202F
:103B100001F0CEFD002001F0CBFD842001F0C8FDB6
:103B2000002001F0C5FD932001F0C2FD002001F04E
:103B3000BFFDA22001F0BCFD002001F0B9FDB320C3
:103B400001F0B6FD002001F0B3FDBE2001F0B0FD94
:103B5000002001F0ADFDC42001F0AAFD002001F01D
:103B6000A7FDCD2001F0A4FD002001F0A1FDD32090
:103B700001F09EFD002001F09BFDDC2001F098FD8E
:103B8000002001F095FDF32001F092FD002001F0EE
:103B90008FFDE62001F098FD112001F089FD002045
:103BA00001F086FD342001F083FD002001F080FD4E
:103BB000562001F07DFD002001F07AFD762001F015
:103BC00077FD002001F074FD772001F071FD0020E9
:103BD00001F06EFD662001F06BFD002001F068FD34
:103BE000882001F065FD002001F062FD992001F0C0
:103BF0005FFD002001F05CFDBB2001F059FD0020BD
:103C000001F056FD992001F053FD002001F050FD18
:103C1000662001F04DFD002001F04AFD552001F025
:103C200047FD002001F044FD552001F041FD00203A
:103C300001F03EFD452001F03BFD002001F038FD84
:103C4000432001F035FD002001F032FD442001F059
:103C50002FFD002001F02CFDE72001F035FD322082
:103C600001F026FD002001F023FD552001F020FD8C
:103C7000002001F01DFD762001F01AFD002001F06A
:103C800017FD662001F014FD002001F011FD6720F2
:103C900001F00EFD002001F00BFD672001F008FD92
:103CA000002001F005FD872001F002FD002001F059
:103CB000FFFC992001F0FCFC002001F0F9FCBB2086
:103CC00001F0F6FC002001F0F3FC992001F0F0FC7B
:103CD000002001F0EDFC772001F0EAFC002001F06B
:103CE000E7FC442001F0E4FC002001F0E1FC562058
:103CF00001F0DEFC002001F0DBFC232001F0D8FC09
:103D0000002001F0D5FC332001F0D2FC002001F0AE
:103D1000CFFC452001F0CCFC002001F0C9FCE820DC
:103D200001F0D2FC002001F0C3FC002001F0C0FC37
:103D3000992001F0BDFC002001F0BAFC872001F0C1
:103D4000B7FC002001F0B4FC882001F0B1FC002099
:103D500001F0AEFC772001F0ABFC002001F0A8FCE4
:103D6000662001F0A5FC002001F0A2FC882001F0F3
:103D70009FFC002001F09CFCAA2001F099FC00208F
:103D800001F096FCBB2001F093FC002001F090FCB8
:103D9000992001F08DFC002001F08AFC662001F0E2
:103DA00087FC002001F084FC552001F081FC0020FC
:103DB00001F07EFC552001F07BFC002001F078FC36
:103DC000442001F075FC002001F072FC442001F059
:103DD0006FFC002001F06CFC552001F069FC002014
:103DE00001F066FCE92001F06FFCAA2001F060FC04
:103DF000002001F05DFC002001F05AFC002001F0E1
:103E000057FC002001F060FCAA2001F051FCCF20FB
:103E100001F05AFC002001F04BFC002001F048FCAE
:103E2000002001F045FC002001F042FC002001F0E0
:103E30003FFC002001F03CFC002001F039FC002098
:103E400001F036FC002001F033FC002001F030FCD2
:103E5000002001F02DFC002001F02AFC002001F0E0
:103E600027FC002001F024FC002001F021FC0020B0
:103E700001F01EFC002001F01BFCF02001F024FCEE
:103E8000002001F015FC502001F012FC002001F090
:103E90000FFC002001F00CFC002001F009FCF320D5
:103EA00001F012FC002001F003FCF92001F00CFCF1
:103EB000062001F0FDFB102001F0FAFB292001F0A3
:103EC000F7FB002001F0F4FB3A2001F0FDFB552048
:103ED00001F0EEFB112001F0F7FB642003F0FAFF84
:103EE000292001F0F1FB352001F0EEFB002001F06C
:103EF000DFFB512001F0E8FBFF2001F0D9FB53204C
:103F000001F0E2FB2C2001F0D3FB552001F0DCFB9B
:103F1000822001F0CDFB2C2001F0D6FB01F048B847
:103F2000FE48808845F2105188427DD155214FF4DA
:103F3000704001F0DFFBAA214FF2010001F0DAFB33
:103F400052214FF2020001F0D5FB08214FF203008D
:103F500001F0D0FB01214FF2040001F0CBFB0D2159
:103F60004FF4304001F0C6FB0D214BF2010001F08F
:103F7000C1FB0D214BF2020001F0BCFB34214FF4D8
:103F8000364001F0B7FB34214BF2016001F0B2FB87
:103F900034214BF2026001F0ADFB0D214FF43140B2
:103FA00001F0A8FB0D214BF2011001F0A3FB0D2144
:103FB0004BF2021001F09EFB34214FF4374001F028
:103FC00099FB34214BF2017001F094FB34214BF248
:103FD000027001F08FFB00214FF4324001F08AFBA8
:103FE00000214BF2012001F085FB00214BF2022061
:103FF00001F080FB24214FF4384001F07BFB2421A9
:104000004BF6010001F076FB24214BF6020001F093
:1040100071FB01214FF43F4001F06CFB0F214FF485
:10402000334001F067FB00E0FDE30F214BF201306C
:1040300001F060FB0F214BF2023001F05BFB3421F9
:104040004FF4394001F056FB34214BF6011001F0DA
:1040500051FB34214BF6021001F04CFB08214FF4C8
:10406000354001F047FB08214BF2015001F042FBC3
:1040700008214BF2025001F03DFB03214FF4424076
:1040800001F038FB24214FF43A4001F033FB2421A6
:104090004BF6012001F02EFB24214BF6022001F00B
:1040A00029FB00214FF43C4001F024FB78214BF622
:1040B000014001F01FFB00214BF6024001F01AFB0A
:1040C00000214FF43D4001F015FB78214BF60150E3
:1040D00001F010FB00214BF6025001F00BFB002118
:1040E0004FF43E4001F006FB64214BF6016001F005
:1040F00001FB00214FF4514001F0FCFA33214DF255
:10410000011001F0F7FA00214DF2021001F0F2FA6D
:1041100034214DF2031001F0EDFA00214DF20410AC
:1041200001F0E8FA3A214DF2051001F0E3FA00211E
:104130004DF2061001F0DEFA4A214DF2071001F0AF
:10414000D9FA00214DF2081001F0D4FA5C214DF2A9
:10415000091001F0CFFA00214DF20A1001F0CAFA5D
:1041600081214DF20B1001F0C5FA00214DF20C1027
:1041700001F0C0FAA6214DF20D1001F0BBFA0021AA
:104180004DF20E1001F0B6FAE5214DF20F1001F0DC
:10419000B1FA01214DF2101001F0ACFA13214DF2E9
:1041A000111001F0A7FA01214DF2121001F0A2FA4C
:1041B00054214DF2131001F09DFA01214DF214101B
:1041C00001F098FA82214DF2151001F093FA0121C5
:1041D0004DF2161001F08EFACA214DF2171001F0BF
:1041E00089FA02214DF2181001F084FA00214DF2F3
:1041F000191001F07FFA02214DF21A1001F07AFA3B
:1042000001214DF21B1001F075FA02214DF21C1034
:1042100001F070FA34214DF21D1001F06BFA022109
:104220004DF21E1001F066FA67214DF21F1001F0E9
:1042300061FA02214DF2201001F05CFA84214DF266
:10424000211001F057FA02214DF2221001F052FA2A
:10425000A4214DF2231001F04DFA02214DF2241059
:1042600001F048FAB7214DF2251001F043FA02217E
:104270004DF2261001F03EFACF214DF2271001F049
:1042800039FA02214DF2281001F034FADE214DF204
:10429000291001F02FFA02214DF22A1001F02AFA1A
:1042A000F2214DF22B1001F025FA02214DF22C10D3
:1042B00001F020FAFE214DF22D1001F01BFA03212E
:1042C0004DF22E1001F016FA10214DF22F1001F0D0
:1042D00011FA03214DF2301001F00CFA33214DF2A6
:1042E000311001F007FA03214DF2321001F002FA09
:1042F0006D214DF2331001F0FDF900214FF45240D1
:1043000001F0F8F933214DF2012001F0F3F9002119
:104310004DF2022001F0EEF9342101E0CC01002041
:104320004DF2032001F0E6F900214DF2042001F0E6
:10433000E1F93A214DF2052001F0DCF900214DF2BE
:10434000062001F0D7F94A214DF2072001F0D2F9F9
:1043500000214DF2082001F0CDF95C214DF2092039
:1043600001F0C8F900214DF20A2001F0C3F98121C2
:104370004DF20B2001F0BEF900214DF20C2001F0AE
:10438000B9F9A6214DF20D2001F0B4F900214DF24A
:104390000E2001F0AFF9E5214DF20F2001F0AAF94E
:1043A00001214DF2102001F0A5F913214DF2112049
:1043B00001F0A0F901214DF2122001F09BF95421E6
:1043C0004DF2132001F096F901214DF2142001F075
:1043D00091F982214DF2152001F08CF901214DF265
:1043E000162001F087F9CA214DF2172001F082F959
:1043F00002214DF2182001F07DF900214DF2192023
:1044000001F078F902214DF21A2001F073F901212F
:104410004DF21B2001F06EF902214DF21C2001F03B
:1044200069F934214DF21D2001F064F902214DF2A9
:104430001E2001F05FF967214DF21F2001F05AF9AB
:1044400002214DF2202001F055F984214DF2212066
:1044500001F050F902214DF2222001F04BF9A42184
:104460004DF2232001F046F902214DF2242001F003
:1044700041F9B7214DF2252001F03CF902214DF21E
:10448000262001F037F9CF214DF2272001F032F933
:1044900002214DF2282001F02DF9DE214DF22920D4
:1044A00001F028F902214DF22A2001F023F9F2212E
:1044B0004DF22B2001F01EF902214DF22C2001F0CB
:1044C00019F9FE214DF22D2001F014F903214DF2CE
:1044D0002E2001F00FF910214DF22F2001F00AF9E2
:1044E00003214DF2302001F005F933214DF2312046
:1044F00001F000F903214DF2322001F0FBF86D21AB
:104500004DF2332001F0F6F800214FF4534001F052
:10451000F1F833214DF2013001F0ECF800214DF2B9
:10452000023001F0E7F834214DF2033001F0E2F8F7
:1045300000214DF2043001F0DDF83A214DF2053052
:1045400001F0D8F800214DF2063001F0D3F84A21ED
:104550004DF2073001F0CEF800214DF2083001F0A5
:10456000C9F85C214DF2093001F0C4F800214DF288
:104570000A3001F0BFF881214DF20B3001F0BAF89A
:1045800000214DF20C3001F0B5F8A6214DF20D30AE
:1045900001F0B0F800214DF20E3001F0ABF8E5214A
:1045A0004DF20F3001F0A6F801214DF2103001F06C
:1045B000A1F813214DF2113001F09CF801214DF2C8
:1045C000123001F097F854214DF2133001F092F8B7
:1045D00001214DF2143001F08DF882214DF2153099
:1045E00001F088F801214DF2163001F083F8CA215C
:1045F0004DF2173001F07EF802214DF2183001F033
:1046000079F800214DF2193001F074F802214DF2D1
:104610001A3001F06FF801214DF21B3001F06AF8F9
:1046200002214DF21C3001F065F834214DF21D30AD
:1046300001F060F802214DF21E3001F05BF86721B5
:104640004DF21F3001F056F802214DF2203001F0FA
:1046500051F884214DF2213001F04CF802214DF245
:10466000223001F047F8A4214DF2233001F042F846
:1046700002214DF2243001F03DF8B7214DF22530F2
:1046800001F038F802214DF2263001F033F8CF2145
:104690004DF2273001F02EF802214DF2283001F0C2
:1046A00029F8DE214DF2293001F024F802214DF2E3
:1046B0002A3001F01FF8F2214DF22B3001F01AF8E8
:1046C00002214DF22C3001F015F8FE214DF22D3073
:1046D00001F010F803214DF22E3001F00BF81021FB
:1046E0004DF22F3001F006F803214DF2303001F089
:1046F00001F833214DF2313000F0FCFF03214DF27F
:10470000323000F0F7FF6D214DF2333000F0F2FF50
:1047100000214FF4544000F0EDFF33214DF20140F1
:1047200000F0E8FF00214DF2024000F0E3FF3421E9
:104730004DF2034000F0DEFF00214DF2044000F096
:10474000D9FF3A214DF2054000F0D4FF00214DF28F
:10475000064000F0CFFF4A214DF2074000F0CAFFAB
:1047600000214DF2084000F0C5FF5C214DF20940E8
:1047700000F0C0FF00214DF20A4000F0BBFF812194
:104780004DF20B4000F0B6FF00214DF20C4000F05E
:10479000B1FFA6214DF20D4000F0ACFF00214DF21B
:1047A0000E4000F0A7FFE5214DF20F4000F0A2FF00
:1047B00001214DF2104000F09DFF13214DF21140F8
:1047C00000F098FF01214DF2124000F093FF5421B8
:1047D0004DF2134000F08EFF01214DF2144000F025
:1047E00089FF82214DF2154000F084FF01214DF236
:1047F000164000F07FFFCA214DF2174000F07AFF0B
:1048000002214DF2184000F075FF00214DF21940D1
:1048100000F070FF02214DF21A4000F06BFF012101
:104820004DF21B4000E005E300F064FF02214DF271
:104830001C4000F05FFF34214DF21D4000F05AFF94
:1048400002214DF21E4000F055FF67214DF21F403E
:1048500000F050FF02214DF2204000F04BFF842178
:104860004DF2214000F046FF02214DF2224000F0BF
:1048700041FFA4214DF2234000F03CFF02214DF204
:10488000244000F037FFB7214DF2254000F032FF01
:1048900002214DF2264000F02DFFCF214DF227409E
:1048A00000F028FF02214DF2284000F023FFDE2116
:1048B0004DF2294000F01EFF02214DF22A4000F087
:1048C00019FFF2214DF22B4000F014FF02214DF2AE
:1048D0002C4000F00FFFFE214DF22D4000F00AFFAA
:1048E00003214DF22E4000F005FF10214DF22F4024
:1048F00000F000FF03214DF2304000F0FBFE3321B9
:104900004DF2314000F0F6FE03214DF2324000F04E
:10491000F1FE6D214DF2334000F0ECFE00214FF42A
:10492000554000F0E7FE33214DF2015000F0E2FE69
:1049300000214DF2025000F0DDFE34214DF2035013
:1049400000F0D8FE00214DF2045000F0D3FE3A21D1
:104950004DF2055000F0CEFE00214DF2065000F061
:10496000C9FE4A214DF2075000F0C4FE00214DF26D
:10497000085000F0BFFE5C214DF2095000F0BAFE75
:1049800000214DF20A5000F0B5FE81214DF20B508E
:1049900000F0B0FE00214DF20C5000F0ABFEA6215D
:1049A0004DF20D5000F0A6FE00214DF20E5000F029
:1049B000A1FEE5214DF20F5000F09CFE01214DF2C9
:1049C000105000F097FE13214DF2115000F092FEAE
:1049D00001214DF2125000F08DFE54214DF2135082
:1049E00000F088FE01214DF2145000F083FE822178
:1049F0004DF2155000F07EFE01214DF2165000F0F0
:104A000079FECA214DF2175000F074FE02214DF2DA
:104A1000185000F06FFE00214DF2195000F06AFEB0
:104A200002214DF21A5000F065FE01214DF21B509B
:104A300000F060FE02214DF21C5000F05BFE3421BC
:104A40004DF21D5000F056FE02214DF21E5000F0B6
:104A500051FE67214DF21F5000F04CFE02214DF235
:104A6000205000F047FE84214DF2215000F042FE1C
:104A700002214DF2225000F03DFEA4214DF22350C0
:104A800000F038FE02214DF2245000F033FEB72131
:104A90004DF2255000F02EFE02214DF2265000F07E
:104AA00029FECF214DF2275000F024FE02214DF2C5
:104AB000285000F01FFEDE214DF2295000F01AFEB2
:104AC00002214DF22A5000F015FEF2214DF22B503A
:104AD00000F010FE02214DF22C5000F00BFEFE21E2
:104AE0004DF22D5000F006FE03214DF22E5000F045
:104AF00001FE10214DF22F5000F0FCFD03214DF27C
:104B0000305000F0F7FD33214DF2315000F0F2FD4E
:104B100003214DF2325000F0EDFD6D214DF2335086
:104B200000F0E8FD00214FF4564000F0E3FD332192
:104B30004DF2016000F0DEFD00214DF2026000F058
:104B4000D9FD34214DF2036000F0D4FD00214DF277
:104B5000046000F0CFFD3A214DF2056000F0CAFD7F
:104B600000214DF2066000F0C5FD4A214DF20760BC
:104B700000F0C0FD00214DF2086000F0BBFD5C219B
:104B80004DF2096000F0B6FD00214DF20A6000F020
:104B9000B1FD81214DF20B6000F0ACFD00214DF222
:104BA0000C6000F0A7FDA6214DF20D6000F0A2FD03
:104BB00000214DF20E6000F09DFDE5214DF20F60E9
:104BC00000F098FD01214DF2106000F093FD1321DB
:104BD0004DF2116000F08EFD01214DF2126000F0E7
:104BE00089FD54214DF2136000F084FD01214DF246
:104BF000146000F07FFD82214DF2156000F07AFD17
:104C000001214DF2166000F075FDCA214DF21760CA
:104C100000F070FD02214DF2186000F06BFD0021E4
:104C20004DF2196000F066FD02214DF21A6000F0AD
:104C300061FD01214DF21B6000F05CFD02214DF28F
:104C40001C6000F057FD34214DF21D6000F052FD54
:104C500002214DF21E6000F04DFD67214DF21F60F4
:104C600000F048FD02214DF2206000F043FD842158
:104C70004DF2216000F03EFD02214DF2226000F075
:104C800039FDA4214DF2236000F034FD02214DF2E4
:104C9000246000F02FFDB7214DF2256000F02AFDC1
:104CA00002214DF2266000F025FDCF214DF2276054
:104CB00000F020FD02214DF2286000F01BFDDE21F6
:104CC0004DF2296000F016FD02214DF22A6000F03D
:104CD00011FDF2214DF22B6000F00CFD02214DF28E
:104CE0002C6000F007FDFE214DF22D6000F002FD6A
:104CF00003214DF22E6000F0FDFC10214DF22F60DB
:104D000000F0F8FC03214DF2306000F0F3FC332199
:104D10004DF2316000F0EEFC03214DF2326000F004
:104D2000E9FC6D214DF2336000F0E4FC55214FF4B5
:104D3000704000F0DFFCAA214FF2010000F0DAFC25
:104D400052214FF2020000F0D5FC08214FF203007F
:104D500000F0D0FC00214FF2040000F0CBFCCC218D
:104D60004FF4314000F0C6FC00214BF2011000F07E
:104D7000C1FC05214FF4364000F0BCFC70214FF41B
:104D8000374000F0B7FC70214BF2017000F0B2FC2C
:104D900001214FF4384000F0ADFC03214BF6010037
:104DA00000F0A8FC03214BF6020000F0A3FC032155
:104DB0004BF6030000F09EFC02214FF43C4000F053
:104DC00099FC00214BF6014000F094FC00214BF6C9
:104DD000024000F08FFCD0214FF4494000F08AFCE3
:104DE00002214CF6011000F085FC50214CF6021017
:104DF00000F080FC50214CF6031000F07BFC5021A9
:104E00004CF6041000F076FC00214FF4545000F0F2
:104E100071FC55214FF4685000F06CFC4FF4885041
:104E200000F052FC782003F061F84FF4245000F0B9
:104E30004BFCBDE07F48808841F663118842F8D181
:104E4000E22000F041FC1D2000F032FC022000F0C6
:104E50002FFC042000F02CFC642003F047F8E02035
:104E600000F032FC012000F023FC0A2003F032F8AD
:104E7000E02000F029FC032000F01AFC0C2003F0D5
:104E800029F8012000F020FC0A2003F023F8E62096
:104E900000F01AFC2F2000F00BFCFF2000F008FCB3
:104EA000FF2000F005FCB02000F00EFC202000F0F8
:104EB000FFFB002000F0FCFB032000F0F9FB40F2B8
:104EC0001F3000F0F5FB012000F0F2FB40F2DF1094
:104ED00000F0EEFB002000F0EBFBB42000F0F4FB50
:104EE000042000F0E5FB40F21F4000F0E1FB002051
:104EF00000F0DEFB2E2000F0DBFB002000F0D8FBF2
:104F0000002000F0D5FB002000F0D2FB002000F0D4
:104F1000CFFBB62000F0D8FB022000F0C9FB4FF415
:104F2000037000F0C5FB002000F0C2FB172000F06A
:104F3000BFFB152000F0BCFB002000F0B9FB0020F7
:104F400000F0B6FBF02000F0BFFB032000F0B0FB48
:104F5000292000F0B9FBD02000F0B6FB002000F0C3
:104F6000A7FBBE2000F0B0FB052000F0A1FBFE2057
:104F700000F09EFB012000F09BFB002000F098FB5E
:104F8000002000F095FB002000F092FBB82000F01C
:104F90009BFB032000F08CFB012000F089FBBA2072
:104FA00000F092FB012000F083FB642000F0AEF8DB
:104FB0002048808849F24131884211D01D488088BC
:104FC00045F2103188420BD01A48808845F21051C2
:104FD000884205D01748808841F6631188421CD169
:104FE0001548006820F00F004FF02041C1F81C0167
:104FF0000846D0F81C0120F47060C1F81C01084676
:10500000D0F81C0140F00100C1F81C010846D0F89E
:105010001C0140F48070C1F81C010020FDF77CFCED
:105020000120064908604FF6FF70FDF72BFC13B016
:1050300000BD0000CC0100201C0100A080812142A5
:1050400008B5034800880090BDF8000008BD0000C6
:105050000008006C2DE9F04105460E4600240027AB
:10506000A04629480088A84203DD27484088B0426E
:1050700002DC0020BDE8F0813146284600F0AAF9A4
:105080002148808849F2413188420BD01E488088EF
:1050900045F21031884205D01B48808841F66311E3
:1050A000884203D12E2000F00FFB09E016488088CB
:1050B00045F21051884203D14FF4385000F004FB00
:1050C000FFF7BEFF04461048808841F6631188420E
:1050D00001D12046CEE7022007F0D2FAFFF7B0FF59
:1050E0000446022007F0CCFAFFF7AAFF8046E7B299
:1050F0004FF6FF7000EA0727E012C002B91240EA3B
:10510000411040EAE820B5E7CC0100202DE9F04746
:105110000446BE2000F0D8FA052000F0C9FA204667
:1051200008F057F807464FF066320C4B08F064F869
:10513000054608F021F81FFA80F9484600F0B8FA51
:10514000012000F0B5FAFF2000F0B2FA002000F0D4
:10515000AFFA002000F0ACFABDE8F08766660440C4
:10516000F0B505460024002799488079012805D12B
:105170009748808841F66311884208D19448807925
:10518000F0B99348808841F66311884218D1082D00
:1051900015D2DFE805F00406080A0C0E10120625E9
:1051A0000DE007250BE0042509E0052507E00125B2
:1051B00005E0002503E0032501E0022500BF00BF54
:1051C0008348808849F24131884211D080488088E4
:1051D00045F2103188420BD07D48808845F210514D
:1051E000884205D07A48808841F6631188427DD193
:1051F000082D1CD2DFE805F00406090C0F12151863
:1052000000BF14E044F0800411E044F040040EE0DC
:1052100044F0C0040BE044F0200408E044F06004D3
:1052200005E044F0A00402E044F0E00400BF00BF49
:105230006748808845F21051884202D14FF4585790
:1052400000E036276248808845F2103188420DD050
:105250005F48808845F21051884207D05C488088BA
:1052600041F66311884201D044F0080421463846D3
:1052700000F040FA5648808841F6631188421DD0FC
:1052800004F0200068B1524800885149498888429A
:1052900014DA4F48068840884D4908800846468001
:1052A0000CE04B4800884A494988884206DD484856
:1052B00006884088464908800846468044488088D9
:1052C00045F21051884254D14149488900F0FCF917
:1052D000002000F0EDF93E494989491C88B200F0F0
:1052E000F3F9002000F0E4F9394900E06FE0498962
:1052F000891C88B200F0E8F935490988491EC1F3D4
:105300000F2000F0D5F932494989C91C88B200F054
:10531000DBF92F490978491EC8B200F0C9F92C49B8
:10532000888900F0D1F9002000F0C2F92849898964
:10533000491C88B200F0C8F9002000F0B9F92449EE
:105340008989891C88B200F0BFF921494988491E22
:10535000C1F30F2000F0ACF91D498989C91C88B23E
:1053600000F0B2F91A498978491EC8B200F0A0F9D4
:105370002DE01749488900F0A7F9002000F098F9BE
:10538000002000F095F912490988491EC1F30F2049
:1053900000F08EF90E490978491EC8B200F088F96C
:1053A0000B49888900F090F9002000F081F9002075
:1053B00000F07EF906494988491EC1F30F2000F02C
:1053C00077F903498978491EC8B200F071F9F0BD38
:1053D000CC01002010B502460C464B48808849F2AB
:1053E0004131884205D04848808845F210318842D2
:1053F00014D14549488900F067F9101200F058F9B6
:10540000D0B200F055F94049888900F05DF92012CA
:1054100000F04EF9E0B200F04BF973E03A488088B2
:1054200041F66311884247D137488079A8B9364898
:105430000088401E801A82B23349488900F044F93E
:10544000002000F035F9002000F032F9101200F0D1
:105450002FF9D0B200F02CF916E02B49488900F062
:1054600033F9101200F024F9D0B200F021F92649E6
:105470000988491EC1F30F2000F01AF92249097862
:10548000491EC8B200F014F91F49888900F01CF9C0
:10549000201200F00DF9E0B200F00AF91A4949882B
:1054A000491EC1F30F2000F003F917498978491EFE
:1054B000C8B200F0FDF825E01348808845F210518D
:1054C00088421FD11049488900F0FEF8101200F000
:1054D000EFF80D494989491C88B200F0F5F8D0B2BF
:1054E00000F0E6F80849888900F0EEF8201200F094
:1054F000DFF805498989491C88B200F0E5F8E0B277
:1055000000F0D6F810BD0000CC0100202DE9F84FC6
:1055100080460F4616461C46BB462046E31704EB62
:105520005373DB1021464FEAE47C04EB5C7C4FEACA
:10553000EC0CA4EBCC0CBCF1000F02D04FF0010C32
:1055400001E04FF0000C6344224604EBD27C4FEAAA
:105550006C0C03FB0CF3DBB20093A6F12000C6B287
:1055600000255EE00C2C07D106EB46002F4901EB2D
:10557000800010F805901BE0102C05D12C4800EBA2
:10558000061010F8059013E0182C07D106EBC600A2
:10559000284901EB800010F8059009E0202C05D186
:1055A000254800EBC61010F8059001E0BDE8F88F23
:1055B0004FF0000A2FE009F0800030B11F48394653
:1055C00002684046FDF758FA07E00A9828B91C48D7
:1055D000394602684046FDF74FFA4FEA49604FEA04
:1055E0001069781C87B217484088B84200DCDDE7B4
:1055F000A7EB0B00A0420AD15F4608F101001FFA99
:1056000080F810480088404500DCCFE706E00AF14A
:10561000010000F0FF0ABAF1080FCCDB00BF681CE4
:10562000C5B2009885429DDB00BFBFE722DA0008C3
:1056300096DE000886E40008E2F100081C00002065
:1056400020000020CC0100202DE9F84704460D463B
:1056500090469946DDE9096704F0FF0A08EB04006B
:105660001FFA80F809EB05001FFA80F916E044459F
:1056700002DB5446A81985B24D4500DB14E000203A
:1056800000903A78334629462046FFF73FFF3046E0
:1056900006EBD07104EB61018CB27F1C38787E2858
:1056A00002DC38782028E2DA00BFBDE8F887000085
:1056B00001B5BDF800000090BDF800000149088068
:1056C00008BD00000008006C01B5BDF800000090A6
:1056D000BDF800000149088008BD0000FE07006C0D
:1056E000024800890249088070470000CC01002070
:1056F000FE07006C024A1080921C11807047000067
:10570000FE07006C00B585B000BF1B48806940F003
:105710000800194988610846806900F00800009077
:1057200000BF00BF00BF0846806940F040008861AC
:105730000846806900F04000009000BF00BF2020B4
:1057400001900120029003900320049001A90B48CE
:10575000FBF78CF92020019001A90948FBF786F995
:10576000012220210548FBF729FB012220210448C2
:10577000FBF724FB05B000BD00100240000C014007
:105780000018014000BFFEE77047704708B50849A0
:105790000968C9084FF47A72B1FBF2F141430091F4
:1057A00000BF00BF00994A1E00920029F9D108BD30
:1057B0000000002010B502460023086850624868C7
:1057C0009062D1E9020420430C6920434C692043D4
:1057D0000343D06A20F0F7001843D062002010BDC8
:1057E00001460869C0B270470146086800F003002E
:1057F0007047024602F114004318186870470FB44E
:1058000010B504460021DDE903021043059A104358
:10581000069A1043079A1043089A104301436068A0
:1058200047F6FF62904308436060002010BC5DF8BB
:1058300014FB10B50446032020600220FBF702F998
:10584000002010BD0146D1F88000704710B5024617
:10585000002308689060D1E901042043CC6820430C
:105860000C6920430343D0686FF30B001843D060EA
:10587000002010BD02460868C2F880000020704772
:1058800070B586B005460C46019437200290402042
:105890000390002004904FF48060059001A92846F1
:1058A000FFF7D4FF41F288323721284600F0DCF9B7
:1058B0000646304606B070BD70B586B005460C464B
:1058C0000B482043019029200290402003900020A3
:1058D00004904FF48060059001A92846FFF7B6FFB9
:1058E000284600F0C9FA0646304606B070BD0000F2
:1058F0000000108070B586B005460C46019410205B
:10590000029040200390002004904FF480600590A6
:1059100001A92846FFF79AFF41F288321021284654
:1059200000F0A2F90646304606B070BD70B586B0EC
:1059300005460C460194062002904020039000206A
:1059400004904FF48060059001A92846FFF77EFF80
:1059500041F288320621284600F086F90646304694
:1059600006B070BD30B585B00446002000900190AF
:10597000029003904FF48060049069462046FFF740
:1059800065FF204600F050F90546284605B030BDB9
:1059900030B585B004464FF4D570009008200190D2
:1059A00040200290002003904FF4806004906946EC
:1059B0002046FFF74BFF204600F0E6FA0546284652
:1059C00005B030BD70B586B005460C460194122076
:1059D000029040200390002004904FF480600590D6
:1059E00001A92846FFF732FF41F2883212212846EA
:1059F00000F03AF90646304606B070BD70B586B084
:105A000005460C460194112002904020039000208E
:105A100004904FF48060059001A92846FFF716FF17
:105A200041F288321121284600F01EF90646304620
:105A300006B070BDF0B585B0064614461D4600940C
:105A40000720019040200290002003904FF48060D6
:105A5000049069463046FFF7F9FE41F2883207218B
:105A6000304600F001F90746384605B0F0BD30B5C4
:105A700085B004460020009002200190C0200290D2
:105A8000002003904FF48060049069462046FFF7A1
:105A9000DDFE204600F0BEF90546284605B030BDC3
:105AA00070B586B005460C46019409200290C020CE
:105AB0000390002004904FF48060059001A92846CF
:105AC000FFF7C4FE284600F0A5F90646304606B0AA
:105AD00070BD30B585B004460020009033200190A1
